{
  "address": "0xD29fee98db74D7A9C7685c1c3cc9d459588991bF",
  "abi": [
    {
      "inputs": [],
      "name": "ALREADY_REGISTERED",
      "type": "error"
    },
    {
      "inputs": [],
      "name": "INVALID_ACTIVITY_MULTIPLIER",
      "type": "error"
    },
    {
      "inputs": [],
      "name": "INVALID_LIST",
      "type": "error"
    },
    {
      "inputs": [],
      "name": "NOT_MEMBER_OR_NOT_SORTED",
      "type": "error"
    },
    {
      "inputs": [],
      "name": "NOT_REGISTERED",
      "type": "error"
    },
    {
      "inputs": [
        {
          "internalType": "UD60x18",
          "name": "x",
          "type": "uint256"
        }
      ],
      "name": "PRBMath_UD60x18_Sqrt_Overflow",
      "type": "error"
    },
    {
      "inputs": [],
      "name": "START_DATE_IN_FUTURE",
      "type": "error"
    },
    {
      "anonymous": false,
      "inputs": [
        {
          "indexed": false,
          "internalType": "uint8",
          "name": "version",
          "type": "uint8"
        }
      ],
      "name": "Initialized",
      "type": "event"
    },
    {
      "anonymous": false,
      "inputs": [
        {
          "indexed": true,
          "internalType": "address",
          "name": "_registryAddress",
          "type": "address"
        },
        {
          "indexed": true,
          "internalType": "uint32",
          "name": "_chainId",
          "type": "uint32"
        },
        {
          "indexed": false,
          "internalType": "uint32",
          "name": "_domainId",
          "type": "uint32"
        },
        {
          "indexed": false,
          "internalType": "address",
          "name": "_delegate",
          "type": "address"
        }
      ],
      "name": "NetworkRegistryUpdated",
      "type": "event"
    },
    {
      "anonymous": false,
      "inputs": [
        {
          "indexed": true,
          "internalType": "address",
          "name": "previousOwner",
          "type": "address"
        },
        {
          "indexed": true,
          "internalType": "address",
          "name": "newOwner",
          "type": "address"
        }
      ],
      "name": "OwnershipTransferred",
      "type": "event"
    },
    {
      "anonymous": false,
      "inputs": [
        {
          "components": [
            {
              "internalType": "address",
              "name": "account",
              "type": "address"
            },
            {
              "internalType": "uint32",
              "name": "secondsActive",
              "type": "uint32"
            },
            {
              "internalType": "uint32",
              "name": "startDate",
              "type": "uint32"
            },
            {
              "internalType": "uint8",
              "name": "activityMultiplier",
              "type": "uint8"
            }
          ],
          "indexed": false,
          "internalType": "struct MemberRegistry.Member",
          "name": "member",
          "type": "tuple"
        },
        {
          "indexed": false,
          "internalType": "uint32",
          "name": "startDate",
          "type": "uint32"
        }
      ],
      "name": "SetMember",
      "type": "event"
    },
    {
      "anonymous": false,
      "inputs": [
        {
          "indexed": false,
          "internalType": "bytes32",
          "name": "_transferId",
          "type": "bytes32"
        },
        {
          "indexed": true,
          "internalType": "bytes4",
          "name": "_action",
          "type": "bytes4"
        },
        {
          "indexed": true,
          "internalType": "bool",
          "name": "_success",
          "type": "bool"
        },
        {
          "indexed": false,
          "internalType": "uint32",
          "name": "_originDomain",
          "type": "uint32"
        },
        {
          "indexed": false,
          "internalType": "address",
          "name": "_originSender",
          "type": "address"
        }
      ],
      "name": "SyncActionPerformed",
      "type": "event"
    },
    {
      "anonymous": false,
      "inputs": [
        {
          "indexed": true,
          "internalType": "bytes4",
          "name": "_action",
          "type": "bytes4"
        },
        {
          "indexed": true,
          "internalType": "uint32",
          "name": "_chainId",
          "type": "uint32"
        },
        {
          "indexed": true,
          "internalType": "bytes32",
          "name": "_transferId",
          "type": "bytes32"
        },
        {
          "indexed": false,
          "internalType": "address",
          "name": "_registryAddress",
          "type": "address"
        }
      ],
      "name": "SyncMessageSubmitted",
      "type": "event"
    },
    {
      "anonymous": false,
      "inputs": [
        {
          "indexed": false,
          "internalType": "uint32",
          "name": "date",
          "type": "uint32"
        }
      ],
      "name": "Update",
      "type": "event"
    },
    {
      "anonymous": false,
      "inputs": [
        {
          "components": [
            {
              "internalType": "address",
              "name": "account",
              "type": "address"
            },
            {
              "internalType": "uint32",
              "name": "secondsActive",
              "type": "uint32"
            },
            {
              "internalType": "uint32",
              "name": "startDate",
              "type": "uint32"
            },
            {
              "internalType": "uint8",
              "name": "activityMultiplier",
              "type": "uint8"
            }
          ],
          "indexed": false,
          "internalType": "struct MemberRegistry.Member",
          "name": "member",
          "type": "tuple"
        }
      ],
      "name": "UpdateMember",
      "type": "event"
    },
    {
      "anonymous": false,
      "inputs": [
        {
          "components": [
            {
              "internalType": "address",
              "name": "account",
              "type": "address"
            },
            {
              "internalType": "uint32",
              "name": "secondsActive",
              "type": "uint32"
            },
            {
              "internalType": "uint32",
              "name": "startDate",
              "type": "uint32"
            },
            {
              "internalType": "uint8",
              "name": "activityMultiplier",
              "type": "uint8"
            }
          ],
          "indexed": false,
          "internalType": "struct MemberRegistry.Member",
          "name": "member",
          "type": "tuple"
        },
        {
          "indexed": false,
          "internalType": "uint32",
          "name": "newSeconds",
          "type": "uint32"
        }
      ],
      "name": "UpdateMemberSeconds",
      "type": "event"
    },
    {
      "inputs": [],
      "name": "PERCENTAGE_SCALE",
      "outputs": [
        {
          "internalType": "uint32",
          "name": "",
          "type": "uint32"
        }
      ],
      "stateMutability": "view",
      "type": "function"
    },
    {
      "inputs": [
        {
          "internalType": "uint32[]",
          "name": "_chainIds",
          "type": "uint32[]"
        },
        {
          "internalType": "uint256[]",
          "name": "_relayerFees",
          "type": "uint256[]"
        }
      ],
      "name": "acceptNetworkSplitControl",
      "outputs": [],
      "stateMutability": "payable",
      "type": "function"
    },
    {
      "inputs": [],
      "name": "acceptSplitControl",
      "outputs": [],
      "stateMutability": "nonpayable",
      "type": "function"
    },
    {
      "inputs": [],
      "name": "baal",
      "outputs": [
        {
          "internalType": "contract IBaal",
          "name": "",
          "type": "address"
        }
      ],
      "stateMutability": "view",
      "type": "function"
    },
    {
      "inputs": [
        {
          "internalType": "address[]",
          "name": "_members",
          "type": "address[]"
        },
        {
          "internalType": "uint8[]",
          "name": "_activityMultipliers",
          "type": "uint8[]"
        },
        {
          "internalType": "uint32[]",
          "name": "_startDates",
          "type": "uint32[]"
        }
      ],
      "name": "batchNewMember",
      "outputs": [],
      "stateMutability": "nonpayable",
      "type": "function"
    },
    {
      "inputs": [
        {
          "internalType": "address[]",
          "name": "_members",
          "type": "address[]"
        },
        {
          "internalType": "uint8[]",
          "name": "_activityMultipliers",
          "type": "uint8[]"
        }
      ],
      "name": "batchUpdateMember",
      "outputs": [],
      "stateMutability": "nonpayable",
      "type": "function"
    },
    {
      "inputs": [],
      "name": "burnShares",
      "outputs": [
        {
          "internalType": "bool",
          "name": "",
          "type": "bool"
        }
      ],
      "stateMutability": "view",
      "type": "function"
    },
    {
      "inputs": [
        {
          "internalType": "address[]",
          "name": "_sortedList",
          "type": "address[]"
        }
      ],
      "name": "calculate",
      "outputs": [
        {
          "internalType": "address[]",
          "name": "_receivers",
          "type": "address[]"
        },
        {
          "internalType": "uint32[]",
          "name": "_percentAllocations",
          "type": "uint32[]"
        }
      ],
      "stateMutability": "view",
      "type": "function"
    },
    {
      "inputs": [
        {
          "internalType": "uint32[]",
          "name": "_chainIds",
          "type": "uint32[]"
        },
        {
          "internalType": "uint256[]",
          "name": "_relayerFees",
          "type": "uint256[]"
        }
      ],
      "name": "cancelNetworkSplitControlTransfer",
      "outputs": [],
      "stateMutability": "payable",
      "type": "function"
    },
    {
      "inputs": [],
      "name": "cancelSplitControlTransfer",
      "outputs": [],
      "stateMutability": "nonpayable",
      "type": "function"
    },
    {
      "inputs": [],
      "name": "connext",
      "outputs": [
        {
          "internalType": "contract IConnext",
          "name": "",
          "type": "address"
        }
      ],
      "stateMutability": "view",
      "type": "function"
    },
    {
      "inputs": [
        {
          "internalType": "address",
          "name": "_member",
          "type": "address"
        }
      ],
      "name": "getMember",
      "outputs": [
        {
          "components": [
            {
              "internalType": "address",
              "name": "account",
              "type": "address"
            },
            {
              "internalType": "uint32",
              "name": "secondsActive",
              "type": "uint32"
            },
            {
              "internalType": "uint32",
              "name": "startDate",
              "type": "uint32"
            },
            {
              "internalType": "uint8",
              "name": "activityMultiplier",
              "type": "uint8"
            }
          ],
          "internalType": "struct MemberRegistry.Member",
          "name": "",
          "type": "tuple"
        }
      ],
      "stateMutability": "view",
      "type": "function"
    },
    {
      "inputs": [],
      "name": "getMembers",
      "outputs": [
        {
          "components": [
            {
              "internalType": "address",
              "name": "account",
              "type": "address"
            },
            {
              "internalType": "uint32",
              "name": "secondsActive",
              "type": "uint32"
            },
            {
              "internalType": "uint32",
              "name": "startDate",
              "type": "uint32"
            },
            {
              "internalType": "uint8",
              "name": "activityMultiplier",
              "type": "uint8"
            }
          ],
          "internalType": "struct MemberRegistry.Member[]",
          "name": "",
          "type": "tuple[]"
        }
      ],
      "stateMutability": "view",
      "type": "function"
    },
    {
      "inputs": [
        {
          "internalType": "bytes",
          "name": "_initializationParams",
          "type": "bytes"
        }
      ],
      "name": "initialize",
      "outputs": [],
      "stateMutability": "nonpayable",
      "type": "function"
    },
    {
      "inputs": [],
      "name": "isMainRegistry",
      "outputs": [
        {
          "internalType": "bool",
          "name": "",
          "type": "bool"
        }
      ],
      "stateMutability": "view",
      "type": "function"
    },
    {
      "inputs": [],
      "name": "lastUpdate",
      "outputs": [
        {
          "internalType": "uint32",
          "name": "",
          "type": "uint32"
        }
      ],
      "stateMutability": "view",
      "type": "function"
    },
    {
      "inputs": [
        {
          "internalType": "address",
          "name": "",
          "type": "address"
        }
      ],
      "name": "memberIdxs",
      "outputs": [
        {
          "internalType": "uint256",
          "name": "",
          "type": "uint256"
        }
      ],
      "stateMutability": "view",
      "type": "function"
    },
    {
      "inputs": [
        {
          "internalType": "uint256",
          "name": "",
          "type": "uint256"
        }
      ],
      "name": "members",
      "outputs": [
        {
          "internalType": "address",
          "name": "account",
          "type": "address"
        },
        {
          "internalType": "uint32",
          "name": "secondsActive",
          "type": "uint32"
        },
        {
          "internalType": "uint32",
          "name": "startDate",
          "type": "uint32"
        },
        {
          "internalType": "uint8",
          "name": "activityMultiplier",
          "type": "uint8"
        }
      ],
      "stateMutability": "view",
      "type": "function"
    },
    {
      "inputs": [
        {
          "internalType": "uint32",
          "name": "",
          "type": "uint32"
        }
      ],
      "name": "networkRegistry",
      "outputs": [
        {
          "internalType": "uint32",
          "name": "domainId",
          "type": "uint32"
        },
        {
          "internalType": "address",
          "name": "registryAddress",
          "type": "address"
        },
        {
          "internalType": "address",
          "name": "delegate",
          "type": "address"
        }
      ],
      "stateMutability": "view",
      "type": "function"
    },
    {
      "inputs": [],
      "name": "owner",
      "outputs": [
        {
          "internalType": "address",
          "name": "",
          "type": "address"
        }
      ],
      "stateMutability": "view",
      "type": "function"
    },
    {
      "inputs": [],
      "name": "renounceOwnership",
      "outputs": [],
      "stateMutability": "nonpayable",
      "type": "function"
    },
    {
      "inputs": [
        {
          "internalType": "address",
          "name": "_member",
          "type": "address"
        },
        {
          "internalType": "uint8",
          "name": "_activityMultiplier",
          "type": "uint8"
        },
        {
          "internalType": "uint32",
          "name": "_startDate",
          "type": "uint32"
        }
      ],
      "name": "setNewMember",
      "outputs": [],
      "stateMutability": "nonpayable",
      "type": "function"
    },
    {
      "inputs": [
        {
          "internalType": "address",
          "name": "_split",
          "type": "address"
        },
        {
          "internalType": "uint32",
          "name": "_splitDistributorFee",
          "type": "uint32"
        }
      ],
      "name": "setSplit",
      "outputs": [],
      "stateMutability": "nonpayable",
      "type": "function"
    },
    {
      "inputs": [
        {
          "internalType": "address",
          "name": "_splitMain",
          "type": "address"
        }
      ],
      "name": "setSplitMain",
      "outputs": [],
      "stateMutability": "nonpayable",
      "type": "function"
    },
    {
      "inputs": [
        {
          "internalType": "uint32",
          "name": "_updaterDomain",
          "type": "uint32"
        },
        {
          "internalType": "address",
          "name": "_updater",
          "type": "address"
        }
      ],
      "name": "setUpdater",
      "outputs": [],
      "stateMutability": "nonpayable",
      "type": "function"
    },
    {
      "inputs": [],
      "name": "sharesToMint",
      "outputs": [
        {
          "internalType": "uint256",
          "name": "",
          "type": "uint256"
        }
      ],
      "stateMutability": "view",
      "type": "function"
    },
    {
      "inputs": [],
      "name": "split",
      "outputs": [
        {
          "internalType": "address",
          "name": "",
          "type": "address"
        }
      ],
      "stateMutability": "view",
      "type": "function"
    },
    {
      "inputs": [],
      "name": "splitDistributorFee",
      "outputs": [
        {
          "internalType": "uint32",
          "name": "",
          "type": "uint32"
        }
      ],
      "stateMutability": "view",
      "type": "function"
    },
    {
      "inputs": [],
      "name": "splitMain",
      "outputs": [
        {
          "internalType": "contract ISplitMain",
          "name": "",
          "type": "address"
        }
      ],
      "stateMutability": "view",
      "type": "function"
    },
    {
      "inputs": [
        {
          "internalType": "address[]",
          "name": "_members",
          "type": "address[]"
        },
        {
          "internalType": "uint8[]",
          "name": "_activityMultipliers",
          "type": "uint8[]"
        },
        {
          "internalType": "uint32[]",
          "name": "_startDates",
          "type": "uint32[]"
        },
        {
          "internalType": "uint32[]",
          "name": "_chainIds",
          "type": "uint32[]"
        },
        {
          "internalType": "uint256[]",
          "name": "_relayerFees",
          "type": "uint256[]"
        }
      ],
      "name": "syncBatchNewMember",
      "outputs": [],
      "stateMutability": "payable",
      "type": "function"
    },
    {
      "inputs": [
        {
          "internalType": "address[]",
          "name": "_members",
          "type": "address[]"
        },
        {
          "internalType": "uint8[]",
          "name": "_activityMultipliers",
          "type": "uint8[]"
        },
        {
          "internalType": "uint32[]",
          "name": "_chainIds",
          "type": "uint32[]"
        },
        {
          "internalType": "uint256[]",
          "name": "_relayerFees",
          "type": "uint256[]"
        }
      ],
      "name": "syncBatchUpdateMember",
      "outputs": [],
      "stateMutability": "payable",
      "type": "function"
    },
    {
      "inputs": [
        {
          "internalType": "uint32[]",
          "name": "_chainIds",
          "type": "uint32[]"
        },
        {
          "internalType": "uint256[]",
          "name": "_relayerFees",
          "type": "uint256[]"
        }
      ],
      "name": "syncNetworkMemberRegistry",
      "outputs": [],
      "stateMutability": "payable",
      "type": "function"
    },
    {
      "inputs": [
        {
          "internalType": "address",
          "name": "_member",
          "type": "address"
        },
        {
          "internalType": "uint8",
          "name": "_activityMultiplier",
          "type": "uint8"
        },
        {
          "internalType": "uint32",
          "name": "_startDate",
          "type": "uint32"
        },
        {
          "internalType": "uint32[]",
          "name": "_chainIds",
          "type": "uint32[]"
        },
        {
          "internalType": "uint256[]",
          "name": "_relayerFees",
          "type": "uint256[]"
        }
      ],
      "name": "syncSetNewMember",
      "outputs": [],
      "stateMutability": "payable",
      "type": "function"
    },
    {
      "inputs": [
        {
          "internalType": "address[]",
          "name": "_sortedList",
          "type": "address[]"
        },
        {
          "internalType": "uint32[]",
          "name": "_chainIds",
          "type": "uint32[]"
        },
        {
          "internalType": "uint256[]",
          "name": "_relayerFees",
          "type": "uint256[]"
        }
      ],
      "name": "syncUpdateAll",
      "outputs": [],
      "stateMutability": "payable",
      "type": "function"
    },
    {
      "inputs": [
        {
          "internalType": "address",
          "name": "_member",
          "type": "address"
        },
        {
          "internalType": "uint8",
          "name": "_activityMultiplier",
          "type": "uint8"
        },
        {
          "internalType": "uint32[]",
          "name": "_chainIds",
          "type": "uint32[]"
        },
        {
          "internalType": "uint256[]",
          "name": "_relayerFees",
          "type": "uint256[]"
        }
      ],
      "name": "syncUpdateMember",
      "outputs": [],
      "stateMutability": "payable",
      "type": "function"
    },
    {
      "inputs": [
        {
          "internalType": "uint32[]",
          "name": "_chainIds",
          "type": "uint32[]"
        },
        {
          "internalType": "uint256[]",
          "name": "_relayerFees",
          "type": "uint256[]"
        }
      ],
      "name": "syncUpdateSecondsActive",
      "outputs": [],
      "stateMutability": "payable",
      "type": "function"
    },
    {
      "inputs": [
        {
          "internalType": "address[]",
          "name": "_sortedList",
          "type": "address[]"
        },
        {
          "internalType": "uint32[]",
          "name": "_chainIds",
          "type": "uint32[]"
        },
        {
          "internalType": "uint256[]",
          "name": "_relayerFees",
          "type": "uint256[]"
        }
      ],
      "name": "syncUpdateSplits",
      "outputs": [],
      "stateMutability": "payable",
      "type": "function"
    },
    {
      "inputs": [],
      "name": "totalMembers",
      "outputs": [
        {
          "internalType": "uint256",
          "name": "",
          "type": "uint256"
        }
      ],
      "stateMutability": "view",
      "type": "function"
    },
    {
      "inputs": [
        {
          "internalType": "uint32[]",
          "name": "_chainIds",
          "type": "uint32[]"
        },
        {
          "internalType": "address[]",
          "name": "_newControllers",
          "type": "address[]"
        },
        {
          "internalType": "uint256[]",
          "name": "_relayerFees",
          "type": "uint256[]"
        }
      ],
      "name": "transferNetworkSplitControl",
      "outputs": [],
      "stateMutability": "payable",
      "type": "function"
    },
    {
      "inputs": [
        {
          "internalType": "address",
          "name": "newOwner",
          "type": "address"
        }
      ],
      "name": "transferOwnership",
      "outputs": [],
      "stateMutability": "nonpayable",
      "type": "function"
    },
    {
      "inputs": [
        {
          "internalType": "address",
          "name": "_newController",
          "type": "address"
        }
      ],
      "name": "transferSplitControl",
      "outputs": [],
      "stateMutability": "nonpayable",
      "type": "function"
    },
    {
      "inputs": [
        {
          "internalType": "address[]",
          "name": "_sortedList",
          "type": "address[]"
        }
      ],
      "name": "updateAll",
      "outputs": [
        {
          "internalType": "address[]",
          "name": "_receivers",
          "type": "address[]"
        },
        {
          "internalType": "uint32[]",
          "name": "_percentAllocations",
          "type": "uint32[]"
        }
      ],
      "stateMutability": "nonpayable",
      "type": "function"
    },
    {
      "inputs": [
        {
          "internalType": "address[]",
          "name": "_sortedList",
          "type": "address[]"
        },
        {
          "internalType": "contract IERC20",
          "name": "_token",
          "type": "address"
        },
        {
          "internalType": "address",
          "name": "_distributorAddress",
          "type": "address"
        }
      ],
      "name": "updateAllAndDistributeERC20",
      "outputs": [],
      "stateMutability": "nonpayable",
      "type": "function"
    },
    {
      "inputs": [
        {
          "internalType": "address[]",
          "name": "_sortedList",
          "type": "address[]"
        },
        {
          "internalType": "address",
          "name": "_distributorAddress",
          "type": "address"
        }
      ],
      "name": "updateAllAndDistributeETH",
      "outputs": [],
      "stateMutability": "nonpayable",
      "type": "function"
    },
    {
      "inputs": [
        {
          "internalType": "address",
          "name": "_member",
          "type": "address"
        },
        {
          "internalType": "uint8",
          "name": "_activityMultiplier",
          "type": "uint8"
        }
      ],
      "name": "updateMember",
      "outputs": [],
      "stateMutability": "nonpayable",
      "type": "function"
    },
    {
      "inputs": [
        {
          "internalType": "uint32",
          "name": "_chainId",
          "type": "uint32"
        },
        {
          "components": [
            {
              "internalType": "uint32",
              "name": "domainId",
              "type": "uint32"
            },
            {
              "internalType": "address",
              "name": "registryAddress",
              "type": "address"
            },
            {
              "internalType": "address",
              "name": "delegate",
              "type": "address"
            }
          ],
          "internalType": "struct INetworkMemberRegistry.NetworkRegistry",
          "name": "_registry",
          "type": "tuple"
        }
      ],
      "name": "updateNetworkRegistry",
      "outputs": [],
      "stateMutability": "nonpayable",
      "type": "function"
    },
    {
      "inputs": [
        {
          "internalType": "uint32[]",
          "name": "_chainIds",
          "type": "uint32[]"
        },
        {
          "internalType": "address[]",
          "name": "_splits",
          "type": "address[]"
        },
        {
          "internalType": "uint32[]",
          "name": "_splitDistributorFees",
          "type": "uint32[]"
        },
        {
          "internalType": "uint256[]",
          "name": "_relayerFees",
          "type": "uint256[]"
        }
      ],
      "name": "updateNetworkSplit",
      "outputs": [],
      "stateMutability": "payable",
      "type": "function"
    },
    {
      "inputs": [
        {
          "internalType": "uint32[]",
          "name": "_chainIds",
          "type": "uint32[]"
        },
        {
          "internalType": "address[]",
          "name": "_splitsMain",
          "type": "address[]"
        },
        {
          "internalType": "uint256[]",
          "name": "_relayerFees",
          "type": "uint256[]"
        }
      ],
      "name": "updateNetworkSplitMain",
      "outputs": [],
      "stateMutability": "payable",
      "type": "function"
    },
    {
      "inputs": [],
      "name": "updateSecondsActive",
      "outputs": [],
      "stateMutability": "nonpayable",
      "type": "function"
    },
    {
      "inputs": [
        {
          "internalType": "address[]",
          "name": "_sortedList",
          "type": "address[]"
        }
      ],
      "name": "updateSplits",
      "outputs": [
        {
          "internalType": "address[]",
          "name": "_receivers",
          "type": "address[]"
        },
        {
          "internalType": "uint32[]",
          "name": "_percentAllocations",
          "type": "uint32[]"
        }
      ],
      "stateMutability": "nonpayable",
      "type": "function"
    },
    {
      "inputs": [],
      "name": "updater",
      "outputs": [
        {
          "internalType": "address",
          "name": "",
          "type": "address"
        }
      ],
      "stateMutability": "view",
      "type": "function"
    },
    {
      "inputs": [],
      "name": "updaterDomain",
      "outputs": [
        {
          "internalType": "uint32",
          "name": "",
          "type": "uint32"
        }
      ],
      "stateMutability": "view",
      "type": "function"
    },
    {
      "inputs": [
        {
          "internalType": "bytes32",
          "name": "_transferId",
          "type": "bytes32"
        },
        {
          "internalType": "uint256",
          "name": "",
          "type": "uint256"
        },
        {
          "internalType": "address",
          "name": "",
          "type": "address"
        },
        {
          "internalType": "address",
          "name": "_originSender",
          "type": "address"
        },
        {
          "internalType": "uint32",
          "name": "_origin",
          "type": "uint32"
        },
        {
          "internalType": "bytes",
          "name": "_incomingCalldata",
          "type": "bytes"
        }
      ],
      "name": "xReceive",
      "outputs": [
        {
          "internalType": "bytes",
          "name": "",
          "type": "bytes"
        }
      ],
      "stateMutability": "nonpayable",
      "type": "function"
    }
  ],
  "transactionHash": "0xefc66071c7dae9715b185cbbf1fb5db630b70b5e8d706573dc474c3cc572e921",
  "args": [],
  "numDeployments": 1,
  "solcInputHash": "5224c5ec25dd58319938cd3b304b0404",
  "bytecode": "0x608060405260006067553480156200001657600080fd5b506200002162000027565b620000e9565b600054610100900460ff1615620000945760405162461bcd60e51b815260206004820152602760248201527f496e697469616c697a61626c653a20636f6e747261637420697320696e697469604482015266616c697a696e6760c81b606482015260840160405180910390fd5b60005460ff9081161015620000e7576000805460ff191660ff9081179091556040519081527f7f26b83ff96e1f2b6a682f133852f6798a09c465da95921460cefb38474024989060200160405180910390a15b565b6156bd80620000f96000396000f3fe60806040526004361061031a5760003560e01c8063831d74ef116101ab578063cb30af6e116100f7578063f2fde38b11610095578063fa6062e01161006f578063fa6062e014610968578063fc1468dc1461097b578063fd614f411461099b578063fdf4bd29146109c857600080fd5b8063f2fde38b14610904578063f765417614610924578063f98cc7c91461094457600080fd5b8063de4b0548116100d1578063de4b05481461088f578063df034cd0146108af578063e4a7c603146108cf578063e5a2a2a5146108e457600080fd5b8063cb30af6e1461082f578063d173ba061461084f578063d863d18d1461086f57600080fd5b80639eab525311610164578063b0affdf71161013e578063b0affdf7146107ae578063bf59b488146107ce578063c0463711146107f2578063c57576c41461080f57600080fd5b80639eab525314610764578063a084b6c014610786578063b044631c1461079b57600080fd5b8063831d74ef146106635780638da5cb5b146106765780638ddc5f3514610694578063979bc155146107115780639cc96363146107315780639d7b85451461074457600080fd5b8063479d0a0d1161026a57806364c6d00a1161022357806375491512116101fd57806375491512146106035780637698a8331461061957806376e925591461063957806380e038bc1461064e57600080fd5b806364c6d00a146105c85780636bda59da146105db578063715018a6146105ee57600080fd5b8063479d0a0d146104ea57806349be1b921461051857806356c0e9921461052b5780635daf08ca1461053e578063610498d91461059557806361bc3111146105a857600080fd5b80631eee592e116102d757806334e2fc65116102b157806334e2fc651461044e578063371b52e3146104895780633f26479e1461049e578063439fab91146104ca57600080fd5b80631eee592e146103ee5780632ada259614610401578063339c34f71461042e57600080fd5b806301dabadc1461031f57806306a53350146103415780630971ee81146103615780630bddc56b146103745780630e769b2b146103a35780631049d736146103db575b600080fd5b34801561032b57600080fd5b5061033f61033a36600461407a565b6109db565b005b34801561034d57600080fd5b5061033f61035c366004614101565b610aa7565b61033f61036f3660046141bf565b610b3c565b34801561038057600080fd5b50609d5461038e9060ff1681565b60405190151581526020015b60405180910390f35b3480156103af57600080fd5b50606c546103c3906001600160a01b031681565b6040516001600160a01b03909116815260200161039a565b61033f6103e9366004614290565b610c29565b61033f6103fc3660046142f3565b610f07565b34801561040d57600080fd5b5061042161041c366004614352565b610fed565b60405161039a91906143ac565b34801561043a57600080fd5b5061033f6104493660046143c0565b6110dd565b34801561045a57600080fd5b5061047b610469366004614352565b60686020526000908152604090205481565b60405190815260200161039a565b34801561049557600080fd5b5061033f611170565b3480156104aa57600080fd5b506104b5620f424081565b60405163ffffffff909116815260200161039a565b3480156104d657600080fd5b5061033f6104e5366004614480565b611217565b3480156104f657600080fd5b5061050a6105053660046144bc565b6113a2565b60405161039a92919061456a565b61033f61052636600461458f565b611432565b61033f610539366004614290565b6115f1565b34801561054a57600080fd5b5061055e61055936600461463b565b6116c7565b604080516001600160a01b0395909516855263ffffffff9384166020860152919092169083015260ff16606082015260800161039a565b61033f6105a3366004614654565b611717565b3480156105b457600080fd5b5061033f6105c33660046146d1565b6117ed565b61033f6105d6366004614290565b61183d565b61033f6105e93660046146ff565b6118f1565b3480156105fa57600080fd5b5061033f611a2f565b34801561060f57600080fd5b5061047b609c5481565b34801561062557600080fd5b5061033f610634366004614759565b611a43565b34801561064557600080fd5b5060665461047b565b34801561065a57600080fd5b5061033f611b4c565b61033f6106713660046146ff565b611bc9565b34801561068257600080fd5b506033546001600160a01b03166103c3565b3480156106a057600080fd5b506106e56106af3660046147f3565b606b602052600090815260409020805460019091015463ffffffff8216916001600160a01b036401000000009091048116911683565b6040805163ffffffff90941684526001600160a01b03928316602085015291169082015260600161039a565b34801561071d57600080fd5b5061033f61072c366004614810565b611d07565b61033f61073f366004614850565b611f93565b34801561075057600080fd5b5061033f61075f366004614352565b612072565b34801561077057600080fd5b50610779612127565b60405161039a91906148ab565b34801561079257600080fd5b5061038e6121c0565b61033f6107a9366004614290565b6121ee565b3480156107ba57600080fd5b5061050a6107c93660046144bc565b6122a2565b3480156107da57600080fd5b506069546104b590600160a01b900463ffffffff1681565b3480156107fe57600080fd5b506065546104b59063ffffffff1681565b34801561081b57600080fd5b5061033f61082a3660046148f9565b61268e565b34801561083b57600080fd5b5061033f61084a366004614352565b612922565b34801561085b57600080fd5b5061033f61086a366004614927565b61298d565b34801561087b57600080fd5b5061050a61088a3660046144bc565b612a08565b34801561089b57600080fd5b506069546103c3906001600160a01b031681565b3480156108bb57600080fd5b50606a546103c3906001600160a01b031681565b3480156108db57600080fd5b5061033f612a26565b3480156108f057600080fd5b50609b546103c3906001600160a01b031681565b34801561091057600080fd5b5061033f61091f366004614352565b612a2e565b34801561093057600080fd5b50606d546103c3906001600160a01b031681565b34801561095057600080fd5b50606d546104b590600160a01b900463ffffffff1681565b61033f610976366004614955565b612aa7565b34801561098757600080fd5b5061033f6109963660046149a2565b612b80565b3480156109a757600080fd5b506109bb6109b63660046149fb565b612c23565b60405161039a9190614ad1565b61033f6109d6366004614654565b61324f565b6033546001600160a01b0316331480610a085750606a546001600160a01b031615801590610a0857503330145b610a2d5760405162461bcd60e51b8152600401610a2490614ae4565b60405180910390fd5b60005b8351811015610aa157610a8f848281518110610a4e57610a4e614b41565b6020026020010151848381518110610a6857610a68614b41565b6020026020010151848481518110610a8257610a82614b41565b6020026020010151611d07565b80610a9981614b6d565b915050610a30565b50505050565b600080610ab385612a08565b606c54606d54604051630ac0898160e11b81529395509193506001600160a01b0390811692631581130292610b0392811691899188918891600160a01b900463ffffffff16908b90600401614b86565b600060405180830381600087803b158015610b1d57600080fd5b505af1158015610b31573d6000803e3d6000fd5b505050505050505050565b610b44613308565b81818051825114610b675760405162461bcd60e51b8152600401610a2490614be4565b6000805b82518160ff161015610bb357828160ff1681518110610b8c57610b8c614b41565b602002602001015182610b9f9190614c29565b915080610bab81614c3c565b915050610b6b565b50803414610bd35760405162461bcd60e51b8152600401610a2490614c5b565b610bde8888886109db565b6040516276aeb760e21b90600090610c009083908c908c908c90602001614ceb565b6040516020818303038152906040529050610c1d82828989613362565b50505050505050505050565b610c31613308565b81818051825114610c545760405162461bcd60e51b8152600401610a2490614be4565b6000805b82518160ff161015610ca057828160ff1681518110610c7957610c79614b41565b602002602001015182610c8c9190614c29565b915080610c9881614c3c565b915050610c58565b50803414610cc05760405162461bcd60e51b8152600401610a2490614c5b565b6066546000906001600160401b03811115610cdd57610cdd613e9f565b604051908082528060200260200182016040528015610d06578160200160208202803683370190505b506066549091506000906001600160401b03811115610d2757610d27613e9f565b604051908082528060200260200182016040528015610d50578160200160208202803683370190505b506066549091506000906001600160401b03811115610d7157610d71613e9f565b604051908082528060200260200182016040528015610d9a578160200160208202803683370190505b50905060005b606654811015610ec75760668181548110610dbd57610dbd614b41565b60009182526020909120015484516001600160a01b0390911690859083908110610de957610de9614b41565b60200260200101906001600160a01b031690816001600160a01b03168152505060668181548110610e1c57610e1c614b41565b90600052602060002001600001601c9054906101000a900460ff16838281518110610e4957610e49614b41565b602002602001019060ff16908160ff168152505060668181548110610e7057610e70614b41565b9060005260206000200160000160189054906101000a900463ffffffff16828281518110610ea057610ea0614b41565b63ffffffff9092166020928302919091019091015280610ebf81614b6d565b915050610da0565b506040516276aeb760e21b90600090610eea908390879087908790602001614ceb565b6040516020818303038152906040529050610c1d82828c8c613362565b610f0f613308565b81818051825114610f325760405162461bcd60e51b8152600401610a2490614be4565b6000805b82518160ff161015610f7e57828160ff1681518110610f5757610f57614b41565b602002602001015182610f6a9190614c29565b915080610f7681614c3c565b915050610f36565b50803414610f9e5760405162461bcd60e51b8152600401610a2490614c5b565b610fa9888888611d07565b6040805163979bc15560e01b602082018190526001600160a01b038b169282019290925260ff8916606082015263ffffffff8816608082015260009060a001610c00565b6040805160808101825260008082526020808301829052828401829052606083018290526001600160a01b03851682526068905291822054909103611045576040516360f4985360e01b815260040160405180910390fd5b6001600160a01b03821660009081526068602052604090205460669061106d90600190614d3e565b8154811061107d5761107d614b41565b60009182526020918290206040805160808101825292909101546001600160a01b0381168352600160a01b810463ffffffff90811694840194909452600160c01b810490931690820152600160e01b90910460ff16606082015292915050565b6000806110e984612a08565b606c54606d5460405163730e582f60e11b81529395509193506001600160a01b039081169263e61cb05e926111389281169187918791600160a01b90910463ffffffff16908a90600401614d51565b600060405180830381600087803b15801561115257600080fd5b505af1158015611166573d6000803e3d6000fd5b5050505050505050565b6033546001600160a01b031633148061119d5750606a546001600160a01b03161580159061119d57503330145b6111b95760405162461bcd60e51b8152600401610a2490614ae4565b606c54606d54604051630933e36d60e11b81526001600160a01b039182166004820152911690631267c6da906024015b600060405180830381600087803b15801561120357600080fd5b505af1158015610aa1573d6000803e3d6000fd5b600054610100900460ff16158080156112375750600054600160ff909116105b806112515750303b158015611251575060005460ff166001145b6112b45760405162461bcd60e51b815260206004820152602e60248201527f496e697469616c697a61626c653a20636f6e747261637420697320616c72656160448201526d191e481a5b9a5d1a585b1a5e995960921b6064820152608401610a24565b6000805460ff1916600117905580156112d7576000805461ff0019166101001790555b60008060008060008060008060008a8060200190518101906112f99190614dbb565b98509850985098509850985098509850985061131a898989898989896133ba565b609b80546001600160a01b0319166001600160a01b039490941693909317909255609c55609d805460ff191691151591909117905550508415935061139e92505050576000805461ff0019169055604051600181527f7f26b83ff96e1f2b6a682f133852f6798a09c465da95921460cefb3847402498906020015b60405180910390a15b5050565b6060806113ae836122a2565b606c54606d54604051637677856760e11b81529395509193506001600160a01b039081169263ecef0ace926113fb9281169187918791600160a01b90910463ffffffff1690600401614e71565b600060405180830381600087803b15801561141557600080fd5b505af1158015611429573d6000803e3d6000fd5b50505050915091565b61143a613308565b8381805182511461145d5760405162461bcd60e51b8152600401610a2490614be4565b6000805b82518160ff1610156114a957828160ff168151811061148257611482614b41565b6020026020010151826114959190614c29565b9150806114a181614c3c565b915050611461565b508034146114c95760405162461bcd60e51b8152600401610a2490614c5b565b865186511480156114db575086518551145b6114f75760405162461bcd60e51b8152600401610a2490614ebf565b6368b9dd0360e11b60005b88518160ff161015610b3157600082898360ff168151811061152657611526614b41565b6020026020010151898460ff168151811061154357611543614b41565b6020026020010151604051602001611589939291906001600160e01b03199390931683526001600160a01b0391909116602083015263ffffffff16604082015260600190565b60405160208183030381529060405290506115de83828c8560ff16815181106115b4576115b4614b41565b60200260200101518a8660ff16815181106115d1576115d1614b41565b602002602001015161341b565b50806115e981614c3c565b915050611502565b6115f9613308565b8181805182511461161c5760405162461bcd60e51b8152600401610a2490614be4565b6000805b82518160ff16101561166857828160ff168151811061164157611641614b41565b6020026020010151826116549190614c29565b91508061166081614c3c565b915050611620565b508034146116885760405162461bcd60e51b8152600401610a2490614c5b565b604080516320380e2f60e21b6020820181905291600091015b60405160208183030381529060405290506116be82828989613362565b50505050505050565b606681815481106116d757600080fd5b6000918252602090912001546001600160a01b038116915063ffffffff600160a01b8204811691600160c01b81049091169060ff600160e01b9091041684565b8181805182511461173a5760405162461bcd60e51b8152600401610a2490614be4565b6000805b82518160ff16101561178657828160ff168151811061175f5761175f614b41565b6020026020010151826117729190614c29565b91508061177e81614c3c565b91505061173e565b508034146117a65760405162461bcd60e51b8152600401610a2490614c5b565b6117af86612a08565b505060405163d863d18d60e01b906000906117d09083908a90602001614f14565b604051602081830303815290604052905061116682828989613362565b6117f5613308565b6069805463ffffffff909316600160a01b0263ffffffff60a01b1990931692909217909155606a80546001600160a01b039092166001600160a01b0319909216919091179055565b611845613308565b818180518251146118685760405162461bcd60e51b8152600401610a2490614be4565b6000805b82518160ff1610156118b457828160ff168151811061188d5761188d614b41565b6020026020010151826118a09190614c29565b9150806118ac81614c3c565b91505061186c565b508034146118d45760405162461bcd60e51b8152600401610a2490614c5b565b6040805163371b52e360e01b6020820181905291600091016116a1565b6118f9613308565b8281805182511461191c5760405162461bcd60e51b8152600401610a2490614be4565b6000805b82518160ff16101561196857828160ff168151811061194157611941614b41565b6020026020010151826119549190614c29565b91508061196081614c3c565b915050611920565b508034146119885760405162461bcd60e51b8152600401610a2490614c5b565b85518551146119a95760405162461bcd60e51b8152600401610a2490614ebf565b639d7b854560e01b60005b87518160ff16101561116657600082888360ff16815181106119d8576119d8614b41565b60200260200101516040516020016119f1929190614f36565b6040516020818303038152906040529050611a1c83828b8560ff16815181106115b4576115b4614b41565b5080611a2781614c3c565b9150506119b4565b611a37613308565b611a41600061349b565b565b611a4b613308565b60208101516001600160a01b0316611aa55760405162461bcd60e51b815260206004820152601860248201527f496e76616c6964207265676973747279206164647265737300000000000000006044820152606401610a24565b63ffffffff8281166000818152606b60209081526040918290208551815487840151919096166001600160c01b031990961686176401000000006001600160a01b0392831690810291909117835587850151600190930180546001600160a01b0319169390921692831790915583519586529185015291927f1352db1150d62c03f88cdd76a3690564b2ee64659da5f7b7fa0750188cf95aa3910160405180910390a35050565b6033546001600160a01b0316331480611b795750606a546001600160a01b031615801590611b7957503330145b611b955760405162461bcd60e51b8152600401610a2490614ae4565b606c54606d5460405163031f799160e61b81526001600160a01b03918216600482015291169063c7de6440906024016111e9565b611bd1613308565b82818051825114611bf45760405162461bcd60e51b8152600401610a2490614be4565b6000805b82518160ff161015611c4057828160ff1681518110611c1957611c19614b41565b602002602001015182611c2c9190614c29565b915080611c3881614c3c565b915050611bf8565b50803414611c605760405162461bcd60e51b8152600401610a2490614c5b565b8551855114611c815760405162461bcd60e51b8152600401610a2490614ebf565b63659857b760e11b60005b87518160ff16101561116657600082888360ff1681518110611cb057611cb0614b41565b6020026020010151604051602001611cc9929190614f36565b6040516020818303038152906040529050611cf483828b8560ff16815181106115b4576115b4614b41565b5080611cff81614c3c565b915050611c8c565b6033546001600160a01b0316331480611d345750606a546001600160a01b031615801590611d3457503330145b611d505760405162461bcd60e51b8152600401610a2490614ae4565b609b546001600160a01b0316611d785760405162461bcd60e51b8152600401610a2490614f59565b609b5460405163f3ae241560e01b81523060048201526001600160a01b039091169063f3ae241590602401602060405180830381865afa158015611dc0573d6000803e3d6000fd5b505050506040513d601f19601f82011682018060405250810190611de49190614f90565b611e005760405162461bcd60e51b8152600401610a2490614fab565b611e0b8383836134ed565b611e136121c0565b15611f8e57609b546001600160a01b0316611e405760405162461bcd60e51b8152600401610a2490614f59565b609b5460405163f3ae241560e01b81523060048201526001600160a01b039091169063f3ae241590602401602060405180830381865afa158015611e88573d6000803e3d6000fd5b505050506040513d601f19601f82011682018060405250810190611eac9190614f90565b611ec85760405162461bcd60e51b8152600401610a2490614fab565b604080516001808252818301909252600091602080830190803683370190505090508381600081518110611efe57611efe614b41565b6001600160a01b039290921660209283029190910190910152604080516001808252818301909252600091816020016020820280368337019050509050609c5481600081518110611f5157611f51614b41565b6020908102919091010152609b54604051632c78fd0360e21b81526001600160a01b039091169063b1e3f40c90610b039085908590600401614ff9565b505050565b611f9b613308565b81818051825114611fbe5760405162461bcd60e51b8152600401610a2490614be4565b6000805b82518160ff16101561200a57828160ff1681518110611fe357611fe3614b41565b602002602001015182611ff69190614c29565b91508061200281614c3c565b915050611fc2565b5080341461202a5760405162461bcd60e51b8152600401610a2490614c5b565b6120348787612b80565b604051633f051a3760e21b906000906120559083908b908b90602001615050565b6040516020818303038152906040529050610b3182828989613362565b6033546001600160a01b031633148061209f5750606a546001600160a01b03161580159061209f57503330145b6120bb5760405162461bcd60e51b8152600401610a2490614ae4565b606c54606d546040516334392cbd60e21b81526001600160a01b039182166004820152838216602482015291169063d0e4b2f490604401600060405180830381600087803b15801561210c57600080fd5b505af1158015612120573d6000803e3d6000fd5b5050505050565b60606066805480602002602001604051908101604052809291908181526020016000905b828210156121b757600084815260209081902060408051608081018252918501546001600160a01b038116835263ffffffff600160a01b8204811684860152600160c01b8204169183019190915260ff600160e01b90910416606082015282526001909201910161214b565b50505050905090565b606954600090600160a01b900463ffffffff161580156121e95750606a546001600160a01b0316155b905090565b818180518251146122115760405162461bcd60e51b8152600401610a2490614be4565b6000805b82518160ff16101561225d57828160ff168151811061223657612236614b41565b6020026020010151826122499190614c29565b91508061225581614c3c565b915050612215565b5080341461227d5760405162461bcd60e51b8152600401610a2490614c5b565b612285612a26565b6040805163e4a7c60360e01b6020820181905291600091016116a1565b60608060008060006066805490508651146122d0576040516307c7182360e11b815260040160405180910390fd5b60005b86518110156124005760008782815181106122f0576122f0614b41565b6020026020010151905060686000826001600160a01b03166001600160a01b031681526020019081526020016000205460001480156123415750826001600160a01b0316816001600160a01b031610155b1561235f57604051632056648360e01b815260040160405180910390fd5b80925060006066838154811061237757612377614b41565b600091825260209091200154600160e01b900460ff1611156123ed576123d36123d06123cb606685815481106123af576123af614b41565b600091825260209091200154600160a01b900463ffffffff1690565b613541565b90565b6123dd9085614c29565b9350846123e981614b6d565b9550505b50806123f881614b6d565b9150506122d3565b50826001600160401b0381111561241957612419613e9f565b604051908082528060200260200182016040528015612442578160200160208202803683370190505b509450826001600160401b0381111561245d5761245d613e9f565b604051908082528060200260200182016040528015612486578160200160208202803683370190505b50935060008060005b8851811015612635576000606860008b84815181106124b0576124b0614b41565b60200260200101516001600160a01b03166001600160a01b03168152602001908152602001600020549050600060666001836124ec9190614d3e565b815481106124fc576124fc614b41565b60009182526020918290206040805160808101825292909101546001600160a01b0381168352600160a01b810463ffffffff90811694840194909452600160c01b810490931690820152600160e01b90910460ff1660608201819052909150156126205780600001518a858151811061257757612577614b41565b6001600160a01b039092166020928302919091018201528101518790620f4240906125ab906123d09063ffffffff16613541565b6125b5919061508e565b6125bf91906150bb565b8985815181106125d1576125d1614b41565b602002602001019063ffffffff16908163ffffffff16815250508884815181106125fd576125fd614b41565b60200260200101518561261091906150cf565b94508361261c81614b6d565b9450505b5050808061262d90614b6d565b91505061248f565b5063ffffffff8216620f4240146126845761265382620f42406150f3565b8660008151811061266657612666614b41565b6020026020010181815161267a91906150cf565b63ffffffff169052505b5050505050915091565b6033546001600160a01b03163314806126bb5750606a546001600160a01b0316158015906126bb57503330145b6126d75760405162461bcd60e51b8152600401610a2490614ae4565b609b546001600160a01b03166126ff5760405162461bcd60e51b8152600401610a2490614f59565b609b5460405163f3ae241560e01b81523060048201526001600160a01b039091169063f3ae241590602401602060405180830381865afa158015612747573d6000803e3d6000fd5b505050506040513d601f19601f8201168201806040525081019061276b9190614f90565b6127875760405162461bcd60e51b8152600401610a2490614fab565b612791828261359e565b6127996121c0565b80156127a75750609d5460ff165b1561139e57609b546001600160a01b03166127d45760405162461bcd60e51b8152600401610a2490614f59565b609b5460405163f3ae241560e01b81523060048201526001600160a01b039091169063f3ae241590602401602060405180830381865afa15801561281c573d6000803e3d6000fd5b505050506040513d601f19601f820116820180604052508101906128409190614f90565b61285c5760405162461bcd60e51b8152600401610a2490614fab565b60408051600180825281830190925260009160208083019080368337019050509050828160008151811061289257612892614b41565b6001600160a01b039290921660209283029190910190910152604080516001808252818301909252600091816020016020820280368337019050509050609c54816000815181106128e5576128e5614b41565b6020908102919091010152609b5460405163262949f360e21b81526001600160a01b03909116906398a527cc906111389085908590600401614ff9565b6033546001600160a01b031633148061294f5750606a546001600160a01b03161580159061294f57503330145b61296b5760405162461bcd60e51b8152600401610a2490614ae4565b606c80546001600160a01b0319166001600160a01b0392909216919091179055565b6033546001600160a01b03163314806129ba5750606a546001600160a01b0316158015906129ba57503330145b6129d65760405162461bcd60e51b8152600401610a2490614ae4565b606d805463ffffffff909216600160a01b026001600160c01b03199092166001600160a01b0390931692909217179055565b606080612a13612a26565b612a1c836113a2565b9094909350915050565b611a416135f1565b612a36613308565b6001600160a01b038116612a9b5760405162461bcd60e51b815260206004820152602660248201527f4f776e61626c653a206e6577206f776e657220697320746865207a65726f206160448201526564647265737360d01b6064820152608401610a24565b612aa48161349b565b50565b612aaf613308565b81818051825114612ad25760405162461bcd60e51b8152600401610a2490614be4565b6000805b82518160ff161015612b1e57828160ff1681518110612af757612af7614b41565b602002602001015182612b0a9190614c29565b915080612b1681614c3c565b915050612ad6565b50803414612b3e5760405162461bcd60e51b8152600401610a2490614c5b565b612b48878761268e565b6040805163315d5db160e21b602082018190526001600160a01b038a169282019290925260ff88166060820152600090608001612055565b6033546001600160a01b0316331480612bad5750606a546001600160a01b031615801590612bad57503330145b612bc95760405162461bcd60e51b8152600401610a2490614ae4565b60005b8251811015611f8e57612c11838281518110612bea57612bea614b41565b6020026020010151838381518110612c0457612c04614b41565b602002602001015161268e565b80612c1b81614b6d565b915050612bcc565b6069546060908490849063ffffffff808316600160a01b90920416148015612c585750606a546001600160a01b038381169116145b8015612c7757506069546001600160a01b0316336001600160a01b0316145b612d295760405162461bcd60e51b815260206004820152607160248201527f4e6574776f726b52656769737472793a204578706563746564206f726967696e60448201527f616c2063616c6c657220746f20626520736f7572636520636f6e74726163742060648201527f6f6e206f726967696e20646f6d61696e20616e64207468697320746f2062652060848201527018d85b1b195908189e4810dbdb9b995e1d607a1b60a482015260c401610a24565b600084806020019051810190612d3f9190615128565b905060606368643eab60e01b6001600160e01b0319831601612dee57600080600088806020019051810190612d749190615143565b6040516001600160a01b038416602482015260ff8316604482015263ffffffff82166064820152929650909450925063979bc15560e01b91506084015b60408051601f198184030181529190526020810180516001600160e01b03166001600160e01b031990931692909217909152935061317492505050565b630ea2a24f60e21b6001600160e01b0319831601612e805760008087806020019051810190612e1d919061519f565b6040516001600160a01b038316602482015260ff8216604482015291945092508591506064015b60408051601f198184030181529190526020810180516001600160e01b03166001600160e01b0319909316929092179091529250613174915050565b633f89514960e21b6001600160e01b0319831601612ece57600080600088806020019051810190612eb191906152a6565b9350935093505084838383604051602401612db19392919061539b565b62fae5c960e21b6001600160e01b0319831601612f155760008087806020019051810190612efc91906153d4565b9250925050838282604051602401612e4492919061543d565b631b5839fd60e01b6001600160e01b0319831601612f5f57506040805160048152602481019091526020810180516001600160e01b03166001600160e01b03198416179052613174565b63b862f5f360e01b6001600160e01b0319831601612fdd57600086806020019051810190612f8d9190615462565b9150508281604051602401612fa291906154a5565b60408051601f198184030181529190526020810180516001600160e01b03166001600160e01b03199093169290921790915291506131749050565b63279c2e7360e01b6001600160e01b031983160161300b57600086806020019051810190612f8d9190615462565b631a67a84960e11b6001600160e01b03198316016130595760008680602001905181019061303991906154b8565b6040516001600160a01b0382166024820152909250849150604401612fa2565b63174622fd60e11b6001600160e01b03198316016130b6576000808780602001905181019061308891906154e4565b6040516001600160a01b038316602482015263ffffffff821660448201529194509250859150606401612e44565b6362847abb60e01b6001600160e01b03198316016130e45760008680602001905181019061303991906154b8565b631fc7f1d160e21b6001600160e01b031983160161312e57506040805160048152602481019091526020810180516001600160e01b03166001600160e01b03198416179052613174565b63c8e4ad1d60e01b6001600160e01b031983160161317457506040805160048152602481019091526020810180516001600160e01b03166001600160e01b031984161790525b600080306001600160a01b03168360405161318f9190615523565b6000604051808303816000865af19150503d80600081146131cc576040519150601f19603f3d011682016040523d82523d6000602084013e6131d1565b606091505b5091509150811515846001600160e01b0319167f1c3c9d979bd19ded3647c9c371dd9005c98dd77d9655655b3ac1b0c174dcbf098f8c8e6040516132379392919092835263ffffffff9190911660208301526001600160a01b0316604082015260600190565b60405180910390a39c9b505050505050505050505050565b818180518251146132725760405162461bcd60e51b8152600401610a2490614be4565b6000805b82518160ff1610156132be57828160ff168151811061329757613297614b41565b6020026020010151826132aa9190614c29565b9150806132b681614c3c565b915050613276565b508034146132de5760405162461bcd60e51b8152600401610a2490614c5b565b6132e7866113a2565b505060405163479d0a0d60e01b906000906117d09083908a90602001614f14565b6033546001600160a01b03163314611a415760405162461bcd60e51b815260206004820181905260248201527f4f776e61626c653a2063616c6c6572206973206e6f7420746865206f776e65726044820152606401610a24565b60005b82518160ff161015612120576133a88585858460ff168151811061338b5761338b614b41565b6020026020010151858560ff16815181106115d1576115d1614b41565b806133b281614c3c565b915050613365565b600054610100900460ff166133e15760405162461bcd60e51b8152600401610a249061553f565b6133e9613772565b6133f78787878787876137a1565b6001600160a01b0381166134125761340d611a2f565b6116be565b6116be81612a2e565b6000613428838584613839565b63ffffffff84166000818152606b60209081526040918290205491516401000000009092046001600160a01b0316825292935083926001600160e01b03198916917f08ccbfaba6869ea4aad2d3c80728aecf60570163a9f7ab0b292fdea62e211e37910160405180910390a45050505050565b603380546001600160a01b038381166001600160a01b0319831681179093556040519116919082907f8be0079c531659141344cd1fd0a4f28419497f9722a3daafe3b4186f6b6457e090600090a35050565b6033546001600160a01b031633148061351a5750606a546001600160a01b03161580159061351a57503330145b6135365760405162461bcd60e51b8152600401610a2490614ae4565b611f8e8383836139d5565b6000817812725dd1d243aba0e75fe645cc4873f9e65afe688c928e1f218111156135815760405163edc236ad60e01b815260048101849052602401610a24565b6135976123d0670de0b6b3a76400008302613bc7565b9392505050565b6033546001600160a01b03163314806135cb5750606a546001600160a01b0316158015906135cb57503330145b6135e75760405162461bcd60e51b8152600401610a2490614ae4565b61139e8282613d3f565b4260005b6066548110156137235760006066828154811061361457613614614b41565b600091825260208220018054909250600160a01b900463ffffffff16810361365657815461364f90600160c01b900463ffffffff16856150f3565b905061366c565b6065546136699063ffffffff16856150f3565b90505b815460009060649061368890600160e01b900460ff168461558a565b61369291906155b2565b8354909150819084906014906136b6908490600160a01b900463ffffffff166150cf565b92506101000a81548163ffffffff021916908363ffffffff1602179055507f393ca387760e64235f59b8fb5a7e7736887380bcacd89855f4e170abdf7aebbe838260405161370592919061560d565b60405180910390a1505050808061371b90614b6d565b9150506135f5565b506065805463ffffffff191663ffffffff83169081179091556040519081527f5624889e22dfb82f30d92d6882aecff897f9f67a4a4d224257d424d2420ee8c09060200160405180910390a150565b600054610100900460ff166137995760405162461bcd60e51b8152600401610a249061553f565b611a41613e6f565b600054610100900460ff166137c85760405162461bcd60e51b8152600401610a249061553f565b606980546001600160a01b039788166001600160c01b031991821617600160a01b63ffffffff988916810291909117909255606a80546001600160a01b0319908116978a16979097179055606c805490961694881694909417909455606d8054929096169190921617921602179055565b63ffffffff8084166000908152606b602052604081208054919290911682036138b35760405162461bcd60e51b815260206004820152602660248201527f4e6574776f726b52656769737472793a204e6f7420537570706f72746564204e6044820152656574776f726b60d01b6064820152608401610a24565b805464010000000090046001600160a01b03166139205760405162461bcd60e51b815260206004820152602560248201527f4e6574776f726b52656769737472793a4e6f7420537570706f72746564204e6560448201526474776f726b60d81b6064820152608401610a24565b60695463ffffffff8681166000908152606b6020526040808220805460019091015491516345560b5d60e11b81526001600160a01b0395861695638aac16ba958a9561398995918516946401000000009004831693909290911690829081908e9060040161562e565b60206040518083038185885af11580156139a7573d6000803e3d6000fd5b50505050506040513d601f19601f820116820180604052508101906139cc9190615689565b95945050505050565b6001600160a01b03831660009081526068602052604090205415613a0c576040516303d5de1560e61b815260040160405180910390fd5b4263ffffffff168163ffffffff161115613a395760405163d1bea8fb60e01b815260040160405180910390fd5b60648260ff161115613a5e5760405163119ea8ab60e31b815260040160405180910390fd5b604080516080810182526001600160a01b03858116825260006020830181815263ffffffff86811695850195865260ff88811660608701908152606680546001808201835591875297517f46501879b8ca8525e8c2fd519e2fbfcfa2ebea26501294aa02cbfcfb12e943549098018054955199519251989097166001600160c01b031990951694909417600160a01b988416989098029790971764ffffffffff60c01b1916600160c01b979092169690960260ff60e01b191617600160e01b9490951693909302939093179055606780548390613b3c908490614c29565b90915550506067546001600160a01b03851660009081526068602052604090208190557f2c74090ef4cdee53f53beda1798302946833f0af081f221c5730357eb2fdd76a90606690613b9090600190614d3e565b81548110613ba057613ba0614b41565b9060005260206000200142604051613bb992919061560d565b60405180910390a150505050565b600081600003613bd957506000919050565b50600181600160801b8110613bf35760409190911b9060801c5b680100000000000000008110613c0e5760209190911b9060401c5b6401000000008110613c255760109190911b9060201c5b620100008110613c3a5760089190911b9060101c5b6101008110613c4e5760049190911b9060081c5b60108110613c615760029190911b9060041c5b60048110613c7157600182901b91505b6001828481613c8257613c826150a5565b048301901c91506001828481613c9a57613c9a6150a5565b048301901c91506001828481613cb257613cb26150a5565b048301901c91506001828481613cca57613cca6150a5565b048301901c91506001828481613ce257613ce26150a5565b048301901c91506001828481613cfa57613cfa6150a5565b048301901c91506001828481613d1257613d126150a5565b048301901c91506000828481613d2a57613d2a6150a5565b049050808310613d38578092505b5050919050565b6001600160a01b0382166000908152606860205260408120549003613d77576040516360f4985360e01b815260040160405180910390fd5b60648160ff161115613d9c5760405163119ea8ab60e31b815260040160405180910390fd5b6001600160a01b0382166000908152606860205260409020548190606690613dc690600190614d3e565b81548110613dd657613dd6614b41565b60009182526020808320909101805460ff94909416600160e01b0260ff60e01b19909416939093179092556001600160a01b0384168152606890915260409020547f29d12e74a55b3d297952b1d6eb3495d231fccb524ee0afc91cfbb3ed790e660790606690613e4890600190614d3e565b81548110613e5857613e58614b41565b9060005260206000200160405161139591906156a2565b600054610100900460ff16613e965760405162461bcd60e51b8152600401610a249061553f565b611a413361349b565b634e487b7160e01b600052604160045260246000fd5b604051601f8201601f191681016001600160401b0381118282101715613edd57613edd613e9f565b604052919050565b60006001600160401b03821115613efe57613efe613e9f565b5060051b60200190565b6001600160a01b0381168114612aa457600080fd5b600082601f830112613f2e57600080fd5b81356020613f43613f3e83613ee5565b613eb5565b82815260059290921b84018101918181019086841115613f6257600080fd5b8286015b84811015613f86578035613f7981613f08565b8352918301918301613f66565b509695505050505050565b60ff81168114612aa457600080fd5b600082601f830112613fb157600080fd5b81356020613fc1613f3e83613ee5565b82815260059290921b84018101918181019086841115613fe057600080fd5b8286015b84811015613f86578035613ff781613f91565b8352918301918301613fe4565b63ffffffff81168114612aa457600080fd5b600082601f83011261402757600080fd5b81356020614037613f3e83613ee5565b82815260059290921b8401810191818101908684111561405657600080fd5b8286015b84811015613f8657803561406d81614004565b835291830191830161405a565b60008060006060848603121561408f57600080fd5b83356001600160401b03808211156140a657600080fd5b6140b287838801613f1d565b945060208601359150808211156140c857600080fd5b6140d487838801613fa0565b935060408601359150808211156140ea57600080fd5b506140f786828701614016565b9150509250925092565b60008060006060848603121561411657600080fd5b83356001600160401b0381111561412c57600080fd5b61413886828701613f1d565b935050602084013561414981613f08565b9150604084013561415981613f08565b809150509250925092565b600082601f83011261417557600080fd5b81356020614185613f3e83613ee5565b82815260059290921b840181019181810190868411156141a457600080fd5b8286015b84811015613f8657803583529183019183016141a8565b600080600080600060a086880312156141d757600080fd5b85356001600160401b03808211156141ee57600080fd5b6141fa89838a01613f1d565b9650602088013591508082111561421057600080fd5b61421c89838a01613fa0565b9550604088013591508082111561423257600080fd5b61423e89838a01614016565b9450606088013591508082111561425457600080fd5b61426089838a01614016565b9350608088013591508082111561427657600080fd5b5061428388828901614164565b9150509295509295909350565b600080604083850312156142a357600080fd5b82356001600160401b03808211156142ba57600080fd5b6142c686838701614016565b935060208501359150808211156142dc57600080fd5b506142e985828601614164565b9150509250929050565b600080600080600060a0868803121561430b57600080fd5b853561431681613f08565b9450602086013561432681613f91565b9350604086013561433681614004565b925060608601356001600160401b038082111561425457600080fd5b60006020828403121561436457600080fd5b813561359781613f08565b80516001600160a01b0316825260208082015163ffffffff908116918401919091526040808301519091169083015260609081015160ff16910152565b608081016143ba828461436f565b92915050565b600080604083850312156143d357600080fd5b82356001600160401b038111156143e957600080fd5b6143f585828601613f1d565b925050602083013561440681613f08565b809150509250929050565b600082601f83011261442257600080fd5b81356001600160401b0381111561443b5761443b613e9f565b61444e601f8201601f1916602001613eb5565b81815284602083860101111561446357600080fd5b816020850160208301376000918101602001919091529392505050565b60006020828403121561449257600080fd5b81356001600160401b038111156144a857600080fd5b6144b484828501614411565b949350505050565b6000602082840312156144ce57600080fd5b81356001600160401b038111156144e457600080fd5b6144b484828501613f1d565b600081518084526020808501945080840160005b838110156145295781516001600160a01b031687529582019590820190600101614504565b509495945050505050565b600081518084526020808501945080840160005b8381101561452957815163ffffffff1687529582019590820190600101614548565b60408152600061457d60408301856144f0565b82810360208401526139cc8185614534565b600080600080608085870312156145a557600080fd5b84356001600160401b03808211156145bc57600080fd5b6145c888838901614016565b955060208701359150808211156145de57600080fd5b6145ea88838901613f1d565b9450604087013591508082111561460057600080fd5b61460c88838901614016565b9350606087013591508082111561462257600080fd5b5061462f87828801614164565b91505092959194509250565b60006020828403121561464d57600080fd5b5035919050565b60008060006060848603121561466957600080fd5b83356001600160401b038082111561468057600080fd5b61468c87838801613f1d565b945060208601359150808211156146a257600080fd5b6146ae87838801614016565b935060408601359150808211156146c457600080fd5b506140f786828701614164565b600080604083850312156146e457600080fd5b82356146ef81614004565b9150602083013561440681613f08565b60008060006060848603121561471457600080fd5b83356001600160401b038082111561472b57600080fd5b61473787838801614016565b9450602086013591508082111561474d57600080fd5b6146ae87838801613f1d565b600080828403608081121561476d57600080fd5b833561477881614004565b92506060601f198201121561478c57600080fd5b50604051606081018181106001600160401b03821117156147af576147af613e9f565b60405260208401356147c081614004565b815260408401356147d081613f08565b602082015260608401356147e381613f08565b6040820152919491935090915050565b60006020828403121561480557600080fd5b813561359781614004565b60008060006060848603121561482557600080fd5b833561483081613f08565b9250602084013561484081613f91565b9150604084013561415981614004565b6000806000806080858703121561486657600080fd5b84356001600160401b038082111561487d57600080fd5b61488988838901613f1d565b9550602087013591508082111561489f57600080fd5b6145ea88838901613fa0565b6020808252825182820181905260009190848201906040850190845b818110156148ed576148da83855161436f565b92840192608092909201916001016148c7565b50909695505050505050565b6000806040838503121561490c57600080fd5b823561491781613f08565b9150602083013561440681613f91565b6000806040838503121561493a57600080fd5b823561494581613f08565b9150602083013561440681614004565b6000806000806080858703121561496b57600080fd5b843561497681613f08565b9350602085013561498681613f91565b925060408501356001600160401b038082111561460057600080fd5b600080604083850312156149b557600080fd5b82356001600160401b03808211156149cc57600080fd5b6149d886838701613f1d565b935060208501359150808211156149ee57600080fd5b506142e985828601613fa0565b60008060008060008060c08789031215614a1457600080fd5b86359550602087013594506040870135614a2d81613f08565b93506060870135614a3d81613f08565b92506080870135614a4d81614004565b915060a08701356001600160401b03811115614a6857600080fd5b614a7489828a01614411565b9150509295509295509295565b60005b83811015614a9c578181015183820152602001614a84565b50506000910152565b60008151808452614abd816020860160208601614a81565b601f01601f19169290920160200192915050565b6020815260006135976020830184614aa5565b60208082526037908201527f4e6574776f726b52656769737472793a2063616c6c6572206973206e6f74206660408201527f6f726569676e2075706461746572206f72206f776e6572000000000000000000606082015260800190565b634e487b7160e01b600052603260045260246000fd5b634e487b7160e01b600052601160045260246000fd5b600060018201614b7f57614b7f614b57565b5060010190565b600060018060a01b038089168352808816602084015260c06040840152614bb060c08401886144f0565b8381036060850152614bc28188614534565b63ffffffff969096166080850152509290921660a09091015250949350505050565b60208082526025908201527f4e6574776f726b52656769737472793a2057726f6e67206e6574776f726b20706040820152646172616d7360d81b606082015260800190565b808201808211156143ba576143ba614b57565b600060ff821660ff8103614c5257614c52614b57565b60010192915050565b6020808252603c908201527f4e6574776f726b52656769737472793a2056616c75652073656e74206e6f742060408201527f656e6f75676820746f20636f7665722072656c61796572206665657300000000606082015260800190565b600081518084526020808501945080840160005b8381101561452957815160ff1687529582019590820190600101614ccc565b63ffffffff60e01b85168152608060208201526000614d0d60808301866144f0565b8281036040840152614d1f8186614cb8565b90508281036060840152614d338185614534565b979650505050505050565b818103818111156143ba576143ba614b57565b600060018060a01b03808816835260a06020840152614d7360a08401886144f0565b8381036040850152614d858188614534565b63ffffffff9690961660608501525092909216608090910152509392505050565b80518015158114614db657600080fd5b919050565b60008060008060008060008060006101208a8c031215614dda57600080fd5b8951614de581613f08565b60208b0151909950614df681614004565b60408b0151909850614e0781613f08565b60608b0151909750614e1881613f08565b60808b0151909650614e2981613f08565b60a08b0151909550614e3a81614004565b60c08b0151909450614e4b81613f08565b60e08b01519093509150614e626101008b01614da6565b90509295985092959850929598565b6001600160a01b0385168152608060208201819052600090614e95908301866144f0565b8281036040840152614ea78186614534565b91505063ffffffff8316606083015295945050505050565b60208082526035908201527f4e6574776f726b52656769737472793a206e6574776f726b20706172616d73206040820152740d8cadccee8d040c8decae640dcdee840dac2e8c6d605b1b606082015260800190565b63ffffffff60e01b831681526040602082015260006144b460408301846144f0565b6001600160e01b03199290921682526001600160a01b0316602082015260400190565b6020808252601e908201527f50474e6574776f726b52656769737472795368616d616e3a2021696e69740000604082015260600190565b600060208284031215614fa257600080fd5b61359782614da6565b6020808252602e908201527f50474e6574776f726b52656769737472795368616d616e3a205368616d616e2060408201526d34b9903737ba1036b0b730b3b2b960911b606082015260800190565b60408152600061500c60408301856144f0565b82810360208481019190915284518083528582019282019060005b8181101561504357845183529383019391830191600101615027565b5090979650505050505050565b63ffffffff60e01b8416815260606020820152600061507260608301856144f0565b82810360408401526150848185614cb8565b9695505050505050565b80820281158282048414176143ba576143ba614b57565b634e487b7160e01b600052601260045260246000fd5b6000826150ca576150ca6150a5565b500490565b63ffffffff8181168382160190808211156150ec576150ec614b57565b5092915050565b63ffffffff8281168282160390808211156150ec576150ec614b57565b80516001600160e01b031981168114614db657600080fd5b60006020828403121561513a57600080fd5b61359782615110565b6000806000806080858703121561515957600080fd5b61516285615110565b9350602085015161517281613f08565b604086015190935061518381613f91565b606086015190925061519481614004565b939692955090935050565b6000806000606084860312156151b457600080fd5b6151bd84615110565b925060208401516151cd81613f08565b604085015190925061415981613f91565b600082601f8301126151ef57600080fd5b815160206151ff613f3e83613ee5565b82815260059290921b8401810191818101908684111561521e57600080fd5b8286015b84811015613f8657805161523581613f08565b8352918301918301615222565b600082601f83011261525357600080fd5b81516020615263613f3e83613ee5565b82815260059290921b8401810191818101908684111561528257600080fd5b8286015b84811015613f8657805161529981613f91565b8352918301918301615286565b600080600080608085870312156152bc57600080fd5b6152c585615110565b93506020808601516001600160401b03808211156152e257600080fd5b6152ee89838a016151de565b9550604088015191508082111561530457600080fd5b61531089838a01615242565b9450606088015191508082111561532657600080fd5b508601601f8101881361533857600080fd5b8051615346613f3e82613ee5565b81815260059190911b8201830190838101908a83111561536557600080fd5b928401925b8284101561538c57835161537d81614004565b8252928401929084019061536a565b979a9699509497505050505050565b6060815260006153ae60608301866144f0565b82810360208401526153c08186614cb8565b905082810360408401526150848185614534565b6000806000606084860312156153e957600080fd5b6153f284615110565b925060208401516001600160401b038082111561540e57600080fd5b61541a878388016151de565b9350604086015191508082111561543057600080fd5b506140f786828701615242565b60408152600061545060408301856144f0565b82810360208401526139cc8185614cb8565b6000806040838503121561547557600080fd5b61547e83615110565b915060208301516001600160401b0381111561549957600080fd5b6142e9858286016151de565b60208152600061359760208301846144f0565b600080604083850312156154cb57600080fd5b6154d483615110565b9150602083015161440681613f08565b6000806000606084860312156154f957600080fd5b61550284615110565b9250602084015161551281613f08565b604085015190925061415981614004565b60008251615535818460208701614a81565b9190910192915050565b6020808252602b908201527f496e697469616c697a61626c653a20636f6e7472616374206973206e6f74206960408201526a6e697469616c697a696e6760a81b606082015260800190565b63ffffffff8181168382160280821691908281146155aa576155aa614b57565b505092915050565b600063ffffffff808416806155c9576155c96150a5565b92169190910492915050565b546001600160a01b038116825260a081901c63ffffffff908116602084015260c082901c16604083015260e01c60ff16606090910152565b60a0810161561b82856155d5565b63ffffffff831660808301529392505050565b63ffffffff881681526001600160a01b0387811660208301528681166040830152851660608201526080810184905260a0810183905260e060c0820181905260009061567c90830184614aa5565b9998505050505050505050565b60006020828403121561569b57600080fd5b5051919050565b608081016143ba82846155d556fea164736f6c6343000813000a",
  "devdoc": {
    "events": {
      "Initialized(uint8)": {
        "details": "Triggered when the contract has been initialized or reinitialized."
      }
    },
    "kind": "dev",
    "methods": {
      "owner()": {
        "details": "Returns the address of the current owner."
      },
      "renounceOwnership()": {
        "details": "Leaves the contract without owner. It will not be possible to call `onlyOwner` functions anymore. Can only be called by the current owner. NOTE: Renouncing ownership will leave the contract without an owner, thereby removing any functionality that is only available to the owner."
      },
      "transferOwnership(address)": {
        "details": "Transfers ownership of the contract to a new account (`newOwner`). Can only be called by the current owner."
      }
    },
    "version": 1
  },
  "userdoc": {
    "errors": {
      "PRBMath_UD60x18_Sqrt_Overflow(uint256)": [
        {
          "notice": "Thrown when calculating the square root overflows UD60x18."
        }
      ]
    },
    "kind": "user",
    "methods": {
      "xReceive(bytes32,uint256,address,address,uint32,bytes)": {
        "notice": "The receiver function as required by the IXReceiver interface."
      }
    },
    "version": 1
  },
  "storageLayout": {
    "storage": [
      {
        "astId": 829,
        "contract": "contracts/NetworkRegistryShaman.sol:NetworkRegistryShaman",
        "label": "_initialized",
        "offset": 0,
        "slot": "0",
        "type": "t_uint8"
      },
      {
        "astId": 832,
        "contract": "contracts/NetworkRegistryShaman.sol:NetworkRegistryShaman",
        "label": "_initializing",
        "offset": 1,
        "slot": "0",
        "type": "t_bool"
      },
      {
        "astId": 1316,
        "contract": "contracts/NetworkRegistryShaman.sol:NetworkRegistryShaman",
        "label": "__gap",
        "offset": 0,
        "slot": "1",
        "type": "t_array(t_uint256)50_storage"
      },
      {
        "astId": 701,
        "contract": "contracts/NetworkRegistryShaman.sol:NetworkRegistryShaman",
        "label": "_owner",
        "offset": 0,
        "slot": "51",
        "type": "t_address"
      },
      {
        "astId": 821,
        "contract": "contracts/NetworkRegistryShaman.sol:NetworkRegistryShaman",
        "label": "__gap",
        "offset": 0,
        "slot": "52",
        "type": "t_array(t_uint256)49_storage"
      },
      {
        "astId": 11624,
        "contract": "contracts/NetworkRegistryShaman.sol:NetworkRegistryShaman",
        "label": "lastUpdate",
        "offset": 0,
        "slot": "101",
        "type": "t_uint32"
      },
      {
        "astId": 11628,
        "contract": "contracts/NetworkRegistryShaman.sol:NetworkRegistryShaman",
        "label": "members",
        "offset": 0,
        "slot": "102",
        "type": "t_array(t_struct(Member)11622_storage)dyn_storage"
      },
      {
        "astId": 11631,
        "contract": "contracts/NetworkRegistryShaman.sol:NetworkRegistryShaman",
        "label": "count",
        "offset": 0,
        "slot": "103",
        "type": "t_uint256"
      },
      {
        "astId": 11635,
        "contract": "contracts/NetworkRegistryShaman.sol:NetworkRegistryShaman",
        "label": "memberIdxs",
        "offset": 0,
        "slot": "104",
        "type": "t_mapping(t_address,t_uint256)"
      },
      {
        "astId": 8505,
        "contract": "contracts/NetworkRegistryShaman.sol:NetworkRegistryShaman",
        "label": "connext",
        "offset": 0,
        "slot": "105",
        "type": "t_contract(IConnext)285"
      },
      {
        "astId": 8507,
        "contract": "contracts/NetworkRegistryShaman.sol:NetworkRegistryShaman",
        "label": "updaterDomain",
        "offset": 20,
        "slot": "105",
        "type": "t_uint32"
      },
      {
        "astId": 8509,
        "contract": "contracts/NetworkRegistryShaman.sol:NetworkRegistryShaman",
        "label": "updater",
        "offset": 0,
        "slot": "106",
        "type": "t_address"
      },
      {
        "astId": 8514,
        "contract": "contracts/NetworkRegistryShaman.sol:NetworkRegistryShaman",
        "label": "networkRegistry",
        "offset": 0,
        "slot": "107",
        "type": "t_mapping(t_uint32,t_struct(NetworkRegistry)11142_storage)"
      },
      {
        "astId": 8517,
        "contract": "contracts/NetworkRegistryShaman.sol:NetworkRegistryShaman",
        "label": "splitMain",
        "offset": 0,
        "slot": "108",
        "type": "t_contract(ISplitMain)11518"
      },
      {
        "astId": 8519,
        "contract": "contracts/NetworkRegistryShaman.sol:NetworkRegistryShaman",
        "label": "split",
        "offset": 0,
        "slot": "109",
        "type": "t_address"
      },
      {
        "astId": 8521,
        "contract": "contracts/NetworkRegistryShaman.sol:NetworkRegistryShaman",
        "label": "splitDistributorFee",
        "offset": 20,
        "slot": "109",
        "type": "t_uint32"
      },
      {
        "astId": 10672,
        "contract": "contracts/NetworkRegistryShaman.sol:NetworkRegistryShaman",
        "label": "__gap",
        "offset": 0,
        "slot": "110",
        "type": "t_array(t_uint256)45_storage"
      },
      {
        "astId": 10684,
        "contract": "contracts/NetworkRegistryShaman.sol:NetworkRegistryShaman",
        "label": "baal",
        "offset": 0,
        "slot": "155",
        "type": "t_contract(IBaal)690"
      },
      {
        "astId": 10686,
        "contract": "contracts/NetworkRegistryShaman.sol:NetworkRegistryShaman",
        "label": "sharesToMint",
        "offset": 0,
        "slot": "156",
        "type": "t_uint256"
      },
      {
        "astId": 10688,
        "contract": "contracts/NetworkRegistryShaman.sol:NetworkRegistryShaman",
        "label": "burnShares",
        "offset": 0,
        "slot": "157",
        "type": "t_bool"
      }
    ],
    "types": {
      "t_address": {
        "encoding": "inplace",
        "label": "address",
        "numberOfBytes": "20"
      },
      "t_array(t_struct(Member)11622_storage)dyn_storage": {
        "base": "t_struct(Member)11622_storage",
        "encoding": "dynamic_array",
        "label": "struct MemberRegistry.Member[]",
        "numberOfBytes": "32"
      },
      "t_array(t_uint256)45_storage": {
        "base": "t_uint256",
        "encoding": "inplace",
        "label": "uint256[45]",
        "numberOfBytes": "1440"
      },
      "t_array(t_uint256)49_storage": {
        "base": "t_uint256",
        "encoding": "inplace",
        "label": "uint256[49]",
        "numberOfBytes": "1568"
      },
      "t_array(t_uint256)50_storage": {
        "base": "t_uint256",
        "encoding": "inplace",
        "label": "uint256[50]",
        "numberOfBytes": "1600"
      },
      "t_bool": {
        "encoding": "inplace",
        "label": "bool",
        "numberOfBytes": "1"
      },
      "t_contract(IBaal)690": {
        "encoding": "inplace",
        "label": "contract IBaal",
        "numberOfBytes": "20"
      },
      "t_contract(IConnext)285": {
        "encoding": "inplace",
        "label": "contract IConnext",
        "numberOfBytes": "20"
      },
      "t_contract(ISplitMain)11518": {
        "encoding": "inplace",
        "label": "contract ISplitMain",
        "numberOfBytes": "20"
      },
      "t_mapping(t_address,t_uint256)": {
        "encoding": "mapping",
        "key": "t_address",
        "label": "mapping(address => uint256)",
        "numberOfBytes": "32",
        "value": "t_uint256"
      },
      "t_mapping(t_uint32,t_struct(NetworkRegistry)11142_storage)": {
        "encoding": "mapping",
        "key": "t_uint32",
        "label": "mapping(uint32 => struct INetworkMemberRegistry.NetworkRegistry)",
        "numberOfBytes": "32",
        "value": "t_struct(NetworkRegistry)11142_storage"
      },
      "t_struct(Member)11622_storage": {
        "encoding": "inplace",
        "label": "struct MemberRegistry.Member",
        "members": [
          {
            "astId": 11615,
            "contract": "contracts/NetworkRegistryShaman.sol:NetworkRegistryShaman",
            "label": "account",
            "offset": 0,
            "slot": "0",
            "type": "t_address"
          },
          {
            "astId": 11617,
            "contract": "contracts/NetworkRegistryShaman.sol:NetworkRegistryShaman",
            "label": "secondsActive",
            "offset": 20,
            "slot": "0",
            "type": "t_uint32"
          },
          {
            "astId": 11619,
            "contract": "contracts/NetworkRegistryShaman.sol:NetworkRegistryShaman",
            "label": "startDate",
            "offset": 24,
            "slot": "0",
            "type": "t_uint32"
          },
          {
            "astId": 11621,
            "contract": "contracts/NetworkRegistryShaman.sol:NetworkRegistryShaman",
            "label": "activityMultiplier",
            "offset": 28,
            "slot": "0",
            "type": "t_uint8"
          }
        ],
        "numberOfBytes": "32"
      },
      "t_struct(NetworkRegistry)11142_storage": {
        "encoding": "inplace",
        "label": "struct INetworkMemberRegistry.NetworkRegistry",
        "members": [
          {
            "astId": 11137,
            "contract": "contracts/NetworkRegistryShaman.sol:NetworkRegistryShaman",
            "label": "domainId",
            "offset": 0,
            "slot": "0",
            "type": "t_uint32"
          },
          {
            "astId": 11139,
            "contract": "contracts/NetworkRegistryShaman.sol:NetworkRegistryShaman",
            "label": "registryAddress",
            "offset": 4,
            "slot": "0",
            "type": "t_address"
          },
          {
            "astId": 11141,
            "contract": "contracts/NetworkRegistryShaman.sol:NetworkRegistryShaman",
            "label": "delegate",
            "offset": 0,
            "slot": "1",
            "type": "t_address"
          }
        ],
        "numberOfBytes": "64"
      },
      "t_uint256": {
        "encoding": "inplace",
        "label": "uint256",
        "numberOfBytes": "32"
      },
      "t_uint32": {
        "encoding": "inplace",
        "label": "uint32",
        "numberOfBytes": "4"
      },
      "t_uint8": {
        "encoding": "inplace",
        "label": "uint8",
        "numberOfBytes": "1"
      }
    }
  }
}