{
  "address": "0xC334c3313b833679809566F1035fC931cEffB919",
  "abi": [
    {
      "inputs": [
        {
          "internalType": "address",
          "name": "_member",
          "type": "address"
        },
        {
          "internalType": "uint32",
          "name": "_activityMultiplier",
          "type": "uint32"
        }
      ],
      "name": "InvalidMember__ActivityMultiplier",
      "type": "error"
    },
    {
      "inputs": [
        {
          "internalType": "address",
          "name": "_member",
          "type": "address"
        }
      ],
      "name": "InvalidMember__Address",
      "type": "error"
    },
    {
      "inputs": [
        {
          "internalType": "address",
          "name": "_member",
          "type": "address"
        },
        {
          "internalType": "uint32",
          "name": "_startDate",
          "type": "uint32"
        }
      ],
      "name": "InvalidMember__StartDateInTheFuture",
      "type": "error"
    },
    {
      "inputs": [
        {
          "internalType": "uint256",
          "name": "_index",
          "type": "uint256"
        }
      ],
      "name": "InvalidSplit__AccountsOutOfOrder",
      "type": "error"
    },
    {
      "inputs": [],
      "name": "InvalidSplit__MemberListSizeMismatch",
      "type": "error"
    },
    {
      "inputs": [
        {
          "internalType": "address",
          "name": "_member",
          "type": "address"
        }
      ],
      "name": "Member__AlreadyRegistered",
      "type": "error"
    },
    {
      "inputs": [
        {
          "internalType": "address",
          "name": "_member",
          "type": "address"
        }
      ],
      "name": "Member__NotRegistered",
      "type": "error"
    },
    {
      "inputs": [
        {
          "internalType": "UD60x18",
          "name": "x",
          "type": "uint256"
        }
      ],
      "name": "PRBMath_UD60x18_Sqrt_Overflow",
      "type": "error"
    },
    {
      "inputs": [],
      "name": "Split_ControlNotHandedOver",
      "type": "error"
    },
    {
      "anonymous": false,
      "inputs": [
        {
          "indexed": false,
          "internalType": "uint8",
          "name": "version",
          "type": "uint8"
        }
      ],
      "name": "Initialized",
      "type": "event"
    },
    {
      "anonymous": false,
      "inputs": [
        {
          "indexed": true,
          "internalType": "uint32",
          "name": "_chainId",
          "type": "uint32"
        },
        {
          "indexed": true,
          "internalType": "address",
          "name": "_registryAddress",
          "type": "address"
        },
        {
          "indexed": true,
          "internalType": "uint32",
          "name": "_domainId",
          "type": "uint32"
        },
        {
          "indexed": false,
          "internalType": "address",
          "name": "_delegate",
          "type": "address"
        }
      ],
      "name": "NetworkRegistryUpdated",
      "type": "event"
    },
    {
      "anonymous": false,
      "inputs": [
        {
          "indexed": true,
          "internalType": "address",
          "name": "_member",
          "type": "address"
        },
        {
          "indexed": false,
          "internalType": "uint32",
          "name": "_startDate",
          "type": "uint32"
        },
        {
          "indexed": false,
          "internalType": "uint32",
          "name": "_activityMultiplier",
          "type": "uint32"
        }
      ],
      "name": "NewMember",
      "type": "event"
    },
    {
      "anonymous": false,
      "inputs": [
        {
          "indexed": false,
          "internalType": "address",
          "name": "_connext",
          "type": "address"
        },
        {
          "indexed": false,
          "internalType": "uint32",
          "name": "_updaterDomain",
          "type": "uint32"
        },
        {
          "indexed": false,
          "internalType": "address",
          "name": "_updater",
          "type": "address"
        }
      ],
      "name": "NewUpdaterConfig",
      "type": "event"
    },
    {
      "anonymous": false,
      "inputs": [
        {
          "indexed": true,
          "internalType": "address",
          "name": "previousOwner",
          "type": "address"
        },
        {
          "indexed": true,
          "internalType": "address",
          "name": "newOwner",
          "type": "address"
        }
      ],
      "name": "OwnershipTransferred",
      "type": "event"
    },
    {
      "anonymous": false,
      "inputs": [
        {
          "indexed": false,
          "internalType": "uint32",
          "name": "_date",
          "type": "uint32"
        },
        {
          "indexed": false,
          "internalType": "uint256",
          "name": "_totalMemberUpdates",
          "type": "uint256"
        }
      ],
      "name": "RegistryActivityUpdate",
      "type": "event"
    },
    {
      "anonymous": false,
      "inputs": [
        {
          "indexed": false,
          "internalType": "address",
          "name": "_splitMain",
          "type": "address"
        },
        {
          "indexed": false,
          "internalType": "address",
          "name": "_split",
          "type": "address"
        }
      ],
      "name": "SplitUpdated",
      "type": "event"
    },
    {
      "anonymous": false,
      "inputs": [
        {
          "indexed": false,
          "internalType": "address",
          "name": "_split",
          "type": "address"
        },
        {
          "indexed": false,
          "internalType": "bytes32",
          "name": "_splitHash",
          "type": "bytes32"
        },
        {
          "indexed": false,
          "internalType": "uint32",
          "name": "_splitDistributorFee",
          "type": "uint32"
        }
      ],
      "name": "SplitsUpdated",
      "type": "event"
    },
    {
      "anonymous": false,
      "inputs": [
        {
          "indexed": true,
          "internalType": "bytes32",
          "name": "_transferId",
          "type": "bytes32"
        },
        {
          "indexed": true,
          "internalType": "uint32",
          "name": "_originDomain",
          "type": "uint32"
        },
        {
          "indexed": true,
          "internalType": "bytes4",
          "name": "_action",
          "type": "bytes4"
        },
        {
          "indexed": false,
          "internalType": "bool",
          "name": "_success",
          "type": "bool"
        },
        {
          "indexed": false,
          "internalType": "address",
          "name": "_originSender",
          "type": "address"
        }
      ],
      "name": "SyncActionPerformed",
      "type": "event"
    },
    {
      "anonymous": false,
      "inputs": [
        {
          "indexed": true,
          "internalType": "bytes32",
          "name": "_transferId",
          "type": "bytes32"
        },
        {
          "indexed": true,
          "internalType": "uint32",
          "name": "_chainId",
          "type": "uint32"
        },
        {
          "indexed": true,
          "internalType": "bytes4",
          "name": "_action",
          "type": "bytes4"
        },
        {
          "indexed": false,
          "internalType": "address",
          "name": "_registryAddress",
          "type": "address"
        }
      ],
      "name": "SyncMessageSubmitted",
      "type": "event"
    },
    {
      "anonymous": false,
      "inputs": [
        {
          "indexed": true,
          "internalType": "address",
          "name": "_member",
          "type": "address"
        },
        {
          "indexed": false,
          "internalType": "uint32",
          "name": "_activityMultiplier",
          "type": "uint32"
        }
      ],
      "name": "UpdateMember",
      "type": "event"
    },
    {
      "anonymous": false,
      "inputs": [
        {
          "indexed": true,
          "internalType": "address",
          "name": "_member",
          "type": "address"
        },
        {
          "indexed": false,
          "internalType": "uint32",
          "name": "_secondsActive",
          "type": "uint32"
        }
      ],
      "name": "UpdateMemberSeconds",
      "type": "event"
    },
    {
      "inputs": [],
      "name": "PERCENTAGE_SCALE",
      "outputs": [
        {
          "internalType": "uint256",
          "name": "",
          "type": "uint256"
        }
      ],
      "stateMutability": "view",
      "type": "function"
    },
    {
      "inputs": [
        {
          "internalType": "uint32[]",
          "name": "_chainIds",
          "type": "uint32[]"
        },
        {
          "internalType": "uint256[]",
          "name": "_relayerFees",
          "type": "uint256[]"
        }
      ],
      "name": "acceptNetworkSplitControl",
      "outputs": [],
      "stateMutability": "payable",
      "type": "function"
    },
    {
      "inputs": [],
      "name": "acceptSplitControl",
      "outputs": [],
      "stateMutability": "nonpayable",
      "type": "function"
    },
    {
      "inputs": [],
      "name": "baal",
      "outputs": [
        {
          "internalType": "contract IBaal",
          "name": "",
          "type": "address"
        }
      ],
      "stateMutability": "view",
      "type": "function"
    },
    {
      "inputs": [
        {
          "internalType": "address[]",
          "name": "_members",
          "type": "address[]"
        },
        {
          "internalType": "uint32[]",
          "name": "_activityMultipliers",
          "type": "uint32[]"
        },
        {
          "internalType": "uint32[]",
          "name": "_startDates",
          "type": "uint32[]"
        }
      ],
      "name": "batchNewMember",
      "outputs": [],
      "stateMutability": "nonpayable",
      "type": "function"
    },
    {
      "inputs": [
        {
          "internalType": "address[]",
          "name": "_members",
          "type": "address[]"
        },
        {
          "internalType": "uint32[]",
          "name": "_activityMultipliers",
          "type": "uint32[]"
        }
      ],
      "name": "batchUpdateMember",
      "outputs": [],
      "stateMutability": "nonpayable",
      "type": "function"
    },
    {
      "inputs": [],
      "name": "burnShares",
      "outputs": [
        {
          "internalType": "bool",
          "name": "",
          "type": "bool"
        }
      ],
      "stateMutability": "view",
      "type": "function"
    },
    {
      "inputs": [
        {
          "internalType": "address[]",
          "name": "_sortedList",
          "type": "address[]"
        }
      ],
      "name": "calculate",
      "outputs": [
        {
          "internalType": "address[]",
          "name": "_receivers",
          "type": "address[]"
        },
        {
          "internalType": "uint32[]",
          "name": "_percentAllocations",
          "type": "uint32[]"
        }
      ],
      "stateMutability": "view",
      "type": "function"
    },
    {
      "inputs": [
        {
          "internalType": "address",
          "name": "_memberAddress",
          "type": "address"
        }
      ],
      "name": "calculateContributionOf",
      "outputs": [
        {
          "internalType": "uint256",
          "name": "",
          "type": "uint256"
        }
      ],
      "stateMutability": "view",
      "type": "function"
    },
    {
      "inputs": [
        {
          "components": [
            {
              "internalType": "address",
              "name": "account",
              "type": "address"
            },
            {
              "internalType": "uint32",
              "name": "secondsActive",
              "type": "uint32"
            },
            {
              "internalType": "uint32",
              "name": "startDate",
              "type": "uint32"
            },
            {
              "internalType": "uint32",
              "name": "activityMultiplier",
              "type": "uint32"
            }
          ],
          "internalType": "struct MemberRegistry.Member",
          "name": "_member",
          "type": "tuple"
        }
      ],
      "name": "calculateContributionOf",
      "outputs": [
        {
          "internalType": "uint256",
          "name": "",
          "type": "uint256"
        }
      ],
      "stateMutability": "pure",
      "type": "function"
    },
    {
      "inputs": [],
      "name": "calculateTotalContributions",
      "outputs": [
        {
          "internalType": "uint256",
          "name": "total",
          "type": "uint256"
        }
      ],
      "stateMutability": "view",
      "type": "function"
    },
    {
      "inputs": [
        {
          "internalType": "uint32[]",
          "name": "_chainIds",
          "type": "uint32[]"
        },
        {
          "internalType": "uint256[]",
          "name": "_relayerFees",
          "type": "uint256[]"
        }
      ],
      "name": "cancelNetworkSplitControlTransfer",
      "outputs": [],
      "stateMutability": "payable",
      "type": "function"
    },
    {
      "inputs": [],
      "name": "cancelSplitControlTransfer",
      "outputs": [],
      "stateMutability": "nonpayable",
      "type": "function"
    },
    {
      "inputs": [],
      "name": "connext",
      "outputs": [
        {
          "internalType": "contract IConnext",
          "name": "",
          "type": "address"
        }
      ],
      "stateMutability": "view",
      "type": "function"
    },
    {
      "inputs": [
        {
          "internalType": "address",
          "name": "_member",
          "type": "address"
        }
      ],
      "name": "getMember",
      "outputs": [
        {
          "components": [
            {
              "internalType": "address",
              "name": "account",
              "type": "address"
            },
            {
              "internalType": "uint32",
              "name": "secondsActive",
              "type": "uint32"
            },
            {
              "internalType": "uint32",
              "name": "startDate",
              "type": "uint32"
            },
            {
              "internalType": "uint32",
              "name": "activityMultiplier",
              "type": "uint32"
            }
          ],
          "internalType": "struct MemberRegistry.Member",
          "name": "",
          "type": "tuple"
        }
      ],
      "stateMutability": "view",
      "type": "function"
    },
    {
      "inputs": [],
      "name": "getMembers",
      "outputs": [
        {
          "components": [
            {
              "internalType": "address",
              "name": "account",
              "type": "address"
            },
            {
              "internalType": "uint32",
              "name": "secondsActive",
              "type": "uint32"
            },
            {
              "internalType": "uint32",
              "name": "startDate",
              "type": "uint32"
            },
            {
              "internalType": "uint32",
              "name": "activityMultiplier",
              "type": "uint32"
            }
          ],
          "internalType": "struct MemberRegistry.Member[]",
          "name": "",
          "type": "tuple[]"
        }
      ],
      "stateMutability": "view",
      "type": "function"
    },
    {
      "inputs": [],
      "name": "getMembersSplitProperties",
      "outputs": [
        {
          "internalType": "address[]",
          "name": "",
          "type": "address[]"
        },
        {
          "internalType": "uint32[]",
          "name": "",
          "type": "uint32[]"
        },
        {
          "internalType": "uint32[]",
          "name": "",
          "type": "uint32[]"
        }
      ],
      "stateMutability": "view",
      "type": "function"
    },
    {
      "inputs": [
        {
          "internalType": "bytes",
          "name": "_initializationParams",
          "type": "bytes"
        }
      ],
      "name": "initialize",
      "outputs": [],
      "stateMutability": "nonpayable",
      "type": "function"
    },
    {
      "inputs": [],
      "name": "isMainRegistry",
      "outputs": [
        {
          "internalType": "bool",
          "name": "",
          "type": "bool"
        }
      ],
      "stateMutability": "view",
      "type": "function"
    },
    {
      "inputs": [],
      "name": "lastActivityUpdate",
      "outputs": [
        {
          "internalType": "uint32",
          "name": "",
          "type": "uint32"
        }
      ],
      "stateMutability": "view",
      "type": "function"
    },
    {
      "inputs": [
        {
          "internalType": "address",
          "name": "",
          "type": "address"
        }
      ],
      "name": "memberIdxs",
      "outputs": [
        {
          "internalType": "uint256",
          "name": "",
          "type": "uint256"
        }
      ],
      "stateMutability": "view",
      "type": "function"
    },
    {
      "inputs": [
        {
          "internalType": "uint256",
          "name": "",
          "type": "uint256"
        }
      ],
      "name": "members",
      "outputs": [
        {
          "internalType": "address",
          "name": "account",
          "type": "address"
        },
        {
          "internalType": "uint32",
          "name": "secondsActive",
          "type": "uint32"
        },
        {
          "internalType": "uint32",
          "name": "startDate",
          "type": "uint32"
        },
        {
          "internalType": "uint32",
          "name": "activityMultiplier",
          "type": "uint32"
        }
      ],
      "stateMutability": "view",
      "type": "function"
    },
    {
      "inputs": [
        {
          "internalType": "uint32",
          "name": "",
          "type": "uint32"
        }
      ],
      "name": "networkRegistry",
      "outputs": [
        {
          "internalType": "uint32",
          "name": "domainId",
          "type": "uint32"
        },
        {
          "internalType": "address",
          "name": "registryAddress",
          "type": "address"
        },
        {
          "internalType": "address",
          "name": "delegate",
          "type": "address"
        }
      ],
      "stateMutability": "view",
      "type": "function"
    },
    {
      "inputs": [],
      "name": "owner",
      "outputs": [
        {
          "internalType": "address",
          "name": "",
          "type": "address"
        }
      ],
      "stateMutability": "view",
      "type": "function"
    },
    {
      "inputs": [],
      "name": "renounceOwnership",
      "outputs": [],
      "stateMutability": "nonpayable",
      "type": "function"
    },
    {
      "inputs": [
        {
          "internalType": "address",
          "name": "_member",
          "type": "address"
        },
        {
          "internalType": "uint32",
          "name": "_activityMultiplier",
          "type": "uint32"
        },
        {
          "internalType": "uint32",
          "name": "_startDate",
          "type": "uint32"
        }
      ],
      "name": "setNewMember",
      "outputs": [],
      "stateMutability": "nonpayable",
      "type": "function"
    },
    {
      "inputs": [
        {
          "internalType": "uint256",
          "name": "_sharesToMint",
          "type": "uint256"
        },
        {
          "internalType": "bool",
          "name": "_burnShares",
          "type": "bool"
        }
      ],
      "name": "setShamanConfig",
      "outputs": [],
      "stateMutability": "nonpayable",
      "type": "function"
    },
    {
      "inputs": [
        {
          "internalType": "address",
          "name": "_splitMain",
          "type": "address"
        },
        {
          "internalType": "address",
          "name": "_split",
          "type": "address"
        }
      ],
      "name": "setSplit",
      "outputs": [],
      "stateMutability": "nonpayable",
      "type": "function"
    },
    {
      "inputs": [
        {
          "internalType": "address",
          "name": "_connext",
          "type": "address"
        },
        {
          "internalType": "uint32",
          "name": "_updaterDomain",
          "type": "uint32"
        },
        {
          "internalType": "address",
          "name": "_updater",
          "type": "address"
        }
      ],
      "name": "setUpdaterConfig",
      "outputs": [],
      "stateMutability": "nonpayable",
      "type": "function"
    },
    {
      "inputs": [],
      "name": "sharesToMint",
      "outputs": [
        {
          "internalType": "uint256",
          "name": "",
          "type": "uint256"
        }
      ],
      "stateMutability": "view",
      "type": "function"
    },
    {
      "inputs": [],
      "name": "split",
      "outputs": [
        {
          "internalType": "address",
          "name": "",
          "type": "address"
        }
      ],
      "stateMutability": "view",
      "type": "function"
    },
    {
      "inputs": [],
      "name": "splitMain",
      "outputs": [
        {
          "internalType": "contract ISplitMain",
          "name": "",
          "type": "address"
        }
      ],
      "stateMutability": "view",
      "type": "function"
    },
    {
      "inputs": [
        {
          "internalType": "address[]",
          "name": "_members",
          "type": "address[]"
        },
        {
          "internalType": "uint32[]",
          "name": "_activityMultipliers",
          "type": "uint32[]"
        },
        {
          "internalType": "uint32[]",
          "name": "_startDates",
          "type": "uint32[]"
        },
        {
          "internalType": "uint32[]",
          "name": "_chainIds",
          "type": "uint32[]"
        },
        {
          "internalType": "uint256[]",
          "name": "_relayerFees",
          "type": "uint256[]"
        }
      ],
      "name": "syncBatchNewMember",
      "outputs": [],
      "stateMutability": "payable",
      "type": "function"
    },
    {
      "inputs": [
        {
          "internalType": "address[]",
          "name": "_members",
          "type": "address[]"
        },
        {
          "internalType": "uint32[]",
          "name": "_activityMultipliers",
          "type": "uint32[]"
        },
        {
          "internalType": "uint32[]",
          "name": "_chainIds",
          "type": "uint32[]"
        },
        {
          "internalType": "uint256[]",
          "name": "_relayerFees",
          "type": "uint256[]"
        }
      ],
      "name": "syncBatchUpdateMember",
      "outputs": [],
      "stateMutability": "payable",
      "type": "function"
    },
    {
      "inputs": [
        {
          "internalType": "uint32[]",
          "name": "_chainIds",
          "type": "uint32[]"
        },
        {
          "internalType": "uint256[]",
          "name": "_relayerFees",
          "type": "uint256[]"
        }
      ],
      "name": "syncNetworkMemberRegistry",
      "outputs": [],
      "stateMutability": "payable",
      "type": "function"
    },
    {
      "inputs": [
        {
          "internalType": "address",
          "name": "_member",
          "type": "address"
        },
        {
          "internalType": "uint32",
          "name": "_activityMultiplier",
          "type": "uint32"
        },
        {
          "internalType": "uint32",
          "name": "_startDate",
          "type": "uint32"
        },
        {
          "internalType": "uint32[]",
          "name": "_chainIds",
          "type": "uint32[]"
        },
        {
          "internalType": "uint256[]",
          "name": "_relayerFees",
          "type": "uint256[]"
        }
      ],
      "name": "syncSetNewMember",
      "outputs": [],
      "stateMutability": "payable",
      "type": "function"
    },
    {
      "inputs": [
        {
          "internalType": "address[]",
          "name": "_sortedList",
          "type": "address[]"
        },
        {
          "internalType": "uint32",
          "name": "_splitDistributorFee",
          "type": "uint32"
        },
        {
          "internalType": "uint32[]",
          "name": "_chainIds",
          "type": "uint32[]"
        },
        {
          "internalType": "uint256[]",
          "name": "_relayerFees",
          "type": "uint256[]"
        }
      ],
      "name": "syncUpdateAll",
      "outputs": [],
      "stateMutability": "payable",
      "type": "function"
    },
    {
      "inputs": [
        {
          "internalType": "address",
          "name": "_member",
          "type": "address"
        },
        {
          "internalType": "uint32",
          "name": "_activityMultiplier",
          "type": "uint32"
        },
        {
          "internalType": "uint32[]",
          "name": "_chainIds",
          "type": "uint32[]"
        },
        {
          "internalType": "uint256[]",
          "name": "_relayerFees",
          "type": "uint256[]"
        }
      ],
      "name": "syncUpdateMember",
      "outputs": [],
      "stateMutability": "payable",
      "type": "function"
    },
    {
      "inputs": [
        {
          "internalType": "uint32[]",
          "name": "_chainIds",
          "type": "uint32[]"
        },
        {
          "internalType": "uint256[]",
          "name": "_relayerFees",
          "type": "uint256[]"
        }
      ],
      "name": "syncUpdateSecondsActive",
      "outputs": [],
      "stateMutability": "payable",
      "type": "function"
    },
    {
      "inputs": [
        {
          "internalType": "address[]",
          "name": "_sortedList",
          "type": "address[]"
        },
        {
          "internalType": "uint32",
          "name": "_splitDistributorFee",
          "type": "uint32"
        },
        {
          "internalType": "uint32[]",
          "name": "_chainIds",
          "type": "uint32[]"
        },
        {
          "internalType": "uint256[]",
          "name": "_relayerFees",
          "type": "uint256[]"
        }
      ],
      "name": "syncUpdateSplits",
      "outputs": [],
      "stateMutability": "payable",
      "type": "function"
    },
    {
      "inputs": [],
      "name": "totalMembers",
      "outputs": [
        {
          "internalType": "uint256",
          "name": "",
          "type": "uint256"
        }
      ],
      "stateMutability": "view",
      "type": "function"
    },
    {
      "inputs": [
        {
          "internalType": "uint32[]",
          "name": "_chainIds",
          "type": "uint32[]"
        },
        {
          "internalType": "address[]",
          "name": "_newControllers",
          "type": "address[]"
        },
        {
          "internalType": "uint256[]",
          "name": "_relayerFees",
          "type": "uint256[]"
        }
      ],
      "name": "transferNetworkSplitControl",
      "outputs": [],
      "stateMutability": "payable",
      "type": "function"
    },
    {
      "inputs": [
        {
          "internalType": "address",
          "name": "newOwner",
          "type": "address"
        }
      ],
      "name": "transferOwnership",
      "outputs": [],
      "stateMutability": "nonpayable",
      "type": "function"
    },
    {
      "inputs": [
        {
          "internalType": "address",
          "name": "_newController",
          "type": "address"
        }
      ],
      "name": "transferSplitControl",
      "outputs": [],
      "stateMutability": "nonpayable",
      "type": "function"
    },
    {
      "inputs": [
        {
          "internalType": "address[]",
          "name": "_sortedList",
          "type": "address[]"
        },
        {
          "internalType": "uint32",
          "name": "_splitDistributorFee",
          "type": "uint32"
        }
      ],
      "name": "updateAll",
      "outputs": [],
      "stateMutability": "nonpayable",
      "type": "function"
    },
    {
      "inputs": [
        {
          "internalType": "address",
          "name": "_member",
          "type": "address"
        },
        {
          "internalType": "uint32",
          "name": "_activityMultiplier",
          "type": "uint32"
        }
      ],
      "name": "updateMember",
      "outputs": [],
      "stateMutability": "nonpayable",
      "type": "function"
    },
    {
      "inputs": [
        {
          "internalType": "uint32",
          "name": "_chainId",
          "type": "uint32"
        },
        {
          "components": [
            {
              "internalType": "uint32",
              "name": "domainId",
              "type": "uint32"
            },
            {
              "internalType": "address",
              "name": "registryAddress",
              "type": "address"
            },
            {
              "internalType": "address",
              "name": "delegate",
              "type": "address"
            }
          ],
          "internalType": "struct INetworkMemberRegistry.Registry",
          "name": "_newRegistry",
          "type": "tuple"
        }
      ],
      "name": "updateNetworkRegistry",
      "outputs": [],
      "stateMutability": "nonpayable",
      "type": "function"
    },
    {
      "inputs": [
        {
          "internalType": "uint32[]",
          "name": "_chainIds",
          "type": "uint32[]"
        },
        {
          "internalType": "address[]",
          "name": "_splitsMain",
          "type": "address[]"
        },
        {
          "internalType": "address[]",
          "name": "_splits",
          "type": "address[]"
        },
        {
          "internalType": "uint256[]",
          "name": "_relayerFees",
          "type": "uint256[]"
        }
      ],
      "name": "updateNetworkSplit",
      "outputs": [],
      "stateMutability": "payable",
      "type": "function"
    },
    {
      "inputs": [],
      "name": "updateSecondsActive",
      "outputs": [],
      "stateMutability": "nonpayable",
      "type": "function"
    },
    {
      "inputs": [
        {
          "internalType": "address[]",
          "name": "_sortedList",
          "type": "address[]"
        },
        {
          "internalType": "uint32",
          "name": "_splitDistributorFee",
          "type": "uint32"
        }
      ],
      "name": "updateSplits",
      "outputs": [],
      "stateMutability": "nonpayable",
      "type": "function"
    },
    {
      "inputs": [],
      "name": "updater",
      "outputs": [
        {
          "internalType": "address",
          "name": "",
          "type": "address"
        }
      ],
      "stateMutability": "view",
      "type": "function"
    },
    {
      "inputs": [],
      "name": "updaterDomain",
      "outputs": [
        {
          "internalType": "uint32",
          "name": "",
          "type": "uint32"
        }
      ],
      "stateMutability": "view",
      "type": "function"
    },
    {
      "inputs": [
        {
          "internalType": "bytes32",
          "name": "_transferId",
          "type": "bytes32"
        },
        {
          "internalType": "uint256",
          "name": "",
          "type": "uint256"
        },
        {
          "internalType": "address",
          "name": "",
          "type": "address"
        },
        {
          "internalType": "address",
          "name": "_originSender",
          "type": "address"
        },
        {
          "internalType": "uint32",
          "name": "_origin",
          "type": "uint32"
        },
        {
          "internalType": "bytes",
          "name": "_incomingCalldata",
          "type": "bytes"
        }
      ],
      "name": "xReceive",
      "outputs": [
        {
          "internalType": "bytes",
          "name": "",
          "type": "bytes"
        }
      ],
      "stateMutability": "nonpayable",
      "type": "function"
    }
  ],
  "transactionHash": "0x85f392ca5816ed0459f08042b1953876c0a826a5d6c90fa631c3bd996fac3912",
  "args": [],
  "numDeployments": 4,
  "solcInputHash": "d3f3eb150724c8e8c432807fd2425a4d",
  "bytecode": "0x608060405260006066553480156200001657600080fd5b506200002162000027565b620000e9565b600054610100900460ff1615620000945760405162461bcd60e51b815260206004820152602760248201527f496e697469616c697a61626c653a20636f6e747261637420697320696e697469604482015266616c697a696e6760c81b606482015260840160405180910390fd5b60005460ff9081161015620000e7576000805460ff191660ff9081179091556040519081527f7f26b83ff96e1f2b6a682f133852f6798a09c465da95921460cefb38474024989060200160405180910390a15b565b615dee80620000f96000396000f3fe60806040526004361061031a5760003560e01c80638dc15791116101ab578063c818c70f116100f7578063e9172c2d11610095578063f76541761161006f578063f765417614610962578063fd614f4114610982578063ffcf9bae146109af578063fff9834d146109cf57600080fd5b8063e9172c2d14610902578063f2fde38b14610922578063f6ce03541461094257600080fd5b8063df034cd0116100d1578063df034cd01461088d578063e46867fd146108ad578063e4a7c603146108cd578063e5a2a2a5146108e257600080fd5b8063c818c70f14610826578063cf2933c114610846578063de4b05481461086657600080fd5b8063a084b6c011610164578063b044631c1161013e578063b044631c146107a1578063b0affdf7146107b4578063b85a2ce1146107e2578063bf59b4881461080257600080fd5b8063a084b6c014610764578063a8e6f1e714610779578063ab6efc301461078c57600080fd5b80638dc15791146106345780638ddc5f35146106545780638ee31392146106d05780639d7b8545146107025780639eab525314610722578063a02b60061461074457600080fd5b80635523a9601161026a578063715018a61161022357806376e92559116101fd57806376e92559146105cc5780637f6d2708146105e157806380e038bc146106015780638da5cb5b1461061657600080fd5b8063715018a61461058157806375491512146105965780637698a833146105ac57600080fd5b80635523a960146104bb57806356c0e992146104ce5780635daf08ca146104e157806364c6d00a1461053757806367942be01461054a5780636bda59da1461056e57600080fd5b8063325d1e9c116102d75780633a8246f3116102b15780633a8246f31461045e5780633f26479e14610471578063439fab9114610488578063535949a6146104a857600080fd5b8063325d1e9c146103fb57806334e2fc651461040e578063371b52e31461044957600080fd5b80630202f82a1461031f5780630726312a146103345780630bddc56b146103545780630e769b2b146103835780631049d736146103bb5780632ada2596146103ce575b600080fd5b61033261032d366004614630565b6109e2565b005b34801561034057600080fd5b5061033261034f3660046146c4565b610ba3565b34801561036057600080fd5b50606f5461036e9060ff1681565b60405190151581526020015b60405180910390f35b34801561038f57600080fd5b50606b546103a3906001600160a01b031681565b6040516001600160a01b03909116815260200161037a565b6103326103c936600461470f565b610d65565b3480156103da57600080fd5b506103ee6103e936600461477a565b610f27565b60405161037a91906147d1565b6103326104093660046147df565b611023565b34801561041a57600080fd5b5061043b61042936600461477a565b60676020526000908152604090205481565b60405190815260200161037a565b34801561045557600080fd5b506103326111d8565b61033261046c366004614886565b611285565b34801561047d57600080fd5b5061043b620f424081565b34801561049457600080fd5b506103326104a33660046149c9565b611396565b6103326104b6366004614a05565b61159a565b6103326104c9366004614886565b611801565b6103326104dc36600461470f565b611912565b3480156104ed57600080fd5b506105016104fc366004614af5565b611a96565b604080516001600160a01b03909516855263ffffffff93841660208601529183169184019190915216606082015260800161037a565b61033261054536600461470f565b611ae3565b34801561055657600080fd5b5061055f611beb565b60405161037a93929190614b88565b61033261057c366004614d21565b611e05565b34801561058d57600080fd5b50610332611f6f565b3480156105a257600080fd5b5061043b606e5481565b3480156105b857600080fd5b506103326105c7366004614da8565b611f83565b3480156105d857600080fd5b5060655461043b565b3480156105ed57600080fd5b506103326105fc366004614e50565b612153565b34801561060d57600080fd5b506103326121b2565b34801561062257600080fd5b506033546001600160a01b03166103a3565b34801561064057600080fd5b5061033261064f366004614e80565b61222f565b34801561066057600080fd5b506106a461066f366004614ecb565b606a602052600090815260409020805460019091015463ffffffff8216916001600160a01b03600160201b9091048116911683565b6040805163ffffffff90941684526001600160a01b03928316602085015291169082015260600161037a565b3480156106dc57600080fd5b506068546106ed9063ffffffff1681565b60405163ffffffff909116815260200161037a565b34801561070e57600080fd5b5061033261071d36600461477a565b612364565b34801561072e57600080fd5b50610737612419565b60405161037a9190614ee8565b34801561075057600080fd5b5061033261075f366004614e80565b6124b0565b34801561077057600080fd5b5061036e6124c3565b610332610787366004614f36565b6124f1565b34801561079857600080fd5b5061043b61265a565b6103326107af36600461470f565b6126f6565b3480156107c057600080fd5b506107d46107cf366004614fe2565b6127fe565b60405161037a929190615016565b3480156107ee57600080fd5b506103326107fd36600461503b565b612b96565b34801561080e57600080fd5b506068546106ed90600160c01b900463ffffffff1681565b34801561083257600080fd5b50610332610841366004615069565b612dea565b34801561085257600080fd5b50610332610861366004615097565b612fad565b34801561087257600080fd5b506068546103a390600160201b90046001600160a01b031681565b34801561089957600080fd5b506069546103a3906001600160a01b031681565b3480156108b957600080fd5b506103326108c83660046150fa565b613046565b3480156108d957600080fd5b506103326130f9565b3480156108ee57600080fd5b50606d546103a3906001600160a01b031681565b34801561090e57600080fd5b5061043b61091d36600461477a565b613101565b34801561092e57600080fd5b5061033261093d36600461477a565b61311f565b34801561094e57600080fd5b5061033261095d366004615177565b613198565b34801561096e57600080fd5b50606c546103a3906001600160a01b031681565b34801561098e57600080fd5b506109a261099d3660046151b7565b613244565b60405161037a919061528d565b3480156109bb57600080fd5b5061043b6109ca3660046152a0565b613800565b6103326109dd366004615324565b613827565b6109ea613a33565b838380806020026020016040519081016040528093929190818152602001838360200280828437600092019190915250506040805160208087028281018201909352868252909350869250859182918501908490808284376000920191909152505082518451149150610a7a90505760405162461bcd60e51b8152600401610a71906153e7565b60405180910390fd5b6000805b8251811015610ab657828181518110610a9957610a9961542c565b602002602001015182610aac9190615458565b9150600101610a7e565b50803414610ad65760405162461bcd60e51b8152600401610a719061546b565b610ae08989612dea565b6040805163c818c70f60e01b602082018190526001600160a01b038c169282019290925263ffffffff8a1660608201526000906080016040516020818303038152906040529050610b9682828b8b8080602002602001604051908101604052809392919081815260200183836020028082843760009201919091525050604080516020808f0282810182019093528e82529093508e92508d918291850190849080828437600092019190915250613a8d92505050565b5050505050505050505050565b610bab6124c3565b15610c4d57606d546001600160a01b031615801590610c315750606d5460405163f3ae241560e01b81523060048201526001600160a01b039091169063f3ae241590602401602060405180830381865afa158015610c0d573d6000803e3d6000fd5b505050506040513d601f19601f82011682018060405250810190610c3191906154b3565b610c4d5760405162461bcd60e51b8152600401610a71906154d0565b610c58838383613ad2565b610c606124c3565b15610d6057604080516001808252818301909252600091602080830190803683370190505090508381600081518110610c9b57610c9b61542c565b6001600160a01b039290921660209283029190910190910152604080516001808252818301909252600091816020016020820280368337019050509050606e5481600081518110610cee57610cee61542c565b6020908102919091010152606d54604051632c78fd0360e21b81526001600160a01b039091169063b1e3f40c90610d2b9085908590600401615519565b600060405180830381600087803b158015610d4557600080fd5b505af1158015610d59573d6000803e3d6000fd5b5050505050505b505050565b610d6d613a33565b838380806020026020016040519081016040528093929190818152602001838360200280828437600092019190915250506040805160208087028281018201909352868252909350869250859182918501908490808284376000920191909152505082518451149150610df490505760405162461bcd60e51b8152600401610a71906153e7565b6000805b8251811015610e3057828181518110610e1357610e1361542c565b602002602001015182610e269190615458565b9150600101610df8565b50803414610e505760405162461bcd60e51b8152600401610a719061546b565b6000806000610e5d611beb565b604051929550909350915063e46867fd60e01b90600090610e88908390879087908790602001615570565b6040516020818303038152906040529050610f1982828e8e80806020026020016040519081016040528093929190818152602001838360200280828437600081840152601f19601f820116905080830192505050505050508d8d80806020026020016040519081016040528093929190818152602001838360200280828437600092019190915250613a8d92505050565b505050505050505050505050565b6040805160808101825260008082526020808301829052828401829052606083018290526001600160a01b03851682526067905291822054909103610f8a5760405163c6040d1d60e01b81526001600160a01b0383166004820152602401610a71565b6001600160a01b038216600090815260676020526040902054606590610fb2906001906155c3565b81548110610fc257610fc261542c565b60009182526020918290206040805160808101825291909201546001600160a01b038116825263ffffffff600160a01b8204811694830194909452600160c01b8104841692820192909252600160e01b909104909116606082015292915050565b61102b613a33565b8383808060200260200160405190810160405280939291908181526020018383602002808284376000920191909152505060408051602080870282810182019093528682529093508692508591829185019084908082843760009201919091525050825184511491506110b290505760405162461bcd60e51b8152600401610a71906153e7565b6000805b82518110156110ee578281815181106110d1576110d161542c565b6020026020010151826110e49190615458565b91506001016110b6565b5080341461110e5760405162461bcd60e51b8152600401610a719061546b565b6111198a8a8a610ba3565b60408051630393189560e11b602082018190526001600160a01b038d169282019290925263ffffffff808c1660608301528a16608082015260009060a0015b6040516020818303038152906040529050610f1982828b8b8080602002602001604051908101604052809392919081815260200183836020028082843760009201919091525050604080516020808f0282810182019093528e82529093508e92508d918291850190849080828437600092019190915250613a8d92505050565b6033546001600160a01b031633148061120557506069546001600160a01b03161580159061120557503330145b6112215760405162461bcd60e51b8152600401610a71906155d6565b606b54606c54604051630933e36d60e11b81526001600160a01b039182166004820152911690631267c6da906024015b600060405180830381600087803b15801561126b57600080fd5b505af115801561127f573d6000803e3d6000fd5b50505050565b83838080602002602001604051908101604052809392919081815260200183836020028082843760009201919091525050604080516020808702828101820190935286825290935086925085918291850190849080828437600092019190915250508251845114915061130c90505760405162461bcd60e51b8152600401610a71906153e7565b6000805b82518110156113485782818151811061132b5761132b61542c565b60200260200101518261133e9190615458565b9150600101611310565b508034146113685760405162461bcd60e51b8152600401610a719061546b565b6113738a8a8a6124b0565b604051635015b00360e11b906000906111589083908e908e908e90602001615657565b600054610100900460ff16158080156113b65750600054600160ff909116105b806113d05750303b1580156113d0575060005460ff166001145b6114335760405162461bcd60e51b815260206004820152602e60248201527f496e697469616c697a61626c653a20636f6e747261637420697320616c72656160448201526d191e481a5b9a5d1a585b1a5e995960921b6064820152608401610a71565b6000805460ff191660011790558015611456576000805461ff0019166101001790555b600080600080600080600080898060200190518101906114769190615691565b9750975097509750975097509750975082606d60006101000a8154816001600160a01b0302191690836001600160a01b031602179055506115318888888888606d60009054906101000a90046001600160a01b03166001600160a01b0316635aef7de66040518163ffffffff1660e01b8152600401602060405180830381865afa158015611508573d6000803e3d6000fd5b505050506040513d601f19601f8201168201806040525081019061152c9190615737565b613b26565b606e91909155606f805460ff191691151591909117905550508415935061159692505050576000805461ff0019169055604051600181527f7f26b83ff96e1f2b6a682f133852f6798a09c465da95921460cefb38474024989060200160405180910390a15b5050565b6115a2613a33565b83838080602002602001604051908101604052809392919081815260200183836020028082843760009201919091525050604080516020808702828101820190935286825290935086925085918291850190849080828437600092019190915250508251845114915061162990505760405162461bcd60e51b8152600401610a71906153e7565b6000805b8251811015611665578281815181106116485761164861542c565b60200260200101518261165b9190615458565b915060010161162d565b508034146116855760405162461bcd60e51b8152600401610a719061546b565b6117458d8d80806020026020016040519081016040528093929190818152602001838360200280828437600081840152601f19601f820116905080830192505050505050508c8c80806020026020016040519081016040528093929190818152602001838360200280828437600081840152601f19601f820116905080830192505050505050508b8b8080602002602001604051908101604052809392919081815260200183836020028082843760009201919091525061304692505050565b600063e46867fd60e01b90506000818f8f8f8f8f8f604051602001611770979695949392919061578f565b60405160208183030381529060405290506117f082828b8b8080602002602001604051908101604052809392919081815260200183836020028082843760009201919091525050604080516020808f0282810182019093528e82529093508e92508d918291850190849080828437600092019190915250613a8d92505050565b505050505050505050505050505050565b83838080602002602001604051908101604052809392919081815260200183836020028082843760009201919091525050604080516020808702828101820190935286825290935086925085918291850190849080828437600092019190915250508251845114915061188890505760405162461bcd60e51b8152600401610a71906153e7565b6000805b82518110156118c4578281815181106118a7576118a761542c565b6020026020010151826118ba9190615458565b915060010161188c565b508034146118e45760405162461bcd60e51b8152600401610a719061546b565b6118ef8a8a8a61222f565b604051638dc1579160e01b906000906111589083908e908e908e90602001615657565b61191a613a33565b8383808060200260200160405190810160405280939291908181526020018383602002808284376000920191909152505060408051602080870282810182019093528682529093508692508591829185019084908082843760009201919091525050825184511491506119a190505760405162461bcd60e51b8152600401610a71906153e7565b6000805b82518110156119dd578281815181106119c0576119c061542c565b6020026020010151826119d39190615458565b91506001016119a5565b508034146119fd5760405162461bcd60e51b8152600401610a719061546b565b604080516320380e2f60e21b6020820181905291600091015b6040516020818303038152906040529050610d5982828b8b8080602002602001604051908101604052809392919081815260200183836020028082843760009201919091525050604080516020808f0282810182019093528e82529093508e92508d918291850190849080828437600092019190915250613a8d92505050565b60658181548110611aa657600080fd5b6000918252602090912001546001600160a01b038116915063ffffffff600160a01b8204811691600160c01b8104821691600160e01b9091041684565b611aeb613a33565b838380806020026020016040519081016040528093929190818152602001838360200280828437600092019190915250506040805160208087028281018201909352868252909350869250859182918501908490808284376000920191909152505082518451149150611b7290505760405162461bcd60e51b8152600401610a71906153e7565b6000805b8251811015611bae57828181518110611b9157611b9161542c565b602002602001015182611ba49190615458565b9150600101611b76565b50803414611bce5760405162461bcd60e51b8152600401610a719061546b565b6040805163371b52e360e01b602082018190529160009101611a16565b606080606060006065805490506001600160401b03811115611c0f57611c0f614914565b604051908082528060200260200182016040528015611c38578160200160208202803683370190505b506065549091506000906001600160401b03811115611c5957611c59614914565b604051908082528060200260200182016040528015611c82578160200160208202803683370190505b506065549091506000906001600160401b03811115611ca357611ca3614914565b604051908082528060200260200182016040528015611ccc578160200160208202803683370190505b50905060005b606554811015611df85760658181548110611cef57611cef61542c565b60009182526020909120015484516001600160a01b0390911690859083908110611d1b57611d1b61542c565b60200260200101906001600160a01b031690816001600160a01b03168152505060658181548110611d4e57611d4e61542c565b90600052602060002001600001601c9054906101000a900463ffffffff16838281518110611d7e57611d7e61542c565b602002602001019063ffffffff16908163ffffffff168152505060658181548110611dab57611dab61542c565b9060005260206000200160000160189054906101000a900463ffffffff16828281518110611ddb57611ddb61542c565b63ffffffff90921660209283029190910190910152600101611cd2565b5091959094509092509050565b611e0d613a33565b82818051825114611e305760405162461bcd60e51b8152600401610a71906153e7565b6000805b8251811015611e6c57828181518110611e4f57611e4f61542c565b602002602001015182611e629190615458565b9150600101611e34565b50803414611e8c5760405162461bcd60e51b8152600401610a719061546b565b8551855114611ead5760405162461bcd60e51b8152600401610a71906153e7565b639d7b854560e01b60005b8751811015611f6557600082888381518110611ed657611ed661542c565b6020026020010151604051602001611f0d9291906001600160e01b03199290921682526001600160a01b0316602082015260400190565b6040516020818303038152906040529050611f5c83828b8581518110611f3557611f3561542c565b60200260200101518a8681518110611f4f57611f4f61542c565b6020026020010151613b8e565b50600101611eb8565b5050505050505050565b611f77613a33565b611f816000613c0d565b565b611f8b613a33565b63ffffffff82166000908152606a6020526040902054600160201b90046001600160a01b031615801590611fca575060208101516001600160a01b0316155b156120085763ffffffff82166000908152606a6020526040902080546001600160c01b031916815560010180546001600160a01b03191690556120e5565b805163ffffffff161580159061202a575060208101516001600160a01b031615155b6120805760405162461bcd60e51b815260206004820152602160248201527f4e6574776f726b52656769737472793a20696e76616c696420726567697374726044820152607960f81b6064820152608401610a71565b63ffffffff8281166000908152606a6020908152604091829020845181549286015194166001600160c01b031990921691909117600160201b6001600160a01b039485160217815590830151600190910180546001600160a01b031916919092161790555b806000015163ffffffff1681602001516001600160a01b03168363ffffffff167f4db6d44cad7c0eddcb10fcbcb14f9600520da0ea078eedc230cbed5aa0661d20846040015160405161214791906001600160a01b0391909116815260200190565b60405180910390a45050565b6033546001600160a01b031633148061218057506069546001600160a01b03161580159061218057503330145b61219c5760405162461bcd60e51b8152600401610a71906155d6565b606f805460ff1916911515919091179055606e55565b6033546001600160a01b03163314806121df57506069546001600160a01b0316158015906121df57503330145b6121fb5760405162461bcd60e51b8152600401610a71906155d6565b606b54606c5460405163031f799160e61b81526001600160a01b03918216600482015291169063c7de644090602401611251565b60008061226e8585808060200260200160405190810160405280939291908181526020018383602002808284376000920191909152506127fe92505050565b606b54606c54604051637677856760e11b81529395509193506001600160a01b039081169263ecef0ace926122ad9216908690869089906004016157e8565b600060405180830381600087803b1580156122c757600080fd5b505af11580156122db573d6000803e3d6000fd5b5050505060008282856040516020016122f693929190615836565b60408051601f198184030181528282528051602091820120606c546001600160a01b0316845290830181905263ffffffff87168383015290519092507fc65927f292bd600bd77f04e7e614c2c2997ee8a3123221acf8a033a151cb86179181900360600190a1505050505050565b6033546001600160a01b031633148061239157506069546001600160a01b03161580159061239157503330145b6123ad5760405162461bcd60e51b8152600401610a71906155d6565b606b54606c546040516334392cbd60e21b81526001600160a01b039182166004820152838216602482015291169063d0e4b2f490604401600060405180830381600087803b1580156123fe57600080fd5b505af1158015612412573d6000803e3d6000fd5b5050505050565b60606065805480602002602001604051908101604052809291908181526020016000905b828210156124a757600084815260209081902060408051608081018252918501546001600160a01b038116835263ffffffff600160a01b8204811684860152600160c01b8204811692840192909252600160e01b900416606082015282526001909201910161243d565b50505050905090565b6124b86130f9565b610d6083838361222f565b606854600090600160c01b900463ffffffff161580156124ec57506069546001600160a01b0316155b905090565b6124f9613a33565b8381805182511461251c5760405162461bcd60e51b8152600401610a71906153e7565b6000805b82518110156125585782818151811061253b5761253b61542c565b60200260200101518261254e9190615458565b9150600101612520565b508034146125785760405162461bcd60e51b8152600401610a719061546b565b8651865114801561258a575086518551145b6125a65760405162461bcd60e51b8152600401610a71906153e7565b63b85a2ce160e01b60005b8851811015610d59576000828983815181106125cf576125cf61542c565b60200260200101518984815181106125e9576125e961542c565b6020026020010151604051602001612629939291906001600160e01b03199390931683526001600160a01b03918216602084015216604082015260600190565b604051602081830303815290604052905061265183828c8581518110611f3557611f3561542c565b506001016125b1565b6000805b6065548110156126f2576126de6065828154811061267e5761267e61542c565b60009182526020918290206040805160808101825291909201546001600160a01b038116825263ffffffff600160a01b8204811694830194909452600160c01b8104841692820192909252600160e01b9091049091166060820152613800565b6126e89083615458565b915060010161265e565b5090565b83838080602002602001604051908101604052809392919081815260200183836020028082843760009201919091525050604080516020808702828101820190935286825290935086925085918291850190849080828437600092019190915250508251845114915061277d90505760405162461bcd60e51b8152600401610a71906153e7565b6000805b82518110156127b95782818151811061279c5761279c61542c565b6020026020010151826127af9190615458565b9150600101612781565b508034146127d95760405162461bcd60e51b8152600401610a719061546b565b6127e16130f9565b6040805163e4a7c60360e01b602082018190529160009101611a16565b606080600080600060658054905086511461282c5760405163c53e5b5b60e01b815260040160405180910390fd5b600086516001600160401b0381111561284757612847614914565b60405190808252806020026020018201604052801561288c57816020015b60408051808201909152600080825260208201528152602001906001900390816128655790505b50905060005b875181101561298f5760008882815181106128af576128af61542c565b6020026020010151905060006128c482610f27565b9050816001600160a01b0316856001600160a01b0316106128fb5760405163ac6bd23360e01b815260048101849052602401610a71565b606081015163ffffffff1615612985576040518060400160405280836001600160a01b0316815260200161292e83613800565b8152508484815181106129435761294361542c565b60200260200101819052508383815181106129605761296061542c565b602002602001015160200151866129779190615458565b955086806001019750508194505b5050600101612892565b50836001600160401b038111156129a8576129a8614914565b6040519080825280602002602001820160405280156129d1578160200160208202803683370190505b509550836001600160401b038111156129ec576129ec614914565b604051908082528060200260200182016040528015612a15578160200160208202803683370190505b50945060008060005b8951811015612b36576000848281518110612a3b57612a3b61542c565b6020026020010151602001511115612b2e57838181518110612a5f57612a5f61542c565b602002602001015160000151898381518110612a7d57612a7d61542c565b60200260200101906001600160a01b031690816001600160a01b03168152505085620f4240858381518110612ab457612ab461542c565b602002602001015160200151612aca91906158bb565b612ad491906158e8565b888381518110612ae657612ae661542c565b602002602001019063ffffffff16908163ffffffff1681525050878281518110612b1257612b1261542c565b602002602001015183612b25919061590a565b92506001909101905b600101612a1e565b50620f42408263ffffffff1614612b8b57612b5a63ffffffff8316620f42406155c3565b87600081518110612b6d57612b6d61542c565b60200260200101818151612b81919061590a565b63ffffffff169052505b505050505050915091565b6033546001600160a01b0316331480612bc357506069546001600160a01b031615801590612bc357503330145b612bdf5760405162461bcd60e51b8152600401610a71906155d6565b606b80546001600160a01b0319166001600160a01b03848116918217909255604051634463315560e11b815291831660048301526000916388c662aa90602401602060405180830381865afa158015612c3c573d6000803e3d6000fd5b505050506040513d601f19601f82011682018060405250810190612c609190615737565b90506001600160a01b038116612cc65760405162461bcd60e51b815260206004820152602560248201527f4e6574776f726b52656769737472793a2021657869737473207c7c20696d6d756044820152647461626c6560d81b6064820152608401610a71565b606b5460405163708728eb60e11b81526001600160a01b038481166004830152600092169063e10e51d690602401602060405180830381865afa158015612d11573d6000803e3d6000fd5b505050506040513d601f19601f82011682018060405250810190612d359190615737565b90506001600160a01b0381163014801590612d5957506001600160a01b0382163014155b15612d7757604051633170a38d60e01b815260040160405180910390fd5b606c80546001600160a01b0319166001600160a01b0385811691821790925560408051928716835260208301919091527fc8d09d7710e05a8ef2f307dcf13f859ce7e661b3eee1a04a57c4d481758a6c1d910160405180910390a1306001600160a01b0382160361127f5761127f6121b2565b612df26124c3565b15612e9457606d546001600160a01b031615801590612e785750606d5460405163f3ae241560e01b81523060048201526001600160a01b039091169063f3ae241590602401602060405180830381865afa158015612e54573d6000803e3d6000fd5b505050506040513d601f19601f82011682018060405250810190612e7891906154b3565b612e945760405162461bcd60e51b8152600401610a71906154d0565b612e9e8282613c5f565b612ea66124c3565b8015612eb45750606f5460ff165b1561159657604080516001808252818301909252600091602080830190803683370190505090508281600081518110612eef57612eef61542c565b6001600160a01b039290921660209283029190910190910152604080516001808252818301909252600091816020016020820280368337019050509050606e5481600081518110612f4257612f4261542c565b6020908102919091010152606d5460405163262949f360e21b81526001600160a01b03909116906398a527cc90612f7f9085908590600401615519565b600060405180830381600087803b158015612f9957600080fd5b505af1158015611f65573d6000803e3d6000fd5b6033546001600160a01b0316331480612fda57506069546001600160a01b031615801590612fda57503330145b612ff65760405162461bcd60e51b8152600401610a71906155d6565b60005b8251811015610d605761303e8382815181106130175761301761542c565b60200260200101518383815181106130315761303161542c565b6020026020010151612dea565b600101612ff9565b6033546001600160a01b031633148061307357506069546001600160a01b03161580159061307357503330145b61308f5760405162461bcd60e51b8152600401610a71906155d6565b60005b835181101561127f576130f18482815181106130b0576130b061542c565b60200260200101518483815181106130ca576130ca61542c565b60200260200101518484815181106130e4576130e461542c565b6020026020010151610ba3565b600101613092565b611f81613cb2565b60008061310d83610f27565b905061311881613800565b9392505050565b613127613a33565b6001600160a01b03811661318c5760405162461bcd60e51b815260206004820152602660248201527f4f776e61626c653a206e6577206f776e657220697320746865207a65726f206160448201526564647265737360d01b6064820152608401610a71565b61319581613c0d565b50565b6131a0613a33565b60688054640100000000600160e01b031916600160201b6001600160a01b0386811691820263ffffffff60c01b191692909217600160c01b63ffffffff871690810291909117909355606980546001600160a01b0319169285169283179055604080519182526020820193909352918201527f21ae9d1c05d009b6af15c73821748e22e498496e2b29672090c67ae892322d6f9060600160405180910390a1505050565b6068546060908490849063ffffffff808316600160c01b9092041614801561327957506069546001600160a01b038381169116145b801561329f5750606854600160201b90046001600160a01b0316336001600160a01b0316145b6133115760405162461bcd60e51b815260206004820152603760248201527f4e6574776f726b52656769737472793a202175706461746572446f6d61696e2060448201527f7c7c202175706461746572207c7c2021436f6e6e6578740000000000000000006064820152608401610a71565b600084806020019051810190613327919061594b565b90506060637c6ce76b60e11b6001600160e01b03198316016133d55760008060008880602001905181019061335c9190615966565b6040516001600160a01b038416602482015263ffffffff8084166044830152821660648201529296509094509250630393189560e11b91506084015b60408051601f198184030181529190526020810180516001600160e01b03166001600160e01b031990931692909217909152935061372e92505050565b6337e738f160e01b6001600160e01b031983160161346a576000808780602001905181019061340491906159c2565b6040516001600160a01b038316602482015263ffffffff8216604482015291945092508591506064015b60408051601f198184030181529190526020810180516001600160e01b03166001600160e01b031990931692909217909152925061372e915050565b631b97980360e01b6001600160e01b03198316016134b85760008060008880602001905181019061349b9190615ac9565b935093509350508483838360405160240161339893929190614b88565b6330d6cc3f60e01b6001600160e01b031983160161350057600080878060200190518101906134e79190615b55565b925092505083828260405160240161342e929190615016565b631b5839fd60e01b6001600160e01b031983160161354a57506040805160048152602481019091526020810180516001600160e01b03166001600160e01b0319841617905261372e565b63723ea86f60e01b6001600160e01b031983160161359257600080878060200190518101906135799190615bbe565b925092505083828260405160240161342e929190615c14565b632fea4ffd60e11b6001600160e01b03198316016135c157600080878060200190518101906135799190615bbe565b6347a5d31f60e01b6001600160e01b031983160161361a57600080878060200190518101906135f09190615c3c565b6040516001600160a01b03808416602483015282166044820152919450925085915060640161342e565b6362847abb60e01b6001600160e01b031983160161369e576000868060200190518101906136489190615c7b565b6040516001600160a01b038216602482015290925084915060440160408051601f198184030181529190526020810180516001600160e01b03166001600160e01b031990931692909217909152915061372e9050565b631fc7f1d160e21b6001600160e01b03198316016136e857506040805160048152602481019091526020810180516001600160e01b03166001600160e01b0319841617905261372e565b63c8e4ad1d60e01b6001600160e01b031983160161372e57506040805160048152602481019091526020810180516001600160e01b03166001600160e01b031984161790525b600080306001600160a01b0316836040516137499190615ca7565b6000604051808303816000865af19150503d8060008114613786576040519150601f19603f3d011682016040523d82523d6000602084013e61378b565b606091505b5091509150836001600160e01b0319168963ffffffff168e7f1291b044e5e68ff17a19703d0775336ad7ec700ef5679fbd11bd0084af55baf3858e6040516137e892919091151582526001600160a01b0316602082015260400190565b60405180910390a49c9b505050505050505050505050565b600061382161381e613819846020015163ffffffff1690565b613e4e565b90565b92915050565b61382f613a33565b8383808060200260200160405190810160405280939291908181526020018383602002808284376000920191909152505060408051602080870282810182019093528682529093508692508591829185019084908082843760009201919091525050825184511491506138b690505760405162461bcd60e51b8152600401610a71906153e7565b6000805b82518110156138f2578281815181106138d5576138d561542c565b6020026020010151826138e89190615458565b91506001016138ba565b508034146139125760405162461bcd60e51b8152600401610a719061546b565b61397f8b8b8080602002602001604051908101604052809392919081815260200183836020028082843760009201919091525050604080516020808f0282810182019093528e82529093508e92508d918291850190849080828437600092019190915250612fad92505050565b60405163cf2933c160e01b906000906139a49083908f908f908f908f90602001615cc3565b6040516020818303038152906040529050613a2482828b8b8080602002602001604051908101604052809392919081815260200183836020028082843760009201919091525050604080516020808f0282810182019093528e82529093508e92508d918291850190849080828437600092019190915250613a8d92505050565b50505050505050505050505050565b6033546001600160a01b03163314611f815760405162461bcd60e51b815260206004820181905260248201527f4f776e61626c653a2063616c6c6572206973206e6f7420746865206f776e65726044820152606401610a71565b60005b825181101561241257613aca8585858481518110613ab057613ab061542c565b6020026020010151858581518110611f4f57611f4f61542c565b600101613a90565b6033546001600160a01b0316331480613aff57506069546001600160a01b031615801590613aff57503330145b613b1b5760405162461bcd60e51b8152600401610a71906155d6565b610d60838383613ea4565b600054610100900460ff16613b4d5760405162461bcd60e51b8152600401610a7190615d05565b613b556140c3565b613b6286868686866140f2565b6001600160a01b038116613b7d57613b78611f6f565b613b86565b613b868161311f565b505050505050565b6000613b9b838584614196565b63ffffffff84166000818152606a6020908152604091829020549151600160201b9092046001600160a01b031682529293506001600160e01b031988169284917f20ffb62aa5e31e4b559317e8af8f877e19a9126fd6ff1fee93bcf06e59d385cc910160405180910390a45050505050565b603380546001600160a01b038381166001600160a01b0319831681179093556040519116919082907f8be0079c531659141344cd1fd0a4f28419497f9722a3daafe3b4186f6b6457e090600090a35050565b6033546001600160a01b0316331480613c8c57506069546001600160a01b031615801590613c8c57503330145b613ca85760405162461bcd60e51b8152600401610a71906155d6565b61159682826142f3565b4260005b606554811015613df257600060658281548110613cd557613cd561542c565b600091825260208220018054909250600160e01b900463ffffffff1615613d68578154600090600160a01b900463ffffffff16613d20578254600160c01b900463ffffffff16613d2a565b60685463ffffffff165b90506000613d388287615d50565b845463ffffffff9182169250606491613d5991600160e01b900416836158bb565b613d6391906158e8565b925050505b815481908390601490613d89908490600160a01b900463ffffffff1661590a565b82546101009290920a63ffffffff818102199093169183160217909155835460405191841682526001600160a01b031691507f780f517310a8481b4817e26f9d1a336e49e7522775e8e6b4fb22c73908be6ce69060200160405180910390a25050600101613cb6565b6040805163ffffffff84168152602081018390527f896e364af402e453909cff1f8bb117d283d37a717e7cf4a5c5b88be2197fa09f910160405180910390a1506068805463ffffffff191663ffffffff92909216919091179055565b6000817812725dd1d243aba0e75fe645cc4873f9e65afe688c928e1f21811115613e8e5760405163edc236ad60e01b815260048101849052602401610a71565b61311861381e670de0b6b3a76400008302614417565b6001600160a01b038316613ed657604051633899e57b60e01b81526001600160a01b0384166004820152602401610a71565b6001600160a01b03831660009081526067602052604090205415613f1857604051636822fa9960e11b81526001600160a01b0384166004820152602401610a71565b60648263ffffffff161115613f575760405163424f515b60e11b81526001600160a01b038416600482015263ffffffff83166024820152604401610a71565b428163ffffffff161115613f955760405163faac476360e01b81526001600160a01b038416600482015263ffffffff82166024820152604401610a71565b604080516080810182526001600160a01b038086168083526000602080850182815263ffffffff8881168789019081528a821660608901908152606580546001818101835591885299517f8ff97419363ffd7000167f130ef7168fbea05faf9251824ca5043f113cc6a7c7909a0180549551935192518516600160e01b026001600160e01b03938616600160c01b02939093166001600160c01b0394909516600160a01b026001600160c01b03199096169a9099169990991793909317161717909355606680549094019384905581815260679092528382209290925591517f13ca1f9a974ca1b85618843282dc1981c63a62c389aa5cf6e4a31937f8434e73906140b5908590879063ffffffff92831681529116602082015260400190565b60405180910390a250505050565b600054610100900460ff166140ea5760405162461bcd60e51b8152600401610a7190615d05565b611f8161458e565b600054610100900460ff166141195760405162461bcd60e51b8152600401610a7190615d05565b6068805463ffffffff909516600160c01b0263ffffffff60c01b196001600160a01b03978816600160201b0216640100000000600160e01b03199096169590951794909417909355606980549285166001600160a01b0319938416179055606b8054918516918316919091179055606c8054929093169116179055565b63ffffffff8084166000908152606a60205260408120549091859116158015906141e4575063ffffffff81166000908152606a6020526040902054600160201b90046001600160a01b031615155b61423c5760405162461bcd60e51b815260206004820152602360248201527f4e6574776f726b52656769737472793a2021737570706f72746564206e6574776044820152626f726b60e81b6064820152608401610a71565b60685463ffffffff8087166000908152606a6020526040808220805460019091015491516345560b5d60e11b81526001600160a01b03600160201b96879004811696638aac16ba968b966142a796918616959290920483169391921690829081908e90600401615d6d565b60206040518083038185885af11580156142c5573d6000803e3d6000fd5b50505050506040513d601f19601f820116820180604052508101906142ea9190615dc8565b95945050505050565b6001600160a01b038216600090815260676020526040812054908190036143385760405163c6040d1d60e01b81526001600160a01b0384166004820152602401610a71565b60648263ffffffff1611156143775760405163424f515b60e11b81526001600160a01b038416600482015263ffffffff83166024820152604401610a71565b6001600160a01b03831660009081526067602052604081205460659061439f906001906155c3565b815481106143af576143af61542c565b60009182526020918290200180546001600160e01b0316600160e01b63ffffffff87169081029190911782556040519081529092506001600160a01b038616917f597a24f4063494925c9b40150fd455db446fcc9046ddb9a1ded3ee8fad6b988491016140b5565b60008160000361442957506000919050565b50600181600160801b81106144435760409190911b9060801c5b68010000000000000000811061445e5760209190911b9060401c5b600160201b81106144745760109190911b9060201c5b6201000081106144895760089190911b9060101c5b610100811061449d5760049190911b9060081c5b601081106144b05760029190911b9060041c5b600481106144c057600182901b91505b60018284816144d1576144d16158d2565b048301901c915060018284816144e9576144e96158d2565b048301901c91506001828481614501576145016158d2565b048301901c91506001828481614519576145196158d2565b048301901c91506001828481614531576145316158d2565b048301901c91506001828481614549576145496158d2565b048301901c91506001828481614561576145616158d2565b048301901c91506000828481614579576145796158d2565b049050808310614587578092505b5050919050565b600054610100900460ff166145b55760405162461bcd60e51b8152600401610a7190615d05565b611f8133613c0d565b6001600160a01b038116811461319557600080fd5b63ffffffff8116811461319557600080fd5b60008083601f8401126145f757600080fd5b5081356001600160401b0381111561460e57600080fd5b6020830191508360208260051b850101111561462957600080fd5b9250929050565b6000806000806000806080878903121561464957600080fd5b8635614654816145be565b95506020870135614664816145d3565b945060408701356001600160401b038082111561468057600080fd5b61468c8a838b016145e5565b909650945060608901359150808211156146a557600080fd5b506146b289828a016145e5565b979a9699509497509295939492505050565b6000806000606084860312156146d957600080fd5b83356146e4816145be565b925060208401356146f4816145d3565b91506040840135614704816145d3565b809150509250925092565b6000806000806040858703121561472557600080fd5b84356001600160401b038082111561473c57600080fd5b614748888389016145e5565b9096509450602087013591508082111561476157600080fd5b5061476e878288016145e5565b95989497509550505050565b60006020828403121561478c57600080fd5b8135613118816145be565b80516001600160a01b0316825260208082015163ffffffff9081169184019190915260408083015182169084015260609182015116910152565b608081016138218284614797565b600080600080600080600060a0888a0312156147fa57600080fd5b8735614805816145be565b96506020880135614815816145d3565b95506040880135614825816145d3565b945060608801356001600160401b038082111561484157600080fd5b61484d8b838c016145e5565b909650945060808a013591508082111561486657600080fd5b506148738a828b016145e5565b989b979a50959850939692959293505050565b60008060008060008060006080888a0312156148a157600080fd5b87356001600160401b03808211156148b857600080fd5b6148c48b838c016145e5565b909950975060208a013591506148d9826145d3565b909550604089013590808211156148ef57600080fd5b6148fb8b838c016145e5565b909650945060608a013591508082111561486657600080fd5b634e487b7160e01b600052604160045260246000fd5b604051601f8201601f191681016001600160401b038111828210171561495257614952614914565b604052919050565b600082601f83011261496b57600080fd5b81356001600160401b0381111561498457614984614914565b614997601f8201601f191660200161492a565b8181528460208386010111156149ac57600080fd5b816020850160208301376000918101602001919091529392505050565b6000602082840312156149db57600080fd5b81356001600160401b038111156149f157600080fd5b6149fd8482850161495a565b949350505050565b60008060008060008060008060008060a08b8d031215614a2457600080fd5b8a356001600160401b0380821115614a3b57600080fd5b614a478e838f016145e5565b909c509a5060208d0135915080821115614a6057600080fd5b614a6c8e838f016145e5565b909a50985060408d0135915080821115614a8557600080fd5b614a918e838f016145e5565b909850965060608d0135915080821115614aaa57600080fd5b614ab68e838f016145e5565b909650945060808d0135915080821115614acf57600080fd5b50614adc8d828e016145e5565b915080935050809150509295989b9194979a5092959850565b600060208284031215614b0757600080fd5b5035919050565b600081518084526020808501945080840160005b83811015614b475781516001600160a01b031687529582019590820190600101614b22565b509495945050505050565b600081518084526020808501945080840160005b83811015614b4757815163ffffffff1687529582019590820190600101614b66565b606081526000614b9b6060830186614b0e565b8281036020840152614bad8186614b52565b90508281036040840152614bc18185614b52565b9695505050505050565b60006001600160401b03821115614be457614be4614914565b5060051b60200190565b600082601f830112614bff57600080fd5b81356020614c14614c0f83614bcb565b61492a565b82815260059290921b84018101918181019086841115614c3357600080fd5b8286015b84811015614c57578035614c4a816145d3565b8352918301918301614c37565b509695505050505050565b600082601f830112614c7357600080fd5b81356020614c83614c0f83614bcb565b82815260059290921b84018101918181019086841115614ca257600080fd5b8286015b84811015614c57578035614cb9816145be565b8352918301918301614ca6565b600082601f830112614cd757600080fd5b81356020614ce7614c0f83614bcb565b82815260059290921b84018101918181019086841115614d0657600080fd5b8286015b84811015614c575780358352918301918301614d0a565b600080600060608486031215614d3657600080fd5b83356001600160401b0380821115614d4d57600080fd5b614d5987838801614bee565b94506020860135915080821115614d6f57600080fd5b614d7b87838801614c62565b93506040860135915080821115614d9157600080fd5b50614d9e86828701614cc6565b9150509250925092565b6000808284036080811215614dbc57600080fd5b8335614dc7816145d3565b92506060601f1982011215614ddb57600080fd5b50604051606081018181106001600160401b0382111715614dfe57614dfe614914565b6040526020840135614e0f816145d3565b81526040840135614e1f816145be565b60208201526060840135614e32816145be565b6040820152919491935090915050565b801515811461319557600080fd5b60008060408385031215614e6357600080fd5b823591506020830135614e7581614e42565b809150509250929050565b600080600060408486031215614e9557600080fd5b83356001600160401b03811115614eab57600080fd5b614eb7868287016145e5565b9094509250506020840135614704816145d3565b600060208284031215614edd57600080fd5b8135613118816145d3565b6020808252825182820181905260009190848201906040850190845b81811015614f2a57614f17838551614797565b9284019260809290920191600101614f04565b50909695505050505050565b60008060008060808587031215614f4c57600080fd5b84356001600160401b0380821115614f6357600080fd5b614f6f88838901614bee565b95506020870135915080821115614f8557600080fd5b614f9188838901614c62565b94506040870135915080821115614fa757600080fd5b614fb388838901614c62565b93506060870135915080821115614fc957600080fd5b50614fd687828801614cc6565b91505092959194509250565b600060208284031215614ff457600080fd5b81356001600160401b0381111561500a57600080fd5b6149fd84828501614c62565b6040815260006150296040830185614b0e565b82810360208401526142ea8185614b52565b6000806040838503121561504e57600080fd5b8235615059816145be565b91506020830135614e75816145be565b6000806040838503121561507c57600080fd5b8235615087816145be565b91506020830135614e75816145d3565b600080604083850312156150aa57600080fd5b82356001600160401b03808211156150c157600080fd5b6150cd86838701614c62565b935060208501359150808211156150e357600080fd5b506150f085828601614bee565b9150509250929050565b60008060006060848603121561510f57600080fd5b83356001600160401b038082111561512657600080fd5b61513287838801614c62565b9450602086013591508082111561514857600080fd5b61515487838801614bee565b9350604086013591508082111561516a57600080fd5b50614d9e86828701614bee565b60008060006060848603121561518c57600080fd5b8335615197816145be565b925060208401356151a7816145d3565b91506040840135614704816145be565b60008060008060008060c087890312156151d057600080fd5b863595506020870135945060408701356151e9816145be565b935060608701356151f9816145be565b92506080870135615209816145d3565b915060a08701356001600160401b0381111561522457600080fd5b61523089828a0161495a565b9150509295509295509295565b60005b83811015615258578181015183820152602001615240565b50506000910152565b6000815180845261527981602086016020860161523d565b601f01601f19169290920160200192915050565b6020815260006131186020830184615261565b6000608082840312156152b257600080fd5b604051608081018181106001600160401b03821117156152d4576152d4614914565b60405282356152e2816145be565b815260208301356152f2816145d3565b60208201526040830135615305816145d3565b60408201526060830135615318816145d3565b60608201529392505050565b6000806000806000806000806080898b03121561534057600080fd5b88356001600160401b038082111561535757600080fd5b6153638c838d016145e5565b909a50985060208b013591508082111561537c57600080fd5b6153888c838d016145e5565b909850965060408b01359150808211156153a157600080fd5b6153ad8c838d016145e5565b909650945060608b01359150808211156153c657600080fd5b506153d38b828c016145e5565b999c989b5096995094979396929594505050565b60208082526025908201527f4e6574776f726b52656769737472793a20706172616d732073697a65206d69736040820152640dac2e8c6d60db1b606082015260800190565b634e487b7160e01b600052603260045260246000fd5b634e487b7160e01b600052601160045260246000fd5b8082018082111561382157613821615442565b60208082526028908201527f4e6574776f726b52656769737472793a206d73672e76616c7565203c2072656c604082015267617965724665657360c01b606082015260800190565b6000602082840312156154c557600080fd5b815161311881614e42565b60208082526029908201527f4e6574776f726b52656769737472795368616d616e3a2021696e6974207c7c20604082015268109036b0b730b3b2b960b91b606082015260800190565b60408152600061552c6040830185614b0e565b82810360208481019190915284518083528582019282019060005b8181101561556357845183529383019391830191600101615547565b5090979650505050505050565b63ffffffff60e01b851681526080602082015260006155926080830186614b0e565b82810360408401526155a48186614b52565b905082810360608401526155b88185614b52565b979650505050505050565b8181038181111561382157613821615442565b60208082526023908201527f4e6574776f726b52656769737472793a20216f776e6572207c7c2021757064616040820152623a32b960e91b606082015260800190565b8183526000602080850194508260005b85811015614b4757813561563c816145be565b6001600160a01b031687529582019590820190600101615629565b63ffffffff60e01b8516815260606020820152600061567a606083018587615619565b905063ffffffff8316604083015295945050505050565b600080600080600080600080610100898b0312156156ae57600080fd5b88516156b9816145be565b60208a01519098506156ca816145d3565b60408a01519097506156db816145be565b60608a01519096506156ec816145be565b60808a01519095506156fd816145be565b60a08a015190945061570e816145be565b60c08a015160e08b0151919450925061572681614e42565b809150509295985092959890939650565b60006020828403121561574957600080fd5b8151613118816145be565b8183526000602080850194508260005b85811015614b47578135615777816145d3565b63ffffffff1687529582019590820190600101615764565b63ffffffff60e01b881681526080602082015260006157b260808301888a615619565b82810360408401526157c5818789615754565b905082810360608401526157da818587615754565b9a9950505050505050505050565b6001600160a01b038516815260806020820181905260009061580c90830186614b0e565b828103604084015261581e8186614b52565b91505063ffffffff8316606083015295945050505050565b835160009082906020808801845b838110156158695781516001600160a01b031685529382019390820190600101615844565b5050865181880193925060005b8181101561589857845163ffffffff1684529382019392820192600101615876565b50505060e09490941b6001600160e01b0319168452505060049091019392505050565b808202811582820484141761382157613821615442565b634e487b7160e01b600052601260045260246000fd5b60008261590557634e487b7160e01b600052601260045260246000fd5b500490565b63ffffffff81811683821601908082111561592757615927615442565b5092915050565b80516001600160e01b03198116811461594657600080fd5b919050565b60006020828403121561595d57600080fd5b6131188261592e565b6000806000806080858703121561597c57600080fd5b6159858561592e565b93506020850151615995816145be565b60408601519093506159a6816145d3565b60608601519092506159b7816145d3565b939692955090935050565b6000806000606084860312156159d757600080fd5b6159e08461592e565b925060208401516159f0816145be565b6040850151909250614704816145d3565b600082601f830112615a1257600080fd5b81516020615a22614c0f83614bcb565b82815260059290921b84018101918181019086841115615a4157600080fd5b8286015b84811015614c57578051615a58816145be565b8352918301918301615a45565b600082601f830112615a7657600080fd5b81516020615a86614c0f83614bcb565b82815260059290921b84018101918181019086841115615aa557600080fd5b8286015b84811015614c57578051615abc816145d3565b8352918301918301615aa9565b60008060008060808587031215615adf57600080fd5b615ae88561592e565b935060208501516001600160401b0380821115615b0457600080fd5b615b1088838901615a01565b94506040870151915080821115615b2657600080fd5b615b3288838901615a65565b93506060870151915080821115615b4857600080fd5b50614fd687828801615a65565b600080600060608486031215615b6a57600080fd5b615b738461592e565b925060208401516001600160401b0380821115615b8f57600080fd5b615b9b87838801615a01565b93506040860151915080821115615bb157600080fd5b50614d9e86828701615a65565b600080600060608486031215615bd357600080fd5b615bdc8461592e565b925060208401516001600160401b03811115615bf757600080fd5b615c0386828701615a01565b9250506040840151614704816145d3565b604081526000615c276040830185614b0e565b905063ffffffff831660208301529392505050565b600080600060608486031215615c5157600080fd5b615c5a8461592e565b92506020840151615c6a816145be565b6040850151909250614704816145be565b60008060408385031215615c8e57600080fd5b615c978361592e565b91506020830151614e75816145be565b60008251615cb981846020870161523d565b9190910192915050565b63ffffffff60e01b86168152606060208201526000615ce6606083018688615619565b8281036040840152615cf9818587615754565b98975050505050505050565b6020808252602b908201527f496e697469616c697a61626c653a20636f6e7472616374206973206e6f74206960408201526a6e697469616c697a696e6760a81b606082015260800190565b63ffffffff82811682821603908082111561592757615927615442565b63ffffffff881681526001600160a01b0387811660208301528681166040830152851660608201526080810184905260a0810183905260e060c08201819052600090615dbb90830184615261565b9998505050505050505050565b600060208284031215615dda57600080fd5b505191905056fea164736f6c6343000813000a",
  "devdoc": {
    "events": {
      "Initialized(uint8)": {
        "details": "Triggered when the contract has been initialized or reinitialized."
      }
    },
    "kind": "dev",
    "methods": {
      "acceptSplitControl()": {
        "details": "should accept control of the current 0xsplit in the state"
      },
      "batchNewMember(address[],uint32[],uint32[])": {
        "details": "Make sure array parameters are of the same length Activity multiplier could be set within 0-100 (%) range (i.e. 50 -> part-time 100 -> full-time) but it's up to the implementer to establish the multiplier boundaries",
        "params": {
          "_activityMultipliers": "Activity multipliers for each new member",
          "_members": "A list of member addresses to be added to the registry",
          "_startDates": "A list of dates when each member got active"
        }
      },
      "batchUpdateMember(address[],uint32[])": {
        "details": "Make sure members are in the registry Activity multiplier could be set within 0-100 (%) range (i.e. 50 -> part-time 100 -> full-time) but it's up to the implementer to establish the multiplier boundaries",
        "params": {
          "_activityMultipliers": "New activity multipliers for each member",
          "_members": "A list of existing members"
        }
      },
      "owner()": {
        "details": "Returns the address of the current owner."
      },
      "renounceOwnership()": {
        "details": "Leaves the contract without owner. It will not be possible to call `onlyOwner` functions anymore. Can only be called by the current owner. NOTE: Renouncing ownership will leave the contract without an owner, thereby removing any functionality that is only available to the owner."
      },
      "setNewMember(address,uint32,uint32)": {
        "details": "Activity multiplier could be set within 0-100 (%) range (i.e. 50 -> part-time 100 -> full-time) but it's up to the implementer to establish the multiplier boundaries",
        "params": {
          "_activityMultiplier": "The member activity multiplier",
          "_member": "The addres of the new member to be added to the registry",
          "_startDate": "The date member when the member got active"
        }
      },
      "setSplit(address,address)": {
        "details": "Should make sure the 0xSplit contract exists and isn't immutable (no owner) Also make sure controller has been already handed over to the manager or waiting to be accepted. If manager is already a potential controller, call acceptSplitControl()",
        "params": {
          "_split": "The address of the 0xSplit contract",
          "_splitMain": "The address of the 0xSplitMain"
        }
      },
      "transferOwnership(address)": {
        "details": "Transfers ownership of the contract to a new account (`newOwner`). Can only be called by the current owner."
      },
      "updateMember(address,uint32)": {
        "details": "Make sure member is in the registry Activity multiplier could be set within 0-100 (%) range (i.e. 50 -> part-time 100 -> full-time) but it's up to the implementer to establish the multiplier boundaries",
        "params": {
          "_activityMultiplier": "The member new activity multiplier",
          "_member": "The addres of the existing member"
        }
      },
      "updateSecondsActive()": {
        "details": "It should manage a lastActivityUpdate state variable to update activity based on last update epoch however for new members it should update seconds based each member startDate"
      }
    },
    "version": 1
  },
  "userdoc": {
    "errors": {
      "PRBMath_UD60x18_Sqrt_Overflow(uint256)": [
        {
          "notice": "Thrown when calculating the square root overflows UD60x18."
        }
      ]
    },
    "kind": "user",
    "methods": {
      "PERCENTAGE_SCALE()": {
        "notice": "constant to scale uints into percentages (1e6 == 100%)"
      },
      "acceptSplitControl()": {
        "notice": "Accepts control of the current 0xSplit contract"
      },
      "batchNewMember(address[],uint32[],uint32[])": {
        "notice": "Adds a new set of members to the registry"
      },
      "batchUpdateMember(address[],uint32[])": {
        "notice": "Updates the activity multiplier of a set of existing members"
      },
      "setNewMember(address,uint32,uint32)": {
        "notice": "Adds a new member to the registry"
      },
      "setSplit(address,address)": {
        "notice": "Updates the addresses for the 0xSplitMain proxy and 0xSplit contract"
      },
      "updateMember(address,uint32)": {
        "notice": "Updates the activity multiplier of an existing member"
      },
      "updateSecondsActive()": {
        "notice": "Updates seconds active for each member since the last update epoch"
      },
      "xReceive(bytes32,uint256,address,address,uint32,bytes)": {
        "notice": "The receiver function as required by the IXReceiver interface."
      }
    },
    "version": 1
  },
  "storageLayout": {
    "storage": [
      {
        "astId": 829,
        "contract": "contracts/NetworkRegistryShaman.sol:NetworkRegistryShaman",
        "label": "_initialized",
        "offset": 0,
        "slot": "0",
        "type": "t_uint8"
      },
      {
        "astId": 832,
        "contract": "contracts/NetworkRegistryShaman.sol:NetworkRegistryShaman",
        "label": "_initializing",
        "offset": 1,
        "slot": "0",
        "type": "t_bool"
      },
      {
        "astId": 1316,
        "contract": "contracts/NetworkRegistryShaman.sol:NetworkRegistryShaman",
        "label": "__gap",
        "offset": 0,
        "slot": "1",
        "type": "t_array(t_uint256)50_storage"
      },
      {
        "astId": 701,
        "contract": "contracts/NetworkRegistryShaman.sol:NetworkRegistryShaman",
        "label": "_owner",
        "offset": 0,
        "slot": "51",
        "type": "t_address"
      },
      {
        "astId": 821,
        "contract": "contracts/NetworkRegistryShaman.sol:NetworkRegistryShaman",
        "label": "__gap",
        "offset": 0,
        "slot": "52",
        "type": "t_array(t_uint256)49_storage"
      },
      {
        "astId": 11532,
        "contract": "contracts/NetworkRegistryShaman.sol:NetworkRegistryShaman",
        "label": "members",
        "offset": 0,
        "slot": "101",
        "type": "t_array(t_struct(Member)11528_storage)dyn_storage"
      },
      {
        "astId": 11535,
        "contract": "contracts/NetworkRegistryShaman.sol:NetworkRegistryShaman",
        "label": "count",
        "offset": 0,
        "slot": "102",
        "type": "t_uint256"
      },
      {
        "astId": 11539,
        "contract": "contracts/NetworkRegistryShaman.sol:NetworkRegistryShaman",
        "label": "memberIdxs",
        "offset": 0,
        "slot": "103",
        "type": "t_mapping(t_address,t_uint256)"
      },
      {
        "astId": 11541,
        "contract": "contracts/NetworkRegistryShaman.sol:NetworkRegistryShaman",
        "label": "lastActivityUpdate",
        "offset": 0,
        "slot": "104",
        "type": "t_uint32"
      },
      {
        "astId": 8507,
        "contract": "contracts/NetworkRegistryShaman.sol:NetworkRegistryShaman",
        "label": "connext",
        "offset": 4,
        "slot": "104",
        "type": "t_contract(IConnext)285"
      },
      {
        "astId": 8509,
        "contract": "contracts/NetworkRegistryShaman.sol:NetworkRegistryShaman",
        "label": "updaterDomain",
        "offset": 24,
        "slot": "104",
        "type": "t_uint32"
      },
      {
        "astId": 8511,
        "contract": "contracts/NetworkRegistryShaman.sol:NetworkRegistryShaman",
        "label": "updater",
        "offset": 0,
        "slot": "105",
        "type": "t_address"
      },
      {
        "astId": 8516,
        "contract": "contracts/NetworkRegistryShaman.sol:NetworkRegistryShaman",
        "label": "networkRegistry",
        "offset": 0,
        "slot": "106",
        "type": "t_mapping(t_uint32,t_struct(Registry)11026_storage)"
      },
      {
        "astId": 8519,
        "contract": "contracts/NetworkRegistryShaman.sol:NetworkRegistryShaman",
        "label": "splitMain",
        "offset": 0,
        "slot": "107",
        "type": "t_contract(ISplitMain)11437"
      },
      {
        "astId": 8521,
        "contract": "contracts/NetworkRegistryShaman.sol:NetworkRegistryShaman",
        "label": "split",
        "offset": 0,
        "slot": "108",
        "type": "t_address"
      },
      {
        "astId": 10598,
        "contract": "contracts/NetworkRegistryShaman.sol:NetworkRegistryShaman",
        "label": "baal",
        "offset": 0,
        "slot": "109",
        "type": "t_contract(IBaal)690"
      },
      {
        "astId": 10600,
        "contract": "contracts/NetworkRegistryShaman.sol:NetworkRegistryShaman",
        "label": "sharesToMint",
        "offset": 0,
        "slot": "110",
        "type": "t_uint256"
      },
      {
        "astId": 10602,
        "contract": "contracts/NetworkRegistryShaman.sol:NetworkRegistryShaman",
        "label": "burnShares",
        "offset": 0,
        "slot": "111",
        "type": "t_bool"
      }
    ],
    "types": {
      "t_address": {
        "encoding": "inplace",
        "label": "address",
        "numberOfBytes": "20"
      },
      "t_array(t_struct(Member)11528_storage)dyn_storage": {
        "base": "t_struct(Member)11528_storage",
        "encoding": "dynamic_array",
        "label": "struct MemberRegistry.Member[]",
        "numberOfBytes": "32"
      },
      "t_array(t_uint256)49_storage": {
        "base": "t_uint256",
        "encoding": "inplace",
        "label": "uint256[49]",
        "numberOfBytes": "1568"
      },
      "t_array(t_uint256)50_storage": {
        "base": "t_uint256",
        "encoding": "inplace",
        "label": "uint256[50]",
        "numberOfBytes": "1600"
      },
      "t_bool": {
        "encoding": "inplace",
        "label": "bool",
        "numberOfBytes": "1"
      },
      "t_contract(IBaal)690": {
        "encoding": "inplace",
        "label": "contract IBaal",
        "numberOfBytes": "20"
      },
      "t_contract(IConnext)285": {
        "encoding": "inplace",
        "label": "contract IConnext",
        "numberOfBytes": "20"
      },
      "t_contract(ISplitMain)11437": {
        "encoding": "inplace",
        "label": "contract ISplitMain",
        "numberOfBytes": "20"
      },
      "t_mapping(t_address,t_uint256)": {
        "encoding": "mapping",
        "key": "t_address",
        "label": "mapping(address => uint256)",
        "numberOfBytes": "32",
        "value": "t_uint256"
      },
      "t_mapping(t_uint32,t_struct(Registry)11026_storage)": {
        "encoding": "mapping",
        "key": "t_uint32",
        "label": "mapping(uint32 => struct INetworkMemberRegistry.Registry)",
        "numberOfBytes": "32",
        "value": "t_struct(Registry)11026_storage"
      },
      "t_struct(Member)11528_storage": {
        "encoding": "inplace",
        "label": "struct MemberRegistry.Member",
        "members": [
          {
            "astId": 11521,
            "contract": "contracts/NetworkRegistryShaman.sol:NetworkRegistryShaman",
            "label": "account",
            "offset": 0,
            "slot": "0",
            "type": "t_address"
          },
          {
            "astId": 11523,
            "contract": "contracts/NetworkRegistryShaman.sol:NetworkRegistryShaman",
            "label": "secondsActive",
            "offset": 20,
            "slot": "0",
            "type": "t_uint32"
          },
          {
            "astId": 11525,
            "contract": "contracts/NetworkRegistryShaman.sol:NetworkRegistryShaman",
            "label": "startDate",
            "offset": 24,
            "slot": "0",
            "type": "t_uint32"
          },
          {
            "astId": 11527,
            "contract": "contracts/NetworkRegistryShaman.sol:NetworkRegistryShaman",
            "label": "activityMultiplier",
            "offset": 28,
            "slot": "0",
            "type": "t_uint32"
          }
        ],
        "numberOfBytes": "32"
      },
      "t_struct(Registry)11026_storage": {
        "encoding": "inplace",
        "label": "struct INetworkMemberRegistry.Registry",
        "members": [
          {
            "astId": 11021,
            "contract": "contracts/NetworkRegistryShaman.sol:NetworkRegistryShaman",
            "label": "domainId",
            "offset": 0,
            "slot": "0",
            "type": "t_uint32"
          },
          {
            "astId": 11023,
            "contract": "contracts/NetworkRegistryShaman.sol:NetworkRegistryShaman",
            "label": "registryAddress",
            "offset": 4,
            "slot": "0",
            "type": "t_address"
          },
          {
            "astId": 11025,
            "contract": "contracts/NetworkRegistryShaman.sol:NetworkRegistryShaman",
            "label": "delegate",
            "offset": 0,
            "slot": "1",
            "type": "t_address"
          }
        ],
        "numberOfBytes": "64"
      },
      "t_uint256": {
        "encoding": "inplace",
        "label": "uint256",
        "numberOfBytes": "32"
      },
      "t_uint32": {
        "encoding": "inplace",
        "label": "uint32",
        "numberOfBytes": "4"
      },
      "t_uint8": {
        "encoding": "inplace",
        "label": "uint8",
        "numberOfBytes": "1"
      }
    }
  }
}