{
  "address": "0x34285221E73a0Df03B3083B78718bE7BF7041f68",
  "abi": [
    {
      "inputs": [],
      "stateMutability": "nonpayable",
      "type": "constructor"
    },
    {
      "inputs": [
        {
          "internalType": "address",
          "name": "_member",
          "type": "address"
        },
        {
          "internalType": "uint32",
          "name": "_activityMultiplier",
          "type": "uint32"
        }
      ],
      "name": "InvalidMember__ActivityMultiplier",
      "type": "error"
    },
    {
      "inputs": [
        {
          "internalType": "address",
          "name": "_member",
          "type": "address"
        }
      ],
      "name": "InvalidMember__Address",
      "type": "error"
    },
    {
      "inputs": [
        {
          "internalType": "address",
          "name": "_member",
          "type": "address"
        },
        {
          "internalType": "uint32",
          "name": "_startDate",
          "type": "uint32"
        }
      ],
      "name": "InvalidMember__StartDateInTheFuture",
      "type": "error"
    },
    {
      "inputs": [
        {
          "internalType": "uint256",
          "name": "_index",
          "type": "uint256"
        }
      ],
      "name": "InvalidSplit__AccountsOutOfOrder",
      "type": "error"
    },
    {
      "inputs": [],
      "name": "InvalidSplit__MemberListSizeMismatch",
      "type": "error"
    },
    {
      "inputs": [
        {
          "internalType": "address",
          "name": "_member",
          "type": "address"
        }
      ],
      "name": "Member__AlreadyRegistered",
      "type": "error"
    },
    {
      "inputs": [
        {
          "internalType": "address",
          "name": "_member",
          "type": "address"
        }
      ],
      "name": "Member__NotRegistered",
      "type": "error"
    },
    {
      "inputs": [
        {
          "internalType": "UD60x18",
          "name": "x",
          "type": "uint256"
        }
      ],
      "name": "PRBMath_UD60x18_Sqrt_Overflow",
      "type": "error"
    },
    {
      "inputs": [],
      "name": "Split_ControlNotHandedOver",
      "type": "error"
    },
    {
      "anonymous": false,
      "inputs": [
        {
          "indexed": false,
          "internalType": "uint8",
          "name": "version",
          "type": "uint8"
        }
      ],
      "name": "Initialized",
      "type": "event"
    },
    {
      "anonymous": false,
      "inputs": [
        {
          "indexed": true,
          "internalType": "uint32",
          "name": "_chainId",
          "type": "uint32"
        },
        {
          "indexed": true,
          "internalType": "address",
          "name": "_registryAddress",
          "type": "address"
        },
        {
          "indexed": true,
          "internalType": "uint32",
          "name": "_domainId",
          "type": "uint32"
        },
        {
          "indexed": false,
          "internalType": "address",
          "name": "_delegate",
          "type": "address"
        }
      ],
      "name": "NetworkRegistryUpdated",
      "type": "event"
    },
    {
      "anonymous": false,
      "inputs": [
        {
          "indexed": true,
          "internalType": "address",
          "name": "_member",
          "type": "address"
        },
        {
          "indexed": false,
          "internalType": "uint32",
          "name": "_startDate",
          "type": "uint32"
        },
        {
          "indexed": false,
          "internalType": "uint32",
          "name": "_activityMultiplier",
          "type": "uint32"
        }
      ],
      "name": "NewMember",
      "type": "event"
    },
    {
      "anonymous": false,
      "inputs": [
        {
          "indexed": false,
          "internalType": "address",
          "name": "_connext",
          "type": "address"
        },
        {
          "indexed": false,
          "internalType": "uint32",
          "name": "_updaterDomain",
          "type": "uint32"
        },
        {
          "indexed": false,
          "internalType": "address",
          "name": "_updater",
          "type": "address"
        }
      ],
      "name": "NewUpdaterConfig",
      "type": "event"
    },
    {
      "anonymous": false,
      "inputs": [
        {
          "indexed": true,
          "internalType": "address",
          "name": "previousOwner",
          "type": "address"
        },
        {
          "indexed": true,
          "internalType": "address",
          "name": "newOwner",
          "type": "address"
        }
      ],
      "name": "OwnershipTransferred",
      "type": "event"
    },
    {
      "anonymous": false,
      "inputs": [
        {
          "indexed": false,
          "internalType": "uint32",
          "name": "_date",
          "type": "uint32"
        },
        {
          "indexed": false,
          "internalType": "uint256",
          "name": "_totalMemberUpdates",
          "type": "uint256"
        }
      ],
      "name": "RegistryActivityUpdate",
      "type": "event"
    },
    {
      "anonymous": false,
      "inputs": [
        {
          "indexed": false,
          "internalType": "address",
          "name": "_splitMain",
          "type": "address"
        },
        {
          "indexed": false,
          "internalType": "address",
          "name": "_split",
          "type": "address"
        }
      ],
      "name": "SplitUpdated",
      "type": "event"
    },
    {
      "anonymous": false,
      "inputs": [
        {
          "indexed": true,
          "internalType": "bytes32",
          "name": "_transferId",
          "type": "bytes32"
        },
        {
          "indexed": true,
          "internalType": "uint32",
          "name": "_originDomain",
          "type": "uint32"
        },
        {
          "indexed": true,
          "internalType": "bytes4",
          "name": "_action",
          "type": "bytes4"
        },
        {
          "indexed": false,
          "internalType": "bool",
          "name": "_success",
          "type": "bool"
        },
        {
          "indexed": false,
          "internalType": "address",
          "name": "_originSender",
          "type": "address"
        }
      ],
      "name": "SyncActionPerformed",
      "type": "event"
    },
    {
      "anonymous": false,
      "inputs": [
        {
          "indexed": true,
          "internalType": "bytes32",
          "name": "_transferId",
          "type": "bytes32"
        },
        {
          "indexed": true,
          "internalType": "uint32",
          "name": "_chainId",
          "type": "uint32"
        },
        {
          "indexed": true,
          "internalType": "bytes4",
          "name": "_action",
          "type": "bytes4"
        },
        {
          "indexed": false,
          "internalType": "address",
          "name": "_registryAddress",
          "type": "address"
        }
      ],
      "name": "SyncMessageSubmitted",
      "type": "event"
    },
    {
      "anonymous": false,
      "inputs": [
        {
          "indexed": true,
          "internalType": "address",
          "name": "_member",
          "type": "address"
        },
        {
          "indexed": false,
          "internalType": "uint32",
          "name": "_activityMultiplier",
          "type": "uint32"
        }
      ],
      "name": "UpdateMember",
      "type": "event"
    },
    {
      "anonymous": false,
      "inputs": [
        {
          "indexed": true,
          "internalType": "address",
          "name": "_member",
          "type": "address"
        },
        {
          "indexed": false,
          "internalType": "uint32",
          "name": "_secondsActive",
          "type": "uint32"
        }
      ],
      "name": "UpdateMemberSeconds",
      "type": "event"
    },
    {
      "inputs": [],
      "name": "PERCENTAGE_SCALE",
      "outputs": [
        {
          "internalType": "uint256",
          "name": "",
          "type": "uint256"
        }
      ],
      "stateMutability": "view",
      "type": "function"
    },
    {
      "inputs": [
        {
          "internalType": "uint32[]",
          "name": "_chainIds",
          "type": "uint32[]"
        },
        {
          "internalType": "uint256[]",
          "name": "_relayerFees",
          "type": "uint256[]"
        }
      ],
      "name": "acceptNetworkSplitControl",
      "outputs": [],
      "stateMutability": "payable",
      "type": "function"
    },
    {
      "inputs": [],
      "name": "acceptSplitControl",
      "outputs": [],
      "stateMutability": "nonpayable",
      "type": "function"
    },
    {
      "inputs": [
        {
          "internalType": "address[]",
          "name": "_members",
          "type": "address[]"
        },
        {
          "internalType": "uint32[]",
          "name": "_activityMultipliers",
          "type": "uint32[]"
        },
        {
          "internalType": "uint32[]",
          "name": "_startDates",
          "type": "uint32[]"
        }
      ],
      "name": "batchNewMember",
      "outputs": [],
      "stateMutability": "nonpayable",
      "type": "function"
    },
    {
      "inputs": [
        {
          "internalType": "address[]",
          "name": "_members",
          "type": "address[]"
        },
        {
          "internalType": "uint32[]",
          "name": "_activityMultipliers",
          "type": "uint32[]"
        }
      ],
      "name": "batchUpdateMember",
      "outputs": [],
      "stateMutability": "nonpayable",
      "type": "function"
    },
    {
      "inputs": [
        {
          "internalType": "address[]",
          "name": "_sortedList",
          "type": "address[]"
        }
      ],
      "name": "calculate",
      "outputs": [
        {
          "internalType": "address[]",
          "name": "_receivers",
          "type": "address[]"
        },
        {
          "internalType": "uint32[]",
          "name": "_percentAllocations",
          "type": "uint32[]"
        }
      ],
      "stateMutability": "view",
      "type": "function"
    },
    {
      "inputs": [
        {
          "internalType": "uint32[]",
          "name": "_chainIds",
          "type": "uint32[]"
        },
        {
          "internalType": "uint256[]",
          "name": "_relayerFees",
          "type": "uint256[]"
        }
      ],
      "name": "cancelNetworkSplitControlTransfer",
      "outputs": [],
      "stateMutability": "payable",
      "type": "function"
    },
    {
      "inputs": [],
      "name": "cancelSplitControlTransfer",
      "outputs": [],
      "stateMutability": "nonpayable",
      "type": "function"
    },
    {
      "inputs": [],
      "name": "connext",
      "outputs": [
        {
          "internalType": "contract IConnext",
          "name": "",
          "type": "address"
        }
      ],
      "stateMutability": "view",
      "type": "function"
    },
    {
      "inputs": [
        {
          "internalType": "address",
          "name": "_member",
          "type": "address"
        }
      ],
      "name": "getMember",
      "outputs": [
        {
          "components": [
            {
              "internalType": "address",
              "name": "account",
              "type": "address"
            },
            {
              "internalType": "uint32",
              "name": "secondsActive",
              "type": "uint32"
            },
            {
              "internalType": "uint32",
              "name": "startDate",
              "type": "uint32"
            },
            {
              "internalType": "uint32",
              "name": "activityMultiplier",
              "type": "uint32"
            }
          ],
          "internalType": "struct MemberRegistry.Member",
          "name": "",
          "type": "tuple"
        }
      ],
      "stateMutability": "view",
      "type": "function"
    },
    {
      "inputs": [],
      "name": "getMembers",
      "outputs": [
        {
          "components": [
            {
              "internalType": "address",
              "name": "account",
              "type": "address"
            },
            {
              "internalType": "uint32",
              "name": "secondsActive",
              "type": "uint32"
            },
            {
              "internalType": "uint32",
              "name": "startDate",
              "type": "uint32"
            },
            {
              "internalType": "uint32",
              "name": "activityMultiplier",
              "type": "uint32"
            }
          ],
          "internalType": "struct MemberRegistry.Member[]",
          "name": "",
          "type": "tuple[]"
        }
      ],
      "stateMutability": "view",
      "type": "function"
    },
    {
      "inputs": [],
      "name": "getMembersSplitProperties",
      "outputs": [
        {
          "internalType": "address[]",
          "name": "",
          "type": "address[]"
        },
        {
          "internalType": "uint32[]",
          "name": "",
          "type": "uint32[]"
        },
        {
          "internalType": "uint32[]",
          "name": "",
          "type": "uint32[]"
        }
      ],
      "stateMutability": "view",
      "type": "function"
    },
    {
      "inputs": [
        {
          "internalType": "bytes",
          "name": "_initializationParams",
          "type": "bytes"
        }
      ],
      "name": "initialize",
      "outputs": [],
      "stateMutability": "nonpayable",
      "type": "function"
    },
    {
      "inputs": [],
      "name": "isMainRegistry",
      "outputs": [
        {
          "internalType": "bool",
          "name": "",
          "type": "bool"
        }
      ],
      "stateMutability": "view",
      "type": "function"
    },
    {
      "inputs": [],
      "name": "lastActivityUpdate",
      "outputs": [
        {
          "internalType": "uint32",
          "name": "",
          "type": "uint32"
        }
      ],
      "stateMutability": "view",
      "type": "function"
    },
    {
      "inputs": [
        {
          "internalType": "address",
          "name": "",
          "type": "address"
        }
      ],
      "name": "memberIdxs",
      "outputs": [
        {
          "internalType": "uint256",
          "name": "",
          "type": "uint256"
        }
      ],
      "stateMutability": "view",
      "type": "function"
    },
    {
      "inputs": [
        {
          "internalType": "uint256",
          "name": "",
          "type": "uint256"
        }
      ],
      "name": "members",
      "outputs": [
        {
          "internalType": "address",
          "name": "account",
          "type": "address"
        },
        {
          "internalType": "uint32",
          "name": "secondsActive",
          "type": "uint32"
        },
        {
          "internalType": "uint32",
          "name": "startDate",
          "type": "uint32"
        },
        {
          "internalType": "uint32",
          "name": "activityMultiplier",
          "type": "uint32"
        }
      ],
      "stateMutability": "view",
      "type": "function"
    },
    {
      "inputs": [
        {
          "internalType": "uint32",
          "name": "",
          "type": "uint32"
        }
      ],
      "name": "networkRegistry",
      "outputs": [
        {
          "internalType": "uint32",
          "name": "domainId",
          "type": "uint32"
        },
        {
          "internalType": "address",
          "name": "registryAddress",
          "type": "address"
        },
        {
          "internalType": "address",
          "name": "delegate",
          "type": "address"
        }
      ],
      "stateMutability": "view",
      "type": "function"
    },
    {
      "inputs": [],
      "name": "owner",
      "outputs": [
        {
          "internalType": "address",
          "name": "",
          "type": "address"
        }
      ],
      "stateMutability": "view",
      "type": "function"
    },
    {
      "inputs": [],
      "name": "renounceOwnership",
      "outputs": [],
      "stateMutability": "nonpayable",
      "type": "function"
    },
    {
      "inputs": [
        {
          "internalType": "address",
          "name": "_member",
          "type": "address"
        },
        {
          "internalType": "uint32",
          "name": "_activityMultiplier",
          "type": "uint32"
        },
        {
          "internalType": "uint32",
          "name": "_startDate",
          "type": "uint32"
        }
      ],
      "name": "setNewMember",
      "outputs": [],
      "stateMutability": "nonpayable",
      "type": "function"
    },
    {
      "inputs": [
        {
          "internalType": "address",
          "name": "_splitMain",
          "type": "address"
        },
        {
          "internalType": "address",
          "name": "_split",
          "type": "address"
        }
      ],
      "name": "setSplit",
      "outputs": [],
      "stateMutability": "nonpayable",
      "type": "function"
    },
    {
      "inputs": [
        {
          "internalType": "address",
          "name": "_connext",
          "type": "address"
        },
        {
          "internalType": "uint32",
          "name": "_updaterDomain",
          "type": "uint32"
        },
        {
          "internalType": "address",
          "name": "_updater",
          "type": "address"
        }
      ],
      "name": "setUpdaterConfig",
      "outputs": [],
      "stateMutability": "nonpayable",
      "type": "function"
    },
    {
      "inputs": [],
      "name": "split",
      "outputs": [
        {
          "internalType": "address",
          "name": "",
          "type": "address"
        }
      ],
      "stateMutability": "view",
      "type": "function"
    },
    {
      "inputs": [],
      "name": "splitMain",
      "outputs": [
        {
          "internalType": "contract ISplitMain",
          "name": "",
          "type": "address"
        }
      ],
      "stateMutability": "view",
      "type": "function"
    },
    {
      "inputs": [
        {
          "internalType": "address[]",
          "name": "_members",
          "type": "address[]"
        },
        {
          "internalType": "uint32[]",
          "name": "_activityMultipliers",
          "type": "uint32[]"
        },
        {
          "internalType": "uint32[]",
          "name": "_startDates",
          "type": "uint32[]"
        },
        {
          "internalType": "uint32[]",
          "name": "_chainIds",
          "type": "uint32[]"
        },
        {
          "internalType": "uint256[]",
          "name": "_relayerFees",
          "type": "uint256[]"
        }
      ],
      "name": "syncBatchNewMember",
      "outputs": [],
      "stateMutability": "payable",
      "type": "function"
    },
    {
      "inputs": [
        {
          "internalType": "address[]",
          "name": "_members",
          "type": "address[]"
        },
        {
          "internalType": "uint32[]",
          "name": "_activityMultipliers",
          "type": "uint32[]"
        },
        {
          "internalType": "uint32[]",
          "name": "_chainIds",
          "type": "uint32[]"
        },
        {
          "internalType": "uint256[]",
          "name": "_relayerFees",
          "type": "uint256[]"
        }
      ],
      "name": "syncBatchUpdateMember",
      "outputs": [],
      "stateMutability": "payable",
      "type": "function"
    },
    {
      "inputs": [
        {
          "internalType": "uint32[]",
          "name": "_chainIds",
          "type": "uint32[]"
        },
        {
          "internalType": "uint256[]",
          "name": "_relayerFees",
          "type": "uint256[]"
        }
      ],
      "name": "syncNetworkMemberRegistry",
      "outputs": [],
      "stateMutability": "payable",
      "type": "function"
    },
    {
      "inputs": [
        {
          "internalType": "address",
          "name": "_member",
          "type": "address"
        },
        {
          "internalType": "uint32",
          "name": "_activityMultiplier",
          "type": "uint32"
        },
        {
          "internalType": "uint32",
          "name": "_startDate",
          "type": "uint32"
        },
        {
          "internalType": "uint32[]",
          "name": "_chainIds",
          "type": "uint32[]"
        },
        {
          "internalType": "uint256[]",
          "name": "_relayerFees",
          "type": "uint256[]"
        }
      ],
      "name": "syncSetNewMember",
      "outputs": [],
      "stateMutability": "payable",
      "type": "function"
    },
    {
      "inputs": [
        {
          "internalType": "address[]",
          "name": "_sortedList",
          "type": "address[]"
        },
        {
          "internalType": "uint32",
          "name": "_splitDistributorFee",
          "type": "uint32"
        },
        {
          "internalType": "uint32[]",
          "name": "_chainIds",
          "type": "uint32[]"
        },
        {
          "internalType": "uint256[]",
          "name": "_relayerFees",
          "type": "uint256[]"
        }
      ],
      "name": "syncUpdateAll",
      "outputs": [],
      "stateMutability": "payable",
      "type": "function"
    },
    {
      "inputs": [
        {
          "internalType": "address",
          "name": "_member",
          "type": "address"
        },
        {
          "internalType": "uint32",
          "name": "_activityMultiplier",
          "type": "uint32"
        },
        {
          "internalType": "uint32[]",
          "name": "_chainIds",
          "type": "uint32[]"
        },
        {
          "internalType": "uint256[]",
          "name": "_relayerFees",
          "type": "uint256[]"
        }
      ],
      "name": "syncUpdateMember",
      "outputs": [],
      "stateMutability": "payable",
      "type": "function"
    },
    {
      "inputs": [
        {
          "internalType": "uint32[]",
          "name": "_chainIds",
          "type": "uint32[]"
        },
        {
          "internalType": "uint256[]",
          "name": "_relayerFees",
          "type": "uint256[]"
        }
      ],
      "name": "syncUpdateSecondsActive",
      "outputs": [],
      "stateMutability": "payable",
      "type": "function"
    },
    {
      "inputs": [
        {
          "internalType": "address[]",
          "name": "_sortedList",
          "type": "address[]"
        },
        {
          "internalType": "uint32",
          "name": "_splitDistributorFee",
          "type": "uint32"
        },
        {
          "internalType": "uint32[]",
          "name": "_chainIds",
          "type": "uint32[]"
        },
        {
          "internalType": "uint256[]",
          "name": "_relayerFees",
          "type": "uint256[]"
        }
      ],
      "name": "syncUpdateSplits",
      "outputs": [],
      "stateMutability": "payable",
      "type": "function"
    },
    {
      "inputs": [],
      "name": "totalMembers",
      "outputs": [
        {
          "internalType": "uint256",
          "name": "",
          "type": "uint256"
        }
      ],
      "stateMutability": "view",
      "type": "function"
    },
    {
      "inputs": [
        {
          "internalType": "uint32[]",
          "name": "_chainIds",
          "type": "uint32[]"
        },
        {
          "internalType": "address[]",
          "name": "_newControllers",
          "type": "address[]"
        },
        {
          "internalType": "uint256[]",
          "name": "_relayerFees",
          "type": "uint256[]"
        }
      ],
      "name": "transferNetworkSplitControl",
      "outputs": [],
      "stateMutability": "payable",
      "type": "function"
    },
    {
      "inputs": [
        {
          "internalType": "address",
          "name": "newOwner",
          "type": "address"
        }
      ],
      "name": "transferOwnership",
      "outputs": [],
      "stateMutability": "nonpayable",
      "type": "function"
    },
    {
      "inputs": [
        {
          "internalType": "address",
          "name": "_newController",
          "type": "address"
        }
      ],
      "name": "transferSplitControl",
      "outputs": [],
      "stateMutability": "nonpayable",
      "type": "function"
    },
    {
      "inputs": [
        {
          "internalType": "address[]",
          "name": "_sortedList",
          "type": "address[]"
        },
        {
          "internalType": "uint32",
          "name": "_splitDistributorFee",
          "type": "uint32"
        }
      ],
      "name": "updateAll",
      "outputs": [
        {
          "internalType": "address[]",
          "name": "_receivers",
          "type": "address[]"
        },
        {
          "internalType": "uint32[]",
          "name": "_percentAllocations",
          "type": "uint32[]"
        }
      ],
      "stateMutability": "nonpayable",
      "type": "function"
    },
    {
      "inputs": [
        {
          "internalType": "address[]",
          "name": "_sortedList",
          "type": "address[]"
        },
        {
          "internalType": "contract IERC20",
          "name": "_token",
          "type": "address"
        },
        {
          "internalType": "address",
          "name": "_distributorAddress",
          "type": "address"
        },
        {
          "internalType": "uint32",
          "name": "_splitDistributorFee",
          "type": "uint32"
        }
      ],
      "name": "updateAllAndDistributeERC20",
      "outputs": [],
      "stateMutability": "nonpayable",
      "type": "function"
    },
    {
      "inputs": [
        {
          "internalType": "address[]",
          "name": "_sortedList",
          "type": "address[]"
        },
        {
          "internalType": "address",
          "name": "_distributorAddress",
          "type": "address"
        },
        {
          "internalType": "uint32",
          "name": "_splitDistributorFee",
          "type": "uint32"
        }
      ],
      "name": "updateAllAndDistributeETH",
      "outputs": [],
      "stateMutability": "nonpayable",
      "type": "function"
    },
    {
      "inputs": [
        {
          "internalType": "address",
          "name": "_member",
          "type": "address"
        },
        {
          "internalType": "uint32",
          "name": "_activityMultiplier",
          "type": "uint32"
        }
      ],
      "name": "updateMember",
      "outputs": [],
      "stateMutability": "nonpayable",
      "type": "function"
    },
    {
      "inputs": [
        {
          "internalType": "uint32",
          "name": "_chainId",
          "type": "uint32"
        },
        {
          "components": [
            {
              "internalType": "uint32",
              "name": "domainId",
              "type": "uint32"
            },
            {
              "internalType": "address",
              "name": "registryAddress",
              "type": "address"
            },
            {
              "internalType": "address",
              "name": "delegate",
              "type": "address"
            }
          ],
          "internalType": "struct INetworkMemberRegistry.NetworkRegistry",
          "name": "_newRegistry",
          "type": "tuple"
        }
      ],
      "name": "updateNetworkRegistry",
      "outputs": [],
      "stateMutability": "nonpayable",
      "type": "function"
    },
    {
      "inputs": [
        {
          "internalType": "uint32[]",
          "name": "_chainIds",
          "type": "uint32[]"
        },
        {
          "internalType": "address[]",
          "name": "_splitsMain",
          "type": "address[]"
        },
        {
          "internalType": "address[]",
          "name": "_splits",
          "type": "address[]"
        },
        {
          "internalType": "uint256[]",
          "name": "_relayerFees",
          "type": "uint256[]"
        }
      ],
      "name": "updateNetworkSplit",
      "outputs": [],
      "stateMutability": "payable",
      "type": "function"
    },
    {
      "inputs": [],
      "name": "updateSecondsActive",
      "outputs": [],
      "stateMutability": "nonpayable",
      "type": "function"
    },
    {
      "inputs": [
        {
          "internalType": "address[]",
          "name": "_sortedList",
          "type": "address[]"
        },
        {
          "internalType": "uint32",
          "name": "_splitDistributorFee",
          "type": "uint32"
        }
      ],
      "name": "updateSplits",
      "outputs": [
        {
          "internalType": "address[]",
          "name": "_receivers",
          "type": "address[]"
        },
        {
          "internalType": "uint32[]",
          "name": "_percentAllocations",
          "type": "uint32[]"
        }
      ],
      "stateMutability": "nonpayable",
      "type": "function"
    },
    {
      "inputs": [],
      "name": "updater",
      "outputs": [
        {
          "internalType": "address",
          "name": "",
          "type": "address"
        }
      ],
      "stateMutability": "view",
      "type": "function"
    },
    {
      "inputs": [],
      "name": "updaterDomain",
      "outputs": [
        {
          "internalType": "uint32",
          "name": "",
          "type": "uint32"
        }
      ],
      "stateMutability": "view",
      "type": "function"
    },
    {
      "inputs": [
        {
          "internalType": "bytes32",
          "name": "_transferId",
          "type": "bytes32"
        },
        {
          "internalType": "uint256",
          "name": "",
          "type": "uint256"
        },
        {
          "internalType": "address",
          "name": "",
          "type": "address"
        },
        {
          "internalType": "address",
          "name": "_originSender",
          "type": "address"
        },
        {
          "internalType": "uint32",
          "name": "_origin",
          "type": "uint32"
        },
        {
          "internalType": "bytes",
          "name": "_incomingCalldata",
          "type": "bytes"
        }
      ],
      "name": "xReceive",
      "outputs": [
        {
          "internalType": "bytes",
          "name": "",
          "type": "bytes"
        }
      ],
      "stateMutability": "nonpayable",
      "type": "function"
    }
  ],
  "transactionHash": "0x6cef0dd31f7353d4030165e3b6b637143785a23b7e53b0ff3dc29a872b862a10",
  "args": [],
  "numDeployments": 2,
  "solcInputHash": "bfc1d3247ffdce2fe54eaa72e0828221",
  "bytecode": "0x608060405260006066553480156200001657600080fd5b506200002162000027565b620000e9565b600054610100900460ff1615620000945760405162461bcd60e51b815260206004820152602760248201527f496e697469616c697a61626c653a20636f6e747261637420697320696e697469604482015266616c697a696e6760c81b606482015260840160405180910390fd5b60005460ff9081161015620000e7576000805460ff191660ff9081179091556040519081527f7f26b83ff96e1f2b6a682f133852f6798a09c465da95921460cefb38474024989060200160405180910390a15b565b6158c480620000f96000396000f3fe6080604052600436106102935760003560e01c80638ddc5f351161015a578063cf2933c1116100c1578063f2fde38b1161007a578063f2fde38b14610816578063f6ce035414610836578063f765417614610856578063f801e1b814610876578063fd614f4114610896578063fff9834d146108c357600080fd5b8063cf2933c11461075a578063de4b05481461077a578063df034cd0146107a1578063e46867fd146107c1578063e4a7c603146107e1578063f1f1a57b146107f657600080fd5b8063a8e6f1e711610113578063a8e6f1e7146106b0578063b044631c146106c3578063b0affdf7146106d6578063b85a2ce1146106f6578063bf59b48814610716578063c818c70f1461073a57600080fd5b80638ddc5f351461057b5780638ee31392146105f75780639d7b8545146106295780639eab525314610649578063a02b60061461066b578063a084b6c01461068b57600080fd5b80635523a960116101fe578063715018a6116101b7578063715018a6146104d05780637698a833146104e557806376e925591461050557806380e038bc1461051a5780638da5cb5b1461052f5780638dc157911461054d57600080fd5b80635523a9601461040a57806356c0e9921461041d5780635daf08ca1461043057806364c6d00a1461048657806367942be0146104995780636bda59da146104bd57600080fd5b806334e2fc651161025057806334e2fc651461035d578063371b52e3146103985780633a8246f3146103ad5780633f26479e146103c0578063439fab91146103d7578063535949a6146103f757600080fd5b80630202f82a146102985780630726312a146102ad5780630e769b2b146102cd5780631049d7361461030a5780632ada25961461031d578063325d1e9c1461034a575b600080fd5b6102ab6102a6366004614150565b6108d6565b005b3480156102b957600080fd5b506102ab6102c83660046141e4565b610a97565b3480156102d957600080fd5b50606b546102ed906001600160a01b031681565b6040516001600160a01b0390911681526020015b60405180910390f35b6102ab61031836600461422f565b610af0565b34801561032957600080fd5b5061033d61033836600461429a565b610cb2565b60405161030191906142f1565b6102ab610358366004614305565b610dae565b34801561036957600080fd5b5061038a61037836600461429a565b60676020526000908152604090205481565b604051908152602001610301565b3480156103a457600080fd5b506102ab610f63565b6102ab6103bb3660046143ac565b611010565b3480156103cc57600080fd5b5061038a620f424081565b3480156103e357600080fd5b506102ab6103f23660046144ef565b611123565b6102ab61040536600461452b565b61126a565b6102ab6104183660046143ac565b6114d1565b6102ab61042b36600461422f565b6115e4565b34801561043c57600080fd5b5061045061044b36600461461b565b611773565b604080516001600160a01b03909516855263ffffffff938416602086015291831691840191909152166060820152608001610301565b6102ab61049436600461422f565b6117c0565b3480156104a557600080fd5b506104ae6118c8565b604051610301939291906146ae565b6102ab6104cb366004614847565b611ae2565b3480156104dc57600080fd5b506102ab611c4c565b3480156104f157600080fd5b506102ab6105003660046148ce565b611c60565b34801561051157600080fd5b5060655461038a565b34801561052657600080fd5b506102ab611e30565b34801561053b57600080fd5b506033546001600160a01b03166102ed565b34801561055957600080fd5b5061056d610568366004614968565b611ead565b6040516103019291906149b3565b34801561058757600080fd5b506105cb6105963660046149d8565b606a602052600090815260409020805460019091015463ffffffff8216916001600160a01b03600160201b9091048116911683565b6040805163ffffffff90941684526001600160a01b039283166020850152911690820152606001610301565b34801561060357600080fd5b506068546106149063ffffffff1681565b60405163ffffffff9091168152602001610301565b34801561063557600080fd5b506102ab61064436600461429a565b611f65565b34801561065557600080fd5b5061065e61201a565b60405161030191906149f5565b34801561067757600080fd5b5061056d610686366004614968565b6120b1565b34801561069757600080fd5b506106a06120d3565b6040519015158152602001610301565b6102ab6106be366004614a43565b612101565b6102ab6106d136600461422f565b61226a565b3480156106e257600080fd5b5061056d6106f1366004614aef565b612372565b34801561070257600080fd5b506102ab610711366004614b23565b6127e2565b34801561072257600080fd5b5060685461061490600160c01b900463ffffffff1681565b34801561074657600080fd5b506102ab610755366004614b5c565b612a36565b34801561076657600080fd5b506102ab610775366004614b8a565b612a89565b34801561078657600080fd5b506068546102ed90600160201b90046001600160a01b031681565b3480156107ad57600080fd5b506069546102ed906001600160a01b031681565b3480156107cd57600080fd5b506102ab6107dc366004614bed565b612b22565b3480156107ed57600080fd5b506102ab612bd5565b34801561080257600080fd5b506102ab610811366004614c6a565b612bdd565b34801561082257600080fd5b506102ab61083136600461429a565b612c5c565b34801561084257600080fd5b506102ab610851366004614ce6565b612cd5565b34801561086257600080fd5b50606c546102ed906001600160a01b031681565b34801561088257600080fd5b506102ab610891366004614d26565b612d81565b3480156108a257600080fd5b506108b66108b1366004614d8d565b612e0a565b6040516103019190614e63565b6102ab6108d1366004614e76565b6133c6565b6108de6135d2565b83838080602002602001604051908101604052809392919081815260200183836020028082843760009201919091525050604080516020808702828101820190935286825290935086925085918291850190849080828437600092019190915250508251845114915061096e90505760405162461bcd60e51b815260040161096590614f39565b60405180910390fd5b6000805b82518110156109aa5782818151811061098d5761098d614f7e565b6020026020010151826109a09190614faa565b9150600101610972565b508034146109ca5760405162461bcd60e51b815260040161096590614fbd565b6109d48989612a36565b6040805163c818c70f60e01b602082018190526001600160a01b038c169282019290925263ffffffff8a1660608201526000906080016040516020818303038152906040529050610a8a82828b8b8080602002602001604051908101604052809392919081815260200183836020028082843760009201919091525050604080516020808f0282810182019093528e82529093508e92508d91829185019084908082843760009201919091525061362c92505050565b5050505050505050505050565b6033546001600160a01b0316331480610ac457506069546001600160a01b031615801590610ac457503330145b610ae05760405162461bcd60e51b815260040161096590615005565b610aeb838383613671565b505050565b610af86135d2565b838380806020026020016040519081016040528093929190818152602001838360200280828437600092019190915250506040805160208087028281018201909352868252909350869250859182918501908490808284376000920191909152505082518451149150610b7f90505760405162461bcd60e51b815260040161096590614f39565b6000805b8251811015610bbb57828181518110610b9e57610b9e614f7e565b602002602001015182610bb19190614faa565b9150600101610b83565b50803414610bdb5760405162461bcd60e51b815260040161096590614fbd565b6000806000610be86118c8565b604051929550909350915063e46867fd60e01b90600090610c13908390879087908790602001615048565b6040516020818303038152906040529050610ca482828e8e80806020026020016040519081016040528093929190818152602001838360200280828437600081840152601f19601f820116905080830192505050505050508d8d8080602002602001604051908101604052809392919081815260200183836020028082843760009201919091525061362c92505050565b505050505050505050505050565b6040805160808101825260008082526020808301829052828401829052606083018290526001600160a01b03851682526067905291822054909103610d155760405163c6040d1d60e01b81526001600160a01b0383166004820152602401610965565b6001600160a01b038216600090815260676020526040902054606590610d3d9060019061509b565b81548110610d4d57610d4d614f7e565b60009182526020918290206040805160808101825291909201546001600160a01b038116825263ffffffff600160a01b8204811694830194909452600160c01b8104841692820192909252600160e01b909104909116606082015292915050565b610db66135d2565b838380806020026020016040519081016040528093929190818152602001838360200280828437600092019190915250506040805160208087028281018201909352868252909350869250859182918501908490808284376000920191909152505082518451149150610e3d90505760405162461bcd60e51b815260040161096590614f39565b6000805b8251811015610e7957828181518110610e5c57610e5c614f7e565b602002602001015182610e6f9190614faa565b9150600101610e41565b50803414610e995760405162461bcd60e51b815260040161096590614fbd565b610ea48a8a8a610a97565b60408051630393189560e11b602082018190526001600160a01b038d169282019290925263ffffffff808c1660608301528a16608082015260009060a0015b6040516020818303038152906040529050610ca482828b8b8080602002602001604051908101604052809392919081815260200183836020028082843760009201919091525050604080516020808f0282810182019093528e82529093508e92508d91829185019084908082843760009201919091525061362c92505050565b6033546001600160a01b0316331480610f9057506069546001600160a01b031615801590610f9057503330145b610fac5760405162461bcd60e51b815260040161096590615005565b606b54606c54604051630933e36d60e11b81526001600160a01b039182166004820152911690631267c6da906024015b600060405180830381600087803b158015610ff657600080fd5b505af115801561100a573d6000803e3d6000fd5b50505050565b83838080602002602001604051908101604052809392919081815260200183836020028082843760009201919091525050604080516020808702828101820190935286825290935086925085918291850190849080828437600092019190915250508251845114915061109790505760405162461bcd60e51b815260040161096590614f39565b6000805b82518110156110d3578281815181106110b6576110b6614f7e565b6020026020010151826110c99190614faa565b915060010161109b565b508034146110f35760405162461bcd60e51b815260040161096590614fbd565b6110fe8a8a8a6120b1565b5050604051635015b00360e11b90600090610ee39083908e908e908e906020016150ec565b600054610100900460ff16158080156111435750600054600160ff909116105b8061115d5750303b15801561115d575060005460ff166001145b6111c05760405162461bcd60e51b815260206004820152602e60248201527f496e697469616c697a61626c653a20636f6e747261637420697320616c72656160448201526d191e481a5b9a5d1a585b1a5e995960921b6064820152608401610965565b6000805460ff1916600117905580156111e3576000805461ff0019166101001790555b600080600080600080878060200190518101906112009190615126565b95509550955095509550955061121a8686868686866138b3565b5050505050508015611266576000805461ff0019169055604051600181527f7f26b83ff96e1f2b6a682f133852f6798a09c465da95921460cefb38474024989060200160405180910390a15b5050565b6112726135d2565b8383808060200260200160405190810160405280939291908181526020018383602002808284376000920191909152505060408051602080870282810182019093528682529093508692508591829185019084908082843760009201919091525050825184511491506112f990505760405162461bcd60e51b815260040161096590614f39565b6000805b82518110156113355782818151811061131857611318614f7e565b60200260200101518261132b9190614faa565b91506001016112fd565b508034146113555760405162461bcd60e51b815260040161096590614fbd565b6114158d8d80806020026020016040519081016040528093929190818152602001838360200280828437600081840152601f19601f820116905080830192505050505050508c8c80806020026020016040519081016040528093929190818152602001838360200280828437600081840152601f19601f820116905080830192505050505050508b8b80806020026020016040519081016040528093929190818152602001838360200280828437600092019190915250612b2292505050565b600063e46867fd60e01b90506000818f8f8f8f8f8f60405160200161144097969594939291906151e8565b60405160208183030381529060405290506114c082828b8b8080602002602001604051908101604052809392919081815260200183836020028082843760009201919091525050604080516020808f0282810182019093528e82529093508e92508d91829185019084908082843760009201919091525061362c92505050565b505050505050505050505050505050565b83838080602002602001604051908101604052809392919081815260200183836020028082843760009201919091525050604080516020808702828101820190935286825290935086925085918291850190849080828437600092019190915250508251845114915061155890505760405162461bcd60e51b815260040161096590614f39565b6000805b82518110156115945782818151811061157757611577614f7e565b60200260200101518261158a9190614faa565b915060010161155c565b508034146115b45760405162461bcd60e51b815260040161096590614fbd565b6115bf8a8a8a611ead565b5050604051638dc1579160e01b90600090610ee39083908e908e908e906020016150ec565b6115ec6135d2565b83838080602002602001604051908101604052809392919081815260200183836020028082843760009201919091525050604080516020808702828101820190935286825290935086925085918291850190849080828437600092019190915250508251845114915061167390505760405162461bcd60e51b815260040161096590614f39565b6000805b82518110156116af5782818151811061169257611692614f7e565b6020026020010151826116a59190614faa565b9150600101611677565b508034146116cf5760405162461bcd60e51b815260040161096590614fbd565b604080516320380e2f60e21b6020820181905291600091015b604051602081830303815290604052905061176882828b8b8080602002602001604051908101604052809392919081815260200183836020028082843760009201919091525050604080516020808f0282810182019093528e82529093508e92508d91829185019084908082843760009201919091525061362c92505050565b505050505050505050565b6065818154811061178357600080fd5b6000918252602090912001546001600160a01b038116915063ffffffff600160a01b8204811691600160c01b8104821691600160e01b9091041684565b6117c86135d2565b83838080602002602001604051908101604052809392919081815260200183836020028082843760009201919091525050604080516020808702828101820190935286825290935086925085918291850190849080828437600092019190915250508251845114915061184f90505760405162461bcd60e51b815260040161096590614f39565b6000805b825181101561188b5782818151811061186e5761186e614f7e565b6020026020010151826118819190614faa565b9150600101611853565b508034146118ab5760405162461bcd60e51b815260040161096590614fbd565b6040805163371b52e360e01b6020820181905291600091016116e8565b606080606060006065805490506001600160401b038111156118ec576118ec61443a565b604051908082528060200260200182016040528015611915578160200160208202803683370190505b506065549091506000906001600160401b038111156119365761193661443a565b60405190808252806020026020018201604052801561195f578160200160208202803683370190505b506065549091506000906001600160401b038111156119805761198061443a565b6040519080825280602002602001820160405280156119a9578160200160208202803683370190505b50905060005b606554811015611ad557606581815481106119cc576119cc614f7e565b60009182526020909120015484516001600160a01b03909116908590839081106119f8576119f8614f7e565b60200260200101906001600160a01b031690816001600160a01b03168152505060658181548110611a2b57611a2b614f7e565b90600052602060002001600001601c9054906101000a900463ffffffff16838281518110611a5b57611a5b614f7e565b602002602001019063ffffffff16908163ffffffff168152505060658181548110611a8857611a88614f7e565b9060005260206000200160000160189054906101000a900463ffffffff16828281518110611ab857611ab8614f7e565b63ffffffff909216602092830291909101909101526001016119af565b5091959094509092509050565b611aea6135d2565b82818051825114611b0d5760405162461bcd60e51b815260040161096590614f39565b6000805b8251811015611b4957828181518110611b2c57611b2c614f7e565b602002602001015182611b3f9190614faa565b9150600101611b11565b50803414611b695760405162461bcd60e51b815260040161096590614fbd565b8551855114611b8a5760405162461bcd60e51b815260040161096590614f39565b639d7b854560e01b60005b8751811015611c4257600082888381518110611bb357611bb3614f7e565b6020026020010151604051602001611bea9291906001600160e01b03199290921682526001600160a01b0316602082015260400190565b6040516020818303038152906040529050611c3983828b8581518110611c1257611c12614f7e565b60200260200101518a8681518110611c2c57611c2c614f7e565b602002602001015161391b565b50600101611b95565b5050505050505050565b611c546135d2565b611c5e600061399a565b565b611c686135d2565b63ffffffff82166000908152606a6020526040902054600160201b90046001600160a01b031615801590611ca7575060208101516001600160a01b0316155b15611ce55763ffffffff82166000908152606a6020526040902080546001600160c01b031916815560010180546001600160a01b0319169055611dc2565b805163ffffffff1615801590611d07575060208101516001600160a01b031615155b611d5d5760405162461bcd60e51b815260206004820152602160248201527f4e6574776f726b52656769737472793a20696e76616c696420726567697374726044820152607960f81b6064820152608401610965565b63ffffffff8281166000908152606a6020908152604091829020845181549286015194166001600160c01b031990921691909117600160201b6001600160a01b039485160217815590830151600190910180546001600160a01b031916919092161790555b806000015163ffffffff1681602001516001600160a01b03168363ffffffff167f4db6d44cad7c0eddcb10fcbcb14f9600520da0ea078eedc230cbed5aa0661d208460400151604051611e2491906001600160a01b0391909116815260200190565b60405180910390a45050565b6033546001600160a01b0316331480611e5d57506069546001600160a01b031615801590611e5d57503330145b611e795760405162461bcd60e51b815260040161096590615005565b606b54606c5460405163031f799160e61b81526001600160a01b03918216600482015291169063c7de644090602401610fdc565b606080611eec85858080602002602001604051908101604052809392919081815260200183836020028082843760009201919091525061237292505050565b606b54606c54604051637677856760e11b81529395509193506001600160a01b039081169263ecef0ace92611f2b921690869086908990600401615241565b600060405180830381600087803b158015611f4557600080fd5b505af1158015611f59573d6000803e3d6000fd5b50505050935093915050565b6033546001600160a01b0316331480611f9257506069546001600160a01b031615801590611f9257503330145b611fae5760405162461bcd60e51b815260040161096590615005565b606b54606c546040516334392cbd60e21b81526001600160a01b039182166004820152838216602482015291169063d0e4b2f490604401600060405180830381600087803b158015611fff57600080fd5b505af1158015612013573d6000803e3d6000fd5b5050505050565b60606065805480602002602001604051908101604052809291908181526020016000905b828210156120a857600084815260209081902060408051608081018252918501546001600160a01b038116835263ffffffff600160a01b8204811684860152600160c01b8204811692840192909252600160e01b900416606082015282526001909201910161203e565b50505050905090565b6060806120bc612bd5565b6120c7858585611ead565b90969095509350505050565b606854600090600160c01b900463ffffffff161580156120fc57506069546001600160a01b0316155b905090565b6121096135d2565b8381805182511461212c5760405162461bcd60e51b815260040161096590614f39565b6000805b82518110156121685782818151811061214b5761214b614f7e565b60200260200101518261215e9190614faa565b9150600101612130565b508034146121885760405162461bcd60e51b815260040161096590614fbd565b8651865114801561219a575086518551145b6121b65760405162461bcd60e51b815260040161096590614f39565b63b85a2ce160e01b60005b8851811015611768576000828983815181106121df576121df614f7e565b60200260200101518984815181106121f9576121f9614f7e565b6020026020010151604051602001612239939291906001600160e01b03199390931683526001600160a01b03918216602084015216604082015260600190565b604051602081830303815290604052905061226183828c8581518110611c1257611c12614f7e565b506001016121c1565b8383808060200260200160405190810160405280939291908181526020018383602002808284376000920191909152505060408051602080870282810182019093528682529093508692508591829185019084908082843760009201919091525050825184511491506122f190505760405162461bcd60e51b815260040161096590614f39565b6000805b825181101561232d5782818151811061231057612310614f7e565b6020026020010151826123239190614faa565b91506001016122f5565b5080341461234d5760405162461bcd60e51b815260040161096590614fbd565b612355612bd5565b6040805163e4a7c60360e01b6020820181905291600091016116e8565b60608060008060006065805490508651146123a05760405163c53e5b5b60e01b815260040160405180910390fd5b600086516001600160401b038111156123bb576123bb61443a565b60405190808252806020026020018201604052801561240057816020015b60408051808201909152600080825260208201528152602001906001900390816123d95790505b50905060005b87518110156125db57600088828151811061242357612423614f7e565b6020908102919091018101516001600160a01b0381166000908152606790925260408220549092506000198101910361247a5760405163c6040d1d60e01b81526001600160a01b0383166004820152602401610965565b846001600160a01b03168a848151811061249657612496614f7e565b60200260200101516001600160a01b0316106124c85760405163ac6bd23360e01b815260048101849052602401610965565b8194506000606582815481106124e0576124e0614f7e565b60009182526020918290206040805160808101825291909201546001600160a01b038116825263ffffffff600160a01b8204811694830194909452600160c01b8104841692820192909252600160e01b90910490911660608201819052909150156125d0576040518060400160405280846001600160a01b0316815260200161257e61257b612576856020015163ffffffff1690565b6139ec565b90565b81525085858151811061259357612593614f7e565b60200260200101819052508484815181106125b0576125b0614f7e565b602002602001015160200151876125c79190614faa565b60019098019796505b505050600101612406565b50836001600160401b038111156125f4576125f461443a565b60405190808252806020026020018201604052801561261d578160200160208202803683370190505b509550836001600160401b038111156126385761263861443a565b604051908082528060200260200182016040528015612661578160200160208202803683370190505b50945060008060005b895181101561278257600084828151811061268757612687614f7e565b602002602001015160200151111561277a578381815181106126ab576126ab614f7e565b6020026020010151600001518983815181106126c9576126c9614f7e565b60200260200101906001600160a01b031690816001600160a01b03168152505085620f424085838151811061270057612700614f7e565b602002602001015160200151612716919061528f565b61272091906152bc565b88838151811061273257612732614f7e565b602002602001019063ffffffff16908163ffffffff168152505087828151811061275e5761275e614f7e565b60200260200101518361277191906152d0565b92506001909101905b60010161266a565b50620f42408263ffffffff16146127d7576127a663ffffffff8316620f424061509b565b876000815181106127b9576127b9614f7e565b602002602001018181516127cd91906152d0565b63ffffffff169052505b505050505050915091565b6033546001600160a01b031633148061280f57506069546001600160a01b03161580159061280f57503330145b61282b5760405162461bcd60e51b815260040161096590615005565b606b80546001600160a01b0319166001600160a01b03848116918217909255604051634463315560e11b815291831660048301526000916388c662aa90602401602060405180830381865afa158015612888573d6000803e3d6000fd5b505050506040513d601f19601f820116820180604052508101906128ac91906152f4565b90506001600160a01b0381166129125760405162461bcd60e51b815260206004820152602560248201527f4e6574776f726b52656769737472793a2021657869737473207c7c20696d6d756044820152647461626c6560d81b6064820152608401610965565b606b5460405163708728eb60e11b81526001600160a01b038481166004830152600092169063e10e51d690602401602060405180830381865afa15801561295d573d6000803e3d6000fd5b505050506040513d601f19601f8201168201806040525081019061298191906152f4565b90506001600160a01b03811630148015906129a557506001600160a01b0382163014155b156129c357604051633170a38d60e01b815260040160405180910390fd5b606c80546001600160a01b0319166001600160a01b0385811691821790925560408051928716835260208301919091527fc8d09d7710e05a8ef2f307dcf13f859ce7e661b3eee1a04a57c4d481758a6c1d910160405180910390a1306001600160a01b0382160361100a5761100a611e30565b6033546001600160a01b0316331480612a6357506069546001600160a01b031615801590612a6357503330145b612a7f5760405162461bcd60e51b815260040161096590615005565b6112668282613a49565b6033546001600160a01b0316331480612ab657506069546001600160a01b031615801590612ab657503330145b612ad25760405162461bcd60e51b815260040161096590615005565b60005b8251811015610aeb57612b1a838281518110612af357612af3614f7e565b6020026020010151838381518110612b0d57612b0d614f7e565b6020026020010151612a36565b600101612ad5565b6033546001600160a01b0316331480612b4f57506069546001600160a01b031615801590612b4f57503330145b612b6b5760405162461bcd60e51b815260040161096590615005565b60005b835181101561100a57612bcd848281518110612b8c57612b8c614f7e565b6020026020010151848381518110612ba657612ba6614f7e565b6020026020010151848481518110612bc057612bc0614f7e565b6020026020010151610a97565b600101612b6e565b611c5e613b6d565b600080612beb8787856120b1565b606b54606c54604051630ac0898160e11b81529395509193506001600160a01b0390811692631581130292612c2e9216908990879087908a908c90600401615311565b600060405180830381600087803b158015612c4857600080fd5b505af1158015610a8a573d6000803e3d6000fd5b612c646135d2565b6001600160a01b038116612cc95760405162461bcd60e51b815260206004820152602660248201527f4f776e61626c653a206e6577206f776e657220697320746865207a65726f206160448201526564647265737360d01b6064820152608401610965565b612cd28161399a565b50565b612cdd6135d2565b60688054640100000000600160e01b031916600160201b6001600160a01b0386811691820263ffffffff60c01b191692909217600160c01b63ffffffff871690810291909117909355606980546001600160a01b0319169285169283179055604080519182526020820193909352918201527f21ae9d1c05d009b6af15c73821748e22e498496e2b29672090c67ae892322d6f9060600160405180910390a1505050565b600080612d8f8686856120b1565b606b54606c5460405163730e582f60e11b81529395509193506001600160a01b039081169263e61cb05e92612dd09216908690869089908b9060040161536f565b600060405180830381600087803b158015612dea57600080fd5b505af1158015612dfe573d6000803e3d6000fd5b50505050505050505050565b6068546060908490849063ffffffff808316600160c01b90920416148015612e3f57506069546001600160a01b038381169116145b8015612e655750606854600160201b90046001600160a01b0316336001600160a01b0316145b612ed75760405162461bcd60e51b815260206004820152603760248201527f4e6574776f726b52656769737472793a202175706461746572446f6d61696e2060448201527f7c7c202175706461746572207c7c2021436f6e6e6578740000000000000000006064820152608401610965565b600084806020019051810190612eed91906153e1565b90506060637c6ce76b60e11b6001600160e01b0319831601612f9b57600080600088806020019051810190612f2291906153fc565b6040516001600160a01b038416602482015263ffffffff8084166044830152821660648201529296509094509250630393189560e11b91506084015b60408051601f198184030181529190526020810180516001600160e01b03166001600160e01b03199093169290921790915293506132f492505050565b6337e738f160e01b6001600160e01b03198316016130305760008087806020019051810190612fca919061544d565b6040516001600160a01b038316602482015263ffffffff8216604482015291945092508591506064015b60408051601f198184030181529190526020810180516001600160e01b03166001600160e01b03199093169290921790915292506132f4915050565b631b97980360e01b6001600160e01b031983160161307e576000806000888060200190518101906130619190615554565b9350935093505084838383604051602401612f5e939291906146ae565b6330d6cc3f60e01b6001600160e01b03198316016130c657600080878060200190518101906130ad91906155e0565b9250925050838282604051602401612ff49291906149b3565b631b5839fd60e01b6001600160e01b031983160161311057506040805160048152602481019091526020810180516001600160e01b03166001600160e01b031984161790526132f4565b63723ea86f60e01b6001600160e01b0319831601613158576000808780602001905181019061313f9190615649565b9250925050838282604051602401612ff492919061569f565b632fea4ffd60e11b6001600160e01b0319831601613187576000808780602001905181019061313f9190615649565b6347a5d31f60e01b6001600160e01b03198316016131e057600080878060200190518101906131b691906156c7565b6040516001600160a01b038084166024830152821660448201529194509250859150606401612ff4565b6362847abb60e01b6001600160e01b03198316016132645760008680602001905181019061320e9190615706565b6040516001600160a01b038216602482015290925084915060440160408051601f198184030181529190526020810180516001600160e01b03166001600160e01b03199093169290921790915291506132f49050565b631fc7f1d160e21b6001600160e01b03198316016132ae57506040805160048152602481019091526020810180516001600160e01b03166001600160e01b031984161790526132f4565b63c8e4ad1d60e01b6001600160e01b03198316016132f457506040805160048152602481019091526020810180516001600160e01b03166001600160e01b031984161790525b600080306001600160a01b03168360405161330f9190615732565b6000604051808303816000865af19150503d806000811461334c576040519150601f19603f3d011682016040523d82523d6000602084013e613351565b606091505b5091509150836001600160e01b0319168963ffffffff168e7f1291b044e5e68ff17a19703d0775336ad7ec700ef5679fbd11bd0084af55baf3858e6040516133ae92919091151582526001600160a01b0316602082015260400190565b60405180910390a49c9b505050505050505050505050565b6133ce6135d2565b83838080602002602001604051908101604052809392919081815260200183836020028082843760009201919091525050604080516020808702828101820190935286825290935086925085918291850190849080828437600092019190915250508251845114915061345590505760405162461bcd60e51b815260040161096590614f39565b6000805b82518110156134915782818151811061347457613474614f7e565b6020026020010151826134879190614faa565b9150600101613459565b508034146134b15760405162461bcd60e51b815260040161096590614fbd565b61351e8b8b8080602002602001604051908101604052809392919081815260200183836020028082843760009201919091525050604080516020808f0282810182019093528e82529093508e92508d918291850190849080828437600092019190915250612a8992505050565b60405163cf2933c160e01b906000906135439083908f908f908f908f9060200161574e565b60405160208183030381529060405290506135c382828b8b8080602002602001604051908101604052809392919081815260200183836020028082843760009201919091525050604080516020808f0282810182019093528e82529093508e92508d91829185019084908082843760009201919091525061362c92505050565b50505050505050505050505050565b6033546001600160a01b03163314611c5e5760405162461bcd60e51b815260206004820181905260248201527f4f776e61626c653a2063616c6c6572206973206e6f7420746865206f776e65726044820152606401610965565b60005b825181101561201357613669858585848151811061364f5761364f614f7e565b6020026020010151858581518110611c2c57611c2c614f7e565b60010161362f565b6001600160a01b0383166136a357604051633899e57b60e01b81526001600160a01b0384166004820152602401610965565b6001600160a01b038316600090815260676020526040902054156136e557604051636822fa9960e11b81526001600160a01b0384166004820152602401610965565b60648263ffffffff1611156137245760405163424f515b60e11b81526001600160a01b038416600482015263ffffffff83166024820152604401610965565b428163ffffffff1611156137625760405163faac476360e01b81526001600160a01b038416600482015263ffffffff82166024820152604401610965565b604080516080810182526001600160a01b03808616825260006020830181815263ffffffff86811695850195865287811660608601908152606580546001818101835591865296517f8ff97419363ffd7000167f130ef7168fbea05faf9251824ca5043f113cc6a7c790970180549451985192518416600160e01b026001600160e01b03938516600160c01b02939093166001600160c01b0399909416600160a01b026001600160c01b0319909516979096169690961792909217959095169490941793909317905560668054839061383c908490614faa565b90915550506066546001600160a01b038516600081815260676020526040908190209290925590517f13ca1f9a974ca1b85618843282dc1981c63a62c389aa5cf6e4a31937f8434e73906138a5908590879063ffffffff92831681529116602082015260400190565b60405180910390a250505050565b600054610100900460ff166138da5760405162461bcd60e51b815260040161096590615790565b6138e2613d07565b6138ef8686868686613d36565b6001600160a01b03811661390a57613905611c4c565b613913565b61391381612c5c565b505050505050565b6000613928838584613dda565b63ffffffff84166000818152606a6020908152604091829020549151600160201b9092046001600160a01b031682529293506001600160e01b031988169284917f20ffb62aa5e31e4b559317e8af8f877e19a9126fd6ff1fee93bcf06e59d385cc910160405180910390a45050505050565b603380546001600160a01b038381166001600160a01b0319831681179093556040519116919082907f8be0079c531659141344cd1fd0a4f28419497f9722a3daafe3b4186f6b6457e090600090a35050565b6000817812725dd1d243aba0e75fe645cc4873f9e65afe688c928e1f21811115613a2c5760405163edc236ad60e01b815260048101849052602401610965565b613a4261257b670de0b6b3a76400008302613f37565b9392505050565b6001600160a01b03821660009081526067602052604081205490819003613a8e5760405163c6040d1d60e01b81526001600160a01b0384166004820152602401610965565b60648263ffffffff161115613acd5760405163424f515b60e11b81526001600160a01b038416600482015263ffffffff83166024820152604401610965565b6001600160a01b038316600090815260676020526040812054606590613af59060019061509b565b81548110613b0557613b05614f7e565b60009182526020918290200180546001600160e01b0316600160e01b63ffffffff87169081029190911782556040519081529092506001600160a01b038616917f597a24f4063494925c9b40150fd455db446fcc9046ddb9a1ded3ee8fad6b988491016138a5565b4260005b606554811015613cab57600060658281548110613b9057613b90614f7e565b600091825260208220018054909250600160e01b900463ffffffff1615613c21578154600090600160a01b900463ffffffff16613bdb578254600160c01b900463ffffffff16613be5565b60685463ffffffff165b90506000613bf382876157db565b8454909150606490613c1290600160e01b900463ffffffff16836157f8565b613c1c9190615820565b925050505b815481908390601490613c42908490600160a01b900463ffffffff166152d0565b82546101009290920a63ffffffff818102199093169183160217909155835460405191841682526001600160a01b031691507f780f517310a8481b4817e26f9d1a336e49e7522775e8e6b4fb22c73908be6ce69060200160405180910390a25050600101613b71565b6040805163ffffffff84168152602081018390527f896e364af402e453909cff1f8bb117d283d37a717e7cf4a5c5b88be2197fa09f910160405180910390a1506068805463ffffffff191663ffffffff92909216919091179055565b600054610100900460ff16613d2e5760405162461bcd60e51b815260040161096590615790565b611c5e6140ae565b600054610100900460ff16613d5d5760405162461bcd60e51b815260040161096590615790565b6068805463ffffffff909516600160c01b0263ffffffff60c01b196001600160a01b03978816600160201b0216640100000000600160e01b03199096169590951794909417909355606980549285166001600160a01b0319938416179055606b8054918516918316919091179055606c8054929093169116179055565b63ffffffff8084166000908152606a6020526040812054909185911615801590613e28575063ffffffff81166000908152606a6020526040902054600160201b90046001600160a01b031615155b613e805760405162461bcd60e51b815260206004820152602360248201527f4e6574776f726b52656769737472793a2021737570706f72746564206e6574776044820152626f726b60e81b6064820152608401610965565b60685463ffffffff8087166000908152606a6020526040808220805460019091015491516345560b5d60e11b81526001600160a01b03600160201b96879004811696638aac16ba968b96613eeb96918616959290920483169391921690829081908e90600401615843565b60206040518083038185885af1158015613f09573d6000803e3d6000fd5b50505050506040513d601f19601f82011682018060405250810190613f2e919061589e565b95945050505050565b600081600003613f4957506000919050565b50600181600160801b8110613f635760409190911b9060801c5b680100000000000000008110613f7e5760209190911b9060401c5b600160201b8110613f945760109190911b9060201c5b620100008110613fa95760089190911b9060101c5b6101008110613fbd5760049190911b9060081c5b60108110613fd05760029190911b9060041c5b60048110613fe057600182901b91505b6001828481613ff157613ff16152a6565b048301901c91506001828481614009576140096152a6565b048301901c91506001828481614021576140216152a6565b048301901c91506001828481614039576140396152a6565b048301901c91506001828481614051576140516152a6565b048301901c91506001828481614069576140696152a6565b048301901c91506001828481614081576140816152a6565b048301901c91506000828481614099576140996152a6565b0490508083106140a7578092505b5050919050565b600054610100900460ff166140d55760405162461bcd60e51b815260040161096590615790565b611c5e3361399a565b6001600160a01b0381168114612cd257600080fd5b63ffffffff81168114612cd257600080fd5b60008083601f84011261411757600080fd5b5081356001600160401b0381111561412e57600080fd5b6020830191508360208260051b850101111561414957600080fd5b9250929050565b6000806000806000806080878903121561416957600080fd5b8635614174816140de565b95506020870135614184816140f3565b945060408701356001600160401b03808211156141a057600080fd5b6141ac8a838b01614105565b909650945060608901359150808211156141c557600080fd5b506141d289828a01614105565b979a9699509497509295939492505050565b6000806000606084860312156141f957600080fd5b8335614204816140de565b92506020840135614214816140f3565b91506040840135614224816140f3565b809150509250925092565b6000806000806040858703121561424557600080fd5b84356001600160401b038082111561425c57600080fd5b61426888838901614105565b9096509450602087013591508082111561428157600080fd5b5061428e87828801614105565b95989497509550505050565b6000602082840312156142ac57600080fd5b8135613a42816140de565b80516001600160a01b0316825260208082015163ffffffff9081169184019190915260408083015182169084015260609182015116910152565b608081016142ff82846142b7565b92915050565b600080600080600080600060a0888a03121561432057600080fd5b873561432b816140de565b9650602088013561433b816140f3565b9550604088013561434b816140f3565b945060608801356001600160401b038082111561436757600080fd5b6143738b838c01614105565b909650945060808a013591508082111561438c57600080fd5b506143998a828b01614105565b989b979a50959850939692959293505050565b60008060008060008060006080888a0312156143c757600080fd5b87356001600160401b03808211156143de57600080fd5b6143ea8b838c01614105565b909950975060208a013591506143ff826140f3565b9095506040890135908082111561441557600080fd5b6144218b838c01614105565b909650945060608a013591508082111561438c57600080fd5b634e487b7160e01b600052604160045260246000fd5b604051601f8201601f191681016001600160401b03811182821017156144785761447861443a565b604052919050565b600082601f83011261449157600080fd5b81356001600160401b038111156144aa576144aa61443a565b6144bd601f8201601f1916602001614450565b8181528460208386010111156144d257600080fd5b816020850160208301376000918101602001919091529392505050565b60006020828403121561450157600080fd5b81356001600160401b0381111561451757600080fd5b61452384828501614480565b949350505050565b60008060008060008060008060008060a08b8d03121561454a57600080fd5b8a356001600160401b038082111561456157600080fd5b61456d8e838f01614105565b909c509a5060208d013591508082111561458657600080fd5b6145928e838f01614105565b909a50985060408d01359150808211156145ab57600080fd5b6145b78e838f01614105565b909850965060608d01359150808211156145d057600080fd5b6145dc8e838f01614105565b909650945060808d01359150808211156145f557600080fd5b506146028d828e01614105565b915080935050809150509295989b9194979a5092959850565b60006020828403121561462d57600080fd5b5035919050565b600081518084526020808501945080840160005b8381101561466d5781516001600160a01b031687529582019590820190600101614648565b509495945050505050565b600081518084526020808501945080840160005b8381101561466d57815163ffffffff168752958201959082019060010161468c565b6060815260006146c16060830186614634565b82810360208401526146d38186614678565b905082810360408401526146e78185614678565b9695505050505050565b60006001600160401b0382111561470a5761470a61443a565b5060051b60200190565b600082601f83011261472557600080fd5b8135602061473a614735836146f1565b614450565b82815260059290921b8401810191818101908684111561475957600080fd5b8286015b8481101561477d578035614770816140f3565b835291830191830161475d565b509695505050505050565b600082601f83011261479957600080fd5b813560206147a9614735836146f1565b82815260059290921b840181019181810190868411156147c857600080fd5b8286015b8481101561477d5780356147df816140de565b83529183019183016147cc565b600082601f8301126147fd57600080fd5b8135602061480d614735836146f1565b82815260059290921b8401810191818101908684111561482c57600080fd5b8286015b8481101561477d5780358352918301918301614830565b60008060006060848603121561485c57600080fd5b83356001600160401b038082111561487357600080fd5b61487f87838801614714565b9450602086013591508082111561489557600080fd5b6148a187838801614788565b935060408601359150808211156148b757600080fd5b506148c4868287016147ec565b9150509250925092565b60008082840360808112156148e257600080fd5b83356148ed816140f3565b92506060601f198201121561490157600080fd5b50604051606081018181106001600160401b03821117156149245761492461443a565b6040526020840135614935816140f3565b81526040840135614945816140de565b60208201526060840135614958816140de565b6040820152919491935090915050565b60008060006040848603121561497d57600080fd5b83356001600160401b0381111561499357600080fd5b61499f86828701614105565b9094509250506020840135614224816140f3565b6040815260006149c66040830185614634565b8281036020840152613f2e8185614678565b6000602082840312156149ea57600080fd5b8135613a42816140f3565b6020808252825182820181905260009190848201906040850190845b81811015614a3757614a248385516142b7565b9284019260809290920191600101614a11565b50909695505050505050565b60008060008060808587031215614a5957600080fd5b84356001600160401b0380821115614a7057600080fd5b614a7c88838901614714565b95506020870135915080821115614a9257600080fd5b614a9e88838901614788565b94506040870135915080821115614ab457600080fd5b614ac088838901614788565b93506060870135915080821115614ad657600080fd5b50614ae3878288016147ec565b91505092959194509250565b600060208284031215614b0157600080fd5b81356001600160401b03811115614b1757600080fd5b61452384828501614788565b60008060408385031215614b3657600080fd5b8235614b41816140de565b91506020830135614b51816140de565b809150509250929050565b60008060408385031215614b6f57600080fd5b8235614b7a816140de565b91506020830135614b51816140f3565b60008060408385031215614b9d57600080fd5b82356001600160401b0380821115614bb457600080fd5b614bc086838701614788565b93506020850135915080821115614bd657600080fd5b50614be385828601614714565b9150509250929050565b600080600060608486031215614c0257600080fd5b83356001600160401b0380821115614c1957600080fd5b614c2587838801614788565b94506020860135915080821115614c3b57600080fd5b614c4787838801614714565b93506040860135915080821115614c5d57600080fd5b506148c486828701614714565b600080600080600060808688031215614c8257600080fd5b85356001600160401b03811115614c9857600080fd5b614ca488828901614105565b9096509450506020860135614cb8816140de565b92506040860135614cc8816140de565b91506060860135614cd8816140f3565b809150509295509295909350565b600080600060608486031215614cfb57600080fd5b8335614d06816140de565b92506020840135614d16816140f3565b91506040840135614224816140de565b60008060008060608587031215614d3c57600080fd5b84356001600160401b03811115614d5257600080fd5b614d5e87828801614105565b9095509350506020850135614d72816140de565b91506040850135614d82816140f3565b939692955090935050565b60008060008060008060c08789031215614da657600080fd5b86359550602087013594506040870135614dbf816140de565b93506060870135614dcf816140de565b92506080870135614ddf816140f3565b915060a08701356001600160401b03811115614dfa57600080fd5b614e0689828a01614480565b9150509295509295509295565b60005b83811015614e2e578181015183820152602001614e16565b50506000910152565b60008151808452614e4f816020860160208601614e13565b601f01601f19169290920160200192915050565b602081526000613a426020830184614e37565b6000806000806000806000806080898b031215614e9257600080fd5b88356001600160401b0380821115614ea957600080fd5b614eb58c838d01614105565b909a50985060208b0135915080821115614ece57600080fd5b614eda8c838d01614105565b909850965060408b0135915080821115614ef357600080fd5b614eff8c838d01614105565b909650945060608b0135915080821115614f1857600080fd5b50614f258b828c01614105565b999c989b5096995094979396929594505050565b60208082526025908201527f4e6574776f726b52656769737472793a20706172616d732073697a65206d69736040820152640dac2e8c6d60db1b606082015260800190565b634e487b7160e01b600052603260045260246000fd5b634e487b7160e01b600052601160045260246000fd5b808201808211156142ff576142ff614f94565b60208082526028908201527f4e6574776f726b52656769737472793a206d73672e76616c7565203c2072656c604082015267617965724665657360c01b606082015260800190565b60208082526023908201527f4e6574776f726b52656769737472793a20216f776e6572207c7c2021757064616040820152623a32b960e91b606082015260800190565b63ffffffff60e01b8516815260806020820152600061506a6080830186614634565b828103604084015261507c8186614678565b905082810360608401526150908185614678565b979650505050505050565b818103818111156142ff576142ff614f94565b8183526000602080850194508260005b8581101561466d5781356150d1816140de565b6001600160a01b0316875295820195908201906001016150be565b63ffffffff60e01b8516815260606020820152600061510f6060830185876150ae565b905063ffffffff8316604083015295945050505050565b60008060008060008060c0878903121561513f57600080fd5b865161514a816140de565b602088015190965061515b816140f3565b604088015190955061516c816140de565b606088015190945061517d816140de565b608088015190935061518e816140de565b60a088015190925061519f816140de565b809150509295509295509295565b8183526000602080850194508260005b8581101561466d5781356151d0816140f3565b63ffffffff16875295820195908201906001016151bd565b63ffffffff60e01b8816815260806020820152600061520b60808301888a6150ae565b828103604084015261521e8187896151ad565b905082810360608401526152338185876151ad565b9a9950505050505050505050565b6001600160a01b038516815260806020820181905260009061526590830186614634565b82810360408401526152778186614678565b91505063ffffffff8316606083015295945050505050565b80820281158282048414176142ff576142ff614f94565b634e487b7160e01b600052601260045260246000fd5b6000826152cb576152cb6152a6565b500490565b63ffffffff8181168382160190808211156152ed576152ed614f94565b5092915050565b60006020828403121561530657600080fd5b8151613a42816140de565b600060018060a01b038089168352808816602084015260c0604084015261533b60c0840188614634565b838103606085015261534d8188614678565b63ffffffff969096166080850152509290921660a09091015250949350505050565b600060018060a01b03808816835260a0602084015261539160a0840188614634565b83810360408501526153a38188614678565b63ffffffff9690961660608501525092909216608090910152509392505050565b80516001600160e01b0319811681146153dc57600080fd5b919050565b6000602082840312156153f357600080fd5b613a42826153c4565b6000806000806080858703121561541257600080fd5b61541b856153c4565b9350602085015161542b816140de565b604086015190935061543c816140f3565b6060860151909250614d82816140f3565b60008060006060848603121561546257600080fd5b61546b846153c4565b9250602084015161547b816140de565b6040850151909250614224816140f3565b600082601f83011261549d57600080fd5b815160206154ad614735836146f1565b82815260059290921b840181019181810190868411156154cc57600080fd5b8286015b8481101561477d5780516154e3816140de565b83529183019183016154d0565b600082601f83011261550157600080fd5b81516020615511614735836146f1565b82815260059290921b8401810191818101908684111561553057600080fd5b8286015b8481101561477d578051615547816140f3565b8352918301918301615534565b6000806000806080858703121561556a57600080fd5b615573856153c4565b935060208501516001600160401b038082111561558f57600080fd5b61559b8883890161548c565b945060408701519150808211156155b157600080fd5b6155bd888389016154f0565b935060608701519150808211156155d357600080fd5b50614ae3878288016154f0565b6000806000606084860312156155f557600080fd5b6155fe846153c4565b925060208401516001600160401b038082111561561a57600080fd5b6156268783880161548c565b9350604086015191508082111561563c57600080fd5b506148c4868287016154f0565b60008060006060848603121561565e57600080fd5b615667846153c4565b925060208401516001600160401b0381111561568257600080fd5b61568e8682870161548c565b9250506040840151614224816140f3565b6040815260006156b26040830185614634565b905063ffffffff831660208301529392505050565b6000806000606084860312156156dc57600080fd5b6156e5846153c4565b925060208401516156f5816140de565b6040850151909250614224816140de565b6000806040838503121561571957600080fd5b615722836153c4565b91506020830151614b51816140de565b60008251615744818460208701614e13565b9190910192915050565b63ffffffff60e01b861681526060602082015260006157716060830186886150ae565b82810360408401526157848185876151ad565b98975050505050505050565b6020808252602b908201527f496e697469616c697a61626c653a20636f6e7472616374206973206e6f74206960408201526a6e697469616c697a696e6760a81b606082015260800190565b63ffffffff8281168282160390808211156152ed576152ed614f94565b63ffffffff81811683821602808216919082811461581857615818614f94565b505092915050565b600063ffffffff80841680615837576158376152a6565b92169190910492915050565b63ffffffff881681526001600160a01b0387811660208301528681166040830152851660608201526080810184905260a0810183905260e060c0820181905260009061589190830184614e37565b9998505050505050505050565b6000602082840312156158b057600080fd5b505191905056fea164736f6c6343000813000a",
  "devdoc": {
    "events": {
      "Initialized(uint8)": {
        "details": "Triggered when the contract has been initialized or reinitialized."
      }
    },
    "kind": "dev",
    "methods": {
      "acceptSplitControl()": {
        "details": "should accept control of the current 0xsplit in the state"
      },
      "batchNewMember(address[],uint32[],uint32[])": {
        "details": "Make sure array parameters are of the same length Activity multiplier could be set within 0-100 (%) range (i.e. 50 -> part-time 100 -> full-time) but it's up to the implementer to establish the multiplier boundaries",
        "params": {
          "_activityMultipliers": "Activity multipliers for each new member",
          "_members": "A list of member addresses to be added to the registry",
          "_startDates": "A list of dates when each member got active"
        }
      },
      "batchUpdateMember(address[],uint32[])": {
        "details": "Make sure members are in the registry Activity multiplier could be set within 0-100 (%) range (i.e. 50 -> part-time 100 -> full-time) but it's up to the implementer to establish the multiplier boundaries",
        "params": {
          "_activityMultipliers": "New activity multipliers for each member",
          "_members": "A list of existing members"
        }
      },
      "owner()": {
        "details": "Returns the address of the current owner."
      },
      "renounceOwnership()": {
        "details": "Leaves the contract without owner. It will not be possible to call `onlyOwner` functions anymore. Can only be called by the current owner. NOTE: Renouncing ownership will leave the contract without an owner, thereby removing any functionality that is only available to the owner."
      },
      "setNewMember(address,uint32,uint32)": {
        "details": "Activity multiplier could be set within 0-100 (%) range (i.e. 50 -> part-time 100 -> full-time) but it's up to the implementer to establish the multiplier boundaries",
        "params": {
          "_activityMultiplier": "The member activity multiplier",
          "_member": "The addres of the new member to be added to the registry",
          "_startDate": "The date member when the member got active"
        }
      },
      "setSplit(address,address)": {
        "details": "Should make sure the 0xSplit contract exists and isn't immutable (no owner) Also make sure controller has been already handed over to the manager or waiting to be accepted. If manager is already a potential controller, call acceptSplitControl()",
        "params": {
          "_split": "The address of the 0xSplit contract",
          "_splitMain": "The address of the 0xSplitMain"
        }
      },
      "transferOwnership(address)": {
        "details": "Transfers ownership of the contract to a new account (`newOwner`). Can only be called by the current owner."
      },
      "updateMember(address,uint32)": {
        "details": "Make sure member is in the registry Activity multiplier could be set within 0-100 (%) range (i.e. 50 -> part-time 100 -> full-time) but it's up to the implementer to establish the multiplier boundaries",
        "params": {
          "_activityMultiplier": "The member new activity multiplier",
          "_member": "The addres of the existing member"
        }
      },
      "updateSecondsActive()": {
        "details": "It should manage a lastActivityUpdate state variable to update activity based on last update epoch however for new members it should update seconds based each member startDate"
      }
    },
    "stateVariables": {
      "__gap": {
        "details": "This empty reserved space is put in place to allow future versions to add new variables without shifting down storage in the inheritance chain. See https://docs.openzeppelin.com/contracts/4.x/upgradeable#storage_gaps"
      }
    },
    "version": 1
  },
  "userdoc": {
    "errors": {
      "PRBMath_UD60x18_Sqrt_Overflow(uint256)": [
        {
          "notice": "Thrown when calculating the square root overflows UD60x18."
        }
      ]
    },
    "kind": "user",
    "methods": {
      "PERCENTAGE_SCALE()": {
        "notice": "constant to scale uints into percentages (1e6 == 100%)"
      },
      "acceptSplitControl()": {
        "notice": "Accepts control of the current 0xSplit contract"
      },
      "batchNewMember(address[],uint32[],uint32[])": {
        "notice": "Adds a new set of members to the registry"
      },
      "batchUpdateMember(address[],uint32[])": {
        "notice": "Updates the activity multiplier of a set of existing members"
      },
      "setNewMember(address,uint32,uint32)": {
        "notice": "Adds a new member to the registry"
      },
      "setSplit(address,address)": {
        "notice": "Updates the addresses for the 0xSplitMain proxy and 0xSplit contract"
      },
      "updateMember(address,uint32)": {
        "notice": "Updates the activity multiplier of an existing member"
      },
      "updateSecondsActive()": {
        "notice": "Updates seconds active for each member since the last update epoch"
      },
      "xReceive(bytes32,uint256,address,address,uint32,bytes)": {
        "notice": "The receiver function as required by the IXReceiver interface."
      }
    },
    "version": 1
  },
  "storageLayout": {
    "storage": [
      {
        "astId": 829,
        "contract": "contracts/NetworkRegistry.sol:NetworkRegistry",
        "label": "_initialized",
        "offset": 0,
        "slot": "0",
        "type": "t_uint8"
      },
      {
        "astId": 832,
        "contract": "contracts/NetworkRegistry.sol:NetworkRegistry",
        "label": "_initializing",
        "offset": 1,
        "slot": "0",
        "type": "t_bool"
      },
      {
        "astId": 1316,
        "contract": "contracts/NetworkRegistry.sol:NetworkRegistry",
        "label": "__gap",
        "offset": 0,
        "slot": "1",
        "type": "t_array(t_uint256)50_storage"
      },
      {
        "astId": 701,
        "contract": "contracts/NetworkRegistry.sol:NetworkRegistry",
        "label": "_owner",
        "offset": 0,
        "slot": "51",
        "type": "t_address"
      },
      {
        "astId": 821,
        "contract": "contracts/NetworkRegistry.sol:NetworkRegistry",
        "label": "__gap",
        "offset": 0,
        "slot": "52",
        "type": "t_array(t_uint256)49_storage"
      },
      {
        "astId": 11656,
        "contract": "contracts/NetworkRegistry.sol:NetworkRegistry",
        "label": "members",
        "offset": 0,
        "slot": "101",
        "type": "t_array(t_struct(Member)11652_storage)dyn_storage"
      },
      {
        "astId": 11659,
        "contract": "contracts/NetworkRegistry.sol:NetworkRegistry",
        "label": "count",
        "offset": 0,
        "slot": "102",
        "type": "t_uint256"
      },
      {
        "astId": 11663,
        "contract": "contracts/NetworkRegistry.sol:NetworkRegistry",
        "label": "memberIdxs",
        "offset": 0,
        "slot": "103",
        "type": "t_mapping(t_address,t_uint256)"
      },
      {
        "astId": 11665,
        "contract": "contracts/NetworkRegistry.sol:NetworkRegistry",
        "label": "lastActivityUpdate",
        "offset": 0,
        "slot": "104",
        "type": "t_uint32"
      },
      {
        "astId": 8508,
        "contract": "contracts/NetworkRegistry.sol:NetworkRegistry",
        "label": "connext",
        "offset": 4,
        "slot": "104",
        "type": "t_contract(IConnext)285"
      },
      {
        "astId": 8510,
        "contract": "contracts/NetworkRegistry.sol:NetworkRegistry",
        "label": "updaterDomain",
        "offset": 24,
        "slot": "104",
        "type": "t_uint32"
      },
      {
        "astId": 8512,
        "contract": "contracts/NetworkRegistry.sol:NetworkRegistry",
        "label": "updater",
        "offset": 0,
        "slot": "105",
        "type": "t_address"
      },
      {
        "astId": 8517,
        "contract": "contracts/NetworkRegistry.sol:NetworkRegistry",
        "label": "networkRegistry",
        "offset": 0,
        "slot": "106",
        "type": "t_mapping(t_uint32,t_struct(NetworkRegistry)11116_storage)"
      },
      {
        "astId": 8520,
        "contract": "contracts/NetworkRegistry.sol:NetworkRegistry",
        "label": "splitMain",
        "offset": 0,
        "slot": "107",
        "type": "t_contract(ISplitMain)11527"
      },
      {
        "astId": 8522,
        "contract": "contracts/NetworkRegistry.sol:NetworkRegistry",
        "label": "split",
        "offset": 0,
        "slot": "108",
        "type": "t_address"
      },
      {
        "astId": 10674,
        "contract": "contracts/NetworkRegistry.sol:NetworkRegistry",
        "label": "__gap",
        "offset": 0,
        "slot": "109",
        "type": "t_array(t_uint256)45_storage"
      }
    ],
    "types": {
      "t_address": {
        "encoding": "inplace",
        "label": "address",
        "numberOfBytes": "20"
      },
      "t_array(t_struct(Member)11652_storage)dyn_storage": {
        "base": "t_struct(Member)11652_storage",
        "encoding": "dynamic_array",
        "label": "struct MemberRegistry.Member[]",
        "numberOfBytes": "32"
      },
      "t_array(t_uint256)45_storage": {
        "base": "t_uint256",
        "encoding": "inplace",
        "label": "uint256[45]",
        "numberOfBytes": "1440"
      },
      "t_array(t_uint256)49_storage": {
        "base": "t_uint256",
        "encoding": "inplace",
        "label": "uint256[49]",
        "numberOfBytes": "1568"
      },
      "t_array(t_uint256)50_storage": {
        "base": "t_uint256",
        "encoding": "inplace",
        "label": "uint256[50]",
        "numberOfBytes": "1600"
      },
      "t_bool": {
        "encoding": "inplace",
        "label": "bool",
        "numberOfBytes": "1"
      },
      "t_contract(IConnext)285": {
        "encoding": "inplace",
        "label": "contract IConnext",
        "numberOfBytes": "20"
      },
      "t_contract(ISplitMain)11527": {
        "encoding": "inplace",
        "label": "contract ISplitMain",
        "numberOfBytes": "20"
      },
      "t_mapping(t_address,t_uint256)": {
        "encoding": "mapping",
        "key": "t_address",
        "label": "mapping(address => uint256)",
        "numberOfBytes": "32",
        "value": "t_uint256"
      },
      "t_mapping(t_uint32,t_struct(NetworkRegistry)11116_storage)": {
        "encoding": "mapping",
        "key": "t_uint32",
        "label": "mapping(uint32 => struct INetworkMemberRegistry.NetworkRegistry)",
        "numberOfBytes": "32",
        "value": "t_struct(NetworkRegistry)11116_storage"
      },
      "t_struct(Member)11652_storage": {
        "encoding": "inplace",
        "label": "struct MemberRegistry.Member",
        "members": [
          {
            "astId": 11645,
            "contract": "contracts/NetworkRegistry.sol:NetworkRegistry",
            "label": "account",
            "offset": 0,
            "slot": "0",
            "type": "t_address"
          },
          {
            "astId": 11647,
            "contract": "contracts/NetworkRegistry.sol:NetworkRegistry",
            "label": "secondsActive",
            "offset": 20,
            "slot": "0",
            "type": "t_uint32"
          },
          {
            "astId": 11649,
            "contract": "contracts/NetworkRegistry.sol:NetworkRegistry",
            "label": "startDate",
            "offset": 24,
            "slot": "0",
            "type": "t_uint32"
          },
          {
            "astId": 11651,
            "contract": "contracts/NetworkRegistry.sol:NetworkRegistry",
            "label": "activityMultiplier",
            "offset": 28,
            "slot": "0",
            "type": "t_uint32"
          }
        ],
        "numberOfBytes": "32"
      },
      "t_struct(NetworkRegistry)11116_storage": {
        "encoding": "inplace",
        "label": "struct INetworkMemberRegistry.NetworkRegistry",
        "members": [
          {
            "astId": 11111,
            "contract": "contracts/NetworkRegistry.sol:NetworkRegistry",
            "label": "domainId",
            "offset": 0,
            "slot": "0",
            "type": "t_uint32"
          },
          {
            "astId": 11113,
            "contract": "contracts/NetworkRegistry.sol:NetworkRegistry",
            "label": "registryAddress",
            "offset": 4,
            "slot": "0",
            "type": "t_address"
          },
          {
            "astId": 11115,
            "contract": "contracts/NetworkRegistry.sol:NetworkRegistry",
            "label": "delegate",
            "offset": 0,
            "slot": "1",
            "type": "t_address"
          }
        ],
        "numberOfBytes": "64"
      },
      "t_uint256": {
        "encoding": "inplace",
        "label": "uint256",
        "numberOfBytes": "32"
      },
      "t_uint32": {
        "encoding": "inplace",
        "label": "uint32",
        "numberOfBytes": "4"
      },
      "t_uint8": {
        "encoding": "inplace",
        "label": "uint8",
        "numberOfBytes": "1"
      }
    }
  }
}