{
  "address": "0xd1a8c3b7F7250b50E352b51d148A29f24C0CeD62",
  "abi": [
    {
      "inputs": [],
      "stateMutability": "nonpayable",
      "type": "constructor"
    },
    {
      "inputs": [],
      "name": "ERC1167FailedCreateClone",
      "type": "error"
    },
    {
      "anonymous": false,
      "inputs": [
        {
          "indexed": true,
          "internalType": "address",
          "name": "_registry",
          "type": "address"
        },
        {
          "indexed": false,
          "internalType": "string",
          "name": "_details",
          "type": "string"
        },
        {
          "indexed": false,
          "internalType": "bytes",
          "name": "_initializationParams",
          "type": "bytes"
        }
      ],
      "name": "NetworkRegistrySummoned",
      "type": "event"
    },
    {
      "inputs": [
        {
          "internalType": "address",
          "name": "_singleton",
          "type": "address"
        },
        {
          "internalType": "string",
          "name": "_details",
          "type": "string"
        },
        {
          "internalType": "bytes",
          "name": "_initializationParams",
          "type": "bytes"
        }
      ],
      "name": "summonRegistry",
      "outputs": [
        {
          "internalType": "address",
          "name": "",
          "type": "address"
        }
      ],
      "stateMutability": "nonpayable",
      "type": "function"
    },
    {
      "inputs": [
        {
          "internalType": "address",
          "name": "_singleton",
          "type": "address"
        },
        {
          "internalType": "string",
          "name": "_details",
          "type": "string"
        },
        {
          "internalType": "bytes",
          "name": "_initializationParams",
          "type": "bytes"
        },
        {
          "internalType": "bytes32",
          "name": "_saltNonce",
          "type": "bytes32"
        }
      ],
      "name": "summonRegistryDeterministic",
      "outputs": [
        {
          "internalType": "address",
          "name": "",
          "type": "address"
        }
      ],
      "stateMutability": "nonpayable",
      "type": "function"
    }
  ],
  "transactionHash": "0xf21ce93ff1e45e3f4afc4cca84fea194dd3dfa0e8b1af55703ae6a4e761e5d7a",
  "args": [],
  "numDeployments": 1,
  "solcInputHash": "3b0a184e3e8854a76afdcb624eb0d2a0",
  "bytecode": "0x608060405234801561001057600080fd5b50610520806100206000396000f3fe608060405234801561001057600080fd5b50600436106100365760003560e01c80630df5d1081461003b5780639acdee311461006a575b600080fd5b61004e610049366004610395565b61007d565b6040516001600160a01b03909116815260200160405180910390f35b61004e610078366004610411565b61013a565b60008061008a86846101f5565b60405163439fab9160e01b815290915081906001600160a01b0382169063439fab91906100bb9088906004016104cb565b600060405180830381600087803b1580156100d557600080fd5b505af11580156100e9573d6000803e3d6000fd5b50505050816001600160a01b03167f294b6d62a18a8814a34f5b7ef8ef6f7caa001ed6bbe1947b5791128a3c63562987876040516101289291906104e5565b60405180910390a25095945050505050565b60008061014685610269565b60405163439fab9160e01b815290915081906001600160a01b0382169063439fab91906101779087906004016104cb565b600060405180830381600087803b15801561019157600080fd5b505af11580156101a5573d6000803e3d6000fd5b50505050816001600160a01b03167f294b6d62a18a8814a34f5b7ef8ef6f7caa001ed6bbe1947b5791128a3c63562986866040516101e49291906104e5565b60405180910390a250949350505050565b6000763d602d80600a3d3981f3363d3d373d3d3d363d730000008360601b60e81c176000526e5af43d82803e903d91602b57fd5bf38360781b1760205281603760096000f590506001600160a01b038116610263576040516330be1a3d60e21b815260040160405180910390fd5b92915050565b6000763d602d80600a3d3981f3363d3d373d3d3d363d730000008260601b60e81c176000526e5af43d82803e903d91602b57fd5bf38260781b17602052603760096000f090506001600160a01b0381166102d6576040516330be1a3d60e21b815260040160405180910390fd5b919050565b80356001600160a01b03811681146102d657600080fd5b634e487b7160e01b600052604160045260246000fd5b600082601f83011261031957600080fd5b813567ffffffffffffffff80821115610334576103346102f2565b604051601f8301601f19908116603f0116810190828211818310171561035c5761035c6102f2565b8160405283815286602085880101111561037557600080fd5b836020870160208301376000602085830101528094505050505092915050565b600080600080608085870312156103ab57600080fd5b6103b4856102db565b9350602085013567ffffffffffffffff808211156103d157600080fd5b6103dd88838901610308565b945060408701359150808211156103f357600080fd5b5061040087828801610308565b949793965093946060013593505050565b60008060006060848603121561042657600080fd5b61042f846102db565b9250602084013567ffffffffffffffff8082111561044c57600080fd5b61045887838801610308565b9350604086013591508082111561046e57600080fd5b5061047b86828701610308565b9150509250925092565b6000815180845260005b818110156104ab5760208185018101518683018201520161048f565b506000602082860101526020601f19601f83011685010191505092915050565b6020815260006104de6020830184610485565b9392505050565b6040815260006104f86040830185610485565b828103602084015261050a8185610485565b9594505050505056fea164736f6c6343000815000a",
  "devdoc": {
    "author": "DAOHaus",
    "details": "Proxy factory using EIP 1167 standard. Singleton contract must inherit NetworkRegistry",
    "errors": {
      "ERC1167FailedCreateClone()": [
        {
          "details": "A clone instance deployment failed."
        }
      ]
    },
    "events": {
      "NetworkRegistrySummoned(address,string,bytes)": {
        "params": {
          "_details": "registry name/details as string",
          "_initializationParams": "abi-encoded parameters used to setup the registry",
          "_registry": "new NetworkRegistry address"
        }
      }
    },
    "kind": "dev",
    "methods": {
      "summonRegistry(address,string,bytes)": {
        "details": "Singleton contract must inherit NetworkRegistry",
        "params": {
          "_details": "registry name/details as string",
          "_initializationParams": "abi-encoded parameters used to setup the registry",
          "_singleton": "NetworkRegistry singleton contract address"
        },
        "returns": {
          "_0": "the new NetworkRegistry address"
        }
      },
      "summonRegistryDeterministic(address,string,bytes,bytes32)": {
        "details": "Singleton contract must inherit NetworkRegistry Using the same {_singleton} {salt} multiple time will revert",
        "params": {
          "_details": "registry name/details as string",
          "_initializationParams": "abi-encoded parameters used to setup the registry",
          "_saltNonce": "unique salt nonce for the contract deployment",
          "_singleton": "NetworkRegistry singleton contract address"
        },
        "returns": {
          "_0": "the new NetworkRegistry address"
        }
      }
    },
    "title": "A NetworkRegistry minimal proxy factory",
    "version": 1
  },
  "userdoc": {
    "events": {
      "NetworkRegistrySummoned(address,string,bytes)": {
        "notice": "emitted after a new NetworkRegistry has been summoned"
      }
    },
    "kind": "user",
    "methods": {
      "summonRegistry(address,string,bytes)": {
        "notice": "Summons a new NetworkRegistry"
      },
      "summonRegistryDeterministic(address,string,bytes,bytes32)": {
        "notice": "Summons a new NetworkRegistry deterministically using the create2 opcode"
      }
    },
    "notice": "Summons a new NetworkRegistry using a specified registry singleton",
    "version": 1
  },
  "storageLayout": {
    "storage": [],
    "types": null
  }
}