{
  "address": "0xa5D9469f11C277A91d718D338eece150d93996b3",
  "abi": [
    {
      "inputs": [],
      "stateMutability": "nonpayable",
      "type": "constructor"
    },
    {
      "inputs": [
        {
          "internalType": "address",
          "name": "_member",
          "type": "address"
        },
        {
          "internalType": "uint32",
          "name": "_activityMultiplier",
          "type": "uint32"
        }
      ],
      "name": "InvalidMember__ActivityMultiplier",
      "type": "error"
    },
    {
      "inputs": [
        {
          "internalType": "address",
          "name": "_member",
          "type": "address"
        }
      ],
      "name": "InvalidMember__Address",
      "type": "error"
    },
    {
      "inputs": [
        {
          "internalType": "address",
          "name": "_member",
          "type": "address"
        },
        {
          "internalType": "uint32",
          "name": "_startDate",
          "type": "uint32"
        }
      ],
      "name": "InvalidMember__StartDateInTheFuture",
      "type": "error"
    },
    {
      "inputs": [
        {
          "internalType": "uint256",
          "name": "_index",
          "type": "uint256"
        }
      ],
      "name": "InvalidSplit__AccountsOutOfOrder",
      "type": "error"
    },
    {
      "inputs": [],
      "name": "InvalidSplit__MemberListSizeMismatch",
      "type": "error"
    },
    {
      "inputs": [
        {
          "internalType": "address",
          "name": "_member",
          "type": "address"
        }
      ],
      "name": "Member__AlreadyRegistered",
      "type": "error"
    },
    {
      "inputs": [
        {
          "internalType": "address",
          "name": "_member",
          "type": "address"
        }
      ],
      "name": "Member__NotRegistered",
      "type": "error"
    },
    {
      "inputs": [
        {
          "internalType": "UD60x18",
          "name": "x",
          "type": "uint256"
        }
      ],
      "name": "PRBMath_UD60x18_Sqrt_Overflow",
      "type": "error"
    },
    {
      "inputs": [],
      "name": "Split_ControlNotHandedOver",
      "type": "error"
    },
    {
      "anonymous": false,
      "inputs": [
        {
          "indexed": false,
          "internalType": "uint8",
          "name": "version",
          "type": "uint8"
        }
      ],
      "name": "Initialized",
      "type": "event"
    },
    {
      "anonymous": false,
      "inputs": [
        {
          "indexed": true,
          "internalType": "uint32",
          "name": "_chainId",
          "type": "uint32"
        },
        {
          "indexed": true,
          "internalType": "address",
          "name": "_registryAddress",
          "type": "address"
        },
        {
          "indexed": true,
          "internalType": "uint32",
          "name": "_domainId",
          "type": "uint32"
        },
        {
          "indexed": false,
          "internalType": "address",
          "name": "_delegate",
          "type": "address"
        }
      ],
      "name": "NetworkRegistryUpdated",
      "type": "event"
    },
    {
      "anonymous": false,
      "inputs": [
        {
          "indexed": true,
          "internalType": "address",
          "name": "_member",
          "type": "address"
        },
        {
          "indexed": false,
          "internalType": "uint32",
          "name": "_startDate",
          "type": "uint32"
        },
        {
          "indexed": false,
          "internalType": "uint32",
          "name": "_activityMultiplier",
          "type": "uint32"
        }
      ],
      "name": "NewMember",
      "type": "event"
    },
    {
      "anonymous": false,
      "inputs": [
        {
          "indexed": false,
          "internalType": "address",
          "name": "_connext",
          "type": "address"
        },
        {
          "indexed": false,
          "internalType": "uint32",
          "name": "_updaterDomain",
          "type": "uint32"
        },
        {
          "indexed": false,
          "internalType": "address",
          "name": "_updater",
          "type": "address"
        }
      ],
      "name": "NewUpdaterConfig",
      "type": "event"
    },
    {
      "anonymous": false,
      "inputs": [
        {
          "indexed": true,
          "internalType": "address",
          "name": "previousOwner",
          "type": "address"
        },
        {
          "indexed": true,
          "internalType": "address",
          "name": "newOwner",
          "type": "address"
        }
      ],
      "name": "OwnershipTransferred",
      "type": "event"
    },
    {
      "anonymous": false,
      "inputs": [
        {
          "indexed": false,
          "internalType": "uint32",
          "name": "_timestamp",
          "type": "uint32"
        },
        {
          "indexed": false,
          "internalType": "uint256",
          "name": "_totalMemberUpdates",
          "type": "uint256"
        }
      ],
      "name": "RegistryActivityUpdate",
      "type": "event"
    },
    {
      "anonymous": false,
      "inputs": [
        {
          "indexed": false,
          "internalType": "address",
          "name": "_splitMain",
          "type": "address"
        },
        {
          "indexed": false,
          "internalType": "address",
          "name": "_split",
          "type": "address"
        }
      ],
      "name": "SplitUpdated",
      "type": "event"
    },
    {
      "anonymous": false,
      "inputs": [
        {
          "indexed": false,
          "internalType": "address",
          "name": "_split",
          "type": "address"
        },
        {
          "indexed": false,
          "internalType": "bytes32",
          "name": "_splitHash",
          "type": "bytes32"
        },
        {
          "indexed": false,
          "internalType": "uint32",
          "name": "_splitDistributorFee",
          "type": "uint32"
        }
      ],
      "name": "SplitsUpdated",
      "type": "event"
    },
    {
      "anonymous": false,
      "inputs": [
        {
          "indexed": true,
          "internalType": "bytes32",
          "name": "_transferId",
          "type": "bytes32"
        },
        {
          "indexed": true,
          "internalType": "uint32",
          "name": "_originDomain",
          "type": "uint32"
        },
        {
          "indexed": true,
          "internalType": "bytes4",
          "name": "_action",
          "type": "bytes4"
        },
        {
          "indexed": false,
          "internalType": "bool",
          "name": "_success",
          "type": "bool"
        },
        {
          "indexed": false,
          "internalType": "address",
          "name": "_originSender",
          "type": "address"
        }
      ],
      "name": "SyncActionPerformed",
      "type": "event"
    },
    {
      "anonymous": false,
      "inputs": [
        {
          "indexed": true,
          "internalType": "bytes32",
          "name": "_transferId",
          "type": "bytes32"
        },
        {
          "indexed": true,
          "internalType": "uint32",
          "name": "_chainId",
          "type": "uint32"
        },
        {
          "indexed": true,
          "internalType": "bytes4",
          "name": "_action",
          "type": "bytes4"
        },
        {
          "indexed": false,
          "internalType": "address",
          "name": "_registryAddress",
          "type": "address"
        }
      ],
      "name": "SyncMessageSubmitted",
      "type": "event"
    },
    {
      "anonymous": false,
      "inputs": [
        {
          "indexed": true,
          "internalType": "address",
          "name": "_member",
          "type": "address"
        },
        {
          "indexed": false,
          "internalType": "uint32",
          "name": "_activityMultiplier",
          "type": "uint32"
        }
      ],
      "name": "UpdateMember",
      "type": "event"
    },
    {
      "anonymous": false,
      "inputs": [
        {
          "indexed": true,
          "internalType": "address",
          "name": "_member",
          "type": "address"
        },
        {
          "indexed": false,
          "internalType": "uint32",
          "name": "_secondsActive",
          "type": "uint32"
        }
      ],
      "name": "UpdateMemberSeconds",
      "type": "event"
    },
    {
      "inputs": [
        {
          "internalType": "uint32[]",
          "name": "_chainIds",
          "type": "uint32[]"
        },
        {
          "internalType": "uint256[]",
          "name": "_relayerFees",
          "type": "uint256[]"
        }
      ],
      "name": "acceptNetworkSplitControl",
      "outputs": [],
      "stateMutability": "payable",
      "type": "function"
    },
    {
      "inputs": [],
      "name": "acceptSplitControl",
      "outputs": [],
      "stateMutability": "nonpayable",
      "type": "function"
    },
    {
      "inputs": [
        {
          "internalType": "address[]",
          "name": "_members",
          "type": "address[]"
        },
        {
          "internalType": "uint32[]",
          "name": "_activityMultipliers",
          "type": "uint32[]"
        },
        {
          "internalType": "uint32[]",
          "name": "_startDates",
          "type": "uint32[]"
        }
      ],
      "name": "batchNewMember",
      "outputs": [],
      "stateMutability": "nonpayable",
      "type": "function"
    },
    {
      "inputs": [
        {
          "internalType": "address[]",
          "name": "_members",
          "type": "address[]"
        },
        {
          "internalType": "uint32[]",
          "name": "_activityMultipliers",
          "type": "uint32[]"
        }
      ],
      "name": "batchUpdateMember",
      "outputs": [],
      "stateMutability": "nonpayable",
      "type": "function"
    },
    {
      "inputs": [
        {
          "internalType": "address[]",
          "name": "_sortedList",
          "type": "address[]"
        }
      ],
      "name": "calculate",
      "outputs": [
        {
          "internalType": "address[]",
          "name": "_receivers",
          "type": "address[]"
        },
        {
          "internalType": "uint32[]",
          "name": "_percentAllocations",
          "type": "uint32[]"
        }
      ],
      "stateMutability": "view",
      "type": "function"
    },
    {
      "inputs": [
        {
          "internalType": "address",
          "name": "_memberAddress",
          "type": "address"
        }
      ],
      "name": "calculateContributionOf",
      "outputs": [
        {
          "internalType": "uint256",
          "name": "",
          "type": "uint256"
        }
      ],
      "stateMutability": "view",
      "type": "function"
    },
    {
      "inputs": [
        {
          "components": [
            {
              "internalType": "address",
              "name": "account",
              "type": "address"
            },
            {
              "internalType": "uint32",
              "name": "secondsActive",
              "type": "uint32"
            },
            {
              "internalType": "uint32",
              "name": "startDate",
              "type": "uint32"
            },
            {
              "internalType": "uint32",
              "name": "activityMultiplier",
              "type": "uint32"
            }
          ],
          "internalType": "struct MemberRegistry.Member",
          "name": "_member",
          "type": "tuple"
        }
      ],
      "name": "calculateContributionOf",
      "outputs": [
        {
          "internalType": "uint256",
          "name": "",
          "type": "uint256"
        }
      ],
      "stateMutability": "pure",
      "type": "function"
    },
    {
      "inputs": [],
      "name": "calculateTotalContributions",
      "outputs": [
        {
          "internalType": "uint256",
          "name": "total",
          "type": "uint256"
        }
      ],
      "stateMutability": "view",
      "type": "function"
    },
    {
      "inputs": [
        {
          "internalType": "uint32[]",
          "name": "_chainIds",
          "type": "uint32[]"
        },
        {
          "internalType": "uint256[]",
          "name": "_relayerFees",
          "type": "uint256[]"
        }
      ],
      "name": "cancelNetworkSplitControlTransfer",
      "outputs": [],
      "stateMutability": "payable",
      "type": "function"
    },
    {
      "inputs": [],
      "name": "cancelSplitControlTransfer",
      "outputs": [],
      "stateMutability": "nonpayable",
      "type": "function"
    },
    {
      "inputs": [],
      "name": "connext",
      "outputs": [
        {
          "internalType": "contract IConnext",
          "name": "",
          "type": "address"
        }
      ],
      "stateMutability": "view",
      "type": "function"
    },
    {
      "inputs": [
        {
          "internalType": "address",
          "name": "_member",
          "type": "address"
        }
      ],
      "name": "getMember",
      "outputs": [
        {
          "components": [
            {
              "internalType": "address",
              "name": "account",
              "type": "address"
            },
            {
              "internalType": "uint32",
              "name": "secondsActive",
              "type": "uint32"
            },
            {
              "internalType": "uint32",
              "name": "startDate",
              "type": "uint32"
            },
            {
              "internalType": "uint32",
              "name": "activityMultiplier",
              "type": "uint32"
            }
          ],
          "internalType": "struct MemberRegistry.Member",
          "name": "",
          "type": "tuple"
        }
      ],
      "stateMutability": "view",
      "type": "function"
    },
    {
      "inputs": [],
      "name": "getMembers",
      "outputs": [
        {
          "components": [
            {
              "internalType": "address",
              "name": "account",
              "type": "address"
            },
            {
              "internalType": "uint32",
              "name": "secondsActive",
              "type": "uint32"
            },
            {
              "internalType": "uint32",
              "name": "startDate",
              "type": "uint32"
            },
            {
              "internalType": "uint32",
              "name": "activityMultiplier",
              "type": "uint32"
            }
          ],
          "internalType": "struct MemberRegistry.Member[]",
          "name": "",
          "type": "tuple[]"
        }
      ],
      "stateMutability": "view",
      "type": "function"
    },
    {
      "inputs": [],
      "name": "getMembersProperties",
      "outputs": [
        {
          "internalType": "address[]",
          "name": "",
          "type": "address[]"
        },
        {
          "internalType": "uint32[]",
          "name": "",
          "type": "uint32[]"
        },
        {
          "internalType": "uint32[]",
          "name": "",
          "type": "uint32[]"
        }
      ],
      "stateMutability": "view",
      "type": "function"
    },
    {
      "inputs": [
        {
          "internalType": "bytes",
          "name": "_initializationParams",
          "type": "bytes"
        }
      ],
      "name": "initialize",
      "outputs": [],
      "stateMutability": "nonpayable",
      "type": "function"
    },
    {
      "inputs": [],
      "name": "isMainRegistry",
      "outputs": [
        {
          "internalType": "bool",
          "name": "",
          "type": "bool"
        }
      ],
      "stateMutability": "view",
      "type": "function"
    },
    {
      "inputs": [],
      "name": "lastActivityUpdate",
      "outputs": [
        {
          "internalType": "uint32",
          "name": "",
          "type": "uint32"
        }
      ],
      "stateMutability": "view",
      "type": "function"
    },
    {
      "inputs": [
        {
          "internalType": "address",
          "name": "",
          "type": "address"
        }
      ],
      "name": "memberIdxs",
      "outputs": [
        {
          "internalType": "uint256",
          "name": "",
          "type": "uint256"
        }
      ],
      "stateMutability": "view",
      "type": "function"
    },
    {
      "inputs": [
        {
          "internalType": "uint256",
          "name": "",
          "type": "uint256"
        }
      ],
      "name": "members",
      "outputs": [
        {
          "internalType": "address",
          "name": "account",
          "type": "address"
        },
        {
          "internalType": "uint32",
          "name": "secondsActive",
          "type": "uint32"
        },
        {
          "internalType": "uint32",
          "name": "startDate",
          "type": "uint32"
        },
        {
          "internalType": "uint32",
          "name": "activityMultiplier",
          "type": "uint32"
        }
      ],
      "stateMutability": "view",
      "type": "function"
    },
    {
      "inputs": [
        {
          "internalType": "uint32",
          "name": "",
          "type": "uint32"
        }
      ],
      "name": "networkRegistry",
      "outputs": [
        {
          "internalType": "uint32",
          "name": "domainId",
          "type": "uint32"
        },
        {
          "internalType": "address",
          "name": "registryAddress",
          "type": "address"
        },
        {
          "internalType": "address",
          "name": "delegate",
          "type": "address"
        }
      ],
      "stateMutability": "view",
      "type": "function"
    },
    {
      "inputs": [],
      "name": "owner",
      "outputs": [
        {
          "internalType": "address",
          "name": "",
          "type": "address"
        }
      ],
      "stateMutability": "view",
      "type": "function"
    },
    {
      "inputs": [],
      "name": "renounceOwnership",
      "outputs": [],
      "stateMutability": "nonpayable",
      "type": "function"
    },
    {
      "inputs": [
        {
          "internalType": "address",
          "name": "_member",
          "type": "address"
        },
        {
          "internalType": "uint32",
          "name": "_activityMultiplier",
          "type": "uint32"
        },
        {
          "internalType": "uint32",
          "name": "_startDate",
          "type": "uint32"
        }
      ],
      "name": "setNewMember",
      "outputs": [],
      "stateMutability": "nonpayable",
      "type": "function"
    },
    {
      "inputs": [
        {
          "internalType": "address",
          "name": "_splitMain",
          "type": "address"
        },
        {
          "internalType": "address",
          "name": "_split",
          "type": "address"
        }
      ],
      "name": "setSplit",
      "outputs": [],
      "stateMutability": "nonpayable",
      "type": "function"
    },
    {
      "inputs": [
        {
          "internalType": "address",
          "name": "_connext",
          "type": "address"
        },
        {
          "internalType": "uint32",
          "name": "_updaterDomain",
          "type": "uint32"
        },
        {
          "internalType": "address",
          "name": "_updater",
          "type": "address"
        }
      ],
      "name": "setUpdaterConfig",
      "outputs": [],
      "stateMutability": "nonpayable",
      "type": "function"
    },
    {
      "inputs": [],
      "name": "split",
      "outputs": [
        {
          "internalType": "address",
          "name": "",
          "type": "address"
        }
      ],
      "stateMutability": "view",
      "type": "function"
    },
    {
      "inputs": [],
      "name": "splitMain",
      "outputs": [
        {
          "internalType": "contract ISplitMain",
          "name": "",
          "type": "address"
        }
      ],
      "stateMutability": "view",
      "type": "function"
    },
    {
      "inputs": [
        {
          "internalType": "address[]",
          "name": "_members",
          "type": "address[]"
        },
        {
          "internalType": "uint32[]",
          "name": "_activityMultipliers",
          "type": "uint32[]"
        },
        {
          "internalType": "uint32[]",
          "name": "_startDates",
          "type": "uint32[]"
        },
        {
          "internalType": "uint32[]",
          "name": "_chainIds",
          "type": "uint32[]"
        },
        {
          "internalType": "uint256[]",
          "name": "_relayerFees",
          "type": "uint256[]"
        }
      ],
      "name": "syncBatchNewMember",
      "outputs": [],
      "stateMutability": "payable",
      "type": "function"
    },
    {
      "inputs": [
        {
          "internalType": "address[]",
          "name": "_members",
          "type": "address[]"
        },
        {
          "internalType": "uint32[]",
          "name": "_activityMultipliers",
          "type": "uint32[]"
        },
        {
          "internalType": "uint32[]",
          "name": "_chainIds",
          "type": "uint32[]"
        },
        {
          "internalType": "uint256[]",
          "name": "_relayerFees",
          "type": "uint256[]"
        }
      ],
      "name": "syncBatchUpdateMember",
      "outputs": [],
      "stateMutability": "payable",
      "type": "function"
    },
    {
      "inputs": [
        {
          "internalType": "uint32[]",
          "name": "_chainIds",
          "type": "uint32[]"
        },
        {
          "internalType": "uint256[]",
          "name": "_relayerFees",
          "type": "uint256[]"
        }
      ],
      "name": "syncNetworkMemberRegistry",
      "outputs": [],
      "stateMutability": "payable",
      "type": "function"
    },
    {
      "inputs": [
        {
          "internalType": "address",
          "name": "_member",
          "type": "address"
        },
        {
          "internalType": "uint32",
          "name": "_activityMultiplier",
          "type": "uint32"
        },
        {
          "internalType": "uint32",
          "name": "_startDate",
          "type": "uint32"
        },
        {
          "internalType": "uint32[]",
          "name": "_chainIds",
          "type": "uint32[]"
        },
        {
          "internalType": "uint256[]",
          "name": "_relayerFees",
          "type": "uint256[]"
        }
      ],
      "name": "syncSetNewMember",
      "outputs": [],
      "stateMutability": "payable",
      "type": "function"
    },
    {
      "inputs": [
        {
          "internalType": "address[]",
          "name": "_sortedList",
          "type": "address[]"
        },
        {
          "internalType": "uint32",
          "name": "_splitDistributorFee",
          "type": "uint32"
        },
        {
          "internalType": "uint32[]",
          "name": "_chainIds",
          "type": "uint32[]"
        },
        {
          "internalType": "uint256[]",
          "name": "_relayerFees",
          "type": "uint256[]"
        }
      ],
      "name": "syncUpdateAll",
      "outputs": [],
      "stateMutability": "payable",
      "type": "function"
    },
    {
      "inputs": [
        {
          "internalType": "address",
          "name": "_member",
          "type": "address"
        },
        {
          "internalType": "uint32",
          "name": "_activityMultiplier",
          "type": "uint32"
        },
        {
          "internalType": "uint32[]",
          "name": "_chainIds",
          "type": "uint32[]"
        },
        {
          "internalType": "uint256[]",
          "name": "_relayerFees",
          "type": "uint256[]"
        }
      ],
      "name": "syncUpdateMember",
      "outputs": [],
      "stateMutability": "payable",
      "type": "function"
    },
    {
      "inputs": [
        {
          "internalType": "uint32[]",
          "name": "_chainIds",
          "type": "uint32[]"
        },
        {
          "internalType": "uint256[]",
          "name": "_relayerFees",
          "type": "uint256[]"
        }
      ],
      "name": "syncUpdateSecondsActive",
      "outputs": [],
      "stateMutability": "payable",
      "type": "function"
    },
    {
      "inputs": [
        {
          "internalType": "address[]",
          "name": "_sortedList",
          "type": "address[]"
        },
        {
          "internalType": "uint32",
          "name": "_splitDistributorFee",
          "type": "uint32"
        },
        {
          "internalType": "uint32[]",
          "name": "_chainIds",
          "type": "uint32[]"
        },
        {
          "internalType": "uint256[]",
          "name": "_relayerFees",
          "type": "uint256[]"
        }
      ],
      "name": "syncUpdateSplits",
      "outputs": [],
      "stateMutability": "payable",
      "type": "function"
    },
    {
      "inputs": [],
      "name": "totalMembers",
      "outputs": [
        {
          "internalType": "uint256",
          "name": "",
          "type": "uint256"
        }
      ],
      "stateMutability": "view",
      "type": "function"
    },
    {
      "inputs": [
        {
          "internalType": "uint32[]",
          "name": "_chainIds",
          "type": "uint32[]"
        },
        {
          "internalType": "address[]",
          "name": "_newControllers",
          "type": "address[]"
        },
        {
          "internalType": "uint256[]",
          "name": "_relayerFees",
          "type": "uint256[]"
        }
      ],
      "name": "transferNetworkSplitControl",
      "outputs": [],
      "stateMutability": "payable",
      "type": "function"
    },
    {
      "inputs": [
        {
          "internalType": "address",
          "name": "newOwner",
          "type": "address"
        }
      ],
      "name": "transferOwnership",
      "outputs": [],
      "stateMutability": "nonpayable",
      "type": "function"
    },
    {
      "inputs": [
        {
          "internalType": "address",
          "name": "_newController",
          "type": "address"
        }
      ],
      "name": "transferSplitControl",
      "outputs": [],
      "stateMutability": "nonpayable",
      "type": "function"
    },
    {
      "inputs": [
        {
          "internalType": "address[]",
          "name": "_sortedList",
          "type": "address[]"
        },
        {
          "internalType": "uint32",
          "name": "_splitDistributorFee",
          "type": "uint32"
        }
      ],
      "name": "updateAll",
      "outputs": [],
      "stateMutability": "nonpayable",
      "type": "function"
    },
    {
      "inputs": [
        {
          "internalType": "address",
          "name": "_member",
          "type": "address"
        },
        {
          "internalType": "uint32",
          "name": "_activityMultiplier",
          "type": "uint32"
        }
      ],
      "name": "updateMember",
      "outputs": [],
      "stateMutability": "nonpayable",
      "type": "function"
    },
    {
      "inputs": [
        {
          "internalType": "uint32",
          "name": "_chainId",
          "type": "uint32"
        },
        {
          "components": [
            {
              "internalType": "uint32",
              "name": "domainId",
              "type": "uint32"
            },
            {
              "internalType": "address",
              "name": "registryAddress",
              "type": "address"
            },
            {
              "internalType": "address",
              "name": "delegate",
              "type": "address"
            }
          ],
          "internalType": "struct INetworkMemberRegistry.Registry",
          "name": "_newRegistry",
          "type": "tuple"
        }
      ],
      "name": "updateNetworkRegistry",
      "outputs": [],
      "stateMutability": "nonpayable",
      "type": "function"
    },
    {
      "inputs": [
        {
          "internalType": "uint32[]",
          "name": "_chainIds",
          "type": "uint32[]"
        },
        {
          "internalType": "address[]",
          "name": "_splitsMain",
          "type": "address[]"
        },
        {
          "internalType": "address[]",
          "name": "_splits",
          "type": "address[]"
        },
        {
          "internalType": "uint256[]",
          "name": "_relayerFees",
          "type": "uint256[]"
        }
      ],
      "name": "updateNetworkSplit",
      "outputs": [],
      "stateMutability": "payable",
      "type": "function"
    },
    {
      "inputs": [],
      "name": "updateSecondsActive",
      "outputs": [],
      "stateMutability": "nonpayable",
      "type": "function"
    },
    {
      "inputs": [
        {
          "internalType": "address[]",
          "name": "_sortedList",
          "type": "address[]"
        },
        {
          "internalType": "uint32",
          "name": "_splitDistributorFee",
          "type": "uint32"
        }
      ],
      "name": "updateSplits",
      "outputs": [],
      "stateMutability": "nonpayable",
      "type": "function"
    },
    {
      "inputs": [],
      "name": "updater",
      "outputs": [
        {
          "internalType": "address",
          "name": "",
          "type": "address"
        }
      ],
      "stateMutability": "view",
      "type": "function"
    },
    {
      "inputs": [],
      "name": "updaterDomain",
      "outputs": [
        {
          "internalType": "uint32",
          "name": "",
          "type": "uint32"
        }
      ],
      "stateMutability": "view",
      "type": "function"
    },
    {
      "inputs": [
        {
          "internalType": "bytes32",
          "name": "_transferId",
          "type": "bytes32"
        },
        {
          "internalType": "uint256",
          "name": "",
          "type": "uint256"
        },
        {
          "internalType": "address",
          "name": "",
          "type": "address"
        },
        {
          "internalType": "address",
          "name": "_originSender",
          "type": "address"
        },
        {
          "internalType": "uint32",
          "name": "_origin",
          "type": "uint32"
        },
        {
          "internalType": "bytes",
          "name": "_incomingCalldata",
          "type": "bytes"
        }
      ],
      "name": "xReceive",
      "outputs": [
        {
          "internalType": "bytes",
          "name": "",
          "type": "bytes"
        }
      ],
      "stateMutability": "nonpayable",
      "type": "function"
    }
  ],
  "transactionHash": "0x4c4146234ab2734eb463b8d6f8933cf003cb363a5ff7ea3f23b2224cf5c179bf",
  "args": [],
  "numDeployments": 4,
  "solcInputHash": "17de708342938ab70070cbfb10035609",
  "bytecode": "0x608060405260006066553480156200001657600080fd5b506200002162000027565b620000e9565b600054610100900460ff1615620000945760405162461bcd60e51b815260206004820152602760248201527f496e697469616c697a61626c653a20636f6e747261637420697320696e697469604482015266616c697a696e6760c81b606482015260840160405180910390fd5b60005460ff9081161015620000e7576000805460ff191660ff9081179091556040519081527f7f26b83ff96e1f2b6a682f133852f6798a09c465da95921460cefb38474024989060200160405180910390a15b565b61578680620000f96000396000f3fe6080604052600436106102935760003560e01c80639d7b85451161015a578063d58718c3116100c1578063f2fde38b1161007a578063f2fde38b14610814578063f6ce035414610834578063f765417614610854578063fd614f4114610874578063ffcf9bae146108a1578063fff9834d146108c157600080fd5b8063d58718c314610754578063de4b054814610778578063df034cd01461079f578063e46867fd146107bf578063e4a7c603146107df578063e9172c2d146107f457600080fd5b8063b044631c11610113578063b044631c1461068f578063b0affdf7146106a2578063b85a2ce1146106d0578063bf59b488146106f0578063c818c70f14610714578063cf2933c11461073457600080fd5b80639d7b8545146105e05780639eab525314610600578063a02b600614610622578063a084b6c014610642578063a8e6f1e714610667578063ab6efc301461067a57600080fd5b806356c0e992116101fe57806376e92559116101b757806376e92559146104ca57806380e038bc146104df5780638da5cb5b146104f45780638dc15791146105125780638ddc5f35146105325780638ee31392146105ae57600080fd5b806356c0e992146104065780635daf08ca1461041957806364c6d00a1461046f5780636bda59da14610482578063715018a6146104955780637698a833146104aa57600080fd5b806334e2fc651161025057806334e2fc651461035d578063371b52e3146103985780633a8246f3146103ad578063439fab91146103c0578063535949a6146103e05780635523a960146103f357600080fd5b80630202f82a146102985780630726312a146102ad5780630e769b2b146102cd5780631049d7361461030a5780632ada25961461031d578063325d1e9c1461034a575b600080fd5b6102ab6102a63660046140d7565b6108d4565b005b3480156102b957600080fd5b506102ab6102c836600461416b565b610a95565b3480156102d957600080fd5b50606b546102ed906001600160a01b031681565b6040516001600160a01b0390911681526020015b60405180910390f35b6102ab6103183660046141b6565b610aee565b34801561032957600080fd5b5061033d610338366004614221565b610cb0565b6040516103019190614278565b6102ab610358366004614286565b610dac565b34801561036957600080fd5b5061038a610378366004614221565b60676020526000908152604090205481565b604051908152602001610301565b3480156103a457600080fd5b506102ab610f61565b6102ab6103bb36600461432d565b61100e565b3480156103cc57600080fd5b506102ab6103db366004614470565b61111f565b6102ab6103ee3660046144ac565b611266565b6102ab61040136600461432d565b6114cd565b6102ab6104143660046141b6565b6115de565b34801561042557600080fd5b5061043961043436600461459c565b61176d565b604080516001600160a01b03909516855263ffffffff938416602086015291831691840191909152166060820152608001610301565b6102ab61047d3660046141b6565b6117ba565b6102ab61049036600461470b565b6118c2565b3480156104a157600080fd5b506102ab611a2c565b3480156104b657600080fd5b506102ab6104c5366004614792565b611a40565b3480156104d657600080fd5b5060655461038a565b3480156104eb57600080fd5b506102ab611c10565b34801561050057600080fd5b506033546001600160a01b03166102ed565b34801561051e57600080fd5b506102ab61052d36600461482c565b611c8d565b34801561053e57600080fd5b5061058261054d366004614877565b606a602052600090815260409020805460019091015463ffffffff8216916001600160a01b03600160201b9091048116911683565b6040805163ffffffff90941684526001600160a01b039283166020850152911690820152606001610301565b3480156105ba57600080fd5b506068546105cb9063ffffffff1681565b60405163ffffffff9091168152602001610301565b3480156105ec57600080fd5b506102ab6105fb366004614221565b611dc2565b34801561060c57600080fd5b50610615611e77565b6040516103019190614894565b34801561062e57600080fd5b506102ab61063d36600461482c565b611f0e565b34801561064e57600080fd5b50610657611f21565b6040519015158152602001610301565b6102ab6106753660046148e2565b611f4f565b34801561068657600080fd5b5061038a6120b8565b6102ab61069d3660046141b6565b612189565b3480156106ae57600080fd5b506106c26106bd36600461498e565b612291565b604051610301929190614a3c565b3480156106dc57600080fd5b506102ab6106eb366004614a61565b612629565b3480156106fc57600080fd5b506068546105cb90600160c01b900463ffffffff1681565b34801561072057600080fd5b506102ab61072f366004614a9a565b61287d565b34801561074057600080fd5b506102ab61074f366004614ac8565b6128d0565b34801561076057600080fd5b50610769612923565b60405161030193929190614b2b565b34801561078457600080fd5b506068546102ed90600160201b90046001600160a01b031681565b3480156107ab57600080fd5b506069546102ed906001600160a01b031681565b3480156107cb57600080fd5b506102ab6107da366004614b6e565b612b3d565b3480156107eb57600080fd5b506102ab612b91565b34801561080057600080fd5b5061038a61080f366004614221565b612b99565b34801561082057600080fd5b506102ab61082f366004614221565b612bb7565b34801561084057600080fd5b506102ab61084f366004614beb565b612c30565b34801561086057600080fd5b50606c546102ed906001600160a01b031681565b34801561088057600080fd5b5061089461088f366004614c2b565b612cdc565b6040516103019190614d01565b3480156108ad57600080fd5b5061038a6108bc366004614d14565b613298565b6102ab6108cf366004614d98565b6132bf565b6108dc6134cb565b83838080602002602001604051908101604052809392919081815260200183836020028082843760009201919091525050604080516020808702828101820190935286825290935086925085918291850190849080828437600092019190915250508251845114915061096c90505760405162461bcd60e51b815260040161096390614e5b565b60405180910390fd5b6000805b82518110156109a85782818151811061098b5761098b614ea0565b60200260200101518261099e9190614ecc565b9150600101610970565b508034146109c85760405162461bcd60e51b815260040161096390614edf565b6109d28989613525565b6040805163c818c70f60e01b602082018190526001600160a01b038c169282019290925263ffffffff8a1660608201526000906080016040516020818303038152906040529050610a8882828b8b8080602002602001604051908101604052809392919081815260200183836020028082843760009201919091525050604080516020808f0282810182019093528e82529093508e92508d91829185019084908082843760009201919091525061365392505050565b5050505050505050505050565b6033546001600160a01b0316331480610ac257506069546001600160a01b031615801590610ac257503330145b610ade5760405162461bcd60e51b815260040161096390614f27565b610ae9838383613698565b505050565b610af66134cb565b838380806020026020016040519081016040528093929190818152602001838360200280828437600092019190915250506040805160208087028281018201909352868252909350869250859182918501908490808284376000920191909152505082518451149150610b7d90505760405162461bcd60e51b815260040161096390614e5b565b6000805b8251811015610bb957828181518110610b9c57610b9c614ea0565b602002602001015182610baf9190614ecc565b9150600101610b81565b50803414610bd95760405162461bcd60e51b815260040161096390614edf565b6000806000610be6612923565b604051929550909350915063e46867fd60e01b90600090610c11908390879087908790602001614f6a565b6040516020818303038152906040529050610ca282828e8e80806020026020016040519081016040528093929190818152602001838360200280828437600081840152601f19601f820116905080830192505050505050508d8d8080602002602001604051908101604052809392919081815260200183836020028082843760009201919091525061365392505050565b505050505050505050505050565b6040805160808101825260008082526020808301829052828401829052606083018290526001600160a01b03851682526067905291822054909103610d135760405163c6040d1d60e01b81526001600160a01b0383166004820152602401610963565b6001600160a01b038216600090815260676020526040902054606590610d3b90600190614fbd565b81548110610d4b57610d4b614ea0565b60009182526020918290206040805160808101825291909201546001600160a01b038116825263ffffffff600160a01b8204811694830194909452600160c01b8104841692820192909252600160e01b909104909116606082015292915050565b610db46134cb565b838380806020026020016040519081016040528093929190818152602001838360200280828437600092019190915250506040805160208087028281018201909352868252909350869250859182918501908490808284376000920191909152505082518451149150610e3b90505760405162461bcd60e51b815260040161096390614e5b565b6000805b8251811015610e7757828181518110610e5a57610e5a614ea0565b602002602001015182610e6d9190614ecc565b9150600101610e3f565b50803414610e975760405162461bcd60e51b815260040161096390614edf565b610ea28a8a8a613698565b60408051630393189560e11b602082018190526001600160a01b038d169282019290925263ffffffff808c1660608301528a16608082015260009060a0015b6040516020818303038152906040529050610ca282828b8b8080602002602001604051908101604052809392919081815260200183836020028082843760009201919091525050604080516020808f0282810182019093528e82529093508e92508d91829185019084908082843760009201919091525061365392505050565b6033546001600160a01b0316331480610f8e57506069546001600160a01b031615801590610f8e57503330145b610faa5760405162461bcd60e51b815260040161096390614f27565b606b54606c54604051630933e36d60e11b81526001600160a01b039182166004820152911690631267c6da906024015b600060405180830381600087803b158015610ff457600080fd5b505af1158015611008573d6000803e3d6000fd5b50505050565b83838080602002602001604051908101604052809392919081815260200183836020028082843760009201919091525050604080516020808702828101820190935286825290935086925085918291850190849080828437600092019190915250508251845114915061109590505760405162461bcd60e51b815260040161096390614e5b565b6000805b82518110156110d1578281815181106110b4576110b4614ea0565b6020026020010151826110c79190614ecc565b9150600101611099565b508034146110f15760405162461bcd60e51b815260040161096390614edf565b6110fc8a8a8a611f0e565b604051635015b00360e11b90600090610ee19083908e908e908e9060200161500e565b600054610100900460ff161580801561113f5750600054600160ff909116105b806111595750303b158015611159575060005460ff166001145b6111bc5760405162461bcd60e51b815260206004820152602e60248201527f496e697469616c697a61626c653a20636f6e747261637420697320616c72656160448201526d191e481a5b9a5d1a585b1a5e995960921b6064820152608401610963565b6000805460ff1916600117905580156111df576000805461ff0019166101001790555b600080600080600080878060200190518101906111fc9190615048565b9550955095509550955095506112168686868686866138a9565b5050505050508015611262576000805461ff0019169055604051600181527f7f26b83ff96e1f2b6a682f133852f6798a09c465da95921460cefb38474024989060200160405180910390a15b5050565b61126e6134cb565b8383808060200260200160405190810160405280939291908181526020018383602002808284376000920191909152505060408051602080870282810182019093528682529093508692508591829185019084908082843760009201919091525050825184511491506112f590505760405162461bcd60e51b815260040161096390614e5b565b6000805b82518110156113315782818151811061131457611314614ea0565b6020026020010151826113279190614ecc565b91506001016112f9565b508034146113515760405162461bcd60e51b815260040161096390614edf565b6114118d8d80806020026020016040519081016040528093929190818152602001838360200280828437600081840152601f19601f820116905080830192505050505050508c8c80806020026020016040519081016040528093929190818152602001838360200280828437600081840152601f19601f820116905080830192505050505050508b8b8080602002602001604051908101604052809392919081815260200183836020028082843760009201919091525061391192505050565b600063e46867fd60e01b90506000818f8f8f8f8f8f60405160200161143c979695949392919061510a565b60405160208183030381529060405290506114bc82828b8b8080602002602001604051908101604052809392919081815260200183836020028082843760009201919091525050604080516020808f0282810182019093528e82529093508e92508d91829185019084908082843760009201919091525061365392505050565b505050505050505050505050505050565b83838080602002602001604051908101604052809392919081815260200183836020028082843760009201919091525050604080516020808702828101820190935286825290935086925085918291850190849080828437600092019190915250508251845114915061155490505760405162461bcd60e51b815260040161096390614e5b565b6000805b82518110156115905782818151811061157357611573614ea0565b6020026020010151826115869190614ecc565b9150600101611558565b508034146115b05760405162461bcd60e51b815260040161096390614edf565b6115bb8a8a8a611c8d565b604051638dc1579160e01b90600090610ee19083908e908e908e9060200161500e565b6115e66134cb565b83838080602002602001604051908101604052809392919081815260200183836020028082843760009201919091525050604080516020808702828101820190935286825290935086925085918291850190849080828437600092019190915250508251845114915061166d90505760405162461bcd60e51b815260040161096390614e5b565b6000805b82518110156116a95782818151811061168c5761168c614ea0565b60200260200101518261169f9190614ecc565b9150600101611671565b508034146116c95760405162461bcd60e51b815260040161096390614edf565b604080516320380e2f60e21b6020820181905291600091015b604051602081830303815290604052905061176282828b8b8080602002602001604051908101604052809392919081815260200183836020028082843760009201919091525050604080516020808f0282810182019093528e82529093508e92508d91829185019084908082843760009201919091525061365392505050565b505050505050505050565b6065818154811061177d57600080fd5b6000918252602090912001546001600160a01b038116915063ffffffff600160a01b8204811691600160c01b8104821691600160e01b9091041684565b6117c26134cb565b83838080602002602001604051908101604052809392919081815260200183836020028082843760009201919091525050604080516020808702828101820190935286825290935086925085918291850190849080828437600092019190915250508251845114915061184990505760405162461bcd60e51b815260040161096390614e5b565b6000805b82518110156118855782818151811061186857611868614ea0565b60200260200101518261187b9190614ecc565b915060010161184d565b508034146118a55760405162461bcd60e51b815260040161096390614edf565b6040805163371b52e360e01b6020820181905291600091016116e2565b6118ca6134cb565b828180518251146118ed5760405162461bcd60e51b815260040161096390614e5b565b6000805b82518110156119295782818151811061190c5761190c614ea0565b60200260200101518261191f9190614ecc565b91506001016118f1565b508034146119495760405162461bcd60e51b815260040161096390614edf565b855185511461196a5760405162461bcd60e51b815260040161096390614e5b565b639d7b854560e01b60005b8751811015611a225760008288838151811061199357611993614ea0565b60200260200101516040516020016119ca9291906001600160e01b03199290921682526001600160a01b0316602082015260400190565b6040516020818303038152906040529050611a1983828b85815181106119f2576119f2614ea0565b60200260200101518a8681518110611a0c57611a0c614ea0565b602002602001015161397b565b50600101611975565b5050505050505050565b611a346134cb565b611a3e60006139fa565b565b611a486134cb565b63ffffffff82166000908152606a6020526040902054600160201b90046001600160a01b031615801590611a87575060208101516001600160a01b0316155b15611ac55763ffffffff82166000908152606a6020526040902080546001600160c01b031916815560010180546001600160a01b0319169055611ba2565b805163ffffffff1615801590611ae7575060208101516001600160a01b031615155b611b3d5760405162461bcd60e51b815260206004820152602160248201527f4e6574776f726b52656769737472793a20696e76616c696420726567697374726044820152607960f81b6064820152608401610963565b63ffffffff8281166000908152606a6020908152604091829020845181549286015194166001600160c01b031990921691909117600160201b6001600160a01b039485160217815590830151600190910180546001600160a01b031916919092161790555b806000015163ffffffff1681602001516001600160a01b03168363ffffffff167f4db6d44cad7c0eddcb10fcbcb14f9600520da0ea078eedc230cbed5aa0661d208460400151604051611c0491906001600160a01b0391909116815260200190565b60405180910390a45050565b6033546001600160a01b0316331480611c3d57506069546001600160a01b031615801590611c3d57503330145b611c595760405162461bcd60e51b815260040161096390614f27565b606b54606c5460405163031f799160e61b81526001600160a01b03918216600482015291169063c7de644090602401610fda565b600080611ccc85858080602002602001604051908101604052809392919081815260200183836020028082843760009201919091525061229192505050565b606b54606c54604051637677856760e11b81529395509193506001600160a01b039081169263ecef0ace92611d0b921690869086908990600401615163565b600060405180830381600087803b158015611d2557600080fd5b505af1158015611d39573d6000803e3d6000fd5b505050506000828285604051602001611d54939291906151b1565b60408051601f198184030181528282528051602091820120606c546001600160a01b0316845290830181905263ffffffff87168383015290519092507fc65927f292bd600bd77f04e7e614c2c2997ee8a3123221acf8a033a151cb86179181900360600190a1505050505050565b6033546001600160a01b0316331480611def57506069546001600160a01b031615801590611def57503330145b611e0b5760405162461bcd60e51b815260040161096390614f27565b606b54606c546040516334392cbd60e21b81526001600160a01b039182166004820152838216602482015291169063d0e4b2f490604401600060405180830381600087803b158015611e5c57600080fd5b505af1158015611e70573d6000803e3d6000fd5b5050505050565b60606065805480602002602001604051908101604052809291908181526020016000905b82821015611f0557600084815260209081902060408051608081018252918501546001600160a01b038116835263ffffffff600160a01b8204811684860152600160c01b8204811692840192909252600160e01b9004166060820152825260019092019101611e9b565b50505050905090565b611f16612b91565b610ae9838383611c8d565b606854600090600160c01b900463ffffffff16158015611f4a57506069546001600160a01b0316155b905090565b611f576134cb565b83818051825114611f7a5760405162461bcd60e51b815260040161096390614e5b565b6000805b8251811015611fb657828181518110611f9957611f99614ea0565b602002602001015182611fac9190614ecc565b9150600101611f7e565b50803414611fd65760405162461bcd60e51b815260040161096390614edf565b86518651148015611fe8575086518551145b6120045760405162461bcd60e51b815260040161096390614e5b565b63b85a2ce160e01b60005b88518110156117625760008289838151811061202d5761202d614ea0565b602002602001015189848151811061204757612047614ea0565b6020026020010151604051602001612087939291906001600160e01b03199390931683526001600160a01b03918216602084015216604082015260600190565b60405160208183030381529060405290506120af83828c85815181106119f2576119f2614ea0565b5060010161200f565b6000805b606554811015612185576000606582815481106120db576120db614ea0565b600091825260209091200154600160e01b900463ffffffff161115612180576121706065828154811061211057612110614ea0565b60009182526020918290206040805160808101825291909201546001600160a01b038116825263ffffffff600160a01b8204811694830194909452600160c01b8104841692820192909252600160e01b9091049091166060820152613298565b61217a9083614ecc565b91506001015b6120bc565b5090565b83838080602002602001604051908101604052809392919081815260200183836020028082843760009201919091525050604080516020808702828101820190935286825290935086925085918291850190849080828437600092019190915250508251845114915061221090505760405162461bcd60e51b815260040161096390614e5b565b6000805b825181101561224c5782818151811061222f5761222f614ea0565b6020026020010151826122429190614ecc565b9150600101612214565b5080341461226c5760405162461bcd60e51b815260040161096390614edf565b612274612b91565b6040805163e4a7c60360e01b6020820181905291600091016116e2565b60608060008060006065805490508651146122bf5760405163c53e5b5b60e01b815260040160405180910390fd5b600086516001600160401b038111156122da576122da6143bb565b60405190808252806020026020018201604052801561231f57816020015b60408051808201909152600080825260208201528152602001906001900390816122f85790505b50905060005b875181101561242257600088828151811061234257612342614ea0565b60200260200101519050600061235782610cb0565b9050816001600160a01b0316856001600160a01b03161061238e5760405163ac6bd23360e01b815260048101849052602401610963565b606081015163ffffffff1615612418576040518060400160405280836001600160a01b031681526020016123c183613298565b8152508484815181106123d6576123d6614ea0565b60200260200101819052508383815181106123f3576123f3614ea0565b6020026020010151602001518661240a9190614ecc565b955086806001019750508194505b5050600101612325565b50836001600160401b0381111561243b5761243b6143bb565b604051908082528060200260200182016040528015612464578160200160208202803683370190505b509550836001600160401b0381111561247f5761247f6143bb565b6040519080825280602002602001820160405280156124a8578160200160208202803683370190505b50945060008060005b89518110156125c95760008482815181106124ce576124ce614ea0565b60200260200101516020015111156125c1578381815181106124f2576124f2614ea0565b60200260200101516000015189838151811061251057612510614ea0565b60200260200101906001600160a01b031690816001600160a01b03168152505085620f424085838151811061254757612547614ea0565b60200260200101516020015161255d9190615236565b6125679190615263565b88838151811061257957612579614ea0565b602002602001019063ffffffff16908163ffffffff16815250508782815181106125a5576125a5614ea0565b6020026020010151836125b89190615285565b92506001909101905b6001016124b1565b50620f42408263ffffffff161461261e576125ed63ffffffff8316620f4240614fbd565b8760008151811061260057612600614ea0565b602002602001018181516126149190615285565b63ffffffff169052505b505050505050915091565b6033546001600160a01b031633148061265657506069546001600160a01b03161580159061265657503330145b6126725760405162461bcd60e51b815260040161096390614f27565b606b80546001600160a01b0319166001600160a01b03848116918217909255604051634463315560e11b815291831660048301526000916388c662aa90602401602060405180830381865afa1580156126cf573d6000803e3d6000fd5b505050506040513d601f19601f820116820180604052508101906126f391906152a9565b90506001600160a01b0381166127595760405162461bcd60e51b815260206004820152602560248201527f4e6574776f726b52656769737472793a2021657869737473207c7c20696d6d756044820152647461626c6560d81b6064820152608401610963565b606b5460405163708728eb60e11b81526001600160a01b038481166004830152600092169063e10e51d690602401602060405180830381865afa1580156127a4573d6000803e3d6000fd5b505050506040513d601f19601f820116820180604052508101906127c891906152a9565b90506001600160a01b03811630148015906127ec57506001600160a01b0382163014155b1561280a57604051633170a38d60e01b815260040160405180910390fd5b606c80546001600160a01b0319166001600160a01b0385811691821790925560408051928716835260208301919091527fc8d09d7710e05a8ef2f307dcf13f859ce7e661b3eee1a04a57c4d481758a6c1d910160405180910390a1306001600160a01b0382160361100857611008611c10565b6033546001600160a01b03163314806128aa57506069546001600160a01b0316158015906128aa57503330145b6128c65760405162461bcd60e51b815260040161096390614f27565b6112628282613525565b6033546001600160a01b03163314806128fd57506069546001600160a01b0316158015906128fd57503330145b6129195760405162461bcd60e51b815260040161096390614f27565b6112628282613a4c565b606080606060006065805490506001600160401b03811115612947576129476143bb565b604051908082528060200260200182016040528015612970578160200160208202803683370190505b506065549091506000906001600160401b03811115612991576129916143bb565b6040519080825280602002602001820160405280156129ba578160200160208202803683370190505b506065549091506000906001600160401b038111156129db576129db6143bb565b604051908082528060200260200182016040528015612a04578160200160208202803683370190505b50905060005b606554811015612b305760658181548110612a2757612a27614ea0565b60009182526020909120015484516001600160a01b0390911690859083908110612a5357612a53614ea0565b60200260200101906001600160a01b031690816001600160a01b03168152505060658181548110612a8657612a86614ea0565b90600052602060002001600001601c9054906101000a900463ffffffff16838281518110612ab657612ab6614ea0565b602002602001019063ffffffff16908163ffffffff168152505060658181548110612ae357612ae3614ea0565b9060005260206000200160000160189054906101000a900463ffffffff16828281518110612b1357612b13614ea0565b63ffffffff90921660209283029190910190910152600101612a0a565b5091959094509092509050565b6033546001600160a01b0316331480612b6a57506069546001600160a01b031615801590612b6a57503330145b612b865760405162461bcd60e51b815260040161096390614f27565b610ae9838383613911565b611a3e613a9c565b600080612ba583610cb0565b9050612bb081613298565b9392505050565b612bbf6134cb565b6001600160a01b038116612c245760405162461bcd60e51b815260206004820152602660248201527f4f776e61626c653a206e6577206f776e657220697320746865207a65726f206160448201526564647265737360d01b6064820152608401610963565b612c2d816139fa565b50565b612c386134cb565b60688054640100000000600160e01b031916600160201b6001600160a01b0386811691820263ffffffff60c01b191692909217600160c01b63ffffffff871690810291909117909355606980546001600160a01b0319169285169283179055604080519182526020820193909352918201527f21ae9d1c05d009b6af15c73821748e22e498496e2b29672090c67ae892322d6f9060600160405180910390a1505050565b6068546060908490849063ffffffff808316600160c01b90920416148015612d1157506069546001600160a01b038381169116145b8015612d375750606854600160201b90046001600160a01b0316336001600160a01b0316145b612da95760405162461bcd60e51b815260206004820152603760248201527f4e6574776f726b52656769737472793a202175706461746572446f6d61696e2060448201527f7c7c202175706461746572207c7c2021436f6e6e6578740000000000000000006064820152608401610963565b600084806020019051810190612dbf91906152e3565b90506060637c6ce76b60e11b6001600160e01b0319831601612e6d57600080600088806020019051810190612df491906152fe565b6040516001600160a01b038416602482015263ffffffff8084166044830152821660648201529296509094509250630393189560e11b91506084015b60408051601f198184030181529190526020810180516001600160e01b03166001600160e01b03199093169290921790915293506131c692505050565b6337e738f160e01b6001600160e01b0319831601612f025760008087806020019051810190612e9c919061535a565b6040516001600160a01b038316602482015263ffffffff8216604482015291945092508591506064015b60408051601f198184030181529190526020810180516001600160e01b03166001600160e01b03199093169290921790915292506131c6915050565b631b97980360e01b6001600160e01b0319831601612f5057600080600088806020019051810190612f339190615461565b9350935093505084838383604051602401612e3093929190614b2b565b6330d6cc3f60e01b6001600160e01b0319831601612f985760008087806020019051810190612f7f91906154ed565b9250925050838282604051602401612ec6929190614a3c565b631b5839fd60e01b6001600160e01b0319831601612fe257506040805160048152602481019091526020810180516001600160e01b03166001600160e01b031984161790526131c6565b63723ea86f60e01b6001600160e01b031983160161302a57600080878060200190518101906130119190615556565b9250925050838282604051602401612ec69291906155ac565b632fea4ffd60e11b6001600160e01b031983160161305957600080878060200190518101906130119190615556565b6347a5d31f60e01b6001600160e01b03198316016130b2576000808780602001905181019061308891906155d4565b6040516001600160a01b038084166024830152821660448201529194509250859150606401612ec6565b6362847abb60e01b6001600160e01b0319831601613136576000868060200190518101906130e09190615613565b6040516001600160a01b038216602482015290925084915060440160408051601f198184030181529190526020810180516001600160e01b03166001600160e01b03199093169290921790915291506131c69050565b631fc7f1d160e21b6001600160e01b031983160161318057506040805160048152602481019091526020810180516001600160e01b03166001600160e01b031984161790526131c6565b63c8e4ad1d60e01b6001600160e01b03198316016131c657506040805160048152602481019091526020810180516001600160e01b03166001600160e01b031984161790525b600080306001600160a01b0316836040516131e1919061563f565b6000604051808303816000865af19150503d806000811461321e576040519150601f19603f3d011682016040523d82523d6000602084013e613223565b606091505b5091509150836001600160e01b0319168963ffffffff168e7f1291b044e5e68ff17a19703d0775336ad7ec700ef5679fbd11bd0084af55baf3858e60405161328092919091151582526001600160a01b0316602082015260400190565b60405180910390a49c9b505050505050505050505050565b60006132b96132b66132b1846020015163ffffffff1690565b613c38565b90565b92915050565b6132c76134cb565b83838080602002602001604051908101604052809392919081815260200183836020028082843760009201919091525050604080516020808702828101820190935286825290935086925085918291850190849080828437600092019190915250508251845114915061334e90505760405162461bcd60e51b815260040161096390614e5b565b6000805b825181101561338a5782818151811061336d5761336d614ea0565b6020026020010151826133809190614ecc565b9150600101613352565b508034146133aa5760405162461bcd60e51b815260040161096390614edf565b6134178b8b8080602002602001604051908101604052809392919081815260200183836020028082843760009201919091525050604080516020808f0282810182019093528e82529093508e92508d918291850190849080828437600092019190915250613a4c92505050565b60405163cf2933c160e01b9060009061343c9083908f908f908f908f9060200161565b565b60405160208183030381529060405290506134bc82828b8b8080602002602001604051908101604052809392919081815260200183836020028082843760009201919091525050604080516020808f0282810182019093528e82529093508e92508d91829185019084908082843760009201919091525061365392505050565b50505050505050505050505050565b6033546001600160a01b03163314611a3e5760405162461bcd60e51b815260206004820181905260248201527f4f776e61626c653a2063616c6c6572206973206e6f7420746865206f776e65726044820152606401610963565b6001600160a01b0382166000908152606760205260408120549081900361356a5760405163c6040d1d60e01b81526001600160a01b0384166004820152602401610963565b60648263ffffffff1611156135a95760405163424f515b60e11b81526001600160a01b038416600482015263ffffffff83166024820152604401610963565b6001600160a01b0383166000908152606760205260408120546065906135d190600190614fbd565b815481106135e1576135e1614ea0565b60009182526020918290200180546001600160e01b0316600160e01b63ffffffff87169081029190911782556040519081529092506001600160a01b038616917f597a24f4063494925c9b40150fd455db446fcc9046ddb9a1ded3ee8fad6b988491015b60405180910390a250505050565b60005b8251811015611e7057613690858585848151811061367657613676614ea0565b6020026020010151858581518110611a0c57611a0c614ea0565b600101613656565b6001600160a01b0383166136ca57604051633899e57b60e01b81526001600160a01b0384166004820152602401610963565b6001600160a01b0383166000908152606760205260409020541561370c57604051636822fa9960e11b81526001600160a01b0384166004820152602401610963565b60648263ffffffff16111561374b5760405163424f515b60e11b81526001600160a01b038416600482015263ffffffff83166024820152604401610963565b428163ffffffff1611156137895760405163faac476360e01b81526001600160a01b038416600482015263ffffffff82166024820152604401610963565b604080516080810182526001600160a01b038086168083526000602080850182815263ffffffff8881168789019081528a821660608901908152606580546001818101835591885299517f8ff97419363ffd7000167f130ef7168fbea05faf9251824ca5043f113cc6a7c7909a0180549551935192518516600160e01b026001600160e01b03938616600160c01b02939093166001600160c01b0394909516600160a01b026001600160c01b03199096169a9099169990991793909317161717909355606680549094019384905581815260679092528382209290925591517f13ca1f9a974ca1b85618843282dc1981c63a62c389aa5cf6e4a31937f8434e7390613645908590879063ffffffff92831681529116602082015260400190565b600054610100900460ff166138d05760405162461bcd60e51b81526004016109639061569d565b6138d8613c8e565b6138e58686868686613cbd565b6001600160a01b038116613900576138fb611a2c565b613909565b61390981612bb7565b505050505050565b60005b83518110156110085761397384828151811061393257613932614ea0565b602002602001015184838151811061394c5761394c614ea0565b602002602001015184848151811061396657613966614ea0565b6020026020010151613698565b600101613914565b6000613988838584613d61565b63ffffffff84166000818152606a6020908152604091829020549151600160201b9092046001600160a01b031682529293506001600160e01b031988169284917f20ffb62aa5e31e4b559317e8af8f877e19a9126fd6ff1fee93bcf06e59d385cc910160405180910390a45050505050565b603380546001600160a01b038381166001600160a01b0319831681179093556040519116919082907f8be0079c531659141344cd1fd0a4f28419497f9722a3daafe3b4186f6b6457e090600090a35050565b60005b8251811015610ae957613a94838281518110613a6d57613a6d614ea0565b6020026020010151838381518110613a8757613a87614ea0565b6020026020010151613525565b600101613a4f565b4260005b606554811015613bdc57600060658281548110613abf57613abf614ea0565b600091825260208220018054909250600160e01b900463ffffffff1615613b52578154600090600160a01b900463ffffffff16613b0a578254600160c01b900463ffffffff16613b14565b60685463ffffffff165b90506000613b2282876156e8565b845463ffffffff9182169250606491613b4391600160e01b90041683615236565b613b4d9190615263565b925050505b815481908390601490613b73908490600160a01b900463ffffffff16615285565b82546101009290920a63ffffffff818102199093169183160217909155835460405191841682526001600160a01b031691507f780f517310a8481b4817e26f9d1a336e49e7522775e8e6b4fb22c73908be6ce69060200160405180910390a25050600101613aa0565b6040805163ffffffff84168152602081018390527f896e364af402e453909cff1f8bb117d283d37a717e7cf4a5c5b88be2197fa09f910160405180910390a1506068805463ffffffff191663ffffffff92909216919091179055565b6000817812725dd1d243aba0e75fe645cc4873f9e65afe688c928e1f21811115613c785760405163edc236ad60e01b815260048101849052602401610963565b612bb06132b6670de0b6b3a76400008302613ebe565b600054610100900460ff16613cb55760405162461bcd60e51b81526004016109639061569d565b611a3e614035565b600054610100900460ff16613ce45760405162461bcd60e51b81526004016109639061569d565b6068805463ffffffff909516600160c01b0263ffffffff60c01b196001600160a01b03978816600160201b0216640100000000600160e01b03199096169590951794909417909355606980549285166001600160a01b0319938416179055606b8054918516918316919091179055606c8054929093169116179055565b63ffffffff8084166000908152606a6020526040812054909185911615801590613daf575063ffffffff81166000908152606a6020526040902054600160201b90046001600160a01b031615155b613e075760405162461bcd60e51b815260206004820152602360248201527f4e6574776f726b52656769737472793a2021737570706f72746564206e6574776044820152626f726b60e81b6064820152608401610963565b60685463ffffffff8087166000908152606a6020526040808220805460019091015491516345560b5d60e11b81526001600160a01b03600160201b96879004811696638aac16ba968b96613e7296918616959290920483169391921690829081908e90600401615705565b60206040518083038185885af1158015613e90573d6000803e3d6000fd5b50505050506040513d601f19601f82011682018060405250810190613eb59190615760565b95945050505050565b600081600003613ed057506000919050565b50600181600160801b8110613eea5760409190911b9060801c5b680100000000000000008110613f055760209190911b9060401c5b600160201b8110613f1b5760109190911b9060201c5b620100008110613f305760089190911b9060101c5b6101008110613f445760049190911b9060081c5b60108110613f575760029190911b9060041c5b60048110613f6757600182901b91505b6001828481613f7857613f7861524d565b048301901c91506001828481613f9057613f9061524d565b048301901c91506001828481613fa857613fa861524d565b048301901c91506001828481613fc057613fc061524d565b048301901c91506001828481613fd857613fd861524d565b048301901c91506001828481613ff057613ff061524d565b048301901c915060018284816140085761400861524d565b048301901c915060008284816140205761402061524d565b04905080831061402e578092505b5050919050565b600054610100900460ff1661405c5760405162461bcd60e51b81526004016109639061569d565b611a3e336139fa565b6001600160a01b0381168114612c2d57600080fd5b63ffffffff81168114612c2d57600080fd5b60008083601f84011261409e57600080fd5b5081356001600160401b038111156140b557600080fd5b6020830191508360208260051b85010111156140d057600080fd5b9250929050565b600080600080600080608087890312156140f057600080fd5b86356140fb81614065565b9550602087013561410b8161407a565b945060408701356001600160401b038082111561412757600080fd5b6141338a838b0161408c565b9096509450606089013591508082111561414c57600080fd5b5061415989828a0161408c565b979a9699509497509295939492505050565b60008060006060848603121561418057600080fd5b833561418b81614065565b9250602084013561419b8161407a565b915060408401356141ab8161407a565b809150509250925092565b600080600080604085870312156141cc57600080fd5b84356001600160401b03808211156141e357600080fd5b6141ef8883890161408c565b9096509450602087013591508082111561420857600080fd5b506142158782880161408c565b95989497509550505050565b60006020828403121561423357600080fd5b8135612bb081614065565b80516001600160a01b0316825260208082015163ffffffff9081169184019190915260408083015182169084015260609182015116910152565b608081016132b9828461423e565b600080600080600080600060a0888a0312156142a157600080fd5b87356142ac81614065565b965060208801356142bc8161407a565b955060408801356142cc8161407a565b945060608801356001600160401b03808211156142e857600080fd5b6142f48b838c0161408c565b909650945060808a013591508082111561430d57600080fd5b5061431a8a828b0161408c565b989b979a50959850939692959293505050565b60008060008060008060006080888a03121561434857600080fd5b87356001600160401b038082111561435f57600080fd5b61436b8b838c0161408c565b909950975060208a013591506143808261407a565b9095506040890135908082111561439657600080fd5b6143a28b838c0161408c565b909650945060608a013591508082111561430d57600080fd5b634e487b7160e01b600052604160045260246000fd5b604051601f8201601f191681016001600160401b03811182821017156143f9576143f96143bb565b604052919050565b600082601f83011261441257600080fd5b81356001600160401b0381111561442b5761442b6143bb565b61443e601f8201601f19166020016143d1565b81815284602083860101111561445357600080fd5b816020850160208301376000918101602001919091529392505050565b60006020828403121561448257600080fd5b81356001600160401b0381111561449857600080fd5b6144a484828501614401565b949350505050565b60008060008060008060008060008060a08b8d0312156144cb57600080fd5b8a356001600160401b03808211156144e257600080fd5b6144ee8e838f0161408c565b909c509a5060208d013591508082111561450757600080fd5b6145138e838f0161408c565b909a50985060408d013591508082111561452c57600080fd5b6145388e838f0161408c565b909850965060608d013591508082111561455157600080fd5b61455d8e838f0161408c565b909650945060808d013591508082111561457657600080fd5b506145838d828e0161408c565b915080935050809150509295989b9194979a5092959850565b6000602082840312156145ae57600080fd5b5035919050565b60006001600160401b038211156145ce576145ce6143bb565b5060051b60200190565b600082601f8301126145e957600080fd5b813560206145fe6145f9836145b5565b6143d1565b82815260059290921b8401810191818101908684111561461d57600080fd5b8286015b848110156146415780356146348161407a565b8352918301918301614621565b509695505050505050565b600082601f83011261465d57600080fd5b8135602061466d6145f9836145b5565b82815260059290921b8401810191818101908684111561468c57600080fd5b8286015b848110156146415780356146a381614065565b8352918301918301614690565b600082601f8301126146c157600080fd5b813560206146d16145f9836145b5565b82815260059290921b840181019181810190868411156146f057600080fd5b8286015b8481101561464157803583529183019183016146f4565b60008060006060848603121561472057600080fd5b83356001600160401b038082111561473757600080fd5b614743878388016145d8565b9450602086013591508082111561475957600080fd5b6147658783880161464c565b9350604086013591508082111561477b57600080fd5b50614788868287016146b0565b9150509250925092565b60008082840360808112156147a657600080fd5b83356147b18161407a565b92506060601f19820112156147c557600080fd5b50604051606081018181106001600160401b03821117156147e8576147e86143bb565b60405260208401356147f98161407a565b8152604084013561480981614065565b6020820152606084013561481c81614065565b6040820152919491935090915050565b60008060006040848603121561484157600080fd5b83356001600160401b0381111561485757600080fd5b6148638682870161408c565b90945092505060208401356141ab8161407a565b60006020828403121561488957600080fd5b8135612bb08161407a565b6020808252825182820181905260009190848201906040850190845b818110156148d6576148c383855161423e565b92840192608092909201916001016148b0565b50909695505050505050565b600080600080608085870312156148f857600080fd5b84356001600160401b038082111561490f57600080fd5b61491b888389016145d8565b9550602087013591508082111561493157600080fd5b61493d8883890161464c565b9450604087013591508082111561495357600080fd5b61495f8883890161464c565b9350606087013591508082111561497557600080fd5b50614982878288016146b0565b91505092959194509250565b6000602082840312156149a057600080fd5b81356001600160401b038111156149b657600080fd5b6144a48482850161464c565b600081518084526020808501945080840160005b838110156149fb5781516001600160a01b0316875295820195908201906001016149d6565b509495945050505050565b600081518084526020808501945080840160005b838110156149fb57815163ffffffff1687529582019590820190600101614a1a565b604081526000614a4f60408301856149c2565b8281036020840152613eb58185614a06565b60008060408385031215614a7457600080fd5b8235614a7f81614065565b91506020830135614a8f81614065565b809150509250929050565b60008060408385031215614aad57600080fd5b8235614ab881614065565b91506020830135614a8f8161407a565b60008060408385031215614adb57600080fd5b82356001600160401b0380821115614af257600080fd5b614afe8683870161464c565b93506020850135915080821115614b1457600080fd5b50614b21858286016145d8565b9150509250929050565b606081526000614b3e60608301866149c2565b8281036020840152614b508186614a06565b90508281036040840152614b648185614a06565b9695505050505050565b600080600060608486031215614b8357600080fd5b83356001600160401b0380821115614b9a57600080fd5b614ba68783880161464c565b94506020860135915080821115614bbc57600080fd5b614bc8878388016145d8565b93506040860135915080821115614bde57600080fd5b50614788868287016145d8565b600080600060608486031215614c0057600080fd5b8335614c0b81614065565b92506020840135614c1b8161407a565b915060408401356141ab81614065565b60008060008060008060c08789031215614c4457600080fd5b86359550602087013594506040870135614c5d81614065565b93506060870135614c6d81614065565b92506080870135614c7d8161407a565b915060a08701356001600160401b03811115614c9857600080fd5b614ca489828a01614401565b9150509295509295509295565b60005b83811015614ccc578181015183820152602001614cb4565b50506000910152565b60008151808452614ced816020860160208601614cb1565b601f01601f19169290920160200192915050565b602081526000612bb06020830184614cd5565b600060808284031215614d2657600080fd5b604051608081018181106001600160401b0382111715614d4857614d486143bb565b6040528235614d5681614065565b81526020830135614d668161407a565b60208201526040830135614d798161407a565b60408201526060830135614d8c8161407a565b60608201529392505050565b6000806000806000806000806080898b031215614db457600080fd5b88356001600160401b0380821115614dcb57600080fd5b614dd78c838d0161408c565b909a50985060208b0135915080821115614df057600080fd5b614dfc8c838d0161408c565b909850965060408b0135915080821115614e1557600080fd5b614e218c838d0161408c565b909650945060608b0135915080821115614e3a57600080fd5b50614e478b828c0161408c565b999c989b5096995094979396929594505050565b60208082526025908201527f4e6574776f726b52656769737472793a20706172616d732073697a65206d69736040820152640dac2e8c6d60db1b606082015260800190565b634e487b7160e01b600052603260045260246000fd5b634e487b7160e01b600052601160045260246000fd5b808201808211156132b9576132b9614eb6565b60208082526028908201527f4e6574776f726b52656769737472793a206d73672e76616c7565203c2072656c604082015267617965724665657360c01b606082015260800190565b60208082526023908201527f4e6574776f726b52656769737472793a20216f776e6572207c7c2021757064616040820152623a32b960e91b606082015260800190565b63ffffffff60e01b85168152608060208201526000614f8c60808301866149c2565b8281036040840152614f9e8186614a06565b90508281036060840152614fb28185614a06565b979650505050505050565b818103818111156132b9576132b9614eb6565b8183526000602080850194508260005b858110156149fb578135614ff381614065565b6001600160a01b031687529582019590820190600101614fe0565b63ffffffff60e01b85168152606060208201526000615031606083018587614fd0565b905063ffffffff8316604083015295945050505050565b60008060008060008060c0878903121561506157600080fd5b865161506c81614065565b602088015190965061507d8161407a565b604088015190955061508e81614065565b606088015190945061509f81614065565b60808801519093506150b081614065565b60a08801519092506150c181614065565b809150509295509295509295565b8183526000602080850194508260005b858110156149fb5781356150f28161407a565b63ffffffff16875295820195908201906001016150df565b63ffffffff60e01b8816815260806020820152600061512d60808301888a614fd0565b82810360408401526151408187896150cf565b905082810360608401526151558185876150cf565b9a9950505050505050505050565b6001600160a01b0385168152608060208201819052600090615187908301866149c2565b82810360408401526151998186614a06565b91505063ffffffff8316606083015295945050505050565b835160009082906020808801845b838110156151e45781516001600160a01b0316855293820193908201906001016151bf565b5050865181880193925060005b8181101561521357845163ffffffff16845293820193928201926001016151f1565b50505060e09490941b6001600160e01b0319168452505060049091019392505050565b80820281158282048414176132b9576132b9614eb6565b634e487b7160e01b600052601260045260246000fd5b60008261528057634e487b7160e01b600052601260045260246000fd5b500490565b63ffffffff8181168382160190808211156152a2576152a2614eb6565b5092915050565b6000602082840312156152bb57600080fd5b8151612bb081614065565b80516001600160e01b0319811681146152de57600080fd5b919050565b6000602082840312156152f557600080fd5b612bb0826152c6565b6000806000806080858703121561531457600080fd5b61531d856152c6565b9350602085015161532d81614065565b604086015190935061533e8161407a565b606086015190925061534f8161407a565b939692955090935050565b60008060006060848603121561536f57600080fd5b615378846152c6565b9250602084015161538881614065565b60408501519092506141ab8161407a565b600082601f8301126153aa57600080fd5b815160206153ba6145f9836145b5565b82815260059290921b840181019181810190868411156153d957600080fd5b8286015b848110156146415780516153f081614065565b83529183019183016153dd565b600082601f83011261540e57600080fd5b8151602061541e6145f9836145b5565b82815260059290921b8401810191818101908684111561543d57600080fd5b8286015b848110156146415780516154548161407a565b8352918301918301615441565b6000806000806080858703121561547757600080fd5b615480856152c6565b935060208501516001600160401b038082111561549c57600080fd5b6154a888838901615399565b945060408701519150808211156154be57600080fd5b6154ca888389016153fd565b935060608701519150808211156154e057600080fd5b50614982878288016153fd565b60008060006060848603121561550257600080fd5b61550b846152c6565b925060208401516001600160401b038082111561552757600080fd5b61553387838801615399565b9350604086015191508082111561554957600080fd5b50614788868287016153fd565b60008060006060848603121561556b57600080fd5b615574846152c6565b925060208401516001600160401b0381111561558f57600080fd5b61559b86828701615399565b92505060408401516141ab8161407a565b6040815260006155bf60408301856149c2565b905063ffffffff831660208301529392505050565b6000806000606084860312156155e957600080fd5b6155f2846152c6565b9250602084015161560281614065565b60408501519092506141ab81614065565b6000806040838503121561562657600080fd5b61562f836152c6565b91506020830151614a8f81614065565b60008251615651818460208701614cb1565b9190910192915050565b63ffffffff60e01b8616815260606020820152600061567e606083018688614fd0565b82810360408401526156918185876150cf565b98975050505050505050565b6020808252602b908201527f496e697469616c697a61626c653a20636f6e7472616374206973206e6f74206960408201526a6e697469616c697a696e6760a81b606082015260800190565b63ffffffff8281168282160390808211156152a2576152a2614eb6565b63ffffffff881681526001600160a01b0387811660208301528681166040830152851660608201526080810184905260a0810183905260e060c0820181905260009061575390830184614cd5565b9998505050505050505050565b60006020828403121561577257600080fd5b505191905056fea164736f6c6343000813000a",
  "devdoc": {
    "author": "DAOHaus",
    "details": "Uses Connext XApp architecture to manage main + multiple replica registries across different networks. Features and important things to consider: - There are syncing methods for adding/updating members, update registry activity & split funds across networks. - Funds are escrowed in a 0xSplit contract so NetworkRegistry must be set as the controller in oder to split funds. - A NetworkRegistry contract can be setup either as the main registry (updater == address(0)) or as a replica. - A main NetworkRegistry should be owned by the community (i.e. Safe or a DAO)  - A replica NetworkRegistry must set the `updater` to the main registry address and be registered in the main    NetworkRegistry in order to get synced. - A replica NetworkRegistry should not be owned by anyone so it can only be controlled by the main registry (updater)    however another Safe or DAO in the replica network can act as a trusted delegate in case of a halt of the Connext bridge    which could potentially froze the 0xSplit funds as the replica NetworkRegistry and thus its controller will become innacessible.",
    "errors": {
      "InvalidMember__ActivityMultiplier(address,uint32)": [
        {
          "params": {
            "_activityMultiplier": "activity multiplier",
            "_member": "member address"
          }
        }
      ],
      "InvalidMember__Address(address)": [
        {
          "params": {
            "_member": "submitted member address"
          }
        }
      ],
      "InvalidMember__StartDateInTheFuture(address,uint32)": [
        {
          "params": {
            "_member": "member address",
            "_startDate": "start date in seconds"
          }
        }
      ],
      "InvalidSplit__AccountsOutOfOrder(uint256)": [
        {
          "params": {
            "_index": "index where a member address is not properly sorted"
          }
        }
      ],
      "Member__AlreadyRegistered(address)": [
        {
          "params": {
            "_member": "member address"
          }
        }
      ],
      "Member__NotRegistered(address)": [
        {
          "params": {
            "_member": "member address"
          }
        }
      ]
    },
    "events": {
      "Initialized(uint8)": {
        "details": "Triggered when the contract has been initialized or reinitialized."
      },
      "NetworkRegistryUpdated(uint32,address,uint32,address)": {
        "params": {
          "_chainId": "network chainId where the replica lives",
          "_delegate": "Delegate address in case of a bridge tx failure (currently not in use)",
          "_domainId": "Connext domain ID that correspond to the network where the replica lives",
          "_registryAddress": "replica contract address"
        }
      },
      "NewMember(address,uint32,uint32)": {
        "params": {
          "_activityMultiplier": "member activity multiplier",
          "_member": "member address",
          "_startDate": "timestamp the member started activities in seconds"
        }
      },
      "NewUpdaterConfig(address,uint32,address)": {
        "details": "this should be emmited on replica registried only",
        "params": {
          "_connext": "Connext contract address",
          "_updater": "new updater contract address",
          "_updaterDomain": "new Updater domain ID"
        }
      },
      "RegistryActivityUpdate(uint32,uint256)": {
        "params": {
          "_timestamp": "timestamp registry activity update epoch was executed",
          "_totalMemberUpdates": "total updated members during the epoch"
        }
      },
      "SplitUpdated(address,address)": {
        "params": {
          "_split": "new 0xSplitWallet contract address",
          "_splitMain": "new 0xSplitMain contract address"
        }
      },
      "SplitsUpdated(address,bytes32,uint32)": {
        "params": {
          "_split": "0xSplit contract address",
          "_splitDistributorFee": "split fee set at reward for the address that executes the distribution",
          "_splitHash": "hash of the split distribution parameters"
        }
      },
      "SyncActionPerformed(bytes32,uint32,bytes4,bool,address)": {
        "params": {
          "_action": "selector of the function that was executed on the replica",
          "_originDomain": "Connext domain ID that correspond to the network where the the sync message was submitted",
          "_originSender": "main registry address that forwarded the sync message through the Connext bridge",
          "_success": "flag whether or not the execution of the sync function succeeded",
          "_transferId": "transfer ID returned by Connext that identifies the received xcall message"
        }
      },
      "SyncMessageSubmitted(bytes32,uint32,bytes4,address)": {
        "params": {
          "_action": "Selector of the function to be executed on the replica",
          "_chainId": "chainId of the destination network",
          "_registryAddress": "replica contract address",
          "_transferId": "Transfer ID returned by Connext to identify the executed xcall"
        }
      },
      "UpdateMember(address,uint32)": {
        "params": {
          "_activityMultiplier": "new member activity multiplier",
          "_member": "member address"
        }
      },
      "UpdateMemberSeconds(address,uint32)": {
        "params": {
          "_member": "member address",
          "_secondsActive": "updated activity in seconds since last registry update"
        }
      }
    },
    "kind": "dev",
    "methods": {
      "acceptNetworkSplitControl(uint32[],uint256[])": {
        "details": "Must only be called by the owner {validNetworkParams} verifies for matching network param sizes & {msg.value}",
        "params": {
          "_chainIds": "a list of network chainIds where valid replicas live",
          "_relayerFees": "a list of fees to be paid to the Connext relayer per sync message forwarded"
        }
      },
      "acceptSplitControl()": {
        "details": "Must only be called by the owner or updater"
      },
      "batchNewMember(address[],uint32[],uint32[])": {
        "details": "{onlyOwnerOrUpdater} verifies:  - it can only be called by registry owner  - it can only be called by main registry through the Connext bridge (in case it is a replica registry)",
        "params": {
          "_activityMultipliers": "Activity multipliers for each new member",
          "_members": "A list of member addresses to be added to the registry",
          "_startDates": "A list of dates when each member got active"
        }
      },
      "batchUpdateMember(address[],uint32[])": {
        "details": "{onlyOwnerOrUpdater} verifies:  - it can only be called by registry owner  - it can only be called by main registry through the Connext bridge (in case it is a replica registry)",
        "params": {
          "_activityMultipliers": "New activity multipliers for each member",
          "_members": "A list of existing members"
        }
      },
      "calculate(address[])": {
        "details": "Verifies if the address list is sorted, has no duplicates and is valid. Formula to calculate individual allocations:  - (SQRT(secondsActive * activityMultiplier) * PERCENTAGE_SCALE) / totalContributions  - Total allocations from all members must be equal to 0xSplit PERCENTAGE_SCALE",
        "params": {
          "_sortedList": "sorted list (ascending order) of members to be considered in the 0xSplit distribution"
        },
        "returns": {
          "_percentAllocations": "list of split allocations for each eligible recipeint",
          "_receivers": "list of eligible recipients (non-zero allocation) for the next split distribution"
        }
      },
      "calculateContributionOf((address,uint32,uint32,uint32))": {
        "details": "Contribution is calculated as SQRT(member.secondsActive) However this function can be overriden to include other variables stored in state prior call (e.g.) off-chain data via oracles",
        "params": {
          "_member": "Member metadata"
        },
        "returns": {
          "_0": "calculated contribution as uin256 value"
        }
      },
      "calculateContributionOf(address)": {
        "details": "It must call calculateContributionOf(Member memory)",
        "params": {
          "_memberAddress": "member address"
        },
        "returns": {
          "_0": "calculated contribution as uin256 value"
        }
      },
      "calculateTotalContributions()": {
        "details": "omit members with activityMultiplier == 0",
        "returns": {
          "total": "total calculated contributions from active members"
        }
      },
      "cancelNetworkSplitControlTransfer(uint32[],uint256[])": {
        "details": "Must only be called by the owner {validNetworkParams} verifies for matching network param sizes & {msg.value}",
        "params": {
          "_chainIds": "a list of network chainIds where valid replicas live",
          "_relayerFees": "a list of fees to be paid to the Connext relayer per sync message forwarded"
        }
      },
      "cancelSplitControlTransfer()": {
        "details": "Must only be called by the owner or updater"
      },
      "getMember(address)": {
        "details": "throw an exception if member is not in the registry",
        "params": {
          "_member": "member address"
        },
        "returns": {
          "_0": "a Member metadata"
        }
      },
      "getMembers()": {
        "returns": {
          "_0": "an array of Members"
        }
      },
      "getMembersProperties()": {
        "returns": {
          "_0": "list of member addresses",
          "_1": "list of member activity multipliers",
          "_2": "list of member start dates"
        }
      },
      "initialize(bytes)": {
        "details": "Initialization parameters are abi-encoded through the NetworkRegistrySummoner contract",
        "params": {
          "_initializationParams": "abi-encoded parameters"
        }
      },
      "isMainRegistry()": {
        "details": "Verifies if updater params are set to zero"
      },
      "owner()": {
        "details": "Returns the address of the current owner."
      },
      "renounceOwnership()": {
        "details": "Leaves the contract without owner. It will not be possible to call `onlyOwner` functions anymore. Can only be called by the current owner. NOTE: Renouncing ownership will leave the contract without an owner, thereby removing any functionality that is only available to the owner."
      },
      "setNewMember(address,uint32,uint32)": {
        "details": "{onlyOwnerOrUpdater} verifies:  - it can only be called by registry owner  - it can only be called by main registry through the Connext bridge (in case it is a replica registry)",
        "params": {
          "_activityMultiplier": "member activity multiplier",
          "_member": "new member address",
          "_startDate": "timestamp (in seconds) when the member got active"
        }
      },
      "setSplit(address,address)": {
        "details": "Must only be called by owner or updater. Should verify the 0xSplit contract exists and that it isn't immutable (no owner) Also makes sure controller has been already handed over to the registry or it's waiting to be accepted. If manager is already a potential controller, call acceptSplitControl()",
        "params": {
          "_split": "The address of the 0xSplit contract",
          "_splitMain": "The address of the 0xSplitMain"
        }
      },
      "setUpdaterConfig(address,uint32,address)": {
        "details": "Must only be called by contract owner. Zero values will setup the contract as a main registry",
        "params": {
          "_connext": "Connext contract address",
          "_updater": "Main NetworkRegistry address that will update the registry through the Connext bridge",
          "_updaterDomain": "Connext domain ID where the updater contract is deployed"
        }
      },
      "syncBatchNewMember(address[],uint32[],uint32[],uint32[],uint256[])": {
        "details": "it can only be called by the main registry owner {validNetworkParams} verifies for matching network param sizes & {msg.value} {msg.value} must match the total fees required to pay the Connext relayer to execute messages on the destination",
        "params": {
          "_activityMultipliers": "Activity multipliers for each new member",
          "_chainIds": "a list of network chainIds where valid replicas live",
          "_members": "A list of member addresses to be added to the registry",
          "_relayerFees": "a list of fees to be paid to the Connext relayer per sync message forwarded",
          "_startDates": "A list of dates when each member got active"
        }
      },
      "syncBatchUpdateMember(address[],uint32[],uint32[],uint256[])": {
        "details": "it can only be called by the main registry owner {validNetworkParams} verifies for matching network param sizes & {msg.value} {msg.value} must match the total fees required to pay the Connext relayer to execute messages on the destination",
        "params": {
          "_activityMultipliers": "New activity multipliers for each member",
          "_chainIds": "a list of network chainIds where valid replicas live",
          "_members": "A list of existing members",
          "_relayerFees": "a list of fees to be paid to the Connext relayer per sync message forwarded"
        }
      },
      "syncNetworkMemberRegistry(uint32[],uint256[])": {
        "details": "For larger member registries calling this function can be costly or just not fit in a block gas limit",
        "params": {
          "_chainIds": "a list of network chainIds where valid replicas live",
          "_relayerFees": "a list of fees to be paid to the Connext relayer per sync message forwarded"
        }
      },
      "syncSetNewMember(address,uint32,uint32,uint32[],uint256[])": {
        "details": "it can only be called by the main registry owner {validNetworkParams} verifies for matching network param sizes & {msg.value} {msg.value} must match the total fees required to pay the Connext relayer to execute messages on the destination",
        "params": {
          "_activityMultiplier": "member activity multiplier",
          "_chainIds": "a list of network chainIds where valid replicas live",
          "_member": "new member address",
          "_relayerFees": "a list of fees to be paid to the Connext relayer per sync message forwarded",
          "_startDate": "timestamp (in seconds) when the member got active"
        }
      },
      "syncUpdateAll(address[],uint32,uint32[],uint256[])": {
        "details": "permissionless action, however the registry must hold the controller role of the 0xSplit contract {validNetworkParams} verifies for matching network param sizes & {msg.value} Addresses in _sortedList must be in the member registry",
        "params": {
          "_chainIds": "a list of network chainIds where valid replicas live",
          "_relayerFees": "a list of fees to be paid to the Connext relayer per sync message forwarded",
          "_sortedList": "sorted list (ascending order) of members to be considered in the 0xSplit distribution",
          "_splitDistributorFee": "split fee set at reward for the address that executes the distribution"
        }
      },
      "syncUpdateMember(address,uint32,uint32[],uint256[])": {
        "details": "it can only be called by the main registry owner {validNetworkParams} verifies for matching network param sizes & {msg.value} {msg.value} must match the total fees required to pay the Connext relayer to execute messages on the destination",
        "params": {
          "_activityMultiplier": "member new activity multiplier",
          "_chainIds": "a list of network chainIds where valid replicas live",
          "_member": "new member address",
          "_relayerFees": "a list of fees to be paid to the Connext relayer per sync message forwarded"
        }
      },
      "syncUpdateSecondsActive(uint32[],uint256[])": {
        "details": "permissionless action {validNetworkParams} verifies for matching network param sizes & {msg.value} {msg.value} must match the total fees required to pay the Connext relayer to execute messages on the destination",
        "params": {
          "_chainIds": "a list of network chainIds where valid replicas live",
          "_relayerFees": "a list of fees to be paid to the Connext relayer per sync message forwarded"
        }
      },
      "syncUpdateSplits(address[],uint32,uint32[],uint256[])": {
        "details": "permissionless action, however the registry must hold the controller role of the 0xSplit contract {validNetworkParams} verifies for matching network param sizes & {msg.value} Addresses in _sortedList must be in the member registry",
        "params": {
          "_chainIds": "a list of network chainIds where valid replicas live",
          "_relayerFees": "a list of fees to be paid to the Connext relayer per sync message forwarded",
          "_sortedList": "sorted list (ascending order) of members to be considered in the 0xSplit distribution",
          "_splitDistributorFee": "split fee set at reward for the address that executes the distribution"
        }
      },
      "totalMembers()": {
        "returns": {
          "_0": "total members in the registry"
        }
      },
      "transferNetworkSplitControl(uint32[],address[],uint256[])": {
        "details": "Must only be called by the owner {validNetworkParams} verifies for matching network param sizes & {msg.value}",
        "params": {
          "_chainIds": "a list of network chainIds where valid replicas live",
          "_newControllers": "new controller address per replica",
          "_relayerFees": "a list of fees to be paid to the Connext relayer per sync message forwarded"
        }
      },
      "transferOwnership(address)": {
        "details": "Transfers ownership of the contract to a new account (`newOwner`). Can only be called by the current owner."
      },
      "transferSplitControl(address)": {
        "details": "Must only be called by the owner or updater",
        "params": {
          "_newController": "new controller address"
        }
      },
      "updateAll(address[],uint32)": {
        "details": "permissionless action, however the registry must hold the controller role of the 0xSplit contract Addresses in _sortedList must be in the member registry",
        "params": {
          "_sortedList": "sorted list (ascending order) of members to be considered in the 0xSplit distribution",
          "_splitDistributorFee": "split fee set at reward for the address that executes the distribution"
        }
      },
      "updateMember(address,uint32)": {
        "details": "{onlyOwnerOrUpdater} verifies:  - it can only be called by registry owner  - it can only be called by main registry through the Connext bridge (in case it is a replica registry)",
        "params": {
          "_activityMultiplier": "member new activity multiplier",
          "_member": "member address"
        }
      },
      "updateNetworkRegistry(uint32,(uint32,address,address))": {
        "details": "Must only be called by contract owner. Sending zero values on {_newRegistry} should disable an existing replica",
        "params": {
          "_chainId": "Network chainId where the replica registry lives",
          "_newRegistry": "Connext domain ID and replica NetworkRegistry address"
        }
      },
      "updateNetworkSplit(uint32[],address[],address[],uint256[])": {
        "details": "Must only be called by the owner. {validNetworkParams} verifies for matching network param sizes & {msg.value}",
        "params": {
          "_chainIds": "a list of network chainIds where valid replicas live",
          "_relayerFees": "a list of fees to be paid to the Connext relayer per sync message forwarded",
          "_splits": "a list of 0xSplit addresses for each replica",
          "_splitsMain": "a list of 0xSplit proxy addresses for each replica"
        }
      },
      "updateSecondsActive()": {
        "details": "permissionless action"
      },
      "updateSplits(address[],uint32)": {
        "details": "permissionless action, however the registry must hold the controller role of the 0xSplit contract Addresses in _sortedList must be in the member registry",
        "params": {
          "_sortedList": "sorted list (ascending order) of members to be considered in the 0xSplit distribution",
          "_splitDistributorFee": "split fee set at reward for the address that executes the distribution"
        }
      },
      "xReceive(bytes32,uint256,address,address,uint32,bytes)": {
        "details": "Forwared messages can only be executed if their function selector is listed as valid action",
        "params": {
          "_incomingCalldata": "message calldata to be used to invoke the required syncing action",
          "_origin": "Connext domain ID that correspond to the network where the the xcall message was submitted",
          "_originSender": "main registry address that forwarded the xcall message through the Connext bridge",
          "_transferId": "transfer ID set by Connext to identify the incoming xcall message"
        },
        "returns": {
          "_0": "any data returned by calling the action"
        }
      }
    },
    "stateVariables": {
      "PERCENTAGE_SCALE": {
        "details": "constant to scale uints into percentages (1e6 == 100%)"
      },
      "networkRegistry": {
        "details": "chainId => Registry"
      },
      "split": {
        "details": "0xSplitWallet contract"
      },
      "splitMain": {
        "details": "0xSplitMain contract"
      },
      "updater": {
        "details": "In case of a main registry, the updater contract must be set to address(0)In case of a replica, the updater contract must be the main NetworkRegistry address"
      },
      "updaterDomain": {
        "details": "In case of a main registry, the updater domain must be set to 0In case of a replica, the Connext Domain ID must match to the network where main registry lives"
      }
    },
    "title": "A cross-chain network registry to distribute funds escrowed in 0xSplit based on member activity",
    "version": 1
  },
  "userdoc": {
    "errors": {
      "InvalidMember__ActivityMultiplier(address,uint32)": [
        {
          "notice": "Invalid value for member activity multiplier"
        }
      ],
      "InvalidMember__Address(address)": [
        {
          "notice": "Invalid member address"
        }
      ],
      "InvalidMember__StartDateInTheFuture(address,uint32)": [
        {
          "notice": "Invalid member start date"
        }
      ],
      "InvalidSplit__AccountsOutOfOrder(uint256)": [
        {
          "notice": "Member list must be sorted in ascending order"
        }
      ],
      "InvalidSplit__MemberListSizeMismatch()": [
        {
          "notice": "Member list size doens't match the current amount of members in the regsitry"
        }
      ],
      "Member__AlreadyRegistered(address)": [
        {
          "notice": "Member is already registered"
        }
      ],
      "Member__NotRegistered(address)": [
        {
          "notice": "Member is not registered"
        }
      ],
      "PRBMath_UD60x18_Sqrt_Overflow(uint256)": [
        {
          "notice": "Thrown when calculating the square root overflows UD60x18."
        }
      ],
      "Split_ControlNotHandedOver()": [
        {
          "notice": "Control of 0xSplit contract hasn't been transferred to the registry"
        }
      ]
    },
    "events": {
      "NetworkRegistryUpdated(uint32,address,uint32,address)": {
        "notice": "emitted when a new replica NetworkRegistry is added"
      },
      "NewMember(address,uint32,uint32)": {
        "notice": "emitted after a new member is added to the registry"
      },
      "NewUpdaterConfig(address,uint32,address)": {
        "notice": "emitted after the connection to the main registry (updater) domain & address are updated"
      },
      "RegistryActivityUpdate(uint32,uint256)": {
        "notice": "emitted after an registry activity update epoch is executed"
      },
      "SplitUpdated(address,address)": {
        "notice": "emitted when the 0xSplit contract is updated"
      },
      "SplitsUpdated(address,bytes32,uint32)": {
        "notice": "emitted when a new split of funds is registered on the 0xSplit contract"
      },
      "SyncActionPerformed(bytes32,uint32,bytes4,bool,address)": {
        "notice": "emitted when a registry synchronization message is received and executed on a replica"
      },
      "SyncMessageSubmitted(bytes32,uint32,bytes4,address)": {
        "notice": "emitted when a registry synchronization message is forwared through the Connext bridge"
      },
      "UpdateMember(address,uint32)": {
        "notice": "emitted after the an existing member is updated"
      },
      "UpdateMemberSeconds(address,uint32)": {
        "notice": "emitted after each time a member registry activity is updated"
      }
    },
    "kind": "user",
    "methods": {
      "acceptNetworkSplitControl(uint32[],uint256[])": {
        "notice": "Sends sync messages to replicas in order to accept control of the current 0xSplit contract"
      },
      "acceptSplitControl()": {
        "notice": "Accepts control of the current 0xSplit contract"
      },
      "batchNewMember(address[],uint32[],uint32[])": {
        "notice": "Adds a new set of members to the registry"
      },
      "batchUpdateMember(address[],uint32[])": {
        "notice": "Updates the activity multiplier for a set of existing members"
      },
      "calculate(address[])": {
        "notice": "Calculate split allocations"
      },
      "calculateContributionOf((address,uint32,uint32,uint32))": {
        "notice": "Calculates individual contribution based on member activity"
      },
      "calculateContributionOf(address)": {
        "notice": "Calculates individual contribution based on member activity"
      },
      "calculateTotalContributions()": {
        "notice": "Calculates all active member contributions"
      },
      "cancelNetworkSplitControlTransfer(uint32[],uint256[])": {
        "notice": "Sends sync messages to replicas in order to cancel a transfer control request of the current 0xSplit contract"
      },
      "cancelSplitControlTransfer()": {
        "notice": "Cancel controller transfer of the current 0xSplit contract"
      },
      "connext()": {
        "notice": "Connext contract in the current domain"
      },
      "getMember(address)": {
        "notice": "gets a member metadata if registered"
      },
      "getMembers()": {
        "notice": "gets a list of current members in the registry including all metadata"
      },
      "getMembersProperties()": {
        "notice": "gets all member's properties in the registry as separate property arrays"
      },
      "initialize(bytes)": {
        "notice": "Initializs the registry contract"
      },
      "isMainRegistry()": {
        "notice": "Returns True if the registry has been setup as Main or Replica"
      },
      "lastActivityUpdate()": {
        "notice": "last timestamp where the registry got updated"
      },
      "memberIdxs(address)": {
        "notice": "member index in the registry"
      },
      "members(uint256)": {
        "notice": "current list members in the registry"
      },
      "networkRegistry(uint32)": {
        "notice": "replica registries tied to the current contract"
      },
      "setNewMember(address,uint32,uint32)": {
        "notice": "Adds a new member to the registry"
      },
      "setSplit(address,address)": {
        "notice": "Updates the addresses for the 0xSplitMain proxy and 0xSplit contract"
      },
      "setUpdaterConfig(address,uint32,address)": {
        "notice": "Set connext and updater config parameters to setup the contract as a replica registry"
      },
      "split()": {
        "notice": "0xSplit contract where funds are hold"
      },
      "splitMain()": {
        "notice": "0xSplit proxy contract"
      },
      "syncBatchNewMember(address[],uint32[],uint32[],uint32[],uint256[])": {
        "notice": "Adds a new set of members to the registry and sync with replicas"
      },
      "syncBatchUpdateMember(address[],uint32[],uint32[],uint256[])": {
        "notice": "Updates the activity multiplier for a set of existing members and sync with replicas"
      },
      "syncNetworkMemberRegistry(uint32[],uint256[])": {
        "notice": "Sync all registry members. Useful if looking to sync a new replica from scratch however action can be pretty gas intensive in case of the registry having a large amount of members {validNetworkParams} verifies for matching network param sizes & {msg.value}"
      },
      "syncSetNewMember(address,uint32,uint32,uint32[],uint256[])": {
        "notice": "Adds a new member to the registry and sync with replicas"
      },
      "syncUpdateAll(address[],uint32,uint32[],uint256[])": {
        "notice": "Updates both {updateSecondsActive} to update registry member activity and {updateSplits} for split distribution across all networks"
      },
      "syncUpdateMember(address,uint32,uint32[],uint256[])": {
        "notice": "Updates the activity multiplier of an existing member and sync with replicas"
      },
      "syncUpdateSecondsActive(uint32[],uint256[])": {
        "notice": "Updates activity for each member in the registry since the last update epoch and sync with replicas"
      },
      "syncUpdateSplits(address[],uint32,uint32[],uint256[])": {
        "notice": "Updates the 0xsplit distribution across all networks based on member activity during the last epoch. Consider calling {syncUpdateSecondsActive} prior or after applying a 0xSplit distribution update"
      },
      "totalMembers()": {
        "notice": "gets the current amount of members in the registry"
      },
      "transferNetworkSplitControl(uint32[],address[],uint256[])": {
        "notice": "Sends sync messages to replicas in order to transfer control of the current 0xSplit contract to `_newController`"
      },
      "transferSplitControl(address)": {
        "notice": "Transfer control of the current 0xSplit contract to `_newController`"
      },
      "updateAll(address[],uint32)": {
        "notice": "Updates both {updateSecondsActive} to update registry member activity and {updateSplits} for split distribution"
      },
      "updateMember(address,uint32)": {
        "notice": "Updates the activity multiplier of an existing member"
      },
      "updateNetworkRegistry(uint32,(uint32,address,address))": {
        "notice": "Adds a replica NetworkRegistry to get in sync with the main registry"
      },
      "updateNetworkSplit(uint32[],address[],address[],uint256[])": {
        "notice": "Updates the 0xSplit contracts on existing NetworkRegistry replicas via sync message"
      },
      "updateSecondsActive()": {
        "notice": "Updates seconds active for each member in the registry since the last update epoch"
      },
      "updateSplits(address[],uint32)": {
        "notice": "Updates the 0xsplit distribution based on member activity during the last epoch. Consider calling {updateSecondsActive} prior or after applying a 0xSplit distribution update"
      },
      "updater()": {
        "notice": "Address of the updater contract that updates the registry through the Connext bridge"
      },
      "updaterDomain()": {
        "notice": "Connext domain ID where the updater contract is deployed"
      },
      "xReceive(bytes32,uint256,address,address,uint32,bytes)": {
        "notice": "Accepts incoming sync messages from the main registry"
      }
    },
    "notice": "Manage a cross-chain member registry to distribute funds hold in 0xSplit based on member activity",
    "version": 1
  },
  "storageLayout": {
    "storage": [
      {
        "astId": 829,
        "contract": "contracts/NetworkRegistry.sol:NetworkRegistry",
        "label": "_initialized",
        "offset": 0,
        "slot": "0",
        "type": "t_uint8"
      },
      {
        "astId": 832,
        "contract": "contracts/NetworkRegistry.sol:NetworkRegistry",
        "label": "_initializing",
        "offset": 1,
        "slot": "0",
        "type": "t_bool"
      },
      {
        "astId": 1316,
        "contract": "contracts/NetworkRegistry.sol:NetworkRegistry",
        "label": "__gap",
        "offset": 0,
        "slot": "1",
        "type": "t_array(t_uint256)50_storage"
      },
      {
        "astId": 701,
        "contract": "contracts/NetworkRegistry.sol:NetworkRegistry",
        "label": "_owner",
        "offset": 0,
        "slot": "51",
        "type": "t_address"
      },
      {
        "astId": 821,
        "contract": "contracts/NetworkRegistry.sol:NetworkRegistry",
        "label": "__gap",
        "offset": 0,
        "slot": "52",
        "type": "t_array(t_uint256)49_storage"
      },
      {
        "astId": 11756,
        "contract": "contracts/NetworkRegistry.sol:NetworkRegistry",
        "label": "members",
        "offset": 0,
        "slot": "101",
        "type": "t_array(t_struct(Member)11751_storage)dyn_storage"
      },
      {
        "astId": 11760,
        "contract": "contracts/NetworkRegistry.sol:NetworkRegistry",
        "label": "count",
        "offset": 0,
        "slot": "102",
        "type": "t_uint256"
      },
      {
        "astId": 11765,
        "contract": "contracts/NetworkRegistry.sol:NetworkRegistry",
        "label": "memberIdxs",
        "offset": 0,
        "slot": "103",
        "type": "t_mapping(t_address,t_uint256)"
      },
      {
        "astId": 11768,
        "contract": "contracts/NetworkRegistry.sol:NetworkRegistry",
        "label": "lastActivityUpdate",
        "offset": 0,
        "slot": "104",
        "type": "t_uint32"
      },
      {
        "astId": 8512,
        "contract": "contracts/NetworkRegistry.sol:NetworkRegistry",
        "label": "connext",
        "offset": 4,
        "slot": "104",
        "type": "t_contract(IConnext)285"
      },
      {
        "astId": 8515,
        "contract": "contracts/NetworkRegistry.sol:NetworkRegistry",
        "label": "updaterDomain",
        "offset": 24,
        "slot": "104",
        "type": "t_uint32"
      },
      {
        "astId": 8518,
        "contract": "contracts/NetworkRegistry.sol:NetworkRegistry",
        "label": "updater",
        "offset": 0,
        "slot": "105",
        "type": "t_address"
      },
      {
        "astId": 8524,
        "contract": "contracts/NetworkRegistry.sol:NetworkRegistry",
        "label": "networkRegistry",
        "offset": 0,
        "slot": "106",
        "type": "t_mapping(t_uint32,t_struct(Registry)11204_storage)"
      },
      {
        "astId": 8528,
        "contract": "contracts/NetworkRegistry.sol:NetworkRegistry",
        "label": "splitMain",
        "offset": 0,
        "slot": "107",
        "type": "t_contract(ISplitMain)11631"
      },
      {
        "astId": 8531,
        "contract": "contracts/NetworkRegistry.sol:NetworkRegistry",
        "label": "split",
        "offset": 0,
        "slot": "108",
        "type": "t_address"
      }
    ],
    "types": {
      "t_address": {
        "encoding": "inplace",
        "label": "address",
        "numberOfBytes": "20"
      },
      "t_array(t_struct(Member)11751_storage)dyn_storage": {
        "base": "t_struct(Member)11751_storage",
        "encoding": "dynamic_array",
        "label": "struct MemberRegistry.Member[]",
        "numberOfBytes": "32"
      },
      "t_array(t_uint256)49_storage": {
        "base": "t_uint256",
        "encoding": "inplace",
        "label": "uint256[49]",
        "numberOfBytes": "1568"
      },
      "t_array(t_uint256)50_storage": {
        "base": "t_uint256",
        "encoding": "inplace",
        "label": "uint256[50]",
        "numberOfBytes": "1600"
      },
      "t_bool": {
        "encoding": "inplace",
        "label": "bool",
        "numberOfBytes": "1"
      },
      "t_contract(IConnext)285": {
        "encoding": "inplace",
        "label": "contract IConnext",
        "numberOfBytes": "20"
      },
      "t_contract(ISplitMain)11631": {
        "encoding": "inplace",
        "label": "contract ISplitMain",
        "numberOfBytes": "20"
      },
      "t_mapping(t_address,t_uint256)": {
        "encoding": "mapping",
        "key": "t_address",
        "label": "mapping(address => uint256)",
        "numberOfBytes": "32",
        "value": "t_uint256"
      },
      "t_mapping(t_uint32,t_struct(Registry)11204_storage)": {
        "encoding": "mapping",
        "key": "t_uint32",
        "label": "mapping(uint32 => struct INetworkMemberRegistry.Registry)",
        "numberOfBytes": "32",
        "value": "t_struct(Registry)11204_storage"
      },
      "t_struct(Member)11751_storage": {
        "encoding": "inplace",
        "label": "struct MemberRegistry.Member",
        "members": [
          {
            "astId": 11741,
            "contract": "contracts/NetworkRegistry.sol:NetworkRegistry",
            "label": "account",
            "offset": 0,
            "slot": "0",
            "type": "t_address"
          },
          {
            "astId": 11744,
            "contract": "contracts/NetworkRegistry.sol:NetworkRegistry",
            "label": "secondsActive",
            "offset": 20,
            "slot": "0",
            "type": "t_uint32"
          },
          {
            "astId": 11747,
            "contract": "contracts/NetworkRegistry.sol:NetworkRegistry",
            "label": "startDate",
            "offset": 24,
            "slot": "0",
            "type": "t_uint32"
          },
          {
            "astId": 11750,
            "contract": "contracts/NetworkRegistry.sol:NetworkRegistry",
            "label": "activityMultiplier",
            "offset": 28,
            "slot": "0",
            "type": "t_uint32"
          }
        ],
        "numberOfBytes": "32"
      },
      "t_struct(Registry)11204_storage": {
        "encoding": "inplace",
        "label": "struct INetworkMemberRegistry.Registry",
        "members": [
          {
            "astId": 11197,
            "contract": "contracts/NetworkRegistry.sol:NetworkRegistry",
            "label": "domainId",
            "offset": 0,
            "slot": "0",
            "type": "t_uint32"
          },
          {
            "astId": 11200,
            "contract": "contracts/NetworkRegistry.sol:NetworkRegistry",
            "label": "registryAddress",
            "offset": 4,
            "slot": "0",
            "type": "t_address"
          },
          {
            "astId": 11203,
            "contract": "contracts/NetworkRegistry.sol:NetworkRegistry",
            "label": "delegate",
            "offset": 0,
            "slot": "1",
            "type": "t_address"
          }
        ],
        "numberOfBytes": "64"
      },
      "t_uint256": {
        "encoding": "inplace",
        "label": "uint256",
        "numberOfBytes": "32"
      },
      "t_uint32": {
        "encoding": "inplace",
        "label": "uint32",
        "numberOfBytes": "4"
      },
      "t_uint8": {
        "encoding": "inplace",
        "label": "uint8",
        "numberOfBytes": "1"
      }
    }
  }
}