{
  "address": "0x329a79C1967565a89cD54fCC40614b3C7dfBD9d4",
  "abi": [
    {
      "inputs": [],
      "stateMutability": "nonpayable",
      "type": "constructor"
    },
    {
      "inputs": [],
      "name": "InvalidInitialization",
      "type": "error"
    },
    {
      "inputs": [
        {
          "internalType": "address",
          "name": "_memberAddress",
          "type": "address"
        },
        {
          "internalType": "uint32",
          "name": "_activityMultiplier",
          "type": "uint32"
        }
      ],
      "name": "InvalidMember__ActivityMultiplier",
      "type": "error"
    },
    {
      "inputs": [
        {
          "internalType": "address",
          "name": "_memberAddress",
          "type": "address"
        }
      ],
      "name": "InvalidMember__Address",
      "type": "error"
    },
    {
      "inputs": [
        {
          "internalType": "address",
          "name": "_memberAddress",
          "type": "address"
        },
        {
          "internalType": "uint32",
          "name": "_startDate",
          "type": "uint32"
        }
      ],
      "name": "InvalidMember__StartDateInTheFuture",
      "type": "error"
    },
    {
      "inputs": [],
      "name": "MemberRegistry__ParamsSizeMismatch",
      "type": "error"
    },
    {
      "inputs": [
        {
          "internalType": "address",
          "name": "_memberAddress",
          "type": "address"
        }
      ],
      "name": "Member__AlreadyRegistered",
      "type": "error"
    },
    {
      "inputs": [],
      "name": "Member__IndexOutOfBounds",
      "type": "error"
    },
    {
      "inputs": [
        {
          "internalType": "address",
          "name": "_memberAddress",
          "type": "address"
        }
      ],
      "name": "Member__NotRegistered",
      "type": "error"
    },
    {
      "inputs": [],
      "name": "NetWorkRegistry__ParamsSizeMismatch",
      "type": "error"
    },
    {
      "inputs": [],
      "name": "NetworkRegistryShaman__InvalidBaalAddress",
      "type": "error"
    },
    {
      "inputs": [],
      "name": "NetworkRegistryShaman__NotManagerShaman",
      "type": "error"
    },
    {
      "inputs": [],
      "name": "NetworkRegistry__ConnextOnly",
      "type": "error"
    },
    {
      "inputs": [],
      "name": "NetworkRegistry__InvalidConnextAddress",
      "type": "error"
    },
    {
      "inputs": [],
      "name": "NetworkRegistry__InvalidOrImmutableSplit",
      "type": "error"
    },
    {
      "inputs": [],
      "name": "NetworkRegistry__InvalidReplica",
      "type": "error"
    },
    {
      "inputs": [],
      "name": "NetworkRegistry__NeitherOwnableNorReplicaUpdater",
      "type": "error"
    },
    {
      "inputs": [
        {
          "internalType": "uint32",
          "name": "_chainId",
          "type": "uint32"
        }
      ],
      "name": "NetworkRegistry__NoReplicaOnNetwork",
      "type": "error"
    },
    {
      "inputs": [],
      "name": "NetworkRegistry__OnlyMainRegistry",
      "type": "error"
    },
    {
      "inputs": [],
      "name": "NetworkRegistry__OnlyOwnerOrUpdater",
      "type": "error"
    },
    {
      "inputs": [],
      "name": "NetworkRegistry__OnlyReplicaRegistry",
      "type": "error"
    },
    {
      "inputs": [],
      "name": "NetworkRegistry__ValueSentLessThanRelayerFees",
      "type": "error"
    },
    {
      "inputs": [],
      "name": "NotInitializing",
      "type": "error"
    },
    {
      "inputs": [
        {
          "internalType": "address",
          "name": "owner",
          "type": "address"
        }
      ],
      "name": "OwnableInvalidOwner",
      "type": "error"
    },
    {
      "inputs": [
        {
          "internalType": "address",
          "name": "account",
          "type": "address"
        }
      ],
      "name": "OwnableUnauthorizedAccount",
      "type": "error"
    },
    {
      "inputs": [],
      "name": "Split_ControlNotHandedOver",
      "type": "error"
    },
    {
      "anonymous": false,
      "inputs": [
        {
          "indexed": false,
          "internalType": "uint64",
          "name": "version",
          "type": "uint64"
        }
      ],
      "name": "Initialized",
      "type": "event"
    },
    {
      "anonymous": false,
      "inputs": [
        {
          "indexed": true,
          "internalType": "uint32",
          "name": "_chainId",
          "type": "uint32"
        },
        {
          "indexed": true,
          "internalType": "address",
          "name": "_registryAddress",
          "type": "address"
        },
        {
          "indexed": true,
          "internalType": "uint32",
          "name": "_domainId",
          "type": "uint32"
        },
        {
          "indexed": false,
          "internalType": "address",
          "name": "_delegate",
          "type": "address"
        }
      ],
      "name": "NetworkRegistryUpdated",
      "type": "event"
    },
    {
      "anonymous": false,
      "inputs": [
        {
          "indexed": true,
          "internalType": "address",
          "name": "_memberAddress",
          "type": "address"
        },
        {
          "indexed": false,
          "internalType": "uint32",
          "name": "_startDate",
          "type": "uint32"
        },
        {
          "indexed": false,
          "internalType": "uint32",
          "name": "_activityMultiplier",
          "type": "uint32"
        }
      ],
      "name": "NewMember",
      "type": "event"
    },
    {
      "anonymous": false,
      "inputs": [
        {
          "indexed": false,
          "internalType": "address",
          "name": "_connext",
          "type": "address"
        },
        {
          "indexed": false,
          "internalType": "uint32",
          "name": "_updaterDomain",
          "type": "uint32"
        },
        {
          "indexed": false,
          "internalType": "address",
          "name": "_updater",
          "type": "address"
        }
      ],
      "name": "NewUpdaterConfig",
      "type": "event"
    },
    {
      "anonymous": false,
      "inputs": [
        {
          "indexed": true,
          "internalType": "address",
          "name": "previousOwner",
          "type": "address"
        },
        {
          "indexed": true,
          "internalType": "address",
          "name": "newOwner",
          "type": "address"
        }
      ],
      "name": "OwnershipTransferred",
      "type": "event"
    },
    {
      "anonymous": false,
      "inputs": [
        {
          "indexed": false,
          "internalType": "uint32",
          "name": "_timestamp",
          "type": "uint32"
        },
        {
          "indexed": false,
          "internalType": "uint256",
          "name": "_totalMemberUpdates",
          "type": "uint256"
        }
      ],
      "name": "RegistryActivityUpdate",
      "type": "event"
    },
    {
      "anonymous": false,
      "inputs": [
        {
          "indexed": false,
          "internalType": "uint256",
          "name": "_sharesToMint",
          "type": "uint256"
        },
        {
          "indexed": false,
          "internalType": "bool",
          "name": "_burnShares",
          "type": "bool"
        }
      ],
      "name": "ShamanConfigUpdated",
      "type": "event"
    },
    {
      "anonymous": false,
      "inputs": [
        {
          "indexed": false,
          "internalType": "address",
          "name": "_splitMain",
          "type": "address"
        },
        {
          "indexed": false,
          "internalType": "address",
          "name": "_split",
          "type": "address"
        }
      ],
      "name": "SplitUpdated",
      "type": "event"
    },
    {
      "anonymous": false,
      "inputs": [
        {
          "indexed": false,
          "internalType": "address",
          "name": "_split",
          "type": "address"
        },
        {
          "indexed": false,
          "internalType": "bytes32",
          "name": "_splitHash",
          "type": "bytes32"
        },
        {
          "indexed": false,
          "internalType": "uint32",
          "name": "_splitDistributorFee",
          "type": "uint32"
        }
      ],
      "name": "SplitsDistributionUpdated",
      "type": "event"
    },
    {
      "anonymous": false,
      "inputs": [
        {
          "indexed": true,
          "internalType": "bytes32",
          "name": "_transferId",
          "type": "bytes32"
        },
        {
          "indexed": true,
          "internalType": "uint32",
          "name": "_originDomain",
          "type": "uint32"
        },
        {
          "indexed": true,
          "internalType": "bytes4",
          "name": "_action",
          "type": "bytes4"
        },
        {
          "indexed": false,
          "internalType": "bool",
          "name": "_success",
          "type": "bool"
        },
        {
          "indexed": false,
          "internalType": "address",
          "name": "_originSender",
          "type": "address"
        }
      ],
      "name": "SyncActionPerformed",
      "type": "event"
    },
    {
      "anonymous": false,
      "inputs": [
        {
          "indexed": true,
          "internalType": "bytes32",
          "name": "_transferId",
          "type": "bytes32"
        },
        {
          "indexed": true,
          "internalType": "uint32",
          "name": "_chainId",
          "type": "uint32"
        },
        {
          "indexed": true,
          "internalType": "bytes4",
          "name": "_action",
          "type": "bytes4"
        },
        {
          "indexed": false,
          "internalType": "address",
          "name": "_registryAddress",
          "type": "address"
        }
      ],
      "name": "SyncMessageSubmitted",
      "type": "event"
    },
    {
      "anonymous": false,
      "inputs": [
        {
          "indexed": true,
          "internalType": "address",
          "name": "_memberAddress",
          "type": "address"
        },
        {
          "indexed": false,
          "internalType": "uint32",
          "name": "_activityMultiplier",
          "type": "uint32"
        },
        {
          "indexed": false,
          "internalType": "uint32",
          "name": "_startDate",
          "type": "uint32"
        },
        {
          "indexed": false,
          "internalType": "uint32",
          "name": "_secondsActive",
          "type": "uint32"
        }
      ],
      "name": "UpdateMember",
      "type": "event"
    },
    {
      "anonymous": false,
      "inputs": [
        {
          "indexed": true,
          "internalType": "address",
          "name": "_memberAddress",
          "type": "address"
        },
        {
          "indexed": false,
          "internalType": "uint32",
          "name": "_secondsActive",
          "type": "uint32"
        }
      ],
      "name": "UpdateMemberSeconds",
      "type": "event"
    },
    {
      "inputs": [
        {
          "internalType": "uint32[]",
          "name": "_chainIds",
          "type": "uint32[]"
        },
        {
          "internalType": "uint256[]",
          "name": "_relayerFees",
          "type": "uint256[]"
        }
      ],
      "name": "acceptNetworkSplitControl",
      "outputs": [],
      "stateMutability": "payable",
      "type": "function"
    },
    {
      "inputs": [],
      "name": "acceptSplitControl",
      "outputs": [],
      "stateMutability": "nonpayable",
      "type": "function"
    },
    {
      "inputs": [
        {
          "internalType": "address[]",
          "name": "_members",
          "type": "address[]"
        },
        {
          "internalType": "uint32[]",
          "name": "_activityMultipliers",
          "type": "uint32[]"
        },
        {
          "internalType": "uint32[]",
          "name": "_startDates",
          "type": "uint32[]"
        },
        {
          "internalType": "uint32[]",
          "name": "_secondsActive",
          "type": "uint32[]"
        }
      ],
      "name": "addOrUpdateMembersBatch",
      "outputs": [],
      "stateMutability": "nonpayable",
      "type": "function"
    },
    {
      "inputs": [],
      "name": "baal",
      "outputs": [
        {
          "internalType": "contract IBaal",
          "name": "",
          "type": "address"
        }
      ],
      "stateMutability": "view",
      "type": "function"
    },
    {
      "inputs": [
        {
          "internalType": "address[]",
          "name": "_members",
          "type": "address[]"
        },
        {
          "internalType": "uint32[]",
          "name": "_activityMultipliers",
          "type": "uint32[]"
        },
        {
          "internalType": "uint32[]",
          "name": "_startDates",
          "type": "uint32[]"
        }
      ],
      "name": "batchNewMembers",
      "outputs": [],
      "stateMutability": "nonpayable",
      "type": "function"
    },
    {
      "inputs": [
        {
          "internalType": "address[]",
          "name": "_members",
          "type": "address[]"
        },
        {
          "internalType": "uint32[]",
          "name": "_activityMultipliers",
          "type": "uint32[]"
        }
      ],
      "name": "batchUpdateMembersActivity",
      "outputs": [],
      "stateMutability": "nonpayable",
      "type": "function"
    },
    {
      "inputs": [],
      "name": "burnShares",
      "outputs": [
        {
          "internalType": "bool",
          "name": "",
          "type": "bool"
        }
      ],
      "stateMutability": "view",
      "type": "function"
    },
    {
      "inputs": [
        {
          "internalType": "address[]",
          "name": "_sortedList",
          "type": "address[]"
        }
      ],
      "name": "calculate",
      "outputs": [
        {
          "internalType": "address[]",
          "name": "_receivers",
          "type": "address[]"
        },
        {
          "internalType": "uint32[]",
          "name": "_percentAllocations",
          "type": "uint32[]"
        }
      ],
      "stateMutability": "view",
      "type": "function"
    },
    {
      "inputs": [
        {
          "internalType": "address",
          "name": "_memberAddress",
          "type": "address"
        }
      ],
      "name": "calculateContributionOf",
      "outputs": [
        {
          "internalType": "uint256",
          "name": "",
          "type": "uint256"
        }
      ],
      "stateMutability": "view",
      "type": "function"
    },
    {
      "inputs": [],
      "name": "calculateTotalContributions",
      "outputs": [
        {
          "internalType": "uint256",
          "name": "total",
          "type": "uint256"
        }
      ],
      "stateMutability": "view",
      "type": "function"
    },
    {
      "inputs": [
        {
          "internalType": "uint32[]",
          "name": "_chainIds",
          "type": "uint32[]"
        },
        {
          "internalType": "uint256[]",
          "name": "_relayerFees",
          "type": "uint256[]"
        }
      ],
      "name": "cancelNetworkSplitControlTransfer",
      "outputs": [],
      "stateMutability": "payable",
      "type": "function"
    },
    {
      "inputs": [],
      "name": "cancelSplitControlTransfer",
      "outputs": [],
      "stateMutability": "nonpayable",
      "type": "function"
    },
    {
      "inputs": [],
      "name": "connext",
      "outputs": [
        {
          "internalType": "contract IConnext",
          "name": "",
          "type": "address"
        }
      ],
      "stateMutability": "view",
      "type": "function"
    },
    {
      "inputs": [
        {
          "internalType": "address",
          "name": "_memberAddress",
          "type": "address"
        }
      ],
      "name": "getMember",
      "outputs": [
        {
          "components": [
            {
              "internalType": "address",
              "name": "account",
              "type": "address"
            },
            {
              "internalType": "uint32",
              "name": "secondsActive",
              "type": "uint32"
            },
            {
              "internalType": "uint32",
              "name": "startDate",
              "type": "uint32"
            },
            {
              "internalType": "uint32",
              "name": "activityMultiplier",
              "type": "uint32"
            }
          ],
          "internalType": "struct DataTypes.Member",
          "name": "member",
          "type": "tuple"
        }
      ],
      "stateMutability": "view",
      "type": "function"
    },
    {
      "inputs": [],
      "name": "getMembers",
      "outputs": [
        {
          "components": [
            {
              "internalType": "address",
              "name": "account",
              "type": "address"
            },
            {
              "internalType": "uint32",
              "name": "secondsActive",
              "type": "uint32"
            },
            {
              "internalType": "uint32",
              "name": "startDate",
              "type": "uint32"
            },
            {
              "internalType": "uint32",
              "name": "activityMultiplier",
              "type": "uint32"
            }
          ],
          "internalType": "struct DataTypes.Member[]",
          "name": "",
          "type": "tuple[]"
        }
      ],
      "stateMutability": "view",
      "type": "function"
    },
    {
      "inputs": [
        {
          "internalType": "uint256",
          "name": "_fromIndex",
          "type": "uint256"
        },
        {
          "internalType": "uint256",
          "name": "_toIndex",
          "type": "uint256"
        }
      ],
      "name": "getMembersPaginated",
      "outputs": [
        {
          "components": [
            {
              "internalType": "address",
              "name": "account",
              "type": "address"
            },
            {
              "internalType": "uint32",
              "name": "secondsActive",
              "type": "uint32"
            },
            {
              "internalType": "uint32",
              "name": "startDate",
              "type": "uint32"
            },
            {
              "internalType": "uint32",
              "name": "activityMultiplier",
              "type": "uint32"
            }
          ],
          "internalType": "struct DataTypes.Member[]",
          "name": "memberList",
          "type": "tuple[]"
        }
      ],
      "stateMutability": "view",
      "type": "function"
    },
    {
      "inputs": [
        {
          "internalType": "address[]",
          "name": "_members",
          "type": "address[]"
        }
      ],
      "name": "getMembersProperties",
      "outputs": [
        {
          "internalType": "uint32[]",
          "name": "",
          "type": "uint32[]"
        },
        {
          "internalType": "uint32[]",
          "name": "",
          "type": "uint32[]"
        },
        {
          "internalType": "uint32[]",
          "name": "",
          "type": "uint32[]"
        }
      ],
      "stateMutability": "view",
      "type": "function"
    },
    {
      "inputs": [
        {
          "internalType": "bytes",
          "name": "_initializationParams",
          "type": "bytes"
        }
      ],
      "name": "initialize",
      "outputs": [],
      "stateMutability": "nonpayable",
      "type": "function"
    },
    {
      "inputs": [],
      "name": "isMainRegistry",
      "outputs": [
        {
          "internalType": "bool",
          "name": "",
          "type": "bool"
        }
      ],
      "stateMutability": "view",
      "type": "function"
    },
    {
      "inputs": [],
      "name": "lastActivityUpdate",
      "outputs": [
        {
          "internalType": "uint32",
          "name": "",
          "type": "uint32"
        }
      ],
      "stateMutability": "view",
      "type": "function"
    },
    {
      "inputs": [],
      "name": "owner",
      "outputs": [
        {
          "internalType": "address",
          "name": "",
          "type": "address"
        }
      ],
      "stateMutability": "view",
      "type": "function"
    },
    {
      "inputs": [],
      "name": "renounceOwnership",
      "outputs": [],
      "stateMutability": "nonpayable",
      "type": "function"
    },
    {
      "inputs": [
        {
          "internalType": "uint32",
          "name": "",
          "type": "uint32"
        }
      ],
      "name": "replicaRegistry",
      "outputs": [
        {
          "internalType": "uint32",
          "name": "domainId",
          "type": "uint32"
        },
        {
          "internalType": "address",
          "name": "registryAddress",
          "type": "address"
        },
        {
          "internalType": "address",
          "name": "delegate",
          "type": "address"
        }
      ],
      "stateMutability": "view",
      "type": "function"
    },
    {
      "inputs": [
        {
          "internalType": "uint32[]",
          "name": "_chainIds",
          "type": "uint32[]"
        },
        {
          "internalType": "address[]",
          "name": "_connextAddrs",
          "type": "address[]"
        },
        {
          "internalType": "uint32[]",
          "name": "_updaterDomains",
          "type": "uint32[]"
        },
        {
          "internalType": "address[]",
          "name": "_updaterAddrs",
          "type": "address[]"
        },
        {
          "internalType": "uint256[]",
          "name": "_relayerFees",
          "type": "uint256[]"
        }
      ],
      "name": "setNetworkUpdaterConfig",
      "outputs": [],
      "stateMutability": "payable",
      "type": "function"
    },
    {
      "inputs": [
        {
          "internalType": "uint256",
          "name": "_sharesToMint",
          "type": "uint256"
        },
        {
          "internalType": "bool",
          "name": "_burnShares",
          "type": "bool"
        }
      ],
      "name": "setShamanConfig",
      "outputs": [],
      "stateMutability": "nonpayable",
      "type": "function"
    },
    {
      "inputs": [
        {
          "internalType": "address",
          "name": "_splitMain",
          "type": "address"
        },
        {
          "internalType": "address",
          "name": "_split",
          "type": "address"
        }
      ],
      "name": "setSplit",
      "outputs": [],
      "stateMutability": "nonpayable",
      "type": "function"
    },
    {
      "inputs": [
        {
          "internalType": "address",
          "name": "_connext",
          "type": "address"
        },
        {
          "internalType": "uint32",
          "name": "_updaterDomain",
          "type": "uint32"
        },
        {
          "internalType": "address",
          "name": "_updater",
          "type": "address"
        }
      ],
      "name": "setUpdaterConfig",
      "outputs": [],
      "stateMutability": "nonpayable",
      "type": "function"
    },
    {
      "inputs": [],
      "name": "sharesToMint",
      "outputs": [
        {
          "internalType": "uint256",
          "name": "",
          "type": "uint256"
        }
      ],
      "stateMutability": "view",
      "type": "function"
    },
    {
      "inputs": [],
      "name": "split",
      "outputs": [
        {
          "internalType": "address",
          "name": "",
          "type": "address"
        }
      ],
      "stateMutability": "view",
      "type": "function"
    },
    {
      "inputs": [],
      "name": "splitMain",
      "outputs": [
        {
          "internalType": "contract ISplitMain",
          "name": "",
          "type": "address"
        }
      ],
      "stateMutability": "view",
      "type": "function"
    },
    {
      "inputs": [
        {
          "internalType": "address[]",
          "name": "_members",
          "type": "address[]"
        },
        {
          "internalType": "uint32[]",
          "name": "_activityMultipliers",
          "type": "uint32[]"
        },
        {
          "internalType": "uint32[]",
          "name": "_startDates",
          "type": "uint32[]"
        },
        {
          "internalType": "uint32[]",
          "name": "_chainIds",
          "type": "uint32[]"
        },
        {
          "internalType": "uint256[]",
          "name": "_relayerFees",
          "type": "uint256[]"
        }
      ],
      "name": "syncBatchNewMembers",
      "outputs": [],
      "stateMutability": "payable",
      "type": "function"
    },
    {
      "inputs": [
        {
          "internalType": "address[]",
          "name": "_members",
          "type": "address[]"
        },
        {
          "internalType": "uint32[]",
          "name": "_activityMultipliers",
          "type": "uint32[]"
        },
        {
          "internalType": "uint32[]",
          "name": "_chainIds",
          "type": "uint32[]"
        },
        {
          "internalType": "uint256[]",
          "name": "_relayerFees",
          "type": "uint256[]"
        }
      ],
      "name": "syncBatchUpdateMembersActivity",
      "outputs": [],
      "stateMutability": "payable",
      "type": "function"
    },
    {
      "inputs": [
        {
          "internalType": "address[]",
          "name": "_members",
          "type": "address[]"
        },
        {
          "internalType": "uint32[]",
          "name": "_chainIds",
          "type": "uint32[]"
        },
        {
          "internalType": "uint256[]",
          "name": "_relayerFees",
          "type": "uint256[]"
        }
      ],
      "name": "syncNetworkMemberRegistry",
      "outputs": [],
      "stateMutability": "payable",
      "type": "function"
    },
    {
      "inputs": [
        {
          "internalType": "address[]",
          "name": "_sortedList",
          "type": "address[]"
        },
        {
          "internalType": "uint32",
          "name": "_splitDistributorFee",
          "type": "uint32"
        },
        {
          "internalType": "uint32[]",
          "name": "_chainIds",
          "type": "uint32[]"
        },
        {
          "internalType": "uint256[]",
          "name": "_relayerFees",
          "type": "uint256[]"
        }
      ],
      "name": "syncUpdateAll",
      "outputs": [],
      "stateMutability": "payable",
      "type": "function"
    },
    {
      "inputs": [
        {
          "internalType": "uint32[]",
          "name": "_chainIds",
          "type": "uint32[]"
        },
        {
          "internalType": "uint256[]",
          "name": "_relayerFees",
          "type": "uint256[]"
        }
      ],
      "name": "syncUpdateSecondsActive",
      "outputs": [],
      "stateMutability": "payable",
      "type": "function"
    },
    {
      "inputs": [
        {
          "internalType": "address[]",
          "name": "_sortedList",
          "type": "address[]"
        },
        {
          "internalType": "uint32",
          "name": "_splitDistributorFee",
          "type": "uint32"
        },
        {
          "internalType": "uint32[]",
          "name": "_chainIds",
          "type": "uint32[]"
        },
        {
          "internalType": "uint256[]",
          "name": "_relayerFees",
          "type": "uint256[]"
        }
      ],
      "name": "syncUpdateSplits",
      "outputs": [],
      "stateMutability": "payable",
      "type": "function"
    },
    {
      "inputs": [],
      "name": "totalMembers",
      "outputs": [
        {
          "internalType": "uint256",
          "name": "",
          "type": "uint256"
        }
      ],
      "stateMutability": "view",
      "type": "function"
    },
    {
      "inputs": [
        {
          "internalType": "uint32[]",
          "name": "_chainIds",
          "type": "uint32[]"
        },
        {
          "internalType": "address[]",
          "name": "_newControllers",
          "type": "address[]"
        },
        {
          "internalType": "uint256[]",
          "name": "_relayerFees",
          "type": "uint256[]"
        }
      ],
      "name": "transferNetworkSplitControl",
      "outputs": [],
      "stateMutability": "payable",
      "type": "function"
    },
    {
      "inputs": [
        {
          "internalType": "address",
          "name": "newOwner",
          "type": "address"
        }
      ],
      "name": "transferOwnership",
      "outputs": [],
      "stateMutability": "nonpayable",
      "type": "function"
    },
    {
      "inputs": [
        {
          "internalType": "address",
          "name": "_newController",
          "type": "address"
        }
      ],
      "name": "transferSplitControl",
      "outputs": [],
      "stateMutability": "nonpayable",
      "type": "function"
    },
    {
      "inputs": [
        {
          "internalType": "address[]",
          "name": "_sortedList",
          "type": "address[]"
        },
        {
          "internalType": "uint32",
          "name": "_splitDistributorFee",
          "type": "uint32"
        }
      ],
      "name": "updateAll",
      "outputs": [],
      "stateMutability": "nonpayable",
      "type": "function"
    },
    {
      "inputs": [
        {
          "internalType": "uint32",
          "name": "_chainId",
          "type": "uint32"
        },
        {
          "components": [
            {
              "internalType": "uint32",
              "name": "domainId",
              "type": "uint32"
            },
            {
              "internalType": "address",
              "name": "registryAddress",
              "type": "address"
            },
            {
              "internalType": "address",
              "name": "delegate",
              "type": "address"
            }
          ],
          "internalType": "struct DataTypes.Registry",
          "name": "_newRegistry",
          "type": "tuple"
        }
      ],
      "name": "updateNetworkRegistry",
      "outputs": [],
      "stateMutability": "nonpayable",
      "type": "function"
    },
    {
      "inputs": [
        {
          "internalType": "uint32[]",
          "name": "_chainIds",
          "type": "uint32[]"
        },
        {
          "internalType": "address[]",
          "name": "_splitsMain",
          "type": "address[]"
        },
        {
          "internalType": "address[]",
          "name": "_splits",
          "type": "address[]"
        },
        {
          "internalType": "uint256[]",
          "name": "_relayerFees",
          "type": "uint256[]"
        }
      ],
      "name": "updateNetworkSplit",
      "outputs": [],
      "stateMutability": "payable",
      "type": "function"
    },
    {
      "inputs": [],
      "name": "updateSecondsActive",
      "outputs": [],
      "stateMutability": "nonpayable",
      "type": "function"
    },
    {
      "inputs": [
        {
          "internalType": "address[]",
          "name": "_sortedList",
          "type": "address[]"
        },
        {
          "internalType": "uint32",
          "name": "_splitDistributorFee",
          "type": "uint32"
        }
      ],
      "name": "updateSplits",
      "outputs": [],
      "stateMutability": "nonpayable",
      "type": "function"
    },
    {
      "inputs": [],
      "name": "updater",
      "outputs": [
        {
          "internalType": "address",
          "name": "",
          "type": "address"
        }
      ],
      "stateMutability": "view",
      "type": "function"
    },
    {
      "inputs": [],
      "name": "updaterDomain",
      "outputs": [
        {
          "internalType": "uint32",
          "name": "",
          "type": "uint32"
        }
      ],
      "stateMutability": "view",
      "type": "function"
    },
    {
      "inputs": [
        {
          "internalType": "bytes32",
          "name": "_transferId",
          "type": "bytes32"
        },
        {
          "internalType": "uint256",
          "name": "",
          "type": "uint256"
        },
        {
          "internalType": "address",
          "name": "",
          "type": "address"
        },
        {
          "internalType": "address",
          "name": "_originSender",
          "type": "address"
        },
        {
          "internalType": "uint32",
          "name": "_origin",
          "type": "uint32"
        },
        {
          "internalType": "bytes",
          "name": "_incomingCalldata",
          "type": "bytes"
        }
      ],
      "name": "xReceive",
      "outputs": [
        {
          "internalType": "bytes",
          "name": "",
          "type": "bytes"
        }
      ],
      "stateMutability": "nonpayable",
      "type": "function"
    }
  ],
  "transactionHash": "0x5d51d5a7e66f0f065c042eaf7554d3130e416896b6408dfafda647c334e562ab",
  "args": [],
  "numDeployments": 1,
  "solcInputHash": "4a8bfe7fd6822374d4c17e9583fdd17a",
  "bytecode": "0x60806040523480156200001157600080fd5b506200001c6200002c565b620000266200002c565b620000e0565b7ff0c57e16840df040f15088dc2f81fe391c3923bec73e23a9662efc9c229c6a00805468010000000000000000900460ff16156200007d5760405163f92ee8a960e01b815260040160405180910390fd5b80546001600160401b0390811614620000dd5780546001600160401b0319166001600160401b0390811782556040519081527fc7f505b2f371ae2175ee4913f4499e1f2633a7b5936321eed1cdaeb6115181d29060200160405180910390a15b50565b6159d880620000f06000396000f3fe6080604052600436106102935760003560e01c80638da5cb5b1161015a578063b85a2ce1116100c1578063e5a2a2a51161007a578063e5a2a2a5146107c3578063e9172c2d146107e3578063f2fde38b14610803578063f6ce035414610823578063f765417614610843578063fd614f411461086357600080fd5b8063b85a2ce1146106a7578063bcecc5ba146106c7578063bf59b48814610743578063de4b054814610767578063df034cd01461078e578063e4a7c603146107ae57600080fd5b8063a02b600611610113578063a02b600614610609578063a084b6c014610629578063a8e6f1e71461063e578063ab6efc3014610651578063b044631c14610666578063b0affdf71461067957600080fd5b80638da5cb5b1461054d5780638dc15791146105625780638e58c55d146105825780638ee31392146105a25780639d7b8545146105d45780639eab5253146105f457600080fd5b806356c0e992116101fe5780637698a833116101b75780637698a833146104a357806376e92559146104c357806379962a26146104d85780637f6d2708146104eb57806380e038bc1461050b5780638bd1e6781461052057600080fd5b806356c0e9921461040257806358fa68841461041557806364c6d00a146104445780636bda59da14610457578063715018a61461046a578063754915121461047f57600080fd5b806345e838ca1161025057806345e838ca146103765780634fa20a2914610389578063524a1541146103a957806353c470d3146103bc5780635523a960146103cf57806355f36638146103e257600080fd5b80630bddc56b146102985780630e769b2b146102c75780632ada2596146102ff578063371b52e31461032c5780633a8246f314610343578063439fab9114610356575b600080fd5b3480156102a457600080fd5b50600a546102b29060ff1681565b60405190151581526020015b60405180910390f35b3480156102d357600080fd5b506006546102e7906001600160a01b031681565b6040516001600160a01b0390911681526020016102be565b34801561030b57600080fd5b5061031f61031a3660046142a9565b610890565b6040516102be9190614300565b34801561033857600080fd5b5061034161090b565b005b610341610351366004614448565b6109c9565b34801561036257600080fd5b5061034161037136600461455f565b610b9c565b6103416103843660046145ff565b610db3565b34801561039557600080fd5b506103416103a43660046146dc565b610f82565b6103416103b736600461473f565b610fc6565b6103416103ca36600461480e565b611104565b6103416103dd366004614448565b6112f3565b3480156103ee57600080fd5b506103416103fd3660046148df565b611431565b610341610410366004614966565b611477565b34801561042157600080fd5b506104356104303660046149d1565b61162e565b6040516102be93929190614a46565b610341610452366004614966565b61182b565b610341610465366004614a89565b61195b565b34801561047657600080fd5b50610341611abd565b34801561048b57600080fd5b5061049560095481565b6040519081526020016102be565b3480156104af57600080fd5b506103416104be366004614b06565b611ad1565b3480156104cf57600080fd5b50600054610495565b6103416104e6366004614ba0565b611c8b565b3480156104f757600080fd5b50610341610506366004614c42565b611e79565b34801561051757600080fd5b50610341611ed9565b34801561052c57600080fd5b5061054061053b366004614c72565b611f67565b6040516102be9190614c94565b34801561055957600080fd5b506102e76120b5565b34801561056e57600080fd5b5061034161057d366004614ce2565b6120e3565b34801561058e57600080fd5b5061034161059d366004614d28565b612123565b3480156105ae57600080fd5b506003546105bf9063ffffffff1681565b60405163ffffffff90911681526020016102be565b3480156105e057600080fd5b506103416105ef3660046142a9565b6122d3565b34801561060057600080fd5b50610540612399565b34801561061557600080fd5b50610341610624366004614ce2565b612432565b34801561063557600080fd5b506102b2612470565b61034161064c366004614dd4565b61249e565b34801561065d57600080fd5b5061049561263d565b610341610674366004614966565b612749565b34801561068557600080fd5b506106996106943660046149d1565b612881565b6040516102be929190614ead565b3480156106b357600080fd5b506103416106c2366004614ed2565b61290f565b3480156106d357600080fd5b506107176106e2366004614f00565b6005602052600090815260409020805460019091015463ffffffff8216916001600160a01b03600160201b9091048116911683565b6040805163ffffffff90941684526001600160a01b0392831660208501529116908201526060016102be565b34801561074f57600080fd5b506003546105bf90600160c01b900463ffffffff1681565b34801561077357600080fd5b506003546102e790600160201b90046001600160a01b031681565b34801561079a57600080fd5b506004546102e7906001600160a01b031681565b3480156107ba57600080fd5b50610341612b27565b3480156107cf57600080fd5b506008546102e7906001600160a01b031681565b3480156107ef57600080fd5b506104956107fe3660046142a9565b612b65565b34801561080f57600080fd5b5061034161081e3660046142a9565b612bf6565b34801561082f57600080fd5b5061034161083e366004614f1d565b612c39565b34801561084f57600080fd5b506007546102e7906001600160a01b031681565b34801561086f57600080fd5b5061088361087e366004614f68565b612d5e565b6040516102be919061503e565b6040805160808101825260008082526020820181905291810182905260608101919091526108bd826132fc565b6040805160808101825291546001600160a01b038116835263ffffffff600160a01b820481166020850152600160c01b8204811692840192909252600160e01b900416606082015292915050565b6109136120b5565b6001600160a01b0316336001600160a01b03161415801561094757506004546001600160a01b031615806109475750333014155b1561096557604051633b4e61ad60e01b815260040160405180910390fd5b600654600754604051630933e36d60e11b81526001600160a01b039182166004820152911690631267c6da906024015b600060405180830381600087803b1580156109af57600080fd5b505af11580156109c3573d6000803e3d6000fd5b50505050565b6109d161334a565b6109d9612470565b6109f6576040516386e2123960e01b815260040160405180910390fd5b838380806020026020016040519081016040528093929190818152602001838360200280828437600092019190915250506040805160208087028281018201909352868252909350869250859182918501908490808284376000920191909152505082518451149150610a7e905057604051631d3c4ecb60e31b815260040160405180910390fd5b6000805b8351811015610aba57828181518110610a9d57610a9d615051565b602002602001015182610ab0919061507d565b9150600101610a82565b5080341015610adc57604051631144943160e21b815260040160405180910390fd5b610ae461337c565b610aee898961351a565b604051635015b00360e11b90600090610b0f9083908d908d90602001615090565b6040516020818303038152906040529050610b8f82828b8b8080602002602001604051908101604052809392919081815260200183836020028082843760009201919091525050604080516020808f0282810182019093528e82529093508e92508d91829185019084908082843760009201919091525061361b92505050565b5050505050505050505050565b7ff0c57e16840df040f15088dc2f81fe391c3923bec73e23a9662efc9c229c6a008054600160401b810460ff1615906001600160401b0316600081158015610be15750825b90506000826001600160401b03166001148015610bfd5750303b155b905081158015610c0b575080155b15610c295760405163f92ee8a960e01b815260040160405180910390fd5b845467ffffffffffffffff191660011785558315610c5357845460ff60401b1916600160401b1785555b6000806000806000806000808d806020019051810190610c7391906150c8565b9750975097509750975097509750975060006001600160a01b0316836001600160a01b031603610cb657604051635dafaab560e11b815260040160405180910390fd5b600880546001600160a01b0319166001600160a01b03851690811790915560408051632d77bef360e11b81529051610d46928b928b928b928b928b92635aef7de6916004808201926020929091908290030181865afa158015610d1d573d6000803e3d6000fd5b505050506040513d601f19601f82011682018060405250810190610d41919061516e565b613660565b600991909155600a805460ff1916911515919091179055505087159350610dab9250505057845460ff60401b19168555604051600181527fc7f505b2f371ae2175ee4913f4499e1f2633a7b5936321eed1cdaeb6115181d29060200160405180910390a15b505050505050565b610dbb61334a565b610dc3612470565b610de0576040516386e2123960e01b815260040160405180910390fd5b838380806020026020016040519081016040528093929190818152602001838360200280828437600092019190915250506040805160208087028281018201909352868252909350869250859182918501908490808284376000920191909152505082518451149150610e68905057604051631d3c4ecb60e31b815260040160405180910390fd5b6000805b8351811015610ea457828181518110610e8757610e87615051565b602002602001015182610e9a919061507d565b9150600101610e6c565b5080341015610ec657604051631144943160e21b815260040160405180910390fd5b610ed18a8a8a613706565b604051630abe6cc760e31b90600090610ef49083908e908e908e9060200161518b565b6040516020818303038152906040529050610f7482828b8b8080602002602001604051908101604052809392919081815260200183836020028082843760009201919091525050604080516020808f0282810182019093528e82529093508e92508d91829185019084908082843760009201919091525061361b92505050565b505050505050505050505050565b6004546001600160a01b03161580610f9a5750333014155b15610fb8576040516312ab28a760e11b815260040160405180910390fd5b610fc28282613793565b5050565b610fce61334a565b610fd6612470565b610ff3576040516386e2123960e01b815260040160405180910390fd5b83838080602002602001604051908101604052809392919081815260200183836020028082843760009201919091525050604080516020808702828101820190935286825290935086925085918291850190849080828437600092019190915250508251845114915061107b905057604051631d3c4ecb60e31b815260040160405180910390fd5b6000805b83518110156110b75782818151811061109a5761109a615051565b6020026020010151826110ad919061507d565b915060010161107f565b50803410156110d957604051631144943160e21b815260040160405180910390fd5b6110e38989613793565b604051634fa20a2960e01b90600090610b0f9083908d908d906020016151de565b61110c61334a565b611114612470565b611131576040516386e2123960e01b815260040160405180910390fd5b8481805182511461115557604051631d3c4ecb60e31b815260040160405180910390fd5b6000805b83518110156111915782818151811061117457611174615051565b602002602001015182611187919061507d565b9150600101611159565b50803410156111b357604051631144943160e21b815260040160405180910390fd5b87518751811415806111c6575080875114155b806111d2575080865114155b156111f057604051631d3c4ecb60e31b815260040160405180910390fd5b633db380d560e21b60005b82811015610b8f576000828b838151811061121857611218615051565b60200260200101518b848151811061123257611232615051565b60200260200101518b858151811061124c5761124c615051565b602002602001015160405160200161129b94939291906001600160e01b03199490941684526001600160a01b03928316602085015263ffffffff91909116604084015216606082015260800190565b60405160208183030381529060405290506112ea83828e85815181106112c3576112c3615051565b60200260200101518b86815181106112dd576112dd615051565b60200260200101516137f8565b506001016111fb565b6112fb61334a565b611303612470565b611320576040516386e2123960e01b815260040160405180910390fd5b8383808060200260200160405190810160405280939291908181526020018383602002808284376000920191909152505060408051602080870282810182019093528682529093508692508591829185019084908082843760009201919091525050825184511491506113a8905057604051631d3c4ecb60e31b815260040160405180910390fd5b6000805b83518110156113e4578281815181106113c7576113c7615051565b6020026020010151826113da919061507d565b91506001016113ac565b508034101561140657604051631144943160e21b815260040160405180910390fd5b611410898961351a565b604051638dc1579160e01b90600090610b0f9083908d908d90602001615090565b6004546001600160a01b031615806114495750333014155b15611467576040516312ab28a760e11b815260040160405180910390fd5b611472838383613706565b505050565b61147f61334a565b611487612470565b6114a4576040516386e2123960e01b815260040160405180910390fd5b83838080602002602001604051908101604052809392919081815260200183836020028082843760009201919091525050604080516020808702828101820190935286825290935086925085918291850190849080828437600092019190915250508251845114915061152c905057604051631d3c4ecb60e31b815260040160405180910390fd5b6000805b83518110156115685782818151811061154b5761154b615051565b60200260200101518261155e919061507d565b9150600101611530565b508034101561158a57604051631144943160e21b815260040160405180910390fd5b604080516320380e2f60e21b6020820181905291600091015b604051602081830303815290604052905061162382828b8b8080602002602001604051908101604052809392919081815260200183836020028082843760009201919091525050604080516020808f0282810182019093528e82529093508e92508d91829185019084908082843760009201919091525061361b92505050565b505050505050505050565b60608060606000845190506000816001600160401b038111156116535761165361430e565b60405190808252806020026020018201604052801561167c578160200160208202803683370190505b5090506000826001600160401b038111156116995761169961430e565b6040519080825280602002602001820160405280156116c2578160200160208202803683370190505b5090506000836001600160401b038111156116df576116df61430e565b604051908082528060200260200182016040528015611708578160200160208202803683370190505b50905060005b8481101561181c57600061173a8a838151811061172d5761172d615051565b60200260200101516132fc565b6040805160808101825291546001600160a01b038116835263ffffffff600160a01b820481166020850152600160c01b8204811692840192909252600160e01b9004166060820181905286519192509086908490811061179c5761179c615051565b602002602001019063ffffffff16908163ffffffff168152505080604001518483815181106117cd576117cd615051565b602002602001019063ffffffff16908163ffffffff168152505080602001518383815181106117fe576117fe615051565b63ffffffff909216602092830291909101909101525060010161170e565b50919790965090945092505050565b61183361334a565b61183b612470565b611858576040516386e2123960e01b815260040160405180910390fd5b8383808060200260200160405190810160405280939291908181526020018383602002808284376000920191909152505060408051602080870282810182019093528682529093508692508591829185019084908082843760009201919091525050825184511491506118e0905057604051631d3c4ecb60e31b815260040160405180910390fd5b6000805b835181101561191c578281815181106118ff576118ff615051565b602002602001015182611912919061507d565b91506001016118e4565b508034101561193e57604051631144943160e21b815260040160405180910390fd5b6040805163371b52e360e01b6020820181905291600091016115a3565b61196361334a565b61196b612470565b611988576040516386e2123960e01b815260040160405180910390fd5b828180518251146119ac57604051631d3c4ecb60e31b815260040160405180910390fd5b6000805b83518110156119e8578281815181106119cb576119cb615051565b6020026020010151826119de919061507d565b91506001016119b0565b5080341015611a0a57604051631144943160e21b815260040160405180910390fd5b855185518114611a2d57604051631d3c4ecb60e31b815260040160405180910390fd5b639d7b854560e01b60005b8281101561162357600082898381518110611a5557611a55615051565b6020026020010151604051602001611a8c9291906001600160e01b03199290921682526001600160a01b0316602082015260400190565b6040516020818303038152906040529050611ab483828c85815181106112c3576112c3615051565b50600101611a38565b611ac561334a565b611acf6000613877565b565b611ad961334a565b611ae1612470565b611afe576040516386e2123960e01b815260040160405180910390fd5b63ffffffff8216600090815260056020526040902054600160201b90046001600160a01b031615801590611b3d575060208101516001600160a01b0316155b15611b7b5763ffffffff8216600090815260056020526040902080546001600160c01b031916815560010180546001600160a01b0319169055611c1d565b805163ffffffff161580611b9a575060208101516001600160a01b0316155b15611bb857604051638c9c2fed60e01b815260040160405180910390fd5b63ffffffff828116600090815260056020908152604091829020845181549286015194166001600160c01b031990921691909117600160201b6001600160a01b039485160217815590830151600190910180546001600160a01b031916919092161790555b806000015163ffffffff1681602001516001600160a01b03168363ffffffff167f4db6d44cad7c0eddcb10fcbcb14f9600520da0ea078eedc230cbed5aa0661d208460400151604051611c7f91906001600160a01b0391909116815260200190565b60405180910390a45050565b611c9361334a565b611c9b612470565b611cb8576040516386e2123960e01b815260040160405180910390fd5b838380806020026020016040519081016040528093929190818152602001838360200280828437600092019190915250506040805160208087028281018201909352868252909350869250859182918501908490808284376000920191909152505082518451149150611d40905057604051631d3c4ecb60e31b815260040160405180910390fd5b6000805b8351811015611d7c57828181518110611d5f57611d5f615051565b602002602001015182611d72919061507d565b9150600101611d44565b5080341015611d9e57604051631144943160e21b815260040160405180910390fd5b6000806000611dac8b61162e565b6040519295509093509150638e58c55d60e01b90600090611dd99083908f90889088908890602001615212565b6040516020818303038152906040529050611e6a82828e8e80806020026020016040519081016040528093929190818152602001838360200280828437600081840152601f19601f820116905080830192505050505050508d8d8080602002602001604051908101604052809392919081815260200183836020028082843760009201919091525061361b92505050565b50505050505050505050505050565b611e8161334a565b600a805460ff191682151590811790915560098390556040805184815260ff909216151560208301527f49af6cea37f232eb643c8b8dc8fd4ae6068e08bad978b48e8782c453e277c3b0910160405180910390a15050565b611ee16120b5565b6001600160a01b0316336001600160a01b031614158015611f1557506004546001600160a01b03161580611f155750333014155b15611f3357604051633b4e61ad60e01b815260040160405180910390fd5b60065460075460405163031f799160e61b81526001600160a01b03918216600482015291169063c7de644090602401610995565b60606000611f7460005490565b90508084101580611f855750808310155b15611fa357604051631a1015fd60e01b815260040160405180910390fd5b611fad848461527a565b611fb890600161507d565b6001600160401b03811115611fcf57611fcf61430e565b60405190808252806020026020018201604052801561202157816020015b604080516080810182526000808252602080830182905292820181905260608201528252600019909201910181611fed5790505b509150835b8381116120ad576000612038826138e8565b6040805160808101825291546001600160a01b038116835263ffffffff600160a01b820481166020850152600160c01b8204811692840192909252600160e01b90041660608201528451909150819085908490811061209957612099615051565b602090810291909101015250600101612026565b505092915050565b7f9016d09d72d40fdae2fd8ceac6b6234c7706214fd39c1cd1e609a0528c199300546001600160a01b031690565b6004546001600160a01b031615806120fb5750333014155b15612119576040516312ab28a760e11b815260040160405180910390fd5b610fc2828261351a565b6004546001600160a01b0316158061213b5750333014155b15612159576040516312ab28a760e11b815260040160405180910390fd5b835160005b81811015610dab5760006121a087838151811061217d5761217d615051565b60200260200101516001600160a01b031660009081526002602052604090205490565b905080600003612205576122008783815181106121bf576121bf615051565b60200260200101518784815181106121d9576121d9615051565b60200260200101518785815181106121f3576121f3615051565b6020026020010151613910565b6122ca565b600061221082613a9b565b905085838151811061222457612224615051565b6020908102919091010151815463ffffffff909116600160c01b0263ffffffff60c01b19909116178155845185908490811061226257612262615051565b60200260200101518160000160146101000a81548163ffffffff021916908363ffffffff1602179055506122c88884815181106122a1576122a1615051565b60200260200101518885815181106122bb576122bb615051565b6020026020010151613ab6565b505b5060010161215e565b6122db6120b5565b6001600160a01b0316336001600160a01b03161415801561230f57506004546001600160a01b0316158061230f5750333014155b1561232d57604051633b4e61ad60e01b815260040160405180910390fd5b6006546007546040516334392cbd60e21b81526001600160a01b039182166004820152838216602482015291169063d0e4b2f490604401600060405180830381600087803b15801561237e57600080fd5b505af1158015612392573d6000803e3d6000fd5b5050505050565b606060008001805480602002602001604051908101604052809291908181526020016000905b8282101561242957600084815260209081902060408051608081018252918501546001600160a01b038116835263ffffffff600160a01b8204811684860152600160c01b8204811692840192909252600160e01b90041660608201528252600190920191016123bf565b50505050905090565b6004546001600160a01b0316158061244a5750333014155b15612468576040516312ab28a760e11b815260040160405180910390fd5b61211961337c565b6004546000906001600160a01b03161580156124995750600354600160c01b900463ffffffff16155b905090565b6124a661334a565b6124ae612470565b6124cb576040516386e2123960e01b815260040160405180910390fd5b838180518251146124ef57604051631d3c4ecb60e31b815260040160405180910390fd5b6000805b835181101561252b5782818151811061250e5761250e615051565b602002602001015182612521919061507d565b91506001016124f3565b508034101561254d57604051631144943160e21b815260040160405180910390fd5b8651865181141580612560575080865114155b1561257e57604051631d3c4ecb60e31b815260040160405180910390fd5b63b85a2ce160e01b60005b82811015612631576000828a83815181106125a6576125a6615051565b60200260200101518a84815181106125c0576125c0615051565b6020026020010151604051602001612600939291906001600160e01b03199390931683526001600160a01b03918216602084015216604082015260600190565b604051602081830303815290604052905061262883828d85815181106112c3576112c3615051565b50600101612589565b50505050505050505050565b60008061264960005490565b905060005b81811015612744576000612661826138e8565b6040805160808101825291546001600160a01b038116835263ffffffff600160a01b820481166020850152600160c01b8204811692840192909252600160e01b900416606082018190529091501561273b57604051636018660f60e01b8152734bB8B77C13a17E9704c6212509ED0D572619e3b090636018660f906126ed90600090859060040161528d565b602060405180830381865af415801561270a573d6000803e3d6000fd5b505050506040513d601f19601f8201168201806040525081019061272e91906152a1565b612738908561507d565b93505b5060010161264e565b505090565b61275161334a565b612759612470565b612776576040516386e2123960e01b815260040160405180910390fd5b8383808060200260200160405190810160405280939291908181526020018383602002808284376000920191909152505060408051602080870282810182019093528682529093508692508591829185019084908082843760009201919091525050825184511491506127fe905057604051631d3c4ecb60e31b815260040160405180910390fd5b6000805b835181101561283a5782818151811061281d5761281d615051565b602002602001015182612830919061507d565b9150600101612802565b508034101561285c57604051631144943160e21b815260040160405180910390fd5b61286461337c565b6040805163e4a7c60360e01b6020820181905291600091016115a3565b60405163c0c53f1d60e01b81526060908190734bB8B77C13a17E9704c6212509ED0D572619e3b09063c0c53f1d906128c09060009087906004016152ba565b600060405180830381865af41580156128dd573d6000803e3d6000fd5b505050506040513d6000823e601f3d908101601f1916820160405261290591908101906153d9565b9094909350915050565b6129176120b5565b6001600160a01b0316336001600160a01b03161415801561294b57506004546001600160a01b0316158061294b5750333014155b1561296957604051633b4e61ad60e01b815260040160405180910390fd5b600680546001600160a01b0319166001600160a01b03848116918217909255604051634463315560e11b815291831660048301526000916388c662aa90602401602060405180830381865afa1580156129c6573d6000803e3d6000fd5b505050506040513d601f19601f820116820180604052508101906129ea919061516e565b90506001600160a01b038116612a1357604051630352b0d160e41b815260040160405180910390fd5b60065460405163708728eb60e11b81526001600160a01b038481166004830152600092169063e10e51d690602401602060405180830381865afa158015612a5e573d6000803e3d6000fd5b505050506040513d601f19601f82011682018060405250810190612a82919061516e565b90506001600160a01b0382163014801590612aa657506001600160a01b0381163014155b15612ac457604051633170a38d60e01b815260040160405180910390fd5b600780546001600160a01b0319166001600160a01b0385811691821790925560408051928716835260208301919091527fc8d09d7710e05a8ef2f307dcf13f859ce7e661b3eee1a04a57c4d481758a6c1d910160405180910390a16109c3611ed9565b6004546001600160a01b03161580612b3f5750333014155b15612b5d576040516312ab28a760e11b815260040160405180910390fd5b611acf61337c565b600080612b7183610890565b604051636018660f60e01b8152909150734bB8B77C13a17E9704c6212509ED0D572619e3b090636018660f90612bae90600090859060040161528d565b602060405180830381865af4158015612bcb573d6000803e3d6000fd5b505050506040513d601f19601f82011682018060405250810190612bef91906152a1565b9392505050565b612bfe61334a565b6001600160a01b038116612c2d57604051631e4fbdf760e01b8152600060048201526024015b60405180910390fd5b612c3681613877565b50565b612c416120b5565b6001600160a01b0316336001600160a01b031614158015612c7557506004546001600160a01b03161580612c755750333014155b15612c9357604051633b4e61ad60e01b815260040160405180910390fd5b6001600160a01b038316612cba5760405163bb4bcc3b60e01b815260040160405180910390fd5b60038054640100000000600160e01b031916600160201b6001600160a01b0386811691820263ffffffff60c01b191692909217600160c01b63ffffffff871690810291909117909355600480546001600160a01b0319169285169283179055604080519182526020820193909352918201527f21ae9d1c05d009b6af15c73821748e22e498496e2b29672090c67ae892322d6f9060600160405180910390a1505050565b6003546060908490849063ffffffff808316600160c01b90920416141580612d9457506004546001600160a01b03838116911614155b80612dba5750600354600160201b90046001600160a01b0316336001600160a01b031614155b15612dd85760405163b36b498160e01b815260040160405180910390fd5b600084806020019051810190612dee919061544f565b90506060631541933960e31b6001600160e01b0319831601612e7d57600080600088806020019051810190612e23919061546a565b9350935093505084838383604051602401612e40939291906154f6565b60408051601f198184030181529190526020810180516001600160e01b03166001600160e01b031990931692909217909152935061322a92505050565b63b05df5d760e01b6001600160e01b0319831601612f015760008087806020019051810190612eac9190615509565b9250925050838282604051602401612ec5929190614ead565b60408051601f198184030181529190526020810180516001600160e01b03166001600160e01b031990931692909217909152925061322a915050565b6371a73aa360e01b6001600160e01b0319831601612f925760008060008089806020019051810190612f339190615572565b9450945094509450508584848484604051602401612f549493929190615622565b60408051601f198184030181529190526020810180516001600160e01b03166001600160e01b031990931692909217909152945061322a9350505050565b631b5839fd60e01b6001600160e01b0319831601612fdc57506040805160048152602481019091526020810180516001600160e01b03166001600160e01b0319841617905261322a565b63723ea86f60e01b6001600160e01b0319831601613024576000808780602001905181019061300b919061565b565b9250925050838282604051602401612ec59291906156b1565b632fea4ffd60e11b6001600160e01b0319831601613053576000808780602001905181019061300b919061565b565b63024c7f2b60e21b6001600160e01b03198316016130bd5760008060008880602001905181019061308491906156d9565b6040516001600160a01b03808516602483015263ffffffff84166044830152821660648201529296509094509250869150608401612e40565b6347a5d31f60e01b6001600160e01b031983160161311657600080878060200190518101906130ec9190615735565b6040516001600160a01b038084166024830152821660448201529194509250859150606401612ec5565b6362847abb60e01b6001600160e01b031983160161319a576000868060200190518101906131449190615774565b6040516001600160a01b038216602482015290925084915060440160408051601f198184030181529190526020810180516001600160e01b03166001600160e01b031990931692909217909152915061322a9050565b631fc7f1d160e21b6001600160e01b03198316016131e457506040805160048152602481019091526020810180516001600160e01b03166001600160e01b0319841617905261322a565b63c8e4ad1d60e01b6001600160e01b031983160161322a57506040805160048152602481019091526020810180516001600160e01b03166001600160e01b031984161790525b600080306001600160a01b03168360405161324591906157a0565b6000604051808303816000865af19150503d8060008114613282576040519150601f19603f3d011682016040523d82523d6000602084013e613287565b606091505b5091509150836001600160e01b0319168963ffffffff168e7f1291b044e5e68ff17a19703d0775336ad7ec700ef5679fbd11bd0084af55baf3858e6040516132e492919091151582526001600160a01b0316602082015260400190565b60405180910390a49c9b505050505050505050505050565b6001600160a01b038116600090815260026020526040812054806000036133415760405163c6040d1d60e01b81526001600160a01b0384166004820152602401612c24565b612bef81613a9b565b336133536120b5565b6001600160a01b031614611acf5760405163118cdaa760e01b8152336004820152602401612c24565b42600061338860005490565b905060005b818110156134bd5760006133a0826138e8565b8054909150600090600160e01b900463ffffffff161561346c578154600090600160a01b900463ffffffff166133e4578254600160c01b900463ffffffff166133ee565b60035463ffffffff165b905060006133fc82886157bc565b845463ffffffff918216925060649161341d91600160e01b900416836157e0565b61342791906157f7565b84549093508390859060149061344b908490600160a01b900463ffffffff16615819565b92506101000a81548163ffffffff021916908363ffffffff16021790555050505b815460405163ffffffff831681526001600160a01b03909116907f780f517310a8481b4817e26f9d1a336e49e7522775e8e6b4fb22c73908be6ce69060200160405180910390a2505060010161338d565b506040805163ffffffff84168152602081018390527f896e364af402e453909cff1f8bb117d283d37a717e7cf4a5c5b88be2197fa09f910160405180910390a1506003805463ffffffff191663ffffffff92909216919091179055565b60008061352684612881565b600654600754604051637677856760e11b81529395509193506001600160a01b039081169263ecef0ace92613565921690869086908990600401615836565b600060405180830381600087803b15801561357f57600080fd5b505af1158015613593573d6000803e3d6000fd5b5050505060008282856040516020016135ae93929190615884565b60408051601f1981840301815282825280516020918201206007546001600160a01b0316845290830181905263ffffffff87168383015290519092507fd4b7a01ea5a8b6ac341311c6e426730790e70b6ca9c8d9adee240379b5e81c289181900360600190a15050505050565b60005b825181101561239257613658858585848151811061363e5761363e615051565b60200260200101518585815181106112dd576112dd615051565b60010161361e565b613668613dca565b6001600160a01b03861661368f5760405163bb4bcc3b60e01b815260040160405180910390fd5b60006001600160a01b038216156136a657816136a8565b335b90506136b381613e13565b6001600160a01b0382166136f0576001600160a01b0385166136e857604051635413b8d760e11b815260040160405180910390fd5b6136f0611abd565b6136fd8787878787613e24565b50505050505050565b8251825181141580613719575080825114155b1561373757604051630533bc9360e21b815260040160405180910390fd5b60005b818110156123925761378b85828151811061375757613757615051565b602002602001015185838151811061377157613771615051565b60200260200101518584815181106121f3576121f3615051565b60010161373a565b8151815181146137b657604051630533bc9360e21b815260040160405180910390fd5b60005b818110156109c3576137f08482815181106137d6576137d6615051565b60200260200101518483815181106122bb576122bb615051565b6001016137b9565b6000613805838584613ea9565b63ffffffff8416600081815260056020908152604091829020549151600160201b9092046001600160a01b031682529293506001600160e01b031988169284917f20ffb62aa5e31e4b559317e8af8f877e19a9126fd6ff1fee93bcf06e59d385cc910160405180910390a45050505050565b7f9016d09d72d40fdae2fd8ceac6b6234c7706214fd39c1cd1e609a0528c19930080546001600160a01b031981166001600160a01b03848116918217845560405192169182907f8be0079c531659141344cd1fd0a4f28419497f9722a3daafe3b4186f6b6457e090600090a3505050565b60008060000182815481106138ff576138ff615051565b906000526020600020019050919050565b60085460405163f3ae241560e01b81523060048201526001600160a01b039091169063f3ae241590602401602060405180830381865afa158015613958573d6000803e3d6000fd5b505050506040513d601f19601f8201168201806040525081019061397c9190615909565b61399c576040516001622e7c1b60e21b0319815260040160405180910390fd5b6139a7838383613fac565b6040805160018082528183019092526000916020808301908036833701905050905083816000815181106139dd576139dd615051565b6001600160a01b03929092166020928302919091019091015260408051600180825281830190925260009181602001602082028036833701905050905060095481600081518110613a3057613a30615051565b6020908102919091010152600854604051632c78fd0360e21b81526001600160a01b039091169063b1e3f40c90613a6d9085908590600401615926565b600060405180830381600087803b158015613a8757600080fd5b505af1158015611623573d6000803e3d6000fd5b6000613ab0613aab60018461527a565b6138e8565b92915050565b60085460405163f3ae241560e01b81523060048201526001600160a01b039091169063f3ae241590602401602060405180830381865afa158015613afe573d6000803e3d6000fd5b505050506040513d601f19601f82011682018060405250810190613b229190615909565b613b42576040516001622e7c1b60e21b0319815260040160405180910390fd5b613b4c82826141c3565b604080516001808252818301909252600091602080830190803683370190505090508281600081518110613b8257613b82615051565b6001600160a01b03929092166020928302919091019091015260408051600180825281830190925260009181602001602082028036833701905050905060095481600081518110613bd557613bd5615051565b60200260200101818152505060008363ffffffff16118015613cd75750600860009054906101000a90046001600160a01b03166001600160a01b0316638009ba1f6040518163ffffffff1660e01b8152600401602060405180830381865afa158015613c45573d6000803e3d6000fd5b505050506040513d601f19601f82011682018060405250810190613c69919061516e565b6040516370a0823160e01b81526001600160a01b03868116600483015291909116906370a0823190602401602060405180830381865afa158015613cb1573d6000803e3d6000fd5b505050506040513d601f19601f82011682018060405250810190613cd591906152a1565b155b15613d4557600854604051632c78fd0360e21b81526001600160a01b039091169063b1e3f40c90613d0e9085908590600401615926565b600060405180830381600087803b158015613d2857600080fd5b505af1158015613d3c573d6000803e3d6000fd5b505050506109c3565b63ffffffff8316158015613d5b5750600a5460ff165b156109c35760085460405163262949f360e21b81526001600160a01b03909116906398a527cc90613d929085908590600401615926565b600060405180830381600087803b158015613dac57600080fd5b505af1158015613dc0573d6000803e3d6000fd5b5050505050505050565b7ff0c57e16840df040f15088dc2f81fe391c3923bec73e23a9662efc9c229c6a0054600160401b900460ff16611acf57604051631afcd79f60e31b815260040160405180910390fd5b613e1b613dca565b612c368161428c565b613e2c613dca565b6003805463ffffffff909516600160c01b0263ffffffff60c01b196001600160a01b03978816600160201b0216640100000000600160e01b03199096169590951794909417909355600480549285166001600160a01b03199384161790556006805491851691831691909117905560078054929093169116179055565b63ffffffff83166000908152600560205260408120548490600160201b90046001600160a01b0316613ef557604051628adb6d60e11b815263ffffffff82166004820152602401612c24565b60035463ffffffff808716600090815260056020526040808220805460019091015491516345560b5d60e11b81526001600160a01b03600160201b96879004811696638aac16ba968b96613f6096918616959290920483169391921690829081908e90600401615970565b60206040518083038185885af1158015613f7e573d6000803e3d6000fd5b50505050506040513d601f19601f82011682018060405250810190613fa391906152a1565b95945050505050565b6001600160a01b038316613fde57604051633899e57b60e01b81526001600160a01b0384166004820152602401612c24565b6001600160a01b0383166000908152600260205260409020541561402057604051636822fa9960e11b81526001600160a01b0384166004820152602401612c24565b606463ffffffff8316111561405f5760405163424f515b60e11b81526001600160a01b038416600482015263ffffffff83166024820152604401612c24565b428163ffffffff16111561409d5760405163faac476360e01b81526001600160a01b038416600482015263ffffffff82166024820152604401612c24565b604080516080810182526001600160a01b038086168083526000602080850182815263ffffffff8881168789019081528a82166060890190815285546001818101885587805299517f290decd9548b62a8d60345a988386fc84ba6bc95484008f6362f93160ef3e56390910180549551935192518516600160e01b026001600160e01b03938616600160c01b02939093166001600160c01b0394909516600160a01b026001600160c01b031990961691909916179390931716171790935583548401938490558181526002909252908390209190915590517f13ca1f9a974ca1b85618843282dc1981c63a62c389aa5cf6e4a31937f8434e73906141b6908490869063ffffffff92831681529116602082015260400190565b60405180910390a2505050565b606463ffffffff821611156142025760405163424f515b60e11b81526001600160a01b038316600482015263ffffffff82166024820152604401612c24565b600061420d836132fc565b805463ffffffff848116600160e01b81026001600160e01b039093169290921780845560408051938452600160c01b820483166020850152600160a01b909104909116908201529091506001600160a01b038416907f59f55668c694024ea61bdb5bb12ea8897197f9d9825fa7bee1195e263b644727906060016141b6565b612bfe613dca565b6001600160a01b0381168114612c3657600080fd5b6000602082840312156142bb57600080fd5b8135612bef81614294565b80516001600160a01b0316825260208082015163ffffffff9081169184019190915260408083015182169084015260609182015116910152565b60808101613ab082846142c6565b634e487b7160e01b600052604160045260246000fd5b604051601f8201601f191681016001600160401b038111828210171561434c5761434c61430e565b604052919050565b60006001600160401b0382111561436d5761436d61430e565b5060051b60200190565b600082601f83011261438857600080fd5b8135602061439d61439883614354565b614324565b82815260059290921b840181019181810190868411156143bc57600080fd5b8286015b848110156143e05780356143d381614294565b83529183019183016143c0565b509695505050505050565b63ffffffff81168114612c3657600080fd5b60008083601f84011261440f57600080fd5b5081356001600160401b0381111561442657600080fd5b6020830191508360208260051b850101111561444157600080fd5b9250929050565b6000806000806000806080878903121561446157600080fd5b86356001600160401b038082111561447857600080fd5b6144848a838b01614377565b975060208901359150614496826143eb565b909550604088013590808211156144ac57600080fd5b6144b88a838b016143fd565b909650945060608901359150808211156144d157600080fd5b506144de89828a016143fd565b979a9699509497509295939492505050565b600082601f83011261450157600080fd5b81356001600160401b0381111561451a5761451a61430e565b61452d601f8201601f1916602001614324565b81815284602083860101111561454257600080fd5b816020850160208301376000918101602001919091529392505050565b60006020828403121561457157600080fd5b81356001600160401b0381111561458757600080fd5b614593848285016144f0565b949350505050565b600082601f8301126145ac57600080fd5b813560206145bc61439883614354565b82815260059290921b840181019181810190868411156145db57600080fd5b8286015b848110156143e05780356145f2816143eb565b83529183019183016145df565b600080600080600080600060a0888a03121561461a57600080fd5b87356001600160401b038082111561463157600080fd5b61463d8b838c01614377565b985060208a013591508082111561465357600080fd5b61465f8b838c0161459b565b975060408a013591508082111561467557600080fd5b6146818b838c0161459b565b965060608a013591508082111561469757600080fd5b6146a38b838c016143fd565b909650945060808a01359150808211156146bc57600080fd5b506146c98a828b016143fd565b989b979a50959850939692959293505050565b600080604083850312156146ef57600080fd5b82356001600160401b038082111561470657600080fd5b61471286838701614377565b9350602085013591508082111561472857600080fd5b506147358582860161459b565b9150509250929050565b6000806000806000806080878903121561475857600080fd5b86356001600160401b038082111561476f57600080fd5b61477b8a838b01614377565b9750602089013591508082111561479157600080fd5b61479d8a838b0161459b565b965060408901359150808211156144ac57600080fd5b600082601f8301126147c457600080fd5b813560206147d461439883614354565b82815260059290921b840181019181810190868411156147f357600080fd5b8286015b848110156143e057803583529183019183016147f7565b600080600080600060a0868803121561482657600080fd5b85356001600160401b038082111561483d57600080fd5b61484989838a0161459b565b9650602088013591508082111561485f57600080fd5b61486b89838a01614377565b9550604088013591508082111561488157600080fd5b61488d89838a0161459b565b945060608801359150808211156148a357600080fd5b6148af89838a01614377565b935060808801359150808211156148c557600080fd5b506148d2888289016147b3565b9150509295509295909350565b6000806000606084860312156148f457600080fd5b83356001600160401b038082111561490b57600080fd5b61491787838801614377565b9450602086013591508082111561492d57600080fd5b6149398783880161459b565b9350604086013591508082111561494f57600080fd5b5061495c8682870161459b565b9150509250925092565b6000806000806040858703121561497c57600080fd5b84356001600160401b038082111561499357600080fd5b61499f888389016143fd565b909650945060208701359150808211156149b857600080fd5b506149c5878288016143fd565b95989497509550505050565b6000602082840312156149e357600080fd5b81356001600160401b038111156149f957600080fd5b61459384828501614377565b600081518084526020808501945080840160005b83811015614a3b57815163ffffffff1687529582019590820190600101614a19565b509495945050505050565b606081526000614a596060830186614a05565b8281036020840152614a6b8186614a05565b90508281036040840152614a7f8185614a05565b9695505050505050565b600080600060608486031215614a9e57600080fd5b83356001600160401b0380821115614ab557600080fd5b614ac18783880161459b565b94506020860135915080821115614ad757600080fd5b614ae387838801614377565b93506040860135915080821115614af957600080fd5b5061495c868287016147b3565b6000808284036080811215614b1a57600080fd5b8335614b25816143eb565b92506060601f1982011215614b3957600080fd5b50604051606081018181106001600160401b0382111715614b5c57614b5c61430e565b6040526020840135614b6d816143eb565b81526040840135614b7d81614294565b60208201526060840135614b9081614294565b6040820152919491935090915050565b600080600080600060608688031215614bb857600080fd5b85356001600160401b0380821115614bcf57600080fd5b614bdb89838a01614377565b96506020880135915080821115614bf157600080fd5b614bfd89838a016143fd565b90965094506040880135915080821115614c1657600080fd5b50614c23888289016143fd565b969995985093965092949392505050565b8015158114612c3657600080fd5b60008060408385031215614c5557600080fd5b823591506020830135614c6781614c34565b809150509250929050565b60008060408385031215614c8557600080fd5b50508035926020909101359150565b6020808252825182820181905260009190848201906040850190845b81811015614cd657614cc38385516142c6565b9284019260809290920191600101614cb0565b50909695505050505050565b60008060408385031215614cf557600080fd5b82356001600160401b03811115614d0b57600080fd5b614d1785828601614377565b9250506020830135614c67816143eb565b60008060008060808587031215614d3e57600080fd5b84356001600160401b0380821115614d5557600080fd5b614d6188838901614377565b95506020870135915080821115614d7757600080fd5b614d838883890161459b565b94506040870135915080821115614d9957600080fd5b614da58883890161459b565b93506060870135915080821115614dbb57600080fd5b50614dc88782880161459b565b91505092959194509250565b60008060008060808587031215614dea57600080fd5b84356001600160401b0380821115614e0157600080fd5b614e0d8883890161459b565b95506020870135915080821115614e2357600080fd5b614e2f88838901614377565b94506040870135915080821115614e4557600080fd5b614e5188838901614377565b93506060870135915080821115614e6757600080fd5b50614dc8878288016147b3565b600081518084526020808501945080840160005b83811015614a3b5781516001600160a01b031687529582019590820190600101614e88565b604081526000614ec06040830185614e74565b8281036020840152613fa38185614a05565b60008060408385031215614ee557600080fd5b8235614ef081614294565b91506020830135614c6781614294565b600060208284031215614f1257600080fd5b8135612bef816143eb565b600080600060608486031215614f3257600080fd5b8335614f3d81614294565b92506020840135614f4d816143eb565b91506040840135614f5d81614294565b809150509250925092565b60008060008060008060c08789031215614f8157600080fd5b86359550602087013594506040870135614f9a81614294565b93506060870135614faa81614294565b92506080870135614fba816143eb565b915060a08701356001600160401b03811115614fd557600080fd5b614fe189828a016144f0565b9150509295509295509295565b60005b83811015615009578181015183820152602001614ff1565b50506000910152565b6000815180845261502a816020860160208601614fee565b601f01601f19169290920160200192915050565b602081526000612bef6020830184615012565b634e487b7160e01b600052603260045260246000fd5b634e487b7160e01b600052601160045260246000fd5b80820180821115613ab057613ab0615067565b63ffffffff60e01b841681526060602082015260006150b26060830185614e74565b905063ffffffff83166040830152949350505050565b600080600080600080600080610100898b0312156150e557600080fd5b88516150f081614294565b60208a0151909850615101816143eb565b60408a015190975061511281614294565b60608a015190965061512381614294565b60808a015190955061513481614294565b60a08a015190945061514581614294565b60c08a015160e08b0151919450925061515d81614c34565b809150509295985092959890939650565b60006020828403121561518057600080fd5b8151612bef81614294565b63ffffffff60e01b851681526080602082015260006151ad6080830186614e74565b82810360408401526151bf8186614a05565b905082810360608401526151d38185614a05565b979650505050505050565b63ffffffff60e01b841681526060602082015260006152006060830185614e74565b8281036040840152614a7f8185614a05565b63ffffffff60e01b8616815260a06020820152600061523460a0830187614e74565b82810360408401526152468187614a05565b9050828103606084015261525a8186614a05565b9050828103608084015261526e8185614a05565b98975050505050505050565b81810381811115613ab057613ab0615067565b82815260a08101612bef60208301846142c6565b6000602082840312156152b357600080fd5b5051919050565b6000604082018483526020604081850152818551808452606086019150828701935060005b818110156153045784516001600160a01b0316835293830193918301916001016152df565b5090979650505050505050565b600082601f83011261532257600080fd5b8151602061533261439883614354565b82815260059290921b8401810191818101908684111561535157600080fd5b8286015b848110156143e057805161536881614294565b8352918301918301615355565b600082601f83011261538657600080fd5b8151602061539661439883614354565b82815260059290921b840181019181810190868411156153b557600080fd5b8286015b848110156143e05780516153cc816143eb565b83529183019183016153b9565b600080604083850312156153ec57600080fd5b82516001600160401b038082111561540357600080fd5b61540f86838701615311565b9350602085015191508082111561542557600080fd5b5061473585828601615375565b80516001600160e01b03198116811461544a57600080fd5b919050565b60006020828403121561546157600080fd5b612bef82615432565b6000806000806080858703121561548057600080fd5b61548985615432565b935060208501516001600160401b03808211156154a557600080fd5b6154b188838901615311565b945060408701519150808211156154c757600080fd5b6154d388838901615375565b935060608701519150808211156154e957600080fd5b50614dc887828801615375565b606081526000614a596060830186614e74565b60008060006060848603121561551e57600080fd5b61552784615432565b925060208401516001600160401b038082111561554357600080fd5b61554f87838801615311565b9350604086015191508082111561556557600080fd5b5061495c86828701615375565b600080600080600060a0868803121561558a57600080fd5b61559386615432565b945060208601516001600160401b03808211156155af57600080fd5b6155bb89838a01615311565b955060408801519150808211156155d157600080fd5b6155dd89838a01615375565b945060608801519150808211156155f357600080fd5b6155ff89838a01615375565b9350608088015191508082111561561557600080fd5b506148d288828901615375565b6080815260006156356080830187614e74565b82810360208401526156478187614a05565b905082810360408401526151bf8186614a05565b60008060006060848603121561567057600080fd5b61567984615432565b925060208401516001600160401b0381111561569457600080fd5b6156a086828701615311565b9250506040840151614f5d816143eb565b6040815260006156c46040830185614e74565b905063ffffffff831660208301529392505050565b600080600080608085870312156156ef57600080fd5b6156f885615432565b9350602085015161570881614294565b6040860151909350615719816143eb565b606086015190925061572a81614294565b939692955090935050565b60008060006060848603121561574a57600080fd5b61575384615432565b9250602084015161576381614294565b6040850151909250614f5d81614294565b6000806040838503121561578757600080fd5b61579083615432565b91506020830151614c6781614294565b600082516157b2818460208701614fee565b9190910192915050565b63ffffffff8281168282160390808211156157d9576157d9615067565b5092915050565b8082028115828204841417613ab057613ab0615067565b60008261581457634e487b7160e01b600052601260045260246000fd5b500490565b63ffffffff8181168382160190808211156157d9576157d9615067565b6001600160a01b038516815260806020820181905260009061585a90830186614e74565b828103604084015261586c8186614a05565b91505063ffffffff8316606083015295945050505050565b835160009082906020808801845b838110156158b75781516001600160a01b031685529382019390820190600101615892565b5050865181880193925060005b818110156158e657845163ffffffff16845293820193928201926001016158c4565b50505060e09490941b6001600160e01b0319168452505060049091019392505050565b60006020828403121561591b57600080fd5b8151612bef81614c34565b6040815260006159396040830185614e74565b82810360208481019190915284518083528582019282019060005b8181101561530457845183529383019391830191600101615954565b63ffffffff881681526001600160a01b0387811660208301528681166040830152851660608201526080810184905260a0810183905260e060c082018190526000906159be90830184615012565b999850505050505050505056fea164736f6c6343000815000a",
  "deployedBytecode": "0x6080604052600436106102935760003560e01c80638da5cb5b1161015a578063b85a2ce1116100c1578063e5a2a2a51161007a578063e5a2a2a5146107c3578063e9172c2d146107e3578063f2fde38b14610803578063f6ce035414610823578063f765417614610843578063fd614f411461086357600080fd5b8063b85a2ce1146106a7578063bcecc5ba146106c7578063bf59b48814610743578063de4b054814610767578063df034cd01461078e578063e4a7c603146107ae57600080fd5b8063a02b600611610113578063a02b600614610609578063a084b6c014610629578063a8e6f1e71461063e578063ab6efc3014610651578063b044631c14610666578063b0affdf71461067957600080fd5b80638da5cb5b1461054d5780638dc15791146105625780638e58c55d146105825780638ee31392146105a25780639d7b8545146105d45780639eab5253146105f457600080fd5b806356c0e992116101fe5780637698a833116101b75780637698a833146104a357806376e92559146104c357806379962a26146104d85780637f6d2708146104eb57806380e038bc1461050b5780638bd1e6781461052057600080fd5b806356c0e9921461040257806358fa68841461041557806364c6d00a146104445780636bda59da14610457578063715018a61461046a578063754915121461047f57600080fd5b806345e838ca1161025057806345e838ca146103765780634fa20a2914610389578063524a1541146103a957806353c470d3146103bc5780635523a960146103cf57806355f36638146103e257600080fd5b80630bddc56b146102985780630e769b2b146102c75780632ada2596146102ff578063371b52e31461032c5780633a8246f314610343578063439fab9114610356575b600080fd5b3480156102a457600080fd5b50600a546102b29060ff1681565b60405190151581526020015b60405180910390f35b3480156102d357600080fd5b506006546102e7906001600160a01b031681565b6040516001600160a01b0390911681526020016102be565b34801561030b57600080fd5b5061031f61031a3660046142a9565b610890565b6040516102be9190614300565b34801561033857600080fd5b5061034161090b565b005b610341610351366004614448565b6109c9565b34801561036257600080fd5b5061034161037136600461455f565b610b9c565b6103416103843660046145ff565b610db3565b34801561039557600080fd5b506103416103a43660046146dc565b610f82565b6103416103b736600461473f565b610fc6565b6103416103ca36600461480e565b611104565b6103416103dd366004614448565b6112f3565b3480156103ee57600080fd5b506103416103fd3660046148df565b611431565b610341610410366004614966565b611477565b34801561042157600080fd5b506104356104303660046149d1565b61162e565b6040516102be93929190614a46565b610341610452366004614966565b61182b565b610341610465366004614a89565b61195b565b34801561047657600080fd5b50610341611abd565b34801561048b57600080fd5b5061049560095481565b6040519081526020016102be565b3480156104af57600080fd5b506103416104be366004614b06565b611ad1565b3480156104cf57600080fd5b50600054610495565b6103416104e6366004614ba0565b611c8b565b3480156104f757600080fd5b50610341610506366004614c42565b611e79565b34801561051757600080fd5b50610341611ed9565b34801561052c57600080fd5b5061054061053b366004614c72565b611f67565b6040516102be9190614c94565b34801561055957600080fd5b506102e76120b5565b34801561056e57600080fd5b5061034161057d366004614ce2565b6120e3565b34801561058e57600080fd5b5061034161059d366004614d28565b612123565b3480156105ae57600080fd5b506003546105bf9063ffffffff1681565b60405163ffffffff90911681526020016102be565b3480156105e057600080fd5b506103416105ef3660046142a9565b6122d3565b34801561060057600080fd5b50610540612399565b34801561061557600080fd5b50610341610624366004614ce2565b612432565b34801561063557600080fd5b506102b2612470565b61034161064c366004614dd4565b61249e565b34801561065d57600080fd5b5061049561263d565b610341610674366004614966565b612749565b34801561068557600080fd5b506106996106943660046149d1565b612881565b6040516102be929190614ead565b3480156106b357600080fd5b506103416106c2366004614ed2565b61290f565b3480156106d357600080fd5b506107176106e2366004614f00565b6005602052600090815260409020805460019091015463ffffffff8216916001600160a01b03600160201b9091048116911683565b6040805163ffffffff90941684526001600160a01b0392831660208501529116908201526060016102be565b34801561074f57600080fd5b506003546105bf90600160c01b900463ffffffff1681565b34801561077357600080fd5b506003546102e790600160201b90046001600160a01b031681565b34801561079a57600080fd5b506004546102e7906001600160a01b031681565b3480156107ba57600080fd5b50610341612b27565b3480156107cf57600080fd5b506008546102e7906001600160a01b031681565b3480156107ef57600080fd5b506104956107fe3660046142a9565b612b65565b34801561080f57600080fd5b5061034161081e3660046142a9565b612bf6565b34801561082f57600080fd5b5061034161083e366004614f1d565b612c39565b34801561084f57600080fd5b506007546102e7906001600160a01b031681565b34801561086f57600080fd5b5061088361087e366004614f68565b612d5e565b6040516102be919061503e565b6040805160808101825260008082526020820181905291810182905260608101919091526108bd826132fc565b6040805160808101825291546001600160a01b038116835263ffffffff600160a01b820481166020850152600160c01b8204811692840192909252600160e01b900416606082015292915050565b6109136120b5565b6001600160a01b0316336001600160a01b03161415801561094757506004546001600160a01b031615806109475750333014155b1561096557604051633b4e61ad60e01b815260040160405180910390fd5b600654600754604051630933e36d60e11b81526001600160a01b039182166004820152911690631267c6da906024015b600060405180830381600087803b1580156109af57600080fd5b505af11580156109c3573d6000803e3d6000fd5b50505050565b6109d161334a565b6109d9612470565b6109f6576040516386e2123960e01b815260040160405180910390fd5b838380806020026020016040519081016040528093929190818152602001838360200280828437600092019190915250506040805160208087028281018201909352868252909350869250859182918501908490808284376000920191909152505082518451149150610a7e905057604051631d3c4ecb60e31b815260040160405180910390fd5b6000805b8351811015610aba57828181518110610a9d57610a9d615051565b602002602001015182610ab0919061507d565b9150600101610a82565b5080341015610adc57604051631144943160e21b815260040160405180910390fd5b610ae461337c565b610aee898961351a565b604051635015b00360e11b90600090610b0f9083908d908d90602001615090565b6040516020818303038152906040529050610b8f82828b8b8080602002602001604051908101604052809392919081815260200183836020028082843760009201919091525050604080516020808f0282810182019093528e82529093508e92508d91829185019084908082843760009201919091525061361b92505050565b5050505050505050505050565b7ff0c57e16840df040f15088dc2f81fe391c3923bec73e23a9662efc9c229c6a008054600160401b810460ff1615906001600160401b0316600081158015610be15750825b90506000826001600160401b03166001148015610bfd5750303b155b905081158015610c0b575080155b15610c295760405163f92ee8a960e01b815260040160405180910390fd5b845467ffffffffffffffff191660011785558315610c5357845460ff60401b1916600160401b1785555b6000806000806000806000808d806020019051810190610c7391906150c8565b9750975097509750975097509750975060006001600160a01b0316836001600160a01b031603610cb657604051635dafaab560e11b815260040160405180910390fd5b600880546001600160a01b0319166001600160a01b03851690811790915560408051632d77bef360e11b81529051610d46928b928b928b928b928b92635aef7de6916004808201926020929091908290030181865afa158015610d1d573d6000803e3d6000fd5b505050506040513d601f19601f82011682018060405250810190610d41919061516e565b613660565b600991909155600a805460ff1916911515919091179055505087159350610dab9250505057845460ff60401b19168555604051600181527fc7f505b2f371ae2175ee4913f4499e1f2633a7b5936321eed1cdaeb6115181d29060200160405180910390a15b505050505050565b610dbb61334a565b610dc3612470565b610de0576040516386e2123960e01b815260040160405180910390fd5b838380806020026020016040519081016040528093929190818152602001838360200280828437600092019190915250506040805160208087028281018201909352868252909350869250859182918501908490808284376000920191909152505082518451149150610e68905057604051631d3c4ecb60e31b815260040160405180910390fd5b6000805b8351811015610ea457828181518110610e8757610e87615051565b602002602001015182610e9a919061507d565b9150600101610e6c565b5080341015610ec657604051631144943160e21b815260040160405180910390fd5b610ed18a8a8a613706565b604051630abe6cc760e31b90600090610ef49083908e908e908e9060200161518b565b6040516020818303038152906040529050610f7482828b8b8080602002602001604051908101604052809392919081815260200183836020028082843760009201919091525050604080516020808f0282810182019093528e82529093508e92508d91829185019084908082843760009201919091525061361b92505050565b505050505050505050505050565b6004546001600160a01b03161580610f9a5750333014155b15610fb8576040516312ab28a760e11b815260040160405180910390fd5b610fc28282613793565b5050565b610fce61334a565b610fd6612470565b610ff3576040516386e2123960e01b815260040160405180910390fd5b83838080602002602001604051908101604052809392919081815260200183836020028082843760009201919091525050604080516020808702828101820190935286825290935086925085918291850190849080828437600092019190915250508251845114915061107b905057604051631d3c4ecb60e31b815260040160405180910390fd5b6000805b83518110156110b75782818151811061109a5761109a615051565b6020026020010151826110ad919061507d565b915060010161107f565b50803410156110d957604051631144943160e21b815260040160405180910390fd5b6110e38989613793565b604051634fa20a2960e01b90600090610b0f9083908d908d906020016151de565b61110c61334a565b611114612470565b611131576040516386e2123960e01b815260040160405180910390fd5b8481805182511461115557604051631d3c4ecb60e31b815260040160405180910390fd5b6000805b83518110156111915782818151811061117457611174615051565b602002602001015182611187919061507d565b9150600101611159565b50803410156111b357604051631144943160e21b815260040160405180910390fd5b87518751811415806111c6575080875114155b806111d2575080865114155b156111f057604051631d3c4ecb60e31b815260040160405180910390fd5b633db380d560e21b60005b82811015610b8f576000828b838151811061121857611218615051565b60200260200101518b848151811061123257611232615051565b60200260200101518b858151811061124c5761124c615051565b602002602001015160405160200161129b94939291906001600160e01b03199490941684526001600160a01b03928316602085015263ffffffff91909116604084015216606082015260800190565b60405160208183030381529060405290506112ea83828e85815181106112c3576112c3615051565b60200260200101518b86815181106112dd576112dd615051565b60200260200101516137f8565b506001016111fb565b6112fb61334a565b611303612470565b611320576040516386e2123960e01b815260040160405180910390fd5b8383808060200260200160405190810160405280939291908181526020018383602002808284376000920191909152505060408051602080870282810182019093528682529093508692508591829185019084908082843760009201919091525050825184511491506113a8905057604051631d3c4ecb60e31b815260040160405180910390fd5b6000805b83518110156113e4578281815181106113c7576113c7615051565b6020026020010151826113da919061507d565b91506001016113ac565b508034101561140657604051631144943160e21b815260040160405180910390fd5b611410898961351a565b604051638dc1579160e01b90600090610b0f9083908d908d90602001615090565b6004546001600160a01b031615806114495750333014155b15611467576040516312ab28a760e11b815260040160405180910390fd5b611472838383613706565b505050565b61147f61334a565b611487612470565b6114a4576040516386e2123960e01b815260040160405180910390fd5b83838080602002602001604051908101604052809392919081815260200183836020028082843760009201919091525050604080516020808702828101820190935286825290935086925085918291850190849080828437600092019190915250508251845114915061152c905057604051631d3c4ecb60e31b815260040160405180910390fd5b6000805b83518110156115685782818151811061154b5761154b615051565b60200260200101518261155e919061507d565b9150600101611530565b508034101561158a57604051631144943160e21b815260040160405180910390fd5b604080516320380e2f60e21b6020820181905291600091015b604051602081830303815290604052905061162382828b8b8080602002602001604051908101604052809392919081815260200183836020028082843760009201919091525050604080516020808f0282810182019093528e82529093508e92508d91829185019084908082843760009201919091525061361b92505050565b505050505050505050565b60608060606000845190506000816001600160401b038111156116535761165361430e565b60405190808252806020026020018201604052801561167c578160200160208202803683370190505b5090506000826001600160401b038111156116995761169961430e565b6040519080825280602002602001820160405280156116c2578160200160208202803683370190505b5090506000836001600160401b038111156116df576116df61430e565b604051908082528060200260200182016040528015611708578160200160208202803683370190505b50905060005b8481101561181c57600061173a8a838151811061172d5761172d615051565b60200260200101516132fc565b6040805160808101825291546001600160a01b038116835263ffffffff600160a01b820481166020850152600160c01b8204811692840192909252600160e01b9004166060820181905286519192509086908490811061179c5761179c615051565b602002602001019063ffffffff16908163ffffffff168152505080604001518483815181106117cd576117cd615051565b602002602001019063ffffffff16908163ffffffff168152505080602001518383815181106117fe576117fe615051565b63ffffffff909216602092830291909101909101525060010161170e565b50919790965090945092505050565b61183361334a565b61183b612470565b611858576040516386e2123960e01b815260040160405180910390fd5b8383808060200260200160405190810160405280939291908181526020018383602002808284376000920191909152505060408051602080870282810182019093528682529093508692508591829185019084908082843760009201919091525050825184511491506118e0905057604051631d3c4ecb60e31b815260040160405180910390fd5b6000805b835181101561191c578281815181106118ff576118ff615051565b602002602001015182611912919061507d565b91506001016118e4565b508034101561193e57604051631144943160e21b815260040160405180910390fd5b6040805163371b52e360e01b6020820181905291600091016115a3565b61196361334a565b61196b612470565b611988576040516386e2123960e01b815260040160405180910390fd5b828180518251146119ac57604051631d3c4ecb60e31b815260040160405180910390fd5b6000805b83518110156119e8578281815181106119cb576119cb615051565b6020026020010151826119de919061507d565b91506001016119b0565b5080341015611a0a57604051631144943160e21b815260040160405180910390fd5b855185518114611a2d57604051631d3c4ecb60e31b815260040160405180910390fd5b639d7b854560e01b60005b8281101561162357600082898381518110611a5557611a55615051565b6020026020010151604051602001611a8c9291906001600160e01b03199290921682526001600160a01b0316602082015260400190565b6040516020818303038152906040529050611ab483828c85815181106112c3576112c3615051565b50600101611a38565b611ac561334a565b611acf6000613877565b565b611ad961334a565b611ae1612470565b611afe576040516386e2123960e01b815260040160405180910390fd5b63ffffffff8216600090815260056020526040902054600160201b90046001600160a01b031615801590611b3d575060208101516001600160a01b0316155b15611b7b5763ffffffff8216600090815260056020526040902080546001600160c01b031916815560010180546001600160a01b0319169055611c1d565b805163ffffffff161580611b9a575060208101516001600160a01b0316155b15611bb857604051638c9c2fed60e01b815260040160405180910390fd5b63ffffffff828116600090815260056020908152604091829020845181549286015194166001600160c01b031990921691909117600160201b6001600160a01b039485160217815590830151600190910180546001600160a01b031916919092161790555b806000015163ffffffff1681602001516001600160a01b03168363ffffffff167f4db6d44cad7c0eddcb10fcbcb14f9600520da0ea078eedc230cbed5aa0661d208460400151604051611c7f91906001600160a01b0391909116815260200190565b60405180910390a45050565b611c9361334a565b611c9b612470565b611cb8576040516386e2123960e01b815260040160405180910390fd5b838380806020026020016040519081016040528093929190818152602001838360200280828437600092019190915250506040805160208087028281018201909352868252909350869250859182918501908490808284376000920191909152505082518451149150611d40905057604051631d3c4ecb60e31b815260040160405180910390fd5b6000805b8351811015611d7c57828181518110611d5f57611d5f615051565b602002602001015182611d72919061507d565b9150600101611d44565b5080341015611d9e57604051631144943160e21b815260040160405180910390fd5b6000806000611dac8b61162e565b6040519295509093509150638e58c55d60e01b90600090611dd99083908f90889088908890602001615212565b6040516020818303038152906040529050611e6a82828e8e80806020026020016040519081016040528093929190818152602001838360200280828437600081840152601f19601f820116905080830192505050505050508d8d8080602002602001604051908101604052809392919081815260200183836020028082843760009201919091525061361b92505050565b50505050505050505050505050565b611e8161334a565b600a805460ff191682151590811790915560098390556040805184815260ff909216151560208301527f49af6cea37f232eb643c8b8dc8fd4ae6068e08bad978b48e8782c453e277c3b0910160405180910390a15050565b611ee16120b5565b6001600160a01b0316336001600160a01b031614158015611f1557506004546001600160a01b03161580611f155750333014155b15611f3357604051633b4e61ad60e01b815260040160405180910390fd5b60065460075460405163031f799160e61b81526001600160a01b03918216600482015291169063c7de644090602401610995565b60606000611f7460005490565b90508084101580611f855750808310155b15611fa357604051631a1015fd60e01b815260040160405180910390fd5b611fad848461527a565b611fb890600161507d565b6001600160401b03811115611fcf57611fcf61430e565b60405190808252806020026020018201604052801561202157816020015b604080516080810182526000808252602080830182905292820181905260608201528252600019909201910181611fed5790505b509150835b8381116120ad576000612038826138e8565b6040805160808101825291546001600160a01b038116835263ffffffff600160a01b820481166020850152600160c01b8204811692840192909252600160e01b90041660608201528451909150819085908490811061209957612099615051565b602090810291909101015250600101612026565b505092915050565b7f9016d09d72d40fdae2fd8ceac6b6234c7706214fd39c1cd1e609a0528c199300546001600160a01b031690565b6004546001600160a01b031615806120fb5750333014155b15612119576040516312ab28a760e11b815260040160405180910390fd5b610fc2828261351a565b6004546001600160a01b0316158061213b5750333014155b15612159576040516312ab28a760e11b815260040160405180910390fd5b835160005b81811015610dab5760006121a087838151811061217d5761217d615051565b60200260200101516001600160a01b031660009081526002602052604090205490565b905080600003612205576122008783815181106121bf576121bf615051565b60200260200101518784815181106121d9576121d9615051565b60200260200101518785815181106121f3576121f3615051565b6020026020010151613910565b6122ca565b600061221082613a9b565b905085838151811061222457612224615051565b6020908102919091010151815463ffffffff909116600160c01b0263ffffffff60c01b19909116178155845185908490811061226257612262615051565b60200260200101518160000160146101000a81548163ffffffff021916908363ffffffff1602179055506122c88884815181106122a1576122a1615051565b60200260200101518885815181106122bb576122bb615051565b6020026020010151613ab6565b505b5060010161215e565b6122db6120b5565b6001600160a01b0316336001600160a01b03161415801561230f57506004546001600160a01b0316158061230f5750333014155b1561232d57604051633b4e61ad60e01b815260040160405180910390fd5b6006546007546040516334392cbd60e21b81526001600160a01b039182166004820152838216602482015291169063d0e4b2f490604401600060405180830381600087803b15801561237e57600080fd5b505af1158015612392573d6000803e3d6000fd5b5050505050565b606060008001805480602002602001604051908101604052809291908181526020016000905b8282101561242957600084815260209081902060408051608081018252918501546001600160a01b038116835263ffffffff600160a01b8204811684860152600160c01b8204811692840192909252600160e01b90041660608201528252600190920191016123bf565b50505050905090565b6004546001600160a01b0316158061244a5750333014155b15612468576040516312ab28a760e11b815260040160405180910390fd5b61211961337c565b6004546000906001600160a01b03161580156124995750600354600160c01b900463ffffffff16155b905090565b6124a661334a565b6124ae612470565b6124cb576040516386e2123960e01b815260040160405180910390fd5b838180518251146124ef57604051631d3c4ecb60e31b815260040160405180910390fd5b6000805b835181101561252b5782818151811061250e5761250e615051565b602002602001015182612521919061507d565b91506001016124f3565b508034101561254d57604051631144943160e21b815260040160405180910390fd5b8651865181141580612560575080865114155b1561257e57604051631d3c4ecb60e31b815260040160405180910390fd5b63b85a2ce160e01b60005b82811015612631576000828a83815181106125a6576125a6615051565b60200260200101518a84815181106125c0576125c0615051565b6020026020010151604051602001612600939291906001600160e01b03199390931683526001600160a01b03918216602084015216604082015260600190565b604051602081830303815290604052905061262883828d85815181106112c3576112c3615051565b50600101612589565b50505050505050505050565b60008061264960005490565b905060005b81811015612744576000612661826138e8565b6040805160808101825291546001600160a01b038116835263ffffffff600160a01b820481166020850152600160c01b8204811692840192909252600160e01b900416606082018190529091501561273b57604051636018660f60e01b815273__$c9b295241042fdfde6acd02a7cacb6a640$__90636018660f906126ed90600090859060040161528d565b602060405180830381865af415801561270a573d6000803e3d6000fd5b505050506040513d601f19601f8201168201806040525081019061272e91906152a1565b612738908561507d565b93505b5060010161264e565b505090565b61275161334a565b612759612470565b612776576040516386e2123960e01b815260040160405180910390fd5b8383808060200260200160405190810160405280939291908181526020018383602002808284376000920191909152505060408051602080870282810182019093528682529093508692508591829185019084908082843760009201919091525050825184511491506127fe905057604051631d3c4ecb60e31b815260040160405180910390fd5b6000805b835181101561283a5782818151811061281d5761281d615051565b602002602001015182612830919061507d565b9150600101612802565b508034101561285c57604051631144943160e21b815260040160405180910390fd5b61286461337c565b6040805163e4a7c60360e01b6020820181905291600091016115a3565b60405163c0c53f1d60e01b8152606090819073__$c9b295241042fdfde6acd02a7cacb6a640$__9063c0c53f1d906128c09060009087906004016152ba565b600060405180830381865af41580156128dd573d6000803e3d6000fd5b505050506040513d6000823e601f3d908101601f1916820160405261290591908101906153d9565b9094909350915050565b6129176120b5565b6001600160a01b0316336001600160a01b03161415801561294b57506004546001600160a01b0316158061294b5750333014155b1561296957604051633b4e61ad60e01b815260040160405180910390fd5b600680546001600160a01b0319166001600160a01b03848116918217909255604051634463315560e11b815291831660048301526000916388c662aa90602401602060405180830381865afa1580156129c6573d6000803e3d6000fd5b505050506040513d601f19601f820116820180604052508101906129ea919061516e565b90506001600160a01b038116612a1357604051630352b0d160e41b815260040160405180910390fd5b60065460405163708728eb60e11b81526001600160a01b038481166004830152600092169063e10e51d690602401602060405180830381865afa158015612a5e573d6000803e3d6000fd5b505050506040513d601f19601f82011682018060405250810190612a82919061516e565b90506001600160a01b0382163014801590612aa657506001600160a01b0381163014155b15612ac457604051633170a38d60e01b815260040160405180910390fd5b600780546001600160a01b0319166001600160a01b0385811691821790925560408051928716835260208301919091527fc8d09d7710e05a8ef2f307dcf13f859ce7e661b3eee1a04a57c4d481758a6c1d910160405180910390a16109c3611ed9565b6004546001600160a01b03161580612b3f5750333014155b15612b5d576040516312ab28a760e11b815260040160405180910390fd5b611acf61337c565b600080612b7183610890565b604051636018660f60e01b815290915073__$c9b295241042fdfde6acd02a7cacb6a640$__90636018660f90612bae90600090859060040161528d565b602060405180830381865af4158015612bcb573d6000803e3d6000fd5b505050506040513d601f19601f82011682018060405250810190612bef91906152a1565b9392505050565b612bfe61334a565b6001600160a01b038116612c2d57604051631e4fbdf760e01b8152600060048201526024015b60405180910390fd5b612c3681613877565b50565b612c416120b5565b6001600160a01b0316336001600160a01b031614158015612c7557506004546001600160a01b03161580612c755750333014155b15612c9357604051633b4e61ad60e01b815260040160405180910390fd5b6001600160a01b038316612cba5760405163bb4bcc3b60e01b815260040160405180910390fd5b60038054640100000000600160e01b031916600160201b6001600160a01b0386811691820263ffffffff60c01b191692909217600160c01b63ffffffff871690810291909117909355600480546001600160a01b0319169285169283179055604080519182526020820193909352918201527f21ae9d1c05d009b6af15c73821748e22e498496e2b29672090c67ae892322d6f9060600160405180910390a1505050565b6003546060908490849063ffffffff808316600160c01b90920416141580612d9457506004546001600160a01b03838116911614155b80612dba5750600354600160201b90046001600160a01b0316336001600160a01b031614155b15612dd85760405163b36b498160e01b815260040160405180910390fd5b600084806020019051810190612dee919061544f565b90506060631541933960e31b6001600160e01b0319831601612e7d57600080600088806020019051810190612e23919061546a565b9350935093505084838383604051602401612e40939291906154f6565b60408051601f198184030181529190526020810180516001600160e01b03166001600160e01b031990931692909217909152935061322a92505050565b63b05df5d760e01b6001600160e01b0319831601612f015760008087806020019051810190612eac9190615509565b9250925050838282604051602401612ec5929190614ead565b60408051601f198184030181529190526020810180516001600160e01b03166001600160e01b031990931692909217909152925061322a915050565b6371a73aa360e01b6001600160e01b0319831601612f925760008060008089806020019051810190612f339190615572565b9450945094509450508584848484604051602401612f549493929190615622565b60408051601f198184030181529190526020810180516001600160e01b03166001600160e01b031990931692909217909152945061322a9350505050565b631b5839fd60e01b6001600160e01b0319831601612fdc57506040805160048152602481019091526020810180516001600160e01b03166001600160e01b0319841617905261322a565b63723ea86f60e01b6001600160e01b0319831601613024576000808780602001905181019061300b919061565b565b9250925050838282604051602401612ec59291906156b1565b632fea4ffd60e11b6001600160e01b0319831601613053576000808780602001905181019061300b919061565b565b63024c7f2b60e21b6001600160e01b03198316016130bd5760008060008880602001905181019061308491906156d9565b6040516001600160a01b03808516602483015263ffffffff84166044830152821660648201529296509094509250869150608401612e40565b6347a5d31f60e01b6001600160e01b031983160161311657600080878060200190518101906130ec9190615735565b6040516001600160a01b038084166024830152821660448201529194509250859150606401612ec5565b6362847abb60e01b6001600160e01b031983160161319a576000868060200190518101906131449190615774565b6040516001600160a01b038216602482015290925084915060440160408051601f198184030181529190526020810180516001600160e01b03166001600160e01b031990931692909217909152915061322a9050565b631fc7f1d160e21b6001600160e01b03198316016131e457506040805160048152602481019091526020810180516001600160e01b03166001600160e01b0319841617905261322a565b63c8e4ad1d60e01b6001600160e01b031983160161322a57506040805160048152602481019091526020810180516001600160e01b03166001600160e01b031984161790525b600080306001600160a01b03168360405161324591906157a0565b6000604051808303816000865af19150503d8060008114613282576040519150601f19603f3d011682016040523d82523d6000602084013e613287565b606091505b5091509150836001600160e01b0319168963ffffffff168e7f1291b044e5e68ff17a19703d0775336ad7ec700ef5679fbd11bd0084af55baf3858e6040516132e492919091151582526001600160a01b0316602082015260400190565b60405180910390a49c9b505050505050505050505050565b6001600160a01b038116600090815260026020526040812054806000036133415760405163c6040d1d60e01b81526001600160a01b0384166004820152602401612c24565b612bef81613a9b565b336133536120b5565b6001600160a01b031614611acf5760405163118cdaa760e01b8152336004820152602401612c24565b42600061338860005490565b905060005b818110156134bd5760006133a0826138e8565b8054909150600090600160e01b900463ffffffff161561346c578154600090600160a01b900463ffffffff166133e4578254600160c01b900463ffffffff166133ee565b60035463ffffffff165b905060006133fc82886157bc565b845463ffffffff918216925060649161341d91600160e01b900416836157e0565b61342791906157f7565b84549093508390859060149061344b908490600160a01b900463ffffffff16615819565b92506101000a81548163ffffffff021916908363ffffffff16021790555050505b815460405163ffffffff831681526001600160a01b03909116907f780f517310a8481b4817e26f9d1a336e49e7522775e8e6b4fb22c73908be6ce69060200160405180910390a2505060010161338d565b506040805163ffffffff84168152602081018390527f896e364af402e453909cff1f8bb117d283d37a717e7cf4a5c5b88be2197fa09f910160405180910390a1506003805463ffffffff191663ffffffff92909216919091179055565b60008061352684612881565b600654600754604051637677856760e11b81529395509193506001600160a01b039081169263ecef0ace92613565921690869086908990600401615836565b600060405180830381600087803b15801561357f57600080fd5b505af1158015613593573d6000803e3d6000fd5b5050505060008282856040516020016135ae93929190615884565b60408051601f1981840301815282825280516020918201206007546001600160a01b0316845290830181905263ffffffff87168383015290519092507fd4b7a01ea5a8b6ac341311c6e426730790e70b6ca9c8d9adee240379b5e81c289181900360600190a15050505050565b60005b825181101561239257613658858585848151811061363e5761363e615051565b60200260200101518585815181106112dd576112dd615051565b60010161361e565b613668613dca565b6001600160a01b03861661368f5760405163bb4bcc3b60e01b815260040160405180910390fd5b60006001600160a01b038216156136a657816136a8565b335b90506136b381613e13565b6001600160a01b0382166136f0576001600160a01b0385166136e857604051635413b8d760e11b815260040160405180910390fd5b6136f0611abd565b6136fd8787878787613e24565b50505050505050565b8251825181141580613719575080825114155b1561373757604051630533bc9360e21b815260040160405180910390fd5b60005b818110156123925761378b85828151811061375757613757615051565b602002602001015185838151811061377157613771615051565b60200260200101518584815181106121f3576121f3615051565b60010161373a565b8151815181146137b657604051630533bc9360e21b815260040160405180910390fd5b60005b818110156109c3576137f08482815181106137d6576137d6615051565b60200260200101518483815181106122bb576122bb615051565b6001016137b9565b6000613805838584613ea9565b63ffffffff8416600081815260056020908152604091829020549151600160201b9092046001600160a01b031682529293506001600160e01b031988169284917f20ffb62aa5e31e4b559317e8af8f877e19a9126fd6ff1fee93bcf06e59d385cc910160405180910390a45050505050565b7f9016d09d72d40fdae2fd8ceac6b6234c7706214fd39c1cd1e609a0528c19930080546001600160a01b031981166001600160a01b03848116918217845560405192169182907f8be0079c531659141344cd1fd0a4f28419497f9722a3daafe3b4186f6b6457e090600090a3505050565b60008060000182815481106138ff576138ff615051565b906000526020600020019050919050565b60085460405163f3ae241560e01b81523060048201526001600160a01b039091169063f3ae241590602401602060405180830381865afa158015613958573d6000803e3d6000fd5b505050506040513d601f19601f8201168201806040525081019061397c9190615909565b61399c576040516001622e7c1b60e21b0319815260040160405180910390fd5b6139a7838383613fac565b6040805160018082528183019092526000916020808301908036833701905050905083816000815181106139dd576139dd615051565b6001600160a01b03929092166020928302919091019091015260408051600180825281830190925260009181602001602082028036833701905050905060095481600081518110613a3057613a30615051565b6020908102919091010152600854604051632c78fd0360e21b81526001600160a01b039091169063b1e3f40c90613a6d9085908590600401615926565b600060405180830381600087803b158015613a8757600080fd5b505af1158015611623573d6000803e3d6000fd5b6000613ab0613aab60018461527a565b6138e8565b92915050565b60085460405163f3ae241560e01b81523060048201526001600160a01b039091169063f3ae241590602401602060405180830381865afa158015613afe573d6000803e3d6000fd5b505050506040513d601f19601f82011682018060405250810190613b229190615909565b613b42576040516001622e7c1b60e21b0319815260040160405180910390fd5b613b4c82826141c3565b604080516001808252818301909252600091602080830190803683370190505090508281600081518110613b8257613b82615051565b6001600160a01b03929092166020928302919091019091015260408051600180825281830190925260009181602001602082028036833701905050905060095481600081518110613bd557613bd5615051565b60200260200101818152505060008363ffffffff16118015613cd75750600860009054906101000a90046001600160a01b03166001600160a01b0316638009ba1f6040518163ffffffff1660e01b8152600401602060405180830381865afa158015613c45573d6000803e3d6000fd5b505050506040513d601f19601f82011682018060405250810190613c69919061516e565b6040516370a0823160e01b81526001600160a01b03868116600483015291909116906370a0823190602401602060405180830381865afa158015613cb1573d6000803e3d6000fd5b505050506040513d601f19601f82011682018060405250810190613cd591906152a1565b155b15613d4557600854604051632c78fd0360e21b81526001600160a01b039091169063b1e3f40c90613d0e9085908590600401615926565b600060405180830381600087803b158015613d2857600080fd5b505af1158015613d3c573d6000803e3d6000fd5b505050506109c3565b63ffffffff8316158015613d5b5750600a5460ff165b156109c35760085460405163262949f360e21b81526001600160a01b03909116906398a527cc90613d929085908590600401615926565b600060405180830381600087803b158015613dac57600080fd5b505af1158015613dc0573d6000803e3d6000fd5b5050505050505050565b7ff0c57e16840df040f15088dc2f81fe391c3923bec73e23a9662efc9c229c6a0054600160401b900460ff16611acf57604051631afcd79f60e31b815260040160405180910390fd5b613e1b613dca565b612c368161428c565b613e2c613dca565b6003805463ffffffff909516600160c01b0263ffffffff60c01b196001600160a01b03978816600160201b0216640100000000600160e01b03199096169590951794909417909355600480549285166001600160a01b03199384161790556006805491851691831691909117905560078054929093169116179055565b63ffffffff83166000908152600560205260408120548490600160201b90046001600160a01b0316613ef557604051628adb6d60e11b815263ffffffff82166004820152602401612c24565b60035463ffffffff808716600090815260056020526040808220805460019091015491516345560b5d60e11b81526001600160a01b03600160201b96879004811696638aac16ba968b96613f6096918616959290920483169391921690829081908e90600401615970565b60206040518083038185885af1158015613f7e573d6000803e3d6000fd5b50505050506040513d601f19601f82011682018060405250810190613fa391906152a1565b95945050505050565b6001600160a01b038316613fde57604051633899e57b60e01b81526001600160a01b0384166004820152602401612c24565b6001600160a01b0383166000908152600260205260409020541561402057604051636822fa9960e11b81526001600160a01b0384166004820152602401612c24565b606463ffffffff8316111561405f5760405163424f515b60e11b81526001600160a01b038416600482015263ffffffff83166024820152604401612c24565b428163ffffffff16111561409d5760405163faac476360e01b81526001600160a01b038416600482015263ffffffff82166024820152604401612c24565b604080516080810182526001600160a01b038086168083526000602080850182815263ffffffff8881168789019081528a82166060890190815285546001818101885587805299517f290decd9548b62a8d60345a988386fc84ba6bc95484008f6362f93160ef3e56390910180549551935192518516600160e01b026001600160e01b03938616600160c01b02939093166001600160c01b0394909516600160a01b026001600160c01b031990961691909916179390931716171790935583548401938490558181526002909252908390209190915590517f13ca1f9a974ca1b85618843282dc1981c63a62c389aa5cf6e4a31937f8434e73906141b6908490869063ffffffff92831681529116602082015260400190565b60405180910390a2505050565b606463ffffffff821611156142025760405163424f515b60e11b81526001600160a01b038316600482015263ffffffff82166024820152604401612c24565b600061420d836132fc565b805463ffffffff848116600160e01b81026001600160e01b039093169290921780845560408051938452600160c01b820483166020850152600160a01b909104909116908201529091506001600160a01b038416907f59f55668c694024ea61bdb5bb12ea8897197f9d9825fa7bee1195e263b644727906060016141b6565b612bfe613dca565b6001600160a01b0381168114612c3657600080fd5b6000602082840312156142bb57600080fd5b8135612bef81614294565b80516001600160a01b0316825260208082015163ffffffff9081169184019190915260408083015182169084015260609182015116910152565b60808101613ab082846142c6565b634e487b7160e01b600052604160045260246000fd5b604051601f8201601f191681016001600160401b038111828210171561434c5761434c61430e565b604052919050565b60006001600160401b0382111561436d5761436d61430e565b5060051b60200190565b600082601f83011261438857600080fd5b8135602061439d61439883614354565b614324565b82815260059290921b840181019181810190868411156143bc57600080fd5b8286015b848110156143e05780356143d381614294565b83529183019183016143c0565b509695505050505050565b63ffffffff81168114612c3657600080fd5b60008083601f84011261440f57600080fd5b5081356001600160401b0381111561442657600080fd5b6020830191508360208260051b850101111561444157600080fd5b9250929050565b6000806000806000806080878903121561446157600080fd5b86356001600160401b038082111561447857600080fd5b6144848a838b01614377565b975060208901359150614496826143eb565b909550604088013590808211156144ac57600080fd5b6144b88a838b016143fd565b909650945060608901359150808211156144d157600080fd5b506144de89828a016143fd565b979a9699509497509295939492505050565b600082601f83011261450157600080fd5b81356001600160401b0381111561451a5761451a61430e565b61452d601f8201601f1916602001614324565b81815284602083860101111561454257600080fd5b816020850160208301376000918101602001919091529392505050565b60006020828403121561457157600080fd5b81356001600160401b0381111561458757600080fd5b614593848285016144f0565b949350505050565b600082601f8301126145ac57600080fd5b813560206145bc61439883614354565b82815260059290921b840181019181810190868411156145db57600080fd5b8286015b848110156143e05780356145f2816143eb565b83529183019183016145df565b600080600080600080600060a0888a03121561461a57600080fd5b87356001600160401b038082111561463157600080fd5b61463d8b838c01614377565b985060208a013591508082111561465357600080fd5b61465f8b838c0161459b565b975060408a013591508082111561467557600080fd5b6146818b838c0161459b565b965060608a013591508082111561469757600080fd5b6146a38b838c016143fd565b909650945060808a01359150808211156146bc57600080fd5b506146c98a828b016143fd565b989b979a50959850939692959293505050565b600080604083850312156146ef57600080fd5b82356001600160401b038082111561470657600080fd5b61471286838701614377565b9350602085013591508082111561472857600080fd5b506147358582860161459b565b9150509250929050565b6000806000806000806080878903121561475857600080fd5b86356001600160401b038082111561476f57600080fd5b61477b8a838b01614377565b9750602089013591508082111561479157600080fd5b61479d8a838b0161459b565b965060408901359150808211156144ac57600080fd5b600082601f8301126147c457600080fd5b813560206147d461439883614354565b82815260059290921b840181019181810190868411156147f357600080fd5b8286015b848110156143e057803583529183019183016147f7565b600080600080600060a0868803121561482657600080fd5b85356001600160401b038082111561483d57600080fd5b61484989838a0161459b565b9650602088013591508082111561485f57600080fd5b61486b89838a01614377565b9550604088013591508082111561488157600080fd5b61488d89838a0161459b565b945060608801359150808211156148a357600080fd5b6148af89838a01614377565b935060808801359150808211156148c557600080fd5b506148d2888289016147b3565b9150509295509295909350565b6000806000606084860312156148f457600080fd5b83356001600160401b038082111561490b57600080fd5b61491787838801614377565b9450602086013591508082111561492d57600080fd5b6149398783880161459b565b9350604086013591508082111561494f57600080fd5b5061495c8682870161459b565b9150509250925092565b6000806000806040858703121561497c57600080fd5b84356001600160401b038082111561499357600080fd5b61499f888389016143fd565b909650945060208701359150808211156149b857600080fd5b506149c5878288016143fd565b95989497509550505050565b6000602082840312156149e357600080fd5b81356001600160401b038111156149f957600080fd5b61459384828501614377565b600081518084526020808501945080840160005b83811015614a3b57815163ffffffff1687529582019590820190600101614a19565b509495945050505050565b606081526000614a596060830186614a05565b8281036020840152614a6b8186614a05565b90508281036040840152614a7f8185614a05565b9695505050505050565b600080600060608486031215614a9e57600080fd5b83356001600160401b0380821115614ab557600080fd5b614ac18783880161459b565b94506020860135915080821115614ad757600080fd5b614ae387838801614377565b93506040860135915080821115614af957600080fd5b5061495c868287016147b3565b6000808284036080811215614b1a57600080fd5b8335614b25816143eb565b92506060601f1982011215614b3957600080fd5b50604051606081018181106001600160401b0382111715614b5c57614b5c61430e565b6040526020840135614b6d816143eb565b81526040840135614b7d81614294565b60208201526060840135614b9081614294565b6040820152919491935090915050565b600080600080600060608688031215614bb857600080fd5b85356001600160401b0380821115614bcf57600080fd5b614bdb89838a01614377565b96506020880135915080821115614bf157600080fd5b614bfd89838a016143fd565b90965094506040880135915080821115614c1657600080fd5b50614c23888289016143fd565b969995985093965092949392505050565b8015158114612c3657600080fd5b60008060408385031215614c5557600080fd5b823591506020830135614c6781614c34565b809150509250929050565b60008060408385031215614c8557600080fd5b50508035926020909101359150565b6020808252825182820181905260009190848201906040850190845b81811015614cd657614cc38385516142c6565b9284019260809290920191600101614cb0565b50909695505050505050565b60008060408385031215614cf557600080fd5b82356001600160401b03811115614d0b57600080fd5b614d1785828601614377565b9250506020830135614c67816143eb565b60008060008060808587031215614d3e57600080fd5b84356001600160401b0380821115614d5557600080fd5b614d6188838901614377565b95506020870135915080821115614d7757600080fd5b614d838883890161459b565b94506040870135915080821115614d9957600080fd5b614da58883890161459b565b93506060870135915080821115614dbb57600080fd5b50614dc88782880161459b565b91505092959194509250565b60008060008060808587031215614dea57600080fd5b84356001600160401b0380821115614e0157600080fd5b614e0d8883890161459b565b95506020870135915080821115614e2357600080fd5b614e2f88838901614377565b94506040870135915080821115614e4557600080fd5b614e5188838901614377565b93506060870135915080821115614e6757600080fd5b50614dc8878288016147b3565b600081518084526020808501945080840160005b83811015614a3b5781516001600160a01b031687529582019590820190600101614e88565b604081526000614ec06040830185614e74565b8281036020840152613fa38185614a05565b60008060408385031215614ee557600080fd5b8235614ef081614294565b91506020830135614c6781614294565b600060208284031215614f1257600080fd5b8135612bef816143eb565b600080600060608486031215614f3257600080fd5b8335614f3d81614294565b92506020840135614f4d816143eb565b91506040840135614f5d81614294565b809150509250925092565b60008060008060008060c08789031215614f8157600080fd5b86359550602087013594506040870135614f9a81614294565b93506060870135614faa81614294565b92506080870135614fba816143eb565b915060a08701356001600160401b03811115614fd557600080fd5b614fe189828a016144f0565b9150509295509295509295565b60005b83811015615009578181015183820152602001614ff1565b50506000910152565b6000815180845261502a816020860160208601614fee565b601f01601f19169290920160200192915050565b602081526000612bef6020830184615012565b634e487b7160e01b600052603260045260246000fd5b634e487b7160e01b600052601160045260246000fd5b80820180821115613ab057613ab0615067565b63ffffffff60e01b841681526060602082015260006150b26060830185614e74565b905063ffffffff83166040830152949350505050565b600080600080600080600080610100898b0312156150e557600080fd5b88516150f081614294565b60208a0151909850615101816143eb565b60408a015190975061511281614294565b60608a015190965061512381614294565b60808a015190955061513481614294565b60a08a015190945061514581614294565b60c08a015160e08b0151919450925061515d81614c34565b809150509295985092959890939650565b60006020828403121561518057600080fd5b8151612bef81614294565b63ffffffff60e01b851681526080602082015260006151ad6080830186614e74565b82810360408401526151bf8186614a05565b905082810360608401526151d38185614a05565b979650505050505050565b63ffffffff60e01b841681526060602082015260006152006060830185614e74565b8281036040840152614a7f8185614a05565b63ffffffff60e01b8616815260a06020820152600061523460a0830187614e74565b82810360408401526152468187614a05565b9050828103606084015261525a8186614a05565b9050828103608084015261526e8185614a05565b98975050505050505050565b81810381811115613ab057613ab0615067565b82815260a08101612bef60208301846142c6565b6000602082840312156152b357600080fd5b5051919050565b6000604082018483526020604081850152818551808452606086019150828701935060005b818110156153045784516001600160a01b0316835293830193918301916001016152df565b5090979650505050505050565b600082601f83011261532257600080fd5b8151602061533261439883614354565b82815260059290921b8401810191818101908684111561535157600080fd5b8286015b848110156143e057805161536881614294565b8352918301918301615355565b600082601f83011261538657600080fd5b8151602061539661439883614354565b82815260059290921b840181019181810190868411156153b557600080fd5b8286015b848110156143e05780516153cc816143eb565b83529183019183016153b9565b600080604083850312156153ec57600080fd5b82516001600160401b038082111561540357600080fd5b61540f86838701615311565b9350602085015191508082111561542557600080fd5b5061473585828601615375565b80516001600160e01b03198116811461544a57600080fd5b919050565b60006020828403121561546157600080fd5b612bef82615432565b6000806000806080858703121561548057600080fd5b61548985615432565b935060208501516001600160401b03808211156154a557600080fd5b6154b188838901615311565b945060408701519150808211156154c757600080fd5b6154d388838901615375565b935060608701519150808211156154e957600080fd5b50614dc887828801615375565b606081526000614a596060830186614e74565b60008060006060848603121561551e57600080fd5b61552784615432565b925060208401516001600160401b038082111561554357600080fd5b61554f87838801615311565b9350604086015191508082111561556557600080fd5b5061495c86828701615375565b600080600080600060a0868803121561558a57600080fd5b61559386615432565b945060208601516001600160401b03808211156155af57600080fd5b6155bb89838a01615311565b955060408801519150808211156155d157600080fd5b6155dd89838a01615375565b945060608801519150808211156155f357600080fd5b6155ff89838a01615375565b9350608088015191508082111561561557600080fd5b506148d288828901615375565b6080815260006156356080830187614e74565b82810360208401526156478187614a05565b905082810360408401526151bf8186614a05565b60008060006060848603121561567057600080fd5b61567984615432565b925060208401516001600160401b0381111561569457600080fd5b6156a086828701615311565b9250506040840151614f5d816143eb565b6040815260006156c46040830185614e74565b905063ffffffff831660208301529392505050565b600080600080608085870312156156ef57600080fd5b6156f885615432565b9350602085015161570881614294565b6040860151909350615719816143eb565b606086015190925061572a81614294565b939692955090935050565b60008060006060848603121561574a57600080fd5b61575384615432565b9250602084015161576381614294565b6040850151909250614f5d81614294565b6000806040838503121561578757600080fd5b61579083615432565b91506020830151614c6781614294565b600082516157b2818460208701614fee565b9190910192915050565b63ffffffff8281168282160390808211156157d9576157d9615067565b5092915050565b8082028115828204841417613ab057613ab0615067565b60008261581457634e487b7160e01b600052601260045260246000fd5b500490565b63ffffffff8181168382160190808211156157d9576157d9615067565b6001600160a01b038516815260806020820181905260009061585a90830186614e74565b828103604084015261586c8186614a05565b91505063ffffffff8316606083015295945050505050565b835160009082906020808801845b838110156158b75781516001600160a01b031685529382019390820190600101615892565b5050865181880193925060005b818110156158e657845163ffffffff16845293820193928201926001016158c4565b50505060e09490941b6001600160e01b0319168452505060049091019392505050565b60006020828403121561591b57600080fd5b8151612bef81614c34565b6040815260006159396040830185614e74565b82810360208481019190915284518083528582019282019060005b8181101561530457845183529383019391830191600101615954565b63ffffffff881681526001600160a01b0387811660208301528681166040830152851660608201526080810184905260a0810183905260e060c082018190526000906159be90830184615012565b999850505050505050505056fea164736f6c6343000815000a",
  "libraries": {
    "PGContribCalculator": "0x4bB8B77C13a17E9704c6212509ED0D572619e3b0"
  },
  "devdoc": {
    "author": "DAOHaus",
    "details": "Setup contract as a MolochV3 manager shaman module to mint/burn shares based on member activity. Features and important things to consider: - Inherits all the features of NetworkRegistry contract. - It can be setup as a manager Shaman module on a MolochV3 DAO (codename Baal) to mint/burn shares when   adding/updating members without the need of sending a separate/additional actions within a multicall proposal. - You can setup the amount of {sharesToMint} to new members being added to the registry. - You can enable/disable burning shares to inactive members (activityMultiplier == 0). - As the DAO usually lives only on the main network, it is recommended to deploy a NetworkRegistryShaman   as the main registry while replicas being of type NetworkRegistry.",
    "errors": {
      "InvalidInitialization()": [
        {
          "details": "The contract is already initialized."
        }
      ],
      "InvalidMember__ActivityMultiplier(address,uint32)": [
        {
          "params": {
            "_activityMultiplier": "activity multiplier",
            "_memberAddress": "member address"
          }
        }
      ],
      "InvalidMember__Address(address)": [
        {
          "params": {
            "_memberAddress": "submitted member address"
          }
        }
      ],
      "InvalidMember__StartDateInTheFuture(address,uint32)": [
        {
          "params": {
            "_memberAddress": "member address",
            "_startDate": "start date in seconds"
          }
        }
      ],
      "Member__AlreadyRegistered(address)": [
        {
          "params": {
            "_memberAddress": "member address"
          }
        }
      ],
      "Member__NotRegistered(address)": [
        {
          "params": {
            "_memberAddress": "member address"
          }
        }
      ],
      "NotInitializing()": [
        {
          "details": "The contract is not initializing."
        }
      ],
      "OwnableInvalidOwner(address)": [
        {
          "details": "The owner is not a valid owner account. (eg. `address(0)`)"
        }
      ],
      "OwnableUnauthorizedAccount(address)": [
        {
          "details": "The caller account is not authorized to perform an operation."
        }
      ]
    },
    "events": {
      "Initialized(uint64)": {
        "details": "Triggered when the contract has been initialized or reinitialized."
      },
      "NetworkRegistryUpdated(uint32,address,uint32,address)": {
        "params": {
          "_chainId": "network chainId where the replica lives",
          "_delegate": "Delegate address in case of a bridge tx failure (currently not in use)",
          "_domainId": "Connext domain ID that correspond to the network where the replica lives",
          "_registryAddress": "replica contract address"
        }
      },
      "NewMember(address,uint32,uint32)": {
        "params": {
          "_activityMultiplier": "member activity multiplier",
          "_memberAddress": "member address",
          "_startDate": "timestamp the member started activities in seconds"
        }
      },
      "NewUpdaterConfig(address,uint32,address)": {
        "params": {
          "_connext": "Connext contract address",
          "_updater": "new Updater address",
          "_updaterDomain": "new Updater domain ID"
        }
      },
      "RegistryActivityUpdate(uint32,uint256)": {
        "params": {
          "_timestamp": "timestamp registry activity update epoch was executed",
          "_totalMemberUpdates": "total updated members during the epoch"
        }
      },
      "ShamanConfigUpdated(uint256,bool)": {
        "params": {
          "_burnShares": "wether or not to burn shares to inactive members",
          "_sharesToMint": "new amount of shares to mint to registered members"
        }
      },
      "SplitUpdated(address,address)": {
        "params": {
          "_split": "new 0xSplitWallet contract address",
          "_splitMain": "new 0xSplitMain contract address"
        }
      },
      "SplitsDistributionUpdated(address,bytes32,uint32)": {
        "params": {
          "_split": "0xSplit contract address",
          "_splitDistributorFee": "split fee set at reward for the address that executes the distribution",
          "_splitHash": "hash of the split distribution parameters"
        }
      },
      "SyncActionPerformed(bytes32,uint32,bytes4,bool,address)": {
        "params": {
          "_action": "Function selector for the action executed on the replica",
          "_originDomain": "Connext domain ID that correspond to the network where the sync message was submitted",
          "_originSender": "main NetworkRegistry address that forwarded the sync message through the Connext bridge",
          "_success": "Whether or not the action execution succeeded",
          "_transferId": "transfer ID returned by Connext that identifies the received xCall message"
        }
      },
      "SyncMessageSubmitted(bytes32,uint32,bytes4,address)": {
        "params": {
          "_action": "Function selector for the action to be executed on the replica",
          "_chainId": "chainId of the destination network",
          "_registryAddress": "replica NetworkRegistry address",
          "_transferId": "Transfer ID returned by Connext to identify the executed xCall"
        }
      },
      "UpdateMember(address,uint32,uint32,uint32)": {
        "params": {
          "_activityMultiplier": "new member activity multiplier",
          "_memberAddress": "member address",
          "_secondsActive": "member seconds active since last update",
          "_startDate": "timestamp the member started activities in seconds"
        }
      },
      "UpdateMemberSeconds(address,uint32)": {
        "params": {
          "_memberAddress": "member address",
          "_secondsActive": "member activity in seconds since last registry update"
        }
      }
    },
    "kind": "dev",
    "methods": {
      "acceptNetworkSplitControl(uint32[],uint256[])": {
        "details": "Callable by main registry owner",
        "params": {
          "_chainIds": "a list of network chainIds where valid replicas live",
          "_relayerFees": "a list of fees to be paid to the Connext relayer per sync message forwarded"
        }
      },
      "acceptSplitControl()": {
        "details": "Callable on both main and replica registries"
      },
      "addOrUpdateMembersBatch(address[],uint32[],uint32[],uint32[])": {
        "details": "Callable on a replica registry through the Connext bridge. The syncNetworkMemberRegistry function ensures that array params will always be the same length so there is no need for args validation",
        "params": {
          "_activityMultipliers": "Activity multipliers for each new member",
          "_members": "A list of member addresses to be added to the registry",
          "_secondsActive": "A list of members reported activity in seconds",
          "_startDates": "A list of dates when each member got active"
        }
      },
      "batchNewMembers(address[],uint32[],uint32[])": {
        "details": "Callable on a replica registry through the Connext bridge",
        "params": {
          "_activityMultipliers": "Activity multipliers for each new member",
          "_members": "A list of member addresses to be added to the registry",
          "_startDates": "A list of dates when each member got active"
        }
      },
      "batchUpdateMembersActivity(address[],uint32[])": {
        "details": "Callable on a replica registry through the Connext bridge",
        "params": {
          "_activityMultipliers": "New activity multipliers for each member",
          "_members": "A list of existing members"
        }
      },
      "calculate(address[])": {
        "details": "It uses the PGContribCalculator library to calculate member allocations",
        "params": {
          "_sortedList": "sorted list (ascending order) of members to be considered in the 0xSplit distribution"
        },
        "returns": {
          "_percentAllocations": "list of split allocations for each eligible recipient",
          "_receivers": "list of eligible recipients (non-zero allocation) for the next split distribution"
        }
      },
      "calculateContributionOf(address)": {
        "details": "It uses the PGContribCalculator library",
        "params": {
          "_memberAddress": "member address"
        },
        "returns": {
          "_0": "calculated contribution as uin256 value"
        }
      },
      "calculateTotalContributions()": {
        "details": "omit members with activityMultiplier == 0",
        "returns": {
          "total": "calculated contributions from active members"
        }
      },
      "cancelNetworkSplitControlTransfer(uint32[],uint256[])": {
        "details": "Callable by main registry owner",
        "params": {
          "_chainIds": "a list of network chainIds where valid replicas live",
          "_relayerFees": "a list of fees to be paid to the Connext relayer per sync message forwarded"
        }
      },
      "cancelSplitControlTransfer()": {
        "details": "Callable on both main and replica registries"
      },
      "getMember(address)": {
        "details": "It throws an exception if member is not in the db",
        "params": {
          "_memberAddress": "member address"
        },
        "returns": {
          "member": "metadata"
        }
      },
      "getMembers()": {
        "details": "In case of a growing number of members in the registry it is recommended to use {getMembersPaginated}",
        "returns": {
          "_0": "an array of Members in the registry"
        }
      },
      "getMembersPaginated(uint256,uint256)": {
        "params": {
          "_fromIndex": "starting index in Member's db",
          "_toIndex": "ending index in Member's db"
        },
        "returns": {
          "memberList": "an array of Members in the registry"
        }
      },
      "getMembersProperties(address[])": {
        "details": "Function should revert if any address in _memberAddrs is not registered",
        "params": {
          "_members": "list of registered member addresses"
        },
        "returns": {
          "_0": "list of member activity multipliers",
          "_1": "list of member start dates",
          "_2": "list of member seconds active"
        }
      },
      "initialize(bytes)": {
        "details": "Initialization parameters are abi-encoded (i.e. through the NetworkRegistrySummoner contract)",
        "params": {
          "_initializationParams": "abi-encoded parameters"
        }
      },
      "isMainRegistry()": {
        "details": "Verifies if updater params are set to zero"
      },
      "owner()": {
        "details": "Returns the address of the current owner."
      },
      "renounceOwnership()": {
        "details": "Leaves the contract without owner. It will not be possible to call `onlyOwner` functions. Can only be called by the current owner. NOTE: Renouncing ownership will leave the contract without an owner, thereby disabling any functionality that is only available to the owner."
      },
      "setNetworkUpdaterConfig(uint32[],address[],uint32[],address[],uint256[])": {
        "details": "Callable by main registry owner",
        "params": {
          "_chainIds": "a list of network chainIds where valid replicas live",
          "_connextAddrs": "a list Connext bridge addresses to be used on each replica",
          "_relayerFees": "a list of fees to be paid to the Connext relayer per sync message forwarded",
          "_updaterAddrs": "a list of updater role addresses to be used on each replica",
          "_updaterDomains": "a list of Connext updater domain IDs to be used on each replica"
        }
      },
      "setShamanConfig(uint256,bool)": {
        "details": "Callable by the registry owner",
        "params": {
          "_burnShares": "Whether or not to burn shares if a member activityMultiplier is set to zero",
          "_sharesToMint": "Amount of shares to mint to new members"
        }
      },
      "setSplit(address,address)": {
        "details": "Callable on both main and replica registries",
        "params": {
          "_split": "The address of the 0xSplit contract",
          "_splitMain": "The address of the 0xSplitMain"
        }
      },
      "setUpdaterConfig(address,uint32,address)": {
        "details": "Callable on both main and replica registries",
        "params": {
          "_connext": "Connext contract address",
          "_updater": "Main NetworkRegistry address that will update the replica registry using the Connext bridge",
          "_updaterDomain": "Connext domain ID where the Updater lives"
        }
      },
      "syncBatchNewMembers(address[],uint32[],uint32[],uint32[],uint256[])": {
        "details": "Callable by the main registry owner",
        "params": {
          "_activityMultipliers": "A list of activity multipliers for each new member",
          "_chainIds": "a list of network chainIds where valid replicas live",
          "_members": "A list of member addresses to be added to the registry",
          "_relayerFees": "a list of fees to be paid to the Connext relayer per sync message forwarded",
          "_startDates": "A list of dates when each member got active"
        }
      },
      "syncBatchUpdateMembersActivity(address[],uint32[],uint32[],uint256[])": {
        "details": "Callable by the main registry owner",
        "params": {
          "_activityMultipliers": "A list of new activity multipliers for each member",
          "_chainIds": "a list of network chainIds where valid replicas live",
          "_members": "A list of existing members",
          "_relayerFees": "a list of fees to be paid to the Connext relayer per sync message forwarded"
        }
      },
      "syncNetworkMemberRegistry(address[],uint32[],uint256[])": {
        "details": "Callable by the main registry owner",
        "params": {
          "_chainIds": "a list of network chainIds where valid replicas live",
          "_members": "list of member addresses you look to sync",
          "_relayerFees": "a list of fees to be paid to the Connext relayer per sync message forwarded"
        }
      },
      "syncUpdateAll(address[],uint32,uint32[],uint256[])": {
        "details": "Callable by the main registry owner - Addresses in _sortedList must be in the member registry",
        "params": {
          "_chainIds": "a list of network chainIds where valid replicas live",
          "_relayerFees": "a list of fees to be paid to the Connext relayer per sync message forwarded",
          "_sortedList": "sorted list (ascending order) of members to be considered in the 0xSplit distribution",
          "_splitDistributorFee": "split fee set as reward for the address that executes the distribution"
        }
      },
      "syncUpdateSecondsActive(uint32[],uint256[])": {
        "details": "Callable by the main registry owner",
        "params": {
          "_chainIds": "a list of network chainIds where valid replicas live",
          "_relayerFees": "a list of fees to be paid to the Connext relayer per sync message forwarded"
        }
      },
      "syncUpdateSplits(address[],uint32,uint32[],uint256[])": {
        "details": "Callable by the main registry owner. - Addresses in _sortedList must be in the member registry",
        "params": {
          "_chainIds": "a list of network chainIds where valid replicas live",
          "_relayerFees": "a list of fees to be paid to the Connext relayer per sync message forwarded",
          "_sortedList": "sorted list (ascending order) of members to be considered in the 0xSplit distribution",
          "_splitDistributorFee": "split fee set as reward for the address that executes the distribution"
        }
      },
      "totalMembers()": {
        "returns": {
          "_0": "total members in the registry"
        }
      },
      "transferNetworkSplitControl(uint32[],address[],uint256[])": {
        "details": "Callable by main registry owner",
        "params": {
          "_chainIds": "a list of network chainIds where valid replicas live",
          "_newControllers": "new controller address per replica",
          "_relayerFees": "a list of fees to be paid to the Connext relayer per sync message forwarded"
        }
      },
      "transferOwnership(address)": {
        "details": "Transfers ownership of the contract to a new account (`newOwner`). Can only be called by the current owner."
      },
      "transferSplitControl(address)": {
        "details": "Callable on both main and replica registries",
        "params": {
          "_newController": "new controller address"
        }
      },
      "updateAll(address[],uint32)": {
        "details": "Verify if the address list is sorted, has no duplicates and is valid",
        "params": {
          "_sortedList": "sorted list (ascending order) of members to be considered in the 0xSplit distribution",
          "_splitDistributorFee": "split fee set as reward for the address that executes the distribution"
        }
      },
      "updateNetworkRegistry(uint32,(uint32,address,address))": {
        "details": "Callable by main registry owner",
        "params": {
          "_chainId": "Network chainId where the replica registry lives",
          "_newRegistry": "Connext domain ID and replica NetworkRegistry address"
        }
      },
      "updateNetworkSplit(uint32[],address[],address[],uint256[])": {
        "details": "Callable by main registry owner",
        "params": {
          "_chainIds": "a list of network chainIds where valid replicas live",
          "_relayerFees": "a list of fees to be paid to the Connext relayer per sync message forwarded",
          "_splits": "a list of 0xSplit addresses for each replica",
          "_splitsMain": "a list of 0xSplit proxy addresses for each replica"
        }
      },
      "updateSecondsActive()": {
        "details": "It should manage a lastActivityUpdate state variable to update activity based on last update epoch. For new members it should update seconds based each member startDate."
      },
      "updateSplits(address[],uint32)": {
        "details": "Verify if the address list is sorted, has no duplicates and is valid",
        "params": {
          "_sortedList": "sorted list (ascending order) of members to be considered in the 0xSplit distribution",
          "_splitDistributorFee": "split fee set as reward for the address that executes the distribution"
        }
      },
      "xReceive(bytes32,uint256,address,address,uint32,bytes)": {
        "details": "Forwarded messages can only be executed if the function selector is listed as valid action",
        "params": {
          "_incomingCalldata": "message calldata to be used to invoke the required syncing action",
          "_origin": "Connext domain ID that correspond to the network where the the xCall message was submitted",
          "_originSender": "main registry address that forwarded the xCall message through the Connext bridge",
          "_transferId": "transfer ID set by Connext to identify the incoming xCall message"
        },
        "returns": {
          "_0": "any data returned by the action call"
        }
      }
    },
    "stateVariables": {
      "baal": {
        "details": "Baal address"
      }
    },
    "title": "A cross-chain network registry and Baal shaman module to distribute funds escrowed in 0xSplit based on member activity.",
    "version": 1
  },
  "userdoc": {
    "errors": {
      "InvalidMember__ActivityMultiplier(address,uint32)": [
        {
          "notice": "Invalid value for member activity multiplier"
        }
      ],
      "InvalidMember__Address(address)": [
        {
          "notice": "Invalid member address"
        }
      ],
      "InvalidMember__StartDateInTheFuture(address,uint32)": [
        {
          "notice": "Invalid member start date"
        }
      ],
      "MemberRegistry__ParamsSizeMismatch()": [
        {
          "notice": "Function array parameter size mismatch"
        }
      ],
      "Member__AlreadyRegistered(address)": [
        {
          "notice": "Member is already registered"
        }
      ],
      "Member__IndexOutOfBounds()": [
        {
          "notice": "Member index out of bounds"
        }
      ],
      "Member__NotRegistered(address)": [
        {
          "notice": "Member is not registered"
        }
      ],
      "NetWorkRegistry__ParamsSizeMismatch()": [
        {
          "notice": "Function array parameter size mismatch"
        }
      ],
      "NetworkRegistry__ConnextOnly()": [
        {
          "notice": "The function is callable through Connext only."
        }
      ],
      "NetworkRegistry__InvalidConnextAddress()": [
        {
          "notice": "Connext address cannot be 0x0"
        }
      ],
      "NetworkRegistry__InvalidOrImmutableSplit()": [
        {
          "notice": "0xSplit doesn't exists or is immutable"
        }
      ],
      "NetworkRegistry__InvalidReplica()": [
        {
          "notice": "Registry has invalid domainId or registry address values"
        }
      ],
      "NetworkRegistry__NeitherOwnableNorReplicaUpdater()": [
        {
          "notice": "Network Registry must have an owner or updater address assigned."
        }
      ],
      "NetworkRegistry__NoReplicaOnNetwork(uint32)": [
        {
          "notice": "No replica registered on network with ID `_chainId`"
        }
      ],
      "NetworkRegistry__OnlyMainRegistry()": [
        {
          "notice": "The function is callable only on a main registry by the owner."
        }
      ],
      "NetworkRegistry__OnlyOwnerOrUpdater()": [
        {
          "notice": "The function is callable only by the owner or by the updater through Connext."
        }
      ],
      "NetworkRegistry__OnlyReplicaRegistry()": [
        {
          "notice": "The function is callable only on a replica by the owner or through a sync event."
        }
      ],
      "NetworkRegistry__ValueSentLessThanRelayerFees()": [
        {
          "notice": "msg value sent does not cover relayer fees"
        }
      ],
      "Split_ControlNotHandedOver()": [
        {
          "notice": "Control of 0xSplit contract hasn't been transferred to the registry"
        }
      ]
    },
    "events": {
      "NetworkRegistryUpdated(uint32,address,uint32,address)": {
        "notice": "emitted when a new replica NetworkRegistry is added/updated"
      },
      "NewMember(address,uint32,uint32)": {
        "notice": "emitted after a new member is added to the registry"
      },
      "NewUpdaterConfig(address,uint32,address)": {
        "notice": "emitted after the Connext and Updater role settings are updated"
      },
      "RegistryActivityUpdate(uint32,uint256)": {
        "notice": "emitted after an registry activity update epoch is executed"
      },
      "ShamanConfigUpdated(uint256,bool)": {
        "notice": "emitted when the shaman config is updated"
      },
      "SplitUpdated(address,address)": {
        "notice": "emitted when the 0xSplit contract is updated"
      },
      "SplitsDistributionUpdated(address,bytes32,uint32)": {
        "notice": "emitted when a new split distribution is registered on the 0xSplit contract"
      },
      "SyncActionPerformed(bytes32,uint32,bytes4,bool,address)": {
        "notice": "emitted when a registry synchronization message is received and executed on a replica"
      },
      "SyncMessageSubmitted(bytes32,uint32,bytes4,address)": {
        "notice": "emitted when a registry synchronization message is forwarded through the Connext bridge"
      },
      "UpdateMember(address,uint32,uint32,uint32)": {
        "notice": "emitted after the an existing member is updated"
      },
      "UpdateMemberSeconds(address,uint32)": {
        "notice": "emitted after each time a member registry activity is updated"
      }
    },
    "kind": "user",
    "methods": {
      "acceptNetworkSplitControl(uint32[],uint256[])": {
        "notice": "Submit sync messages to replicas in order to accept control of the current 0xSplit contract"
      },
      "acceptSplitControl()": {
        "notice": "Accepts control of the current 0xSplit contract"
      },
      "addOrUpdateMembersBatch(address[],uint32[],uint32[],uint32[])": {
        "notice": "Adds and/or updates a set of members on the registry"
      },
      "baal()": {
        "notice": "MolochV3 DAO address"
      },
      "batchNewMembers(address[],uint32[],uint32[])": {
        "notice": "Adds a new set of members to the registry"
      },
      "batchUpdateMembersActivity(address[],uint32[])": {
        "notice": "Updates the activity multiplier for a set of existing members"
      },
      "burnShares()": {
        "notice": "Wether or not to burn shares if a member activityMultiplier is set to zero"
      },
      "calculate(address[])": {
        "notice": "Calculate 0xSplit distribution allocations"
      },
      "calculateContributionOf(address)": {
        "notice": "Calculates a member individual contribution"
      },
      "calculateTotalContributions()": {
        "notice": "Calculates the sum of all member contributions"
      },
      "cancelNetworkSplitControlTransfer(uint32[],uint256[])": {
        "notice": "Submit sync messages to replicas in order to cancel a transfer control request of the current 0xSplit contract"
      },
      "cancelSplitControlTransfer()": {
        "notice": "Cancel controller transfer of the current 0xSplit contract"
      },
      "connext()": {
        "notice": "Connext contract in the current domain"
      },
      "getMember(address)": {
        "notice": "Fetch a member's metadata from the registry."
      },
      "getMembers()": {
        "notice": "Fetch all members from the registry"
      },
      "getMembersPaginated(uint256,uint256)": {
        "notice": "Fetch a subset of members from the registry"
      },
      "getMembersProperties(address[])": {
        "notice": "Fetch members metadata as separate property arrays"
      },
      "initialize(bytes)": {
        "notice": "Initializes the registry shaman contract"
      },
      "isMainRegistry()": {
        "notice": "Returns whether or not a registry has been setup as a main registry"
      },
      "lastActivityUpdate()": {
        "notice": "last timestamp where the registry got updated"
      },
      "replicaRegistry(uint32)": {
        "notice": "replicas tied to the current registry"
      },
      "setNetworkUpdaterConfig(uint32[],address[],uint32[],address[],uint256[])": {
        "notice": "Set Connext & Updater config settings for existing NetworkRegistry replicas via sync message"
      },
      "setShamanConfig(uint256,bool)": {
        "notice": "Updates the shaman config parameters"
      },
      "setSplit(address,address)": {
        "notice": "Updates the the 0xSplitMain proxy and 0xSplit contract addresses"
      },
      "setUpdaterConfig(address,uint32,address)": {
        "notice": "Set Connext and Updater config parameters"
      },
      "sharesToMint()": {
        "notice": "The amount of shares to mint to new members"
      },
      "split()": {
        "notice": "0xSplit contract where funds are hold"
      },
      "splitMain()": {
        "notice": "0xSplit proxy contract"
      },
      "syncBatchNewMembers(address[],uint32[],uint32[],uint32[],uint256[])": {
        "notice": "Adds a new set of members to the registry and sync with replicas"
      },
      "syncBatchUpdateMembersActivity(address[],uint32[],uint32[],uint256[])": {
        "notice": "Updates the activity multiplier for a set of existing members and sync with replicas"
      },
      "syncNetworkMemberRegistry(address[],uint32[],uint256[])": {
        "notice": "Sync the state of a set of registry members across networks. Useful whether you're looking to sync a new replica from scratch or a subset of members. For example this function can be used to sync member's state in batches instead of doing a full registry sync which could become pretty gas intensive with a growing list of members."
      },
      "syncUpdateAll(address[],uint32,uint32[],uint256[])": {
        "notice": "Executes both {updateSecondsActive} to update member's activity and {updateSplits} for split distribution across all networks"
      },
      "syncUpdateSecondsActive(uint32[],uint256[])": {
        "notice": "Updates activity for each member in the registry since the last update epoch and sync with replicas"
      },
      "syncUpdateSplits(address[],uint32,uint32[],uint256[])": {
        "notice": "Updates the 0xSplit distribution on all networks based on reported member activity during the last epoch. Consider calling {syncUpdateSecondsActive} prior or after applying a 0xSplit distribution update"
      },
      "totalMembers()": {
        "notice": "Returns the total No of members in the registry"
      },
      "transferNetworkSplitControl(uint32[],address[],uint256[])": {
        "notice": "Submit sync messages to replicas in order to transfer control of the current 0xSplit contract to `_newController`"
      },
      "transferSplitControl(address)": {
        "notice": "Transfer control of the current 0xSplit contract to `_newController`"
      },
      "updateAll(address[],uint32)": {
        "notice": "Executes both {updateSecondsActive} to update registry member's activity and {updateSplits} for split distribution"
      },
      "updateNetworkRegistry(uint32,(uint32,address,address))": {
        "notice": "Adds a replica NetworkRegistry that should get in sync with a main registry"
      },
      "updateNetworkSplit(uint32[],address[],address[],uint256[])": {
        "notice": "Updates the 0xSplit contracts on existing NetworkRegistry replicas via sync message"
      },
      "updateSecondsActive()": {
        "notice": "Updates seconds active since the last update epoch for every member in the registry"
      },
      "updateSplits(address[],uint32)": {
        "notice": "Updates the 0xSplit distribution based on member activity during the last epoch Consider calling {updateSecondsActive} prior triggering a 0xSplit distribution update"
      },
      "updater()": {
        "notice": "Address of the updater role that can update the registry through the Connext bridge"
      },
      "updaterDomain()": {
        "notice": "Connext domain ID where the updater contract is deployed"
      },
      "xReceive(bytes32,uint256,address,address,uint32,bytes)": {
        "notice": "Accepts incoming sync messages from a main registry via Connext authenticated calls"
      }
    },
    "notice": "Manage a cross-chain member registry that mints/burn Baal DAO shares and distribute funds hold in 0xSplit based on member activity.",
    "version": 1
  },
  "storageLayout": {
    "storage": [
      {
        "astId": 11897,
        "contract": "contracts/NetworkRegistryShaman.sol:NetworkRegistryShaman",
        "label": "members",
        "offset": 0,
        "slot": "0",
        "type": "t_struct(Members)11504_storage"
      },
      {
        "astId": 11900,
        "contract": "contracts/NetworkRegistryShaman.sol:NetworkRegistryShaman",
        "label": "lastActivityUpdate",
        "offset": 0,
        "slot": "3",
        "type": "t_uint32"
      },
      {
        "astId": 8289,
        "contract": "contracts/NetworkRegistryShaman.sol:NetworkRegistryShaman",
        "label": "connext",
        "offset": 4,
        "slot": "3",
        "type": "t_contract(IConnext)285"
      },
      {
        "astId": 8292,
        "contract": "contracts/NetworkRegistryShaman.sol:NetworkRegistryShaman",
        "label": "updaterDomain",
        "offset": 24,
        "slot": "3",
        "type": "t_uint32"
      },
      {
        "astId": 8295,
        "contract": "contracts/NetworkRegistryShaman.sol:NetworkRegistryShaman",
        "label": "updater",
        "offset": 0,
        "slot": "4",
        "type": "t_address"
      },
      {
        "astId": 8301,
        "contract": "contracts/NetworkRegistryShaman.sol:NetworkRegistryShaman",
        "label": "replicaRegistry",
        "offset": 0,
        "slot": "5",
        "type": "t_mapping(t_uint32,t_struct(Registry)11515_storage)"
      },
      {
        "astId": 8305,
        "contract": "contracts/NetworkRegistryShaman.sol:NetworkRegistryShaman",
        "label": "splitMain",
        "offset": 0,
        "slot": "6",
        "type": "t_contract(ISplitMain)11399"
      },
      {
        "astId": 8308,
        "contract": "contracts/NetworkRegistryShaman.sol:NetworkRegistryShaman",
        "label": "split",
        "offset": 0,
        "slot": "7",
        "type": "t_address"
      },
      {
        "astId": 10463,
        "contract": "contracts/NetworkRegistryShaman.sol:NetworkRegistryShaman",
        "label": "baal",
        "offset": 0,
        "slot": "8",
        "type": "t_contract(IBaal)693"
      },
      {
        "astId": 10466,
        "contract": "contracts/NetworkRegistryShaman.sol:NetworkRegistryShaman",
        "label": "sharesToMint",
        "offset": 0,
        "slot": "9",
        "type": "t_uint256"
      },
      {
        "astId": 10469,
        "contract": "contracts/NetworkRegistryShaman.sol:NetworkRegistryShaman",
        "label": "burnShares",
        "offset": 0,
        "slot": "10",
        "type": "t_bool"
      }
    ],
    "types": {
      "t_address": {
        "encoding": "inplace",
        "label": "address",
        "numberOfBytes": "20"
      },
      "t_array(t_struct(Member)11489_storage)dyn_storage": {
        "base": "t_struct(Member)11489_storage",
        "encoding": "dynamic_array",
        "label": "struct DataTypes.Member[]",
        "numberOfBytes": "32"
      },
      "t_bool": {
        "encoding": "inplace",
        "label": "bool",
        "numberOfBytes": "1"
      },
      "t_contract(IBaal)693": {
        "encoding": "inplace",
        "label": "contract IBaal",
        "numberOfBytes": "20"
      },
      "t_contract(IConnext)285": {
        "encoding": "inplace",
        "label": "contract IConnext",
        "numberOfBytes": "20"
      },
      "t_contract(ISplitMain)11399": {
        "encoding": "inplace",
        "label": "contract ISplitMain",
        "numberOfBytes": "20"
      },
      "t_mapping(t_address,t_uint256)": {
        "encoding": "mapping",
        "key": "t_address",
        "label": "mapping(address => uint256)",
        "numberOfBytes": "32",
        "value": "t_uint256"
      },
      "t_mapping(t_uint32,t_struct(Registry)11515_storage)": {
        "encoding": "mapping",
        "key": "t_uint32",
        "label": "mapping(uint32 => struct DataTypes.Registry)",
        "numberOfBytes": "32",
        "value": "t_struct(Registry)11515_storage"
      },
      "t_struct(Member)11489_storage": {
        "encoding": "inplace",
        "label": "struct DataTypes.Member",
        "members": [
          {
            "astId": 11479,
            "contract": "contracts/NetworkRegistryShaman.sol:NetworkRegistryShaman",
            "label": "account",
            "offset": 0,
            "slot": "0",
            "type": "t_address"
          },
          {
            "astId": 11482,
            "contract": "contracts/NetworkRegistryShaman.sol:NetworkRegistryShaman",
            "label": "secondsActive",
            "offset": 20,
            "slot": "0",
            "type": "t_uint32"
          },
          {
            "astId": 11485,
            "contract": "contracts/NetworkRegistryShaman.sol:NetworkRegistryShaman",
            "label": "startDate",
            "offset": 24,
            "slot": "0",
            "type": "t_uint32"
          },
          {
            "astId": 11488,
            "contract": "contracts/NetworkRegistryShaman.sol:NetworkRegistryShaman",
            "label": "activityMultiplier",
            "offset": 28,
            "slot": "0",
            "type": "t_uint32"
          }
        ],
        "numberOfBytes": "32"
      },
      "t_struct(Members)11504_storage": {
        "encoding": "inplace",
        "label": "struct DataTypes.Members",
        "members": [
          {
            "astId": 11495,
            "contract": "contracts/NetworkRegistryShaman.sol:NetworkRegistryShaman",
            "label": "db",
            "offset": 0,
            "slot": "0",
            "type": "t_array(t_struct(Member)11489_storage)dyn_storage"
          },
          {
            "astId": 11498,
            "contract": "contracts/NetworkRegistryShaman.sol:NetworkRegistryShaman",
            "label": "count",
            "offset": 0,
            "slot": "1",
            "type": "t_uint256"
          },
          {
            "astId": 11503,
            "contract": "contracts/NetworkRegistryShaman.sol:NetworkRegistryShaman",
            "label": "index",
            "offset": 0,
            "slot": "2",
            "type": "t_mapping(t_address,t_uint256)"
          }
        ],
        "numberOfBytes": "96"
      },
      "t_struct(Registry)11515_storage": {
        "encoding": "inplace",
        "label": "struct DataTypes.Registry",
        "members": [
          {
            "astId": 11508,
            "contract": "contracts/NetworkRegistryShaman.sol:NetworkRegistryShaman",
            "label": "domainId",
            "offset": 0,
            "slot": "0",
            "type": "t_uint32"
          },
          {
            "astId": 11511,
            "contract": "contracts/NetworkRegistryShaman.sol:NetworkRegistryShaman",
            "label": "registryAddress",
            "offset": 4,
            "slot": "0",
            "type": "t_address"
          },
          {
            "astId": 11514,
            "contract": "contracts/NetworkRegistryShaman.sol:NetworkRegistryShaman",
            "label": "delegate",
            "offset": 0,
            "slot": "1",
            "type": "t_address"
          }
        ],
        "numberOfBytes": "64"
      },
      "t_uint256": {
        "encoding": "inplace",
        "label": "uint256",
        "numberOfBytes": "32"
      },
      "t_uint32": {
        "encoding": "inplace",
        "label": "uint32",
        "numberOfBytes": "4"
      }
    }
  }
}