{
  "address": "0x15c05Ba0be6D1eAF68C185247eb93293B5606042",
  "abi": [
    {
      "inputs": [],
      "stateMutability": "nonpayable",
      "type": "constructor"
    },
    {
      "inputs": [],
      "name": "ALREADY_REGISTERED",
      "type": "error"
    },
    {
      "inputs": [],
      "name": "INVALID_ACTIVITY_MULTIPLIER",
      "type": "error"
    },
    {
      "inputs": [],
      "name": "INVALID_LIST",
      "type": "error"
    },
    {
      "inputs": [],
      "name": "NOT_MEMBER_OR_NOT_SORTED",
      "type": "error"
    },
    {
      "inputs": [],
      "name": "NOT_REGISTERED",
      "type": "error"
    },
    {
      "inputs": [
        {
          "internalType": "UD60x18",
          "name": "x",
          "type": "uint256"
        }
      ],
      "name": "PRBMath_UD60x18_Sqrt_Overflow",
      "type": "error"
    },
    {
      "inputs": [],
      "name": "START_DATE_IN_FUTURE",
      "type": "error"
    },
    {
      "anonymous": false,
      "inputs": [
        {
          "indexed": false,
          "internalType": "uint8",
          "name": "version",
          "type": "uint8"
        }
      ],
      "name": "Initialized",
      "type": "event"
    },
    {
      "anonymous": false,
      "inputs": [
        {
          "indexed": true,
          "internalType": "address",
          "name": "_registryAddress",
          "type": "address"
        },
        {
          "indexed": true,
          "internalType": "uint32",
          "name": "_chainId",
          "type": "uint32"
        },
        {
          "indexed": false,
          "internalType": "uint32",
          "name": "_domainId",
          "type": "uint32"
        },
        {
          "indexed": false,
          "internalType": "address",
          "name": "_delegate",
          "type": "address"
        }
      ],
      "name": "NetworkRegistryUpdated",
      "type": "event"
    },
    {
      "anonymous": false,
      "inputs": [
        {
          "indexed": true,
          "internalType": "address",
          "name": "previousOwner",
          "type": "address"
        },
        {
          "indexed": true,
          "internalType": "address",
          "name": "newOwner",
          "type": "address"
        }
      ],
      "name": "OwnershipTransferred",
      "type": "event"
    },
    {
      "anonymous": false,
      "inputs": [
        {
          "components": [
            {
              "internalType": "address",
              "name": "account",
              "type": "address"
            },
            {
              "internalType": "uint32",
              "name": "secondsActive",
              "type": "uint32"
            },
            {
              "internalType": "uint32",
              "name": "startDate",
              "type": "uint32"
            },
            {
              "internalType": "uint8",
              "name": "activityMultiplier",
              "type": "uint8"
            }
          ],
          "indexed": false,
          "internalType": "struct MemberRegistry.Member",
          "name": "member",
          "type": "tuple"
        },
        {
          "indexed": false,
          "internalType": "uint32",
          "name": "startDate",
          "type": "uint32"
        }
      ],
      "name": "SetMember",
      "type": "event"
    },
    {
      "anonymous": false,
      "inputs": [
        {
          "indexed": false,
          "internalType": "bytes32",
          "name": "_transferId",
          "type": "bytes32"
        },
        {
          "indexed": true,
          "internalType": "bytes4",
          "name": "_action",
          "type": "bytes4"
        },
        {
          "indexed": true,
          "internalType": "bool",
          "name": "_success",
          "type": "bool"
        },
        {
          "indexed": false,
          "internalType": "uint32",
          "name": "_originDomain",
          "type": "uint32"
        },
        {
          "indexed": false,
          "internalType": "address",
          "name": "_originSender",
          "type": "address"
        }
      ],
      "name": "SyncActionPerformed",
      "type": "event"
    },
    {
      "anonymous": false,
      "inputs": [
        {
          "indexed": true,
          "internalType": "bytes4",
          "name": "_action",
          "type": "bytes4"
        },
        {
          "indexed": true,
          "internalType": "uint32",
          "name": "_chainId",
          "type": "uint32"
        },
        {
          "indexed": true,
          "internalType": "bytes32",
          "name": "_transferId",
          "type": "bytes32"
        },
        {
          "indexed": false,
          "internalType": "address",
          "name": "_registryAddress",
          "type": "address"
        }
      ],
      "name": "SyncMessageSubmitted",
      "type": "event"
    },
    {
      "anonymous": false,
      "inputs": [
        {
          "indexed": false,
          "internalType": "uint32",
          "name": "date",
          "type": "uint32"
        }
      ],
      "name": "Update",
      "type": "event"
    },
    {
      "anonymous": false,
      "inputs": [
        {
          "components": [
            {
              "internalType": "address",
              "name": "account",
              "type": "address"
            },
            {
              "internalType": "uint32",
              "name": "secondsActive",
              "type": "uint32"
            },
            {
              "internalType": "uint32",
              "name": "startDate",
              "type": "uint32"
            },
            {
              "internalType": "uint8",
              "name": "activityMultiplier",
              "type": "uint8"
            }
          ],
          "indexed": false,
          "internalType": "struct MemberRegistry.Member",
          "name": "member",
          "type": "tuple"
        }
      ],
      "name": "UpdateMember",
      "type": "event"
    },
    {
      "anonymous": false,
      "inputs": [
        {
          "components": [
            {
              "internalType": "address",
              "name": "account",
              "type": "address"
            },
            {
              "internalType": "uint32",
              "name": "secondsActive",
              "type": "uint32"
            },
            {
              "internalType": "uint32",
              "name": "startDate",
              "type": "uint32"
            },
            {
              "internalType": "uint8",
              "name": "activityMultiplier",
              "type": "uint8"
            }
          ],
          "indexed": false,
          "internalType": "struct MemberRegistry.Member",
          "name": "member",
          "type": "tuple"
        },
        {
          "indexed": false,
          "internalType": "uint32",
          "name": "newSeconds",
          "type": "uint32"
        }
      ],
      "name": "UpdateMemberSeconds",
      "type": "event"
    },
    {
      "inputs": [],
      "name": "PERCENTAGE_SCALE",
      "outputs": [
        {
          "internalType": "uint32",
          "name": "",
          "type": "uint32"
        }
      ],
      "stateMutability": "view",
      "type": "function"
    },
    {
      "inputs": [
        {
          "internalType": "uint32[]",
          "name": "_chainIds",
          "type": "uint32[]"
        },
        {
          "internalType": "uint256[]",
          "name": "_relayerFees",
          "type": "uint256[]"
        }
      ],
      "name": "acceptNetworkSplitControl",
      "outputs": [],
      "stateMutability": "payable",
      "type": "function"
    },
    {
      "inputs": [],
      "name": "acceptSplitControl",
      "outputs": [],
      "stateMutability": "nonpayable",
      "type": "function"
    },
    {
      "inputs": [
        {
          "internalType": "address[]",
          "name": "_members",
          "type": "address[]"
        },
        {
          "internalType": "uint8[]",
          "name": "_activityMultipliers",
          "type": "uint8[]"
        },
        {
          "internalType": "uint32[]",
          "name": "_startDates",
          "type": "uint32[]"
        }
      ],
      "name": "batchNewMember",
      "outputs": [],
      "stateMutability": "nonpayable",
      "type": "function"
    },
    {
      "inputs": [
        {
          "internalType": "address[]",
          "name": "_members",
          "type": "address[]"
        },
        {
          "internalType": "uint8[]",
          "name": "_activityMultipliers",
          "type": "uint8[]"
        }
      ],
      "name": "batchUpdateMember",
      "outputs": [],
      "stateMutability": "nonpayable",
      "type": "function"
    },
    {
      "inputs": [
        {
          "internalType": "address[]",
          "name": "_sortedList",
          "type": "address[]"
        }
      ],
      "name": "calculate",
      "outputs": [
        {
          "internalType": "address[]",
          "name": "_receivers",
          "type": "address[]"
        },
        {
          "internalType": "uint32[]",
          "name": "_percentAllocations",
          "type": "uint32[]"
        }
      ],
      "stateMutability": "view",
      "type": "function"
    },
    {
      "inputs": [
        {
          "internalType": "uint32[]",
          "name": "_chainIds",
          "type": "uint32[]"
        },
        {
          "internalType": "uint256[]",
          "name": "_relayerFees",
          "type": "uint256[]"
        }
      ],
      "name": "cancelNetworkSplitControlTransfer",
      "outputs": [],
      "stateMutability": "payable",
      "type": "function"
    },
    {
      "inputs": [],
      "name": "cancelSplitControlTransfer",
      "outputs": [],
      "stateMutability": "nonpayable",
      "type": "function"
    },
    {
      "inputs": [],
      "name": "connext",
      "outputs": [
        {
          "internalType": "contract IConnext",
          "name": "",
          "type": "address"
        }
      ],
      "stateMutability": "view",
      "type": "function"
    },
    {
      "inputs": [
        {
          "internalType": "address",
          "name": "_member",
          "type": "address"
        }
      ],
      "name": "getMember",
      "outputs": [
        {
          "components": [
            {
              "internalType": "address",
              "name": "account",
              "type": "address"
            },
            {
              "internalType": "uint32",
              "name": "secondsActive",
              "type": "uint32"
            },
            {
              "internalType": "uint32",
              "name": "startDate",
              "type": "uint32"
            },
            {
              "internalType": "uint8",
              "name": "activityMultiplier",
              "type": "uint8"
            }
          ],
          "internalType": "struct MemberRegistry.Member",
          "name": "",
          "type": "tuple"
        }
      ],
      "stateMutability": "view",
      "type": "function"
    },
    {
      "inputs": [],
      "name": "getMembers",
      "outputs": [
        {
          "components": [
            {
              "internalType": "address",
              "name": "account",
              "type": "address"
            },
            {
              "internalType": "uint32",
              "name": "secondsActive",
              "type": "uint32"
            },
            {
              "internalType": "uint32",
              "name": "startDate",
              "type": "uint32"
            },
            {
              "internalType": "uint8",
              "name": "activityMultiplier",
              "type": "uint8"
            }
          ],
          "internalType": "struct MemberRegistry.Member[]",
          "name": "",
          "type": "tuple[]"
        }
      ],
      "stateMutability": "view",
      "type": "function"
    },
    {
      "inputs": [
        {
          "internalType": "bytes",
          "name": "_initializationParams",
          "type": "bytes"
        }
      ],
      "name": "initialize",
      "outputs": [],
      "stateMutability": "nonpayable",
      "type": "function"
    },
    {
      "inputs": [],
      "name": "isMainRegistry",
      "outputs": [
        {
          "internalType": "bool",
          "name": "",
          "type": "bool"
        }
      ],
      "stateMutability": "view",
      "type": "function"
    },
    {
      "inputs": [],
      "name": "lastUpdate",
      "outputs": [
        {
          "internalType": "uint32",
          "name": "",
          "type": "uint32"
        }
      ],
      "stateMutability": "view",
      "type": "function"
    },
    {
      "inputs": [
        {
          "internalType": "address",
          "name": "",
          "type": "address"
        }
      ],
      "name": "memberIdxs",
      "outputs": [
        {
          "internalType": "uint256",
          "name": "",
          "type": "uint256"
        }
      ],
      "stateMutability": "view",
      "type": "function"
    },
    {
      "inputs": [
        {
          "internalType": "uint256",
          "name": "",
          "type": "uint256"
        }
      ],
      "name": "members",
      "outputs": [
        {
          "internalType": "address",
          "name": "account",
          "type": "address"
        },
        {
          "internalType": "uint32",
          "name": "secondsActive",
          "type": "uint32"
        },
        {
          "internalType": "uint32",
          "name": "startDate",
          "type": "uint32"
        },
        {
          "internalType": "uint8",
          "name": "activityMultiplier",
          "type": "uint8"
        }
      ],
      "stateMutability": "view",
      "type": "function"
    },
    {
      "inputs": [
        {
          "internalType": "uint32",
          "name": "",
          "type": "uint32"
        }
      ],
      "name": "networkRegistry",
      "outputs": [
        {
          "internalType": "uint32",
          "name": "domainId",
          "type": "uint32"
        },
        {
          "internalType": "address",
          "name": "registryAddress",
          "type": "address"
        },
        {
          "internalType": "address",
          "name": "delegate",
          "type": "address"
        }
      ],
      "stateMutability": "view",
      "type": "function"
    },
    {
      "inputs": [],
      "name": "owner",
      "outputs": [
        {
          "internalType": "address",
          "name": "",
          "type": "address"
        }
      ],
      "stateMutability": "view",
      "type": "function"
    },
    {
      "inputs": [],
      "name": "renounceOwnership",
      "outputs": [],
      "stateMutability": "nonpayable",
      "type": "function"
    },
    {
      "inputs": [
        {
          "internalType": "address",
          "name": "_member",
          "type": "address"
        },
        {
          "internalType": "uint8",
          "name": "_activityMultiplier",
          "type": "uint8"
        },
        {
          "internalType": "uint32",
          "name": "_startDate",
          "type": "uint32"
        }
      ],
      "name": "setNewMember",
      "outputs": [],
      "stateMutability": "nonpayable",
      "type": "function"
    },
    {
      "inputs": [
        {
          "internalType": "address",
          "name": "_split",
          "type": "address"
        },
        {
          "internalType": "uint32",
          "name": "_splitDistributorFee",
          "type": "uint32"
        }
      ],
      "name": "setSplit",
      "outputs": [],
      "stateMutability": "nonpayable",
      "type": "function"
    },
    {
      "inputs": [
        {
          "internalType": "address",
          "name": "_splitMain",
          "type": "address"
        }
      ],
      "name": "setSplitMain",
      "outputs": [],
      "stateMutability": "nonpayable",
      "type": "function"
    },
    {
      "inputs": [
        {
          "internalType": "uint32",
          "name": "_updaterDomain",
          "type": "uint32"
        },
        {
          "internalType": "address",
          "name": "_updater",
          "type": "address"
        }
      ],
      "name": "setUpdater",
      "outputs": [],
      "stateMutability": "nonpayable",
      "type": "function"
    },
    {
      "inputs": [],
      "name": "split",
      "outputs": [
        {
          "internalType": "address",
          "name": "",
          "type": "address"
        }
      ],
      "stateMutability": "view",
      "type": "function"
    },
    {
      "inputs": [],
      "name": "splitDistributorFee",
      "outputs": [
        {
          "internalType": "uint32",
          "name": "",
          "type": "uint32"
        }
      ],
      "stateMutability": "view",
      "type": "function"
    },
    {
      "inputs": [],
      "name": "splitMain",
      "outputs": [
        {
          "internalType": "contract ISplitMain",
          "name": "",
          "type": "address"
        }
      ],
      "stateMutability": "view",
      "type": "function"
    },
    {
      "inputs": [
        {
          "internalType": "address[]",
          "name": "_members",
          "type": "address[]"
        },
        {
          "internalType": "uint8[]",
          "name": "_activityMultipliers",
          "type": "uint8[]"
        },
        {
          "internalType": "uint32[]",
          "name": "_startDates",
          "type": "uint32[]"
        },
        {
          "internalType": "uint32[]",
          "name": "_chainIds",
          "type": "uint32[]"
        },
        {
          "internalType": "uint256[]",
          "name": "_relayerFees",
          "type": "uint256[]"
        }
      ],
      "name": "syncBatchNewMember",
      "outputs": [],
      "stateMutability": "payable",
      "type": "function"
    },
    {
      "inputs": [
        {
          "internalType": "address[]",
          "name": "_members",
          "type": "address[]"
        },
        {
          "internalType": "uint8[]",
          "name": "_activityMultipliers",
          "type": "uint8[]"
        },
        {
          "internalType": "uint32[]",
          "name": "_chainIds",
          "type": "uint32[]"
        },
        {
          "internalType": "uint256[]",
          "name": "_relayerFees",
          "type": "uint256[]"
        }
      ],
      "name": "syncBatchUpdateMember",
      "outputs": [],
      "stateMutability": "payable",
      "type": "function"
    },
    {
      "inputs": [
        {
          "internalType": "uint32[]",
          "name": "_chainIds",
          "type": "uint32[]"
        },
        {
          "internalType": "uint256[]",
          "name": "_relayerFees",
          "type": "uint256[]"
        }
      ],
      "name": "syncNetworkMemberRegistry",
      "outputs": [],
      "stateMutability": "payable",
      "type": "function"
    },
    {
      "inputs": [
        {
          "internalType": "address",
          "name": "_member",
          "type": "address"
        },
        {
          "internalType": "uint8",
          "name": "_activityMultiplier",
          "type": "uint8"
        },
        {
          "internalType": "uint32",
          "name": "_startDate",
          "type": "uint32"
        },
        {
          "internalType": "uint32[]",
          "name": "_chainIds",
          "type": "uint32[]"
        },
        {
          "internalType": "uint256[]",
          "name": "_relayerFees",
          "type": "uint256[]"
        }
      ],
      "name": "syncSetNewMember",
      "outputs": [],
      "stateMutability": "payable",
      "type": "function"
    },
    {
      "inputs": [
        {
          "internalType": "address[]",
          "name": "_sortedList",
          "type": "address[]"
        },
        {
          "internalType": "uint32[]",
          "name": "_chainIds",
          "type": "uint32[]"
        },
        {
          "internalType": "uint256[]",
          "name": "_relayerFees",
          "type": "uint256[]"
        }
      ],
      "name": "syncUpdateAll",
      "outputs": [],
      "stateMutability": "payable",
      "type": "function"
    },
    {
      "inputs": [
        {
          "internalType": "address",
          "name": "_member",
          "type": "address"
        },
        {
          "internalType": "uint8",
          "name": "_activityMultiplier",
          "type": "uint8"
        },
        {
          "internalType": "uint32[]",
          "name": "_chainIds",
          "type": "uint32[]"
        },
        {
          "internalType": "uint256[]",
          "name": "_relayerFees",
          "type": "uint256[]"
        }
      ],
      "name": "syncUpdateMember",
      "outputs": [],
      "stateMutability": "payable",
      "type": "function"
    },
    {
      "inputs": [
        {
          "internalType": "uint32[]",
          "name": "_chainIds",
          "type": "uint32[]"
        },
        {
          "internalType": "uint256[]",
          "name": "_relayerFees",
          "type": "uint256[]"
        }
      ],
      "name": "syncUpdateSecondsActive",
      "outputs": [],
      "stateMutability": "payable",
      "type": "function"
    },
    {
      "inputs": [
        {
          "internalType": "address[]",
          "name": "_sortedList",
          "type": "address[]"
        },
        {
          "internalType": "uint32[]",
          "name": "_chainIds",
          "type": "uint32[]"
        },
        {
          "internalType": "uint256[]",
          "name": "_relayerFees",
          "type": "uint256[]"
        }
      ],
      "name": "syncUpdateSplits",
      "outputs": [],
      "stateMutability": "payable",
      "type": "function"
    },
    {
      "inputs": [],
      "name": "totalMembers",
      "outputs": [
        {
          "internalType": "uint256",
          "name": "",
          "type": "uint256"
        }
      ],
      "stateMutability": "view",
      "type": "function"
    },
    {
      "inputs": [
        {
          "internalType": "uint32[]",
          "name": "_chainIds",
          "type": "uint32[]"
        },
        {
          "internalType": "address[]",
          "name": "_newControllers",
          "type": "address[]"
        },
        {
          "internalType": "uint256[]",
          "name": "_relayerFees",
          "type": "uint256[]"
        }
      ],
      "name": "transferNetworkSplitControl",
      "outputs": [],
      "stateMutability": "payable",
      "type": "function"
    },
    {
      "inputs": [
        {
          "internalType": "address",
          "name": "newOwner",
          "type": "address"
        }
      ],
      "name": "transferOwnership",
      "outputs": [],
      "stateMutability": "nonpayable",
      "type": "function"
    },
    {
      "inputs": [
        {
          "internalType": "address",
          "name": "_newController",
          "type": "address"
        }
      ],
      "name": "transferSplitControl",
      "outputs": [],
      "stateMutability": "nonpayable",
      "type": "function"
    },
    {
      "inputs": [
        {
          "internalType": "address[]",
          "name": "_sortedList",
          "type": "address[]"
        }
      ],
      "name": "updateAll",
      "outputs": [
        {
          "internalType": "address[]",
          "name": "_receivers",
          "type": "address[]"
        },
        {
          "internalType": "uint32[]",
          "name": "_percentAllocations",
          "type": "uint32[]"
        }
      ],
      "stateMutability": "nonpayable",
      "type": "function"
    },
    {
      "inputs": [
        {
          "internalType": "address[]",
          "name": "_sortedList",
          "type": "address[]"
        },
        {
          "internalType": "contract IERC20",
          "name": "_token",
          "type": "address"
        },
        {
          "internalType": "address",
          "name": "_distributorAddress",
          "type": "address"
        }
      ],
      "name": "updateAllAndDistributeERC20",
      "outputs": [],
      "stateMutability": "nonpayable",
      "type": "function"
    },
    {
      "inputs": [
        {
          "internalType": "address[]",
          "name": "_sortedList",
          "type": "address[]"
        },
        {
          "internalType": "address",
          "name": "_distributorAddress",
          "type": "address"
        }
      ],
      "name": "updateAllAndDistributeETH",
      "outputs": [],
      "stateMutability": "nonpayable",
      "type": "function"
    },
    {
      "inputs": [
        {
          "internalType": "address",
          "name": "_member",
          "type": "address"
        },
        {
          "internalType": "uint8",
          "name": "_activityMultiplier",
          "type": "uint8"
        }
      ],
      "name": "updateMember",
      "outputs": [],
      "stateMutability": "nonpayable",
      "type": "function"
    },
    {
      "inputs": [
        {
          "internalType": "uint32",
          "name": "_chainId",
          "type": "uint32"
        },
        {
          "components": [
            {
              "internalType": "uint32",
              "name": "domainId",
              "type": "uint32"
            },
            {
              "internalType": "address",
              "name": "registryAddress",
              "type": "address"
            },
            {
              "internalType": "address",
              "name": "delegate",
              "type": "address"
            }
          ],
          "internalType": "struct INetworkMemberRegistry.NetworkRegistry",
          "name": "_registry",
          "type": "tuple"
        }
      ],
      "name": "updateNetworkRegistry",
      "outputs": [],
      "stateMutability": "nonpayable",
      "type": "function"
    },
    {
      "inputs": [
        {
          "internalType": "uint32[]",
          "name": "_chainIds",
          "type": "uint32[]"
        },
        {
          "internalType": "address[]",
          "name": "_splits",
          "type": "address[]"
        },
        {
          "internalType": "uint32[]",
          "name": "_splitDistributorFees",
          "type": "uint32[]"
        },
        {
          "internalType": "uint256[]",
          "name": "_relayerFees",
          "type": "uint256[]"
        }
      ],
      "name": "updateNetworkSplit",
      "outputs": [],
      "stateMutability": "payable",
      "type": "function"
    },
    {
      "inputs": [
        {
          "internalType": "uint32[]",
          "name": "_chainIds",
          "type": "uint32[]"
        },
        {
          "internalType": "address[]",
          "name": "_splitsMain",
          "type": "address[]"
        },
        {
          "internalType": "uint256[]",
          "name": "_relayerFees",
          "type": "uint256[]"
        }
      ],
      "name": "updateNetworkSplitMain",
      "outputs": [],
      "stateMutability": "payable",
      "type": "function"
    },
    {
      "inputs": [],
      "name": "updateSecondsActive",
      "outputs": [],
      "stateMutability": "nonpayable",
      "type": "function"
    },
    {
      "inputs": [
        {
          "internalType": "address[]",
          "name": "_sortedList",
          "type": "address[]"
        }
      ],
      "name": "updateSplits",
      "outputs": [
        {
          "internalType": "address[]",
          "name": "_receivers",
          "type": "address[]"
        },
        {
          "internalType": "uint32[]",
          "name": "_percentAllocations",
          "type": "uint32[]"
        }
      ],
      "stateMutability": "nonpayable",
      "type": "function"
    },
    {
      "inputs": [],
      "name": "updater",
      "outputs": [
        {
          "internalType": "address",
          "name": "",
          "type": "address"
        }
      ],
      "stateMutability": "view",
      "type": "function"
    },
    {
      "inputs": [],
      "name": "updaterDomain",
      "outputs": [
        {
          "internalType": "uint32",
          "name": "",
          "type": "uint32"
        }
      ],
      "stateMutability": "view",
      "type": "function"
    },
    {
      "inputs": [
        {
          "internalType": "bytes32",
          "name": "_transferId",
          "type": "bytes32"
        },
        {
          "internalType": "uint256",
          "name": "",
          "type": "uint256"
        },
        {
          "internalType": "address",
          "name": "",
          "type": "address"
        },
        {
          "internalType": "address",
          "name": "_originSender",
          "type": "address"
        },
        {
          "internalType": "uint32",
          "name": "_origin",
          "type": "uint32"
        },
        {
          "internalType": "bytes",
          "name": "_incomingCalldata",
          "type": "bytes"
        }
      ],
      "name": "xReceive",
      "outputs": [
        {
          "internalType": "bytes",
          "name": "",
          "type": "bytes"
        }
      ],
      "stateMutability": "nonpayable",
      "type": "function"
    }
  ],
  "transactionHash": "0xecf09579d00dbd44c43c30898880b89f36f04368bc4086621757350097c16f16",
  "args": [],
  "numDeployments": 1,
  "solcInputHash": "5224c5ec25dd58319938cd3b304b0404",
  "bytecode": "0x608060405260006067553480156200001657600080fd5b506200002162000027565b620000e9565b600054610100900460ff1615620000945760405162461bcd60e51b815260206004820152602760248201527f496e697469616c697a61626c653a20636f6e747261637420697320696e697469604482015266616c697a696e6760c81b606482015260840160405180910390fd5b60005460ff9081161015620000e7576000805460ff191660ff9081179091556040519081527f7f26b83ff96e1f2b6a682f133852f6798a09c465da95921460cefb38474024989060200160405180910390a15b565b614fa380620000f96000396000f3fe6080604052600436106102c95760003560e01c80638da5cb5b11610175578063cb30af6e116100dc578063f2fde38b11610095578063fa6062e01161006f578063fa6062e0146108c7578063fc1468dc146108da578063fd614f41146108fa578063fdf4bd291461092757600080fd5b8063f2fde38b14610863578063f765417614610883578063f98cc7c9146108a357600080fd5b8063cb30af6e146107ae578063d173ba06146107ce578063d863d18d146107ee578063de4b05481461080e578063df034cd01461082e578063e4a7c6031461084e57600080fd5b8063a084b6c01161012e578063a084b6c0146106f5578063b044631c1461071a578063b0affdf71461072d578063bf59b4881461074d578063c046371114610771578063c57576c41461078e57600080fd5b80638da5cb5b146105e55780638ddc5f3514610603578063979bc155146106805780639cc96363146106a05780639d7b8545146106b35780639eab5253146106d357600080fd5b8063479d0a0d1161023457806364c6d00a116101ed5780637698a833116101c75780637698a8331461058857806376e92559146105a857806380e038bc146105bd578063831d74ef146105d257600080fd5b806364c6d00a1461054d5780636bda59da14610560578063715018a61461057357600080fd5b8063479d0a0d1461046f57806349be1b921461049d57806356c0e992146104b05780635daf08ca146104c3578063610498d91461051a57806361bc31111461052d57600080fd5b80632ada2596116102865780632ada259614610386578063339c34f7146103b357806334e2fc65146103d3578063371b52e31461040e5780633f26479e14610423578063439fab911461044f57600080fd5b806301dabadc146102ce57806306a53350146102f05780630971ee81146103105780630e769b2b146103235780631049d736146103605780631eee592e14610373575b600080fd5b3480156102da57600080fd5b506102ee6102e9366004613a81565b61093a565b005b3480156102fc57600080fd5b506102ee61030b366004613b08565b610a06565b6102ee61031e366004613bc6565b610a9b565b34801561032f57600080fd5b50606c54610343906001600160a01b031681565b6040516001600160a01b0390911681526020015b60405180910390f35b6102ee61036e366004613c97565b610b88565b6102ee610381366004613cfa565b610e66565b34801561039257600080fd5b506103a66103a1366004613d59565b610f4c565b6040516103579190613db3565b3480156103bf57600080fd5b506102ee6103ce366004613dc7565b61103c565b3480156103df57600080fd5b506104006103ee366004613d59565b60686020526000908152604090205481565b604051908152602001610357565b34801561041a57600080fd5b506102ee6110cf565b34801561042f57600080fd5b5061043a620f424081565b60405163ffffffff9091168152602001610357565b34801561045b57600080fd5b506102ee61046a366004613e87565b611176565b34801561047b57600080fd5b5061048f61048a366004613ec3565b6112c4565b604051610357929190613f71565b6102ee6104ab366004613f96565b611354565b6102ee6104be366004613c97565b611513565b3480156104cf57600080fd5b506104e36104de366004614042565b6115e9565b604080516001600160a01b0395909516855263ffffffff9384166020860152919092169083015260ff166060820152608001610357565b6102ee61052836600461405b565b611639565b34801561053957600080fd5b506102ee6105483660046140d8565b61170f565b6102ee61055b366004613c97565b61175f565b6102ee61056e366004614106565b611813565b34801561057f57600080fd5b506102ee611951565b34801561059457600080fd5b506102ee6105a3366004614160565b611965565b3480156105b457600080fd5b50606654610400565b3480156105c957600080fd5b506102ee611a6e565b6102ee6105e0366004614106565b611aeb565b3480156105f157600080fd5b506033546001600160a01b0316610343565b34801561060f57600080fd5b5061065461061e3660046141fa565b606b602052600090815260409020805460019091015463ffffffff8216916001600160a01b036401000000009091048116911683565b6040805163ffffffff90941684526001600160a01b039283166020850152911690820152606001610357565b34801561068c57600080fd5b506102ee61069b366004614217565b611c29565b6102ee6106ae366004614257565b611c82565b3480156106bf57600080fd5b506102ee6106ce366004613d59565b611d61565b3480156106df57600080fd5b506106e8611e16565b60405161035791906142b2565b34801561070157600080fd5b5061070a611eaf565b6040519015158152602001610357565b6102ee610728366004613c97565b611edd565b34801561073957600080fd5b5061048f610748366004613ec3565b611f91565b34801561075957600080fd5b5060695461043a90600160a01b900463ffffffff1681565b34801561077d57600080fd5b5060655461043a9063ffffffff1681565b34801561079a57600080fd5b506102ee6107a9366004614300565b61237d565b3480156107ba57600080fd5b506102ee6107c9366004613d59565b6123d0565b3480156107da57600080fd5b506102ee6107e936600461432e565b61243b565b3480156107fa57600080fd5b5061048f610809366004613ec3565b6124b6565b34801561081a57600080fd5b50606954610343906001600160a01b031681565b34801561083a57600080fd5b50606a54610343906001600160a01b031681565b34801561085a57600080fd5b506102ee6124d4565b34801561086f57600080fd5b506102ee61087e366004613d59565b6124dc565b34801561088f57600080fd5b50606d54610343906001600160a01b031681565b3480156108af57600080fd5b50606d5461043a90600160a01b900463ffffffff1681565b6102ee6108d536600461435c565b612555565b3480156108e657600080fd5b506102ee6108f53660046143a9565b61262e565b34801561090657600080fd5b5061091a610915366004614402565b6126d1565b60405161035791906144d8565b6102ee61093536600461405b565b612cfd565b6033546001600160a01b03163314806109675750606a546001600160a01b03161580159061096757503330145b61098c5760405162461bcd60e51b8152600401610983906144eb565b60405180910390fd5b60005b8351811015610a00576109ee8482815181106109ad576109ad614548565b60200260200101518483815181106109c7576109c7614548565b60200260200101518484815181106109e1576109e1614548565b6020026020010151611c29565b806109f881614574565b91505061098f565b50505050565b600080610a12856124b6565b606c54606d54604051630ac0898160e11b81529395509193506001600160a01b0390811692631581130292610a6292811691899188918891600160a01b900463ffffffff16908b9060040161458d565b600060405180830381600087803b158015610a7c57600080fd5b505af1158015610a90573d6000803e3d6000fd5b505050505050505050565b610aa3612db6565b81818051825114610ac65760405162461bcd60e51b8152600401610983906145eb565b6000805b82518160ff161015610b1257828160ff1681518110610aeb57610aeb614548565b602002602001015182610afe9190614630565b915080610b0a81614643565b915050610aca565b50803414610b325760405162461bcd60e51b815260040161098390614662565b610b3d88888861093a565b6040516276aeb760e21b90600090610b5f9083908c908c908c906020016146f2565b6040516020818303038152906040529050610b7c82828989612e10565b50505050505050505050565b610b90612db6565b81818051825114610bb35760405162461bcd60e51b8152600401610983906145eb565b6000805b82518160ff161015610bff57828160ff1681518110610bd857610bd8614548565b602002602001015182610beb9190614630565b915080610bf781614643565b915050610bb7565b50803414610c1f5760405162461bcd60e51b815260040161098390614662565b6066546000906001600160401b03811115610c3c57610c3c6138a6565b604051908082528060200260200182016040528015610c65578160200160208202803683370190505b506066549091506000906001600160401b03811115610c8657610c866138a6565b604051908082528060200260200182016040528015610caf578160200160208202803683370190505b506066549091506000906001600160401b03811115610cd057610cd06138a6565b604051908082528060200260200182016040528015610cf9578160200160208202803683370190505b50905060005b606654811015610e265760668181548110610d1c57610d1c614548565b60009182526020909120015484516001600160a01b0390911690859083908110610d4857610d48614548565b60200260200101906001600160a01b031690816001600160a01b03168152505060668181548110610d7b57610d7b614548565b90600052602060002001600001601c9054906101000a900460ff16838281518110610da857610da8614548565b602002602001019060ff16908160ff168152505060668181548110610dcf57610dcf614548565b9060005260206000200160000160189054906101000a900463ffffffff16828281518110610dff57610dff614548565b63ffffffff9092166020928302919091019091015280610e1e81614574565b915050610cff565b506040516276aeb760e21b90600090610e499083908790879087906020016146f2565b6040516020818303038152906040529050610b7c82828c8c612e10565b610e6e612db6565b81818051825114610e915760405162461bcd60e51b8152600401610983906145eb565b6000805b82518160ff161015610edd57828160ff1681518110610eb657610eb6614548565b602002602001015182610ec99190614630565b915080610ed581614643565b915050610e95565b50803414610efd5760405162461bcd60e51b815260040161098390614662565b610f08888888611c29565b6040805163979bc15560e01b602082018190526001600160a01b038b169282019290925260ff8916606082015263ffffffff8816608082015260009060a001610b5f565b6040805160808101825260008082526020808301829052828401829052606083018290526001600160a01b03851682526068905291822054909103610fa4576040516360f4985360e01b815260040160405180910390fd5b6001600160a01b038216600090815260686020526040902054606690610fcc90600190614745565b81548110610fdc57610fdc614548565b60009182526020918290206040805160808101825292909101546001600160a01b0381168352600160a01b810463ffffffff90811694840194909452600160c01b810490931690820152600160e01b90910460ff16606082015292915050565b600080611048846124b6565b606c54606d5460405163730e582f60e11b81529395509193506001600160a01b039081169263e61cb05e926110979281169187918791600160a01b90910463ffffffff16908a90600401614758565b600060405180830381600087803b1580156110b157600080fd5b505af11580156110c5573d6000803e3d6000fd5b5050505050505050565b6033546001600160a01b03163314806110fc5750606a546001600160a01b0316158015906110fc57503330145b6111185760405162461bcd60e51b8152600401610983906144eb565b606c54606d54604051630933e36d60e11b81526001600160a01b039182166004820152911690631267c6da906024015b600060405180830381600087803b15801561116257600080fd5b505af1158015610a00573d6000803e3d6000fd5b600054610100900460ff16158080156111965750600054600160ff909116105b806111b05750303b1580156111b0575060005460ff166001145b6112135760405162461bcd60e51b815260206004820152602e60248201527f496e697469616c697a61626c653a20636f6e747261637420697320616c72656160448201526d191e481a5b9a5d1a585b1a5e995960921b6064820152608401610983565b6000805460ff191660011790558015611236576000805461ff0019166101001790555b60008060008060008060008880602001905181019061125591906147ad565b965096509650965096509650965061127287878787878787612e68565b5050505050505080156112c0576000805461ff0019169055604051600181527f7f26b83ff96e1f2b6a682f133852f6798a09c465da95921460cefb3847402498906020015b60405180910390a15b5050565b6060806112d083611f91565b606c54606d54604051637677856760e11b81529395509193506001600160a01b039081169263ecef0ace9261131d9281169187918791600160a01b90910463ffffffff1690600401614849565b600060405180830381600087803b15801561133757600080fd5b505af115801561134b573d6000803e3d6000fd5b50505050915091565b61135c612db6565b8381805182511461137f5760405162461bcd60e51b8152600401610983906145eb565b6000805b82518160ff1610156113cb57828160ff16815181106113a4576113a4614548565b6020026020010151826113b79190614630565b9150806113c381614643565b915050611383565b508034146113eb5760405162461bcd60e51b815260040161098390614662565b865186511480156113fd575086518551145b6114195760405162461bcd60e51b815260040161098390614897565b6368b9dd0360e11b60005b88518160ff161015610a9057600082898360ff168151811061144857611448614548565b6020026020010151898460ff168151811061146557611465614548565b60200260200101516040516020016114ab939291906001600160e01b03199390931683526001600160a01b0391909116602083015263ffffffff16604082015260600190565b604051602081830303815290604052905061150083828c8560ff16815181106114d6576114d6614548565b60200260200101518a8660ff16815181106114f3576114f3614548565b6020026020010151612ec9565b508061150b81614643565b915050611424565b61151b612db6565b8181805182511461153e5760405162461bcd60e51b8152600401610983906145eb565b6000805b82518160ff16101561158a57828160ff168151811061156357611563614548565b6020026020010151826115769190614630565b91508061158281614643565b915050611542565b508034146115aa5760405162461bcd60e51b815260040161098390614662565b604080516320380e2f60e21b6020820181905291600091015b60405160208183030381529060405290506115e082828989612e10565b50505050505050565b606681815481106115f957600080fd5b6000918252602090912001546001600160a01b038116915063ffffffff600160a01b8204811691600160c01b81049091169060ff600160e01b9091041684565b8181805182511461165c5760405162461bcd60e51b8152600401610983906145eb565b6000805b82518160ff1610156116a857828160ff168151811061168157611681614548565b6020026020010151826116949190614630565b9150806116a081614643565b915050611660565b508034146116c85760405162461bcd60e51b815260040161098390614662565b6116d1866124b6565b505060405163d863d18d60e01b906000906116f29083908a906020016148ec565b60405160208183030381529060405290506110c582828989612e10565b611717612db6565b6069805463ffffffff909316600160a01b0263ffffffff60a01b1990931692909217909155606a80546001600160a01b039092166001600160a01b0319909216919091179055565b611767612db6565b8181805182511461178a5760405162461bcd60e51b8152600401610983906145eb565b6000805b82518160ff1610156117d657828160ff16815181106117af576117af614548565b6020026020010151826117c29190614630565b9150806117ce81614643565b91505061178e565b508034146117f65760405162461bcd60e51b815260040161098390614662565b6040805163371b52e360e01b6020820181905291600091016115c3565b61181b612db6565b8281805182511461183e5760405162461bcd60e51b8152600401610983906145eb565b6000805b82518160ff16101561188a57828160ff168151811061186357611863614548565b6020026020010151826118769190614630565b91508061188281614643565b915050611842565b508034146118aa5760405162461bcd60e51b815260040161098390614662565b85518551146118cb5760405162461bcd60e51b815260040161098390614897565b639d7b854560e01b60005b87518160ff1610156110c557600082888360ff16815181106118fa576118fa614548565b602002602001015160405160200161191392919061490e565b604051602081830303815290604052905061193e83828b8560ff16815181106114d6576114d6614548565b508061194981614643565b9150506118d6565b611959612db6565b6119636000612f49565b565b61196d612db6565b60208101516001600160a01b03166119c75760405162461bcd60e51b815260206004820152601860248201527f496e76616c6964207265676973747279206164647265737300000000000000006044820152606401610983565b63ffffffff8281166000818152606b60209081526040918290208551815487840151919096166001600160c01b031990961686176401000000006001600160a01b0392831690810291909117835587850151600190930180546001600160a01b0319169390921692831790915583519586529185015291927f1352db1150d62c03f88cdd76a3690564b2ee64659da5f7b7fa0750188cf95aa3910160405180910390a35050565b6033546001600160a01b0316331480611a9b5750606a546001600160a01b031615801590611a9b57503330145b611ab75760405162461bcd60e51b8152600401610983906144eb565b606c54606d5460405163031f799160e61b81526001600160a01b03918216600482015291169063c7de644090602401611148565b611af3612db6565b82818051825114611b165760405162461bcd60e51b8152600401610983906145eb565b6000805b82518160ff161015611b6257828160ff1681518110611b3b57611b3b614548565b602002602001015182611b4e9190614630565b915080611b5a81614643565b915050611b1a565b50803414611b825760405162461bcd60e51b815260040161098390614662565b8551855114611ba35760405162461bcd60e51b815260040161098390614897565b63659857b760e11b60005b87518160ff1610156110c557600082888360ff1681518110611bd257611bd2614548565b6020026020010151604051602001611beb92919061490e565b6040516020818303038152906040529050611c1683828b8560ff16815181106114d6576114d6614548565b5080611c2181614643565b915050611bae565b6033546001600160a01b0316331480611c565750606a546001600160a01b031615801590611c5657503330145b611c725760405162461bcd60e51b8152600401610983906144eb565b611c7d838383612f9b565b505050565b611c8a612db6565b81818051825114611cad5760405162461bcd60e51b8152600401610983906145eb565b6000805b82518160ff161015611cf957828160ff1681518110611cd257611cd2614548565b602002602001015182611ce59190614630565b915080611cf181614643565b915050611cb1565b50803414611d195760405162461bcd60e51b815260040161098390614662565b611d23878761262e565b604051633f051a3760e21b90600090611d449083908b908b90602001614931565b6040516020818303038152906040529050610a9082828989612e10565b6033546001600160a01b0316331480611d8e5750606a546001600160a01b031615801590611d8e57503330145b611daa5760405162461bcd60e51b8152600401610983906144eb565b606c54606d546040516334392cbd60e21b81526001600160a01b039182166004820152838216602482015291169063d0e4b2f490604401600060405180830381600087803b158015611dfb57600080fd5b505af1158015611e0f573d6000803e3d6000fd5b5050505050565b60606066805480602002602001604051908101604052809291908181526020016000905b82821015611ea657600084815260209081902060408051608081018252918501546001600160a01b038116835263ffffffff600160a01b8204811684860152600160c01b8204169183019190915260ff600160e01b909104166060820152825260019092019101611e3a565b50505050905090565b606954600090600160a01b900463ffffffff16158015611ed85750606a546001600160a01b0316155b905090565b81818051825114611f005760405162461bcd60e51b8152600401610983906145eb565b6000805b82518160ff161015611f4c57828160ff1681518110611f2557611f25614548565b602002602001015182611f389190614630565b915080611f4481614643565b915050611f04565b50803414611f6c5760405162461bcd60e51b815260040161098390614662565b611f746124d4565b6040805163e4a7c60360e01b6020820181905291600091016115c3565b6060806000806000606680549050865114611fbf576040516307c7182360e11b815260040160405180910390fd5b60005b86518110156120ef576000878281518110611fdf57611fdf614548565b6020026020010151905060686000826001600160a01b03166001600160a01b031681526020019081526020016000205460001480156120305750826001600160a01b0316816001600160a01b031610155b1561204e57604051632056648360e01b815260040160405180910390fd5b80925060006066838154811061206657612066614548565b600091825260209091200154600160e01b900460ff1611156120dc576120c26120bf6120ba6066858154811061209e5761209e614548565b600091825260209091200154600160a01b900463ffffffff1690565b61318d565b90565b6120cc9085614630565b9350846120d881614574565b9550505b50806120e781614574565b915050611fc2565b50826001600160401b03811115612108576121086138a6565b604051908082528060200260200182016040528015612131578160200160208202803683370190505b509450826001600160401b0381111561214c5761214c6138a6565b604051908082528060200260200182016040528015612175578160200160208202803683370190505b50935060008060005b8851811015612324576000606860008b848151811061219f5761219f614548565b60200260200101516001600160a01b03166001600160a01b03168152602001908152602001600020549050600060666001836121db9190614745565b815481106121eb576121eb614548565b60009182526020918290206040805160808101825292909101546001600160a01b0381168352600160a01b810463ffffffff90811694840194909452600160c01b810490931690820152600160e01b90910460ff16606082018190529091501561230f5780600001518a858151811061226657612266614548565b6001600160a01b039092166020928302919091018201528101518790620f42409061229a906120bf9063ffffffff1661318d565b6122a4919061496f565b6122ae919061499c565b8985815181106122c0576122c0614548565b602002602001019063ffffffff16908163ffffffff16815250508884815181106122ec576122ec614548565b6020026020010151856122ff91906149b0565b94508361230b81614574565b9450505b5050808061231c90614574565b91505061217e565b5063ffffffff8216620f4240146123735761234282620f42406149d4565b8660008151811061235557612355614548565b6020026020010181815161236991906149b0565b63ffffffff169052505b5050505050915091565b6033546001600160a01b03163314806123aa5750606a546001600160a01b0316158015906123aa57503330145b6123c65760405162461bcd60e51b8152600401610983906144eb565b6112c082826131ea565b6033546001600160a01b03163314806123fd5750606a546001600160a01b0316158015906123fd57503330145b6124195760405162461bcd60e51b8152600401610983906144eb565b606c80546001600160a01b0319166001600160a01b0392909216919091179055565b6033546001600160a01b03163314806124685750606a546001600160a01b03161580159061246857503330145b6124845760405162461bcd60e51b8152600401610983906144eb565b606d805463ffffffff909216600160a01b026001600160c01b03199092166001600160a01b0390931692909217179055565b6060806124c16124d4565b6124ca836112c4565b9094909350915050565b61196361331a565b6124e4612db6565b6001600160a01b0381166125495760405162461bcd60e51b815260206004820152602660248201527f4f776e61626c653a206e6577206f776e657220697320746865207a65726f206160448201526564647265737360d01b6064820152608401610983565b61255281612f49565b50565b61255d612db6565b818180518251146125805760405162461bcd60e51b8152600401610983906145eb565b6000805b82518160ff1610156125cc57828160ff16815181106125a5576125a5614548565b6020026020010151826125b89190614630565b9150806125c481614643565b915050612584565b508034146125ec5760405162461bcd60e51b815260040161098390614662565b6125f6878761237d565b6040805163315d5db160e21b602082018190526001600160a01b038a169282019290925260ff88166060820152600090608001611d44565b6033546001600160a01b031633148061265b5750606a546001600160a01b03161580159061265b57503330145b6126775760405162461bcd60e51b8152600401610983906144eb565b60005b8251811015611c7d576126bf83828151811061269857612698614548565b60200260200101518383815181106126b2576126b2614548565b602002602001015161237d565b806126c981614574565b91505061267a565b6069546060908490849063ffffffff808316600160a01b909204161480156127065750606a546001600160a01b038381169116145b801561272557506069546001600160a01b0316336001600160a01b0316145b6127d75760405162461bcd60e51b815260206004820152607160248201527f4e6574776f726b52656769737472793a204578706563746564206f726967696e60448201527f616c2063616c6c657220746f20626520736f7572636520636f6e74726163742060648201527f6f6e206f726967696e20646f6d61696e20616e64207468697320746f2062652060848201527018d85b1b195908189e4810dbdb9b995e1d607a1b60a482015260c401610983565b6000848060200190518101906127ed9190614a0e565b905060606368643eab60e01b6001600160e01b031983160161289c576000806000888060200190518101906128229190614a29565b6040516001600160a01b038416602482015260ff8316604482015263ffffffff82166064820152929650909450925063979bc15560e01b91506084015b60408051601f198184030181529190526020810180516001600160e01b03166001600160e01b0319909316929092179091529350612c2292505050565b630ea2a24f60e21b6001600160e01b031983160161292e57600080878060200190518101906128cb9190614a85565b6040516001600160a01b038316602482015260ff8216604482015291945092508591506064015b60408051601f198184030181529190526020810180516001600160e01b03166001600160e01b0319909316929092179091529250612c22915050565b633f89514960e21b6001600160e01b031983160161297c5760008060008880602001905181019061295f9190614b8c565b935093509350508483838360405160240161285f93929190614c81565b62fae5c960e21b6001600160e01b03198316016129c357600080878060200190518101906129aa9190614cba565b92509250508382826040516024016128f2929190614d23565b631b5839fd60e01b6001600160e01b0319831601612a0d57506040805160048152602481019091526020810180516001600160e01b03166001600160e01b03198416179052612c22565b63b862f5f360e01b6001600160e01b0319831601612a8b57600086806020019051810190612a3b9190614d48565b9150508281604051602401612a509190614d8b565b60408051601f198184030181529190526020810180516001600160e01b03166001600160e01b0319909316929092179091529150612c229050565b63279c2e7360e01b6001600160e01b0319831601612ab957600086806020019051810190612a3b9190614d48565b631a67a84960e11b6001600160e01b0319831601612b0757600086806020019051810190612ae79190614d9e565b6040516001600160a01b0382166024820152909250849150604401612a50565b63174622fd60e11b6001600160e01b0319831601612b645760008087806020019051810190612b369190614dca565b6040516001600160a01b038316602482015263ffffffff8216604482015291945092508591506064016128f2565b6362847abb60e01b6001600160e01b0319831601612b9257600086806020019051810190612ae79190614d9e565b631fc7f1d160e21b6001600160e01b0319831601612bdc57506040805160048152602481019091526020810180516001600160e01b03166001600160e01b03198416179052612c22565b63c8e4ad1d60e01b6001600160e01b0319831601612c2257506040805160048152602481019091526020810180516001600160e01b03166001600160e01b031984161790525b600080306001600160a01b031683604051612c3d9190614e09565b6000604051808303816000865af19150503d8060008114612c7a576040519150601f19603f3d011682016040523d82523d6000602084013e612c7f565b606091505b5091509150811515846001600160e01b0319167f1c3c9d979bd19ded3647c9c371dd9005c98dd77d9655655b3ac1b0c174dcbf098f8c8e604051612ce59392919092835263ffffffff9190911660208301526001600160a01b0316604082015260600190565b60405180910390a39c9b505050505050505050505050565b81818051825114612d205760405162461bcd60e51b8152600401610983906145eb565b6000805b82518160ff161015612d6c57828160ff1681518110612d4557612d45614548565b602002602001015182612d589190614630565b915080612d6481614643565b915050612d24565b50803414612d8c5760405162461bcd60e51b815260040161098390614662565b612d95866112c4565b505060405163479d0a0d60e01b906000906116f29083908a906020016148ec565b6033546001600160a01b031633146119635760405162461bcd60e51b815260206004820181905260248201527f4f776e61626c653a2063616c6c6572206973206e6f7420746865206f776e65726044820152606401610983565b60005b82518160ff161015611e0f57612e568585858460ff1681518110612e3957612e39614548565b6020026020010151858560ff16815181106114f3576114f3614548565b80612e6081614643565b915050612e13565b600054610100900460ff16612e8f5760405162461bcd60e51b815260040161098390614e25565b612e9761349b565b612ea58787878787876134ca565b6001600160a01b038116612ec057612ebb611951565b6115e0565b6115e0816124dc565b6000612ed6838584613562565b63ffffffff84166000818152606b60209081526040918290205491516401000000009092046001600160a01b0316825292935083926001600160e01b03198916917f08ccbfaba6869ea4aad2d3c80728aecf60570163a9f7ab0b292fdea62e211e37910160405180910390a45050505050565b603380546001600160a01b038381166001600160a01b0319831681179093556040519116919082907f8be0079c531659141344cd1fd0a4f28419497f9722a3daafe3b4186f6b6457e090600090a35050565b6001600160a01b03831660009081526068602052604090205415612fd2576040516303d5de1560e61b815260040160405180910390fd5b4263ffffffff168163ffffffff161115612fff5760405163d1bea8fb60e01b815260040160405180910390fd5b60648260ff1611156130245760405163119ea8ab60e31b815260040160405180910390fd5b604080516080810182526001600160a01b03858116825260006020830181815263ffffffff86811695850195865260ff88811660608701908152606680546001808201835591875297517f46501879b8ca8525e8c2fd519e2fbfcfa2ebea26501294aa02cbfcfb12e943549098018054955199519251989097166001600160c01b031990951694909417600160a01b988416989098029790971764ffffffffff60c01b1916600160c01b979092169690960260ff60e01b191617600160e01b9490951693909302939093179055606780548390613102908490614630565b90915550506067546001600160a01b03851660009081526068602052604090208190557f2c74090ef4cdee53f53beda1798302946833f0af081f221c5730357eb2fdd76a9060669061315690600190614745565b8154811061316657613166614548565b906000526020600020014260405161317f929190614ea8565b60405180910390a150505050565b6000817812725dd1d243aba0e75fe645cc4873f9e65afe688c928e1f218111156131cd5760405163edc236ad60e01b815260048101849052602401610983565b6131e36120bf670de0b6b3a764000083026136fe565b9392505050565b6001600160a01b0382166000908152606860205260408120549003613222576040516360f4985360e01b815260040160405180910390fd5b60648160ff1611156132475760405163119ea8ab60e31b815260040160405180910390fd5b6001600160a01b038216600090815260686020526040902054819060669061327190600190614745565b8154811061328157613281614548565b60009182526020808320909101805460ff94909416600160e01b0260ff60e01b19909416939093179092556001600160a01b0384168152606890915260409020547f29d12e74a55b3d297952b1d6eb3495d231fccb524ee0afc91cfbb3ed790e6607906066906132f390600190614745565b8154811061330357613303614548565b906000526020600020016040516112b79190614ec9565b4260005b60665481101561344c5760006066828154811061333d5761333d614548565b600091825260208220018054909250600160a01b900463ffffffff16810361337f57815461337890600160c01b900463ffffffff16856149d4565b9050613395565b6065546133929063ffffffff16856149d4565b90505b81546000906064906133b190600160e01b900460ff1684614ed7565b6133bb9190614eff565b8354909150819084906014906133df908490600160a01b900463ffffffff166149b0565b92506101000a81548163ffffffff021916908363ffffffff1602179055507f393ca387760e64235f59b8fb5a7e7736887380bcacd89855f4e170abdf7aebbe838260405161342e929190614ea8565b60405180910390a1505050808061344490614574565b91505061331e565b506065805463ffffffff191663ffffffff83169081179091556040519081527f5624889e22dfb82f30d92d6882aecff897f9f67a4a4d224257d424d2420ee8c09060200160405180910390a150565b600054610100900460ff166134c25760405162461bcd60e51b815260040161098390614e25565b611963613876565b600054610100900460ff166134f15760405162461bcd60e51b815260040161098390614e25565b606980546001600160a01b039788166001600160c01b031991821617600160a01b63ffffffff988916810291909117909255606a80546001600160a01b0319908116978a16979097179055606c805490961694881694909417909455606d8054929096169190921617921602179055565b63ffffffff8084166000908152606b602052604081208054919290911682036135dc5760405162461bcd60e51b815260206004820152602660248201527f4e6574776f726b52656769737472793a204e6f7420537570706f72746564204e6044820152656574776f726b60d01b6064820152608401610983565b805464010000000090046001600160a01b03166136495760405162461bcd60e51b815260206004820152602560248201527f4e6574776f726b52656769737472793a4e6f7420537570706f72746564204e6560448201526474776f726b60d81b6064820152608401610983565b60695463ffffffff8681166000908152606b6020526040808220805460019091015491516345560b5d60e11b81526001600160a01b0395861695638aac16ba958a956136b295918516946401000000009004831693909290911690829081908e90600401614f22565b60206040518083038185885af11580156136d0573d6000803e3d6000fd5b50505050506040513d601f19601f820116820180604052508101906136f59190614f7d565b95945050505050565b60008160000361371057506000919050565b50600181600160801b811061372a5760409190911b9060801c5b6801000000000000000081106137455760209190911b9060401c5b640100000000811061375c5760109190911b9060201c5b6201000081106137715760089190911b9060101c5b61010081106137855760049190911b9060081c5b601081106137985760029190911b9060041c5b600481106137a857600182901b91505b60018284816137b9576137b9614986565b048301901c915060018284816137d1576137d1614986565b048301901c915060018284816137e9576137e9614986565b048301901c9150600182848161380157613801614986565b048301901c9150600182848161381957613819614986565b048301901c9150600182848161383157613831614986565b048301901c9150600182848161384957613849614986565b048301901c9150600082848161386157613861614986565b04905080831061386f578092505b5050919050565b600054610100900460ff1661389d5760405162461bcd60e51b815260040161098390614e25565b61196333612f49565b634e487b7160e01b600052604160045260246000fd5b604051601f8201601f191681016001600160401b03811182821017156138e4576138e46138a6565b604052919050565b60006001600160401b03821115613905576139056138a6565b5060051b60200190565b6001600160a01b038116811461255257600080fd5b600082601f83011261393557600080fd5b8135602061394a613945836138ec565b6138bc565b82815260059290921b8401810191818101908684111561396957600080fd5b8286015b8481101561398d5780356139808161390f565b835291830191830161396d565b509695505050505050565b60ff8116811461255257600080fd5b600082601f8301126139b857600080fd5b813560206139c8613945836138ec565b82815260059290921b840181019181810190868411156139e757600080fd5b8286015b8481101561398d5780356139fe81613998565b83529183019183016139eb565b63ffffffff8116811461255257600080fd5b600082601f830112613a2e57600080fd5b81356020613a3e613945836138ec565b82815260059290921b84018101918181019086841115613a5d57600080fd5b8286015b8481101561398d578035613a7481613a0b565b8352918301918301613a61565b600080600060608486031215613a9657600080fd5b83356001600160401b0380821115613aad57600080fd5b613ab987838801613924565b94506020860135915080821115613acf57600080fd5b613adb878388016139a7565b93506040860135915080821115613af157600080fd5b50613afe86828701613a1d565b9150509250925092565b600080600060608486031215613b1d57600080fd5b83356001600160401b03811115613b3357600080fd5b613b3f86828701613924565b9350506020840135613b508161390f565b91506040840135613b608161390f565b809150509250925092565b600082601f830112613b7c57600080fd5b81356020613b8c613945836138ec565b82815260059290921b84018101918181019086841115613bab57600080fd5b8286015b8481101561398d5780358352918301918301613baf565b600080600080600060a08688031215613bde57600080fd5b85356001600160401b0380821115613bf557600080fd5b613c0189838a01613924565b96506020880135915080821115613c1757600080fd5b613c2389838a016139a7565b95506040880135915080821115613c3957600080fd5b613c4589838a01613a1d565b94506060880135915080821115613c5b57600080fd5b613c6789838a01613a1d565b93506080880135915080821115613c7d57600080fd5b50613c8a88828901613b6b565b9150509295509295909350565b60008060408385031215613caa57600080fd5b82356001600160401b0380821115613cc157600080fd5b613ccd86838701613a1d565b93506020850135915080821115613ce357600080fd5b50613cf085828601613b6b565b9150509250929050565b600080600080600060a08688031215613d1257600080fd5b8535613d1d8161390f565b94506020860135613d2d81613998565b93506040860135613d3d81613a0b565b925060608601356001600160401b0380821115613c5b57600080fd5b600060208284031215613d6b57600080fd5b81356131e38161390f565b80516001600160a01b0316825260208082015163ffffffff908116918401919091526040808301519091169083015260609081015160ff16910152565b60808101613dc18284613d76565b92915050565b60008060408385031215613dda57600080fd5b82356001600160401b03811115613df057600080fd5b613dfc85828601613924565b9250506020830135613e0d8161390f565b809150509250929050565b600082601f830112613e2957600080fd5b81356001600160401b03811115613e4257613e426138a6565b613e55601f8201601f19166020016138bc565b818152846020838601011115613e6a57600080fd5b816020850160208301376000918101602001919091529392505050565b600060208284031215613e9957600080fd5b81356001600160401b03811115613eaf57600080fd5b613ebb84828501613e18565b949350505050565b600060208284031215613ed557600080fd5b81356001600160401b03811115613eeb57600080fd5b613ebb84828501613924565b600081518084526020808501945080840160005b83811015613f305781516001600160a01b031687529582019590820190600101613f0b565b509495945050505050565b600081518084526020808501945080840160005b83811015613f3057815163ffffffff1687529582019590820190600101613f4f565b604081526000613f846040830185613ef7565b82810360208401526136f58185613f3b565b60008060008060808587031215613fac57600080fd5b84356001600160401b0380821115613fc357600080fd5b613fcf88838901613a1d565b95506020870135915080821115613fe557600080fd5b613ff188838901613924565b9450604087013591508082111561400757600080fd5b61401388838901613a1d565b9350606087013591508082111561402957600080fd5b5061403687828801613b6b565b91505092959194509250565b60006020828403121561405457600080fd5b5035919050565b60008060006060848603121561407057600080fd5b83356001600160401b038082111561408757600080fd5b61409387838801613924565b945060208601359150808211156140a957600080fd5b6140b587838801613a1d565b935060408601359150808211156140cb57600080fd5b50613afe86828701613b6b565b600080604083850312156140eb57600080fd5b82356140f681613a0b565b91506020830135613e0d8161390f565b60008060006060848603121561411b57600080fd5b83356001600160401b038082111561413257600080fd5b61413e87838801613a1d565b9450602086013591508082111561415457600080fd5b6140b587838801613924565b600080828403608081121561417457600080fd5b833561417f81613a0b565b92506060601f198201121561419357600080fd5b50604051606081018181106001600160401b03821117156141b6576141b66138a6565b60405260208401356141c781613a0b565b815260408401356141d78161390f565b602082015260608401356141ea8161390f565b6040820152919491935090915050565b60006020828403121561420c57600080fd5b81356131e381613a0b565b60008060006060848603121561422c57600080fd5b83356142378161390f565b9250602084013561424781613998565b91506040840135613b6081613a0b565b6000806000806080858703121561426d57600080fd5b84356001600160401b038082111561428457600080fd5b61429088838901613924565b955060208701359150808211156142a657600080fd5b613ff1888389016139a7565b6020808252825182820181905260009190848201906040850190845b818110156142f4576142e1838551613d76565b92840192608092909201916001016142ce565b50909695505050505050565b6000806040838503121561431357600080fd5b823561431e8161390f565b91506020830135613e0d81613998565b6000806040838503121561434157600080fd5b823561434c8161390f565b91506020830135613e0d81613a0b565b6000806000806080858703121561437257600080fd5b843561437d8161390f565b9350602085013561438d81613998565b925060408501356001600160401b038082111561400757600080fd5b600080604083850312156143bc57600080fd5b82356001600160401b03808211156143d357600080fd5b6143df86838701613924565b935060208501359150808211156143f557600080fd5b50613cf0858286016139a7565b60008060008060008060c0878903121561441b57600080fd5b863595506020870135945060408701356144348161390f565b935060608701356144448161390f565b9250608087013561445481613a0b565b915060a08701356001600160401b0381111561446f57600080fd5b61447b89828a01613e18565b9150509295509295509295565b60005b838110156144a357818101518382015260200161448b565b50506000910152565b600081518084526144c4816020860160208601614488565b601f01601f19169290920160200192915050565b6020815260006131e360208301846144ac565b60208082526037908201527f4e6574776f726b52656769737472793a2063616c6c6572206973206e6f74206660408201527f6f726569676e2075706461746572206f72206f776e6572000000000000000000606082015260800190565b634e487b7160e01b600052603260045260246000fd5b634e487b7160e01b600052601160045260246000fd5b6000600182016145865761458661455e565b5060010190565b600060018060a01b038089168352808816602084015260c060408401526145b760c0840188613ef7565b83810360608501526145c98188613f3b565b63ffffffff969096166080850152509290921660a09091015250949350505050565b60208082526025908201527f4e6574776f726b52656769737472793a2057726f6e67206e6574776f726b20706040820152646172616d7360d81b606082015260800190565b80820180821115613dc157613dc161455e565b600060ff821660ff81036146595761465961455e565b60010192915050565b6020808252603c908201527f4e6574776f726b52656769737472793a2056616c75652073656e74206e6f742060408201527f656e6f75676820746f20636f7665722072656c61796572206665657300000000606082015260800190565b600081518084526020808501945080840160005b83811015613f3057815160ff16875295820195908201906001016146d3565b63ffffffff60e01b851681526080602082015260006147146080830186613ef7565b828103604084015261472681866146bf565b9050828103606084015261473a8185613f3b565b979650505050505050565b81810381811115613dc157613dc161455e565b600060018060a01b03808816835260a0602084015261477a60a0840188613ef7565b838103604085015261478c8188613f3b565b63ffffffff9690961660608501525092909216608090910152509392505050565b600080600080600080600060e0888a0312156147c857600080fd5b87516147d38161390f565b60208901519097506147e481613a0b565b60408901519096506147f58161390f565b60608901519095506148068161390f565b60808901519094506148178161390f565b60a089015190935061482881613a0b565b60c08901519092506148398161390f565b8091505092959891949750929550565b6001600160a01b038516815260806020820181905260009061486d90830186613ef7565b828103604084015261487f8186613f3b565b91505063ffffffff8316606083015295945050505050565b60208082526035908201527f4e6574776f726b52656769737472793a206e6574776f726b20706172616d73206040820152740d8cadccee8d040c8decae640dcdee840dac2e8c6d605b1b606082015260800190565b63ffffffff60e01b83168152604060208201526000613ebb6040830184613ef7565b6001600160e01b03199290921682526001600160a01b0316602082015260400190565b63ffffffff60e01b841681526060602082015260006149536060830185613ef7565b828103604084015261496581856146bf565b9695505050505050565b8082028115828204841417613dc157613dc161455e565b634e487b7160e01b600052601260045260246000fd5b6000826149ab576149ab614986565b500490565b63ffffffff8181168382160190808211156149cd576149cd61455e565b5092915050565b63ffffffff8281168282160390808211156149cd576149cd61455e565b80516001600160e01b031981168114614a0957600080fd5b919050565b600060208284031215614a2057600080fd5b6131e3826149f1565b60008060008060808587031215614a3f57600080fd5b614a48856149f1565b93506020850151614a588161390f565b6040860151909350614a6981613998565b6060860151909250614a7a81613a0b565b939692955090935050565b600080600060608486031215614a9a57600080fd5b614aa3846149f1565b92506020840151614ab38161390f565b6040850151909250613b6081613998565b600082601f830112614ad557600080fd5b81516020614ae5613945836138ec565b82815260059290921b84018101918181019086841115614b0457600080fd5b8286015b8481101561398d578051614b1b8161390f565b8352918301918301614b08565b600082601f830112614b3957600080fd5b81516020614b49613945836138ec565b82815260059290921b84018101918181019086841115614b6857600080fd5b8286015b8481101561398d578051614b7f81613998565b8352918301918301614b6c565b60008060008060808587031215614ba257600080fd5b614bab856149f1565b93506020808601516001600160401b0380821115614bc857600080fd5b614bd489838a01614ac4565b95506040880151915080821115614bea57600080fd5b614bf689838a01614b28565b94506060880151915080821115614c0c57600080fd5b508601601f81018813614c1e57600080fd5b8051614c2c613945826138ec565b81815260059190911b8201830190838101908a831115614c4b57600080fd5b928401925b82841015614c72578351614c6381613a0b565b82529284019290840190614c50565b979a9699509497505050505050565b606081526000614c946060830186613ef7565b8281036020840152614ca681866146bf565b905082810360408401526149658185613f3b565b600080600060608486031215614ccf57600080fd5b614cd8846149f1565b925060208401516001600160401b0380821115614cf457600080fd5b614d0087838801614ac4565b93506040860151915080821115614d1657600080fd5b50613afe86828701614b28565b604081526000614d366040830185613ef7565b82810360208401526136f581856146bf565b60008060408385031215614d5b57600080fd5b614d64836149f1565b915060208301516001600160401b03811115614d7f57600080fd5b613cf085828601614ac4565b6020815260006131e36020830184613ef7565b60008060408385031215614db157600080fd5b614dba836149f1565b91506020830151613e0d8161390f565b600080600060608486031215614ddf57600080fd5b614de8846149f1565b92506020840151614df88161390f565b6040850151909250613b6081613a0b565b60008251614e1b818460208701614488565b9190910192915050565b6020808252602b908201527f496e697469616c697a61626c653a20636f6e7472616374206973206e6f74206960408201526a6e697469616c697a696e6760a81b606082015260800190565b546001600160a01b038116825260a081901c63ffffffff908116602084015260c082901c16604083015260e01c60ff16606090910152565b60a08101614eb68285614e70565b63ffffffff831660808301529392505050565b60808101613dc18284614e70565b63ffffffff818116838216028082169190828114614ef757614ef761455e565b505092915050565b600063ffffffff80841680614f1657614f16614986565b92169190910492915050565b63ffffffff881681526001600160a01b0387811660208301528681166040830152851660608201526080810184905260a0810183905260e060c08201819052600090614f70908301846144ac565b9998505050505050505050565b600060208284031215614f8f57600080fd5b505191905056fea164736f6c6343000813000a",
  "devdoc": {
    "events": {
      "Initialized(uint8)": {
        "details": "Triggered when the contract has been initialized or reinitialized."
      }
    },
    "kind": "dev",
    "methods": {
      "owner()": {
        "details": "Returns the address of the current owner."
      },
      "renounceOwnership()": {
        "details": "Leaves the contract without owner. It will not be possible to call `onlyOwner` functions anymore. Can only be called by the current owner. NOTE: Renouncing ownership will leave the contract without an owner, thereby removing any functionality that is only available to the owner."
      },
      "transferOwnership(address)": {
        "details": "Transfers ownership of the contract to a new account (`newOwner`). Can only be called by the current owner."
      }
    },
    "stateVariables": {
      "__gap": {
        "details": "This empty reserved space is put in place to allow future versions to add new variables without shifting down storage in the inheritance chain. See https://docs.openzeppelin.com/contracts/4.x/upgradeable#storage_gaps"
      }
    },
    "version": 1
  },
  "userdoc": {
    "errors": {
      "PRBMath_UD60x18_Sqrt_Overflow(uint256)": [
        {
          "notice": "Thrown when calculating the square root overflows UD60x18."
        }
      ]
    },
    "kind": "user",
    "methods": {
      "xReceive(bytes32,uint256,address,address,uint32,bytes)": {
        "notice": "The receiver function as required by the IXReceiver interface."
      }
    },
    "version": 1
  },
  "storageLayout": {
    "storage": [
      {
        "astId": 829,
        "contract": "contracts/NetworkRegistry.sol:NetworkRegistry",
        "label": "_initialized",
        "offset": 0,
        "slot": "0",
        "type": "t_uint8"
      },
      {
        "astId": 832,
        "contract": "contracts/NetworkRegistry.sol:NetworkRegistry",
        "label": "_initializing",
        "offset": 1,
        "slot": "0",
        "type": "t_bool"
      },
      {
        "astId": 1316,
        "contract": "contracts/NetworkRegistry.sol:NetworkRegistry",
        "label": "__gap",
        "offset": 0,
        "slot": "1",
        "type": "t_array(t_uint256)50_storage"
      },
      {
        "astId": 701,
        "contract": "contracts/NetworkRegistry.sol:NetworkRegistry",
        "label": "_owner",
        "offset": 0,
        "slot": "51",
        "type": "t_address"
      },
      {
        "astId": 821,
        "contract": "contracts/NetworkRegistry.sol:NetworkRegistry",
        "label": "__gap",
        "offset": 0,
        "slot": "52",
        "type": "t_array(t_uint256)49_storage"
      },
      {
        "astId": 11624,
        "contract": "contracts/NetworkRegistry.sol:NetworkRegistry",
        "label": "lastUpdate",
        "offset": 0,
        "slot": "101",
        "type": "t_uint32"
      },
      {
        "astId": 11628,
        "contract": "contracts/NetworkRegistry.sol:NetworkRegistry",
        "label": "members",
        "offset": 0,
        "slot": "102",
        "type": "t_array(t_struct(Member)11622_storage)dyn_storage"
      },
      {
        "astId": 11631,
        "contract": "contracts/NetworkRegistry.sol:NetworkRegistry",
        "label": "count",
        "offset": 0,
        "slot": "103",
        "type": "t_uint256"
      },
      {
        "astId": 11635,
        "contract": "contracts/NetworkRegistry.sol:NetworkRegistry",
        "label": "memberIdxs",
        "offset": 0,
        "slot": "104",
        "type": "t_mapping(t_address,t_uint256)"
      },
      {
        "astId": 8505,
        "contract": "contracts/NetworkRegistry.sol:NetworkRegistry",
        "label": "connext",
        "offset": 0,
        "slot": "105",
        "type": "t_contract(IConnext)285"
      },
      {
        "astId": 8507,
        "contract": "contracts/NetworkRegistry.sol:NetworkRegistry",
        "label": "updaterDomain",
        "offset": 20,
        "slot": "105",
        "type": "t_uint32"
      },
      {
        "astId": 8509,
        "contract": "contracts/NetworkRegistry.sol:NetworkRegistry",
        "label": "updater",
        "offset": 0,
        "slot": "106",
        "type": "t_address"
      },
      {
        "astId": 8514,
        "contract": "contracts/NetworkRegistry.sol:NetworkRegistry",
        "label": "networkRegistry",
        "offset": 0,
        "slot": "107",
        "type": "t_mapping(t_uint32,t_struct(NetworkRegistry)11142_storage)"
      },
      {
        "astId": 8517,
        "contract": "contracts/NetworkRegistry.sol:NetworkRegistry",
        "label": "splitMain",
        "offset": 0,
        "slot": "108",
        "type": "t_contract(ISplitMain)11518"
      },
      {
        "astId": 8519,
        "contract": "contracts/NetworkRegistry.sol:NetworkRegistry",
        "label": "split",
        "offset": 0,
        "slot": "109",
        "type": "t_address"
      },
      {
        "astId": 8521,
        "contract": "contracts/NetworkRegistry.sol:NetworkRegistry",
        "label": "splitDistributorFee",
        "offset": 20,
        "slot": "109",
        "type": "t_uint32"
      },
      {
        "astId": 10672,
        "contract": "contracts/NetworkRegistry.sol:NetworkRegistry",
        "label": "__gap",
        "offset": 0,
        "slot": "110",
        "type": "t_array(t_uint256)45_storage"
      }
    ],
    "types": {
      "t_address": {
        "encoding": "inplace",
        "label": "address",
        "numberOfBytes": "20"
      },
      "t_array(t_struct(Member)11622_storage)dyn_storage": {
        "base": "t_struct(Member)11622_storage",
        "encoding": "dynamic_array",
        "label": "struct MemberRegistry.Member[]",
        "numberOfBytes": "32"
      },
      "t_array(t_uint256)45_storage": {
        "base": "t_uint256",
        "encoding": "inplace",
        "label": "uint256[45]",
        "numberOfBytes": "1440"
      },
      "t_array(t_uint256)49_storage": {
        "base": "t_uint256",
        "encoding": "inplace",
        "label": "uint256[49]",
        "numberOfBytes": "1568"
      },
      "t_array(t_uint256)50_storage": {
        "base": "t_uint256",
        "encoding": "inplace",
        "label": "uint256[50]",
        "numberOfBytes": "1600"
      },
      "t_bool": {
        "encoding": "inplace",
        "label": "bool",
        "numberOfBytes": "1"
      },
      "t_contract(IConnext)285": {
        "encoding": "inplace",
        "label": "contract IConnext",
        "numberOfBytes": "20"
      },
      "t_contract(ISplitMain)11518": {
        "encoding": "inplace",
        "label": "contract ISplitMain",
        "numberOfBytes": "20"
      },
      "t_mapping(t_address,t_uint256)": {
        "encoding": "mapping",
        "key": "t_address",
        "label": "mapping(address => uint256)",
        "numberOfBytes": "32",
        "value": "t_uint256"
      },
      "t_mapping(t_uint32,t_struct(NetworkRegistry)11142_storage)": {
        "encoding": "mapping",
        "key": "t_uint32",
        "label": "mapping(uint32 => struct INetworkMemberRegistry.NetworkRegistry)",
        "numberOfBytes": "32",
        "value": "t_struct(NetworkRegistry)11142_storage"
      },
      "t_struct(Member)11622_storage": {
        "encoding": "inplace",
        "label": "struct MemberRegistry.Member",
        "members": [
          {
            "astId": 11615,
            "contract": "contracts/NetworkRegistry.sol:NetworkRegistry",
            "label": "account",
            "offset": 0,
            "slot": "0",
            "type": "t_address"
          },
          {
            "astId": 11617,
            "contract": "contracts/NetworkRegistry.sol:NetworkRegistry",
            "label": "secondsActive",
            "offset": 20,
            "slot": "0",
            "type": "t_uint32"
          },
          {
            "astId": 11619,
            "contract": "contracts/NetworkRegistry.sol:NetworkRegistry",
            "label": "startDate",
            "offset": 24,
            "slot": "0",
            "type": "t_uint32"
          },
          {
            "astId": 11621,
            "contract": "contracts/NetworkRegistry.sol:NetworkRegistry",
            "label": "activityMultiplier",
            "offset": 28,
            "slot": "0",
            "type": "t_uint8"
          }
        ],
        "numberOfBytes": "32"
      },
      "t_struct(NetworkRegistry)11142_storage": {
        "encoding": "inplace",
        "label": "struct INetworkMemberRegistry.NetworkRegistry",
        "members": [
          {
            "astId": 11137,
            "contract": "contracts/NetworkRegistry.sol:NetworkRegistry",
            "label": "domainId",
            "offset": 0,
            "slot": "0",
            "type": "t_uint32"
          },
          {
            "astId": 11139,
            "contract": "contracts/NetworkRegistry.sol:NetworkRegistry",
            "label": "registryAddress",
            "offset": 4,
            "slot": "0",
            "type": "t_address"
          },
          {
            "astId": 11141,
            "contract": "contracts/NetworkRegistry.sol:NetworkRegistry",
            "label": "delegate",
            "offset": 0,
            "slot": "1",
            "type": "t_address"
          }
        ],
        "numberOfBytes": "64"
      },
      "t_uint256": {
        "encoding": "inplace",
        "label": "uint256",
        "numberOfBytes": "32"
      },
      "t_uint32": {
        "encoding": "inplace",
        "label": "uint32",
        "numberOfBytes": "4"
      },
      "t_uint8": {
        "encoding": "inplace",
        "label": "uint8",
        "numberOfBytes": "1"
      }
    }
  }
}