{
  "address": "0xC893c6255C993Ce5AcA5BD80A816638A9B661F1b",
  "abi": [
    {
      "inputs": [],
      "stateMutability": "nonpayable",
      "type": "constructor"
    },
    {
      "inputs": [],
      "name": "InvalidInitialization",
      "type": "error"
    },
    {
      "inputs": [
        {
          "internalType": "address",
          "name": "_memberAddress",
          "type": "address"
        },
        {
          "internalType": "uint32",
          "name": "_activityMultiplier",
          "type": "uint32"
        }
      ],
      "name": "InvalidMember__ActivityMultiplier",
      "type": "error"
    },
    {
      "inputs": [
        {
          "internalType": "address",
          "name": "_memberAddress",
          "type": "address"
        }
      ],
      "name": "InvalidMember__Address",
      "type": "error"
    },
    {
      "inputs": [
        {
          "internalType": "address",
          "name": "_memberAddress",
          "type": "address"
        },
        {
          "internalType": "uint32",
          "name": "_startDate",
          "type": "uint32"
        }
      ],
      "name": "InvalidMember__StartDateInTheFuture",
      "type": "error"
    },
    {
      "inputs": [],
      "name": "MemberRegistry__ParamsSizeMismatch",
      "type": "error"
    },
    {
      "inputs": [
        {
          "internalType": "address",
          "name": "_memberAddress",
          "type": "address"
        }
      ],
      "name": "Member__AlreadyRegistered",
      "type": "error"
    },
    {
      "inputs": [],
      "name": "Member__IndexOutOfBounds",
      "type": "error"
    },
    {
      "inputs": [
        {
          "internalType": "address",
          "name": "_memberAddress",
          "type": "address"
        }
      ],
      "name": "Member__NotRegistered",
      "type": "error"
    },
    {
      "inputs": [],
      "name": "NetWorkRegistry__ParamsSizeMismatch",
      "type": "error"
    },
    {
      "inputs": [],
      "name": "NetworkRegistry__ConnextOnly",
      "type": "error"
    },
    {
      "inputs": [],
      "name": "NetworkRegistry__InvalidConnextAddress",
      "type": "error"
    },
    {
      "inputs": [],
      "name": "NetworkRegistry__InvalidOrImmutableSplit",
      "type": "error"
    },
    {
      "inputs": [],
      "name": "NetworkRegistry__InvalidReplica",
      "type": "error"
    },
    {
      "inputs": [],
      "name": "NetworkRegistry__NeitherOwnableNorReplicaUpdater",
      "type": "error"
    },
    {
      "inputs": [
        {
          "internalType": "uint32",
          "name": "_chainId",
          "type": "uint32"
        }
      ],
      "name": "NetworkRegistry__NoReplicaOnNetwork",
      "type": "error"
    },
    {
      "inputs": [],
      "name": "NetworkRegistry__OnlyMainRegistry",
      "type": "error"
    },
    {
      "inputs": [],
      "name": "NetworkRegistry__OnlyOwnerOrUpdater",
      "type": "error"
    },
    {
      "inputs": [],
      "name": "NetworkRegistry__OnlyReplicaRegistry",
      "type": "error"
    },
    {
      "inputs": [],
      "name": "NetworkRegistry__ValueSentLessThanRelayerFees",
      "type": "error"
    },
    {
      "inputs": [],
      "name": "NotInitializing",
      "type": "error"
    },
    {
      "inputs": [
        {
          "internalType": "address",
          "name": "owner",
          "type": "address"
        }
      ],
      "name": "OwnableInvalidOwner",
      "type": "error"
    },
    {
      "inputs": [
        {
          "internalType": "address",
          "name": "account",
          "type": "address"
        }
      ],
      "name": "OwnableUnauthorizedAccount",
      "type": "error"
    },
    {
      "inputs": [],
      "name": "Split_ControlNotHandedOver",
      "type": "error"
    },
    {
      "anonymous": false,
      "inputs": [
        {
          "indexed": false,
          "internalType": "uint64",
          "name": "version",
          "type": "uint64"
        }
      ],
      "name": "Initialized",
      "type": "event"
    },
    {
      "anonymous": false,
      "inputs": [
        {
          "indexed": true,
          "internalType": "uint32",
          "name": "_chainId",
          "type": "uint32"
        },
        {
          "indexed": true,
          "internalType": "address",
          "name": "_registryAddress",
          "type": "address"
        },
        {
          "indexed": true,
          "internalType": "uint32",
          "name": "_domainId",
          "type": "uint32"
        },
        {
          "indexed": false,
          "internalType": "address",
          "name": "_delegate",
          "type": "address"
        }
      ],
      "name": "NetworkRegistryUpdated",
      "type": "event"
    },
    {
      "anonymous": false,
      "inputs": [
        {
          "indexed": true,
          "internalType": "address",
          "name": "_memberAddress",
          "type": "address"
        },
        {
          "indexed": false,
          "internalType": "uint32",
          "name": "_startDate",
          "type": "uint32"
        },
        {
          "indexed": false,
          "internalType": "uint32",
          "name": "_activityMultiplier",
          "type": "uint32"
        }
      ],
      "name": "NewMember",
      "type": "event"
    },
    {
      "anonymous": false,
      "inputs": [
        {
          "indexed": false,
          "internalType": "address",
          "name": "_connext",
          "type": "address"
        },
        {
          "indexed": false,
          "internalType": "uint32",
          "name": "_updaterDomain",
          "type": "uint32"
        },
        {
          "indexed": false,
          "internalType": "address",
          "name": "_updater",
          "type": "address"
        }
      ],
      "name": "NewUpdaterConfig",
      "type": "event"
    },
    {
      "anonymous": false,
      "inputs": [
        {
          "indexed": true,
          "internalType": "address",
          "name": "previousOwner",
          "type": "address"
        },
        {
          "indexed": true,
          "internalType": "address",
          "name": "newOwner",
          "type": "address"
        }
      ],
      "name": "OwnershipTransferred",
      "type": "event"
    },
    {
      "anonymous": false,
      "inputs": [
        {
          "indexed": false,
          "internalType": "uint32",
          "name": "_timestamp",
          "type": "uint32"
        },
        {
          "indexed": false,
          "internalType": "uint256",
          "name": "_totalMemberUpdates",
          "type": "uint256"
        }
      ],
      "name": "RegistryActivityUpdate",
      "type": "event"
    },
    {
      "anonymous": false,
      "inputs": [
        {
          "indexed": false,
          "internalType": "address",
          "name": "_splitMain",
          "type": "address"
        },
        {
          "indexed": false,
          "internalType": "address",
          "name": "_split",
          "type": "address"
        }
      ],
      "name": "SplitUpdated",
      "type": "event"
    },
    {
      "anonymous": false,
      "inputs": [
        {
          "indexed": false,
          "internalType": "address",
          "name": "_split",
          "type": "address"
        },
        {
          "indexed": false,
          "internalType": "bytes32",
          "name": "_splitHash",
          "type": "bytes32"
        },
        {
          "indexed": false,
          "internalType": "uint32",
          "name": "_splitDistributorFee",
          "type": "uint32"
        }
      ],
      "name": "SplitsDistributionUpdated",
      "type": "event"
    },
    {
      "anonymous": false,
      "inputs": [
        {
          "indexed": true,
          "internalType": "bytes32",
          "name": "_transferId",
          "type": "bytes32"
        },
        {
          "indexed": true,
          "internalType": "uint32",
          "name": "_originDomain",
          "type": "uint32"
        },
        {
          "indexed": true,
          "internalType": "bytes4",
          "name": "_action",
          "type": "bytes4"
        },
        {
          "indexed": false,
          "internalType": "bool",
          "name": "_success",
          "type": "bool"
        },
        {
          "indexed": false,
          "internalType": "address",
          "name": "_originSender",
          "type": "address"
        }
      ],
      "name": "SyncActionPerformed",
      "type": "event"
    },
    {
      "anonymous": false,
      "inputs": [
        {
          "indexed": true,
          "internalType": "bytes32",
          "name": "_transferId",
          "type": "bytes32"
        },
        {
          "indexed": true,
          "internalType": "uint32",
          "name": "_chainId",
          "type": "uint32"
        },
        {
          "indexed": true,
          "internalType": "bytes4",
          "name": "_action",
          "type": "bytes4"
        },
        {
          "indexed": false,
          "internalType": "address",
          "name": "_registryAddress",
          "type": "address"
        }
      ],
      "name": "SyncMessageSubmitted",
      "type": "event"
    },
    {
      "anonymous": false,
      "inputs": [
        {
          "indexed": true,
          "internalType": "address",
          "name": "_memberAddress",
          "type": "address"
        },
        {
          "indexed": false,
          "internalType": "uint32",
          "name": "_activityMultiplier",
          "type": "uint32"
        },
        {
          "indexed": false,
          "internalType": "uint32",
          "name": "_startDate",
          "type": "uint32"
        },
        {
          "indexed": false,
          "internalType": "uint32",
          "name": "_secondsActive",
          "type": "uint32"
        }
      ],
      "name": "UpdateMember",
      "type": "event"
    },
    {
      "anonymous": false,
      "inputs": [
        {
          "indexed": true,
          "internalType": "address",
          "name": "_memberAddress",
          "type": "address"
        },
        {
          "indexed": false,
          "internalType": "uint32",
          "name": "_secondsActive",
          "type": "uint32"
        }
      ],
      "name": "UpdateMemberSeconds",
      "type": "event"
    },
    {
      "inputs": [
        {
          "internalType": "uint32[]",
          "name": "_chainIds",
          "type": "uint32[]"
        },
        {
          "internalType": "uint256[]",
          "name": "_relayerFees",
          "type": "uint256[]"
        }
      ],
      "name": "acceptNetworkSplitControl",
      "outputs": [],
      "stateMutability": "payable",
      "type": "function"
    },
    {
      "inputs": [],
      "name": "acceptSplitControl",
      "outputs": [],
      "stateMutability": "nonpayable",
      "type": "function"
    },
    {
      "inputs": [
        {
          "internalType": "address[]",
          "name": "_members",
          "type": "address[]"
        },
        {
          "internalType": "uint32[]",
          "name": "_activityMultipliers",
          "type": "uint32[]"
        },
        {
          "internalType": "uint32[]",
          "name": "_startDates",
          "type": "uint32[]"
        },
        {
          "internalType": "uint32[]",
          "name": "_secondsActive",
          "type": "uint32[]"
        }
      ],
      "name": "addOrUpdateMembersBatch",
      "outputs": [],
      "stateMutability": "nonpayable",
      "type": "function"
    },
    {
      "inputs": [
        {
          "internalType": "address[]",
          "name": "_members",
          "type": "address[]"
        },
        {
          "internalType": "uint32[]",
          "name": "_activityMultipliers",
          "type": "uint32[]"
        },
        {
          "internalType": "uint32[]",
          "name": "_startDates",
          "type": "uint32[]"
        }
      ],
      "name": "batchNewMembers",
      "outputs": [],
      "stateMutability": "nonpayable",
      "type": "function"
    },
    {
      "inputs": [
        {
          "internalType": "address[]",
          "name": "_members",
          "type": "address[]"
        },
        {
          "internalType": "uint32[]",
          "name": "_activityMultipliers",
          "type": "uint32[]"
        }
      ],
      "name": "batchUpdateMembersActivity",
      "outputs": [],
      "stateMutability": "nonpayable",
      "type": "function"
    },
    {
      "inputs": [
        {
          "internalType": "address[]",
          "name": "_sortedList",
          "type": "address[]"
        }
      ],
      "name": "calculate",
      "outputs": [
        {
          "internalType": "address[]",
          "name": "_receivers",
          "type": "address[]"
        },
        {
          "internalType": "uint32[]",
          "name": "_percentAllocations",
          "type": "uint32[]"
        }
      ],
      "stateMutability": "view",
      "type": "function"
    },
    {
      "inputs": [
        {
          "internalType": "address",
          "name": "_memberAddress",
          "type": "address"
        }
      ],
      "name": "calculateContributionOf",
      "outputs": [
        {
          "internalType": "uint256",
          "name": "",
          "type": "uint256"
        }
      ],
      "stateMutability": "view",
      "type": "function"
    },
    {
      "inputs": [],
      "name": "calculateTotalContributions",
      "outputs": [
        {
          "internalType": "uint256",
          "name": "total",
          "type": "uint256"
        }
      ],
      "stateMutability": "view",
      "type": "function"
    },
    {
      "inputs": [
        {
          "internalType": "uint32[]",
          "name": "_chainIds",
          "type": "uint32[]"
        },
        {
          "internalType": "uint256[]",
          "name": "_relayerFees",
          "type": "uint256[]"
        }
      ],
      "name": "cancelNetworkSplitControlTransfer",
      "outputs": [],
      "stateMutability": "payable",
      "type": "function"
    },
    {
      "inputs": [],
      "name": "cancelSplitControlTransfer",
      "outputs": [],
      "stateMutability": "nonpayable",
      "type": "function"
    },
    {
      "inputs": [],
      "name": "connext",
      "outputs": [
        {
          "internalType": "contract IConnext",
          "name": "",
          "type": "address"
        }
      ],
      "stateMutability": "view",
      "type": "function"
    },
    {
      "inputs": [
        {
          "internalType": "address",
          "name": "_memberAddress",
          "type": "address"
        }
      ],
      "name": "getMember",
      "outputs": [
        {
          "components": [
            {
              "internalType": "address",
              "name": "account",
              "type": "address"
            },
            {
              "internalType": "uint32",
              "name": "secondsActive",
              "type": "uint32"
            },
            {
              "internalType": "uint32",
              "name": "startDate",
              "type": "uint32"
            },
            {
              "internalType": "uint32",
              "name": "activityMultiplier",
              "type": "uint32"
            }
          ],
          "internalType": "struct DataTypes.Member",
          "name": "member",
          "type": "tuple"
        }
      ],
      "stateMutability": "view",
      "type": "function"
    },
    {
      "inputs": [],
      "name": "getMembers",
      "outputs": [
        {
          "components": [
            {
              "internalType": "address",
              "name": "account",
              "type": "address"
            },
            {
              "internalType": "uint32",
              "name": "secondsActive",
              "type": "uint32"
            },
            {
              "internalType": "uint32",
              "name": "startDate",
              "type": "uint32"
            },
            {
              "internalType": "uint32",
              "name": "activityMultiplier",
              "type": "uint32"
            }
          ],
          "internalType": "struct DataTypes.Member[]",
          "name": "",
          "type": "tuple[]"
        }
      ],
      "stateMutability": "view",
      "type": "function"
    },
    {
      "inputs": [
        {
          "internalType": "uint256",
          "name": "_fromIndex",
          "type": "uint256"
        },
        {
          "internalType": "uint256",
          "name": "_toIndex",
          "type": "uint256"
        }
      ],
      "name": "getMembersPaginated",
      "outputs": [
        {
          "components": [
            {
              "internalType": "address",
              "name": "account",
              "type": "address"
            },
            {
              "internalType": "uint32",
              "name": "secondsActive",
              "type": "uint32"
            },
            {
              "internalType": "uint32",
              "name": "startDate",
              "type": "uint32"
            },
            {
              "internalType": "uint32",
              "name": "activityMultiplier",
              "type": "uint32"
            }
          ],
          "internalType": "struct DataTypes.Member[]",
          "name": "memberList",
          "type": "tuple[]"
        }
      ],
      "stateMutability": "view",
      "type": "function"
    },
    {
      "inputs": [
        {
          "internalType": "address[]",
          "name": "_members",
          "type": "address[]"
        }
      ],
      "name": "getMembersProperties",
      "outputs": [
        {
          "internalType": "uint32[]",
          "name": "",
          "type": "uint32[]"
        },
        {
          "internalType": "uint32[]",
          "name": "",
          "type": "uint32[]"
        },
        {
          "internalType": "uint32[]",
          "name": "",
          "type": "uint32[]"
        }
      ],
      "stateMutability": "view",
      "type": "function"
    },
    {
      "inputs": [
        {
          "internalType": "bytes",
          "name": "_initializationParams",
          "type": "bytes"
        }
      ],
      "name": "initialize",
      "outputs": [],
      "stateMutability": "nonpayable",
      "type": "function"
    },
    {
      "inputs": [],
      "name": "isMainRegistry",
      "outputs": [
        {
          "internalType": "bool",
          "name": "",
          "type": "bool"
        }
      ],
      "stateMutability": "view",
      "type": "function"
    },
    {
      "inputs": [],
      "name": "lastActivityUpdate",
      "outputs": [
        {
          "internalType": "uint32",
          "name": "",
          "type": "uint32"
        }
      ],
      "stateMutability": "view",
      "type": "function"
    },
    {
      "inputs": [],
      "name": "owner",
      "outputs": [
        {
          "internalType": "address",
          "name": "",
          "type": "address"
        }
      ],
      "stateMutability": "view",
      "type": "function"
    },
    {
      "inputs": [],
      "name": "renounceOwnership",
      "outputs": [],
      "stateMutability": "nonpayable",
      "type": "function"
    },
    {
      "inputs": [
        {
          "internalType": "uint32",
          "name": "",
          "type": "uint32"
        }
      ],
      "name": "replicaRegistry",
      "outputs": [
        {
          "internalType": "uint32",
          "name": "domainId",
          "type": "uint32"
        },
        {
          "internalType": "address",
          "name": "registryAddress",
          "type": "address"
        },
        {
          "internalType": "address",
          "name": "delegate",
          "type": "address"
        }
      ],
      "stateMutability": "view",
      "type": "function"
    },
    {
      "inputs": [
        {
          "internalType": "uint32[]",
          "name": "_chainIds",
          "type": "uint32[]"
        },
        {
          "internalType": "address[]",
          "name": "_connextAddrs",
          "type": "address[]"
        },
        {
          "internalType": "uint32[]",
          "name": "_updaterDomains",
          "type": "uint32[]"
        },
        {
          "internalType": "address[]",
          "name": "_updaterAddrs",
          "type": "address[]"
        },
        {
          "internalType": "uint256[]",
          "name": "_relayerFees",
          "type": "uint256[]"
        }
      ],
      "name": "setNetworkUpdaterConfig",
      "outputs": [],
      "stateMutability": "payable",
      "type": "function"
    },
    {
      "inputs": [
        {
          "internalType": "address",
          "name": "_splitMain",
          "type": "address"
        },
        {
          "internalType": "address",
          "name": "_split",
          "type": "address"
        }
      ],
      "name": "setSplit",
      "outputs": [],
      "stateMutability": "nonpayable",
      "type": "function"
    },
    {
      "inputs": [
        {
          "internalType": "address",
          "name": "_connext",
          "type": "address"
        },
        {
          "internalType": "uint32",
          "name": "_updaterDomain",
          "type": "uint32"
        },
        {
          "internalType": "address",
          "name": "_updater",
          "type": "address"
        }
      ],
      "name": "setUpdaterConfig",
      "outputs": [],
      "stateMutability": "nonpayable",
      "type": "function"
    },
    {
      "inputs": [],
      "name": "split",
      "outputs": [
        {
          "internalType": "address",
          "name": "",
          "type": "address"
        }
      ],
      "stateMutability": "view",
      "type": "function"
    },
    {
      "inputs": [],
      "name": "splitMain",
      "outputs": [
        {
          "internalType": "contract ISplitMain",
          "name": "",
          "type": "address"
        }
      ],
      "stateMutability": "view",
      "type": "function"
    },
    {
      "inputs": [
        {
          "internalType": "address[]",
          "name": "_members",
          "type": "address[]"
        },
        {
          "internalType": "uint32[]",
          "name": "_activityMultipliers",
          "type": "uint32[]"
        },
        {
          "internalType": "uint32[]",
          "name": "_startDates",
          "type": "uint32[]"
        },
        {
          "internalType": "uint32[]",
          "name": "_chainIds",
          "type": "uint32[]"
        },
        {
          "internalType": "uint256[]",
          "name": "_relayerFees",
          "type": "uint256[]"
        }
      ],
      "name": "syncBatchNewMembers",
      "outputs": [],
      "stateMutability": "payable",
      "type": "function"
    },
    {
      "inputs": [
        {
          "internalType": "address[]",
          "name": "_members",
          "type": "address[]"
        },
        {
          "internalType": "uint32[]",
          "name": "_activityMultipliers",
          "type": "uint32[]"
        },
        {
          "internalType": "uint32[]",
          "name": "_chainIds",
          "type": "uint32[]"
        },
        {
          "internalType": "uint256[]",
          "name": "_relayerFees",
          "type": "uint256[]"
        }
      ],
      "name": "syncBatchUpdateMembersActivity",
      "outputs": [],
      "stateMutability": "payable",
      "type": "function"
    },
    {
      "inputs": [
        {
          "internalType": "address[]",
          "name": "_members",
          "type": "address[]"
        },
        {
          "internalType": "uint32[]",
          "name": "_chainIds",
          "type": "uint32[]"
        },
        {
          "internalType": "uint256[]",
          "name": "_relayerFees",
          "type": "uint256[]"
        }
      ],
      "name": "syncNetworkMemberRegistry",
      "outputs": [],
      "stateMutability": "payable",
      "type": "function"
    },
    {
      "inputs": [
        {
          "internalType": "address[]",
          "name": "_sortedList",
          "type": "address[]"
        },
        {
          "internalType": "uint32",
          "name": "_splitDistributorFee",
          "type": "uint32"
        },
        {
          "internalType": "uint32[]",
          "name": "_chainIds",
          "type": "uint32[]"
        },
        {
          "internalType": "uint256[]",
          "name": "_relayerFees",
          "type": "uint256[]"
        }
      ],
      "name": "syncUpdateAll",
      "outputs": [],
      "stateMutability": "payable",
      "type": "function"
    },
    {
      "inputs": [
        {
          "internalType": "uint32[]",
          "name": "_chainIds",
          "type": "uint32[]"
        },
        {
          "internalType": "uint256[]",
          "name": "_relayerFees",
          "type": "uint256[]"
        }
      ],
      "name": "syncUpdateSecondsActive",
      "outputs": [],
      "stateMutability": "payable",
      "type": "function"
    },
    {
      "inputs": [
        {
          "internalType": "address[]",
          "name": "_sortedList",
          "type": "address[]"
        },
        {
          "internalType": "uint32",
          "name": "_splitDistributorFee",
          "type": "uint32"
        },
        {
          "internalType": "uint32[]",
          "name": "_chainIds",
          "type": "uint32[]"
        },
        {
          "internalType": "uint256[]",
          "name": "_relayerFees",
          "type": "uint256[]"
        }
      ],
      "name": "syncUpdateSplits",
      "outputs": [],
      "stateMutability": "payable",
      "type": "function"
    },
    {
      "inputs": [],
      "name": "totalMembers",
      "outputs": [
        {
          "internalType": "uint256",
          "name": "",
          "type": "uint256"
        }
      ],
      "stateMutability": "view",
      "type": "function"
    },
    {
      "inputs": [
        {
          "internalType": "uint32[]",
          "name": "_chainIds",
          "type": "uint32[]"
        },
        {
          "internalType": "address[]",
          "name": "_newControllers",
          "type": "address[]"
        },
        {
          "internalType": "uint256[]",
          "name": "_relayerFees",
          "type": "uint256[]"
        }
      ],
      "name": "transferNetworkSplitControl",
      "outputs": [],
      "stateMutability": "payable",
      "type": "function"
    },
    {
      "inputs": [
        {
          "internalType": "address",
          "name": "newOwner",
          "type": "address"
        }
      ],
      "name": "transferOwnership",
      "outputs": [],
      "stateMutability": "nonpayable",
      "type": "function"
    },
    {
      "inputs": [
        {
          "internalType": "address",
          "name": "_newController",
          "type": "address"
        }
      ],
      "name": "transferSplitControl",
      "outputs": [],
      "stateMutability": "nonpayable",
      "type": "function"
    },
    {
      "inputs": [
        {
          "internalType": "address[]",
          "name": "_sortedList",
          "type": "address[]"
        },
        {
          "internalType": "uint32",
          "name": "_splitDistributorFee",
          "type": "uint32"
        }
      ],
      "name": "updateAll",
      "outputs": [],
      "stateMutability": "nonpayable",
      "type": "function"
    },
    {
      "inputs": [
        {
          "internalType": "uint32",
          "name": "_chainId",
          "type": "uint32"
        },
        {
          "components": [
            {
              "internalType": "uint32",
              "name": "domainId",
              "type": "uint32"
            },
            {
              "internalType": "address",
              "name": "registryAddress",
              "type": "address"
            },
            {
              "internalType": "address",
              "name": "delegate",
              "type": "address"
            }
          ],
          "internalType": "struct DataTypes.Registry",
          "name": "_newRegistry",
          "type": "tuple"
        }
      ],
      "name": "updateNetworkRegistry",
      "outputs": [],
      "stateMutability": "nonpayable",
      "type": "function"
    },
    {
      "inputs": [
        {
          "internalType": "uint32[]",
          "name": "_chainIds",
          "type": "uint32[]"
        },
        {
          "internalType": "address[]",
          "name": "_splitsMain",
          "type": "address[]"
        },
        {
          "internalType": "address[]",
          "name": "_splits",
          "type": "address[]"
        },
        {
          "internalType": "uint256[]",
          "name": "_relayerFees",
          "type": "uint256[]"
        }
      ],
      "name": "updateNetworkSplit",
      "outputs": [],
      "stateMutability": "payable",
      "type": "function"
    },
    {
      "inputs": [],
      "name": "updateSecondsActive",
      "outputs": [],
      "stateMutability": "nonpayable",
      "type": "function"
    },
    {
      "inputs": [
        {
          "internalType": "address[]",
          "name": "_sortedList",
          "type": "address[]"
        },
        {
          "internalType": "uint32",
          "name": "_splitDistributorFee",
          "type": "uint32"
        }
      ],
      "name": "updateSplits",
      "outputs": [],
      "stateMutability": "nonpayable",
      "type": "function"
    },
    {
      "inputs": [],
      "name": "updater",
      "outputs": [
        {
          "internalType": "address",
          "name": "",
          "type": "address"
        }
      ],
      "stateMutability": "view",
      "type": "function"
    },
    {
      "inputs": [],
      "name": "updaterDomain",
      "outputs": [
        {
          "internalType": "uint32",
          "name": "",
          "type": "uint32"
        }
      ],
      "stateMutability": "view",
      "type": "function"
    },
    {
      "inputs": [
        {
          "internalType": "bytes32",
          "name": "_transferId",
          "type": "bytes32"
        },
        {
          "internalType": "uint256",
          "name": "",
          "type": "uint256"
        },
        {
          "internalType": "address",
          "name": "",
          "type": "address"
        },
        {
          "internalType": "address",
          "name": "_originSender",
          "type": "address"
        },
        {
          "internalType": "uint32",
          "name": "_origin",
          "type": "uint32"
        },
        {
          "internalType": "bytes",
          "name": "_incomingCalldata",
          "type": "bytes"
        }
      ],
      "name": "xReceive",
      "outputs": [
        {
          "internalType": "bytes",
          "name": "",
          "type": "bytes"
        }
      ],
      "stateMutability": "nonpayable",
      "type": "function"
    }
  ],
  "transactionHash": "0xd9a61b81df6bbc1d0b2fe54085fe7af6e383d3042e0c139ce17ede01f71427c4",
  "args": [],
  "numDeployments": 1,
  "solcInputHash": "4a8bfe7fd6822374d4c17e9583fdd17a",
  "bytecode": "0x60806040523480156200001157600080fd5b506200001c62000022565b620000d6565b7ff0c57e16840df040f15088dc2f81fe391c3923bec73e23a9662efc9c229c6a00805468010000000000000000900460ff1615620000735760405163f92ee8a960e01b815260040160405180910390fd5b80546001600160401b0390811614620000d35780546001600160401b0319166001600160401b0390811782556040519081527fc7f505b2f371ae2175ee4913f4499e1f2633a7b5936321eed1cdaeb6115181d29060200160405180910390a15b50565b6152ab80620000e66000396000f3fe6080604052600436106102675760003560e01c80638dc1579111610144578063b85a2ce1116100b6578063e4a7c6031161007a578063e4a7c6031461072e578063e9172c2d14610743578063f2fde38b14610763578063f6ce035414610783578063f7654176146107a3578063fd614f41146107c357600080fd5b8063b85a2ce114610627578063bcecc5ba14610647578063bf59b488146106c3578063de4b0548146106e7578063df034cd01461070e57600080fd5b8063a02b600611610108578063a02b600614610579578063a084b6c014610599578063a8e6f1e7146105be578063ab6efc30146105d1578063b044631c146105e6578063b0affdf7146105f957600080fd5b80638dc15791146104d25780638e58c55d146104f25780638ee31392146105125780639d7b8545146105445780639eab52531461056457600080fd5b806356c0e992116101dd5780637698a833116101a15780637698a8331461042957806376e925591461044957806379962a261461046857806380e038bc1461047b5780638bd1e678146104905780638da5cb5b146104bd57600080fd5b806356c0e992146103ac57806358fa6884146103bf57806364c6d00a146103ee5780636bda59da14610401578063715018a61461041457600080fd5b806345e838ca1161022f57806345e838ca146103205780634fa20a2914610333578063524a15411461035357806353c470d3146103665780635523a9601461037957806355f366381461038c57600080fd5b80630e769b2b1461026c5780632ada2596146102a9578063371b52e3146102d65780633a8246f3146102ed578063439fab9114610300575b600080fd5b34801561027857600080fd5b5060065461028c906001600160a01b031681565b6040516001600160a01b0390911681526020015b60405180910390f35b3480156102b557600080fd5b506102c96102c4366004613c35565b6107f0565b6040516102a09190613c8c565b3480156102e257600080fd5b506102eb61086b565b005b6102eb6102fb366004613dd4565b610929565b34801561030c57600080fd5b506102eb61031b366004613eeb565b610afc565b6102eb61032e366004613f8b565b610c3e565b34801561033f57600080fd5b506102eb61034e366004614068565b610e0d565b6102eb6103613660046140cb565b610e51565b6102eb61037436600461419a565b610f8f565b6102eb610387366004613dd4565b61117e565b34801561039857600080fd5b506102eb6103a736600461426b565b6112bc565b6102eb6103ba3660046142f2565b611302565b3480156103cb57600080fd5b506103df6103da36600461435d565b6114b9565b6040516102a0939291906143d2565b6102eb6103fc3660046142f2565b6116b6565b6102eb61040f366004614415565b6117e6565b34801561042057600080fd5b506102eb611948565b34801561043557600080fd5b506102eb610444366004614492565b61195c565b34801561045557600080fd5b506000545b6040519081526020016102a0565b6102eb61047636600461452c565b611b16565b34801561048757600080fd5b506102eb611d04565b34801561049c57600080fd5b506104b06104ab3660046145c0565b611d92565b6040516102a091906145e2565b3480156104c957600080fd5b5061028c611ee0565b3480156104de57600080fd5b506102eb6104ed366004614630565b611f0e565b3480156104fe57600080fd5b506102eb61050d366004614681565b611f4e565b34801561051e57600080fd5b5060035461052f9063ffffffff1681565b60405163ffffffff90911681526020016102a0565b34801561055057600080fd5b506102eb61055f366004613c35565b6120fe565b34801561057057600080fd5b506104b06121c4565b34801561058557600080fd5b506102eb610594366004614630565b61225d565b3480156105a557600080fd5b506105ae61229b565b60405190151581526020016102a0565b6102eb6105cc36600461472d565b6122c9565b3480156105dd57600080fd5b5061045a612468565b6102eb6105f43660046142f2565b612574565b34801561060557600080fd5b5061061961061436600461435d565b6126ac565b6040516102a0929190614806565b34801561063357600080fd5b506102eb61064236600461482b565b61273a565b34801561065357600080fd5b50610697610662366004614859565b6005602052600090815260409020805460019091015463ffffffff8216916001600160a01b03600160201b9091048116911683565b6040805163ffffffff90941684526001600160a01b0392831660208501529116908201526060016102a0565b3480156106cf57600080fd5b5060035461052f90600160c01b900463ffffffff1681565b3480156106f357600080fd5b5060035461028c90600160201b90046001600160a01b031681565b34801561071a57600080fd5b5060045461028c906001600160a01b031681565b34801561073a57600080fd5b506102eb612952565b34801561074f57600080fd5b5061045a61075e366004613c35565b612990565b34801561076f57600080fd5b506102eb61077e366004613c35565b612a21565b34801561078f57600080fd5b506102eb61079e366004614876565b612a64565b3480156107af57600080fd5b5060075461028c906001600160a01b031681565b3480156107cf57600080fd5b506107e36107de3660046148c1565b612b89565b6040516102a09190614997565b60408051608081018252600080825260208201819052918101829052606081019190915261081d82613127565b6040805160808101825291546001600160a01b038116835263ffffffff600160a01b820481166020850152600160c01b8204811692840192909252600160e01b900416606082015292915050565b610873611ee0565b6001600160a01b0316336001600160a01b0316141580156108a757506004546001600160a01b031615806108a75750333014155b156108c557604051633b4e61ad60e01b815260040160405180910390fd5b600654600754604051630933e36d60e11b81526001600160a01b039182166004820152911690631267c6da906024015b600060405180830381600087803b15801561090f57600080fd5b505af1158015610923573d6000803e3d6000fd5b50505050565b610931613175565b61093961229b565b610956576040516386e2123960e01b815260040160405180910390fd5b8383808060200260200160405190810160405280939291908181526020018383602002808284376000920191909152505060408051602080870282810182019093528682529093508692508591829185019084908082843760009201919091525050825184511491506109de905057604051631d3c4ecb60e31b815260040160405180910390fd5b6000805b8351811015610a1a578281815181106109fd576109fd6149aa565b602002602001015182610a1091906149d6565b91506001016109e2565b5080341015610a3c57604051631144943160e21b815260040160405180910390fd5b610a446131a7565b610a4e8989613345565b604051635015b00360e11b90600090610a6f9083908d908d906020016149e9565b6040516020818303038152906040529050610aef82828b8b8080602002602001604051908101604052809392919081815260200183836020028082843760009201919091525050604080516020808f0282810182019093528e82529093508e92508d91829185019084908082843760009201919091525061344692505050565b5050505050505050505050565b7ff0c57e16840df040f15088dc2f81fe391c3923bec73e23a9662efc9c229c6a008054600160401b810460ff1615906001600160401b0316600081158015610b415750825b90506000826001600160401b03166001148015610b5d5750303b155b905081158015610b6b575080155b15610b895760405163f92ee8a960e01b815260040160405180910390fd5b845467ffffffffffffffff191660011785558315610bb357845460ff60401b1916600160401b1785555b6000806000806000808b806020019051810190610bd09190614a21565b955095509550955095509550610bea86868686868661348b565b5050505050508315610c3657845460ff60401b19168555604051600181527fc7f505b2f371ae2175ee4913f4499e1f2633a7b5936321eed1cdaeb6115181d29060200160405180910390a15b505050505050565b610c46613175565b610c4e61229b565b610c6b576040516386e2123960e01b815260040160405180910390fd5b838380806020026020016040519081016040528093929190818152602001838360200280828437600092019190915250506040805160208087028281018201909352868252909350869250859182918501908490808284376000920191909152505082518451149150610cf3905057604051631d3c4ecb60e31b815260040160405180910390fd5b6000805b8351811015610d2f57828181518110610d1257610d126149aa565b602002602001015182610d2591906149d6565b9150600101610cf7565b5080341015610d5157604051631144943160e21b815260040160405180910390fd5b610d5c8a8a8a613531565b604051630abe6cc760e31b90600090610d7f9083908e908e908e90602001614aa8565b6040516020818303038152906040529050610dff82828b8b8080602002602001604051908101604052809392919081815260200183836020028082843760009201919091525050604080516020808f0282810182019093528e82529093508e92508d91829185019084908082843760009201919091525061344692505050565b505050505050505050505050565b6004546001600160a01b03161580610e255750333014155b15610e43576040516312ab28a760e11b815260040160405180910390fd5b610e4d82826135be565b5050565b610e59613175565b610e6161229b565b610e7e576040516386e2123960e01b815260040160405180910390fd5b838380806020026020016040519081016040528093929190818152602001838360200280828437600092019190915250506040805160208087028281018201909352868252909350869250859182918501908490808284376000920191909152505082518451149150610f06905057604051631d3c4ecb60e31b815260040160405180910390fd5b6000805b8351811015610f4257828181518110610f2557610f256149aa565b602002602001015182610f3891906149d6565b9150600101610f0a565b5080341015610f6457604051631144943160e21b815260040160405180910390fd5b610f6e89896135be565b604051634fa20a2960e01b90600090610a6f9083908d908d90602001614afb565b610f97613175565b610f9f61229b565b610fbc576040516386e2123960e01b815260040160405180910390fd5b84818051825114610fe057604051631d3c4ecb60e31b815260040160405180910390fd5b6000805b835181101561101c57828181518110610fff57610fff6149aa565b60200260200101518261101291906149d6565b9150600101610fe4565b508034101561103e57604051631144943160e21b815260040160405180910390fd5b8751875181141580611051575080875114155b8061105d575080865114155b1561107b57604051631d3c4ecb60e31b815260040160405180910390fd5b633db380d560e21b60005b82811015610aef576000828b83815181106110a3576110a36149aa565b60200260200101518b84815181106110bd576110bd6149aa565b60200260200101518b85815181106110d7576110d76149aa565b602002602001015160405160200161112694939291906001600160e01b03199490941684526001600160a01b03928316602085015263ffffffff91909116604084015216606082015260800190565b604051602081830303815290604052905061117583828e858151811061114e5761114e6149aa565b60200260200101518b8681518110611168576111686149aa565b6020026020010151613623565b50600101611086565b611186613175565b61118e61229b565b6111ab576040516386e2123960e01b815260040160405180910390fd5b838380806020026020016040519081016040528093929190818152602001838360200280828437600092019190915250506040805160208087028281018201909352868252909350869250859182918501908490808284376000920191909152505082518451149150611233905057604051631d3c4ecb60e31b815260040160405180910390fd5b6000805b835181101561126f57828181518110611252576112526149aa565b60200260200101518261126591906149d6565b9150600101611237565b508034101561129157604051631144943160e21b815260040160405180910390fd5b61129b8989613345565b604051638dc1579160e01b90600090610a6f9083908d908d906020016149e9565b6004546001600160a01b031615806112d45750333014155b156112f2576040516312ab28a760e11b815260040160405180910390fd5b6112fd838383613531565b505050565b61130a613175565b61131261229b565b61132f576040516386e2123960e01b815260040160405180910390fd5b8383808060200260200160405190810160405280939291908181526020018383602002808284376000920191909152505060408051602080870282810182019093528682529093508692508591829185019084908082843760009201919091525050825184511491506113b7905057604051631d3c4ecb60e31b815260040160405180910390fd5b6000805b83518110156113f3578281815181106113d6576113d66149aa565b6020026020010151826113e991906149d6565b91506001016113bb565b508034101561141557604051631144943160e21b815260040160405180910390fd5b604080516320380e2f60e21b6020820181905291600091015b60405160208183030381529060405290506114ae82828b8b8080602002602001604051908101604052809392919081815260200183836020028082843760009201919091525050604080516020808f0282810182019093528e82529093508e92508d91829185019084908082843760009201919091525061344692505050565b505050505050505050565b60608060606000845190506000816001600160401b038111156114de576114de613c9a565b604051908082528060200260200182016040528015611507578160200160208202803683370190505b5090506000826001600160401b0381111561152457611524613c9a565b60405190808252806020026020018201604052801561154d578160200160208202803683370190505b5090506000836001600160401b0381111561156a5761156a613c9a565b604051908082528060200260200182016040528015611593578160200160208202803683370190505b50905060005b848110156116a75760006115c58a83815181106115b8576115b86149aa565b6020026020010151613127565b6040805160808101825291546001600160a01b038116835263ffffffff600160a01b820481166020850152600160c01b8204811692840192909252600160e01b90041660608201819052865191925090869084908110611627576116276149aa565b602002602001019063ffffffff16908163ffffffff16815250508060400151848381518110611658576116586149aa565b602002602001019063ffffffff16908163ffffffff16815250508060200151838381518110611689576116896149aa565b63ffffffff9092166020928302919091019091015250600101611599565b50919790965090945092505050565b6116be613175565b6116c661229b565b6116e3576040516386e2123960e01b815260040160405180910390fd5b83838080602002602001604051908101604052809392919081815260200183836020028082843760009201919091525050604080516020808702828101820190935286825290935086925085918291850190849080828437600092019190915250508251845114915061176b905057604051631d3c4ecb60e31b815260040160405180910390fd5b6000805b83518110156117a75782818151811061178a5761178a6149aa565b60200260200101518261179d91906149d6565b915060010161176f565b50803410156117c957604051631144943160e21b815260040160405180910390fd5b6040805163371b52e360e01b60208201819052916000910161142e565b6117ee613175565b6117f661229b565b611813576040516386e2123960e01b815260040160405180910390fd5b8281805182511461183757604051631d3c4ecb60e31b815260040160405180910390fd5b6000805b835181101561187357828181518110611856576118566149aa565b60200260200101518261186991906149d6565b915060010161183b565b508034101561189557604051631144943160e21b815260040160405180910390fd5b8551855181146118b857604051631d3c4ecb60e31b815260040160405180910390fd5b639d7b854560e01b60005b828110156114ae576000828983815181106118e0576118e06149aa565b60200260200101516040516020016119179291906001600160e01b03199290921682526001600160a01b0316602082015260400190565b604051602081830303815290604052905061193f83828c858151811061114e5761114e6149aa565b506001016118c3565b611950613175565b61195a60006136a2565b565b611964613175565b61196c61229b565b611989576040516386e2123960e01b815260040160405180910390fd5b63ffffffff8216600090815260056020526040902054600160201b90046001600160a01b0316158015906119c8575060208101516001600160a01b0316155b15611a065763ffffffff8216600090815260056020526040902080546001600160c01b031916815560010180546001600160a01b0319169055611aa8565b805163ffffffff161580611a25575060208101516001600160a01b0316155b15611a4357604051638c9c2fed60e01b815260040160405180910390fd5b63ffffffff828116600090815260056020908152604091829020845181549286015194166001600160c01b031990921691909117600160201b6001600160a01b039485160217815590830151600190910180546001600160a01b031916919092161790555b806000015163ffffffff1681602001516001600160a01b03168363ffffffff167f4db6d44cad7c0eddcb10fcbcb14f9600520da0ea078eedc230cbed5aa0661d208460400151604051611b0a91906001600160a01b0391909116815260200190565b60405180910390a45050565b611b1e613175565b611b2661229b565b611b43576040516386e2123960e01b815260040160405180910390fd5b838380806020026020016040519081016040528093929190818152602001838360200280828437600092019190915250506040805160208087028281018201909352868252909350869250859182918501908490808284376000920191909152505082518451149150611bcb905057604051631d3c4ecb60e31b815260040160405180910390fd5b6000805b8351811015611c0757828181518110611bea57611bea6149aa565b602002602001015182611bfd91906149d6565b9150600101611bcf565b5080341015611c2957604051631144943160e21b815260040160405180910390fd5b6000806000611c378b6114b9565b6040519295509093509150638e58c55d60e01b90600090611c649083908f90889088908890602001614b2f565b6040516020818303038152906040529050611cf582828e8e80806020026020016040519081016040528093929190818152602001838360200280828437600081840152601f19601f820116905080830192505050505050508d8d8080602002602001604051908101604052809392919081815260200183836020028082843760009201919091525061344692505050565b50505050505050505050505050565b611d0c611ee0565b6001600160a01b0316336001600160a01b031614158015611d4057506004546001600160a01b03161580611d405750333014155b15611d5e57604051633b4e61ad60e01b815260040160405180910390fd5b60065460075460405163031f799160e61b81526001600160a01b03918216600482015291169063c7de6440906024016108f5565b60606000611d9f60005490565b90508084101580611db05750808310155b15611dce57604051631a1015fd60e01b815260040160405180910390fd5b611dd88484614b97565b611de39060016149d6565b6001600160401b03811115611dfa57611dfa613c9a565b604051908082528060200260200182016040528015611e4c57816020015b604080516080810182526000808252602080830182905292820181905260608201528252600019909201910181611e185790505b509150835b838111611ed8576000611e6382613713565b6040805160808101825291546001600160a01b038116835263ffffffff600160a01b820481166020850152600160c01b8204811692840192909252600160e01b900416606082015284519091508190859084908110611ec457611ec46149aa565b602090810291909101015250600101611e51565b505092915050565b7f9016d09d72d40fdae2fd8ceac6b6234c7706214fd39c1cd1e609a0528c199300546001600160a01b031690565b6004546001600160a01b03161580611f265750333014155b15611f44576040516312ab28a760e11b815260040160405180910390fd5b610e4d8282613345565b6004546001600160a01b03161580611f665750333014155b15611f84576040516312ab28a760e11b815260040160405180910390fd5b835160005b81811015610c36576000611fcb878381518110611fa857611fa86149aa565b60200260200101516001600160a01b031660009081526002602052604090205490565b9050806000036120305761202b878381518110611fea57611fea6149aa565b6020026020010151878481518110612004576120046149aa565b602002602001015187858151811061201e5761201e6149aa565b602002602001015161373b565b6120f5565b600061203b82613952565b905085838151811061204f5761204f6149aa565b6020908102919091010151815463ffffffff909116600160c01b0263ffffffff60c01b19909116178155845185908490811061208d5761208d6149aa565b60200260200101518160000160146101000a81548163ffffffff021916908363ffffffff1602179055506120f38884815181106120cc576120cc6149aa565b60200260200101518885815181106120e6576120e66149aa565b602002602001015161396d565b505b50600101611f89565b612106611ee0565b6001600160a01b0316336001600160a01b03161415801561213a57506004546001600160a01b0316158061213a5750333014155b1561215857604051633b4e61ad60e01b815260040160405180910390fd5b6006546007546040516334392cbd60e21b81526001600160a01b039182166004820152838216602482015291169063d0e4b2f490604401600060405180830381600087803b1580156121a957600080fd5b505af11580156121bd573d6000803e3d6000fd5b5050505050565b606060008001805480602002602001604051908101604052809291908181526020016000905b8282101561225457600084815260209081902060408051608081018252918501546001600160a01b038116835263ffffffff600160a01b8204811684860152600160c01b8204811692840192909252600160e01b90041660608201528252600190920191016121ea565b50505050905090565b6004546001600160a01b031615806122755750333014155b15612293576040516312ab28a760e11b815260040160405180910390fd5b611f446131a7565b6004546000906001600160a01b03161580156122c45750600354600160c01b900463ffffffff16155b905090565b6122d1613175565b6122d961229b565b6122f6576040516386e2123960e01b815260040160405180910390fd5b8381805182511461231a57604051631d3c4ecb60e31b815260040160405180910390fd5b6000805b835181101561235657828181518110612339576123396149aa565b60200260200101518261234c91906149d6565b915060010161231e565b508034101561237857604051631144943160e21b815260040160405180910390fd5b865186518114158061238b575080865114155b156123a957604051631d3c4ecb60e31b815260040160405180910390fd5b63b85a2ce160e01b60005b8281101561245c576000828a83815181106123d1576123d16149aa565b60200260200101518a84815181106123eb576123eb6149aa565b602002602001015160405160200161242b939291906001600160e01b03199390931683526001600160a01b03918216602084015216604082015260600190565b604051602081830303815290604052905061245383828d858151811061114e5761114e6149aa565b506001016123b4565b50505050505050505050565b60008061247460005490565b905060005b8181101561256f57600061248c82613713565b6040805160808101825291546001600160a01b038116835263ffffffff600160a01b820481166020850152600160c01b8204811692840192909252600160e01b900416606082018190529091501561256657604051636018660f60e01b8152734bB8B77C13a17E9704c6212509ED0D572619e3b090636018660f90612518906000908590600401614baa565b602060405180830381865af4158015612535573d6000803e3d6000fd5b505050506040513d601f19601f820116820180604052508101906125599190614bbe565b61256390856149d6565b93505b50600101612479565b505090565b61257c613175565b61258461229b565b6125a1576040516386e2123960e01b815260040160405180910390fd5b838380806020026020016040519081016040528093929190818152602001838360200280828437600092019190915250506040805160208087028281018201909352868252909350869250859182918501908490808284376000920191909152505082518451149150612629905057604051631d3c4ecb60e31b815260040160405180910390fd5b6000805b835181101561266557828181518110612648576126486149aa565b60200260200101518261265b91906149d6565b915060010161262d565b508034101561268757604051631144943160e21b815260040160405180910390fd5b61268f6131a7565b6040805163e4a7c60360e01b60208201819052916000910161142e565b60405163c0c53f1d60e01b81526060908190734bB8B77C13a17E9704c6212509ED0D572619e3b09063c0c53f1d906126eb906000908790600401614bd7565b600060405180830381865af4158015612708573d6000803e3d6000fd5b505050506040513d6000823e601f3d908101601f191682016040526127309190810190614cf6565b9094909350915050565b612742611ee0565b6001600160a01b0316336001600160a01b03161415801561277657506004546001600160a01b031615806127765750333014155b1561279457604051633b4e61ad60e01b815260040160405180910390fd5b600680546001600160a01b0319166001600160a01b03848116918217909255604051634463315560e11b815291831660048301526000916388c662aa90602401602060405180830381865afa1580156127f1573d6000803e3d6000fd5b505050506040513d601f19601f820116820180604052508101906128159190614d4f565b90506001600160a01b03811661283e57604051630352b0d160e41b815260040160405180910390fd5b60065460405163708728eb60e11b81526001600160a01b038481166004830152600092169063e10e51d690602401602060405180830381865afa158015612889573d6000803e3d6000fd5b505050506040513d601f19601f820116820180604052508101906128ad9190614d4f565b90506001600160a01b03821630148015906128d157506001600160a01b0381163014155b156128ef57604051633170a38d60e01b815260040160405180910390fd5b600780546001600160a01b0319166001600160a01b0385811691821790925560408051928716835260208301919091527fc8d09d7710e05a8ef2f307dcf13f859ce7e661b3eee1a04a57c4d481758a6c1d910160405180910390a1610923611d04565b6004546001600160a01b0316158061296a5750333014155b15612988576040516312ab28a760e11b815260040160405180910390fd5b61195a6131a7565b60008061299c836107f0565b604051636018660f60e01b8152909150734bB8B77C13a17E9704c6212509ED0D572619e3b090636018660f906129d9906000908590600401614baa565b602060405180830381865af41580156129f6573d6000803e3d6000fd5b505050506040513d601f19601f82011682018060405250810190612a1a9190614bbe565b9392505050565b612a29613175565b6001600160a01b038116612a5857604051631e4fbdf760e01b8152600060048201526024015b60405180910390fd5b612a61816136a2565b50565b612a6c611ee0565b6001600160a01b0316336001600160a01b031614158015612aa057506004546001600160a01b03161580612aa05750333014155b15612abe57604051633b4e61ad60e01b815260040160405180910390fd5b6001600160a01b038316612ae55760405163bb4bcc3b60e01b815260040160405180910390fd5b60038054640100000000600160e01b031916600160201b6001600160a01b0386811691820263ffffffff60c01b191692909217600160c01b63ffffffff871690810291909117909355600480546001600160a01b0319169285169283179055604080519182526020820193909352918201527f21ae9d1c05d009b6af15c73821748e22e498496e2b29672090c67ae892322d6f9060600160405180910390a1505050565b6003546060908490849063ffffffff808316600160c01b90920416141580612bbf57506004546001600160a01b03838116911614155b80612be55750600354600160201b90046001600160a01b0316336001600160a01b031614155b15612c035760405163b36b498160e01b815260040160405180910390fd5b600084806020019051810190612c199190614d89565b90506060631541933960e31b6001600160e01b0319831601612ca857600080600088806020019051810190612c4e9190614da4565b9350935093505084838383604051602401612c6b93929190614e30565b60408051601f198184030181529190526020810180516001600160e01b03166001600160e01b031990931692909217909152935061305592505050565b63b05df5d760e01b6001600160e01b0319831601612d2c5760008087806020019051810190612cd79190614e43565b9250925050838282604051602401612cf0929190614806565b60408051601f198184030181529190526020810180516001600160e01b03166001600160e01b0319909316929092179091529250613055915050565b6371a73aa360e01b6001600160e01b0319831601612dbd5760008060008089806020019051810190612d5e9190614eac565b9450945094509450508584848484604051602401612d7f9493929190614f5c565b60408051601f198184030181529190526020810180516001600160e01b03166001600160e01b03199093169290921790915294506130559350505050565b631b5839fd60e01b6001600160e01b0319831601612e0757506040805160048152602481019091526020810180516001600160e01b03166001600160e01b03198416179052613055565b63723ea86f60e01b6001600160e01b0319831601612e4f5760008087806020019051810190612e369190614f95565b9250925050838282604051602401612cf0929190614feb565b632fea4ffd60e11b6001600160e01b0319831601612e7e5760008087806020019051810190612e369190614f95565b63024c7f2b60e21b6001600160e01b0319831601612ee857600080600088806020019051810190612eaf9190615013565b6040516001600160a01b03808516602483015263ffffffff84166044830152821660648201529296509094509250869150608401612c6b565b6347a5d31f60e01b6001600160e01b0319831601612f415760008087806020019051810190612f17919061506f565b6040516001600160a01b038084166024830152821660448201529194509250859150606401612cf0565b6362847abb60e01b6001600160e01b0319831601612fc557600086806020019051810190612f6f91906150ae565b6040516001600160a01b038216602482015290925084915060440160408051601f198184030181529190526020810180516001600160e01b03166001600160e01b03199093169290921790915291506130559050565b631fc7f1d160e21b6001600160e01b031983160161300f57506040805160048152602481019091526020810180516001600160e01b03166001600160e01b03198416179052613055565b63c8e4ad1d60e01b6001600160e01b031983160161305557506040805160048152602481019091526020810180516001600160e01b03166001600160e01b031984161790525b600080306001600160a01b03168360405161307091906150da565b6000604051808303816000865af19150503d80600081146130ad576040519150601f19603f3d011682016040523d82523d6000602084013e6130b2565b606091505b5091509150836001600160e01b0319168963ffffffff168e7f1291b044e5e68ff17a19703d0775336ad7ec700ef5679fbd11bd0084af55baf3858e60405161310f92919091151582526001600160a01b0316602082015260400190565b60405180910390a49c9b505050505050505050505050565b6001600160a01b0381166000908152600260205260408120548060000361316c5760405163c6040d1d60e01b81526001600160a01b0384166004820152602401612a4f565b612a1a81613952565b3361317e611ee0565b6001600160a01b03161461195a5760405163118cdaa760e01b8152336004820152602401612a4f565b4260006131b360005490565b905060005b818110156132e85760006131cb82613713565b8054909150600090600160e01b900463ffffffff1615613297578154600090600160a01b900463ffffffff1661320f578254600160c01b900463ffffffff16613219565b60035463ffffffff165b9050600061322782886150f6565b845463ffffffff918216925060649161324891600160e01b9004168361511a565b6132529190615131565b845490935083908590601490613276908490600160a01b900463ffffffff16615153565b92506101000a81548163ffffffff021916908363ffffffff16021790555050505b815460405163ffffffff831681526001600160a01b03909116907f780f517310a8481b4817e26f9d1a336e49e7522775e8e6b4fb22c73908be6ce69060200160405180910390a250506001016131b8565b506040805163ffffffff84168152602081018390527f896e364af402e453909cff1f8bb117d283d37a717e7cf4a5c5b88be2197fa09f910160405180910390a1506003805463ffffffff191663ffffffff92909216919091179055565b600080613351846126ac565b600654600754604051637677856760e11b81529395509193506001600160a01b039081169263ecef0ace92613390921690869086908990600401615170565b600060405180830381600087803b1580156133aa57600080fd5b505af11580156133be573d6000803e3d6000fd5b5050505060008282856040516020016133d9939291906151be565b60408051601f1981840301815282825280516020918201206007546001600160a01b0316845290830181905263ffffffff87168383015290519092507fd4b7a01ea5a8b6ac341311c6e426730790e70b6ca9c8d9adee240379b5e81c289181900360600190a15050505050565b60005b82518110156121bd576134838585858481518110613469576134696149aa565b6020026020010151858581518110611168576111686149aa565b600101613449565b613493613a36565b6001600160a01b0386166134ba5760405163bb4bcc3b60e01b815260040160405180910390fd5b60006001600160a01b038216156134d157816134d3565b335b90506134de81613a7f565b6001600160a01b03821661351b576001600160a01b03851661351357604051635413b8d760e11b815260040160405180910390fd5b61351b611948565b6135288787878787613a90565b50505050505050565b8251825181141580613544575080825114155b1561356257604051630533bc9360e21b815260040160405180910390fd5b60005b818110156121bd576135b6858281518110613582576135826149aa565b602002602001015185838151811061359c5761359c6149aa565b602002602001015185848151811061201e5761201e6149aa565b600101613565565b8151815181146135e157604051630533bc9360e21b815260040160405180910390fd5b60005b818110156109235761361b848281518110613601576136016149aa565b60200260200101518483815181106120e6576120e66149aa565b6001016135e4565b6000613630838584613b15565b63ffffffff8416600081815260056020908152604091829020549151600160201b9092046001600160a01b031682529293506001600160e01b031988169284917f20ffb62aa5e31e4b559317e8af8f877e19a9126fd6ff1fee93bcf06e59d385cc910160405180910390a45050505050565b7f9016d09d72d40fdae2fd8ceac6b6234c7706214fd39c1cd1e609a0528c19930080546001600160a01b031981166001600160a01b03848116918217845560405192169182907f8be0079c531659141344cd1fd0a4f28419497f9722a3daafe3b4186f6b6457e090600090a3505050565b600080600001828154811061372a5761372a6149aa565b906000526020600020019050919050565b6001600160a01b03831661376d57604051633899e57b60e01b81526001600160a01b0384166004820152602401612a4f565b6001600160a01b038316600090815260026020526040902054156137af57604051636822fa9960e11b81526001600160a01b0384166004820152602401612a4f565b606463ffffffff831611156137ee5760405163424f515b60e11b81526001600160a01b038416600482015263ffffffff83166024820152604401612a4f565b428163ffffffff16111561382c5760405163faac476360e01b81526001600160a01b038416600482015263ffffffff82166024820152604401612a4f565b604080516080810182526001600160a01b038086168083526000602080850182815263ffffffff8881168789019081528a82166060890190815285546001818101885587805299517f290decd9548b62a8d60345a988386fc84ba6bc95484008f6362f93160ef3e56390910180549551935192518516600160e01b026001600160e01b03938616600160c01b02939093166001600160c01b0394909516600160a01b026001600160c01b031990961691909916179390931716171790935583548401938490558181526002909252908390209190915590517f13ca1f9a974ca1b85618843282dc1981c63a62c389aa5cf6e4a31937f8434e7390613945908490869063ffffffff92831681529116602082015260400190565b60405180910390a2505050565b6000613967613962600184614b97565b613713565b92915050565b606463ffffffff821611156139ac5760405163424f515b60e11b81526001600160a01b038316600482015263ffffffff82166024820152604401612a4f565b60006139b783613127565b805463ffffffff848116600160e01b81026001600160e01b039093169290921780845560408051938452600160c01b820483166020850152600160a01b909104909116908201529091506001600160a01b038416907f59f55668c694024ea61bdb5bb12ea8897197f9d9825fa7bee1195e263b64472790606001613945565b7ff0c57e16840df040f15088dc2f81fe391c3923bec73e23a9662efc9c229c6a0054600160401b900460ff1661195a57604051631afcd79f60e31b815260040160405180910390fd5b613a87613a36565b612a6181613c18565b613a98613a36565b6003805463ffffffff909516600160c01b0263ffffffff60c01b196001600160a01b03978816600160201b0216640100000000600160e01b03199096169590951794909417909355600480549285166001600160a01b03199384161790556006805491851691831691909117905560078054929093169116179055565b63ffffffff83166000908152600560205260408120548490600160201b90046001600160a01b0316613b6157604051628adb6d60e11b815263ffffffff82166004820152602401612a4f565b60035463ffffffff808716600090815260056020526040808220805460019091015491516345560b5d60e11b81526001600160a01b03600160201b96879004811696638aac16ba968b96613bcc96918616959290920483169391921690829081908e90600401615243565b60206040518083038185885af1158015613bea573d6000803e3d6000fd5b50505050506040513d601f19601f82011682018060405250810190613c0f9190614bbe565b95945050505050565b612a29613a36565b6001600160a01b0381168114612a6157600080fd5b600060208284031215613c4757600080fd5b8135612a1a81613c20565b80516001600160a01b0316825260208082015163ffffffff9081169184019190915260408083015182169084015260609182015116910152565b608081016139678284613c52565b634e487b7160e01b600052604160045260246000fd5b604051601f8201601f191681016001600160401b0381118282101715613cd857613cd8613c9a565b604052919050565b60006001600160401b03821115613cf957613cf9613c9a565b5060051b60200190565b600082601f830112613d1457600080fd5b81356020613d29613d2483613ce0565b613cb0565b82815260059290921b84018101918181019086841115613d4857600080fd5b8286015b84811015613d6c578035613d5f81613c20565b8352918301918301613d4c565b509695505050505050565b63ffffffff81168114612a6157600080fd5b60008083601f840112613d9b57600080fd5b5081356001600160401b03811115613db257600080fd5b6020830191508360208260051b8501011115613dcd57600080fd5b9250929050565b60008060008060008060808789031215613ded57600080fd5b86356001600160401b0380821115613e0457600080fd5b613e108a838b01613d03565b975060208901359150613e2282613d77565b90955060408801359080821115613e3857600080fd5b613e448a838b01613d89565b90965094506060890135915080821115613e5d57600080fd5b50613e6a89828a01613d89565b979a9699509497509295939492505050565b600082601f830112613e8d57600080fd5b81356001600160401b03811115613ea657613ea6613c9a565b613eb9601f8201601f1916602001613cb0565b818152846020838601011115613ece57600080fd5b816020850160208301376000918101602001919091529392505050565b600060208284031215613efd57600080fd5b81356001600160401b03811115613f1357600080fd5b613f1f84828501613e7c565b949350505050565b600082601f830112613f3857600080fd5b81356020613f48613d2483613ce0565b82815260059290921b84018101918181019086841115613f6757600080fd5b8286015b84811015613d6c578035613f7e81613d77565b8352918301918301613f6b565b600080600080600080600060a0888a031215613fa657600080fd5b87356001600160401b0380821115613fbd57600080fd5b613fc98b838c01613d03565b985060208a0135915080821115613fdf57600080fd5b613feb8b838c01613f27565b975060408a013591508082111561400157600080fd5b61400d8b838c01613f27565b965060608a013591508082111561402357600080fd5b61402f8b838c01613d89565b909650945060808a013591508082111561404857600080fd5b506140558a828b01613d89565b989b979a50959850939692959293505050565b6000806040838503121561407b57600080fd5b82356001600160401b038082111561409257600080fd5b61409e86838701613d03565b935060208501359150808211156140b457600080fd5b506140c185828601613f27565b9150509250929050565b600080600080600080608087890312156140e457600080fd5b86356001600160401b03808211156140fb57600080fd5b6141078a838b01613d03565b9750602089013591508082111561411d57600080fd5b6141298a838b01613f27565b96506040890135915080821115613e3857600080fd5b600082601f83011261415057600080fd5b81356020614160613d2483613ce0565b82815260059290921b8401810191818101908684111561417f57600080fd5b8286015b84811015613d6c5780358352918301918301614183565b600080600080600060a086880312156141b257600080fd5b85356001600160401b03808211156141c957600080fd5b6141d589838a01613f27565b965060208801359150808211156141eb57600080fd5b6141f789838a01613d03565b9550604088013591508082111561420d57600080fd5b61421989838a01613f27565b9450606088013591508082111561422f57600080fd5b61423b89838a01613d03565b9350608088013591508082111561425157600080fd5b5061425e8882890161413f565b9150509295509295909350565b60008060006060848603121561428057600080fd5b83356001600160401b038082111561429757600080fd5b6142a387838801613d03565b945060208601359150808211156142b957600080fd5b6142c587838801613f27565b935060408601359150808211156142db57600080fd5b506142e886828701613f27565b9150509250925092565b6000806000806040858703121561430857600080fd5b84356001600160401b038082111561431f57600080fd5b61432b88838901613d89565b9096509450602087013591508082111561434457600080fd5b5061435187828801613d89565b95989497509550505050565b60006020828403121561436f57600080fd5b81356001600160401b0381111561438557600080fd5b613f1f84828501613d03565b600081518084526020808501945080840160005b838110156143c757815163ffffffff16875295820195908201906001016143a5565b509495945050505050565b6060815260006143e56060830186614391565b82810360208401526143f78186614391565b9050828103604084015261440b8185614391565b9695505050505050565b60008060006060848603121561442a57600080fd5b83356001600160401b038082111561444157600080fd5b61444d87838801613f27565b9450602086013591508082111561446357600080fd5b61446f87838801613d03565b9350604086013591508082111561448557600080fd5b506142e88682870161413f565b60008082840360808112156144a657600080fd5b83356144b181613d77565b92506060601f19820112156144c557600080fd5b50604051606081018181106001600160401b03821117156144e8576144e8613c9a565b60405260208401356144f981613d77565b8152604084013561450981613c20565b6020820152606084013561451c81613c20565b6040820152919491935090915050565b60008060008060006060868803121561454457600080fd5b85356001600160401b038082111561455b57600080fd5b61456789838a01613d03565b9650602088013591508082111561457d57600080fd5b61458989838a01613d89565b909650945060408801359150808211156145a257600080fd5b506145af88828901613d89565b969995985093965092949392505050565b600080604083850312156145d357600080fd5b50508035926020909101359150565b6020808252825182820181905260009190848201906040850190845b8181101561462457614611838551613c52565b92840192608092909201916001016145fe565b50909695505050505050565b6000806040838503121561464357600080fd5b82356001600160401b0381111561465957600080fd5b61466585828601613d03565b925050602083013561467681613d77565b809150509250929050565b6000806000806080858703121561469757600080fd5b84356001600160401b03808211156146ae57600080fd5b6146ba88838901613d03565b955060208701359150808211156146d057600080fd5b6146dc88838901613f27565b945060408701359150808211156146f257600080fd5b6146fe88838901613f27565b9350606087013591508082111561471457600080fd5b5061472187828801613f27565b91505092959194509250565b6000806000806080858703121561474357600080fd5b84356001600160401b038082111561475a57600080fd5b61476688838901613f27565b9550602087013591508082111561477c57600080fd5b61478888838901613d03565b9450604087013591508082111561479e57600080fd5b6147aa88838901613d03565b935060608701359150808211156147c057600080fd5b506147218782880161413f565b600081518084526020808501945080840160005b838110156143c75781516001600160a01b0316875295820195908201906001016147e1565b60408152600061481960408301856147cd565b8281036020840152613c0f8185614391565b6000806040838503121561483e57600080fd5b823561484981613c20565b9150602083013561467681613c20565b60006020828403121561486b57600080fd5b8135612a1a81613d77565b60008060006060848603121561488b57600080fd5b833561489681613c20565b925060208401356148a681613d77565b915060408401356148b681613c20565b809150509250925092565b60008060008060008060c087890312156148da57600080fd5b863595506020870135945060408701356148f381613c20565b9350606087013561490381613c20565b9250608087013561491381613d77565b915060a08701356001600160401b0381111561492e57600080fd5b61493a89828a01613e7c565b9150509295509295509295565b60005b8381101561496257818101518382015260200161494a565b50506000910152565b60008151808452614983816020860160208601614947565b601f01601f19169290920160200192915050565b602081526000612a1a602083018461496b565b634e487b7160e01b600052603260045260246000fd5b634e487b7160e01b600052601160045260246000fd5b80820180821115613967576139676149c0565b63ffffffff60e01b84168152606060208201526000614a0b60608301856147cd565b905063ffffffff83166040830152949350505050565b60008060008060008060c08789031215614a3a57600080fd5b8651614a4581613c20565b6020880151909650614a5681613d77565b6040880151909550614a6781613c20565b6060880151909450614a7881613c20565b6080880151909350614a8981613c20565b60a0880151909250614a9a81613c20565b809150509295509295509295565b63ffffffff60e01b85168152608060208201526000614aca60808301866147cd565b8281036040840152614adc8186614391565b90508281036060840152614af08185614391565b979650505050505050565b63ffffffff60e01b84168152606060208201526000614b1d60608301856147cd565b828103604084015261440b8185614391565b63ffffffff60e01b8616815260a060208201526000614b5160a08301876147cd565b8281036040840152614b638187614391565b90508281036060840152614b778186614391565b90508281036080840152614b8b8185614391565b98975050505050505050565b81810381811115613967576139676149c0565b82815260a08101612a1a6020830184613c52565b600060208284031215614bd057600080fd5b5051919050565b6000604082018483526020604081850152818551808452606086019150828701935060005b81811015614c215784516001600160a01b031683529383019391830191600101614bfc565b5090979650505050505050565b600082601f830112614c3f57600080fd5b81516020614c4f613d2483613ce0565b82815260059290921b84018101918181019086841115614c6e57600080fd5b8286015b84811015613d6c578051614c8581613c20565b8352918301918301614c72565b600082601f830112614ca357600080fd5b81516020614cb3613d2483613ce0565b82815260059290921b84018101918181019086841115614cd257600080fd5b8286015b84811015613d6c578051614ce981613d77565b8352918301918301614cd6565b60008060408385031215614d0957600080fd5b82516001600160401b0380821115614d2057600080fd5b614d2c86838701614c2e565b93506020850151915080821115614d4257600080fd5b506140c185828601614c92565b600060208284031215614d6157600080fd5b8151612a1a81613c20565b80516001600160e01b031981168114614d8457600080fd5b919050565b600060208284031215614d9b57600080fd5b612a1a82614d6c565b60008060008060808587031215614dba57600080fd5b614dc385614d6c565b935060208501516001600160401b0380821115614ddf57600080fd5b614deb88838901614c2e565b94506040870151915080821115614e0157600080fd5b614e0d88838901614c92565b93506060870151915080821115614e2357600080fd5b5061472187828801614c92565b6060815260006143e560608301866147cd565b600080600060608486031215614e5857600080fd5b614e6184614d6c565b925060208401516001600160401b0380821115614e7d57600080fd5b614e8987838801614c2e565b93506040860151915080821115614e9f57600080fd5b506142e886828701614c92565b600080600080600060a08688031215614ec457600080fd5b614ecd86614d6c565b945060208601516001600160401b0380821115614ee957600080fd5b614ef589838a01614c2e565b95506040880151915080821115614f0b57600080fd5b614f1789838a01614c92565b94506060880151915080821115614f2d57600080fd5b614f3989838a01614c92565b93506080880151915080821115614f4f57600080fd5b5061425e88828901614c92565b608081526000614f6f60808301876147cd565b8281036020840152614f818187614391565b90508281036040840152614adc8186614391565b600080600060608486031215614faa57600080fd5b614fb384614d6c565b925060208401516001600160401b03811115614fce57600080fd5b614fda86828701614c2e565b92505060408401516148b681613d77565b604081526000614ffe60408301856147cd565b905063ffffffff831660208301529392505050565b6000806000806080858703121561502957600080fd5b61503285614d6c565b9350602085015161504281613c20565b604086015190935061505381613d77565b606086015190925061506481613c20565b939692955090935050565b60008060006060848603121561508457600080fd5b61508d84614d6c565b9250602084015161509d81613c20565b60408501519092506148b681613c20565b600080604083850312156150c157600080fd5b6150ca83614d6c565b9150602083015161467681613c20565b600082516150ec818460208701614947565b9190910192915050565b63ffffffff828116828216039080821115615113576151136149c0565b5092915050565b8082028115828204841417613967576139676149c0565b60008261514e57634e487b7160e01b600052601260045260246000fd5b500490565b63ffffffff818116838216019080821115615113576151136149c0565b6001600160a01b0385168152608060208201819052600090615194908301866147cd565b82810360408401526151a68186614391565b91505063ffffffff8316606083015295945050505050565b835160009082906020808801845b838110156151f15781516001600160a01b0316855293820193908201906001016151cc565b5050865181880193925060005b8181101561522057845163ffffffff16845293820193928201926001016151fe565b50505060e09490941b6001600160e01b0319168452505060049091019392505050565b63ffffffff881681526001600160a01b0387811660208301528681166040830152851660608201526080810184905260a0810183905260e060c082018190526000906152919083018461496b565b999850505050505050505056fea164736f6c6343000815000a",
  "deployedBytecode": "0x6080604052600436106102675760003560e01c80638dc1579111610144578063b85a2ce1116100b6578063e4a7c6031161007a578063e4a7c6031461072e578063e9172c2d14610743578063f2fde38b14610763578063f6ce035414610783578063f7654176146107a3578063fd614f41146107c357600080fd5b8063b85a2ce114610627578063bcecc5ba14610647578063bf59b488146106c3578063de4b0548146106e7578063df034cd01461070e57600080fd5b8063a02b600611610108578063a02b600614610579578063a084b6c014610599578063a8e6f1e7146105be578063ab6efc30146105d1578063b044631c146105e6578063b0affdf7146105f957600080fd5b80638dc15791146104d25780638e58c55d146104f25780638ee31392146105125780639d7b8545146105445780639eab52531461056457600080fd5b806356c0e992116101dd5780637698a833116101a15780637698a8331461042957806376e925591461044957806379962a261461046857806380e038bc1461047b5780638bd1e678146104905780638da5cb5b146104bd57600080fd5b806356c0e992146103ac57806358fa6884146103bf57806364c6d00a146103ee5780636bda59da14610401578063715018a61461041457600080fd5b806345e838ca1161022f57806345e838ca146103205780634fa20a2914610333578063524a15411461035357806353c470d3146103665780635523a9601461037957806355f366381461038c57600080fd5b80630e769b2b1461026c5780632ada2596146102a9578063371b52e3146102d65780633a8246f3146102ed578063439fab9114610300575b600080fd5b34801561027857600080fd5b5060065461028c906001600160a01b031681565b6040516001600160a01b0390911681526020015b60405180910390f35b3480156102b557600080fd5b506102c96102c4366004613c35565b6107f0565b6040516102a09190613c8c565b3480156102e257600080fd5b506102eb61086b565b005b6102eb6102fb366004613dd4565b610929565b34801561030c57600080fd5b506102eb61031b366004613eeb565b610afc565b6102eb61032e366004613f8b565b610c3e565b34801561033f57600080fd5b506102eb61034e366004614068565b610e0d565b6102eb6103613660046140cb565b610e51565b6102eb61037436600461419a565b610f8f565b6102eb610387366004613dd4565b61117e565b34801561039857600080fd5b506102eb6103a736600461426b565b6112bc565b6102eb6103ba3660046142f2565b611302565b3480156103cb57600080fd5b506103df6103da36600461435d565b6114b9565b6040516102a0939291906143d2565b6102eb6103fc3660046142f2565b6116b6565b6102eb61040f366004614415565b6117e6565b34801561042057600080fd5b506102eb611948565b34801561043557600080fd5b506102eb610444366004614492565b61195c565b34801561045557600080fd5b506000545b6040519081526020016102a0565b6102eb61047636600461452c565b611b16565b34801561048757600080fd5b506102eb611d04565b34801561049c57600080fd5b506104b06104ab3660046145c0565b611d92565b6040516102a091906145e2565b3480156104c957600080fd5b5061028c611ee0565b3480156104de57600080fd5b506102eb6104ed366004614630565b611f0e565b3480156104fe57600080fd5b506102eb61050d366004614681565b611f4e565b34801561051e57600080fd5b5060035461052f9063ffffffff1681565b60405163ffffffff90911681526020016102a0565b34801561055057600080fd5b506102eb61055f366004613c35565b6120fe565b34801561057057600080fd5b506104b06121c4565b34801561058557600080fd5b506102eb610594366004614630565b61225d565b3480156105a557600080fd5b506105ae61229b565b60405190151581526020016102a0565b6102eb6105cc36600461472d565b6122c9565b3480156105dd57600080fd5b5061045a612468565b6102eb6105f43660046142f2565b612574565b34801561060557600080fd5b5061061961061436600461435d565b6126ac565b6040516102a0929190614806565b34801561063357600080fd5b506102eb61064236600461482b565b61273a565b34801561065357600080fd5b50610697610662366004614859565b6005602052600090815260409020805460019091015463ffffffff8216916001600160a01b03600160201b9091048116911683565b6040805163ffffffff90941684526001600160a01b0392831660208501529116908201526060016102a0565b3480156106cf57600080fd5b5060035461052f90600160c01b900463ffffffff1681565b3480156106f357600080fd5b5060035461028c90600160201b90046001600160a01b031681565b34801561071a57600080fd5b5060045461028c906001600160a01b031681565b34801561073a57600080fd5b506102eb612952565b34801561074f57600080fd5b5061045a61075e366004613c35565b612990565b34801561076f57600080fd5b506102eb61077e366004613c35565b612a21565b34801561078f57600080fd5b506102eb61079e366004614876565b612a64565b3480156107af57600080fd5b5060075461028c906001600160a01b031681565b3480156107cf57600080fd5b506107e36107de3660046148c1565b612b89565b6040516102a09190614997565b60408051608081018252600080825260208201819052918101829052606081019190915261081d82613127565b6040805160808101825291546001600160a01b038116835263ffffffff600160a01b820481166020850152600160c01b8204811692840192909252600160e01b900416606082015292915050565b610873611ee0565b6001600160a01b0316336001600160a01b0316141580156108a757506004546001600160a01b031615806108a75750333014155b156108c557604051633b4e61ad60e01b815260040160405180910390fd5b600654600754604051630933e36d60e11b81526001600160a01b039182166004820152911690631267c6da906024015b600060405180830381600087803b15801561090f57600080fd5b505af1158015610923573d6000803e3d6000fd5b50505050565b610931613175565b61093961229b565b610956576040516386e2123960e01b815260040160405180910390fd5b8383808060200260200160405190810160405280939291908181526020018383602002808284376000920191909152505060408051602080870282810182019093528682529093508692508591829185019084908082843760009201919091525050825184511491506109de905057604051631d3c4ecb60e31b815260040160405180910390fd5b6000805b8351811015610a1a578281815181106109fd576109fd6149aa565b602002602001015182610a1091906149d6565b91506001016109e2565b5080341015610a3c57604051631144943160e21b815260040160405180910390fd5b610a446131a7565b610a4e8989613345565b604051635015b00360e11b90600090610a6f9083908d908d906020016149e9565b6040516020818303038152906040529050610aef82828b8b8080602002602001604051908101604052809392919081815260200183836020028082843760009201919091525050604080516020808f0282810182019093528e82529093508e92508d91829185019084908082843760009201919091525061344692505050565b5050505050505050505050565b7ff0c57e16840df040f15088dc2f81fe391c3923bec73e23a9662efc9c229c6a008054600160401b810460ff1615906001600160401b0316600081158015610b415750825b90506000826001600160401b03166001148015610b5d5750303b155b905081158015610b6b575080155b15610b895760405163f92ee8a960e01b815260040160405180910390fd5b845467ffffffffffffffff191660011785558315610bb357845460ff60401b1916600160401b1785555b6000806000806000808b806020019051810190610bd09190614a21565b955095509550955095509550610bea86868686868661348b565b5050505050508315610c3657845460ff60401b19168555604051600181527fc7f505b2f371ae2175ee4913f4499e1f2633a7b5936321eed1cdaeb6115181d29060200160405180910390a15b505050505050565b610c46613175565b610c4e61229b565b610c6b576040516386e2123960e01b815260040160405180910390fd5b838380806020026020016040519081016040528093929190818152602001838360200280828437600092019190915250506040805160208087028281018201909352868252909350869250859182918501908490808284376000920191909152505082518451149150610cf3905057604051631d3c4ecb60e31b815260040160405180910390fd5b6000805b8351811015610d2f57828181518110610d1257610d126149aa565b602002602001015182610d2591906149d6565b9150600101610cf7565b5080341015610d5157604051631144943160e21b815260040160405180910390fd5b610d5c8a8a8a613531565b604051630abe6cc760e31b90600090610d7f9083908e908e908e90602001614aa8565b6040516020818303038152906040529050610dff82828b8b8080602002602001604051908101604052809392919081815260200183836020028082843760009201919091525050604080516020808f0282810182019093528e82529093508e92508d91829185019084908082843760009201919091525061344692505050565b505050505050505050505050565b6004546001600160a01b03161580610e255750333014155b15610e43576040516312ab28a760e11b815260040160405180910390fd5b610e4d82826135be565b5050565b610e59613175565b610e6161229b565b610e7e576040516386e2123960e01b815260040160405180910390fd5b838380806020026020016040519081016040528093929190818152602001838360200280828437600092019190915250506040805160208087028281018201909352868252909350869250859182918501908490808284376000920191909152505082518451149150610f06905057604051631d3c4ecb60e31b815260040160405180910390fd5b6000805b8351811015610f4257828181518110610f2557610f256149aa565b602002602001015182610f3891906149d6565b9150600101610f0a565b5080341015610f6457604051631144943160e21b815260040160405180910390fd5b610f6e89896135be565b604051634fa20a2960e01b90600090610a6f9083908d908d90602001614afb565b610f97613175565b610f9f61229b565b610fbc576040516386e2123960e01b815260040160405180910390fd5b84818051825114610fe057604051631d3c4ecb60e31b815260040160405180910390fd5b6000805b835181101561101c57828181518110610fff57610fff6149aa565b60200260200101518261101291906149d6565b9150600101610fe4565b508034101561103e57604051631144943160e21b815260040160405180910390fd5b8751875181141580611051575080875114155b8061105d575080865114155b1561107b57604051631d3c4ecb60e31b815260040160405180910390fd5b633db380d560e21b60005b82811015610aef576000828b83815181106110a3576110a36149aa565b60200260200101518b84815181106110bd576110bd6149aa565b60200260200101518b85815181106110d7576110d76149aa565b602002602001015160405160200161112694939291906001600160e01b03199490941684526001600160a01b03928316602085015263ffffffff91909116604084015216606082015260800190565b604051602081830303815290604052905061117583828e858151811061114e5761114e6149aa565b60200260200101518b8681518110611168576111686149aa565b6020026020010151613623565b50600101611086565b611186613175565b61118e61229b565b6111ab576040516386e2123960e01b815260040160405180910390fd5b838380806020026020016040519081016040528093929190818152602001838360200280828437600092019190915250506040805160208087028281018201909352868252909350869250859182918501908490808284376000920191909152505082518451149150611233905057604051631d3c4ecb60e31b815260040160405180910390fd5b6000805b835181101561126f57828181518110611252576112526149aa565b60200260200101518261126591906149d6565b9150600101611237565b508034101561129157604051631144943160e21b815260040160405180910390fd5b61129b8989613345565b604051638dc1579160e01b90600090610a6f9083908d908d906020016149e9565b6004546001600160a01b031615806112d45750333014155b156112f2576040516312ab28a760e11b815260040160405180910390fd5b6112fd838383613531565b505050565b61130a613175565b61131261229b565b61132f576040516386e2123960e01b815260040160405180910390fd5b8383808060200260200160405190810160405280939291908181526020018383602002808284376000920191909152505060408051602080870282810182019093528682529093508692508591829185019084908082843760009201919091525050825184511491506113b7905057604051631d3c4ecb60e31b815260040160405180910390fd5b6000805b83518110156113f3578281815181106113d6576113d66149aa565b6020026020010151826113e991906149d6565b91506001016113bb565b508034101561141557604051631144943160e21b815260040160405180910390fd5b604080516320380e2f60e21b6020820181905291600091015b60405160208183030381529060405290506114ae82828b8b8080602002602001604051908101604052809392919081815260200183836020028082843760009201919091525050604080516020808f0282810182019093528e82529093508e92508d91829185019084908082843760009201919091525061344692505050565b505050505050505050565b60608060606000845190506000816001600160401b038111156114de576114de613c9a565b604051908082528060200260200182016040528015611507578160200160208202803683370190505b5090506000826001600160401b0381111561152457611524613c9a565b60405190808252806020026020018201604052801561154d578160200160208202803683370190505b5090506000836001600160401b0381111561156a5761156a613c9a565b604051908082528060200260200182016040528015611593578160200160208202803683370190505b50905060005b848110156116a75760006115c58a83815181106115b8576115b86149aa565b6020026020010151613127565b6040805160808101825291546001600160a01b038116835263ffffffff600160a01b820481166020850152600160c01b8204811692840192909252600160e01b90041660608201819052865191925090869084908110611627576116276149aa565b602002602001019063ffffffff16908163ffffffff16815250508060400151848381518110611658576116586149aa565b602002602001019063ffffffff16908163ffffffff16815250508060200151838381518110611689576116896149aa565b63ffffffff9092166020928302919091019091015250600101611599565b50919790965090945092505050565b6116be613175565b6116c661229b565b6116e3576040516386e2123960e01b815260040160405180910390fd5b83838080602002602001604051908101604052809392919081815260200183836020028082843760009201919091525050604080516020808702828101820190935286825290935086925085918291850190849080828437600092019190915250508251845114915061176b905057604051631d3c4ecb60e31b815260040160405180910390fd5b6000805b83518110156117a75782818151811061178a5761178a6149aa565b60200260200101518261179d91906149d6565b915060010161176f565b50803410156117c957604051631144943160e21b815260040160405180910390fd5b6040805163371b52e360e01b60208201819052916000910161142e565b6117ee613175565b6117f661229b565b611813576040516386e2123960e01b815260040160405180910390fd5b8281805182511461183757604051631d3c4ecb60e31b815260040160405180910390fd5b6000805b835181101561187357828181518110611856576118566149aa565b60200260200101518261186991906149d6565b915060010161183b565b508034101561189557604051631144943160e21b815260040160405180910390fd5b8551855181146118b857604051631d3c4ecb60e31b815260040160405180910390fd5b639d7b854560e01b60005b828110156114ae576000828983815181106118e0576118e06149aa565b60200260200101516040516020016119179291906001600160e01b03199290921682526001600160a01b0316602082015260400190565b604051602081830303815290604052905061193f83828c858151811061114e5761114e6149aa565b506001016118c3565b611950613175565b61195a60006136a2565b565b611964613175565b61196c61229b565b611989576040516386e2123960e01b815260040160405180910390fd5b63ffffffff8216600090815260056020526040902054600160201b90046001600160a01b0316158015906119c8575060208101516001600160a01b0316155b15611a065763ffffffff8216600090815260056020526040902080546001600160c01b031916815560010180546001600160a01b0319169055611aa8565b805163ffffffff161580611a25575060208101516001600160a01b0316155b15611a4357604051638c9c2fed60e01b815260040160405180910390fd5b63ffffffff828116600090815260056020908152604091829020845181549286015194166001600160c01b031990921691909117600160201b6001600160a01b039485160217815590830151600190910180546001600160a01b031916919092161790555b806000015163ffffffff1681602001516001600160a01b03168363ffffffff167f4db6d44cad7c0eddcb10fcbcb14f9600520da0ea078eedc230cbed5aa0661d208460400151604051611b0a91906001600160a01b0391909116815260200190565b60405180910390a45050565b611b1e613175565b611b2661229b565b611b43576040516386e2123960e01b815260040160405180910390fd5b838380806020026020016040519081016040528093929190818152602001838360200280828437600092019190915250506040805160208087028281018201909352868252909350869250859182918501908490808284376000920191909152505082518451149150611bcb905057604051631d3c4ecb60e31b815260040160405180910390fd5b6000805b8351811015611c0757828181518110611bea57611bea6149aa565b602002602001015182611bfd91906149d6565b9150600101611bcf565b5080341015611c2957604051631144943160e21b815260040160405180910390fd5b6000806000611c378b6114b9565b6040519295509093509150638e58c55d60e01b90600090611c649083908f90889088908890602001614b2f565b6040516020818303038152906040529050611cf582828e8e80806020026020016040519081016040528093929190818152602001838360200280828437600081840152601f19601f820116905080830192505050505050508d8d8080602002602001604051908101604052809392919081815260200183836020028082843760009201919091525061344692505050565b50505050505050505050505050565b611d0c611ee0565b6001600160a01b0316336001600160a01b031614158015611d4057506004546001600160a01b03161580611d405750333014155b15611d5e57604051633b4e61ad60e01b815260040160405180910390fd5b60065460075460405163031f799160e61b81526001600160a01b03918216600482015291169063c7de6440906024016108f5565b60606000611d9f60005490565b90508084101580611db05750808310155b15611dce57604051631a1015fd60e01b815260040160405180910390fd5b611dd88484614b97565b611de39060016149d6565b6001600160401b03811115611dfa57611dfa613c9a565b604051908082528060200260200182016040528015611e4c57816020015b604080516080810182526000808252602080830182905292820181905260608201528252600019909201910181611e185790505b509150835b838111611ed8576000611e6382613713565b6040805160808101825291546001600160a01b038116835263ffffffff600160a01b820481166020850152600160c01b8204811692840192909252600160e01b900416606082015284519091508190859084908110611ec457611ec46149aa565b602090810291909101015250600101611e51565b505092915050565b7f9016d09d72d40fdae2fd8ceac6b6234c7706214fd39c1cd1e609a0528c199300546001600160a01b031690565b6004546001600160a01b03161580611f265750333014155b15611f44576040516312ab28a760e11b815260040160405180910390fd5b610e4d8282613345565b6004546001600160a01b03161580611f665750333014155b15611f84576040516312ab28a760e11b815260040160405180910390fd5b835160005b81811015610c36576000611fcb878381518110611fa857611fa86149aa565b60200260200101516001600160a01b031660009081526002602052604090205490565b9050806000036120305761202b878381518110611fea57611fea6149aa565b6020026020010151878481518110612004576120046149aa565b602002602001015187858151811061201e5761201e6149aa565b602002602001015161373b565b6120f5565b600061203b82613952565b905085838151811061204f5761204f6149aa565b6020908102919091010151815463ffffffff909116600160c01b0263ffffffff60c01b19909116178155845185908490811061208d5761208d6149aa565b60200260200101518160000160146101000a81548163ffffffff021916908363ffffffff1602179055506120f38884815181106120cc576120cc6149aa565b60200260200101518885815181106120e6576120e66149aa565b602002602001015161396d565b505b50600101611f89565b612106611ee0565b6001600160a01b0316336001600160a01b03161415801561213a57506004546001600160a01b0316158061213a5750333014155b1561215857604051633b4e61ad60e01b815260040160405180910390fd5b6006546007546040516334392cbd60e21b81526001600160a01b039182166004820152838216602482015291169063d0e4b2f490604401600060405180830381600087803b1580156121a957600080fd5b505af11580156121bd573d6000803e3d6000fd5b5050505050565b606060008001805480602002602001604051908101604052809291908181526020016000905b8282101561225457600084815260209081902060408051608081018252918501546001600160a01b038116835263ffffffff600160a01b8204811684860152600160c01b8204811692840192909252600160e01b90041660608201528252600190920191016121ea565b50505050905090565b6004546001600160a01b031615806122755750333014155b15612293576040516312ab28a760e11b815260040160405180910390fd5b611f446131a7565b6004546000906001600160a01b03161580156122c45750600354600160c01b900463ffffffff16155b905090565b6122d1613175565b6122d961229b565b6122f6576040516386e2123960e01b815260040160405180910390fd5b8381805182511461231a57604051631d3c4ecb60e31b815260040160405180910390fd5b6000805b835181101561235657828181518110612339576123396149aa565b60200260200101518261234c91906149d6565b915060010161231e565b508034101561237857604051631144943160e21b815260040160405180910390fd5b865186518114158061238b575080865114155b156123a957604051631d3c4ecb60e31b815260040160405180910390fd5b63b85a2ce160e01b60005b8281101561245c576000828a83815181106123d1576123d16149aa565b60200260200101518a84815181106123eb576123eb6149aa565b602002602001015160405160200161242b939291906001600160e01b03199390931683526001600160a01b03918216602084015216604082015260600190565b604051602081830303815290604052905061245383828d858151811061114e5761114e6149aa565b506001016123b4565b50505050505050505050565b60008061247460005490565b905060005b8181101561256f57600061248c82613713565b6040805160808101825291546001600160a01b038116835263ffffffff600160a01b820481166020850152600160c01b8204811692840192909252600160e01b900416606082018190529091501561256657604051636018660f60e01b815273__$c9b295241042fdfde6acd02a7cacb6a640$__90636018660f90612518906000908590600401614baa565b602060405180830381865af4158015612535573d6000803e3d6000fd5b505050506040513d601f19601f820116820180604052508101906125599190614bbe565b61256390856149d6565b93505b50600101612479565b505090565b61257c613175565b61258461229b565b6125a1576040516386e2123960e01b815260040160405180910390fd5b838380806020026020016040519081016040528093929190818152602001838360200280828437600092019190915250506040805160208087028281018201909352868252909350869250859182918501908490808284376000920191909152505082518451149150612629905057604051631d3c4ecb60e31b815260040160405180910390fd5b6000805b835181101561266557828181518110612648576126486149aa565b60200260200101518261265b91906149d6565b915060010161262d565b508034101561268757604051631144943160e21b815260040160405180910390fd5b61268f6131a7565b6040805163e4a7c60360e01b60208201819052916000910161142e565b60405163c0c53f1d60e01b8152606090819073__$c9b295241042fdfde6acd02a7cacb6a640$__9063c0c53f1d906126eb906000908790600401614bd7565b600060405180830381865af4158015612708573d6000803e3d6000fd5b505050506040513d6000823e601f3d908101601f191682016040526127309190810190614cf6565b9094909350915050565b612742611ee0565b6001600160a01b0316336001600160a01b03161415801561277657506004546001600160a01b031615806127765750333014155b1561279457604051633b4e61ad60e01b815260040160405180910390fd5b600680546001600160a01b0319166001600160a01b03848116918217909255604051634463315560e11b815291831660048301526000916388c662aa90602401602060405180830381865afa1580156127f1573d6000803e3d6000fd5b505050506040513d601f19601f820116820180604052508101906128159190614d4f565b90506001600160a01b03811661283e57604051630352b0d160e41b815260040160405180910390fd5b60065460405163708728eb60e11b81526001600160a01b038481166004830152600092169063e10e51d690602401602060405180830381865afa158015612889573d6000803e3d6000fd5b505050506040513d601f19601f820116820180604052508101906128ad9190614d4f565b90506001600160a01b03821630148015906128d157506001600160a01b0381163014155b156128ef57604051633170a38d60e01b815260040160405180910390fd5b600780546001600160a01b0319166001600160a01b0385811691821790925560408051928716835260208301919091527fc8d09d7710e05a8ef2f307dcf13f859ce7e661b3eee1a04a57c4d481758a6c1d910160405180910390a1610923611d04565b6004546001600160a01b0316158061296a5750333014155b15612988576040516312ab28a760e11b815260040160405180910390fd5b61195a6131a7565b60008061299c836107f0565b604051636018660f60e01b815290915073__$c9b295241042fdfde6acd02a7cacb6a640$__90636018660f906129d9906000908590600401614baa565b602060405180830381865af41580156129f6573d6000803e3d6000fd5b505050506040513d601f19601f82011682018060405250810190612a1a9190614bbe565b9392505050565b612a29613175565b6001600160a01b038116612a5857604051631e4fbdf760e01b8152600060048201526024015b60405180910390fd5b612a61816136a2565b50565b612a6c611ee0565b6001600160a01b0316336001600160a01b031614158015612aa057506004546001600160a01b03161580612aa05750333014155b15612abe57604051633b4e61ad60e01b815260040160405180910390fd5b6001600160a01b038316612ae55760405163bb4bcc3b60e01b815260040160405180910390fd5b60038054640100000000600160e01b031916600160201b6001600160a01b0386811691820263ffffffff60c01b191692909217600160c01b63ffffffff871690810291909117909355600480546001600160a01b0319169285169283179055604080519182526020820193909352918201527f21ae9d1c05d009b6af15c73821748e22e498496e2b29672090c67ae892322d6f9060600160405180910390a1505050565b6003546060908490849063ffffffff808316600160c01b90920416141580612bbf57506004546001600160a01b03838116911614155b80612be55750600354600160201b90046001600160a01b0316336001600160a01b031614155b15612c035760405163b36b498160e01b815260040160405180910390fd5b600084806020019051810190612c199190614d89565b90506060631541933960e31b6001600160e01b0319831601612ca857600080600088806020019051810190612c4e9190614da4565b9350935093505084838383604051602401612c6b93929190614e30565b60408051601f198184030181529190526020810180516001600160e01b03166001600160e01b031990931692909217909152935061305592505050565b63b05df5d760e01b6001600160e01b0319831601612d2c5760008087806020019051810190612cd79190614e43565b9250925050838282604051602401612cf0929190614806565b60408051601f198184030181529190526020810180516001600160e01b03166001600160e01b0319909316929092179091529250613055915050565b6371a73aa360e01b6001600160e01b0319831601612dbd5760008060008089806020019051810190612d5e9190614eac565b9450945094509450508584848484604051602401612d7f9493929190614f5c565b60408051601f198184030181529190526020810180516001600160e01b03166001600160e01b03199093169290921790915294506130559350505050565b631b5839fd60e01b6001600160e01b0319831601612e0757506040805160048152602481019091526020810180516001600160e01b03166001600160e01b03198416179052613055565b63723ea86f60e01b6001600160e01b0319831601612e4f5760008087806020019051810190612e369190614f95565b9250925050838282604051602401612cf0929190614feb565b632fea4ffd60e11b6001600160e01b0319831601612e7e5760008087806020019051810190612e369190614f95565b63024c7f2b60e21b6001600160e01b0319831601612ee857600080600088806020019051810190612eaf9190615013565b6040516001600160a01b03808516602483015263ffffffff84166044830152821660648201529296509094509250869150608401612c6b565b6347a5d31f60e01b6001600160e01b0319831601612f415760008087806020019051810190612f17919061506f565b6040516001600160a01b038084166024830152821660448201529194509250859150606401612cf0565b6362847abb60e01b6001600160e01b0319831601612fc557600086806020019051810190612f6f91906150ae565b6040516001600160a01b038216602482015290925084915060440160408051601f198184030181529190526020810180516001600160e01b03166001600160e01b03199093169290921790915291506130559050565b631fc7f1d160e21b6001600160e01b031983160161300f57506040805160048152602481019091526020810180516001600160e01b03166001600160e01b03198416179052613055565b63c8e4ad1d60e01b6001600160e01b031983160161305557506040805160048152602481019091526020810180516001600160e01b03166001600160e01b031984161790525b600080306001600160a01b03168360405161307091906150da565b6000604051808303816000865af19150503d80600081146130ad576040519150601f19603f3d011682016040523d82523d6000602084013e6130b2565b606091505b5091509150836001600160e01b0319168963ffffffff168e7f1291b044e5e68ff17a19703d0775336ad7ec700ef5679fbd11bd0084af55baf3858e60405161310f92919091151582526001600160a01b0316602082015260400190565b60405180910390a49c9b505050505050505050505050565b6001600160a01b0381166000908152600260205260408120548060000361316c5760405163c6040d1d60e01b81526001600160a01b0384166004820152602401612a4f565b612a1a81613952565b3361317e611ee0565b6001600160a01b03161461195a5760405163118cdaa760e01b8152336004820152602401612a4f565b4260006131b360005490565b905060005b818110156132e85760006131cb82613713565b8054909150600090600160e01b900463ffffffff1615613297578154600090600160a01b900463ffffffff1661320f578254600160c01b900463ffffffff16613219565b60035463ffffffff165b9050600061322782886150f6565b845463ffffffff918216925060649161324891600160e01b9004168361511a565b6132529190615131565b845490935083908590601490613276908490600160a01b900463ffffffff16615153565b92506101000a81548163ffffffff021916908363ffffffff16021790555050505b815460405163ffffffff831681526001600160a01b03909116907f780f517310a8481b4817e26f9d1a336e49e7522775e8e6b4fb22c73908be6ce69060200160405180910390a250506001016131b8565b506040805163ffffffff84168152602081018390527f896e364af402e453909cff1f8bb117d283d37a717e7cf4a5c5b88be2197fa09f910160405180910390a1506003805463ffffffff191663ffffffff92909216919091179055565b600080613351846126ac565b600654600754604051637677856760e11b81529395509193506001600160a01b039081169263ecef0ace92613390921690869086908990600401615170565b600060405180830381600087803b1580156133aa57600080fd5b505af11580156133be573d6000803e3d6000fd5b5050505060008282856040516020016133d9939291906151be565b60408051601f1981840301815282825280516020918201206007546001600160a01b0316845290830181905263ffffffff87168383015290519092507fd4b7a01ea5a8b6ac341311c6e426730790e70b6ca9c8d9adee240379b5e81c289181900360600190a15050505050565b60005b82518110156121bd576134838585858481518110613469576134696149aa565b6020026020010151858581518110611168576111686149aa565b600101613449565b613493613a36565b6001600160a01b0386166134ba5760405163bb4bcc3b60e01b815260040160405180910390fd5b60006001600160a01b038216156134d157816134d3565b335b90506134de81613a7f565b6001600160a01b03821661351b576001600160a01b03851661351357604051635413b8d760e11b815260040160405180910390fd5b61351b611948565b6135288787878787613a90565b50505050505050565b8251825181141580613544575080825114155b1561356257604051630533bc9360e21b815260040160405180910390fd5b60005b818110156121bd576135b6858281518110613582576135826149aa565b602002602001015185838151811061359c5761359c6149aa565b602002602001015185848151811061201e5761201e6149aa565b600101613565565b8151815181146135e157604051630533bc9360e21b815260040160405180910390fd5b60005b818110156109235761361b848281518110613601576136016149aa565b60200260200101518483815181106120e6576120e66149aa565b6001016135e4565b6000613630838584613b15565b63ffffffff8416600081815260056020908152604091829020549151600160201b9092046001600160a01b031682529293506001600160e01b031988169284917f20ffb62aa5e31e4b559317e8af8f877e19a9126fd6ff1fee93bcf06e59d385cc910160405180910390a45050505050565b7f9016d09d72d40fdae2fd8ceac6b6234c7706214fd39c1cd1e609a0528c19930080546001600160a01b031981166001600160a01b03848116918217845560405192169182907f8be0079c531659141344cd1fd0a4f28419497f9722a3daafe3b4186f6b6457e090600090a3505050565b600080600001828154811061372a5761372a6149aa565b906000526020600020019050919050565b6001600160a01b03831661376d57604051633899e57b60e01b81526001600160a01b0384166004820152602401612a4f565b6001600160a01b038316600090815260026020526040902054156137af57604051636822fa9960e11b81526001600160a01b0384166004820152602401612a4f565b606463ffffffff831611156137ee5760405163424f515b60e11b81526001600160a01b038416600482015263ffffffff83166024820152604401612a4f565b428163ffffffff16111561382c5760405163faac476360e01b81526001600160a01b038416600482015263ffffffff82166024820152604401612a4f565b604080516080810182526001600160a01b038086168083526000602080850182815263ffffffff8881168789019081528a82166060890190815285546001818101885587805299517f290decd9548b62a8d60345a988386fc84ba6bc95484008f6362f93160ef3e56390910180549551935192518516600160e01b026001600160e01b03938616600160c01b02939093166001600160c01b0394909516600160a01b026001600160c01b031990961691909916179390931716171790935583548401938490558181526002909252908390209190915590517f13ca1f9a974ca1b85618843282dc1981c63a62c389aa5cf6e4a31937f8434e7390613945908490869063ffffffff92831681529116602082015260400190565b60405180910390a2505050565b6000613967613962600184614b97565b613713565b92915050565b606463ffffffff821611156139ac5760405163424f515b60e11b81526001600160a01b038316600482015263ffffffff82166024820152604401612a4f565b60006139b783613127565b805463ffffffff848116600160e01b81026001600160e01b039093169290921780845560408051938452600160c01b820483166020850152600160a01b909104909116908201529091506001600160a01b038416907f59f55668c694024ea61bdb5bb12ea8897197f9d9825fa7bee1195e263b64472790606001613945565b7ff0c57e16840df040f15088dc2f81fe391c3923bec73e23a9662efc9c229c6a0054600160401b900460ff1661195a57604051631afcd79f60e31b815260040160405180910390fd5b613a87613a36565b612a6181613c18565b613a98613a36565b6003805463ffffffff909516600160c01b0263ffffffff60c01b196001600160a01b03978816600160201b0216640100000000600160e01b03199096169590951794909417909355600480549285166001600160a01b03199384161790556006805491851691831691909117905560078054929093169116179055565b63ffffffff83166000908152600560205260408120548490600160201b90046001600160a01b0316613b6157604051628adb6d60e11b815263ffffffff82166004820152602401612a4f565b60035463ffffffff808716600090815260056020526040808220805460019091015491516345560b5d60e11b81526001600160a01b03600160201b96879004811696638aac16ba968b96613bcc96918616959290920483169391921690829081908e90600401615243565b60206040518083038185885af1158015613bea573d6000803e3d6000fd5b50505050506040513d601f19601f82011682018060405250810190613c0f9190614bbe565b95945050505050565b612a29613a36565b6001600160a01b0381168114612a6157600080fd5b600060208284031215613c4757600080fd5b8135612a1a81613c20565b80516001600160a01b0316825260208082015163ffffffff9081169184019190915260408083015182169084015260609182015116910152565b608081016139678284613c52565b634e487b7160e01b600052604160045260246000fd5b604051601f8201601f191681016001600160401b0381118282101715613cd857613cd8613c9a565b604052919050565b60006001600160401b03821115613cf957613cf9613c9a565b5060051b60200190565b600082601f830112613d1457600080fd5b81356020613d29613d2483613ce0565b613cb0565b82815260059290921b84018101918181019086841115613d4857600080fd5b8286015b84811015613d6c578035613d5f81613c20565b8352918301918301613d4c565b509695505050505050565b63ffffffff81168114612a6157600080fd5b60008083601f840112613d9b57600080fd5b5081356001600160401b03811115613db257600080fd5b6020830191508360208260051b8501011115613dcd57600080fd5b9250929050565b60008060008060008060808789031215613ded57600080fd5b86356001600160401b0380821115613e0457600080fd5b613e108a838b01613d03565b975060208901359150613e2282613d77565b90955060408801359080821115613e3857600080fd5b613e448a838b01613d89565b90965094506060890135915080821115613e5d57600080fd5b50613e6a89828a01613d89565b979a9699509497509295939492505050565b600082601f830112613e8d57600080fd5b81356001600160401b03811115613ea657613ea6613c9a565b613eb9601f8201601f1916602001613cb0565b818152846020838601011115613ece57600080fd5b816020850160208301376000918101602001919091529392505050565b600060208284031215613efd57600080fd5b81356001600160401b03811115613f1357600080fd5b613f1f84828501613e7c565b949350505050565b600082601f830112613f3857600080fd5b81356020613f48613d2483613ce0565b82815260059290921b84018101918181019086841115613f6757600080fd5b8286015b84811015613d6c578035613f7e81613d77565b8352918301918301613f6b565b600080600080600080600060a0888a031215613fa657600080fd5b87356001600160401b0380821115613fbd57600080fd5b613fc98b838c01613d03565b985060208a0135915080821115613fdf57600080fd5b613feb8b838c01613f27565b975060408a013591508082111561400157600080fd5b61400d8b838c01613f27565b965060608a013591508082111561402357600080fd5b61402f8b838c01613d89565b909650945060808a013591508082111561404857600080fd5b506140558a828b01613d89565b989b979a50959850939692959293505050565b6000806040838503121561407b57600080fd5b82356001600160401b038082111561409257600080fd5b61409e86838701613d03565b935060208501359150808211156140b457600080fd5b506140c185828601613f27565b9150509250929050565b600080600080600080608087890312156140e457600080fd5b86356001600160401b03808211156140fb57600080fd5b6141078a838b01613d03565b9750602089013591508082111561411d57600080fd5b6141298a838b01613f27565b96506040890135915080821115613e3857600080fd5b600082601f83011261415057600080fd5b81356020614160613d2483613ce0565b82815260059290921b8401810191818101908684111561417f57600080fd5b8286015b84811015613d6c5780358352918301918301614183565b600080600080600060a086880312156141b257600080fd5b85356001600160401b03808211156141c957600080fd5b6141d589838a01613f27565b965060208801359150808211156141eb57600080fd5b6141f789838a01613d03565b9550604088013591508082111561420d57600080fd5b61421989838a01613f27565b9450606088013591508082111561422f57600080fd5b61423b89838a01613d03565b9350608088013591508082111561425157600080fd5b5061425e8882890161413f565b9150509295509295909350565b60008060006060848603121561428057600080fd5b83356001600160401b038082111561429757600080fd5b6142a387838801613d03565b945060208601359150808211156142b957600080fd5b6142c587838801613f27565b935060408601359150808211156142db57600080fd5b506142e886828701613f27565b9150509250925092565b6000806000806040858703121561430857600080fd5b84356001600160401b038082111561431f57600080fd5b61432b88838901613d89565b9096509450602087013591508082111561434457600080fd5b5061435187828801613d89565b95989497509550505050565b60006020828403121561436f57600080fd5b81356001600160401b0381111561438557600080fd5b613f1f84828501613d03565b600081518084526020808501945080840160005b838110156143c757815163ffffffff16875295820195908201906001016143a5565b509495945050505050565b6060815260006143e56060830186614391565b82810360208401526143f78186614391565b9050828103604084015261440b8185614391565b9695505050505050565b60008060006060848603121561442a57600080fd5b83356001600160401b038082111561444157600080fd5b61444d87838801613f27565b9450602086013591508082111561446357600080fd5b61446f87838801613d03565b9350604086013591508082111561448557600080fd5b506142e88682870161413f565b60008082840360808112156144a657600080fd5b83356144b181613d77565b92506060601f19820112156144c557600080fd5b50604051606081018181106001600160401b03821117156144e8576144e8613c9a565b60405260208401356144f981613d77565b8152604084013561450981613c20565b6020820152606084013561451c81613c20565b6040820152919491935090915050565b60008060008060006060868803121561454457600080fd5b85356001600160401b038082111561455b57600080fd5b61456789838a01613d03565b9650602088013591508082111561457d57600080fd5b61458989838a01613d89565b909650945060408801359150808211156145a257600080fd5b506145af88828901613d89565b969995985093965092949392505050565b600080604083850312156145d357600080fd5b50508035926020909101359150565b6020808252825182820181905260009190848201906040850190845b8181101561462457614611838551613c52565b92840192608092909201916001016145fe565b50909695505050505050565b6000806040838503121561464357600080fd5b82356001600160401b0381111561465957600080fd5b61466585828601613d03565b925050602083013561467681613d77565b809150509250929050565b6000806000806080858703121561469757600080fd5b84356001600160401b03808211156146ae57600080fd5b6146ba88838901613d03565b955060208701359150808211156146d057600080fd5b6146dc88838901613f27565b945060408701359150808211156146f257600080fd5b6146fe88838901613f27565b9350606087013591508082111561471457600080fd5b5061472187828801613f27565b91505092959194509250565b6000806000806080858703121561474357600080fd5b84356001600160401b038082111561475a57600080fd5b61476688838901613f27565b9550602087013591508082111561477c57600080fd5b61478888838901613d03565b9450604087013591508082111561479e57600080fd5b6147aa88838901613d03565b935060608701359150808211156147c057600080fd5b506147218782880161413f565b600081518084526020808501945080840160005b838110156143c75781516001600160a01b0316875295820195908201906001016147e1565b60408152600061481960408301856147cd565b8281036020840152613c0f8185614391565b6000806040838503121561483e57600080fd5b823561484981613c20565b9150602083013561467681613c20565b60006020828403121561486b57600080fd5b8135612a1a81613d77565b60008060006060848603121561488b57600080fd5b833561489681613c20565b925060208401356148a681613d77565b915060408401356148b681613c20565b809150509250925092565b60008060008060008060c087890312156148da57600080fd5b863595506020870135945060408701356148f381613c20565b9350606087013561490381613c20565b9250608087013561491381613d77565b915060a08701356001600160401b0381111561492e57600080fd5b61493a89828a01613e7c565b9150509295509295509295565b60005b8381101561496257818101518382015260200161494a565b50506000910152565b60008151808452614983816020860160208601614947565b601f01601f19169290920160200192915050565b602081526000612a1a602083018461496b565b634e487b7160e01b600052603260045260246000fd5b634e487b7160e01b600052601160045260246000fd5b80820180821115613967576139676149c0565b63ffffffff60e01b84168152606060208201526000614a0b60608301856147cd565b905063ffffffff83166040830152949350505050565b60008060008060008060c08789031215614a3a57600080fd5b8651614a4581613c20565b6020880151909650614a5681613d77565b6040880151909550614a6781613c20565b6060880151909450614a7881613c20565b6080880151909350614a8981613c20565b60a0880151909250614a9a81613c20565b809150509295509295509295565b63ffffffff60e01b85168152608060208201526000614aca60808301866147cd565b8281036040840152614adc8186614391565b90508281036060840152614af08185614391565b979650505050505050565b63ffffffff60e01b84168152606060208201526000614b1d60608301856147cd565b828103604084015261440b8185614391565b63ffffffff60e01b8616815260a060208201526000614b5160a08301876147cd565b8281036040840152614b638187614391565b90508281036060840152614b778186614391565b90508281036080840152614b8b8185614391565b98975050505050505050565b81810381811115613967576139676149c0565b82815260a08101612a1a6020830184613c52565b600060208284031215614bd057600080fd5b5051919050565b6000604082018483526020604081850152818551808452606086019150828701935060005b81811015614c215784516001600160a01b031683529383019391830191600101614bfc565b5090979650505050505050565b600082601f830112614c3f57600080fd5b81516020614c4f613d2483613ce0565b82815260059290921b84018101918181019086841115614c6e57600080fd5b8286015b84811015613d6c578051614c8581613c20565b8352918301918301614c72565b600082601f830112614ca357600080fd5b81516020614cb3613d2483613ce0565b82815260059290921b84018101918181019086841115614cd257600080fd5b8286015b84811015613d6c578051614ce981613d77565b8352918301918301614cd6565b60008060408385031215614d0957600080fd5b82516001600160401b0380821115614d2057600080fd5b614d2c86838701614c2e565b93506020850151915080821115614d4257600080fd5b506140c185828601614c92565b600060208284031215614d6157600080fd5b8151612a1a81613c20565b80516001600160e01b031981168114614d8457600080fd5b919050565b600060208284031215614d9b57600080fd5b612a1a82614d6c565b60008060008060808587031215614dba57600080fd5b614dc385614d6c565b935060208501516001600160401b0380821115614ddf57600080fd5b614deb88838901614c2e565b94506040870151915080821115614e0157600080fd5b614e0d88838901614c92565b93506060870151915080821115614e2357600080fd5b5061472187828801614c92565b6060815260006143e560608301866147cd565b600080600060608486031215614e5857600080fd5b614e6184614d6c565b925060208401516001600160401b0380821115614e7d57600080fd5b614e8987838801614c2e565b93506040860151915080821115614e9f57600080fd5b506142e886828701614c92565b600080600080600060a08688031215614ec457600080fd5b614ecd86614d6c565b945060208601516001600160401b0380821115614ee957600080fd5b614ef589838a01614c2e565b95506040880151915080821115614f0b57600080fd5b614f1789838a01614c92565b94506060880151915080821115614f2d57600080fd5b614f3989838a01614c92565b93506080880151915080821115614f4f57600080fd5b5061425e88828901614c92565b608081526000614f6f60808301876147cd565b8281036020840152614f818187614391565b90508281036040840152614adc8186614391565b600080600060608486031215614faa57600080fd5b614fb384614d6c565b925060208401516001600160401b03811115614fce57600080fd5b614fda86828701614c2e565b92505060408401516148b681613d77565b604081526000614ffe60408301856147cd565b905063ffffffff831660208301529392505050565b6000806000806080858703121561502957600080fd5b61503285614d6c565b9350602085015161504281613c20565b604086015190935061505381613d77565b606086015190925061506481613c20565b939692955090935050565b60008060006060848603121561508457600080fd5b61508d84614d6c565b9250602084015161509d81613c20565b60408501519092506148b681613c20565b600080604083850312156150c157600080fd5b6150ca83614d6c565b9150602083015161467681613c20565b600082516150ec818460208701614947565b9190910192915050565b63ffffffff828116828216039080821115615113576151136149c0565b5092915050565b8082028115828204841417613967576139676149c0565b60008261514e57634e487b7160e01b600052601260045260246000fd5b500490565b63ffffffff818116838216019080821115615113576151136149c0565b6001600160a01b0385168152608060208201819052600090615194908301866147cd565b82810360408401526151a68186614391565b91505063ffffffff8316606083015295945050505050565b835160009082906020808801845b838110156151f15781516001600160a01b0316855293820193908201906001016151cc565b5050865181880193925060005b8181101561522057845163ffffffff16845293820193928201926001016151fe565b50505060e09490941b6001600160e01b0319168452505060049091019392505050565b63ffffffff881681526001600160a01b0387811660208301528681166040830152851660608201526080810184905260a0810183905260e060c082018190526000906152919083018461496b565b999850505050505050505056fea164736f6c6343000815000a",
  "libraries": {
    "PGContribCalculator": "0x4bB8B77C13a17E9704c6212509ED0D572619e3b0"
  },
  "devdoc": {
    "author": "DAOHaus",
    "details": "Uses Connext XApp architecture to manage main + multiple replica registries across different networks. Features and important things to consider: - There are syncing methods for adding/updating members, update registry activity & split funds across networks. - Funds are escrowed in a 0xSplit contract so in order to split funds the NetworkRegistry must be set   as the controller. - A NetworkRegistry contract can be setup either as the main registry (updater == address(0)) or as a replica. - A main NetworkRegistry should be owned by the community (i.e. Safe or a DAO) - A replica NetworkRegistry must set the `updater` role to the main registry address and be registered in the main   NetworkRegistry in order to get in sync. - A replica NetworkRegistry should not be owned by anyone so it can only be controlled by the main registry (updater)   however another Safe or DAO in the replica network can act as a trusted delegate in case of a halt of the Connext   bridge which could potentially froze the 0xSplit funds as the replica NetworkRegistry and thus its controller will   become inaccessible.",
    "errors": {
      "InvalidInitialization()": [
        {
          "details": "The contract is already initialized."
        }
      ],
      "InvalidMember__ActivityMultiplier(address,uint32)": [
        {
          "params": {
            "_activityMultiplier": "activity multiplier",
            "_memberAddress": "member address"
          }
        }
      ],
      "InvalidMember__Address(address)": [
        {
          "params": {
            "_memberAddress": "submitted member address"
          }
        }
      ],
      "InvalidMember__StartDateInTheFuture(address,uint32)": [
        {
          "params": {
            "_memberAddress": "member address",
            "_startDate": "start date in seconds"
          }
        }
      ],
      "Member__AlreadyRegistered(address)": [
        {
          "params": {
            "_memberAddress": "member address"
          }
        }
      ],
      "Member__NotRegistered(address)": [
        {
          "params": {
            "_memberAddress": "member address"
          }
        }
      ],
      "NotInitializing()": [
        {
          "details": "The contract is not initializing."
        }
      ],
      "OwnableInvalidOwner(address)": [
        {
          "details": "The owner is not a valid owner account. (eg. `address(0)`)"
        }
      ],
      "OwnableUnauthorizedAccount(address)": [
        {
          "details": "The caller account is not authorized to perform an operation."
        }
      ]
    },
    "events": {
      "Initialized(uint64)": {
        "details": "Triggered when the contract has been initialized or reinitialized."
      },
      "NetworkRegistryUpdated(uint32,address,uint32,address)": {
        "params": {
          "_chainId": "network chainId where the replica lives",
          "_delegate": "Delegate address in case of a bridge tx failure (currently not in use)",
          "_domainId": "Connext domain ID that correspond to the network where the replica lives",
          "_registryAddress": "replica contract address"
        }
      },
      "NewMember(address,uint32,uint32)": {
        "params": {
          "_activityMultiplier": "member activity multiplier",
          "_memberAddress": "member address",
          "_startDate": "timestamp the member started activities in seconds"
        }
      },
      "NewUpdaterConfig(address,uint32,address)": {
        "params": {
          "_connext": "Connext contract address",
          "_updater": "new Updater address",
          "_updaterDomain": "new Updater domain ID"
        }
      },
      "RegistryActivityUpdate(uint32,uint256)": {
        "params": {
          "_timestamp": "timestamp registry activity update epoch was executed",
          "_totalMemberUpdates": "total updated members during the epoch"
        }
      },
      "SplitUpdated(address,address)": {
        "params": {
          "_split": "new 0xSplitWallet contract address",
          "_splitMain": "new 0xSplitMain contract address"
        }
      },
      "SplitsDistributionUpdated(address,bytes32,uint32)": {
        "params": {
          "_split": "0xSplit contract address",
          "_splitDistributorFee": "split fee set at reward for the address that executes the distribution",
          "_splitHash": "hash of the split distribution parameters"
        }
      },
      "SyncActionPerformed(bytes32,uint32,bytes4,bool,address)": {
        "params": {
          "_action": "Function selector for the action executed on the replica",
          "_originDomain": "Connext domain ID that correspond to the network where the sync message was submitted",
          "_originSender": "main NetworkRegistry address that forwarded the sync message through the Connext bridge",
          "_success": "Whether or not the action execution succeeded",
          "_transferId": "transfer ID returned by Connext that identifies the received xCall message"
        }
      },
      "SyncMessageSubmitted(bytes32,uint32,bytes4,address)": {
        "params": {
          "_action": "Function selector for the action to be executed on the replica",
          "_chainId": "chainId of the destination network",
          "_registryAddress": "replica NetworkRegistry address",
          "_transferId": "Transfer ID returned by Connext to identify the executed xCall"
        }
      },
      "UpdateMember(address,uint32,uint32,uint32)": {
        "params": {
          "_activityMultiplier": "new member activity multiplier",
          "_memberAddress": "member address",
          "_secondsActive": "member seconds active since last update",
          "_startDate": "timestamp the member started activities in seconds"
        }
      },
      "UpdateMemberSeconds(address,uint32)": {
        "params": {
          "_memberAddress": "member address",
          "_secondsActive": "member activity in seconds since last registry update"
        }
      }
    },
    "kind": "dev",
    "methods": {
      "acceptNetworkSplitControl(uint32[],uint256[])": {
        "details": "Callable by main registry owner",
        "params": {
          "_chainIds": "a list of network chainIds where valid replicas live",
          "_relayerFees": "a list of fees to be paid to the Connext relayer per sync message forwarded"
        }
      },
      "acceptSplitControl()": {
        "details": "Callable on both main and replica registries"
      },
      "addOrUpdateMembersBatch(address[],uint32[],uint32[],uint32[])": {
        "details": "Callable on a replica registry through the Connext bridge. The syncNetworkMemberRegistry function ensures that array params will always be the same length so there is no need for args validation",
        "params": {
          "_activityMultipliers": "Activity multipliers for each new member",
          "_members": "A list of member addresses to be added to the registry",
          "_secondsActive": "A list of members reported activity in seconds",
          "_startDates": "A list of dates when each member got active"
        }
      },
      "batchNewMembers(address[],uint32[],uint32[])": {
        "details": "Callable on a replica registry through the Connext bridge",
        "params": {
          "_activityMultipliers": "Activity multipliers for each new member",
          "_members": "A list of member addresses to be added to the registry",
          "_startDates": "A list of dates when each member got active"
        }
      },
      "batchUpdateMembersActivity(address[],uint32[])": {
        "details": "Callable on a replica registry through the Connext bridge",
        "params": {
          "_activityMultipliers": "New activity multipliers for each member",
          "_members": "A list of existing members"
        }
      },
      "calculate(address[])": {
        "details": "It uses the PGContribCalculator library to calculate member allocations",
        "params": {
          "_sortedList": "sorted list (ascending order) of members to be considered in the 0xSplit distribution"
        },
        "returns": {
          "_percentAllocations": "list of split allocations for each eligible recipient",
          "_receivers": "list of eligible recipients (non-zero allocation) for the next split distribution"
        }
      },
      "calculateContributionOf(address)": {
        "details": "It uses the PGContribCalculator library",
        "params": {
          "_memberAddress": "member address"
        },
        "returns": {
          "_0": "calculated contribution as uin256 value"
        }
      },
      "calculateTotalContributions()": {
        "details": "omit members with activityMultiplier == 0",
        "returns": {
          "total": "calculated contributions from active members"
        }
      },
      "cancelNetworkSplitControlTransfer(uint32[],uint256[])": {
        "details": "Callable by main registry owner",
        "params": {
          "_chainIds": "a list of network chainIds where valid replicas live",
          "_relayerFees": "a list of fees to be paid to the Connext relayer per sync message forwarded"
        }
      },
      "cancelSplitControlTransfer()": {
        "details": "Callable on both main and replica registries"
      },
      "getMember(address)": {
        "details": "It throws an exception if member is not in the db",
        "params": {
          "_memberAddress": "member address"
        },
        "returns": {
          "member": "metadata"
        }
      },
      "getMembers()": {
        "details": "In case of a growing number of members in the registry it is recommended to use {getMembersPaginated}",
        "returns": {
          "_0": "an array of Members in the registry"
        }
      },
      "getMembersPaginated(uint256,uint256)": {
        "params": {
          "_fromIndex": "starting index in Member's db",
          "_toIndex": "ending index in Member's db"
        },
        "returns": {
          "memberList": "an array of Members in the registry"
        }
      },
      "getMembersProperties(address[])": {
        "details": "Function should revert if any address in _memberAddrs is not registered",
        "params": {
          "_members": "list of registered member addresses"
        },
        "returns": {
          "_0": "list of member activity multipliers",
          "_1": "list of member start dates",
          "_2": "list of member seconds active"
        }
      },
      "initialize(bytes)": {
        "details": "Initialization parameters are abi-encoded (i.e. through the NetworkRegistrySummoner contract)",
        "params": {
          "_initializationParams": "abi-encoded parameters"
        }
      },
      "isMainRegistry()": {
        "details": "Verifies if updater params are set to zero"
      },
      "owner()": {
        "details": "Returns the address of the current owner."
      },
      "renounceOwnership()": {
        "details": "Leaves the contract without owner. It will not be possible to call `onlyOwner` functions. Can only be called by the current owner. NOTE: Renouncing ownership will leave the contract without an owner, thereby disabling any functionality that is only available to the owner."
      },
      "setNetworkUpdaterConfig(uint32[],address[],uint32[],address[],uint256[])": {
        "details": "Callable by main registry owner",
        "params": {
          "_chainIds": "a list of network chainIds where valid replicas live",
          "_connextAddrs": "a list Connext bridge addresses to be used on each replica",
          "_relayerFees": "a list of fees to be paid to the Connext relayer per sync message forwarded",
          "_updaterAddrs": "a list of updater role addresses to be used on each replica",
          "_updaterDomains": "a list of Connext updater domain IDs to be used on each replica"
        }
      },
      "setSplit(address,address)": {
        "details": "Callable on both main and replica registries",
        "params": {
          "_split": "The address of the 0xSplit contract",
          "_splitMain": "The address of the 0xSplitMain"
        }
      },
      "setUpdaterConfig(address,uint32,address)": {
        "details": "Callable on both main and replica registries",
        "params": {
          "_connext": "Connext contract address",
          "_updater": "Main NetworkRegistry address that will update the replica registry using the Connext bridge",
          "_updaterDomain": "Connext domain ID where the Updater lives"
        }
      },
      "syncBatchNewMembers(address[],uint32[],uint32[],uint32[],uint256[])": {
        "details": "Callable by the main registry owner",
        "params": {
          "_activityMultipliers": "A list of activity multipliers for each new member",
          "_chainIds": "a list of network chainIds where valid replicas live",
          "_members": "A list of member addresses to be added to the registry",
          "_relayerFees": "a list of fees to be paid to the Connext relayer per sync message forwarded",
          "_startDates": "A list of dates when each member got active"
        }
      },
      "syncBatchUpdateMembersActivity(address[],uint32[],uint32[],uint256[])": {
        "details": "Callable by the main registry owner",
        "params": {
          "_activityMultipliers": "A list of new activity multipliers for each member",
          "_chainIds": "a list of network chainIds where valid replicas live",
          "_members": "A list of existing members",
          "_relayerFees": "a list of fees to be paid to the Connext relayer per sync message forwarded"
        }
      },
      "syncNetworkMemberRegistry(address[],uint32[],uint256[])": {
        "details": "Callable by the main registry owner",
        "params": {
          "_chainIds": "a list of network chainIds where valid replicas live",
          "_members": "list of member addresses you look to sync",
          "_relayerFees": "a list of fees to be paid to the Connext relayer per sync message forwarded"
        }
      },
      "syncUpdateAll(address[],uint32,uint32[],uint256[])": {
        "details": "Callable by the main registry owner - Addresses in _sortedList must be in the member registry",
        "params": {
          "_chainIds": "a list of network chainIds where valid replicas live",
          "_relayerFees": "a list of fees to be paid to the Connext relayer per sync message forwarded",
          "_sortedList": "sorted list (ascending order) of members to be considered in the 0xSplit distribution",
          "_splitDistributorFee": "split fee set as reward for the address that executes the distribution"
        }
      },
      "syncUpdateSecondsActive(uint32[],uint256[])": {
        "details": "Callable by the main registry owner",
        "params": {
          "_chainIds": "a list of network chainIds where valid replicas live",
          "_relayerFees": "a list of fees to be paid to the Connext relayer per sync message forwarded"
        }
      },
      "syncUpdateSplits(address[],uint32,uint32[],uint256[])": {
        "details": "Callable by the main registry owner. - Addresses in _sortedList must be in the member registry",
        "params": {
          "_chainIds": "a list of network chainIds where valid replicas live",
          "_relayerFees": "a list of fees to be paid to the Connext relayer per sync message forwarded",
          "_sortedList": "sorted list (ascending order) of members to be considered in the 0xSplit distribution",
          "_splitDistributorFee": "split fee set as reward for the address that executes the distribution"
        }
      },
      "totalMembers()": {
        "returns": {
          "_0": "total members in the registry"
        }
      },
      "transferNetworkSplitControl(uint32[],address[],uint256[])": {
        "details": "Callable by main registry owner",
        "params": {
          "_chainIds": "a list of network chainIds where valid replicas live",
          "_newControllers": "new controller address per replica",
          "_relayerFees": "a list of fees to be paid to the Connext relayer per sync message forwarded"
        }
      },
      "transferOwnership(address)": {
        "details": "Transfers ownership of the contract to a new account (`newOwner`). Can only be called by the current owner."
      },
      "transferSplitControl(address)": {
        "details": "Callable on both main and replica registries",
        "params": {
          "_newController": "new controller address"
        }
      },
      "updateAll(address[],uint32)": {
        "details": "Verify if the address list is sorted, has no duplicates and is valid",
        "params": {
          "_sortedList": "sorted list (ascending order) of members to be considered in the 0xSplit distribution",
          "_splitDistributorFee": "split fee set as reward for the address that executes the distribution"
        }
      },
      "updateNetworkRegistry(uint32,(uint32,address,address))": {
        "details": "Callable by main registry owner",
        "params": {
          "_chainId": "Network chainId where the replica registry lives",
          "_newRegistry": "Connext domain ID and replica NetworkRegistry address"
        }
      },
      "updateNetworkSplit(uint32[],address[],address[],uint256[])": {
        "details": "Callable by main registry owner",
        "params": {
          "_chainIds": "a list of network chainIds where valid replicas live",
          "_relayerFees": "a list of fees to be paid to the Connext relayer per sync message forwarded",
          "_splits": "a list of 0xSplit addresses for each replica",
          "_splitsMain": "a list of 0xSplit proxy addresses for each replica"
        }
      },
      "updateSecondsActive()": {
        "details": "It should manage a lastActivityUpdate state variable to update activity based on last update epoch. For new members it should update seconds based each member startDate."
      },
      "updateSplits(address[],uint32)": {
        "details": "Verify if the address list is sorted, has no duplicates and is valid",
        "params": {
          "_sortedList": "sorted list (ascending order) of members to be considered in the 0xSplit distribution",
          "_splitDistributorFee": "split fee set as reward for the address that executes the distribution"
        }
      },
      "xReceive(bytes32,uint256,address,address,uint32,bytes)": {
        "details": "Forwarded messages can only be executed if the function selector is listed as valid action",
        "params": {
          "_incomingCalldata": "message calldata to be used to invoke the required syncing action",
          "_origin": "Connext domain ID that correspond to the network where the the xCall message was submitted",
          "_originSender": "main registry address that forwarded the xCall message through the Connext bridge",
          "_transferId": "transfer ID set by Connext to identify the incoming xCall message"
        },
        "returns": {
          "_0": "any data returned by the action call"
        }
      }
    },
    "stateVariables": {
      "replicaRegistry": {
        "details": "chainId => Registry"
      },
      "split": {
        "details": "0xSplitWallet contract"
      },
      "splitMain": {
        "details": "0xSplitMain contract"
      },
      "updater": {
        "details": "In case of a main registry, the updater role must not be assigned to anyone (address(0))In case of a replica deployed on a L2, the updater role must be the main NetworkRegistry address"
      },
      "updaterDomain": {
        "details": "In case of a main registry, the updater domain must be set to 0In case of a replica, the Connext Domain ID must match to the network where main registry lives"
      }
    },
    "title": "A cross-chain network registry to distribute funds escrowed in 0xSplit based on member activity",
    "version": 1
  },
  "userdoc": {
    "errors": {
      "InvalidMember__ActivityMultiplier(address,uint32)": [
        {
          "notice": "Invalid value for member activity multiplier"
        }
      ],
      "InvalidMember__Address(address)": [
        {
          "notice": "Invalid member address"
        }
      ],
      "InvalidMember__StartDateInTheFuture(address,uint32)": [
        {
          "notice": "Invalid member start date"
        }
      ],
      "MemberRegistry__ParamsSizeMismatch()": [
        {
          "notice": "Function array parameter size mismatch"
        }
      ],
      "Member__AlreadyRegistered(address)": [
        {
          "notice": "Member is already registered"
        }
      ],
      "Member__IndexOutOfBounds()": [
        {
          "notice": "Member index out of bounds"
        }
      ],
      "Member__NotRegistered(address)": [
        {
          "notice": "Member is not registered"
        }
      ],
      "NetWorkRegistry__ParamsSizeMismatch()": [
        {
          "notice": "Function array parameter size mismatch"
        }
      ],
      "NetworkRegistry__ConnextOnly()": [
        {
          "notice": "The function is callable through Connext only."
        }
      ],
      "NetworkRegistry__InvalidConnextAddress()": [
        {
          "notice": "Connext address cannot be 0x0"
        }
      ],
      "NetworkRegistry__InvalidOrImmutableSplit()": [
        {
          "notice": "0xSplit doesn't exists or is immutable"
        }
      ],
      "NetworkRegistry__InvalidReplica()": [
        {
          "notice": "Registry has invalid domainId or registry address values"
        }
      ],
      "NetworkRegistry__NeitherOwnableNorReplicaUpdater()": [
        {
          "notice": "Network Registry must have an owner or updater address assigned."
        }
      ],
      "NetworkRegistry__NoReplicaOnNetwork(uint32)": [
        {
          "notice": "No replica registered on network with ID `_chainId`"
        }
      ],
      "NetworkRegistry__OnlyMainRegistry()": [
        {
          "notice": "The function is callable only on a main registry by the owner."
        }
      ],
      "NetworkRegistry__OnlyOwnerOrUpdater()": [
        {
          "notice": "The function is callable only by the owner or by the updater through Connext."
        }
      ],
      "NetworkRegistry__OnlyReplicaRegistry()": [
        {
          "notice": "The function is callable only on a replica by the owner or through a sync event."
        }
      ],
      "NetworkRegistry__ValueSentLessThanRelayerFees()": [
        {
          "notice": "msg value sent does not cover relayer fees"
        }
      ],
      "Split_ControlNotHandedOver()": [
        {
          "notice": "Control of 0xSplit contract hasn't been transferred to the registry"
        }
      ]
    },
    "events": {
      "NetworkRegistryUpdated(uint32,address,uint32,address)": {
        "notice": "emitted when a new replica NetworkRegistry is added/updated"
      },
      "NewMember(address,uint32,uint32)": {
        "notice": "emitted after a new member is added to the registry"
      },
      "NewUpdaterConfig(address,uint32,address)": {
        "notice": "emitted after the Connext and Updater role settings are updated"
      },
      "RegistryActivityUpdate(uint32,uint256)": {
        "notice": "emitted after an registry activity update epoch is executed"
      },
      "SplitUpdated(address,address)": {
        "notice": "emitted when the 0xSplit contract is updated"
      },
      "SplitsDistributionUpdated(address,bytes32,uint32)": {
        "notice": "emitted when a new split distribution is registered on the 0xSplit contract"
      },
      "SyncActionPerformed(bytes32,uint32,bytes4,bool,address)": {
        "notice": "emitted when a registry synchronization message is received and executed on a replica"
      },
      "SyncMessageSubmitted(bytes32,uint32,bytes4,address)": {
        "notice": "emitted when a registry synchronization message is forwarded through the Connext bridge"
      },
      "UpdateMember(address,uint32,uint32,uint32)": {
        "notice": "emitted after the an existing member is updated"
      },
      "UpdateMemberSeconds(address,uint32)": {
        "notice": "emitted after each time a member registry activity is updated"
      }
    },
    "kind": "user",
    "methods": {
      "acceptNetworkSplitControl(uint32[],uint256[])": {
        "notice": "Submit sync messages to replicas in order to accept control of the current 0xSplit contract"
      },
      "acceptSplitControl()": {
        "notice": "Accepts control of the current 0xSplit contract"
      },
      "addOrUpdateMembersBatch(address[],uint32[],uint32[],uint32[])": {
        "notice": "Adds and/or updates a set of members on the registry"
      },
      "batchNewMembers(address[],uint32[],uint32[])": {
        "notice": "Adds a new set of members to the registry"
      },
      "batchUpdateMembersActivity(address[],uint32[])": {
        "notice": "Updates the activity multiplier for a set of existing members"
      },
      "calculate(address[])": {
        "notice": "Calculate 0xSplit distribution allocations"
      },
      "calculateContributionOf(address)": {
        "notice": "Calculates a member individual contribution"
      },
      "calculateTotalContributions()": {
        "notice": "Calculates the sum of all member contributions"
      },
      "cancelNetworkSplitControlTransfer(uint32[],uint256[])": {
        "notice": "Submit sync messages to replicas in order to cancel a transfer control request of the current 0xSplit contract"
      },
      "cancelSplitControlTransfer()": {
        "notice": "Cancel controller transfer of the current 0xSplit contract"
      },
      "connext()": {
        "notice": "Connext contract in the current domain"
      },
      "getMember(address)": {
        "notice": "Fetch a member's metadata from the registry."
      },
      "getMembers()": {
        "notice": "Fetch all members from the registry"
      },
      "getMembersPaginated(uint256,uint256)": {
        "notice": "Fetch a subset of members from the registry"
      },
      "getMembersProperties(address[])": {
        "notice": "Fetch members metadata as separate property arrays"
      },
      "initialize(bytes)": {
        "notice": "Initializes the registry contract"
      },
      "isMainRegistry()": {
        "notice": "Returns whether or not a registry has been setup as a main registry"
      },
      "lastActivityUpdate()": {
        "notice": "last timestamp where the registry got updated"
      },
      "replicaRegistry(uint32)": {
        "notice": "replicas tied to the current registry"
      },
      "setNetworkUpdaterConfig(uint32[],address[],uint32[],address[],uint256[])": {
        "notice": "Set Connext & Updater config settings for existing NetworkRegistry replicas via sync message"
      },
      "setSplit(address,address)": {
        "notice": "Updates the the 0xSplitMain proxy and 0xSplit contract addresses"
      },
      "setUpdaterConfig(address,uint32,address)": {
        "notice": "Set Connext and Updater config parameters"
      },
      "split()": {
        "notice": "0xSplit contract where funds are hold"
      },
      "splitMain()": {
        "notice": "0xSplit proxy contract"
      },
      "syncBatchNewMembers(address[],uint32[],uint32[],uint32[],uint256[])": {
        "notice": "Adds a new set of members to the registry and sync with replicas"
      },
      "syncBatchUpdateMembersActivity(address[],uint32[],uint32[],uint256[])": {
        "notice": "Updates the activity multiplier for a set of existing members and sync with replicas"
      },
      "syncNetworkMemberRegistry(address[],uint32[],uint256[])": {
        "notice": "Sync the state of a set of registry members across networks. Useful whether you're looking to sync a new replica from scratch or a subset of members. For example this function can be used to sync member's state in batches instead of doing a full registry sync which could become pretty gas intensive with a growing list of members."
      },
      "syncUpdateAll(address[],uint32,uint32[],uint256[])": {
        "notice": "Executes both {updateSecondsActive} to update member's activity and {updateSplits} for split distribution across all networks"
      },
      "syncUpdateSecondsActive(uint32[],uint256[])": {
        "notice": "Updates activity for each member in the registry since the last update epoch and sync with replicas"
      },
      "syncUpdateSplits(address[],uint32,uint32[],uint256[])": {
        "notice": "Updates the 0xSplit distribution on all networks based on reported member activity during the last epoch. Consider calling {syncUpdateSecondsActive} prior or after applying a 0xSplit distribution update"
      },
      "totalMembers()": {
        "notice": "Returns the total No of members in the registry"
      },
      "transferNetworkSplitControl(uint32[],address[],uint256[])": {
        "notice": "Submit sync messages to replicas in order to transfer control of the current 0xSplit contract to `_newController`"
      },
      "transferSplitControl(address)": {
        "notice": "Transfer control of the current 0xSplit contract to `_newController`"
      },
      "updateAll(address[],uint32)": {
        "notice": "Executes both {updateSecondsActive} to update registry member's activity and {updateSplits} for split distribution"
      },
      "updateNetworkRegistry(uint32,(uint32,address,address))": {
        "notice": "Adds a replica NetworkRegistry that should get in sync with a main registry"
      },
      "updateNetworkSplit(uint32[],address[],address[],uint256[])": {
        "notice": "Updates the 0xSplit contracts on existing NetworkRegistry replicas via sync message"
      },
      "updateSecondsActive()": {
        "notice": "Updates seconds active since the last update epoch for every member in the registry"
      },
      "updateSplits(address[],uint32)": {
        "notice": "Updates the 0xSplit distribution based on member activity during the last epoch Consider calling {updateSecondsActive} prior triggering a 0xSplit distribution update"
      },
      "updater()": {
        "notice": "Address of the updater role that can update the registry through the Connext bridge"
      },
      "updaterDomain()": {
        "notice": "Connext domain ID where the updater contract is deployed"
      },
      "xReceive(bytes32,uint256,address,address,uint32,bytes)": {
        "notice": "Accepts incoming sync messages from a main registry via Connext authenticated calls"
      }
    },
    "notice": "Manage a cross-chain member registry to distribute funds hold in 0xSplit based on member activity",
    "version": 1
  },
  "storageLayout": {
    "storage": [
      {
        "astId": 11897,
        "contract": "contracts/NetworkRegistry.sol:NetworkRegistry",
        "label": "members",
        "offset": 0,
        "slot": "0",
        "type": "t_struct(Members)11504_storage"
      },
      {
        "astId": 11900,
        "contract": "contracts/NetworkRegistry.sol:NetworkRegistry",
        "label": "lastActivityUpdate",
        "offset": 0,
        "slot": "3",
        "type": "t_uint32"
      },
      {
        "astId": 8289,
        "contract": "contracts/NetworkRegistry.sol:NetworkRegistry",
        "label": "connext",
        "offset": 4,
        "slot": "3",
        "type": "t_contract(IConnext)285"
      },
      {
        "astId": 8292,
        "contract": "contracts/NetworkRegistry.sol:NetworkRegistry",
        "label": "updaterDomain",
        "offset": 24,
        "slot": "3",
        "type": "t_uint32"
      },
      {
        "astId": 8295,
        "contract": "contracts/NetworkRegistry.sol:NetworkRegistry",
        "label": "updater",
        "offset": 0,
        "slot": "4",
        "type": "t_address"
      },
      {
        "astId": 8301,
        "contract": "contracts/NetworkRegistry.sol:NetworkRegistry",
        "label": "replicaRegistry",
        "offset": 0,
        "slot": "5",
        "type": "t_mapping(t_uint32,t_struct(Registry)11515_storage)"
      },
      {
        "astId": 8305,
        "contract": "contracts/NetworkRegistry.sol:NetworkRegistry",
        "label": "splitMain",
        "offset": 0,
        "slot": "6",
        "type": "t_contract(ISplitMain)11399"
      },
      {
        "astId": 8308,
        "contract": "contracts/NetworkRegistry.sol:NetworkRegistry",
        "label": "split",
        "offset": 0,
        "slot": "7",
        "type": "t_address"
      }
    ],
    "types": {
      "t_address": {
        "encoding": "inplace",
        "label": "address",
        "numberOfBytes": "20"
      },
      "t_array(t_struct(Member)11489_storage)dyn_storage": {
        "base": "t_struct(Member)11489_storage",
        "encoding": "dynamic_array",
        "label": "struct DataTypes.Member[]",
        "numberOfBytes": "32"
      },
      "t_contract(IConnext)285": {
        "encoding": "inplace",
        "label": "contract IConnext",
        "numberOfBytes": "20"
      },
      "t_contract(ISplitMain)11399": {
        "encoding": "inplace",
        "label": "contract ISplitMain",
        "numberOfBytes": "20"
      },
      "t_mapping(t_address,t_uint256)": {
        "encoding": "mapping",
        "key": "t_address",
        "label": "mapping(address => uint256)",
        "numberOfBytes": "32",
        "value": "t_uint256"
      },
      "t_mapping(t_uint32,t_struct(Registry)11515_storage)": {
        "encoding": "mapping",
        "key": "t_uint32",
        "label": "mapping(uint32 => struct DataTypes.Registry)",
        "numberOfBytes": "32",
        "value": "t_struct(Registry)11515_storage"
      },
      "t_struct(Member)11489_storage": {
        "encoding": "inplace",
        "label": "struct DataTypes.Member",
        "members": [
          {
            "astId": 11479,
            "contract": "contracts/NetworkRegistry.sol:NetworkRegistry",
            "label": "account",
            "offset": 0,
            "slot": "0",
            "type": "t_address"
          },
          {
            "astId": 11482,
            "contract": "contracts/NetworkRegistry.sol:NetworkRegistry",
            "label": "secondsActive",
            "offset": 20,
            "slot": "0",
            "type": "t_uint32"
          },
          {
            "astId": 11485,
            "contract": "contracts/NetworkRegistry.sol:NetworkRegistry",
            "label": "startDate",
            "offset": 24,
            "slot": "0",
            "type": "t_uint32"
          },
          {
            "astId": 11488,
            "contract": "contracts/NetworkRegistry.sol:NetworkRegistry",
            "label": "activityMultiplier",
            "offset": 28,
            "slot": "0",
            "type": "t_uint32"
          }
        ],
        "numberOfBytes": "32"
      },
      "t_struct(Members)11504_storage": {
        "encoding": "inplace",
        "label": "struct DataTypes.Members",
        "members": [
          {
            "astId": 11495,
            "contract": "contracts/NetworkRegistry.sol:NetworkRegistry",
            "label": "db",
            "offset": 0,
            "slot": "0",
            "type": "t_array(t_struct(Member)11489_storage)dyn_storage"
          },
          {
            "astId": 11498,
            "contract": "contracts/NetworkRegistry.sol:NetworkRegistry",
            "label": "count",
            "offset": 0,
            "slot": "1",
            "type": "t_uint256"
          },
          {
            "astId": 11503,
            "contract": "contracts/NetworkRegistry.sol:NetworkRegistry",
            "label": "index",
            "offset": 0,
            "slot": "2",
            "type": "t_mapping(t_address,t_uint256)"
          }
        ],
        "numberOfBytes": "96"
      },
      "t_struct(Registry)11515_storage": {
        "encoding": "inplace",
        "label": "struct DataTypes.Registry",
        "members": [
          {
            "astId": 11508,
            "contract": "contracts/NetworkRegistry.sol:NetworkRegistry",
            "label": "domainId",
            "offset": 0,
            "slot": "0",
            "type": "t_uint32"
          },
          {
            "astId": 11511,
            "contract": "contracts/NetworkRegistry.sol:NetworkRegistry",
            "label": "registryAddress",
            "offset": 4,
            "slot": "0",
            "type": "t_address"
          },
          {
            "astId": 11514,
            "contract": "contracts/NetworkRegistry.sol:NetworkRegistry",
            "label": "delegate",
            "offset": 0,
            "slot": "1",
            "type": "t_address"
          }
        ],
        "numberOfBytes": "64"
      },
      "t_uint256": {
        "encoding": "inplace",
        "label": "uint256",
        "numberOfBytes": "32"
      },
      "t_uint32": {
        "encoding": "inplace",
        "label": "uint32",
        "numberOfBytes": "4"
      }
    }
  }
}