{
  "address": "0xF3C93FBa186758605318b2F6d0b141029a20E2a8",
  "abi": [
    {
      "inputs": [],
      "stateMutability": "nonpayable",
      "type": "constructor"
    },
    {
      "inputs": [
        {
          "internalType": "address",
          "name": "target",
          "type": "address"
        }
      ],
      "name": "AddressEmptyCode",
      "type": "error"
    },
    {
      "inputs": [
        {
          "internalType": "address",
          "name": "implementation",
          "type": "address"
        }
      ],
      "name": "ERC1967InvalidImplementation",
      "type": "error"
    },
    {
      "inputs": [],
      "name": "ERC1967NonPayable",
      "type": "error"
    },
    {
      "inputs": [],
      "name": "FailedInnerCall",
      "type": "error"
    },
    {
      "inputs": [],
      "name": "InvalidInitialization",
      "type": "error"
    },
    {
      "inputs": [
        {
          "internalType": "address",
          "name": "_memberAddress",
          "type": "address"
        },
        {
          "internalType": "uint32",
          "name": "_activityMultiplier",
          "type": "uint32"
        }
      ],
      "name": "InvalidMember__ActivityMultiplier",
      "type": "error"
    },
    {
      "inputs": [
        {
          "internalType": "address",
          "name": "_memberAddress",
          "type": "address"
        }
      ],
      "name": "InvalidMember__Address",
      "type": "error"
    },
    {
      "inputs": [
        {
          "internalType": "address",
          "name": "_memberAddress",
          "type": "address"
        },
        {
          "internalType": "uint32",
          "name": "_startDate",
          "type": "uint32"
        }
      ],
      "name": "InvalidMember__StartDateInTheFuture",
      "type": "error"
    },
    {
      "inputs": [],
      "name": "MemberRegistry_InvalidCutoffDate",
      "type": "error"
    },
    {
      "inputs": [],
      "name": "MemberRegistry__ParamsSizeMismatch",
      "type": "error"
    },
    {
      "inputs": [
        {
          "internalType": "address",
          "name": "_memberAddress",
          "type": "address"
        }
      ],
      "name": "Member__AlreadyRegistered",
      "type": "error"
    },
    {
      "inputs": [],
      "name": "Member__IndexOutOfBounds",
      "type": "error"
    },
    {
      "inputs": [
        {
          "internalType": "address",
          "name": "_memberAddress",
          "type": "address"
        }
      ],
      "name": "Member__NotRegistered",
      "type": "error"
    },
    {
      "inputs": [],
      "name": "NetWorkRegistry__ParamsSizeMismatch",
      "type": "error"
    },
    {
      "inputs": [],
      "name": "NetworkRegistry__ConnextOnly",
      "type": "error"
    },
    {
      "inputs": [],
      "name": "NetworkRegistry__InvalidConnextAddress",
      "type": "error"
    },
    {
      "inputs": [],
      "name": "NetworkRegistry__InvalidOrImmutableSplit",
      "type": "error"
    },
    {
      "inputs": [],
      "name": "NetworkRegistry__InvalidReplica",
      "type": "error"
    },
    {
      "inputs": [],
      "name": "NetworkRegistry__NeitherOwnableNorReplicaUpdater",
      "type": "error"
    },
    {
      "inputs": [
        {
          "internalType": "uint32",
          "name": "_chainId",
          "type": "uint32"
        }
      ],
      "name": "NetworkRegistry__NoReplicaOnNetwork",
      "type": "error"
    },
    {
      "inputs": [],
      "name": "NetworkRegistry__OnlyMainRegistry",
      "type": "error"
    },
    {
      "inputs": [],
      "name": "NetworkRegistry__OnlyOwnerOrUpdater",
      "type": "error"
    },
    {
      "inputs": [],
      "name": "NetworkRegistry__OnlyReplicaRegistry",
      "type": "error"
    },
    {
      "inputs": [],
      "name": "NetworkRegistry__OnlyReplicaRegistrySync",
      "type": "error"
    },
    {
      "inputs": [],
      "name": "NetworkRegistry__UnauthorizedToUpgrade",
      "type": "error"
    },
    {
      "inputs": [],
      "name": "NetworkRegistry__ValueSentLessThanRelayerFees",
      "type": "error"
    },
    {
      "inputs": [],
      "name": "NotInitializing",
      "type": "error"
    },
    {
      "inputs": [
        {
          "internalType": "address",
          "name": "owner",
          "type": "address"
        }
      ],
      "name": "OwnableInvalidOwner",
      "type": "error"
    },
    {
      "inputs": [
        {
          "internalType": "address",
          "name": "account",
          "type": "address"
        }
      ],
      "name": "OwnableUnauthorizedAccount",
      "type": "error"
    },
    {
      "inputs": [],
      "name": "Split_ControlNotHandedOver",
      "type": "error"
    },
    {
      "inputs": [],
      "name": "UUPSUnauthorizedCallContext",
      "type": "error"
    },
    {
      "inputs": [
        {
          "internalType": "bytes32",
          "name": "slot",
          "type": "bytes32"
        }
      ],
      "name": "UUPSUnsupportedProxiableUUID",
      "type": "error"
    },
    {
      "anonymous": false,
      "inputs": [
        {
          "indexed": false,
          "internalType": "uint64",
          "name": "version",
          "type": "uint64"
        }
      ],
      "name": "Initialized",
      "type": "event"
    },
    {
      "anonymous": false,
      "inputs": [
        {
          "indexed": true,
          "internalType": "uint32",
          "name": "_chainId",
          "type": "uint32"
        },
        {
          "indexed": true,
          "internalType": "address",
          "name": "_registryAddress",
          "type": "address"
        },
        {
          "indexed": true,
          "internalType": "uint32",
          "name": "_domainId",
          "type": "uint32"
        },
        {
          "indexed": false,
          "internalType": "address",
          "name": "_delegate",
          "type": "address"
        }
      ],
      "name": "NetworkRegistryUpdated",
      "type": "event"
    },
    {
      "anonymous": false,
      "inputs": [
        {
          "indexed": true,
          "internalType": "address",
          "name": "_memberAddress",
          "type": "address"
        },
        {
          "indexed": false,
          "internalType": "uint32",
          "name": "_startDate",
          "type": "uint32"
        },
        {
          "indexed": false,
          "internalType": "uint32",
          "name": "_activityMultiplier",
          "type": "uint32"
        }
      ],
      "name": "NewMember",
      "type": "event"
    },
    {
      "anonymous": false,
      "inputs": [
        {
          "indexed": false,
          "internalType": "address",
          "name": "_connext",
          "type": "address"
        },
        {
          "indexed": false,
          "internalType": "uint32",
          "name": "_updaterDomain",
          "type": "uint32"
        },
        {
          "indexed": false,
          "internalType": "address",
          "name": "_updater",
          "type": "address"
        }
      ],
      "name": "NewUpdaterConfig",
      "type": "event"
    },
    {
      "anonymous": false,
      "inputs": [
        {
          "indexed": true,
          "internalType": "address",
          "name": "previousOwner",
          "type": "address"
        },
        {
          "indexed": true,
          "internalType": "address",
          "name": "newOwner",
          "type": "address"
        }
      ],
      "name": "OwnershipTransferred",
      "type": "event"
    },
    {
      "anonymous": false,
      "inputs": [
        {
          "indexed": false,
          "internalType": "uint32",
          "name": "_timestamp",
          "type": "uint32"
        },
        {
          "indexed": false,
          "internalType": "uint256",
          "name": "_totalMemberUpdates",
          "type": "uint256"
        }
      ],
      "name": "RegistryActivityUpdate",
      "type": "event"
    },
    {
      "anonymous": false,
      "inputs": [
        {
          "indexed": false,
          "internalType": "address",
          "name": "_splitMain",
          "type": "address"
        },
        {
          "indexed": false,
          "internalType": "address",
          "name": "_split",
          "type": "address"
        }
      ],
      "name": "SplitUpdated",
      "type": "event"
    },
    {
      "anonymous": false,
      "inputs": [
        {
          "indexed": false,
          "internalType": "address",
          "name": "_split",
          "type": "address"
        },
        {
          "indexed": false,
          "internalType": "bytes32",
          "name": "_splitHash",
          "type": "bytes32"
        },
        {
          "indexed": false,
          "internalType": "uint32",
          "name": "_splitDistributorFee",
          "type": "uint32"
        }
      ],
      "name": "SplitsDistributionUpdated",
      "type": "event"
    },
    {
      "anonymous": false,
      "inputs": [
        {
          "indexed": true,
          "internalType": "bytes32",
          "name": "_transferId",
          "type": "bytes32"
        },
        {
          "indexed": true,
          "internalType": "uint32",
          "name": "_originDomain",
          "type": "uint32"
        },
        {
          "indexed": true,
          "internalType": "bytes4",
          "name": "_action",
          "type": "bytes4"
        },
        {
          "indexed": false,
          "internalType": "bool",
          "name": "_success",
          "type": "bool"
        },
        {
          "indexed": false,
          "internalType": "address",
          "name": "_originSender",
          "type": "address"
        }
      ],
      "name": "SyncActionPerformed",
      "type": "event"
    },
    {
      "anonymous": false,
      "inputs": [
        {
          "indexed": true,
          "internalType": "bytes32",
          "name": "_transferId",
          "type": "bytes32"
        },
        {
          "indexed": true,
          "internalType": "uint32",
          "name": "_chainId",
          "type": "uint32"
        },
        {
          "indexed": true,
          "internalType": "bytes4",
          "name": "_action",
          "type": "bytes4"
        },
        {
          "indexed": false,
          "internalType": "address",
          "name": "_registryAddress",
          "type": "address"
        }
      ],
      "name": "SyncMessageSubmitted",
      "type": "event"
    },
    {
      "anonymous": false,
      "inputs": [
        {
          "indexed": true,
          "internalType": "address",
          "name": "_memberAddress",
          "type": "address"
        },
        {
          "indexed": false,
          "internalType": "uint32",
          "name": "_activityMultiplier",
          "type": "uint32"
        },
        {
          "indexed": false,
          "internalType": "uint32",
          "name": "_startDate",
          "type": "uint32"
        },
        {
          "indexed": false,
          "internalType": "uint32",
          "name": "_secondsActive",
          "type": "uint32"
        }
      ],
      "name": "UpdateMember",
      "type": "event"
    },
    {
      "anonymous": false,
      "inputs": [
        {
          "indexed": true,
          "internalType": "address",
          "name": "_memberAddress",
          "type": "address"
        },
        {
          "indexed": false,
          "internalType": "uint32",
          "name": "_secondsActive",
          "type": "uint32"
        }
      ],
      "name": "UpdateMemberSeconds",
      "type": "event"
    },
    {
      "anonymous": false,
      "inputs": [
        {
          "indexed": true,
          "internalType": "address",
          "name": "implementation",
          "type": "address"
        }
      ],
      "name": "Upgraded",
      "type": "event"
    },
    {
      "inputs": [],
      "name": "UPGRADE_INTERFACE_VERSION",
      "outputs": [
        {
          "internalType": "string",
          "name": "",
          "type": "string"
        }
      ],
      "stateMutability": "view",
      "type": "function"
    },
    {
      "inputs": [
        {
          "internalType": "uint32[]",
          "name": "_chainIds",
          "type": "uint32[]"
        },
        {
          "internalType": "uint256[]",
          "name": "_relayerFees",
          "type": "uint256[]"
        }
      ],
      "name": "acceptNetworkSplitControl",
      "outputs": [],
      "stateMutability": "payable",
      "type": "function"
    },
    {
      "inputs": [],
      "name": "acceptSplitControl",
      "outputs": [],
      "stateMutability": "nonpayable",
      "type": "function"
    },
    {
      "inputs": [
        {
          "internalType": "address[]",
          "name": "_members",
          "type": "address[]"
        },
        {
          "internalType": "uint32[]",
          "name": "_activityMultipliers",
          "type": "uint32[]"
        },
        {
          "internalType": "uint32[]",
          "name": "_startDates",
          "type": "uint32[]"
        },
        {
          "internalType": "uint32[]",
          "name": "_secondsActive",
          "type": "uint32[]"
        }
      ],
      "name": "addOrUpdateMembersBatch",
      "outputs": [],
      "stateMutability": "nonpayable",
      "type": "function"
    },
    {
      "inputs": [
        {
          "internalType": "address[]",
          "name": "_members",
          "type": "address[]"
        },
        {
          "internalType": "uint32[]",
          "name": "_activityMultipliers",
          "type": "uint32[]"
        },
        {
          "internalType": "uint32[]",
          "name": "_startDates",
          "type": "uint32[]"
        }
      ],
      "name": "batchNewMembers",
      "outputs": [],
      "stateMutability": "nonpayable",
      "type": "function"
    },
    {
      "inputs": [
        {
          "internalType": "address[]",
          "name": "_members",
          "type": "address[]"
        },
        {
          "internalType": "uint32[]",
          "name": "_activityMultipliers",
          "type": "uint32[]"
        }
      ],
      "name": "batchUpdateMembersActivity",
      "outputs": [],
      "stateMutability": "nonpayable",
      "type": "function"
    },
    {
      "inputs": [
        {
          "internalType": "address[]",
          "name": "_sortedList",
          "type": "address[]"
        }
      ],
      "name": "calculate",
      "outputs": [
        {
          "internalType": "address[]",
          "name": "_receivers",
          "type": "address[]"
        },
        {
          "internalType": "uint32[]",
          "name": "_percentAllocations",
          "type": "uint32[]"
        }
      ],
      "stateMutability": "view",
      "type": "function"
    },
    {
      "inputs": [
        {
          "internalType": "address",
          "name": "_memberAddress",
          "type": "address"
        }
      ],
      "name": "calculateContributionOf",
      "outputs": [
        {
          "internalType": "uint256",
          "name": "",
          "type": "uint256"
        }
      ],
      "stateMutability": "view",
      "type": "function"
    },
    {
      "inputs": [],
      "name": "calculateTotalContributions",
      "outputs": [
        {
          "internalType": "uint256",
          "name": "total",
          "type": "uint256"
        }
      ],
      "stateMutability": "view",
      "type": "function"
    },
    {
      "inputs": [
        {
          "internalType": "uint32[]",
          "name": "_chainIds",
          "type": "uint32[]"
        },
        {
          "internalType": "uint256[]",
          "name": "_relayerFees",
          "type": "uint256[]"
        }
      ],
      "name": "cancelNetworkSplitControlTransfer",
      "outputs": [],
      "stateMutability": "payable",
      "type": "function"
    },
    {
      "inputs": [],
      "name": "cancelSplitControlTransfer",
      "outputs": [],
      "stateMutability": "nonpayable",
      "type": "function"
    },
    {
      "inputs": [],
      "name": "connext",
      "outputs": [
        {
          "internalType": "contract IConnext",
          "name": "",
          "type": "address"
        }
      ],
      "stateMutability": "view",
      "type": "function"
    },
    {
      "inputs": [
        {
          "internalType": "address",
          "name": "_memberAddress",
          "type": "address"
        }
      ],
      "name": "getMember",
      "outputs": [
        {
          "components": [
            {
              "internalType": "address",
              "name": "account",
              "type": "address"
            },
            {
              "internalType": "uint32",
              "name": "secondsActive",
              "type": "uint32"
            },
            {
              "internalType": "uint32",
              "name": "startDate",
              "type": "uint32"
            },
            {
              "internalType": "uint32",
              "name": "activityMultiplier",
              "type": "uint32"
            }
          ],
          "internalType": "struct DataTypes.Member",
          "name": "member",
          "type": "tuple"
        }
      ],
      "stateMutability": "view",
      "type": "function"
    },
    {
      "inputs": [],
      "name": "getMembers",
      "outputs": [
        {
          "components": [
            {
              "internalType": "address",
              "name": "account",
              "type": "address"
            },
            {
              "internalType": "uint32",
              "name": "secondsActive",
              "type": "uint32"
            },
            {
              "internalType": "uint32",
              "name": "startDate",
              "type": "uint32"
            },
            {
              "internalType": "uint32",
              "name": "activityMultiplier",
              "type": "uint32"
            }
          ],
          "internalType": "struct DataTypes.Member[]",
          "name": "",
          "type": "tuple[]"
        }
      ],
      "stateMutability": "view",
      "type": "function"
    },
    {
      "inputs": [
        {
          "internalType": "uint256",
          "name": "_fromIndex",
          "type": "uint256"
        },
        {
          "internalType": "uint256",
          "name": "_toIndex",
          "type": "uint256"
        }
      ],
      "name": "getMembersPaginated",
      "outputs": [
        {
          "components": [
            {
              "internalType": "address",
              "name": "account",
              "type": "address"
            },
            {
              "internalType": "uint32",
              "name": "secondsActive",
              "type": "uint32"
            },
            {
              "internalType": "uint32",
              "name": "startDate",
              "type": "uint32"
            },
            {
              "internalType": "uint32",
              "name": "activityMultiplier",
              "type": "uint32"
            }
          ],
          "internalType": "struct DataTypes.Member[]",
          "name": "memberList",
          "type": "tuple[]"
        }
      ],
      "stateMutability": "view",
      "type": "function"
    },
    {
      "inputs": [
        {
          "internalType": "address[]",
          "name": "_members",
          "type": "address[]"
        }
      ],
      "name": "getMembersProperties",
      "outputs": [
        {
          "internalType": "uint32[]",
          "name": "",
          "type": "uint32[]"
        },
        {
          "internalType": "uint32[]",
          "name": "",
          "type": "uint32[]"
        },
        {
          "internalType": "uint32[]",
          "name": "",
          "type": "uint32[]"
        }
      ],
      "stateMutability": "view",
      "type": "function"
    },
    {
      "inputs": [
        {
          "internalType": "bytes",
          "name": "_initializationParams",
          "type": "bytes"
        }
      ],
      "name": "initialize",
      "outputs": [],
      "stateMutability": "nonpayable",
      "type": "function"
    },
    {
      "inputs": [],
      "name": "isMainRegistry",
      "outputs": [
        {
          "internalType": "bool",
          "name": "",
          "type": "bool"
        }
      ],
      "stateMutability": "view",
      "type": "function"
    },
    {
      "inputs": [],
      "name": "lastActivityUpdate",
      "outputs": [
        {
          "internalType": "uint32",
          "name": "",
          "type": "uint32"
        }
      ],
      "stateMutability": "view",
      "type": "function"
    },
    {
      "inputs": [],
      "name": "owner",
      "outputs": [
        {
          "internalType": "address",
          "name": "",
          "type": "address"
        }
      ],
      "stateMutability": "view",
      "type": "function"
    },
    {
      "inputs": [],
      "name": "proxiableUUID",
      "outputs": [
        {
          "internalType": "bytes32",
          "name": "",
          "type": "bytes32"
        }
      ],
      "stateMutability": "view",
      "type": "function"
    },
    {
      "inputs": [],
      "name": "renounceOwnership",
      "outputs": [],
      "stateMutability": "nonpayable",
      "type": "function"
    },
    {
      "inputs": [
        {
          "internalType": "uint32",
          "name": "",
          "type": "uint32"
        }
      ],
      "name": "replicaRegistry",
      "outputs": [
        {
          "internalType": "uint32",
          "name": "domainId",
          "type": "uint32"
        },
        {
          "internalType": "address",
          "name": "registryAddress",
          "type": "address"
        },
        {
          "internalType": "address",
          "name": "delegate",
          "type": "address"
        }
      ],
      "stateMutability": "view",
      "type": "function"
    },
    {
      "inputs": [
        {
          "internalType": "uint32[]",
          "name": "_chainIds",
          "type": "uint32[]"
        },
        {
          "internalType": "address[]",
          "name": "_connextAddrs",
          "type": "address[]"
        },
        {
          "internalType": "uint32[]",
          "name": "_updaterDomains",
          "type": "uint32[]"
        },
        {
          "internalType": "address[]",
          "name": "_updaterAddrs",
          "type": "address[]"
        },
        {
          "internalType": "uint256[]",
          "name": "_relayerFees",
          "type": "uint256[]"
        }
      ],
      "name": "setNetworkUpdaterConfig",
      "outputs": [],
      "stateMutability": "payable",
      "type": "function"
    },
    {
      "inputs": [
        {
          "internalType": "address",
          "name": "_splitMain",
          "type": "address"
        },
        {
          "internalType": "address",
          "name": "_split",
          "type": "address"
        }
      ],
      "name": "setSplit",
      "outputs": [],
      "stateMutability": "nonpayable",
      "type": "function"
    },
    {
      "inputs": [
        {
          "internalType": "address",
          "name": "_connext",
          "type": "address"
        },
        {
          "internalType": "uint32",
          "name": "_updaterDomain",
          "type": "uint32"
        },
        {
          "internalType": "address",
          "name": "_updater",
          "type": "address"
        }
      ],
      "name": "setUpdaterConfig",
      "outputs": [],
      "stateMutability": "nonpayable",
      "type": "function"
    },
    {
      "inputs": [],
      "name": "split",
      "outputs": [
        {
          "internalType": "address",
          "name": "",
          "type": "address"
        }
      ],
      "stateMutability": "view",
      "type": "function"
    },
    {
      "inputs": [],
      "name": "splitMain",
      "outputs": [
        {
          "internalType": "contract ISplitMain",
          "name": "",
          "type": "address"
        }
      ],
      "stateMutability": "view",
      "type": "function"
    },
    {
      "inputs": [
        {
          "internalType": "address[]",
          "name": "_members",
          "type": "address[]"
        },
        {
          "internalType": "uint32[]",
          "name": "_activityMultipliers",
          "type": "uint32[]"
        },
        {
          "internalType": "uint32[]",
          "name": "_startDates",
          "type": "uint32[]"
        },
        {
          "internalType": "uint32[]",
          "name": "_chainIds",
          "type": "uint32[]"
        },
        {
          "internalType": "uint256[]",
          "name": "_relayerFees",
          "type": "uint256[]"
        }
      ],
      "name": "syncBatchNewMembers",
      "outputs": [],
      "stateMutability": "payable",
      "type": "function"
    },
    {
      "inputs": [
        {
          "internalType": "address[]",
          "name": "_members",
          "type": "address[]"
        },
        {
          "internalType": "uint32[]",
          "name": "_activityMultipliers",
          "type": "uint32[]"
        },
        {
          "internalType": "uint32[]",
          "name": "_chainIds",
          "type": "uint32[]"
        },
        {
          "internalType": "uint256[]",
          "name": "_relayerFees",
          "type": "uint256[]"
        }
      ],
      "name": "syncBatchUpdateMembersActivity",
      "outputs": [],
      "stateMutability": "payable",
      "type": "function"
    },
    {
      "inputs": [
        {
          "internalType": "address[]",
          "name": "_members",
          "type": "address[]"
        },
        {
          "internalType": "uint32[]",
          "name": "_chainIds",
          "type": "uint32[]"
        },
        {
          "internalType": "uint256[]",
          "name": "_relayerFees",
          "type": "uint256[]"
        }
      ],
      "name": "syncNetworkMemberRegistry",
      "outputs": [],
      "stateMutability": "payable",
      "type": "function"
    },
    {
      "inputs": [
        {
          "internalType": "address[]",
          "name": "_sortedList",
          "type": "address[]"
        },
        {
          "internalType": "uint32",
          "name": "_splitDistributorFee",
          "type": "uint32"
        },
        {
          "internalType": "uint32[]",
          "name": "_chainIds",
          "type": "uint32[]"
        },
        {
          "internalType": "uint256[]",
          "name": "_relayerFees",
          "type": "uint256[]"
        }
      ],
      "name": "syncUpdateAll",
      "outputs": [],
      "stateMutability": "payable",
      "type": "function"
    },
    {
      "inputs": [
        {
          "internalType": "uint32[]",
          "name": "_chainIds",
          "type": "uint32[]"
        },
        {
          "internalType": "uint256[]",
          "name": "_relayerFees",
          "type": "uint256[]"
        }
      ],
      "name": "syncUpdateSecondsActive",
      "outputs": [],
      "stateMutability": "payable",
      "type": "function"
    },
    {
      "inputs": [
        {
          "internalType": "address[]",
          "name": "_sortedList",
          "type": "address[]"
        },
        {
          "internalType": "uint32",
          "name": "_splitDistributorFee",
          "type": "uint32"
        },
        {
          "internalType": "uint32[]",
          "name": "_chainIds",
          "type": "uint32[]"
        },
        {
          "internalType": "uint256[]",
          "name": "_relayerFees",
          "type": "uint256[]"
        }
      ],
      "name": "syncUpdateSplits",
      "outputs": [],
      "stateMutability": "payable",
      "type": "function"
    },
    {
      "inputs": [],
      "name": "totalMembers",
      "outputs": [
        {
          "internalType": "uint256",
          "name": "",
          "type": "uint256"
        }
      ],
      "stateMutability": "view",
      "type": "function"
    },
    {
      "inputs": [
        {
          "internalType": "uint32[]",
          "name": "_chainIds",
          "type": "uint32[]"
        },
        {
          "internalType": "address[]",
          "name": "_newControllers",
          "type": "address[]"
        },
        {
          "internalType": "uint256[]",
          "name": "_relayerFees",
          "type": "uint256[]"
        }
      ],
      "name": "transferNetworkSplitControl",
      "outputs": [],
      "stateMutability": "payable",
      "type": "function"
    },
    {
      "inputs": [
        {
          "internalType": "address",
          "name": "newOwner",
          "type": "address"
        }
      ],
      "name": "transferOwnership",
      "outputs": [],
      "stateMutability": "nonpayable",
      "type": "function"
    },
    {
      "inputs": [
        {
          "internalType": "address",
          "name": "_newController",
          "type": "address"
        }
      ],
      "name": "transferSplitControl",
      "outputs": [],
      "stateMutability": "nonpayable",
      "type": "function"
    },
    {
      "inputs": [
        {
          "internalType": "uint32",
          "name": "_cutoffDate",
          "type": "uint32"
        },
        {
          "internalType": "address[]",
          "name": "_sortedList",
          "type": "address[]"
        },
        {
          "internalType": "uint32",
          "name": "_splitDistributorFee",
          "type": "uint32"
        }
      ],
      "name": "updateAll",
      "outputs": [],
      "stateMutability": "nonpayable",
      "type": "function"
    },
    {
      "inputs": [
        {
          "internalType": "uint32",
          "name": "_chainId",
          "type": "uint32"
        },
        {
          "components": [
            {
              "internalType": "uint32",
              "name": "domainId",
              "type": "uint32"
            },
            {
              "internalType": "address",
              "name": "registryAddress",
              "type": "address"
            },
            {
              "internalType": "address",
              "name": "delegate",
              "type": "address"
            }
          ],
          "internalType": "struct DataTypes.Registry",
          "name": "_newRegistry",
          "type": "tuple"
        }
      ],
      "name": "updateNetworkRegistry",
      "outputs": [],
      "stateMutability": "nonpayable",
      "type": "function"
    },
    {
      "inputs": [
        {
          "internalType": "uint32[]",
          "name": "_chainIds",
          "type": "uint32[]"
        },
        {
          "internalType": "address[]",
          "name": "_splitsMain",
          "type": "address[]"
        },
        {
          "internalType": "address[]",
          "name": "_splits",
          "type": "address[]"
        },
        {
          "internalType": "uint256[]",
          "name": "_relayerFees",
          "type": "uint256[]"
        }
      ],
      "name": "updateNetworkSplit",
      "outputs": [],
      "stateMutability": "payable",
      "type": "function"
    },
    {
      "inputs": [
        {
          "internalType": "uint32",
          "name": "_cutoffDate",
          "type": "uint32"
        }
      ],
      "name": "updateSecondsActive",
      "outputs": [],
      "stateMutability": "nonpayable",
      "type": "function"
    },
    {
      "inputs": [
        {
          "internalType": "address[]",
          "name": "_sortedList",
          "type": "address[]"
        },
        {
          "internalType": "uint32",
          "name": "_splitDistributorFee",
          "type": "uint32"
        }
      ],
      "name": "updateSplits",
      "outputs": [],
      "stateMutability": "nonpayable",
      "type": "function"
    },
    {
      "inputs": [],
      "name": "updater",
      "outputs": [
        {
          "internalType": "address",
          "name": "",
          "type": "address"
        }
      ],
      "stateMutability": "view",
      "type": "function"
    },
    {
      "inputs": [],
      "name": "updaterDomain",
      "outputs": [
        {
          "internalType": "uint32",
          "name": "",
          "type": "uint32"
        }
      ],
      "stateMutability": "view",
      "type": "function"
    },
    {
      "inputs": [
        {
          "internalType": "uint32",
          "name": "_chainId",
          "type": "uint32"
        },
        {
          "internalType": "address",
          "name": "_newImplementation",
          "type": "address"
        },
        {
          "internalType": "bytes",
          "name": "_data",
          "type": "bytes"
        },
        {
          "internalType": "uint256",
          "name": "_relayerFee",
          "type": "uint256"
        }
      ],
      "name": "upgradeNetworkRegistryImplementation",
      "outputs": [],
      "stateMutability": "payable",
      "type": "function"
    },
    {
      "inputs": [
        {
          "internalType": "address",
          "name": "newImplementation",
          "type": "address"
        },
        {
          "internalType": "bytes",
          "name": "data",
          "type": "bytes"
        }
      ],
      "name": "upgradeToAndCall",
      "outputs": [],
      "stateMutability": "payable",
      "type": "function"
    },
    {
      "inputs": [
        {
          "internalType": "bytes32",
          "name": "_transferId",
          "type": "bytes32"
        },
        {
          "internalType": "uint256",
          "name": "",
          "type": "uint256"
        },
        {
          "internalType": "address",
          "name": "",
          "type": "address"
        },
        {
          "internalType": "address",
          "name": "_originSender",
          "type": "address"
        },
        {
          "internalType": "uint32",
          "name": "_origin",
          "type": "uint32"
        },
        {
          "internalType": "bytes",
          "name": "_incomingCalldata",
          "type": "bytes"
        }
      ],
      "name": "xReceive",
      "outputs": [
        {
          "internalType": "bytes",
          "name": "",
          "type": "bytes"
        }
      ],
      "stateMutability": "nonpayable",
      "type": "function"
    }
  ],
  "transactionHash": "0x171da8e31b568cc3c8a00a07f94eff5cf1166777659b26436cff57d708c3f495",
  "args": [],
  "numDeployments": 1,
  "solcInputHash": "3b0a184e3e8854a76afdcb624eb0d2a0",
  "bytecode": "0x60a0604052306080523480156200001557600080fd5b506200002062000026565b620000da565b7ff0c57e16840df040f15088dc2f81fe391c3923bec73e23a9662efc9c229c6a00805468010000000000000000900460ff1615620000775760405163f92ee8a960e01b815260040160405180910390fd5b80546001600160401b0390811614620000d75780546001600160401b0319166001600160401b0390811782556040519081527fc7f505b2f371ae2175ee4913f4499e1f2633a7b5936321eed1cdaeb6115181d29060200160405180910390a15b50565b608051615d7c620001046000396000818161395e015281816139870152613bc40152615d7c6000f3fe6080604052600436106102935760003560e01c80638bd1e6781161015a578063b0affdf7116100c1578063df034cd01161007a578063df034cd0146107d7578063e9172c2d146107f7578063f2fde38b14610817578063f6ce035414610837578063f765417614610857578063fd614f411461087757600080fd5b8063b0affdf7146106af578063b72bcc66146106dd578063b85a2ce1146106f0578063bcecc5ba14610710578063bf59b4881461078c578063de4b0548146107b057600080fd5b80639eab5253116101135780639eab5253146105fc578063a084b6c014610611578063a8e6f1e714610636578063ab6efc3014610649578063ad3cb1cc1461065e578063b044631c1461069c57600080fd5b80638bd1e678146105285780638da5cb5b146105555780638dc157911461056a5780638e58c55d1461058a5780638ee31392146105aa5780639d7b8545146105dc57600080fd5b80635523a960116101fe578063715018a6116101b7578063715018a6146104965780637698a833146104ab57806376e92559146104cb57806379962a26146104e05780637b8daaaf146104f357806380e038bc1461051357600080fd5b80635523a960146103fb57806355f366381461040e57806356c0e9921461042e57806358fa68841461044157806364c6d00a146104705780636bda59da1461048357600080fd5b806345e838ca1161025057806345e838ca1461036c5780634f1ef2861461037f5780634fa20a2914610392578063524a1541146103b257806352d1902d146103c557806353c470d3146103e857600080fd5b80630e769b2b146102985780632ada2596146102d5578063371b52e3146103025780633a8246f3146103195780634107574c1461032c578063439fab911461034c575b600080fd5b3480156102a457600080fd5b506006546102b8906001600160a01b031681565b6040516001600160a01b0390911681526020015b60405180910390f35b3480156102e157600080fd5b506102f56102f03660046143e0565b610897565b6040516102cc9190614437565b34801561030e57600080fd5b50610317610912565b005b61031761032736600461457f565b6109d0565b34801561033857600080fd5b50610317610347366004614627565b610bb1565b34801561035857600080fd5b50610317610367366004614702565b610bef565b61031761037a3660046147a2565b610d31565b61031761038d36600461487f565b610ef2565b34801561039e57600080fd5b506103176103ad3660046148ce565b610f11565b6103176103c0366004614927565b610f51565b3480156103d157600080fd5b506103da61111c565b6040519081526020016102cc565b6103176103f63660046149f6565b611139565b61031761040936600461457f565b611328565b34801561041a57600080fd5b50610317610429366004614ac7565b61145e565b61031761043c366004614b4e565b61149f565b34801561044d57600080fd5b5061046161045c366004614bb9565b611656565b6040516102cc93929190614c2e565b61031761047e366004614b4e565b611853565b610317610491366004614c71565b611983565b3480156104a257600080fd5b50610317611ae5565b3480156104b757600080fd5b506103176104c6366004614cee565b611af9565b3480156104d757600080fd5b506000546103da565b6103176104ee366004614d88565b611cb3565b3480156104ff57600080fd5b5061031761050e366004614e1c565b611ea1565b34801561051f57600080fd5b50610317611ee4565b34801561053457600080fd5b50610548610543366004614e39565b611f72565b6040516102cc9190614e5b565b34801561056157600080fd5b506102b86120c0565b34801561057657600080fd5b50610317610585366004614ea9565b6120ee565b34801561059657600080fd5b506103176105a5366004614efa565b61211e565b3480156105b657600080fd5b506003546105c79063ffffffff1681565b60405163ffffffff90911681526020016102cc565b3480156105e857600080fd5b506103176105f73660046143e0565b6122ce565b34801561060857600080fd5b50610548612394565b34801561061d57600080fd5b5061062661242d565b60405190151581526020016102cc565b610317610644366004614fa6565b61245b565b34801561065557600080fd5b506103da6125fa565b34801561066a57600080fd5b5061068f604051806040016040528060058152602001640352e302e360dc1b81525081565b6040516102cc9190615096565b6103176106aa366004614b4e565b612706565b3480156106bb57600080fd5b506106cf6106ca366004614bb9565b6128d3565b6040516102cc9291906150e2565b6103176106eb366004615107565b612961565b3480156106fc57600080fd5b5061031761070b366004615170565b612a47565b34801561071c57600080fd5b5061076061072b366004614e1c565b6005602052600090815260409020805460019091015463ffffffff8216916001600160a01b03600160201b9091048116911683565b6040805163ffffffff90941684526001600160a01b0392831660208501529116908201526060016102cc565b34801561079857600080fd5b506003546105c790600160c01b900463ffffffff1681565b3480156107bc57600080fd5b506003546102b890600160201b90046001600160a01b031681565b3480156107e357600080fd5b506004546102b8906001600160a01b031681565b34801561080357600080fd5b506103da6108123660046143e0565b612c5f565b34801561082357600080fd5b506103176108323660046143e0565b612cf0565b34801561084357600080fd5b5061031761085236600461519e565b612d2b565b34801561086357600080fd5b506007546102b8906001600160a01b031681565b34801561088357600080fd5b5061068f6108923660046151de565b612e50565b6040805160808101825260008082526020820181905291810182905260608101919091526108c482613492565b6040805160808101825291546001600160a01b038116835263ffffffff600160a01b820481166020850152600160c01b8204811692840192909252600160e01b900416606082015292915050565b61091a6120c0565b6001600160a01b0316336001600160a01b03161415801561094e57506004546001600160a01b0316158061094e5750333014155b1561096c57604051633b4e61ad60e01b815260040160405180910390fd5b600654600754604051630933e36d60e11b81526001600160a01b039182166004820152911690631267c6da906024015b600060405180830381600087803b1580156109b657600080fd5b505af11580156109ca573d6000803e3d6000fd5b50505050565b6109d861242d565b6109f5576040516386e2123960e01b815260040160405180910390fd5b838380806020026020016040519081016040528093929190818152602001838360200280828437600092019190915250506040805160208087028281018201909352868252909350869250859182918501908490808284376000920191909152505082518451149150610a7d905057604051631d3c4ecb60e31b815260040160405180910390fd5b6000805b8351811015610ab957828181518110610a9c57610a9c615264565b602002602001015182610aaf9190615290565b9150600101610a81565b5080341015610adb57604051631144943160e21b815260040160405180910390fd5b42610ae5816134e0565b610aef8a8a6136b1565b604051631041d5d360e21b90600090610b1290839085908f908f906020016152a3565b6040516020818303038152906040529050610ba382828c8c80806020026020016040519081016040528093929190818152602001838360200280828437600081840152601f19601f820116905080830192505050505050508b8b808060200260200160405190810160405280939291908181526020018383602002808284376000920191909152506137b292505050565b505050505050505050505050565b610bb961242d565b15610bd7576040516312ab28a760e11b815260040160405180910390fd5b610be0836134e0565b610bea82826136b1565b505050565b7ff0c57e16840df040f15088dc2f81fe391c3923bec73e23a9662efc9c229c6a008054600160401b810460ff1615906001600160401b0316600081158015610c345750825b90506000826001600160401b03166001148015610c505750303b155b905081158015610c5e575080155b15610c7c5760405163f92ee8a960e01b815260040160405180910390fd5b845467ffffffffffffffff191660011785558315610ca657845460ff60401b1916600160401b1785555b6000806000806000808b806020019051810190610cc391906152e6565b955095509550955095509550610cdd8686868686866137f7565b5050505050508315610d2957845460ff60401b19168555604051600181527fc7f505b2f371ae2175ee4913f4499e1f2633a7b5936321eed1cdaeb6115181d29060200160405180910390a15b505050505050565b610d39613894565b610d4161242d565b610d5e576040516386e2123960e01b815260040160405180910390fd5b838380806020026020016040519081016040528093929190818152602001838360200280828437600092019190915250506040805160208087028281018201909352868252909350869250859182918501908490808284376000920191909152505082518451149150610de6905057604051631d3c4ecb60e31b815260040160405180910390fd5b6000805b8351811015610e2257828181518110610e0557610e05615264565b602002602001015182610e189190615290565b9150600101610dea565b5080341015610e4457604051631144943160e21b815260040160405180910390fd5b610e4f8a8a8a6138c6565b604051630abe6cc760e31b90600090610e729083908e908e908e9060200161536d565b6040516020818303038152906040529050610ba382828b8b8080602002602001604051908101604052809392919081815260200183836020028082843760009201919091525050604080516020808f0282810182019093528e82529093508e92508d9182918501908490808284376000920191909152506137b292505050565b610efa613953565b610f03826139f8565b610f0d8282613a97565b5050565b6004546001600160a01b03161580610f295750333014155b15610f475760405163699c6d7960e01b815260040160405180910390fd5b610f0d8282613b54565b610f59613894565b610f6161242d565b610f7e576040516386e2123960e01b815260040160405180910390fd5b838380806020026020016040519081016040528093929190818152602001838360200280828437600092019190915250506040805160208087028281018201909352868252909350869250859182918501908490808284376000920191909152505082518451149150611006905057604051631d3c4ecb60e31b815260040160405180910390fd5b6000805b83518110156110425782818151811061102557611025615264565b6020026020010151826110389190615290565b915060010161100a565b508034101561106457604051631144943160e21b815260040160405180910390fd5b61106e8989613b54565b604051634fa20a2960e01b9060009061108f9083908d908d906020016153c0565b604051602081830303815290604052905061110f82828b8b8080602002602001604051908101604052809392919081815260200183836020028082843760009201919091525050604080516020808f0282810182019093528e82529093508e92508d9182918501908490808284376000920191909152506137b292505050565b5050505050505050505050565b6000611126613bb9565b50600080516020615d5083398151915290565b611141613894565b61114961242d565b611166576040516386e2123960e01b815260040160405180910390fd5b8481805182511461118a57604051631d3c4ecb60e31b815260040160405180910390fd5b6000805b83518110156111c6578281815181106111a9576111a9615264565b6020026020010151826111bc9190615290565b915060010161118e565b50803410156111e857604051631144943160e21b815260040160405180910390fd5b87518751811415806111fb575080875114155b80611207575080865114155b1561122557604051631d3c4ecb60e31b815260040160405180910390fd5b633db380d560e21b60005b8281101561110f576000828b838151811061124d5761124d615264565b60200260200101518b848151811061126757611267615264565b60200260200101518b858151811061128157611281615264565b60200260200101516040516020016112d094939291906001600160e01b03199490941684526001600160a01b03928316602085015263ffffffff91909116604084015216606082015260800190565b604051602081830303815290604052905061131f83828e85815181106112f8576112f8615264565b60200260200101518b868151811061131257611312615264565b6020026020010151613c02565b50600101611230565b61133061242d565b61134d576040516386e2123960e01b815260040160405180910390fd5b8383808060200260200160405190810160405280939291908181526020018383602002808284376000920191909152505060408051602080870282810182019093528682529093508692508591829185019084908082843760009201919091525050825184511491506113d5905057604051631d3c4ecb60e31b815260040160405180910390fd5b6000805b8351811015611411578281815181106113f4576113f4615264565b6020026020010151826114079190615290565b91506001016113d9565b508034101561143357604051631144943160e21b815260040160405180910390fd5b61143d89896136b1565b604051638dc1579160e01b9060009061108f9083908d908d906020016153f4565b6004546001600160a01b031615806114765750333014155b156114945760405163699c6d7960e01b815260040160405180910390fd5b610bea8383836138c6565b6114a7613894565b6114af61242d565b6114cc576040516386e2123960e01b815260040160405180910390fd5b838380806020026020016040519081016040528093929190818152602001838360200280828437600092019190915250506040805160208087028281018201909352868252909350869250859182918501908490808284376000920191909152505082518451149150611554905057604051631d3c4ecb60e31b815260040160405180910390fd5b6000805b83518110156115905782818151811061157357611573615264565b6020026020010151826115869190615290565b9150600101611558565b50803410156115b257604051631144943160e21b815260040160405180910390fd5b604080516320380e2f60e21b6020820181905291600091015b604051602081830303815290604052905061164b82828b8b8080602002602001604051908101604052809392919081815260200183836020028082843760009201919091525050604080516020808f0282810182019093528e82529093508e92508d9182918501908490808284376000920191909152506137b292505050565b505050505050505050565b60608060606000845190506000816001600160401b0381111561167b5761167b614445565b6040519080825280602002602001820160405280156116a4578160200160208202803683370190505b5090506000826001600160401b038111156116c1576116c1614445565b6040519080825280602002602001820160405280156116ea578160200160208202803683370190505b5090506000836001600160401b0381111561170757611707614445565b604051908082528060200260200182016040528015611730578160200160208202803683370190505b50905060005b848110156118445760006117628a838151811061175557611755615264565b6020026020010151613492565b6040805160808101825291546001600160a01b038116835263ffffffff600160a01b820481166020850152600160c01b8204811692840192909252600160e01b900416606082018190528651919250908690849081106117c4576117c4615264565b602002602001019063ffffffff16908163ffffffff168152505080604001518483815181106117f5576117f5615264565b602002602001019063ffffffff16908163ffffffff1681525050806020015183838151811061182657611826615264565b63ffffffff9092166020928302919091019091015250600101611736565b50919790965090945092505050565b61185b613894565b61186361242d565b611880576040516386e2123960e01b815260040160405180910390fd5b838380806020026020016040519081016040528093929190818152602001838360200280828437600092019190915250506040805160208087028281018201909352868252909350869250859182918501908490808284376000920191909152505082518451149150611908905057604051631d3c4ecb60e31b815260040160405180910390fd5b6000805b83518110156119445782818151811061192757611927615264565b60200260200101518261193a9190615290565b915060010161190c565b508034101561196657604051631144943160e21b815260040160405180910390fd5b6040805163371b52e360e01b6020820181905291600091016115cb565b61198b613894565b61199361242d565b6119b0576040516386e2123960e01b815260040160405180910390fd5b828180518251146119d457604051631d3c4ecb60e31b815260040160405180910390fd5b6000805b8351811015611a10578281815181106119f3576119f3615264565b602002602001015182611a069190615290565b91506001016119d8565b5080341015611a3257604051631144943160e21b815260040160405180910390fd5b855185518114611a5557604051631d3c4ecb60e31b815260040160405180910390fd5b639d7b854560e01b60005b8281101561164b57600082898381518110611a7d57611a7d615264565b6020026020010151604051602001611ab49291906001600160e01b03199290921682526001600160a01b0316602082015260400190565b6040516020818303038152906040529050611adc83828c85815181106112f8576112f8615264565b50600101611a60565b611aed613894565b611af76000613c81565b565b611b01613894565b611b0961242d565b611b26576040516386e2123960e01b815260040160405180910390fd5b63ffffffff8216600090815260056020526040902054600160201b90046001600160a01b031615801590611b65575060208101516001600160a01b0316155b15611ba35763ffffffff8216600090815260056020526040902080546001600160c01b031916815560010180546001600160a01b0319169055611c45565b805163ffffffff161580611bc2575060208101516001600160a01b0316155b15611be057604051638c9c2fed60e01b815260040160405180910390fd5b63ffffffff828116600090815260056020908152604091829020845181549286015194166001600160c01b031990921691909117600160201b6001600160a01b039485160217815590830151600190910180546001600160a01b031916919092161790555b806000015163ffffffff1681602001516001600160a01b03168363ffffffff167f4db6d44cad7c0eddcb10fcbcb14f9600520da0ea078eedc230cbed5aa0661d208460400151604051611ca791906001600160a01b0391909116815260200190565b60405180910390a45050565b611cbb613894565b611cc361242d565b611ce0576040516386e2123960e01b815260040160405180910390fd5b838380806020026020016040519081016040528093929190818152602001838360200280828437600092019190915250506040805160208087028281018201909352868252909350869250859182918501908490808284376000920191909152505082518451149150611d68905057604051631d3c4ecb60e31b815260040160405180910390fd5b6000805b8351811015611da457828181518110611d8757611d87615264565b602002602001015182611d9a9190615290565b9150600101611d6c565b5080341015611dc657604051631144943160e21b815260040160405180910390fd5b6000806000611dd48b611656565b6040519295509093509150638e58c55d60e01b90600090611e019083908f9088908890889060200161542c565b6040516020818303038152906040529050611e9282828e8e80806020026020016040519081016040528093929190818152602001838360200280828437600081840152601f19601f820116905080830192505050505050508d8d808060200260200160405190810160405280939291908181526020018383602002808284376000920191909152506137b292505050565b50505050505050505050505050565b611ea961242d565b15611ec7576040516312ab28a760e11b815260040160405180910390fd5b8063ffffffff16600003611ed85750425b611ee1816134e0565b50565b611eec6120c0565b6001600160a01b0316336001600160a01b031614158015611f2057506004546001600160a01b03161580611f205750333014155b15611f3e57604051633b4e61ad60e01b815260040160405180910390fd5b60065460075460405163031f799160e61b81526001600160a01b03918216600482015291169063c7de64409060240161099c565b60606000611f7f60005490565b90508084101580611f905750808310155b15611fae57604051631a1015fd60e01b815260040160405180910390fd5b611fb88484615494565b611fc3906001615290565b6001600160401b03811115611fda57611fda614445565b60405190808252806020026020018201604052801561202c57816020015b604080516080810182526000808252602080830182905292820181905260608201528252600019909201910181611ff85790505b509150835b8381116120b857600061204382613cf2565b6040805160808101825291546001600160a01b038116835263ffffffff600160a01b820481166020850152600160c01b8204811692840192909252600160e01b9004166060820152845190915081908590849081106120a4576120a4615264565b602090810291909101015250600101612031565b505092915050565b7f9016d09d72d40fdae2fd8ceac6b6234c7706214fd39c1cd1e609a0528c199300546001600160a01b031690565b6120f661242d565b15612114576040516312ab28a760e11b815260040160405180910390fd5b610f0d82826136b1565b6004546001600160a01b031615806121365750333014155b156121545760405163699c6d7960e01b815260040160405180910390fd5b835160005b81811015610d2957600061219b87838151811061217857612178615264565b60200260200101516001600160a01b031660009081526002602052604090205490565b905080600003612200576121fb8783815181106121ba576121ba615264565b60200260200101518784815181106121d4576121d4615264565b60200260200101518785815181106121ee576121ee615264565b6020026020010151613d1a565b6122c5565b600061220b82613f31565b905085838151811061221f5761221f615264565b6020908102919091010151815463ffffffff909116600160c01b0263ffffffff60c01b19909116178155845185908490811061225d5761225d615264565b60200260200101518160000160146101000a81548163ffffffff021916908363ffffffff1602179055506122c388848151811061229c5761229c615264565b60200260200101518885815181106122b6576122b6615264565b6020026020010151613f4c565b505b50600101612159565b6122d66120c0565b6001600160a01b0316336001600160a01b03161415801561230a57506004546001600160a01b0316158061230a5750333014155b1561232857604051633b4e61ad60e01b815260040160405180910390fd5b6006546007546040516334392cbd60e21b81526001600160a01b039182166004820152838216602482015291169063d0e4b2f490604401600060405180830381600087803b15801561237957600080fd5b505af115801561238d573d6000803e3d6000fd5b5050505050565b606060008001805480602002602001604051908101604052809291908181526020016000905b8282101561242457600084815260209081902060408051608081018252918501546001600160a01b038116835263ffffffff600160a01b8204811684860152600160c01b8204811692840192909252600160e01b90041660608201528252600190920191016123ba565b50505050905090565b6004546000906001600160a01b03161580156124565750600354600160c01b900463ffffffff16155b905090565b612463613894565b61246b61242d565b612488576040516386e2123960e01b815260040160405180910390fd5b838180518251146124ac57604051631d3c4ecb60e31b815260040160405180910390fd5b6000805b83518110156124e8578281815181106124cb576124cb615264565b6020026020010151826124de9190615290565b91506001016124b0565b508034101561250a57604051631144943160e21b815260040160405180910390fd5b865186518114158061251d575080865114155b1561253b57604051631d3c4ecb60e31b815260040160405180910390fd5b63b85a2ce160e01b60005b828110156125ee576000828a838151811061256357612563615264565b60200260200101518a848151811061257d5761257d615264565b60200260200101516040516020016125bd939291906001600160e01b03199390931683526001600160a01b03918216602084015216604082015260600190565b60405160208183030381529060405290506125e583828d85815181106112f8576112f8615264565b50600101612546565b50505050505050505050565b60008061260660005490565b905060005b8181101561270157600061261e82613cf2565b6040805160808101825291546001600160a01b038116835263ffffffff600160a01b820481166020850152600160c01b8204811692840192909252600160e01b90041660608201819052909150156126f857604051636018660f60e01b815273eEcf3eCAc38732A2fa02958552EeDe60c2EfD76190636018660f906126aa9060009085906004016154a7565b602060405180830381865af41580156126c7573d6000803e3d6000fd5b505050506040513d601f19601f820116820180604052508101906126eb91906154bb565b6126f59085615290565b93505b5060010161260b565b505090565b61270e61242d565b61272b576040516386e2123960e01b815260040160405180910390fd5b8383808060200260200160405190810160405280939291908181526020018383602002808284376000920191909152505060408051602080870282810182019093528682529093508692508591829185019084908082843760009201919091525050825184511491506127b3905057604051631d3c4ecb60e31b815260040160405180910390fd5b6000805b83518110156127ef578281815181106127d2576127d2615264565b6020026020010151826127e59190615290565b91506001016127b7565b508034101561281157604051631144943160e21b815260040160405180910390fd5b4261281b816134e0565b60408051637b8daaaf60e01b6020820181905263ffffffff84169282019290925260009060600160405160208183030381529060405290506125ee82828c8c80806020026020016040519081016040528093929190818152602001838360200280828437600081840152601f19601f820116905080830192505050505050508b8b808060200260200160405190810160405280939291908181526020018383602002808284376000920191909152506137b292505050565b60405163c0c53f1d60e01b8152606090819073eEcf3eCAc38732A2fa02958552EeDe60c2EfD7619063c0c53f1d906129129060009087906004016154d4565b600060405180830381865af415801561292f573d6000803e3d6000fd5b505050506040513d6000823e601f3d908101601f1916820160405261295791908101906155f3565b9094909350915050565b612969613894565b61297161242d565b61298e576040516386e2123960e01b815260040160405180910390fd5b63ffffffff84166000908152600560205260409020548490600160201b90046001600160a01b03166129df57604051628adb6d60e11b815263ffffffff821660048201526024015b60405180910390fd5b81341015612a0057604051631144943160e21b815260040160405180910390fd5b60405163278f794360e11b90600090612a219083908890889060200161564c565b6040516020818303038152906040529050612a3e82828987613c02565b50505050505050565b612a4f6120c0565b6001600160a01b0316336001600160a01b031614158015612a8357506004546001600160a01b03161580612a835750333014155b15612aa157604051633b4e61ad60e01b815260040160405180910390fd5b600680546001600160a01b0319166001600160a01b03848116918217909255604051634463315560e11b815291831660048301526000916388c662aa90602401602060405180830381865afa158015612afe573d6000803e3d6000fd5b505050506040513d601f19601f82011682018060405250810190612b229190615680565b90506001600160a01b038116612b4b57604051630352b0d160e41b815260040160405180910390fd5b60065460405163708728eb60e11b81526001600160a01b038481166004830152600092169063e10e51d690602401602060405180830381865afa158015612b96573d6000803e3d6000fd5b505050506040513d601f19601f82011682018060405250810190612bba9190615680565b90506001600160a01b0382163014801590612bde57506001600160a01b0381163014155b15612bfc57604051633170a38d60e01b815260040160405180910390fd5b600780546001600160a01b0319166001600160a01b0385811691821790925560408051928716835260208301919091527fc8d09d7710e05a8ef2f307dcf13f859ce7e661b3eee1a04a57c4d481758a6c1d910160405180910390a16109ca611ee4565b600080612c6b83610897565b604051636018660f60e01b815290915073eEcf3eCAc38732A2fa02958552EeDe60c2EfD76190636018660f90612ca89060009085906004016154a7565b602060405180830381865af4158015612cc5573d6000803e3d6000fd5b505050506040513d601f19601f82011682018060405250810190612ce991906154bb565b9392505050565b612cf8613894565b6001600160a01b038116612d2257604051631e4fbdf760e01b8152600060048201526024016129d6565b611ee181613c81565b612d336120c0565b6001600160a01b0316336001600160a01b031614158015612d6757506004546001600160a01b03161580612d675750333014155b15612d8557604051633b4e61ad60e01b815260040160405180910390fd5b6001600160a01b038316612dac5760405163bb4bcc3b60e01b815260040160405180910390fd5b60038054640100000000600160e01b031916600160201b6001600160a01b0386811691820263ffffffff60c01b191692909217600160c01b63ffffffff871690810291909117909355600480546001600160a01b0319169285169283179055604080519182526020820193909352918201527f21ae9d1c05d009b6af15c73821748e22e498496e2b29672090c67ae892322d6f9060600160405180910390a1505050565b6003546060908490849063ffffffff808316600160c01b90920416141580612e8657506004546001600160a01b03838116911614155b80612eac5750600354600160201b90046001600160a01b0316336001600160a01b031614155b15612eca5760405163b36b498160e01b815260040160405180910390fd5b600084806020019051810190612ee091906156ba565b90506060631541933960e31b6001600160e01b0319831601612f6f57600080600088806020019051810190612f1591906156d5565b9350935093505084838383604051602401612f3293929190615761565b60408051601f198184030181529190526020810180516001600160e01b03166001600160e01b03199093169290921790915293506133c092505050565b63b05df5d760e01b6001600160e01b0319831601612ff35760008087806020019051810190612f9e9190615774565b9250925050838282604051602401612fb79291906150e2565b60408051601f198184030181529190526020810180516001600160e01b03166001600160e01b03199093169290921790915292506133c0915050565b6371a73aa360e01b6001600160e01b0319831601613084576000806000808980602001905181019061302591906157dd565b9450945094509450508584848484604051602401613046949392919061588d565b60408051601f198184030181529190526020810180516001600160e01b03166001600160e01b03199093169290921790915294506133c09350505050565b638472555160e01b6001600160e01b0319831601613106576000868060200190518101906130b291906158c6565b60405163ffffffff821660248201529092508491506044015b60408051601f198184030181529190526020810180516001600160e01b03166001600160e01b03199093169290921790915291506133c09050565b63723ea86f60e01b6001600160e01b031983160161314e576000808780602001905181019061313591906158f2565b9250925050838282604051602401612fb7929190615948565b632fbe2a2d60e21b6001600160e01b031983160161319c5760008060008880602001905181019061317f9190615970565b9350935093505084838383604051602401612f32939291906159e3565b63024c7f2b60e21b6001600160e01b0319831601613206576000806000888060200190518101906131cd9190615a16565b6040516001600160a01b03808516602483015263ffffffff84166044830152821660648201529296509094509250869150608401612f32565b6347a5d31f60e01b6001600160e01b031983160161325f57600080878060200190518101906132359190615a67565b6040516001600160a01b038084166024830152821660448201529194509250859150606401612fb7565b6362847abb60e01b6001600160e01b03198316016132ad5760008680602001905181019061328d9190615aa6565b6040516001600160a01b03821660248201529092508491506044016130cb565b631fc7f1d160e21b6001600160e01b03198316016132f757506040805160048152602481019091526020810180516001600160e01b03166001600160e01b031984161790526133c0565b63c8e4ad1d60e01b6001600160e01b031983160161334157506040805160048152602481019091526020810180516001600160e01b03166001600160e01b031984161790526133c0565b63587086bd60e11b6001600160e01b03198316016133c057600080878060200190518101906133709190615ad2565b9250925050838282604051602401613389929190615b6e565b60408051601f198184030181529190526020810180516001600160e01b03166001600160e01b031990931692909217909152925050505b600080306001600160a01b0316836040516133db9190615b92565b6000604051808303816000865af19150503d8060008114613418576040519150601f19603f3d011682016040523d82523d6000602084013e61341d565b606091505b5091509150836001600160e01b0319168963ffffffff168e7f1291b044e5e68ff17a19703d0775336ad7ec700ef5679fbd11bd0084af55baf3858e60405161347a92919091151582526001600160a01b0316602082015260400190565b60405180910390a49c9b505050505050505050505050565b6001600160a01b038116600090815260026020526040812054806000036134d75760405163c6040d1d60e01b81526001600160a01b03841660048201526024016129d6565b612ce981613f31565b60035463ffffffff9081169082161115806135005750428163ffffffff16115b1561351e576040516310aa1c7560e31b815260040160405180910390fd5b60008054905b8181101561365457600061353782613cf2565b8054909150600090600160e01b900463ffffffff1615613603578154600090600160a01b900463ffffffff1661357b578254600160c01b900463ffffffff16613585565b60035463ffffffff165b905060006135938288615bae565b845463ffffffff91821692506064916135b491600160e01b90041683615bcb565b6135be9190615be2565b8454909350839085906014906135e2908490600160a01b900463ffffffff16615c04565b92506101000a81548163ffffffff021916908363ffffffff16021790555050505b815460405163ffffffff831681526001600160a01b03909116907f780f517310a8481b4817e26f9d1a336e49e7522775e8e6b4fb22c73908be6ce69060200160405180910390a25050600101613524565b506040805163ffffffff84168152602081018390527f896e364af402e453909cff1f8bb117d283d37a717e7cf4a5c5b88be2197fa09f910160405180910390a1506003805463ffffffff191663ffffffff92909216919091179055565b6000806136bd846128d3565b600654600754604051637677856760e11b81529395509193506001600160a01b039081169263ecef0ace926136fc921690869086908990600401615c21565b600060405180830381600087803b15801561371657600080fd5b505af115801561372a573d6000803e3d6000fd5b50505050600082828560405160200161374593929190615c6f565b60408051601f1981840301815282825280516020918201206007546001600160a01b0316845290830181905263ffffffff87168383015290519092507fd4b7a01ea5a8b6ac341311c6e426730790e70b6ca9c8d9adee240379b5e81c289181900360600190a15050505050565b60005b825181101561238d576137ef85858584815181106137d5576137d5615264565b602002602001015185858151811061131257611312615264565b6001016137b5565b6137ff614015565b6001600160a01b0386166138265760405163bb4bcc3b60e01b815260040160405180910390fd5b60006001600160a01b0382161561383d578161383f565b335b905061384a8161405e565b6001600160a01b038216613887576001600160a01b03851661387f57604051635413b8d760e11b815260040160405180910390fd5b613887611ae5565b612a3e878787878761406f565b3361389d6120c0565b6001600160a01b031614611af75760405163118cdaa760e01b81523360048201526024016129d6565b82518251811415806138d9575080825114155b156138f757604051630533bc9360e21b815260040160405180910390fd5b60005b8181101561238d5761394b85828151811061391757613917615264565b602002602001015185838151811061393157613931615264565b60200260200101518584815181106121ee576121ee615264565b6001016138fa565b306001600160a01b037f00000000000000000000000000000000000000000000000000000000000000001614806139da57507f00000000000000000000000000000000000000000000000000000000000000006001600160a01b03166139ce600080516020615d50833981519152546001600160a01b031690565b6001600160a01b031614155b15611af75760405163703e46dd60e11b815260040160405180910390fd5b613a0061242d565b15613a3e57613a0d6120c0565b6001600160a01b0316336001600160a01b031614611ee15760405163066e441f60e51b815260040160405180910390fd5b613a466120c0565b6001600160a01b0316336001600160a01b0316141580613a7957506004546001600160a01b03161580613a795750333014155b15611ee15760405163066e441f60e51b815260040160405180910390fd5b816001600160a01b03166352d1902d6040518163ffffffff1660e01b8152600401602060405180830381865afa925050508015613af1575060408051601f3d908101601f19168201909252613aee918101906154bb565b60015b613b1957604051634c9c8ce360e01b81526001600160a01b03831660048201526024016129d6565b600080516020615d508339815191528114613b4a57604051632a87526960e21b8152600481018290526024016129d6565b610bea83836140f4565b815181518114613b7757604051630533bc9360e21b815260040160405180910390fd5b60005b818110156109ca57613bb1848281518110613b9757613b97615264565b60200260200101518483815181106122b6576122b6615264565b600101613b7a565b306001600160a01b037f00000000000000000000000000000000000000000000000000000000000000001614611af75760405163703e46dd60e11b815260040160405180910390fd5b6000613c0f83858461414a565b63ffffffff8416600081815260056020908152604091829020549151600160201b9092046001600160a01b031682529293506001600160e01b031988169284917f20ffb62aa5e31e4b559317e8af8f877e19a9126fd6ff1fee93bcf06e59d385cc910160405180910390a45050505050565b7f9016d09d72d40fdae2fd8ceac6b6234c7706214fd39c1cd1e609a0528c19930080546001600160a01b031981166001600160a01b03848116918217845560405192169182907f8be0079c531659141344cd1fd0a4f28419497f9722a3daafe3b4186f6b6457e090600090a3505050565b6000806000018281548110613d0957613d09615264565b906000526020600020019050919050565b6001600160a01b038316613d4c57604051633899e57b60e01b81526001600160a01b03841660048201526024016129d6565b6001600160a01b03831660009081526002602052604090205415613d8e57604051636822fa9960e11b81526001600160a01b03841660048201526024016129d6565b606463ffffffff83161115613dcd5760405163424f515b60e11b81526001600160a01b038416600482015263ffffffff831660248201526044016129d6565b428163ffffffff161115613e0b5760405163faac476360e01b81526001600160a01b038416600482015263ffffffff821660248201526044016129d6565b604080516080810182526001600160a01b038086168083526000602080850182815263ffffffff8881168789019081528a82166060890190815285546001818101885587805299517f290decd9548b62a8d60345a988386fc84ba6bc95484008f6362f93160ef3e56390910180549551935192518516600160e01b026001600160e01b03938616600160c01b02939093166001600160c01b0394909516600160a01b026001600160c01b031990961691909916179390931716171790935583548401938490558181526002909252908390209190915590517f13ca1f9a974ca1b85618843282dc1981c63a62c389aa5cf6e4a31937f8434e7390613f24908490869063ffffffff92831681529116602082015260400190565b60405180910390a2505050565b6000613f46613f41600184615494565b613cf2565b92915050565b606463ffffffff82161115613f8b5760405163424f515b60e11b81526001600160a01b038316600482015263ffffffff821660248201526044016129d6565b6000613f9683613492565b805463ffffffff848116600160e01b81026001600160e01b039093169290921780845560408051938452600160c01b820483166020850152600160a01b909104909116908201529091506001600160a01b038416907f59f55668c694024ea61bdb5bb12ea8897197f9d9825fa7bee1195e263b64472790606001613f24565b7ff0c57e16840df040f15088dc2f81fe391c3923bec73e23a9662efc9c229c6a0054600160401b900460ff16611af757604051631afcd79f60e31b815260040160405180910390fd5b614066614015565b611ee18161424d565b614077614015565b6003805463ffffffff909516600160c01b0263ffffffff60c01b196001600160a01b03978816600160201b0216640100000000600160e01b03199096169590951794909417909355600480549285166001600160a01b03199384161790556006805491851691831691909117905560078054929093169116179055565b6140fd82614255565b6040516001600160a01b038316907fbc7cd75a20ee27fd9adebab32041f755214dbc6bffa90cc0225b39da2e5c2d3b90600090a280511561414257610bea82826142ba565b610f0d614327565b63ffffffff83166000908152600560205260408120548490600160201b90046001600160a01b031661419657604051628adb6d60e11b815263ffffffff821660048201526024016129d6565b60035463ffffffff808716600090815260056020526040808220805460019091015491516345560b5d60e11b81526001600160a01b03600160201b96879004811696638aac16ba968b9661420196918616959290920483169391921690829081908e90600401615cf4565b60206040518083038185885af115801561421f573d6000803e3d6000fd5b50505050506040513d601f19601f8201168201806040525081019061424491906154bb565b95945050505050565b612cf8614015565b806001600160a01b03163b60000361428b57604051634c9c8ce360e01b81526001600160a01b03821660048201526024016129d6565b600080516020615d5083398151915280546001600160a01b0319166001600160a01b0392909216919091179055565b6060600080846001600160a01b0316846040516142d79190615b92565b600060405180830381855af49150503d8060008114614312576040519150601f19603f3d011682016040523d82523d6000602084013e614317565b606091505b5091509150614244858383614346565b3415611af75760405163b398979f60e01b815260040160405180910390fd5b60608261435b57614356826143a2565b612ce9565b815115801561437257506001600160a01b0384163b155b1561439b57604051639996b31560e01b81526001600160a01b03851660048201526024016129d6565b5092915050565b8051156143b25780518082602001fd5b604051630a12f52160e11b815260040160405180910390fd5b6001600160a01b0381168114611ee157600080fd5b6000602082840312156143f257600080fd5b8135612ce9816143cb565b80516001600160a01b0316825260208082015163ffffffff9081169184019190915260408083015182169084015260609182015116910152565b60808101613f4682846143fd565b634e487b7160e01b600052604160045260246000fd5b604051601f8201601f191681016001600160401b038111828210171561448357614483614445565b604052919050565b60006001600160401b038211156144a4576144a4614445565b5060051b60200190565b600082601f8301126144bf57600080fd5b813560206144d46144cf8361448b565b61445b565b82815260059290921b840181019181810190868411156144f357600080fd5b8286015b8481101561451757803561450a816143cb565b83529183019183016144f7565b509695505050505050565b63ffffffff81168114611ee157600080fd5b60008083601f84011261454657600080fd5b5081356001600160401b0381111561455d57600080fd5b6020830191508360208260051b850101111561457857600080fd5b9250929050565b6000806000806000806080878903121561459857600080fd5b86356001600160401b03808211156145af57600080fd5b6145bb8a838b016144ae565b9750602089013591506145cd82614522565b909550604088013590808211156145e357600080fd5b6145ef8a838b01614534565b9096509450606089013591508082111561460857600080fd5b5061461589828a01614534565b979a9699509497509295939492505050565b60008060006060848603121561463c57600080fd5b833561464781614522565b925060208401356001600160401b0381111561466257600080fd5b61466e868287016144ae565b925050604084013561467f81614522565b809150509250925092565b60006001600160401b038211156146a3576146a3614445565b50601f01601f191660200190565b600082601f8301126146c257600080fd5b81356146d06144cf8261468a565b8181528460208386010111156146e557600080fd5b816020850160208301376000918101602001919091529392505050565b60006020828403121561471457600080fd5b81356001600160401b0381111561472a57600080fd5b614736848285016146b1565b949350505050565b600082601f83011261474f57600080fd5b8135602061475f6144cf8361448b565b82815260059290921b8401810191818101908684111561477e57600080fd5b8286015b8481101561451757803561479581614522565b8352918301918301614782565b600080600080600080600060a0888a0312156147bd57600080fd5b87356001600160401b03808211156147d457600080fd5b6147e08b838c016144ae565b985060208a01359150808211156147f657600080fd5b6148028b838c0161473e565b975060408a013591508082111561481857600080fd5b6148248b838c0161473e565b965060608a013591508082111561483a57600080fd5b6148468b838c01614534565b909650945060808a013591508082111561485f57600080fd5b5061486c8a828b01614534565b989b979a50959850939692959293505050565b6000806040838503121561489257600080fd5b823561489d816143cb565b915060208301356001600160401b038111156148b857600080fd5b6148c4858286016146b1565b9150509250929050565b600080604083850312156148e157600080fd5b82356001600160401b03808211156148f857600080fd5b614904868387016144ae565b9350602085013591508082111561491a57600080fd5b506148c48582860161473e565b6000806000806000806080878903121561494057600080fd5b86356001600160401b038082111561495757600080fd5b6149638a838b016144ae565b9750602089013591508082111561497957600080fd5b6149858a838b0161473e565b965060408901359150808211156145e357600080fd5b600082601f8301126149ac57600080fd5b813560206149bc6144cf8361448b565b82815260059290921b840181019181810190868411156149db57600080fd5b8286015b8481101561451757803583529183019183016149df565b600080600080600060a08688031215614a0e57600080fd5b85356001600160401b0380821115614a2557600080fd5b614a3189838a0161473e565b96506020880135915080821115614a4757600080fd5b614a5389838a016144ae565b95506040880135915080821115614a6957600080fd5b614a7589838a0161473e565b94506060880135915080821115614a8b57600080fd5b614a9789838a016144ae565b93506080880135915080821115614aad57600080fd5b50614aba8882890161499b565b9150509295509295909350565b600080600060608486031215614adc57600080fd5b83356001600160401b0380821115614af357600080fd5b614aff878388016144ae565b94506020860135915080821115614b1557600080fd5b614b218783880161473e565b93506040860135915080821115614b3757600080fd5b50614b448682870161473e565b9150509250925092565b60008060008060408587031215614b6457600080fd5b84356001600160401b0380821115614b7b57600080fd5b614b8788838901614534565b90965094506020870135915080821115614ba057600080fd5b50614bad87828801614534565b95989497509550505050565b600060208284031215614bcb57600080fd5b81356001600160401b03811115614be157600080fd5b614736848285016144ae565b600081518084526020808501945080840160005b83811015614c2357815163ffffffff1687529582019590820190600101614c01565b509495945050505050565b606081526000614c416060830186614bed565b8281036020840152614c538186614bed565b90508281036040840152614c678185614bed565b9695505050505050565b600080600060608486031215614c8657600080fd5b83356001600160401b0380821115614c9d57600080fd5b614ca98783880161473e565b94506020860135915080821115614cbf57600080fd5b614ccb878388016144ae565b93506040860135915080821115614ce157600080fd5b50614b448682870161499b565b6000808284036080811215614d0257600080fd5b8335614d0d81614522565b92506060601f1982011215614d2157600080fd5b50604051606081018181106001600160401b0382111715614d4457614d44614445565b6040526020840135614d5581614522565b81526040840135614d65816143cb565b60208201526060840135614d78816143cb565b6040820152919491935090915050565b600080600080600060608688031215614da057600080fd5b85356001600160401b0380821115614db757600080fd5b614dc389838a016144ae565b96506020880135915080821115614dd957600080fd5b614de589838a01614534565b90965094506040880135915080821115614dfe57600080fd5b50614e0b88828901614534565b969995985093965092949392505050565b600060208284031215614e2e57600080fd5b8135612ce981614522565b60008060408385031215614e4c57600080fd5b50508035926020909101359150565b6020808252825182820181905260009190848201906040850190845b81811015614e9d57614e8a8385516143fd565b9284019260809290920191600101614e77565b50909695505050505050565b60008060408385031215614ebc57600080fd5b82356001600160401b03811115614ed257600080fd5b614ede858286016144ae565b9250506020830135614eef81614522565b809150509250929050565b60008060008060808587031215614f1057600080fd5b84356001600160401b0380821115614f2757600080fd5b614f33888389016144ae565b95506020870135915080821115614f4957600080fd5b614f558883890161473e565b94506040870135915080821115614f6b57600080fd5b614f778883890161473e565b93506060870135915080821115614f8d57600080fd5b50614f9a8782880161473e565b91505092959194509250565b60008060008060808587031215614fbc57600080fd5b84356001600160401b0380821115614fd357600080fd5b614fdf8883890161473e565b95506020870135915080821115614ff557600080fd5b615001888389016144ae565b9450604087013591508082111561501757600080fd5b615023888389016144ae565b9350606087013591508082111561503957600080fd5b50614f9a8782880161499b565b60005b83811015615061578181015183820152602001615049565b50506000910152565b60008151808452615082816020860160208601615046565b601f01601f19169290920160200192915050565b602081526000612ce9602083018461506a565b600081518084526020808501945080840160005b83811015614c235781516001600160a01b0316875295820195908201906001016150bd565b6040815260006150f560408301856150a9565b82810360208401526142448185614bed565b6000806000806080858703121561511d57600080fd5b843561512881614522565b93506020850135615138816143cb565b925060408501356001600160401b0381111561515357600080fd5b61515f878288016146b1565b949793965093946060013593505050565b6000806040838503121561518357600080fd5b823561518e816143cb565b91506020830135614eef816143cb565b6000806000606084860312156151b357600080fd5b83356151be816143cb565b925060208401356151ce81614522565b9150604084013561467f816143cb565b60008060008060008060c087890312156151f757600080fd5b86359550602087013594506040870135615210816143cb565b93506060870135615220816143cb565b9250608087013561523081614522565b915060a08701356001600160401b0381111561524b57600080fd5b61525789828a016146b1565b9150509295509295509295565b634e487b7160e01b600052603260045260246000fd5b634e487b7160e01b600052601160045260246000fd5b80820180821115613f4657613f4661527a565b63ffffffff60e01b85168152600063ffffffff8086166020840152608060408401526152d260808401866150a9565b915080841660608401525095945050505050565b60008060008060008060c087890312156152ff57600080fd5b865161530a816143cb565b602088015190965061531b81614522565b604088015190955061532c816143cb565b606088015190945061533d816143cb565b608088015190935061534e816143cb565b60a088015190925061535f816143cb565b809150509295509295509295565b63ffffffff60e01b8516815260806020820152600061538f60808301866150a9565b82810360408401526153a18186614bed565b905082810360608401526153b58185614bed565b979650505050505050565b63ffffffff60e01b841681526060602082015260006153e260608301856150a9565b8281036040840152614c678185614bed565b63ffffffff60e01b8416815260606020820152600061541660608301856150a9565b905063ffffffff83166040830152949350505050565b63ffffffff60e01b8616815260a06020820152600061544e60a08301876150a9565b82810360408401526154608187614bed565b905082810360608401526154748186614bed565b905082810360808401526154888185614bed565b98975050505050505050565b81810381811115613f4657613f4661527a565b82815260a08101612ce960208301846143fd565b6000602082840312156154cd57600080fd5b5051919050565b6000604082018483526020604081850152818551808452606086019150828701935060005b8181101561551e5784516001600160a01b0316835293830193918301916001016154f9565b5090979650505050505050565b600082601f83011261553c57600080fd5b8151602061554c6144cf8361448b565b82815260059290921b8401810191818101908684111561556b57600080fd5b8286015b84811015614517578051615582816143cb565b835291830191830161556f565b600082601f8301126155a057600080fd5b815160206155b06144cf8361448b565b82815260059290921b840181019181810190868411156155cf57600080fd5b8286015b848110156145175780516155e681614522565b83529183019183016155d3565b6000806040838503121561560657600080fd5b82516001600160401b038082111561561d57600080fd5b6156298683870161552b565b9350602085015191508082111561563f57600080fd5b506148c48582860161558f565b6001600160e01b0319841681526001600160a01b03831660208201526060604082018190526000906142449083018461506a565b60006020828403121561569257600080fd5b8151612ce9816143cb565b80516001600160e01b0319811681146156b557600080fd5b919050565b6000602082840312156156cc57600080fd5b612ce98261569d565b600080600080608085870312156156eb57600080fd5b6156f48561569d565b935060208501516001600160401b038082111561571057600080fd5b61571c8883890161552b565b9450604087015191508082111561573257600080fd5b61573e8883890161558f565b9350606087015191508082111561575457600080fd5b50614f9a8782880161558f565b606081526000614c4160608301866150a9565b60008060006060848603121561578957600080fd5b6157928461569d565b925060208401516001600160401b03808211156157ae57600080fd5b6157ba8783880161552b565b935060408601519150808211156157d057600080fd5b50614b448682870161558f565b600080600080600060a086880312156157f557600080fd5b6157fe8661569d565b945060208601516001600160401b038082111561581a57600080fd5b61582689838a0161552b565b9550604088015191508082111561583c57600080fd5b61584889838a0161558f565b9450606088015191508082111561585e57600080fd5b61586a89838a0161558f565b9350608088015191508082111561588057600080fd5b50614aba8882890161558f565b6080815260006158a060808301876150a9565b82810360208401526158b28187614bed565b905082810360408401526153a18186614bed565b600080604083850312156158d957600080fd5b6158e28361569d565b91506020830151614eef81614522565b60008060006060848603121561590757600080fd5b6159108461569d565b925060208401516001600160401b0381111561592b57600080fd5b6159378682870161552b565b925050604084015161467f81614522565b60408152600061595b60408301856150a9565b905063ffffffff831660208301529392505050565b6000806000806080858703121561598657600080fd5b61598f8561569d565b9350602085015161599f81614522565b60408601519093506001600160401b038111156159bb57600080fd5b6159c78782880161552b565b92505060608501516159d881614522565b939692955090935050565b600063ffffffff808616835260606020840152615a0360608401866150a9565b9150808416604084015250949350505050565b60008060008060808587031215615a2c57600080fd5b615a358561569d565b93506020850151615a45816143cb565b6040860151909350615a5681614522565b60608601519092506159d8816143cb565b600080600060608486031215615a7c57600080fd5b615a858461569d565b92506020840151615a95816143cb565b604085015190925061467f816143cb565b60008060408385031215615ab957600080fd5b615ac28361569d565b91506020830151614eef816143cb565b600080600060608486031215615ae757600080fd5b615af08461569d565b92506020840151615b00816143cb565b60408501519092506001600160401b03811115615b1c57600080fd5b8401601f81018613615b2d57600080fd5b8051615b3b6144cf8261468a565b818152876020838501011115615b5057600080fd5b615b61826020830160208601615046565b8093505050509250925092565b6001600160a01b03831681526040602082018190526000906147369083018461506a565b60008251615ba4818460208701615046565b9190910192915050565b63ffffffff82811682821603908082111561439b5761439b61527a565b8082028115828204841417613f4657613f4661527a565b600082615bff57634e487b7160e01b600052601260045260246000fd5b500490565b63ffffffff81811683821601908082111561439b5761439b61527a565b6001600160a01b0385168152608060208201819052600090615c45908301866150a9565b8281036040840152615c578186614bed565b91505063ffffffff8316606083015295945050505050565b835160009082906020808801845b83811015615ca25781516001600160a01b031685529382019390820190600101615c7d565b5050865181880193925060005b81811015615cd157845163ffffffff1684529382019392820192600101615caf565b50505060e09490941b6001600160e01b0319168452505060049091019392505050565b63ffffffff881681526001600160a01b0387811660208301528681166040830152851660608201526080810184905260a0810183905260e060c08201819052600090615d429083018461506a565b999850505050505050505056fe360894a13ba1a3210667c828492db98dca3e2076cc3735a920a3ca505d382bbca164736f6c6343000815000a",
  "deployedBytecode": "0x6080604052600436106102935760003560e01c80638bd1e6781161015a578063b0affdf7116100c1578063df034cd01161007a578063df034cd0146107d7578063e9172c2d146107f7578063f2fde38b14610817578063f6ce035414610837578063f765417614610857578063fd614f411461087757600080fd5b8063b0affdf7146106af578063b72bcc66146106dd578063b85a2ce1146106f0578063bcecc5ba14610710578063bf59b4881461078c578063de4b0548146107b057600080fd5b80639eab5253116101135780639eab5253146105fc578063a084b6c014610611578063a8e6f1e714610636578063ab6efc3014610649578063ad3cb1cc1461065e578063b044631c1461069c57600080fd5b80638bd1e678146105285780638da5cb5b146105555780638dc157911461056a5780638e58c55d1461058a5780638ee31392146105aa5780639d7b8545146105dc57600080fd5b80635523a960116101fe578063715018a6116101b7578063715018a6146104965780637698a833146104ab57806376e92559146104cb57806379962a26146104e05780637b8daaaf146104f357806380e038bc1461051357600080fd5b80635523a960146103fb57806355f366381461040e57806356c0e9921461042e57806358fa68841461044157806364c6d00a146104705780636bda59da1461048357600080fd5b806345e838ca1161025057806345e838ca1461036c5780634f1ef2861461037f5780634fa20a2914610392578063524a1541146103b257806352d1902d146103c557806353c470d3146103e857600080fd5b80630e769b2b146102985780632ada2596146102d5578063371b52e3146103025780633a8246f3146103195780634107574c1461032c578063439fab911461034c575b600080fd5b3480156102a457600080fd5b506006546102b8906001600160a01b031681565b6040516001600160a01b0390911681526020015b60405180910390f35b3480156102e157600080fd5b506102f56102f03660046143e0565b610897565b6040516102cc9190614437565b34801561030e57600080fd5b50610317610912565b005b61031761032736600461457f565b6109d0565b34801561033857600080fd5b50610317610347366004614627565b610bb1565b34801561035857600080fd5b50610317610367366004614702565b610bef565b61031761037a3660046147a2565b610d31565b61031761038d36600461487f565b610ef2565b34801561039e57600080fd5b506103176103ad3660046148ce565b610f11565b6103176103c0366004614927565b610f51565b3480156103d157600080fd5b506103da61111c565b6040519081526020016102cc565b6103176103f63660046149f6565b611139565b61031761040936600461457f565b611328565b34801561041a57600080fd5b50610317610429366004614ac7565b61145e565b61031761043c366004614b4e565b61149f565b34801561044d57600080fd5b5061046161045c366004614bb9565b611656565b6040516102cc93929190614c2e565b61031761047e366004614b4e565b611853565b610317610491366004614c71565b611983565b3480156104a257600080fd5b50610317611ae5565b3480156104b757600080fd5b506103176104c6366004614cee565b611af9565b3480156104d757600080fd5b506000546103da565b6103176104ee366004614d88565b611cb3565b3480156104ff57600080fd5b5061031761050e366004614e1c565b611ea1565b34801561051f57600080fd5b50610317611ee4565b34801561053457600080fd5b50610548610543366004614e39565b611f72565b6040516102cc9190614e5b565b34801561056157600080fd5b506102b86120c0565b34801561057657600080fd5b50610317610585366004614ea9565b6120ee565b34801561059657600080fd5b506103176105a5366004614efa565b61211e565b3480156105b657600080fd5b506003546105c79063ffffffff1681565b60405163ffffffff90911681526020016102cc565b3480156105e857600080fd5b506103176105f73660046143e0565b6122ce565b34801561060857600080fd5b50610548612394565b34801561061d57600080fd5b5061062661242d565b60405190151581526020016102cc565b610317610644366004614fa6565b61245b565b34801561065557600080fd5b506103da6125fa565b34801561066a57600080fd5b5061068f604051806040016040528060058152602001640352e302e360dc1b81525081565b6040516102cc9190615096565b6103176106aa366004614b4e565b612706565b3480156106bb57600080fd5b506106cf6106ca366004614bb9565b6128d3565b6040516102cc9291906150e2565b6103176106eb366004615107565b612961565b3480156106fc57600080fd5b5061031761070b366004615170565b612a47565b34801561071c57600080fd5b5061076061072b366004614e1c565b6005602052600090815260409020805460019091015463ffffffff8216916001600160a01b03600160201b9091048116911683565b6040805163ffffffff90941684526001600160a01b0392831660208501529116908201526060016102cc565b34801561079857600080fd5b506003546105c790600160c01b900463ffffffff1681565b3480156107bc57600080fd5b506003546102b890600160201b90046001600160a01b031681565b3480156107e357600080fd5b506004546102b8906001600160a01b031681565b34801561080357600080fd5b506103da6108123660046143e0565b612c5f565b34801561082357600080fd5b506103176108323660046143e0565b612cf0565b34801561084357600080fd5b5061031761085236600461519e565b612d2b565b34801561086357600080fd5b506007546102b8906001600160a01b031681565b34801561088357600080fd5b5061068f6108923660046151de565b612e50565b6040805160808101825260008082526020820181905291810182905260608101919091526108c482613492565b6040805160808101825291546001600160a01b038116835263ffffffff600160a01b820481166020850152600160c01b8204811692840192909252600160e01b900416606082015292915050565b61091a6120c0565b6001600160a01b0316336001600160a01b03161415801561094e57506004546001600160a01b0316158061094e5750333014155b1561096c57604051633b4e61ad60e01b815260040160405180910390fd5b600654600754604051630933e36d60e11b81526001600160a01b039182166004820152911690631267c6da906024015b600060405180830381600087803b1580156109b657600080fd5b505af11580156109ca573d6000803e3d6000fd5b50505050565b6109d861242d565b6109f5576040516386e2123960e01b815260040160405180910390fd5b838380806020026020016040519081016040528093929190818152602001838360200280828437600092019190915250506040805160208087028281018201909352868252909350869250859182918501908490808284376000920191909152505082518451149150610a7d905057604051631d3c4ecb60e31b815260040160405180910390fd5b6000805b8351811015610ab957828181518110610a9c57610a9c615264565b602002602001015182610aaf9190615290565b9150600101610a81565b5080341015610adb57604051631144943160e21b815260040160405180910390fd5b42610ae5816134e0565b610aef8a8a6136b1565b604051631041d5d360e21b90600090610b1290839085908f908f906020016152a3565b6040516020818303038152906040529050610ba382828c8c80806020026020016040519081016040528093929190818152602001838360200280828437600081840152601f19601f820116905080830192505050505050508b8b808060200260200160405190810160405280939291908181526020018383602002808284376000920191909152506137b292505050565b505050505050505050505050565b610bb961242d565b15610bd7576040516312ab28a760e11b815260040160405180910390fd5b610be0836134e0565b610bea82826136b1565b505050565b7ff0c57e16840df040f15088dc2f81fe391c3923bec73e23a9662efc9c229c6a008054600160401b810460ff1615906001600160401b0316600081158015610c345750825b90506000826001600160401b03166001148015610c505750303b155b905081158015610c5e575080155b15610c7c5760405163f92ee8a960e01b815260040160405180910390fd5b845467ffffffffffffffff191660011785558315610ca657845460ff60401b1916600160401b1785555b6000806000806000808b806020019051810190610cc391906152e6565b955095509550955095509550610cdd8686868686866137f7565b5050505050508315610d2957845460ff60401b19168555604051600181527fc7f505b2f371ae2175ee4913f4499e1f2633a7b5936321eed1cdaeb6115181d29060200160405180910390a15b505050505050565b610d39613894565b610d4161242d565b610d5e576040516386e2123960e01b815260040160405180910390fd5b838380806020026020016040519081016040528093929190818152602001838360200280828437600092019190915250506040805160208087028281018201909352868252909350869250859182918501908490808284376000920191909152505082518451149150610de6905057604051631d3c4ecb60e31b815260040160405180910390fd5b6000805b8351811015610e2257828181518110610e0557610e05615264565b602002602001015182610e189190615290565b9150600101610dea565b5080341015610e4457604051631144943160e21b815260040160405180910390fd5b610e4f8a8a8a6138c6565b604051630abe6cc760e31b90600090610e729083908e908e908e9060200161536d565b6040516020818303038152906040529050610ba382828b8b8080602002602001604051908101604052809392919081815260200183836020028082843760009201919091525050604080516020808f0282810182019093528e82529093508e92508d9182918501908490808284376000920191909152506137b292505050565b610efa613953565b610f03826139f8565b610f0d8282613a97565b5050565b6004546001600160a01b03161580610f295750333014155b15610f475760405163699c6d7960e01b815260040160405180910390fd5b610f0d8282613b54565b610f59613894565b610f6161242d565b610f7e576040516386e2123960e01b815260040160405180910390fd5b838380806020026020016040519081016040528093929190818152602001838360200280828437600092019190915250506040805160208087028281018201909352868252909350869250859182918501908490808284376000920191909152505082518451149150611006905057604051631d3c4ecb60e31b815260040160405180910390fd5b6000805b83518110156110425782818151811061102557611025615264565b6020026020010151826110389190615290565b915060010161100a565b508034101561106457604051631144943160e21b815260040160405180910390fd5b61106e8989613b54565b604051634fa20a2960e01b9060009061108f9083908d908d906020016153c0565b604051602081830303815290604052905061110f82828b8b8080602002602001604051908101604052809392919081815260200183836020028082843760009201919091525050604080516020808f0282810182019093528e82529093508e92508d9182918501908490808284376000920191909152506137b292505050565b5050505050505050505050565b6000611126613bb9565b50600080516020615d5083398151915290565b611141613894565b61114961242d565b611166576040516386e2123960e01b815260040160405180910390fd5b8481805182511461118a57604051631d3c4ecb60e31b815260040160405180910390fd5b6000805b83518110156111c6578281815181106111a9576111a9615264565b6020026020010151826111bc9190615290565b915060010161118e565b50803410156111e857604051631144943160e21b815260040160405180910390fd5b87518751811415806111fb575080875114155b80611207575080865114155b1561122557604051631d3c4ecb60e31b815260040160405180910390fd5b633db380d560e21b60005b8281101561110f576000828b838151811061124d5761124d615264565b60200260200101518b848151811061126757611267615264565b60200260200101518b858151811061128157611281615264565b60200260200101516040516020016112d094939291906001600160e01b03199490941684526001600160a01b03928316602085015263ffffffff91909116604084015216606082015260800190565b604051602081830303815290604052905061131f83828e85815181106112f8576112f8615264565b60200260200101518b868151811061131257611312615264565b6020026020010151613c02565b50600101611230565b61133061242d565b61134d576040516386e2123960e01b815260040160405180910390fd5b8383808060200260200160405190810160405280939291908181526020018383602002808284376000920191909152505060408051602080870282810182019093528682529093508692508591829185019084908082843760009201919091525050825184511491506113d5905057604051631d3c4ecb60e31b815260040160405180910390fd5b6000805b8351811015611411578281815181106113f4576113f4615264565b6020026020010151826114079190615290565b91506001016113d9565b508034101561143357604051631144943160e21b815260040160405180910390fd5b61143d89896136b1565b604051638dc1579160e01b9060009061108f9083908d908d906020016153f4565b6004546001600160a01b031615806114765750333014155b156114945760405163699c6d7960e01b815260040160405180910390fd5b610bea8383836138c6565b6114a7613894565b6114af61242d565b6114cc576040516386e2123960e01b815260040160405180910390fd5b838380806020026020016040519081016040528093929190818152602001838360200280828437600092019190915250506040805160208087028281018201909352868252909350869250859182918501908490808284376000920191909152505082518451149150611554905057604051631d3c4ecb60e31b815260040160405180910390fd5b6000805b83518110156115905782818151811061157357611573615264565b6020026020010151826115869190615290565b9150600101611558565b50803410156115b257604051631144943160e21b815260040160405180910390fd5b604080516320380e2f60e21b6020820181905291600091015b604051602081830303815290604052905061164b82828b8b8080602002602001604051908101604052809392919081815260200183836020028082843760009201919091525050604080516020808f0282810182019093528e82529093508e92508d9182918501908490808284376000920191909152506137b292505050565b505050505050505050565b60608060606000845190506000816001600160401b0381111561167b5761167b614445565b6040519080825280602002602001820160405280156116a4578160200160208202803683370190505b5090506000826001600160401b038111156116c1576116c1614445565b6040519080825280602002602001820160405280156116ea578160200160208202803683370190505b5090506000836001600160401b0381111561170757611707614445565b604051908082528060200260200182016040528015611730578160200160208202803683370190505b50905060005b848110156118445760006117628a838151811061175557611755615264565b6020026020010151613492565b6040805160808101825291546001600160a01b038116835263ffffffff600160a01b820481166020850152600160c01b8204811692840192909252600160e01b900416606082018190528651919250908690849081106117c4576117c4615264565b602002602001019063ffffffff16908163ffffffff168152505080604001518483815181106117f5576117f5615264565b602002602001019063ffffffff16908163ffffffff1681525050806020015183838151811061182657611826615264565b63ffffffff9092166020928302919091019091015250600101611736565b50919790965090945092505050565b61185b613894565b61186361242d565b611880576040516386e2123960e01b815260040160405180910390fd5b838380806020026020016040519081016040528093929190818152602001838360200280828437600092019190915250506040805160208087028281018201909352868252909350869250859182918501908490808284376000920191909152505082518451149150611908905057604051631d3c4ecb60e31b815260040160405180910390fd5b6000805b83518110156119445782818151811061192757611927615264565b60200260200101518261193a9190615290565b915060010161190c565b508034101561196657604051631144943160e21b815260040160405180910390fd5b6040805163371b52e360e01b6020820181905291600091016115cb565b61198b613894565b61199361242d565b6119b0576040516386e2123960e01b815260040160405180910390fd5b828180518251146119d457604051631d3c4ecb60e31b815260040160405180910390fd5b6000805b8351811015611a10578281815181106119f3576119f3615264565b602002602001015182611a069190615290565b91506001016119d8565b5080341015611a3257604051631144943160e21b815260040160405180910390fd5b855185518114611a5557604051631d3c4ecb60e31b815260040160405180910390fd5b639d7b854560e01b60005b8281101561164b57600082898381518110611a7d57611a7d615264565b6020026020010151604051602001611ab49291906001600160e01b03199290921682526001600160a01b0316602082015260400190565b6040516020818303038152906040529050611adc83828c85815181106112f8576112f8615264565b50600101611a60565b611aed613894565b611af76000613c81565b565b611b01613894565b611b0961242d565b611b26576040516386e2123960e01b815260040160405180910390fd5b63ffffffff8216600090815260056020526040902054600160201b90046001600160a01b031615801590611b65575060208101516001600160a01b0316155b15611ba35763ffffffff8216600090815260056020526040902080546001600160c01b031916815560010180546001600160a01b0319169055611c45565b805163ffffffff161580611bc2575060208101516001600160a01b0316155b15611be057604051638c9c2fed60e01b815260040160405180910390fd5b63ffffffff828116600090815260056020908152604091829020845181549286015194166001600160c01b031990921691909117600160201b6001600160a01b039485160217815590830151600190910180546001600160a01b031916919092161790555b806000015163ffffffff1681602001516001600160a01b03168363ffffffff167f4db6d44cad7c0eddcb10fcbcb14f9600520da0ea078eedc230cbed5aa0661d208460400151604051611ca791906001600160a01b0391909116815260200190565b60405180910390a45050565b611cbb613894565b611cc361242d565b611ce0576040516386e2123960e01b815260040160405180910390fd5b838380806020026020016040519081016040528093929190818152602001838360200280828437600092019190915250506040805160208087028281018201909352868252909350869250859182918501908490808284376000920191909152505082518451149150611d68905057604051631d3c4ecb60e31b815260040160405180910390fd5b6000805b8351811015611da457828181518110611d8757611d87615264565b602002602001015182611d9a9190615290565b9150600101611d6c565b5080341015611dc657604051631144943160e21b815260040160405180910390fd5b6000806000611dd48b611656565b6040519295509093509150638e58c55d60e01b90600090611e019083908f9088908890889060200161542c565b6040516020818303038152906040529050611e9282828e8e80806020026020016040519081016040528093929190818152602001838360200280828437600081840152601f19601f820116905080830192505050505050508d8d808060200260200160405190810160405280939291908181526020018383602002808284376000920191909152506137b292505050565b50505050505050505050505050565b611ea961242d565b15611ec7576040516312ab28a760e11b815260040160405180910390fd5b8063ffffffff16600003611ed85750425b611ee1816134e0565b50565b611eec6120c0565b6001600160a01b0316336001600160a01b031614158015611f2057506004546001600160a01b03161580611f205750333014155b15611f3e57604051633b4e61ad60e01b815260040160405180910390fd5b60065460075460405163031f799160e61b81526001600160a01b03918216600482015291169063c7de64409060240161099c565b60606000611f7f60005490565b90508084101580611f905750808310155b15611fae57604051631a1015fd60e01b815260040160405180910390fd5b611fb88484615494565b611fc3906001615290565b6001600160401b03811115611fda57611fda614445565b60405190808252806020026020018201604052801561202c57816020015b604080516080810182526000808252602080830182905292820181905260608201528252600019909201910181611ff85790505b509150835b8381116120b857600061204382613cf2565b6040805160808101825291546001600160a01b038116835263ffffffff600160a01b820481166020850152600160c01b8204811692840192909252600160e01b9004166060820152845190915081908590849081106120a4576120a4615264565b602090810291909101015250600101612031565b505092915050565b7f9016d09d72d40fdae2fd8ceac6b6234c7706214fd39c1cd1e609a0528c199300546001600160a01b031690565b6120f661242d565b15612114576040516312ab28a760e11b815260040160405180910390fd5b610f0d82826136b1565b6004546001600160a01b031615806121365750333014155b156121545760405163699c6d7960e01b815260040160405180910390fd5b835160005b81811015610d2957600061219b87838151811061217857612178615264565b60200260200101516001600160a01b031660009081526002602052604090205490565b905080600003612200576121fb8783815181106121ba576121ba615264565b60200260200101518784815181106121d4576121d4615264565b60200260200101518785815181106121ee576121ee615264565b6020026020010151613d1a565b6122c5565b600061220b82613f31565b905085838151811061221f5761221f615264565b6020908102919091010151815463ffffffff909116600160c01b0263ffffffff60c01b19909116178155845185908490811061225d5761225d615264565b60200260200101518160000160146101000a81548163ffffffff021916908363ffffffff1602179055506122c388848151811061229c5761229c615264565b60200260200101518885815181106122b6576122b6615264565b6020026020010151613f4c565b505b50600101612159565b6122d66120c0565b6001600160a01b0316336001600160a01b03161415801561230a57506004546001600160a01b0316158061230a5750333014155b1561232857604051633b4e61ad60e01b815260040160405180910390fd5b6006546007546040516334392cbd60e21b81526001600160a01b039182166004820152838216602482015291169063d0e4b2f490604401600060405180830381600087803b15801561237957600080fd5b505af115801561238d573d6000803e3d6000fd5b5050505050565b606060008001805480602002602001604051908101604052809291908181526020016000905b8282101561242457600084815260209081902060408051608081018252918501546001600160a01b038116835263ffffffff600160a01b8204811684860152600160c01b8204811692840192909252600160e01b90041660608201528252600190920191016123ba565b50505050905090565b6004546000906001600160a01b03161580156124565750600354600160c01b900463ffffffff16155b905090565b612463613894565b61246b61242d565b612488576040516386e2123960e01b815260040160405180910390fd5b838180518251146124ac57604051631d3c4ecb60e31b815260040160405180910390fd5b6000805b83518110156124e8578281815181106124cb576124cb615264565b6020026020010151826124de9190615290565b91506001016124b0565b508034101561250a57604051631144943160e21b815260040160405180910390fd5b865186518114158061251d575080865114155b1561253b57604051631d3c4ecb60e31b815260040160405180910390fd5b63b85a2ce160e01b60005b828110156125ee576000828a838151811061256357612563615264565b60200260200101518a848151811061257d5761257d615264565b60200260200101516040516020016125bd939291906001600160e01b03199390931683526001600160a01b03918216602084015216604082015260600190565b60405160208183030381529060405290506125e583828d85815181106112f8576112f8615264565b50600101612546565b50505050505050505050565b60008061260660005490565b905060005b8181101561270157600061261e82613cf2565b6040805160808101825291546001600160a01b038116835263ffffffff600160a01b820481166020850152600160c01b8204811692840192909252600160e01b90041660608201819052909150156126f857604051636018660f60e01b815273__$c9b295241042fdfde6acd02a7cacb6a640$__90636018660f906126aa9060009085906004016154a7565b602060405180830381865af41580156126c7573d6000803e3d6000fd5b505050506040513d601f19601f820116820180604052508101906126eb91906154bb565b6126f59085615290565b93505b5060010161260b565b505090565b61270e61242d565b61272b576040516386e2123960e01b815260040160405180910390fd5b8383808060200260200160405190810160405280939291908181526020018383602002808284376000920191909152505060408051602080870282810182019093528682529093508692508591829185019084908082843760009201919091525050825184511491506127b3905057604051631d3c4ecb60e31b815260040160405180910390fd5b6000805b83518110156127ef578281815181106127d2576127d2615264565b6020026020010151826127e59190615290565b91506001016127b7565b508034101561281157604051631144943160e21b815260040160405180910390fd5b4261281b816134e0565b60408051637b8daaaf60e01b6020820181905263ffffffff84169282019290925260009060600160405160208183030381529060405290506125ee82828c8c80806020026020016040519081016040528093929190818152602001838360200280828437600081840152601f19601f820116905080830192505050505050508b8b808060200260200160405190810160405280939291908181526020018383602002808284376000920191909152506137b292505050565b60405163c0c53f1d60e01b8152606090819073__$c9b295241042fdfde6acd02a7cacb6a640$__9063c0c53f1d906129129060009087906004016154d4565b600060405180830381865af415801561292f573d6000803e3d6000fd5b505050506040513d6000823e601f3d908101601f1916820160405261295791908101906155f3565b9094909350915050565b612969613894565b61297161242d565b61298e576040516386e2123960e01b815260040160405180910390fd5b63ffffffff84166000908152600560205260409020548490600160201b90046001600160a01b03166129df57604051628adb6d60e11b815263ffffffff821660048201526024015b60405180910390fd5b81341015612a0057604051631144943160e21b815260040160405180910390fd5b60405163278f794360e11b90600090612a219083908890889060200161564c565b6040516020818303038152906040529050612a3e82828987613c02565b50505050505050565b612a4f6120c0565b6001600160a01b0316336001600160a01b031614158015612a8357506004546001600160a01b03161580612a835750333014155b15612aa157604051633b4e61ad60e01b815260040160405180910390fd5b600680546001600160a01b0319166001600160a01b03848116918217909255604051634463315560e11b815291831660048301526000916388c662aa90602401602060405180830381865afa158015612afe573d6000803e3d6000fd5b505050506040513d601f19601f82011682018060405250810190612b229190615680565b90506001600160a01b038116612b4b57604051630352b0d160e41b815260040160405180910390fd5b60065460405163708728eb60e11b81526001600160a01b038481166004830152600092169063e10e51d690602401602060405180830381865afa158015612b96573d6000803e3d6000fd5b505050506040513d601f19601f82011682018060405250810190612bba9190615680565b90506001600160a01b0382163014801590612bde57506001600160a01b0381163014155b15612bfc57604051633170a38d60e01b815260040160405180910390fd5b600780546001600160a01b0319166001600160a01b0385811691821790925560408051928716835260208301919091527fc8d09d7710e05a8ef2f307dcf13f859ce7e661b3eee1a04a57c4d481758a6c1d910160405180910390a16109ca611ee4565b600080612c6b83610897565b604051636018660f60e01b815290915073__$c9b295241042fdfde6acd02a7cacb6a640$__90636018660f90612ca89060009085906004016154a7565b602060405180830381865af4158015612cc5573d6000803e3d6000fd5b505050506040513d601f19601f82011682018060405250810190612ce991906154bb565b9392505050565b612cf8613894565b6001600160a01b038116612d2257604051631e4fbdf760e01b8152600060048201526024016129d6565b611ee181613c81565b612d336120c0565b6001600160a01b0316336001600160a01b031614158015612d6757506004546001600160a01b03161580612d675750333014155b15612d8557604051633b4e61ad60e01b815260040160405180910390fd5b6001600160a01b038316612dac5760405163bb4bcc3b60e01b815260040160405180910390fd5b60038054640100000000600160e01b031916600160201b6001600160a01b0386811691820263ffffffff60c01b191692909217600160c01b63ffffffff871690810291909117909355600480546001600160a01b0319169285169283179055604080519182526020820193909352918201527f21ae9d1c05d009b6af15c73821748e22e498496e2b29672090c67ae892322d6f9060600160405180910390a1505050565b6003546060908490849063ffffffff808316600160c01b90920416141580612e8657506004546001600160a01b03838116911614155b80612eac5750600354600160201b90046001600160a01b0316336001600160a01b031614155b15612eca5760405163b36b498160e01b815260040160405180910390fd5b600084806020019051810190612ee091906156ba565b90506060631541933960e31b6001600160e01b0319831601612f6f57600080600088806020019051810190612f1591906156d5565b9350935093505084838383604051602401612f3293929190615761565b60408051601f198184030181529190526020810180516001600160e01b03166001600160e01b03199093169290921790915293506133c092505050565b63b05df5d760e01b6001600160e01b0319831601612ff35760008087806020019051810190612f9e9190615774565b9250925050838282604051602401612fb79291906150e2565b60408051601f198184030181529190526020810180516001600160e01b03166001600160e01b03199093169290921790915292506133c0915050565b6371a73aa360e01b6001600160e01b0319831601613084576000806000808980602001905181019061302591906157dd565b9450945094509450508584848484604051602401613046949392919061588d565b60408051601f198184030181529190526020810180516001600160e01b03166001600160e01b03199093169290921790915294506133c09350505050565b638472555160e01b6001600160e01b0319831601613106576000868060200190518101906130b291906158c6565b60405163ffffffff821660248201529092508491506044015b60408051601f198184030181529190526020810180516001600160e01b03166001600160e01b03199093169290921790915291506133c09050565b63723ea86f60e01b6001600160e01b031983160161314e576000808780602001905181019061313591906158f2565b9250925050838282604051602401612fb7929190615948565b632fbe2a2d60e21b6001600160e01b031983160161319c5760008060008880602001905181019061317f9190615970565b9350935093505084838383604051602401612f32939291906159e3565b63024c7f2b60e21b6001600160e01b0319831601613206576000806000888060200190518101906131cd9190615a16565b6040516001600160a01b03808516602483015263ffffffff84166044830152821660648201529296509094509250869150608401612f32565b6347a5d31f60e01b6001600160e01b031983160161325f57600080878060200190518101906132359190615a67565b6040516001600160a01b038084166024830152821660448201529194509250859150606401612fb7565b6362847abb60e01b6001600160e01b03198316016132ad5760008680602001905181019061328d9190615aa6565b6040516001600160a01b03821660248201529092508491506044016130cb565b631fc7f1d160e21b6001600160e01b03198316016132f757506040805160048152602481019091526020810180516001600160e01b03166001600160e01b031984161790526133c0565b63c8e4ad1d60e01b6001600160e01b031983160161334157506040805160048152602481019091526020810180516001600160e01b03166001600160e01b031984161790526133c0565b63587086bd60e11b6001600160e01b03198316016133c057600080878060200190518101906133709190615ad2565b9250925050838282604051602401613389929190615b6e565b60408051601f198184030181529190526020810180516001600160e01b03166001600160e01b031990931692909217909152925050505b600080306001600160a01b0316836040516133db9190615b92565b6000604051808303816000865af19150503d8060008114613418576040519150601f19603f3d011682016040523d82523d6000602084013e61341d565b606091505b5091509150836001600160e01b0319168963ffffffff168e7f1291b044e5e68ff17a19703d0775336ad7ec700ef5679fbd11bd0084af55baf3858e60405161347a92919091151582526001600160a01b0316602082015260400190565b60405180910390a49c9b505050505050505050505050565b6001600160a01b038116600090815260026020526040812054806000036134d75760405163c6040d1d60e01b81526001600160a01b03841660048201526024016129d6565b612ce981613f31565b60035463ffffffff9081169082161115806135005750428163ffffffff16115b1561351e576040516310aa1c7560e31b815260040160405180910390fd5b60008054905b8181101561365457600061353782613cf2565b8054909150600090600160e01b900463ffffffff1615613603578154600090600160a01b900463ffffffff1661357b578254600160c01b900463ffffffff16613585565b60035463ffffffff165b905060006135938288615bae565b845463ffffffff91821692506064916135b491600160e01b90041683615bcb565b6135be9190615be2565b8454909350839085906014906135e2908490600160a01b900463ffffffff16615c04565b92506101000a81548163ffffffff021916908363ffffffff16021790555050505b815460405163ffffffff831681526001600160a01b03909116907f780f517310a8481b4817e26f9d1a336e49e7522775e8e6b4fb22c73908be6ce69060200160405180910390a25050600101613524565b506040805163ffffffff84168152602081018390527f896e364af402e453909cff1f8bb117d283d37a717e7cf4a5c5b88be2197fa09f910160405180910390a1506003805463ffffffff191663ffffffff92909216919091179055565b6000806136bd846128d3565b600654600754604051637677856760e11b81529395509193506001600160a01b039081169263ecef0ace926136fc921690869086908990600401615c21565b600060405180830381600087803b15801561371657600080fd5b505af115801561372a573d6000803e3d6000fd5b50505050600082828560405160200161374593929190615c6f565b60408051601f1981840301815282825280516020918201206007546001600160a01b0316845290830181905263ffffffff87168383015290519092507fd4b7a01ea5a8b6ac341311c6e426730790e70b6ca9c8d9adee240379b5e81c289181900360600190a15050505050565b60005b825181101561238d576137ef85858584815181106137d5576137d5615264565b602002602001015185858151811061131257611312615264565b6001016137b5565b6137ff614015565b6001600160a01b0386166138265760405163bb4bcc3b60e01b815260040160405180910390fd5b60006001600160a01b0382161561383d578161383f565b335b905061384a8161405e565b6001600160a01b038216613887576001600160a01b03851661387f57604051635413b8d760e11b815260040160405180910390fd5b613887611ae5565b612a3e878787878761406f565b3361389d6120c0565b6001600160a01b031614611af75760405163118cdaa760e01b81523360048201526024016129d6565b82518251811415806138d9575080825114155b156138f757604051630533bc9360e21b815260040160405180910390fd5b60005b8181101561238d5761394b85828151811061391757613917615264565b602002602001015185838151811061393157613931615264565b60200260200101518584815181106121ee576121ee615264565b6001016138fa565b306001600160a01b037f00000000000000000000000000000000000000000000000000000000000000001614806139da57507f00000000000000000000000000000000000000000000000000000000000000006001600160a01b03166139ce600080516020615d50833981519152546001600160a01b031690565b6001600160a01b031614155b15611af75760405163703e46dd60e11b815260040160405180910390fd5b613a0061242d565b15613a3e57613a0d6120c0565b6001600160a01b0316336001600160a01b031614611ee15760405163066e441f60e51b815260040160405180910390fd5b613a466120c0565b6001600160a01b0316336001600160a01b0316141580613a7957506004546001600160a01b03161580613a795750333014155b15611ee15760405163066e441f60e51b815260040160405180910390fd5b816001600160a01b03166352d1902d6040518163ffffffff1660e01b8152600401602060405180830381865afa925050508015613af1575060408051601f3d908101601f19168201909252613aee918101906154bb565b60015b613b1957604051634c9c8ce360e01b81526001600160a01b03831660048201526024016129d6565b600080516020615d508339815191528114613b4a57604051632a87526960e21b8152600481018290526024016129d6565b610bea83836140f4565b815181518114613b7757604051630533bc9360e21b815260040160405180910390fd5b60005b818110156109ca57613bb1848281518110613b9757613b97615264565b60200260200101518483815181106122b6576122b6615264565b600101613b7a565b306001600160a01b037f00000000000000000000000000000000000000000000000000000000000000001614611af75760405163703e46dd60e11b815260040160405180910390fd5b6000613c0f83858461414a565b63ffffffff8416600081815260056020908152604091829020549151600160201b9092046001600160a01b031682529293506001600160e01b031988169284917f20ffb62aa5e31e4b559317e8af8f877e19a9126fd6ff1fee93bcf06e59d385cc910160405180910390a45050505050565b7f9016d09d72d40fdae2fd8ceac6b6234c7706214fd39c1cd1e609a0528c19930080546001600160a01b031981166001600160a01b03848116918217845560405192169182907f8be0079c531659141344cd1fd0a4f28419497f9722a3daafe3b4186f6b6457e090600090a3505050565b6000806000018281548110613d0957613d09615264565b906000526020600020019050919050565b6001600160a01b038316613d4c57604051633899e57b60e01b81526001600160a01b03841660048201526024016129d6565b6001600160a01b03831660009081526002602052604090205415613d8e57604051636822fa9960e11b81526001600160a01b03841660048201526024016129d6565b606463ffffffff83161115613dcd5760405163424f515b60e11b81526001600160a01b038416600482015263ffffffff831660248201526044016129d6565b428163ffffffff161115613e0b5760405163faac476360e01b81526001600160a01b038416600482015263ffffffff821660248201526044016129d6565b604080516080810182526001600160a01b038086168083526000602080850182815263ffffffff8881168789019081528a82166060890190815285546001818101885587805299517f290decd9548b62a8d60345a988386fc84ba6bc95484008f6362f93160ef3e56390910180549551935192518516600160e01b026001600160e01b03938616600160c01b02939093166001600160c01b0394909516600160a01b026001600160c01b031990961691909916179390931716171790935583548401938490558181526002909252908390209190915590517f13ca1f9a974ca1b85618843282dc1981c63a62c389aa5cf6e4a31937f8434e7390613f24908490869063ffffffff92831681529116602082015260400190565b60405180910390a2505050565b6000613f46613f41600184615494565b613cf2565b92915050565b606463ffffffff82161115613f8b5760405163424f515b60e11b81526001600160a01b038316600482015263ffffffff821660248201526044016129d6565b6000613f9683613492565b805463ffffffff848116600160e01b81026001600160e01b039093169290921780845560408051938452600160c01b820483166020850152600160a01b909104909116908201529091506001600160a01b038416907f59f55668c694024ea61bdb5bb12ea8897197f9d9825fa7bee1195e263b64472790606001613f24565b7ff0c57e16840df040f15088dc2f81fe391c3923bec73e23a9662efc9c229c6a0054600160401b900460ff16611af757604051631afcd79f60e31b815260040160405180910390fd5b614066614015565b611ee18161424d565b614077614015565b6003805463ffffffff909516600160c01b0263ffffffff60c01b196001600160a01b03978816600160201b0216640100000000600160e01b03199096169590951794909417909355600480549285166001600160a01b03199384161790556006805491851691831691909117905560078054929093169116179055565b6140fd82614255565b6040516001600160a01b038316907fbc7cd75a20ee27fd9adebab32041f755214dbc6bffa90cc0225b39da2e5c2d3b90600090a280511561414257610bea82826142ba565b610f0d614327565b63ffffffff83166000908152600560205260408120548490600160201b90046001600160a01b031661419657604051628adb6d60e11b815263ffffffff821660048201526024016129d6565b60035463ffffffff808716600090815260056020526040808220805460019091015491516345560b5d60e11b81526001600160a01b03600160201b96879004811696638aac16ba968b9661420196918616959290920483169391921690829081908e90600401615cf4565b60206040518083038185885af115801561421f573d6000803e3d6000fd5b50505050506040513d601f19601f8201168201806040525081019061424491906154bb565b95945050505050565b612cf8614015565b806001600160a01b03163b60000361428b57604051634c9c8ce360e01b81526001600160a01b03821660048201526024016129d6565b600080516020615d5083398151915280546001600160a01b0319166001600160a01b0392909216919091179055565b6060600080846001600160a01b0316846040516142d79190615b92565b600060405180830381855af49150503d8060008114614312576040519150601f19603f3d011682016040523d82523d6000602084013e614317565b606091505b5091509150614244858383614346565b3415611af75760405163b398979f60e01b815260040160405180910390fd5b60608261435b57614356826143a2565b612ce9565b815115801561437257506001600160a01b0384163b155b1561439b57604051639996b31560e01b81526001600160a01b03851660048201526024016129d6565b5092915050565b8051156143b25780518082602001fd5b604051630a12f52160e11b815260040160405180910390fd5b6001600160a01b0381168114611ee157600080fd5b6000602082840312156143f257600080fd5b8135612ce9816143cb565b80516001600160a01b0316825260208082015163ffffffff9081169184019190915260408083015182169084015260609182015116910152565b60808101613f4682846143fd565b634e487b7160e01b600052604160045260246000fd5b604051601f8201601f191681016001600160401b038111828210171561448357614483614445565b604052919050565b60006001600160401b038211156144a4576144a4614445565b5060051b60200190565b600082601f8301126144bf57600080fd5b813560206144d46144cf8361448b565b61445b565b82815260059290921b840181019181810190868411156144f357600080fd5b8286015b8481101561451757803561450a816143cb565b83529183019183016144f7565b509695505050505050565b63ffffffff81168114611ee157600080fd5b60008083601f84011261454657600080fd5b5081356001600160401b0381111561455d57600080fd5b6020830191508360208260051b850101111561457857600080fd5b9250929050565b6000806000806000806080878903121561459857600080fd5b86356001600160401b03808211156145af57600080fd5b6145bb8a838b016144ae565b9750602089013591506145cd82614522565b909550604088013590808211156145e357600080fd5b6145ef8a838b01614534565b9096509450606089013591508082111561460857600080fd5b5061461589828a01614534565b979a9699509497509295939492505050565b60008060006060848603121561463c57600080fd5b833561464781614522565b925060208401356001600160401b0381111561466257600080fd5b61466e868287016144ae565b925050604084013561467f81614522565b809150509250925092565b60006001600160401b038211156146a3576146a3614445565b50601f01601f191660200190565b600082601f8301126146c257600080fd5b81356146d06144cf8261468a565b8181528460208386010111156146e557600080fd5b816020850160208301376000918101602001919091529392505050565b60006020828403121561471457600080fd5b81356001600160401b0381111561472a57600080fd5b614736848285016146b1565b949350505050565b600082601f83011261474f57600080fd5b8135602061475f6144cf8361448b565b82815260059290921b8401810191818101908684111561477e57600080fd5b8286015b8481101561451757803561479581614522565b8352918301918301614782565b600080600080600080600060a0888a0312156147bd57600080fd5b87356001600160401b03808211156147d457600080fd5b6147e08b838c016144ae565b985060208a01359150808211156147f657600080fd5b6148028b838c0161473e565b975060408a013591508082111561481857600080fd5b6148248b838c0161473e565b965060608a013591508082111561483a57600080fd5b6148468b838c01614534565b909650945060808a013591508082111561485f57600080fd5b5061486c8a828b01614534565b989b979a50959850939692959293505050565b6000806040838503121561489257600080fd5b823561489d816143cb565b915060208301356001600160401b038111156148b857600080fd5b6148c4858286016146b1565b9150509250929050565b600080604083850312156148e157600080fd5b82356001600160401b03808211156148f857600080fd5b614904868387016144ae565b9350602085013591508082111561491a57600080fd5b506148c48582860161473e565b6000806000806000806080878903121561494057600080fd5b86356001600160401b038082111561495757600080fd5b6149638a838b016144ae565b9750602089013591508082111561497957600080fd5b6149858a838b0161473e565b965060408901359150808211156145e357600080fd5b600082601f8301126149ac57600080fd5b813560206149bc6144cf8361448b565b82815260059290921b840181019181810190868411156149db57600080fd5b8286015b8481101561451757803583529183019183016149df565b600080600080600060a08688031215614a0e57600080fd5b85356001600160401b0380821115614a2557600080fd5b614a3189838a0161473e565b96506020880135915080821115614a4757600080fd5b614a5389838a016144ae565b95506040880135915080821115614a6957600080fd5b614a7589838a0161473e565b94506060880135915080821115614a8b57600080fd5b614a9789838a016144ae565b93506080880135915080821115614aad57600080fd5b50614aba8882890161499b565b9150509295509295909350565b600080600060608486031215614adc57600080fd5b83356001600160401b0380821115614af357600080fd5b614aff878388016144ae565b94506020860135915080821115614b1557600080fd5b614b218783880161473e565b93506040860135915080821115614b3757600080fd5b50614b448682870161473e565b9150509250925092565b60008060008060408587031215614b6457600080fd5b84356001600160401b0380821115614b7b57600080fd5b614b8788838901614534565b90965094506020870135915080821115614ba057600080fd5b50614bad87828801614534565b95989497509550505050565b600060208284031215614bcb57600080fd5b81356001600160401b03811115614be157600080fd5b614736848285016144ae565b600081518084526020808501945080840160005b83811015614c2357815163ffffffff1687529582019590820190600101614c01565b509495945050505050565b606081526000614c416060830186614bed565b8281036020840152614c538186614bed565b90508281036040840152614c678185614bed565b9695505050505050565b600080600060608486031215614c8657600080fd5b83356001600160401b0380821115614c9d57600080fd5b614ca98783880161473e565b94506020860135915080821115614cbf57600080fd5b614ccb878388016144ae565b93506040860135915080821115614ce157600080fd5b50614b448682870161499b565b6000808284036080811215614d0257600080fd5b8335614d0d81614522565b92506060601f1982011215614d2157600080fd5b50604051606081018181106001600160401b0382111715614d4457614d44614445565b6040526020840135614d5581614522565b81526040840135614d65816143cb565b60208201526060840135614d78816143cb565b6040820152919491935090915050565b600080600080600060608688031215614da057600080fd5b85356001600160401b0380821115614db757600080fd5b614dc389838a016144ae565b96506020880135915080821115614dd957600080fd5b614de589838a01614534565b90965094506040880135915080821115614dfe57600080fd5b50614e0b88828901614534565b969995985093965092949392505050565b600060208284031215614e2e57600080fd5b8135612ce981614522565b60008060408385031215614e4c57600080fd5b50508035926020909101359150565b6020808252825182820181905260009190848201906040850190845b81811015614e9d57614e8a8385516143fd565b9284019260809290920191600101614e77565b50909695505050505050565b60008060408385031215614ebc57600080fd5b82356001600160401b03811115614ed257600080fd5b614ede858286016144ae565b9250506020830135614eef81614522565b809150509250929050565b60008060008060808587031215614f1057600080fd5b84356001600160401b0380821115614f2757600080fd5b614f33888389016144ae565b95506020870135915080821115614f4957600080fd5b614f558883890161473e565b94506040870135915080821115614f6b57600080fd5b614f778883890161473e565b93506060870135915080821115614f8d57600080fd5b50614f9a8782880161473e565b91505092959194509250565b60008060008060808587031215614fbc57600080fd5b84356001600160401b0380821115614fd357600080fd5b614fdf8883890161473e565b95506020870135915080821115614ff557600080fd5b615001888389016144ae565b9450604087013591508082111561501757600080fd5b615023888389016144ae565b9350606087013591508082111561503957600080fd5b50614f9a8782880161499b565b60005b83811015615061578181015183820152602001615049565b50506000910152565b60008151808452615082816020860160208601615046565b601f01601f19169290920160200192915050565b602081526000612ce9602083018461506a565b600081518084526020808501945080840160005b83811015614c235781516001600160a01b0316875295820195908201906001016150bd565b6040815260006150f560408301856150a9565b82810360208401526142448185614bed565b6000806000806080858703121561511d57600080fd5b843561512881614522565b93506020850135615138816143cb565b925060408501356001600160401b0381111561515357600080fd5b61515f878288016146b1565b949793965093946060013593505050565b6000806040838503121561518357600080fd5b823561518e816143cb565b91506020830135614eef816143cb565b6000806000606084860312156151b357600080fd5b83356151be816143cb565b925060208401356151ce81614522565b9150604084013561467f816143cb565b60008060008060008060c087890312156151f757600080fd5b86359550602087013594506040870135615210816143cb565b93506060870135615220816143cb565b9250608087013561523081614522565b915060a08701356001600160401b0381111561524b57600080fd5b61525789828a016146b1565b9150509295509295509295565b634e487b7160e01b600052603260045260246000fd5b634e487b7160e01b600052601160045260246000fd5b80820180821115613f4657613f4661527a565b63ffffffff60e01b85168152600063ffffffff8086166020840152608060408401526152d260808401866150a9565b915080841660608401525095945050505050565b60008060008060008060c087890312156152ff57600080fd5b865161530a816143cb565b602088015190965061531b81614522565b604088015190955061532c816143cb565b606088015190945061533d816143cb565b608088015190935061534e816143cb565b60a088015190925061535f816143cb565b809150509295509295509295565b63ffffffff60e01b8516815260806020820152600061538f60808301866150a9565b82810360408401526153a18186614bed565b905082810360608401526153b58185614bed565b979650505050505050565b63ffffffff60e01b841681526060602082015260006153e260608301856150a9565b8281036040840152614c678185614bed565b63ffffffff60e01b8416815260606020820152600061541660608301856150a9565b905063ffffffff83166040830152949350505050565b63ffffffff60e01b8616815260a06020820152600061544e60a08301876150a9565b82810360408401526154608187614bed565b905082810360608401526154748186614bed565b905082810360808401526154888185614bed565b98975050505050505050565b81810381811115613f4657613f4661527a565b82815260a08101612ce960208301846143fd565b6000602082840312156154cd57600080fd5b5051919050565b6000604082018483526020604081850152818551808452606086019150828701935060005b8181101561551e5784516001600160a01b0316835293830193918301916001016154f9565b5090979650505050505050565b600082601f83011261553c57600080fd5b8151602061554c6144cf8361448b565b82815260059290921b8401810191818101908684111561556b57600080fd5b8286015b84811015614517578051615582816143cb565b835291830191830161556f565b600082601f8301126155a057600080fd5b815160206155b06144cf8361448b565b82815260059290921b840181019181810190868411156155cf57600080fd5b8286015b848110156145175780516155e681614522565b83529183019183016155d3565b6000806040838503121561560657600080fd5b82516001600160401b038082111561561d57600080fd5b6156298683870161552b565b9350602085015191508082111561563f57600080fd5b506148c48582860161558f565b6001600160e01b0319841681526001600160a01b03831660208201526060604082018190526000906142449083018461506a565b60006020828403121561569257600080fd5b8151612ce9816143cb565b80516001600160e01b0319811681146156b557600080fd5b919050565b6000602082840312156156cc57600080fd5b612ce98261569d565b600080600080608085870312156156eb57600080fd5b6156f48561569d565b935060208501516001600160401b038082111561571057600080fd5b61571c8883890161552b565b9450604087015191508082111561573257600080fd5b61573e8883890161558f565b9350606087015191508082111561575457600080fd5b50614f9a8782880161558f565b606081526000614c4160608301866150a9565b60008060006060848603121561578957600080fd5b6157928461569d565b925060208401516001600160401b03808211156157ae57600080fd5b6157ba8783880161552b565b935060408601519150808211156157d057600080fd5b50614b448682870161558f565b600080600080600060a086880312156157f557600080fd5b6157fe8661569d565b945060208601516001600160401b038082111561581a57600080fd5b61582689838a0161552b565b9550604088015191508082111561583c57600080fd5b61584889838a0161558f565b9450606088015191508082111561585e57600080fd5b61586a89838a0161558f565b9350608088015191508082111561588057600080fd5b50614aba8882890161558f565b6080815260006158a060808301876150a9565b82810360208401526158b28187614bed565b905082810360408401526153a18186614bed565b600080604083850312156158d957600080fd5b6158e28361569d565b91506020830151614eef81614522565b60008060006060848603121561590757600080fd5b6159108461569d565b925060208401516001600160401b0381111561592b57600080fd5b6159378682870161552b565b925050604084015161467f81614522565b60408152600061595b60408301856150a9565b905063ffffffff831660208301529392505050565b6000806000806080858703121561598657600080fd5b61598f8561569d565b9350602085015161599f81614522565b60408601519093506001600160401b038111156159bb57600080fd5b6159c78782880161552b565b92505060608501516159d881614522565b939692955090935050565b600063ffffffff808616835260606020840152615a0360608401866150a9565b9150808416604084015250949350505050565b60008060008060808587031215615a2c57600080fd5b615a358561569d565b93506020850151615a45816143cb565b6040860151909350615a5681614522565b60608601519092506159d8816143cb565b600080600060608486031215615a7c57600080fd5b615a858461569d565b92506020840151615a95816143cb565b604085015190925061467f816143cb565b60008060408385031215615ab957600080fd5b615ac28361569d565b91506020830151614eef816143cb565b600080600060608486031215615ae757600080fd5b615af08461569d565b92506020840151615b00816143cb565b60408501519092506001600160401b03811115615b1c57600080fd5b8401601f81018613615b2d57600080fd5b8051615b3b6144cf8261468a565b818152876020838501011115615b5057600080fd5b615b61826020830160208601615046565b8093505050509250925092565b6001600160a01b03831681526040602082018190526000906147369083018461506a565b60008251615ba4818460208701615046565b9190910192915050565b63ffffffff82811682821603908082111561439b5761439b61527a565b8082028115828204841417613f4657613f4661527a565b600082615bff57634e487b7160e01b600052601260045260246000fd5b500490565b63ffffffff81811683821601908082111561439b5761439b61527a565b6001600160a01b0385168152608060208201819052600090615c45908301866150a9565b8281036040840152615c578186614bed565b91505063ffffffff8316606083015295945050505050565b835160009082906020808801845b83811015615ca25781516001600160a01b031685529382019390820190600101615c7d565b5050865181880193925060005b81811015615cd157845163ffffffff1684529382019392820192600101615caf565b50505060e09490941b6001600160e01b0319168452505060049091019392505050565b63ffffffff881681526001600160a01b0387811660208301528681166040830152851660608201526080810184905260a0810183905260e060c08201819052600090615d429083018461506a565b999850505050505050505056fe360894a13ba1a3210667c828492db98dca3e2076cc3735a920a3ca505d382bbca164736f6c6343000815000a",
  "libraries": {
    "PGContribCalculator": "0xeEcf3eCAc38732A2fa02958552EeDe60c2EfD761"
  },
  "devdoc": {
    "author": "DAOHaus",
    "details": "Uses Connext XApp architecture to manage main + multiple replica registries across different networks. Features and important things to consider: - There are syncing methods for adding/updating members, update registry activity & split funds across networks. - Funds are escrowed in a 0xSplit contract so in order to split funds the NetworkRegistry must be set   as the controller. - A NetworkRegistry contract can be setup either as the main registry (updater == address(0)) or as a replica. - A main NetworkRegistry should be owned by the community (i.e. Safe or a DAO) - A replica NetworkRegistry must set the `updater` role to the main registry address and be registered in the main   NetworkRegistry in order to get in sync. - A replica NetworkRegistry should not be owned by anyone so it can only be controlled by the main registry (updater)   however another Safe or DAO in the replica network can act as a trusted delegate in case of a halt of the Connext   bridge which could potentially froze the 0xSplit funds as the replica NetworkRegistry and thus its controller will   become inaccessible.",
    "errors": {
      "AddressEmptyCode(address)": [
        {
          "details": "There's no code at `target` (it is not a contract)."
        }
      ],
      "ERC1967InvalidImplementation(address)": [
        {
          "details": "The `implementation` of the proxy is invalid."
        }
      ],
      "ERC1967NonPayable()": [
        {
          "details": "An upgrade function sees `msg.value > 0` that may be lost."
        }
      ],
      "FailedInnerCall()": [
        {
          "details": "A call to an address target failed. The target may have reverted."
        }
      ],
      "InvalidInitialization()": [
        {
          "details": "The contract is already initialized."
        }
      ],
      "InvalidMember__ActivityMultiplier(address,uint32)": [
        {
          "params": {
            "_activityMultiplier": "activity multiplier",
            "_memberAddress": "member address"
          }
        }
      ],
      "InvalidMember__Address(address)": [
        {
          "params": {
            "_memberAddress": "submitted member address"
          }
        }
      ],
      "InvalidMember__StartDateInTheFuture(address,uint32)": [
        {
          "params": {
            "_memberAddress": "member address",
            "_startDate": "start date in seconds"
          }
        }
      ],
      "Member__AlreadyRegistered(address)": [
        {
          "params": {
            "_memberAddress": "member address"
          }
        }
      ],
      "Member__NotRegistered(address)": [
        {
          "params": {
            "_memberAddress": "member address"
          }
        }
      ],
      "NotInitializing()": [
        {
          "details": "The contract is not initializing."
        }
      ],
      "OwnableInvalidOwner(address)": [
        {
          "details": "The owner is not a valid owner account. (eg. `address(0)`)"
        }
      ],
      "OwnableUnauthorizedAccount(address)": [
        {
          "details": "The caller account is not authorized to perform an operation."
        }
      ],
      "UUPSUnauthorizedCallContext()": [
        {
          "details": "The call is from an unauthorized context."
        }
      ],
      "UUPSUnsupportedProxiableUUID(bytes32)": [
        {
          "details": "The storage `slot` is unsupported as a UUID."
        }
      ]
    },
    "events": {
      "Initialized(uint64)": {
        "details": "Triggered when the contract has been initialized or reinitialized."
      },
      "NetworkRegistryUpdated(uint32,address,uint32,address)": {
        "params": {
          "_chainId": "network chainId where the replica lives",
          "_delegate": "Delegate address in case of a bridge tx failure (currently not in use)",
          "_domainId": "Connext domain ID that correspond to the network where the replica lives",
          "_registryAddress": "replica contract address"
        }
      },
      "NewMember(address,uint32,uint32)": {
        "params": {
          "_activityMultiplier": "member activity multiplier",
          "_memberAddress": "member address",
          "_startDate": "timestamp the member started activities in seconds"
        }
      },
      "NewUpdaterConfig(address,uint32,address)": {
        "params": {
          "_connext": "Connext contract address",
          "_updater": "new Updater address",
          "_updaterDomain": "new Updater domain ID"
        }
      },
      "RegistryActivityUpdate(uint32,uint256)": {
        "params": {
          "_timestamp": "timestamp registry activity update epoch was executed",
          "_totalMemberUpdates": "total updated members during the epoch"
        }
      },
      "SplitUpdated(address,address)": {
        "params": {
          "_split": "new 0xSplitWallet contract address",
          "_splitMain": "new 0xSplitMain contract address"
        }
      },
      "SplitsDistributionUpdated(address,bytes32,uint32)": {
        "params": {
          "_split": "0xSplit contract address",
          "_splitDistributorFee": "split fee set at reward for the address that executes the distribution",
          "_splitHash": "hash of the split distribution parameters"
        }
      },
      "SyncActionPerformed(bytes32,uint32,bytes4,bool,address)": {
        "params": {
          "_action": "Function selector for the action executed on the replica",
          "_originDomain": "Connext domain ID that correspond to the network where the sync message was submitted",
          "_originSender": "main NetworkRegistry address that forwarded the sync message through the Connext bridge",
          "_success": "Whether or not the action execution succeeded",
          "_transferId": "transfer ID returned by Connext that identifies the received xCall message"
        }
      },
      "SyncMessageSubmitted(bytes32,uint32,bytes4,address)": {
        "params": {
          "_action": "Function selector for the action to be executed on the replica",
          "_chainId": "chainId of the destination network",
          "_registryAddress": "replica NetworkRegistry address",
          "_transferId": "Transfer ID returned by Connext to identify the executed xCall"
        }
      },
      "UpdateMember(address,uint32,uint32,uint32)": {
        "params": {
          "_activityMultiplier": "new member activity multiplier",
          "_memberAddress": "member address",
          "_secondsActive": "member seconds active since last update",
          "_startDate": "timestamp the member started activities in seconds"
        }
      },
      "UpdateMemberSeconds(address,uint32)": {
        "params": {
          "_memberAddress": "member address",
          "_secondsActive": "member activity in seconds since last registry update"
        }
      },
      "Upgraded(address)": {
        "details": "Emitted when the implementation is upgraded."
      }
    },
    "kind": "dev",
    "methods": {
      "acceptNetworkSplitControl(uint32[],uint256[])": {
        "details": "Callable by main registry owner",
        "params": {
          "_chainIds": "a list of network chainIds where valid replicas live",
          "_relayerFees": "a list of fees to be paid to the Connext relayer per sync message forwarded"
        }
      },
      "acceptSplitControl()": {
        "details": "Callable on both main and replica registries"
      },
      "addOrUpdateMembersBatch(address[],uint32[],uint32[],uint32[])": {
        "details": "Callable on a replica registry through the Connext bridge. The syncNetworkMemberRegistry function ensures that array params will always be the same length so there is no need for args validation",
        "params": {
          "_activityMultipliers": "Activity multipliers for each new member",
          "_members": "A list of member addresses to be added to the registry",
          "_secondsActive": "A list of members reported activity in seconds",
          "_startDates": "A list of dates when each member got active"
        }
      },
      "batchNewMembers(address[],uint32[],uint32[])": {
        "details": "Callable on a replica registry through the Connext bridge",
        "params": {
          "_activityMultipliers": "Activity multipliers for each new member",
          "_members": "A list of member addresses to be added to the registry",
          "_startDates": "A list of dates when each member got active"
        }
      },
      "batchUpdateMembersActivity(address[],uint32[])": {
        "details": "Callable on a replica registry through the Connext bridge",
        "params": {
          "_activityMultipliers": "New activity multipliers for each member",
          "_members": "A list of existing members"
        }
      },
      "calculate(address[])": {
        "details": "It uses the PGContribCalculator library to calculate member allocations",
        "params": {
          "_sortedList": "sorted list (ascending order) of members to be considered in the 0xSplit distribution"
        },
        "returns": {
          "_percentAllocations": "list of split allocations for each eligible recipient",
          "_receivers": "list of eligible recipients (non-zero allocation) for the next split distribution"
        }
      },
      "calculateContributionOf(address)": {
        "details": "It uses the PGContribCalculator library",
        "params": {
          "_memberAddress": "member address"
        },
        "returns": {
          "_0": "calculated contribution as uin256 value"
        }
      },
      "calculateTotalContributions()": {
        "details": "omit members with activityMultiplier == 0",
        "returns": {
          "total": "calculated contributions from active members"
        }
      },
      "cancelNetworkSplitControlTransfer(uint32[],uint256[])": {
        "details": "Callable by main registry owner",
        "params": {
          "_chainIds": "a list of network chainIds where valid replicas live",
          "_relayerFees": "a list of fees to be paid to the Connext relayer per sync message forwarded"
        }
      },
      "cancelSplitControlTransfer()": {
        "details": "Callable on both main and replica registries"
      },
      "getMember(address)": {
        "details": "It throws an exception if member is not in the db",
        "params": {
          "_memberAddress": "member address"
        },
        "returns": {
          "member": "metadata"
        }
      },
      "getMembers()": {
        "details": "In case of a growing number of members in the registry it is recommended to use {getMembersPaginated}",
        "returns": {
          "_0": "an array of Members in the registry"
        }
      },
      "getMembersPaginated(uint256,uint256)": {
        "params": {
          "_fromIndex": "starting index in Member's db",
          "_toIndex": "ending index in Member's db"
        },
        "returns": {
          "memberList": "an array of Members in the registry"
        }
      },
      "getMembersProperties(address[])": {
        "details": "Function should revert if any address in _memberAddrs is not registered",
        "params": {
          "_members": "list of registered member addresses"
        },
        "returns": {
          "_0": "list of member activity multipliers",
          "_1": "list of member start dates",
          "_2": "list of member seconds active"
        }
      },
      "initialize(bytes)": {
        "details": "Initialization parameters are abi-encoded (i.e. through the NetworkRegistrySummoner contract)",
        "params": {
          "_initializationParams": "abi-encoded parameters"
        }
      },
      "isMainRegistry()": {
        "details": "Verifies if updater params are set to zero"
      },
      "owner()": {
        "details": "Returns the address of the current owner."
      },
      "proxiableUUID()": {
        "details": "Implementation of the ERC1822 {proxiableUUID} function. This returns the storage slot used by the implementation. It is used to validate the implementation's compatibility when performing an upgrade. IMPORTANT: A proxy pointing at a proxiable contract should not be considered proxiable itself, because this risks bricking a proxy that upgrades to it, by delegating to itself until out of gas. Thus it is critical that this function revert if invoked through a proxy. This is guaranteed by the `notDelegated` modifier."
      },
      "renounceOwnership()": {
        "details": "Leaves the contract without owner. It will not be possible to call `onlyOwner` functions. Can only be called by the current owner. NOTE: Renouncing ownership will leave the contract without an owner, thereby disabling any functionality that is only available to the owner."
      },
      "setNetworkUpdaterConfig(uint32[],address[],uint32[],address[],uint256[])": {
        "details": "Callable by main registry owner",
        "params": {
          "_chainIds": "a list of network chainIds where valid replicas live",
          "_connextAddrs": "a list Connext bridge addresses to be used on each replica",
          "_relayerFees": "a list of fees to be paid to the Connext relayer per sync message forwarded",
          "_updaterAddrs": "a list of updater role addresses to be used on each replica",
          "_updaterDomains": "a list of Connext updater domain IDs to be used on each replica"
        }
      },
      "setSplit(address,address)": {
        "details": "Callable on both main and replica registries",
        "params": {
          "_split": "The address of the 0xSplit contract",
          "_splitMain": "The address of the 0xSplitMain"
        }
      },
      "setUpdaterConfig(address,uint32,address)": {
        "details": "Callable on both main and replica registries",
        "params": {
          "_connext": "Connext contract address",
          "_updater": "Main NetworkRegistry address that will update the replica registry using the Connext bridge",
          "_updaterDomain": "Connext domain ID where the Updater lives"
        }
      },
      "syncBatchNewMembers(address[],uint32[],uint32[],uint32[],uint256[])": {
        "details": "Callable by the main registry owner",
        "params": {
          "_activityMultipliers": "A list of activity multipliers for each new member",
          "_chainIds": "a list of network chainIds where valid replicas live",
          "_members": "A list of member addresses to be added to the registry",
          "_relayerFees": "a list of fees to be paid to the Connext relayer per sync message forwarded",
          "_startDates": "A list of dates when each member got active"
        }
      },
      "syncBatchUpdateMembersActivity(address[],uint32[],uint32[],uint256[])": {
        "details": "Callable by the main registry owner",
        "params": {
          "_activityMultipliers": "A list of new activity multipliers for each member",
          "_chainIds": "a list of network chainIds where valid replicas live",
          "_members": "A list of existing members",
          "_relayerFees": "a list of fees to be paid to the Connext relayer per sync message forwarded"
        }
      },
      "syncNetworkMemberRegistry(address[],uint32[],uint256[])": {
        "details": "Callable by the main registry owner",
        "params": {
          "_chainIds": "a list of network chainIds where valid replicas live",
          "_members": "list of member addresses you look to sync",
          "_relayerFees": "a list of fees to be paid to the Connext relayer per sync message forwarded"
        }
      },
      "syncUpdateAll(address[],uint32,uint32[],uint256[])": {
        "details": "Addresses in _sortedList must be in the member registry",
        "params": {
          "_chainIds": "a list of network chainIds where valid replicas live",
          "_relayerFees": "a list of fees to be paid to the Connext relayer per sync message forwarded",
          "_sortedList": "sorted list (ascending order) of members to be considered in the 0xSplit distribution",
          "_splitDistributorFee": "split fee set as reward for the address that executes the distribution"
        }
      },
      "syncUpdateSecondsActive(uint32[],uint256[])": {
        "details": "It should forward messages to stay in sync with provided replicas. {msg.value} must match the total fees required to pay the Connext relayer to execute forwarded messages in the destination.",
        "params": {
          "_chainIds": "a list of network chainIds where valid replicas live",
          "_relayerFees": "a list of fees to be paid to the Connext relayer per sync message forwarded"
        }
      },
      "syncUpdateSplits(address[],uint32,uint32[],uint256[])": {
        "details": "Addresses in _sortedList must be in the member registry",
        "params": {
          "_chainIds": "a list of network chainIds where valid replicas live",
          "_relayerFees": "a list of fees to be paid to the Connext relayer per sync message forwarded",
          "_sortedList": "sorted list (ascending order) of members to be considered in the 0xSplit distribution",
          "_splitDistributorFee": "split fee set as reward for the address that executes the distribution"
        }
      },
      "totalMembers()": {
        "returns": {
          "_0": "total members in the registry"
        }
      },
      "transferNetworkSplitControl(uint32[],address[],uint256[])": {
        "details": "Callable by main registry owner",
        "params": {
          "_chainIds": "a list of network chainIds where valid replicas live",
          "_newControllers": "new controller address per replica",
          "_relayerFees": "a list of fees to be paid to the Connext relayer per sync message forwarded"
        }
      },
      "transferOwnership(address)": {
        "details": "Transfers ownership of the contract to a new account (`newOwner`). Can only be called by the current owner."
      },
      "transferSplitControl(address)": {
        "details": "Callable on both main and replica registries",
        "params": {
          "_newController": "new controller address"
        }
      },
      "updateAll(uint32,address[],uint32)": {
        "details": "Verify if the address list is sorted, has no duplicates and is valid",
        "params": {
          "_cutoffDate": "in seconds to calculate registry member's activity",
          "_sortedList": "sorted list (ascending order) of members to be considered in the 0xSplit distribution",
          "_splitDistributorFee": "split fee set as reward for the address that executes the distribution"
        }
      },
      "updateNetworkRegistry(uint32,(uint32,address,address))": {
        "details": "Callable by main registry owner",
        "params": {
          "_chainId": "Network chainId where the replica registry lives",
          "_newRegistry": "Connext domain ID and replica NetworkRegistry address"
        }
      },
      "updateNetworkSplit(uint32[],address[],address[],uint256[])": {
        "details": "Callable by main registry owner",
        "params": {
          "_chainIds": "a list of network chainIds where valid replicas live",
          "_relayerFees": "a list of fees to be paid to the Connext relayer per sync message forwarded",
          "_splits": "a list of 0xSplit addresses for each replica",
          "_splitsMain": "a list of 0xSplit proxy addresses for each replica"
        }
      },
      "updateSecondsActive(uint32)": {
        "details": "It should manage a lastActivityUpdate state variable to update activity based on last update epoch. For new members it should update seconds based each member startDate.",
        "params": {
          "_cutoffDate": "in seconds to calculate registry member's activity"
        }
      },
      "updateSplits(address[],uint32)": {
        "details": "Verify if the address list is sorted, has no duplicates and is valid",
        "params": {
          "_sortedList": "sorted list (ascending order) of members to be considered in the 0xSplit distribution",
          "_splitDistributorFee": "split fee set as reward for the address that executes the distribution"
        }
      },
      "upgradeNetworkRegistryImplementation(uint32,address,bytes,uint256)": {
        "details": "Implements a UUPS proxy pattern",
        "params": {
          "_chainId": "Network chainId where the replica registry lives",
          "_data": "calldata to be called after the implementation is upgraded",
          "_newImplementation": "address",
          "_relayerFee": "fee to be paid to the Connext relayer for forwarding the sync message"
        }
      },
      "upgradeToAndCall(address,bytes)": {
        "custom:oz-upgrades-unsafe-allow-reachable": "delegatecall",
        "details": "Upgrade the implementation of the proxy to `newImplementation`, and subsequently execute the function call encoded in `data`. Calls {_authorizeUpgrade}. Emits an {Upgraded} event."
      },
      "xReceive(bytes32,uint256,address,address,uint32,bytes)": {
        "details": "Forwarded messages can only be executed if the function selector is listed as valid action",
        "params": {
          "_incomingCalldata": "message calldata to be used to invoke the required syncing action",
          "_origin": "Connext domain ID that correspond to the network where the the xCall message was submitted",
          "_originSender": "main registry address that forwarded the xCall message through the Connext bridge",
          "_transferId": "transfer ID set by Connext to identify the incoming xCall message"
        },
        "returns": {
          "_0": "any data returned by the action call"
        }
      }
    },
    "stateVariables": {
      "replicaRegistry": {
        "details": "chainId => Registry"
      },
      "split": {
        "details": "0xSplitWallet contract"
      },
      "splitMain": {
        "details": "0xSplitMain contract"
      },
      "updater": {
        "details": "In case of a main registry, the updater role must not be assigned to anyone (address(0))In case of a replica deployed on a L2, the updater role must be the main NetworkRegistry address"
      },
      "updaterDomain": {
        "details": "In case of a main registry, the updater domain must be set to 0In case of a replica, the Connext Domain ID must match to the network where main registry lives"
      }
    },
    "title": "A cross-chain network registry to distribute funds escrowed in 0xSplit based on member activity",
    "version": 1
  },
  "userdoc": {
    "errors": {
      "InvalidMember__ActivityMultiplier(address,uint32)": [
        {
          "notice": "Invalid value for member activity multiplier"
        }
      ],
      "InvalidMember__Address(address)": [
        {
          "notice": "Invalid member address"
        }
      ],
      "InvalidMember__StartDateInTheFuture(address,uint32)": [
        {
          "notice": "Invalid member start date"
        }
      ],
      "MemberRegistry_InvalidCutoffDate()": [
        {
          "notice": "cutoff date must not be greater than block timestamp"
        }
      ],
      "MemberRegistry__ParamsSizeMismatch()": [
        {
          "notice": "Function array parameter size mismatch"
        }
      ],
      "Member__AlreadyRegistered(address)": [
        {
          "notice": "Member is already registered"
        }
      ],
      "Member__IndexOutOfBounds()": [
        {
          "notice": "Member index out of bounds"
        }
      ],
      "Member__NotRegistered(address)": [
        {
          "notice": "Member is not registered"
        }
      ],
      "NetWorkRegistry__ParamsSizeMismatch()": [
        {
          "notice": "Function array parameter size mismatch"
        }
      ],
      "NetworkRegistry__ConnextOnly()": [
        {
          "notice": "The function is callable through Connext only."
        }
      ],
      "NetworkRegistry__InvalidConnextAddress()": [
        {
          "notice": "Connext address cannot be 0x0"
        }
      ],
      "NetworkRegistry__InvalidOrImmutableSplit()": [
        {
          "notice": "0xSplit doesn't exists or is immutable"
        }
      ],
      "NetworkRegistry__InvalidReplica()": [
        {
          "notice": "Registry has invalid domainId or registry address values"
        }
      ],
      "NetworkRegistry__NeitherOwnableNorReplicaUpdater()": [
        {
          "notice": "Network Registry must have an owner or updater address assigned."
        }
      ],
      "NetworkRegistry__NoReplicaOnNetwork(uint32)": [
        {
          "notice": "No replica registered on network with ID `_chainId`"
        }
      ],
      "NetworkRegistry__OnlyMainRegistry()": [
        {
          "notice": "The function is callable only on a main registry setup."
        }
      ],
      "NetworkRegistry__OnlyOwnerOrUpdater()": [
        {
          "notice": "The function is callable only by the owner or by the updater through Connext."
        }
      ],
      "NetworkRegistry__OnlyReplicaRegistry()": [
        {
          "notice": "The function is callable only on a replica registry setup."
        }
      ],
      "NetworkRegistry__OnlyReplicaRegistrySync()": [
        {
          "notice": "The function is callable only on a replica by the owner or through a sync event."
        }
      ],
      "NetworkRegistry__UnauthorizedToUpgrade()": [
        {
          "notice": "Unauthorized to execute contract upgradeability"
        }
      ],
      "NetworkRegistry__ValueSentLessThanRelayerFees()": [
        {
          "notice": "msg value sent does not cover relayer fees"
        }
      ],
      "Split_ControlNotHandedOver()": [
        {
          "notice": "Control of 0xSplit contract hasn't been transferred to the registry"
        }
      ]
    },
    "events": {
      "NetworkRegistryUpdated(uint32,address,uint32,address)": {
        "notice": "emitted when a new replica NetworkRegistry is added/updated"
      },
      "NewMember(address,uint32,uint32)": {
        "notice": "emitted after a new member is added to the registry"
      },
      "NewUpdaterConfig(address,uint32,address)": {
        "notice": "emitted after the Connext and Updater role settings are updated"
      },
      "RegistryActivityUpdate(uint32,uint256)": {
        "notice": "emitted after an registry activity update epoch is executed"
      },
      "SplitUpdated(address,address)": {
        "notice": "emitted when the 0xSplit contract is updated"
      },
      "SplitsDistributionUpdated(address,bytes32,uint32)": {
        "notice": "emitted when a new split distribution is registered on the 0xSplit contract"
      },
      "SyncActionPerformed(bytes32,uint32,bytes4,bool,address)": {
        "notice": "emitted when a registry synchronization message is received and executed on a replica"
      },
      "SyncMessageSubmitted(bytes32,uint32,bytes4,address)": {
        "notice": "emitted when a registry synchronization message is forwarded through the Connext bridge"
      },
      "UpdateMember(address,uint32,uint32,uint32)": {
        "notice": "emitted after the an existing member is updated"
      },
      "UpdateMemberSeconds(address,uint32)": {
        "notice": "emitted after each time a member registry activity is updated"
      }
    },
    "kind": "user",
    "methods": {
      "acceptNetworkSplitControl(uint32[],uint256[])": {
        "notice": "Submit sync messages to replicas in order to accept control of the current 0xSplit contract"
      },
      "acceptSplitControl()": {
        "notice": "Accepts control of the current 0xSplit contract"
      },
      "addOrUpdateMembersBatch(address[],uint32[],uint32[],uint32[])": {
        "notice": "Adds and/or updates a set of members on the registry"
      },
      "batchNewMembers(address[],uint32[],uint32[])": {
        "notice": "Adds a new set of members to the registry"
      },
      "batchUpdateMembersActivity(address[],uint32[])": {
        "notice": "Updates the activity multiplier for a set of existing members"
      },
      "calculate(address[])": {
        "notice": "Calculate 0xSplit distribution allocations"
      },
      "calculateContributionOf(address)": {
        "notice": "Calculates a member individual contribution"
      },
      "calculateTotalContributions()": {
        "notice": "Calculates the sum of all member contributions"
      },
      "cancelNetworkSplitControlTransfer(uint32[],uint256[])": {
        "notice": "Submit sync messages to replicas in order to cancel a transfer control request of the current 0xSplit contract"
      },
      "cancelSplitControlTransfer()": {
        "notice": "Cancel controller transfer of the current 0xSplit contract"
      },
      "connext()": {
        "notice": "Connext contract in the current domain"
      },
      "getMember(address)": {
        "notice": "Fetch a member's metadata from the registry."
      },
      "getMembers()": {
        "notice": "Fetch all members from the registry"
      },
      "getMembersPaginated(uint256,uint256)": {
        "notice": "Fetch a subset of members from the registry"
      },
      "getMembersProperties(address[])": {
        "notice": "Fetch members metadata as separate property arrays"
      },
      "initialize(bytes)": {
        "notice": "Initializes the registry contract"
      },
      "isMainRegistry()": {
        "notice": "Returns whether or not a registry has been setup as a main registry"
      },
      "lastActivityUpdate()": {
        "notice": "last timestamp where the registry got updated"
      },
      "replicaRegistry(uint32)": {
        "notice": "replicas tied to the current registry"
      },
      "setNetworkUpdaterConfig(uint32[],address[],uint32[],address[],uint256[])": {
        "notice": "Set Connext & Updater config settings for existing NetworkRegistry replicas via sync message"
      },
      "setSplit(address,address)": {
        "notice": "Updates the the 0xSplitMain proxy and 0xSplit contract addresses"
      },
      "setUpdaterConfig(address,uint32,address)": {
        "notice": "Set Connext and Updater config parameters"
      },
      "split()": {
        "notice": "0xSplit contract where funds are hold"
      },
      "splitMain()": {
        "notice": "0xSplit proxy contract"
      },
      "syncBatchNewMembers(address[],uint32[],uint32[],uint32[],uint256[])": {
        "notice": "Adds a new set of members to the registry and sync with replicas"
      },
      "syncBatchUpdateMembersActivity(address[],uint32[],uint32[],uint256[])": {
        "notice": "Updates the activity multiplier for a set of existing members and sync with replicas"
      },
      "syncNetworkMemberRegistry(address[],uint32[],uint256[])": {
        "notice": "Sync the state of a set of registry members across networks. Useful whether you're looking to sync a new replica from scratch or a subset of members. For example this function can be used to sync member's state in batches instead of doing a full registry sync which could become pretty gas intensive with a growing list of members."
      },
      "syncUpdateAll(address[],uint32,uint32[],uint256[])": {
        "notice": "Executes both {updateSecondsActive} to update member's activity and {updateSplits} for split distribution across all networks"
      },
      "syncUpdateSecondsActive(uint32[],uint256[])": {
        "notice": "Updates activity for each member in the registry since the last update epoch and sync with replicas"
      },
      "syncUpdateSplits(address[],uint32,uint32[],uint256[])": {
        "notice": "Updates the 0xSplit distribution on all networks based on reported member activity during the last epoch. Consider calling {syncUpdateSecondsActive} prior or after applying a 0xSplit distribution update"
      },
      "totalMembers()": {
        "notice": "Returns the total No of members in the registry"
      },
      "transferNetworkSplitControl(uint32[],address[],uint256[])": {
        "notice": "Submit sync messages to replicas in order to transfer control of the current 0xSplit contract to `_newController`"
      },
      "transferSplitControl(address)": {
        "notice": "Transfer control of the current 0xSplit contract to `_newController`"
      },
      "updateAll(uint32,address[],uint32)": {
        "notice": "Executes both {updateSecondsActive} to update registry member's activity and {updateSplits} for split distribution"
      },
      "updateNetworkRegistry(uint32,(uint32,address,address))": {
        "notice": "Adds a replica NetworkRegistry that should get in sync with a main registry"
      },
      "updateNetworkSplit(uint32[],address[],address[],uint256[])": {
        "notice": "Updates the 0xSplit contracts on existing NetworkRegistry replicas via sync message"
      },
      "updateSecondsActive(uint32)": {
        "notice": "Updates seconds active since the last update epoch for every member in the registry. If _cutoffDate is zero its will be override with block.timestamp"
      },
      "updateSplits(address[],uint32)": {
        "notice": "Updates the 0xSplit distribution based on member activity during the last epoch Consider calling {updateSecondsActive} prior triggering a 0xSplit distribution update"
      },
      "updater()": {
        "notice": "Address of the updater role that can update the registry through the Connext bridge"
      },
      "updaterDomain()": {
        "notice": "Connext domain ID where the updater contract is deployed"
      },
      "upgradeNetworkRegistryImplementation(uint32,address,bytes,uint256)": {
        "notice": "Upgrade replica NetworkRegistry implementation"
      },
      "xReceive(bytes32,uint256,address,address,uint32,bytes)": {
        "notice": "Accepts incoming sync messages from a main registry via Connext authenticated calls"
      }
    },
    "notice": "Manage a cross-chain member registry to distribute funds hold in 0xSplit based on member activity",
    "version": 1
  },
  "storageLayout": {
    "storage": [
      {
        "astId": 17899,
        "contract": "contracts/NetworkRegistry.sol:NetworkRegistry",
        "label": "members",
        "offset": 0,
        "slot": "0",
        "type": "t_struct(Members)17064_storage"
      },
      {
        "astId": 17902,
        "contract": "contracts/NetworkRegistry.sol:NetworkRegistry",
        "label": "lastActivityUpdate",
        "offset": 0,
        "slot": "3",
        "type": "t_uint32"
      },
      {
        "astId": 12373,
        "contract": "contracts/NetworkRegistry.sol:NetworkRegistry",
        "label": "connext",
        "offset": 4,
        "slot": "3",
        "type": "t_contract(IConnext)285"
      },
      {
        "astId": 12376,
        "contract": "contracts/NetworkRegistry.sol:NetworkRegistry",
        "label": "updaterDomain",
        "offset": 24,
        "slot": "3",
        "type": "t_uint32"
      },
      {
        "astId": 12379,
        "contract": "contracts/NetworkRegistry.sol:NetworkRegistry",
        "label": "updater",
        "offset": 0,
        "slot": "4",
        "type": "t_address"
      },
      {
        "astId": 12385,
        "contract": "contracts/NetworkRegistry.sol:NetworkRegistry",
        "label": "replicaRegistry",
        "offset": 0,
        "slot": "5",
        "type": "t_mapping(t_uint32,t_struct(Registry)17075_storage)"
      },
      {
        "astId": 12389,
        "contract": "contracts/NetworkRegistry.sol:NetworkRegistry",
        "label": "splitMain",
        "offset": 0,
        "slot": "6",
        "type": "t_contract(ISplitMain)16957"
      },
      {
        "astId": 12392,
        "contract": "contracts/NetworkRegistry.sol:NetworkRegistry",
        "label": "split",
        "offset": 0,
        "slot": "7",
        "type": "t_address"
      }
    ],
    "types": {
      "t_address": {
        "encoding": "inplace",
        "label": "address",
        "numberOfBytes": "20"
      },
      "t_array(t_struct(Member)17049_storage)dyn_storage": {
        "base": "t_struct(Member)17049_storage",
        "encoding": "dynamic_array",
        "label": "struct DataTypes.Member[]",
        "numberOfBytes": "32"
      },
      "t_contract(IConnext)285": {
        "encoding": "inplace",
        "label": "contract IConnext",
        "numberOfBytes": "20"
      },
      "t_contract(ISplitMain)16957": {
        "encoding": "inplace",
        "label": "contract ISplitMain",
        "numberOfBytes": "20"
      },
      "t_mapping(t_address,t_uint256)": {
        "encoding": "mapping",
        "key": "t_address",
        "label": "mapping(address => uint256)",
        "numberOfBytes": "32",
        "value": "t_uint256"
      },
      "t_mapping(t_uint32,t_struct(Registry)17075_storage)": {
        "encoding": "mapping",
        "key": "t_uint32",
        "label": "mapping(uint32 => struct DataTypes.Registry)",
        "numberOfBytes": "32",
        "value": "t_struct(Registry)17075_storage"
      },
      "t_struct(Member)17049_storage": {
        "encoding": "inplace",
        "label": "struct DataTypes.Member",
        "members": [
          {
            "astId": 17039,
            "contract": "contracts/NetworkRegistry.sol:NetworkRegistry",
            "label": "account",
            "offset": 0,
            "slot": "0",
            "type": "t_address"
          },
          {
            "astId": 17042,
            "contract": "contracts/NetworkRegistry.sol:NetworkRegistry",
            "label": "secondsActive",
            "offset": 20,
            "slot": "0",
            "type": "t_uint32"
          },
          {
            "astId": 17045,
            "contract": "contracts/NetworkRegistry.sol:NetworkRegistry",
            "label": "startDate",
            "offset": 24,
            "slot": "0",
            "type": "t_uint32"
          },
          {
            "astId": 17048,
            "contract": "contracts/NetworkRegistry.sol:NetworkRegistry",
            "label": "activityMultiplier",
            "offset": 28,
            "slot": "0",
            "type": "t_uint32"
          }
        ],
        "numberOfBytes": "32"
      },
      "t_struct(Members)17064_storage": {
        "encoding": "inplace",
        "label": "struct DataTypes.Members",
        "members": [
          {
            "astId": 17055,
            "contract": "contracts/NetworkRegistry.sol:NetworkRegistry",
            "label": "db",
            "offset": 0,
            "slot": "0",
            "type": "t_array(t_struct(Member)17049_storage)dyn_storage"
          },
          {
            "astId": 17058,
            "contract": "contracts/NetworkRegistry.sol:NetworkRegistry",
            "label": "count",
            "offset": 0,
            "slot": "1",
            "type": "t_uint256"
          },
          {
            "astId": 17063,
            "contract": "contracts/NetworkRegistry.sol:NetworkRegistry",
            "label": "index",
            "offset": 0,
            "slot": "2",
            "type": "t_mapping(t_address,t_uint256)"
          }
        ],
        "numberOfBytes": "96"
      },
      "t_struct(Registry)17075_storage": {
        "encoding": "inplace",
        "label": "struct DataTypes.Registry",
        "members": [
          {
            "astId": 17068,
            "contract": "contracts/NetworkRegistry.sol:NetworkRegistry",
            "label": "domainId",
            "offset": 0,
            "slot": "0",
            "type": "t_uint32"
          },
          {
            "astId": 17071,
            "contract": "contracts/NetworkRegistry.sol:NetworkRegistry",
            "label": "registryAddress",
            "offset": 4,
            "slot": "0",
            "type": "t_address"
          },
          {
            "astId": 17074,
            "contract": "contracts/NetworkRegistry.sol:NetworkRegistry",
            "label": "delegate",
            "offset": 0,
            "slot": "1",
            "type": "t_address"
          }
        ],
        "numberOfBytes": "64"
      },
      "t_uint256": {
        "encoding": "inplace",
        "label": "uint256",
        "numberOfBytes": "32"
      },
      "t_uint32": {
        "encoding": "inplace",
        "label": "uint32",
        "numberOfBytes": "4"
      }
    }
  }
}