{
  "address": "0x0E6267032Ff8451D0530fe46f03236316Ab46A97",
  "abi": [
    {
      "inputs": [],
      "stateMutability": "nonpayable",
      "type": "constructor"
    },
    {
      "inputs": [
        {
          "internalType": "address",
          "name": "_member",
          "type": "address"
        },
        {
          "internalType": "uint32",
          "name": "_activityMultiplier",
          "type": "uint32"
        }
      ],
      "name": "InvalidMember__ActivityMultiplier",
      "type": "error"
    },
    {
      "inputs": [
        {
          "internalType": "address",
          "name": "_member",
          "type": "address"
        }
      ],
      "name": "InvalidMember__Address",
      "type": "error"
    },
    {
      "inputs": [
        {
          "internalType": "address",
          "name": "_member",
          "type": "address"
        },
        {
          "internalType": "uint32",
          "name": "_startDate",
          "type": "uint32"
        }
      ],
      "name": "InvalidMember__StartDateInTheFuture",
      "type": "error"
    },
    {
      "inputs": [
        {
          "internalType": "uint256",
          "name": "_index",
          "type": "uint256"
        }
      ],
      "name": "InvalidSplit__AccountsOutOfOrder",
      "type": "error"
    },
    {
      "inputs": [],
      "name": "InvalidSplit__MemberListSizeMismatch",
      "type": "error"
    },
    {
      "inputs": [
        {
          "internalType": "address",
          "name": "_member",
          "type": "address"
        }
      ],
      "name": "Member__AlreadyRegistered",
      "type": "error"
    },
    {
      "inputs": [
        {
          "internalType": "address",
          "name": "_member",
          "type": "address"
        }
      ],
      "name": "Member__NotRegistered",
      "type": "error"
    },
    {
      "inputs": [
        {
          "internalType": "UD60x18",
          "name": "x",
          "type": "uint256"
        }
      ],
      "name": "PRBMath_UD60x18_Sqrt_Overflow",
      "type": "error"
    },
    {
      "inputs": [],
      "name": "Split_ControlNotHandedOver",
      "type": "error"
    },
    {
      "anonymous": false,
      "inputs": [
        {
          "indexed": false,
          "internalType": "uint8",
          "name": "version",
          "type": "uint8"
        }
      ],
      "name": "Initialized",
      "type": "event"
    },
    {
      "anonymous": false,
      "inputs": [
        {
          "indexed": true,
          "internalType": "uint32",
          "name": "_chainId",
          "type": "uint32"
        },
        {
          "indexed": true,
          "internalType": "address",
          "name": "_registryAddress",
          "type": "address"
        },
        {
          "indexed": true,
          "internalType": "uint32",
          "name": "_domainId",
          "type": "uint32"
        },
        {
          "indexed": false,
          "internalType": "address",
          "name": "_delegate",
          "type": "address"
        }
      ],
      "name": "NetworkRegistryUpdated",
      "type": "event"
    },
    {
      "anonymous": false,
      "inputs": [
        {
          "indexed": true,
          "internalType": "address",
          "name": "_member",
          "type": "address"
        },
        {
          "indexed": false,
          "internalType": "uint32",
          "name": "_startDate",
          "type": "uint32"
        },
        {
          "indexed": false,
          "internalType": "uint32",
          "name": "_activityMultiplier",
          "type": "uint32"
        }
      ],
      "name": "NewMember",
      "type": "event"
    },
    {
      "anonymous": false,
      "inputs": [
        {
          "indexed": false,
          "internalType": "address",
          "name": "_connext",
          "type": "address"
        },
        {
          "indexed": false,
          "internalType": "uint32",
          "name": "_updaterDomain",
          "type": "uint32"
        },
        {
          "indexed": false,
          "internalType": "address",
          "name": "_updater",
          "type": "address"
        }
      ],
      "name": "NewUpdaterConfig",
      "type": "event"
    },
    {
      "anonymous": false,
      "inputs": [
        {
          "indexed": true,
          "internalType": "address",
          "name": "previousOwner",
          "type": "address"
        },
        {
          "indexed": true,
          "internalType": "address",
          "name": "newOwner",
          "type": "address"
        }
      ],
      "name": "OwnershipTransferred",
      "type": "event"
    },
    {
      "anonymous": false,
      "inputs": [
        {
          "indexed": false,
          "internalType": "uint32",
          "name": "_date",
          "type": "uint32"
        },
        {
          "indexed": false,
          "internalType": "uint256",
          "name": "_totalMemberUpdates",
          "type": "uint256"
        }
      ],
      "name": "RegistryActivityUpdate",
      "type": "event"
    },
    {
      "anonymous": false,
      "inputs": [
        {
          "indexed": false,
          "internalType": "address",
          "name": "_splitMain",
          "type": "address"
        },
        {
          "indexed": false,
          "internalType": "address",
          "name": "_split",
          "type": "address"
        }
      ],
      "name": "SplitUpdated",
      "type": "event"
    },
    {
      "anonymous": false,
      "inputs": [
        {
          "indexed": false,
          "internalType": "address",
          "name": "_split",
          "type": "address"
        },
        {
          "indexed": false,
          "internalType": "bytes32",
          "name": "_splitHash",
          "type": "bytes32"
        },
        {
          "indexed": false,
          "internalType": "uint32",
          "name": "_splitDistributorFee",
          "type": "uint32"
        }
      ],
      "name": "SplitsUpdated",
      "type": "event"
    },
    {
      "anonymous": false,
      "inputs": [
        {
          "indexed": true,
          "internalType": "bytes32",
          "name": "_transferId",
          "type": "bytes32"
        },
        {
          "indexed": true,
          "internalType": "uint32",
          "name": "_originDomain",
          "type": "uint32"
        },
        {
          "indexed": true,
          "internalType": "bytes4",
          "name": "_action",
          "type": "bytes4"
        },
        {
          "indexed": false,
          "internalType": "bool",
          "name": "_success",
          "type": "bool"
        },
        {
          "indexed": false,
          "internalType": "address",
          "name": "_originSender",
          "type": "address"
        }
      ],
      "name": "SyncActionPerformed",
      "type": "event"
    },
    {
      "anonymous": false,
      "inputs": [
        {
          "indexed": true,
          "internalType": "bytes32",
          "name": "_transferId",
          "type": "bytes32"
        },
        {
          "indexed": true,
          "internalType": "uint32",
          "name": "_chainId",
          "type": "uint32"
        },
        {
          "indexed": true,
          "internalType": "bytes4",
          "name": "_action",
          "type": "bytes4"
        },
        {
          "indexed": false,
          "internalType": "address",
          "name": "_registryAddress",
          "type": "address"
        }
      ],
      "name": "SyncMessageSubmitted",
      "type": "event"
    },
    {
      "anonymous": false,
      "inputs": [
        {
          "indexed": true,
          "internalType": "address",
          "name": "_member",
          "type": "address"
        },
        {
          "indexed": false,
          "internalType": "uint32",
          "name": "_activityMultiplier",
          "type": "uint32"
        }
      ],
      "name": "UpdateMember",
      "type": "event"
    },
    {
      "anonymous": false,
      "inputs": [
        {
          "indexed": true,
          "internalType": "address",
          "name": "_member",
          "type": "address"
        },
        {
          "indexed": false,
          "internalType": "uint32",
          "name": "_secondsActive",
          "type": "uint32"
        }
      ],
      "name": "UpdateMemberSeconds",
      "type": "event"
    },
    {
      "inputs": [],
      "name": "PERCENTAGE_SCALE",
      "outputs": [
        {
          "internalType": "uint256",
          "name": "",
          "type": "uint256"
        }
      ],
      "stateMutability": "view",
      "type": "function"
    },
    {
      "inputs": [
        {
          "internalType": "uint32[]",
          "name": "_chainIds",
          "type": "uint32[]"
        },
        {
          "internalType": "uint256[]",
          "name": "_relayerFees",
          "type": "uint256[]"
        }
      ],
      "name": "acceptNetworkSplitControl",
      "outputs": [],
      "stateMutability": "payable",
      "type": "function"
    },
    {
      "inputs": [],
      "name": "acceptSplitControl",
      "outputs": [],
      "stateMutability": "nonpayable",
      "type": "function"
    },
    {
      "inputs": [
        {
          "internalType": "address[]",
          "name": "_members",
          "type": "address[]"
        },
        {
          "internalType": "uint32[]",
          "name": "_activityMultipliers",
          "type": "uint32[]"
        },
        {
          "internalType": "uint32[]",
          "name": "_startDates",
          "type": "uint32[]"
        }
      ],
      "name": "batchNewMember",
      "outputs": [],
      "stateMutability": "nonpayable",
      "type": "function"
    },
    {
      "inputs": [
        {
          "internalType": "address[]",
          "name": "_members",
          "type": "address[]"
        },
        {
          "internalType": "uint32[]",
          "name": "_activityMultipliers",
          "type": "uint32[]"
        }
      ],
      "name": "batchUpdateMember",
      "outputs": [],
      "stateMutability": "nonpayable",
      "type": "function"
    },
    {
      "inputs": [
        {
          "internalType": "address[]",
          "name": "_sortedList",
          "type": "address[]"
        }
      ],
      "name": "calculate",
      "outputs": [
        {
          "internalType": "address[]",
          "name": "_receivers",
          "type": "address[]"
        },
        {
          "internalType": "uint32[]",
          "name": "_percentAllocations",
          "type": "uint32[]"
        }
      ],
      "stateMutability": "view",
      "type": "function"
    },
    {
      "inputs": [
        {
          "internalType": "address",
          "name": "_memberAddress",
          "type": "address"
        }
      ],
      "name": "calculateContributionOf",
      "outputs": [
        {
          "internalType": "uint256",
          "name": "",
          "type": "uint256"
        }
      ],
      "stateMutability": "view",
      "type": "function"
    },
    {
      "inputs": [
        {
          "components": [
            {
              "internalType": "address",
              "name": "account",
              "type": "address"
            },
            {
              "internalType": "uint32",
              "name": "secondsActive",
              "type": "uint32"
            },
            {
              "internalType": "uint32",
              "name": "startDate",
              "type": "uint32"
            },
            {
              "internalType": "uint32",
              "name": "activityMultiplier",
              "type": "uint32"
            }
          ],
          "internalType": "struct MemberRegistry.Member",
          "name": "_member",
          "type": "tuple"
        }
      ],
      "name": "calculateContributionOf",
      "outputs": [
        {
          "internalType": "uint256",
          "name": "",
          "type": "uint256"
        }
      ],
      "stateMutability": "pure",
      "type": "function"
    },
    {
      "inputs": [],
      "name": "calculateTotalContributions",
      "outputs": [
        {
          "internalType": "uint256",
          "name": "total",
          "type": "uint256"
        }
      ],
      "stateMutability": "view",
      "type": "function"
    },
    {
      "inputs": [
        {
          "internalType": "uint32[]",
          "name": "_chainIds",
          "type": "uint32[]"
        },
        {
          "internalType": "uint256[]",
          "name": "_relayerFees",
          "type": "uint256[]"
        }
      ],
      "name": "cancelNetworkSplitControlTransfer",
      "outputs": [],
      "stateMutability": "payable",
      "type": "function"
    },
    {
      "inputs": [],
      "name": "cancelSplitControlTransfer",
      "outputs": [],
      "stateMutability": "nonpayable",
      "type": "function"
    },
    {
      "inputs": [],
      "name": "connext",
      "outputs": [
        {
          "internalType": "contract IConnext",
          "name": "",
          "type": "address"
        }
      ],
      "stateMutability": "view",
      "type": "function"
    },
    {
      "inputs": [
        {
          "internalType": "address",
          "name": "_member",
          "type": "address"
        }
      ],
      "name": "getMember",
      "outputs": [
        {
          "components": [
            {
              "internalType": "address",
              "name": "account",
              "type": "address"
            },
            {
              "internalType": "uint32",
              "name": "secondsActive",
              "type": "uint32"
            },
            {
              "internalType": "uint32",
              "name": "startDate",
              "type": "uint32"
            },
            {
              "internalType": "uint32",
              "name": "activityMultiplier",
              "type": "uint32"
            }
          ],
          "internalType": "struct MemberRegistry.Member",
          "name": "",
          "type": "tuple"
        }
      ],
      "stateMutability": "view",
      "type": "function"
    },
    {
      "inputs": [],
      "name": "getMembers",
      "outputs": [
        {
          "components": [
            {
              "internalType": "address",
              "name": "account",
              "type": "address"
            },
            {
              "internalType": "uint32",
              "name": "secondsActive",
              "type": "uint32"
            },
            {
              "internalType": "uint32",
              "name": "startDate",
              "type": "uint32"
            },
            {
              "internalType": "uint32",
              "name": "activityMultiplier",
              "type": "uint32"
            }
          ],
          "internalType": "struct MemberRegistry.Member[]",
          "name": "",
          "type": "tuple[]"
        }
      ],
      "stateMutability": "view",
      "type": "function"
    },
    {
      "inputs": [],
      "name": "getMembersSplitProperties",
      "outputs": [
        {
          "internalType": "address[]",
          "name": "",
          "type": "address[]"
        },
        {
          "internalType": "uint32[]",
          "name": "",
          "type": "uint32[]"
        },
        {
          "internalType": "uint32[]",
          "name": "",
          "type": "uint32[]"
        }
      ],
      "stateMutability": "view",
      "type": "function"
    },
    {
      "inputs": [
        {
          "internalType": "bytes",
          "name": "_initializationParams",
          "type": "bytes"
        }
      ],
      "name": "initialize",
      "outputs": [],
      "stateMutability": "nonpayable",
      "type": "function"
    },
    {
      "inputs": [],
      "name": "isMainRegistry",
      "outputs": [
        {
          "internalType": "bool",
          "name": "",
          "type": "bool"
        }
      ],
      "stateMutability": "view",
      "type": "function"
    },
    {
      "inputs": [],
      "name": "lastActivityUpdate",
      "outputs": [
        {
          "internalType": "uint32",
          "name": "",
          "type": "uint32"
        }
      ],
      "stateMutability": "view",
      "type": "function"
    },
    {
      "inputs": [
        {
          "internalType": "address",
          "name": "",
          "type": "address"
        }
      ],
      "name": "memberIdxs",
      "outputs": [
        {
          "internalType": "uint256",
          "name": "",
          "type": "uint256"
        }
      ],
      "stateMutability": "view",
      "type": "function"
    },
    {
      "inputs": [
        {
          "internalType": "uint256",
          "name": "",
          "type": "uint256"
        }
      ],
      "name": "members",
      "outputs": [
        {
          "internalType": "address",
          "name": "account",
          "type": "address"
        },
        {
          "internalType": "uint32",
          "name": "secondsActive",
          "type": "uint32"
        },
        {
          "internalType": "uint32",
          "name": "startDate",
          "type": "uint32"
        },
        {
          "internalType": "uint32",
          "name": "activityMultiplier",
          "type": "uint32"
        }
      ],
      "stateMutability": "view",
      "type": "function"
    },
    {
      "inputs": [
        {
          "internalType": "uint32",
          "name": "",
          "type": "uint32"
        }
      ],
      "name": "networkRegistry",
      "outputs": [
        {
          "internalType": "uint32",
          "name": "domainId",
          "type": "uint32"
        },
        {
          "internalType": "address",
          "name": "registryAddress",
          "type": "address"
        },
        {
          "internalType": "address",
          "name": "delegate",
          "type": "address"
        }
      ],
      "stateMutability": "view",
      "type": "function"
    },
    {
      "inputs": [],
      "name": "owner",
      "outputs": [
        {
          "internalType": "address",
          "name": "",
          "type": "address"
        }
      ],
      "stateMutability": "view",
      "type": "function"
    },
    {
      "inputs": [],
      "name": "renounceOwnership",
      "outputs": [],
      "stateMutability": "nonpayable",
      "type": "function"
    },
    {
      "inputs": [
        {
          "internalType": "address",
          "name": "_member",
          "type": "address"
        },
        {
          "internalType": "uint32",
          "name": "_activityMultiplier",
          "type": "uint32"
        },
        {
          "internalType": "uint32",
          "name": "_startDate",
          "type": "uint32"
        }
      ],
      "name": "setNewMember",
      "outputs": [],
      "stateMutability": "nonpayable",
      "type": "function"
    },
    {
      "inputs": [
        {
          "internalType": "address",
          "name": "_splitMain",
          "type": "address"
        },
        {
          "internalType": "address",
          "name": "_split",
          "type": "address"
        }
      ],
      "name": "setSplit",
      "outputs": [],
      "stateMutability": "nonpayable",
      "type": "function"
    },
    {
      "inputs": [
        {
          "internalType": "address",
          "name": "_connext",
          "type": "address"
        },
        {
          "internalType": "uint32",
          "name": "_updaterDomain",
          "type": "uint32"
        },
        {
          "internalType": "address",
          "name": "_updater",
          "type": "address"
        }
      ],
      "name": "setUpdaterConfig",
      "outputs": [],
      "stateMutability": "nonpayable",
      "type": "function"
    },
    {
      "inputs": [],
      "name": "split",
      "outputs": [
        {
          "internalType": "address",
          "name": "",
          "type": "address"
        }
      ],
      "stateMutability": "view",
      "type": "function"
    },
    {
      "inputs": [],
      "name": "splitMain",
      "outputs": [
        {
          "internalType": "contract ISplitMain",
          "name": "",
          "type": "address"
        }
      ],
      "stateMutability": "view",
      "type": "function"
    },
    {
      "inputs": [
        {
          "internalType": "address[]",
          "name": "_members",
          "type": "address[]"
        },
        {
          "internalType": "uint32[]",
          "name": "_activityMultipliers",
          "type": "uint32[]"
        },
        {
          "internalType": "uint32[]",
          "name": "_startDates",
          "type": "uint32[]"
        },
        {
          "internalType": "uint32[]",
          "name": "_chainIds",
          "type": "uint32[]"
        },
        {
          "internalType": "uint256[]",
          "name": "_relayerFees",
          "type": "uint256[]"
        }
      ],
      "name": "syncBatchNewMember",
      "outputs": [],
      "stateMutability": "payable",
      "type": "function"
    },
    {
      "inputs": [
        {
          "internalType": "address[]",
          "name": "_members",
          "type": "address[]"
        },
        {
          "internalType": "uint32[]",
          "name": "_activityMultipliers",
          "type": "uint32[]"
        },
        {
          "internalType": "uint32[]",
          "name": "_chainIds",
          "type": "uint32[]"
        },
        {
          "internalType": "uint256[]",
          "name": "_relayerFees",
          "type": "uint256[]"
        }
      ],
      "name": "syncBatchUpdateMember",
      "outputs": [],
      "stateMutability": "payable",
      "type": "function"
    },
    {
      "inputs": [
        {
          "internalType": "uint32[]",
          "name": "_chainIds",
          "type": "uint32[]"
        },
        {
          "internalType": "uint256[]",
          "name": "_relayerFees",
          "type": "uint256[]"
        }
      ],
      "name": "syncNetworkMemberRegistry",
      "outputs": [],
      "stateMutability": "payable",
      "type": "function"
    },
    {
      "inputs": [
        {
          "internalType": "address",
          "name": "_member",
          "type": "address"
        },
        {
          "internalType": "uint32",
          "name": "_activityMultiplier",
          "type": "uint32"
        },
        {
          "internalType": "uint32",
          "name": "_startDate",
          "type": "uint32"
        },
        {
          "internalType": "uint32[]",
          "name": "_chainIds",
          "type": "uint32[]"
        },
        {
          "internalType": "uint256[]",
          "name": "_relayerFees",
          "type": "uint256[]"
        }
      ],
      "name": "syncSetNewMember",
      "outputs": [],
      "stateMutability": "payable",
      "type": "function"
    },
    {
      "inputs": [
        {
          "internalType": "address[]",
          "name": "_sortedList",
          "type": "address[]"
        },
        {
          "internalType": "uint32",
          "name": "_splitDistributorFee",
          "type": "uint32"
        },
        {
          "internalType": "uint32[]",
          "name": "_chainIds",
          "type": "uint32[]"
        },
        {
          "internalType": "uint256[]",
          "name": "_relayerFees",
          "type": "uint256[]"
        }
      ],
      "name": "syncUpdateAll",
      "outputs": [],
      "stateMutability": "payable",
      "type": "function"
    },
    {
      "inputs": [
        {
          "internalType": "address",
          "name": "_member",
          "type": "address"
        },
        {
          "internalType": "uint32",
          "name": "_activityMultiplier",
          "type": "uint32"
        },
        {
          "internalType": "uint32[]",
          "name": "_chainIds",
          "type": "uint32[]"
        },
        {
          "internalType": "uint256[]",
          "name": "_relayerFees",
          "type": "uint256[]"
        }
      ],
      "name": "syncUpdateMember",
      "outputs": [],
      "stateMutability": "payable",
      "type": "function"
    },
    {
      "inputs": [
        {
          "internalType": "uint32[]",
          "name": "_chainIds",
          "type": "uint32[]"
        },
        {
          "internalType": "uint256[]",
          "name": "_relayerFees",
          "type": "uint256[]"
        }
      ],
      "name": "syncUpdateSecondsActive",
      "outputs": [],
      "stateMutability": "payable",
      "type": "function"
    },
    {
      "inputs": [
        {
          "internalType": "address[]",
          "name": "_sortedList",
          "type": "address[]"
        },
        {
          "internalType": "uint32",
          "name": "_splitDistributorFee",
          "type": "uint32"
        },
        {
          "internalType": "uint32[]",
          "name": "_chainIds",
          "type": "uint32[]"
        },
        {
          "internalType": "uint256[]",
          "name": "_relayerFees",
          "type": "uint256[]"
        }
      ],
      "name": "syncUpdateSplits",
      "outputs": [],
      "stateMutability": "payable",
      "type": "function"
    },
    {
      "inputs": [],
      "name": "totalMembers",
      "outputs": [
        {
          "internalType": "uint256",
          "name": "",
          "type": "uint256"
        }
      ],
      "stateMutability": "view",
      "type": "function"
    },
    {
      "inputs": [
        {
          "internalType": "uint32[]",
          "name": "_chainIds",
          "type": "uint32[]"
        },
        {
          "internalType": "address[]",
          "name": "_newControllers",
          "type": "address[]"
        },
        {
          "internalType": "uint256[]",
          "name": "_relayerFees",
          "type": "uint256[]"
        }
      ],
      "name": "transferNetworkSplitControl",
      "outputs": [],
      "stateMutability": "payable",
      "type": "function"
    },
    {
      "inputs": [
        {
          "internalType": "address",
          "name": "newOwner",
          "type": "address"
        }
      ],
      "name": "transferOwnership",
      "outputs": [],
      "stateMutability": "nonpayable",
      "type": "function"
    },
    {
      "inputs": [
        {
          "internalType": "address",
          "name": "_newController",
          "type": "address"
        }
      ],
      "name": "transferSplitControl",
      "outputs": [],
      "stateMutability": "nonpayable",
      "type": "function"
    },
    {
      "inputs": [
        {
          "internalType": "address[]",
          "name": "_sortedList",
          "type": "address[]"
        },
        {
          "internalType": "uint32",
          "name": "_splitDistributorFee",
          "type": "uint32"
        }
      ],
      "name": "updateAll",
      "outputs": [],
      "stateMutability": "nonpayable",
      "type": "function"
    },
    {
      "inputs": [
        {
          "internalType": "address",
          "name": "_member",
          "type": "address"
        },
        {
          "internalType": "uint32",
          "name": "_activityMultiplier",
          "type": "uint32"
        }
      ],
      "name": "updateMember",
      "outputs": [],
      "stateMutability": "nonpayable",
      "type": "function"
    },
    {
      "inputs": [
        {
          "internalType": "uint32",
          "name": "_chainId",
          "type": "uint32"
        },
        {
          "components": [
            {
              "internalType": "uint32",
              "name": "domainId",
              "type": "uint32"
            },
            {
              "internalType": "address",
              "name": "registryAddress",
              "type": "address"
            },
            {
              "internalType": "address",
              "name": "delegate",
              "type": "address"
            }
          ],
          "internalType": "struct INetworkMemberRegistry.Registry",
          "name": "_newRegistry",
          "type": "tuple"
        }
      ],
      "name": "updateNetworkRegistry",
      "outputs": [],
      "stateMutability": "nonpayable",
      "type": "function"
    },
    {
      "inputs": [
        {
          "internalType": "uint32[]",
          "name": "_chainIds",
          "type": "uint32[]"
        },
        {
          "internalType": "address[]",
          "name": "_splitsMain",
          "type": "address[]"
        },
        {
          "internalType": "address[]",
          "name": "_splits",
          "type": "address[]"
        },
        {
          "internalType": "uint256[]",
          "name": "_relayerFees",
          "type": "uint256[]"
        }
      ],
      "name": "updateNetworkSplit",
      "outputs": [],
      "stateMutability": "payable",
      "type": "function"
    },
    {
      "inputs": [],
      "name": "updateSecondsActive",
      "outputs": [],
      "stateMutability": "nonpayable",
      "type": "function"
    },
    {
      "inputs": [
        {
          "internalType": "address[]",
          "name": "_sortedList",
          "type": "address[]"
        },
        {
          "internalType": "uint32",
          "name": "_splitDistributorFee",
          "type": "uint32"
        }
      ],
      "name": "updateSplits",
      "outputs": [],
      "stateMutability": "nonpayable",
      "type": "function"
    },
    {
      "inputs": [],
      "name": "updater",
      "outputs": [
        {
          "internalType": "address",
          "name": "",
          "type": "address"
        }
      ],
      "stateMutability": "view",
      "type": "function"
    },
    {
      "inputs": [],
      "name": "updaterDomain",
      "outputs": [
        {
          "internalType": "uint32",
          "name": "",
          "type": "uint32"
        }
      ],
      "stateMutability": "view",
      "type": "function"
    },
    {
      "inputs": [
        {
          "internalType": "bytes32",
          "name": "_transferId",
          "type": "bytes32"
        },
        {
          "internalType": "uint256",
          "name": "",
          "type": "uint256"
        },
        {
          "internalType": "address",
          "name": "",
          "type": "address"
        },
        {
          "internalType": "address",
          "name": "_originSender",
          "type": "address"
        },
        {
          "internalType": "uint32",
          "name": "_origin",
          "type": "uint32"
        },
        {
          "internalType": "bytes",
          "name": "_incomingCalldata",
          "type": "bytes"
        }
      ],
      "name": "xReceive",
      "outputs": [
        {
          "internalType": "bytes",
          "name": "",
          "type": "bytes"
        }
      ],
      "stateMutability": "nonpayable",
      "type": "function"
    }
  ],
  "transactionHash": "0x35b3b4915e6b40ac7e3e08d3e9984503016c912e12304a1aa55bdca0786d5146",
  "args": [],
  "numDeployments": 4,
  "solcInputHash": "d3f3eb150724c8e8c432807fd2425a4d",
  "bytecode": "0x608060405260006066553480156200001657600080fd5b506200002162000027565b620000e9565b600054610100900460ff1615620000945760405162461bcd60e51b815260206004820152602760248201527f496e697469616c697a61626c653a20636f6e747261637420697320696e697469604482015266616c697a696e6760c81b606482015260840160405180910390fd5b60005460ff9081161015620000e7576000805460ff191660ff9081179091556040519081527f7f26b83ff96e1f2b6a682f133852f6798a09c465da95921460cefb38474024989060200160405180910390a15b565b61577280620000f96000396000f3fe6080604052600436106102ae5760003560e01c80638ddc5f3511610175578063c818c70f116100dc578063e9172c2d11610095578063f76541761161006f578063f765417614610886578063fd614f41146108a6578063ffcf9bae146108d3578063fff9834d146108f357600080fd5b8063e9172c2d14610826578063f2fde38b14610846578063f6ce03541461086657600080fd5b8063c818c70f1461076a578063cf2933c11461078a578063de4b0548146107aa578063df034cd0146107d1578063e46867fd146107f1578063e4a7c6031461081157600080fd5b8063a8e6f1e71161012e578063a8e6f1e7146106bd578063ab6efc30146106d0578063b044631c146106e5578063b0affdf7146106f8578063b85a2ce114610726578063bf59b4881461074657600080fd5b80638ddc5f35146105885780638ee31392146106045780639d7b8545146106365780639eab525314610656578063a02b600614610678578063a084b6c01461069857600080fd5b80635523a96011610219578063715018a6116101d2578063715018a6146104eb5780637698a8331461050057806376e925591461052057806380e038bc146105355780638da5cb5b1461054a5780638dc157911461056857600080fd5b80635523a9601461042557806356c0e992146104385780635daf08ca1461044b57806364c6d00a146104a157806367942be0146104b45780636bda59da146104d857600080fd5b806334e2fc651161026b57806334e2fc6514610378578063371b52e3146103b35780633a8246f3146103c85780633f26479e146103db578063439fab91146103f2578063535949a61461041257600080fd5b80630202f82a146102b35780630726312a146102c85780630e769b2b146102e85780631049d736146103255780632ada259614610338578063325d1e9c14610365575b600080fd5b6102c66102c13660046140c3565b610906565b005b3480156102d457600080fd5b506102c66102e3366004614157565b610ac7565b3480156102f457600080fd5b50606b54610308906001600160a01b031681565b6040516001600160a01b0390911681526020015b60405180910390f35b6102c66103333660046141a2565b610b20565b34801561034457600080fd5b5061035861035336600461420d565b610ce2565b60405161031c9190614264565b6102c6610373366004614272565b610dde565b34801561038457600080fd5b506103a561039336600461420d565b60676020526000908152604090205481565b60405190815260200161031c565b3480156103bf57600080fd5b506102c6610f93565b6102c66103d6366004614319565b611040565b3480156103e757600080fd5b506103a5620f424081565b3480156103fe57600080fd5b506102c661040d36600461445c565b611151565b6102c6610420366004614498565b611298565b6102c6610433366004614319565b6114ff565b6102c66104463660046141a2565b611610565b34801561045757600080fd5b5061046b610466366004614588565b61179f565b604080516001600160a01b03909516855263ffffffff93841660208601529183169184019190915216606082015260800161031c565b6102c66104af3660046141a2565b6117ec565b3480156104c057600080fd5b506104c96118f4565b60405161031c9392919061461b565b6102c66104e63660046147b4565b611b0e565b3480156104f757600080fd5b506102c6611c78565b34801561050c57600080fd5b506102c661051b36600461483b565b611c8c565b34801561052c57600080fd5b506065546103a5565b34801561054157600080fd5b506102c6611e5c565b34801561055657600080fd5b506033546001600160a01b0316610308565b34801561057457600080fd5b506102c66105833660046148d5565b611ed9565b34801561059457600080fd5b506105d86105a3366004614920565b606a602052600090815260409020805460019091015463ffffffff8216916001600160a01b03600160201b9091048116911683565b6040805163ffffffff90941684526001600160a01b03928316602085015291169082015260600161031c565b34801561061057600080fd5b506068546106219063ffffffff1681565b60405163ffffffff909116815260200161031c565b34801561064257600080fd5b506102c661065136600461420d565b61200e565b34801561066257600080fd5b5061066b6120c3565b60405161031c919061493d565b34801561068457600080fd5b506102c66106933660046148d5565b61215a565b3480156106a457600080fd5b506106ad61216d565b604051901515815260200161031c565b6102c66106cb36600461498b565b61219b565b3480156106dc57600080fd5b506103a5612304565b6102c66106f33660046141a2565b6123a0565b34801561070457600080fd5b50610718610713366004614a37565b6124a8565b60405161031c929190614a6b565b34801561073257600080fd5b506102c6610741366004614a90565b612840565b34801561075257600080fd5b5060685461062190600160c01b900463ffffffff1681565b34801561077657600080fd5b506102c6610785366004614ac9565b612a94565b34801561079657600080fd5b506102c66107a5366004614af7565b612ae7565b3480156107b657600080fd5b5060685461030890600160201b90046001600160a01b031681565b3480156107dd57600080fd5b50606954610308906001600160a01b031681565b3480156107fd57600080fd5b506102c661080c366004614b5a565b612b80565b34801561081d57600080fd5b506102c6612c33565b34801561083257600080fd5b506103a561084136600461420d565b612c3b565b34801561085257600080fd5b506102c661086136600461420d565b612c59565b34801561087257600080fd5b506102c6610881366004614bd7565b612cd2565b34801561089257600080fd5b50606c54610308906001600160a01b031681565b3480156108b257600080fd5b506108c66108c1366004614c17565b612d7e565b60405161031c9190614ced565b3480156108df57600080fd5b506103a56108ee366004614d00565b61333a565b6102c6610901366004614d84565b613361565b61090e61356d565b83838080602002602001604051908101604052809392919081815260200183836020028082843760009201919091525050604080516020808702828101820190935286825290935086925085918291850190849080828437600092019190915250508251845114915061099e90505760405162461bcd60e51b815260040161099590614e47565b60405180910390fd5b6000805b82518110156109da578281815181106109bd576109bd614e8c565b6020026020010151826109d09190614eb8565b91506001016109a2565b508034146109fa5760405162461bcd60e51b815260040161099590614ecb565b610a048989612a94565b6040805163c818c70f60e01b602082018190526001600160a01b038c169282019290925263ffffffff8a1660608201526000906080016040516020818303038152906040529050610aba82828b8b8080602002602001604051908101604052809392919081815260200183836020028082843760009201919091525050604080516020808f0282810182019093528e82529093508e92508d9182918501908490808284376000920191909152506135c792505050565b5050505050505050505050565b6033546001600160a01b0316331480610af457506069546001600160a01b031615801590610af457503330145b610b105760405162461bcd60e51b815260040161099590614f13565b610b1b83838361360c565b505050565b610b2861356d565b838380806020026020016040519081016040528093929190818152602001838360200280828437600092019190915250506040805160208087028281018201909352868252909350869250859182918501908490808284376000920191909152505082518451149150610baf90505760405162461bcd60e51b815260040161099590614e47565b6000805b8251811015610beb57828181518110610bce57610bce614e8c565b602002602001015182610be19190614eb8565b9150600101610bb3565b50803414610c0b5760405162461bcd60e51b815260040161099590614ecb565b6000806000610c186118f4565b604051929550909350915063e46867fd60e01b90600090610c43908390879087908790602001614f56565b6040516020818303038152906040529050610cd482828e8e80806020026020016040519081016040528093929190818152602001838360200280828437600081840152601f19601f820116905080830192505050505050508d8d808060200260200160405190810160405280939291908181526020018383602002808284376000920191909152506135c792505050565b505050505050505050505050565b6040805160808101825260008082526020808301829052828401829052606083018290526001600160a01b03851682526067905291822054909103610d455760405163c6040d1d60e01b81526001600160a01b0383166004820152602401610995565b6001600160a01b038216600090815260676020526040902054606590610d6d90600190614fa9565b81548110610d7d57610d7d614e8c565b60009182526020918290206040805160808101825291909201546001600160a01b038116825263ffffffff600160a01b8204811694830194909452600160c01b8104841692820192909252600160e01b909104909116606082015292915050565b610de661356d565b838380806020026020016040519081016040528093929190818152602001838360200280828437600092019190915250506040805160208087028281018201909352868252909350869250859182918501908490808284376000920191909152505082518451149150610e6d90505760405162461bcd60e51b815260040161099590614e47565b6000805b8251811015610ea957828181518110610e8c57610e8c614e8c565b602002602001015182610e9f9190614eb8565b9150600101610e71565b50803414610ec95760405162461bcd60e51b815260040161099590614ecb565b610ed48a8a8a610ac7565b60408051630393189560e11b602082018190526001600160a01b038d169282019290925263ffffffff808c1660608301528a16608082015260009060a0015b6040516020818303038152906040529050610cd482828b8b8080602002602001604051908101604052809392919081815260200183836020028082843760009201919091525050604080516020808f0282810182019093528e82529093508e92508d9182918501908490808284376000920191909152506135c792505050565b6033546001600160a01b0316331480610fc057506069546001600160a01b031615801590610fc057503330145b610fdc5760405162461bcd60e51b815260040161099590614f13565b606b54606c54604051630933e36d60e11b81526001600160a01b039182166004820152911690631267c6da906024015b600060405180830381600087803b15801561102657600080fd5b505af115801561103a573d6000803e3d6000fd5b50505050565b8383808060200260200160405190810160405280939291908181526020018383602002808284376000920191909152505060408051602080870282810182019093528682529093508692508591829185019084908082843760009201919091525050825184511491506110c790505760405162461bcd60e51b815260040161099590614e47565b6000805b8251811015611103578281815181106110e6576110e6614e8c565b6020026020010151826110f99190614eb8565b91506001016110cb565b508034146111235760405162461bcd60e51b815260040161099590614ecb565b61112e8a8a8a61215a565b604051635015b00360e11b90600090610f139083908e908e908e90602001614ffa565b600054610100900460ff16158080156111715750600054600160ff909116105b8061118b5750303b15801561118b575060005460ff166001145b6111ee5760405162461bcd60e51b815260206004820152602e60248201527f496e697469616c697a61626c653a20636f6e747261637420697320616c72656160448201526d191e481a5b9a5d1a585b1a5e995960921b6064820152608401610995565b6000805460ff191660011790558015611211576000805461ff0019166101001790555b6000806000806000808780602001905181019061122e9190615034565b95509550955095509550955061124886868686868661382b565b5050505050508015611294576000805461ff0019169055604051600181527f7f26b83ff96e1f2b6a682f133852f6798a09c465da95921460cefb38474024989060200160405180910390a15b5050565b6112a061356d565b83838080602002602001604051908101604052809392919081815260200183836020028082843760009201919091525050604080516020808702828101820190935286825290935086925085918291850190849080828437600092019190915250508251845114915061132790505760405162461bcd60e51b815260040161099590614e47565b6000805b82518110156113635782818151811061134657611346614e8c565b6020026020010151826113599190614eb8565b915060010161132b565b508034146113835760405162461bcd60e51b815260040161099590614ecb565b6114438d8d80806020026020016040519081016040528093929190818152602001838360200280828437600081840152601f19601f820116905080830192505050505050508c8c80806020026020016040519081016040528093929190818152602001838360200280828437600081840152601f19601f820116905080830192505050505050508b8b80806020026020016040519081016040528093929190818152602001838360200280828437600092019190915250612b8092505050565b600063e46867fd60e01b90506000818f8f8f8f8f8f60405160200161146e97969594939291906150f6565b60405160208183030381529060405290506114ee82828b8b8080602002602001604051908101604052809392919081815260200183836020028082843760009201919091525050604080516020808f0282810182019093528e82529093508e92508d9182918501908490808284376000920191909152506135c792505050565b505050505050505050505050505050565b83838080602002602001604051908101604052809392919081815260200183836020028082843760009201919091525050604080516020808702828101820190935286825290935086925085918291850190849080828437600092019190915250508251845114915061158690505760405162461bcd60e51b815260040161099590614e47565b6000805b82518110156115c2578281815181106115a5576115a5614e8c565b6020026020010151826115b89190614eb8565b915060010161158a565b508034146115e25760405162461bcd60e51b815260040161099590614ecb565b6115ed8a8a8a611ed9565b604051638dc1579160e01b90600090610f139083908e908e908e90602001614ffa565b61161861356d565b83838080602002602001604051908101604052809392919081815260200183836020028082843760009201919091525050604080516020808702828101820190935286825290935086925085918291850190849080828437600092019190915250508251845114915061169f90505760405162461bcd60e51b815260040161099590614e47565b6000805b82518110156116db578281815181106116be576116be614e8c565b6020026020010151826116d19190614eb8565b91506001016116a3565b508034146116fb5760405162461bcd60e51b815260040161099590614ecb565b604080516320380e2f60e21b6020820181905291600091015b604051602081830303815290604052905061179482828b8b8080602002602001604051908101604052809392919081815260200183836020028082843760009201919091525050604080516020808f0282810182019093528e82529093508e92508d9182918501908490808284376000920191909152506135c792505050565b505050505050505050565b606581815481106117af57600080fd5b6000918252602090912001546001600160a01b038116915063ffffffff600160a01b8204811691600160c01b8104821691600160e01b9091041684565b6117f461356d565b83838080602002602001604051908101604052809392919081815260200183836020028082843760009201919091525050604080516020808702828101820190935286825290935086925085918291850190849080828437600092019190915250508251845114915061187b90505760405162461bcd60e51b815260040161099590614e47565b6000805b82518110156118b75782818151811061189a5761189a614e8c565b6020026020010151826118ad9190614eb8565b915060010161187f565b508034146118d75760405162461bcd60e51b815260040161099590614ecb565b6040805163371b52e360e01b602082018190529160009101611714565b606080606060006065805490506001600160401b03811115611918576119186143a7565b604051908082528060200260200182016040528015611941578160200160208202803683370190505b506065549091506000906001600160401b03811115611962576119626143a7565b60405190808252806020026020018201604052801561198b578160200160208202803683370190505b506065549091506000906001600160401b038111156119ac576119ac6143a7565b6040519080825280602002602001820160405280156119d5578160200160208202803683370190505b50905060005b606554811015611b0157606581815481106119f8576119f8614e8c565b60009182526020909120015484516001600160a01b0390911690859083908110611a2457611a24614e8c565b60200260200101906001600160a01b031690816001600160a01b03168152505060658181548110611a5757611a57614e8c565b90600052602060002001600001601c9054906101000a900463ffffffff16838281518110611a8757611a87614e8c565b602002602001019063ffffffff16908163ffffffff168152505060658181548110611ab457611ab4614e8c565b9060005260206000200160000160189054906101000a900463ffffffff16828281518110611ae457611ae4614e8c565b63ffffffff909216602092830291909101909101526001016119db565b5091959094509092509050565b611b1661356d565b82818051825114611b395760405162461bcd60e51b815260040161099590614e47565b6000805b8251811015611b7557828181518110611b5857611b58614e8c565b602002602001015182611b6b9190614eb8565b9150600101611b3d565b50803414611b955760405162461bcd60e51b815260040161099590614ecb565b8551855114611bb65760405162461bcd60e51b815260040161099590614e47565b639d7b854560e01b60005b8751811015611c6e57600082888381518110611bdf57611bdf614e8c565b6020026020010151604051602001611c169291906001600160e01b03199290921682526001600160a01b0316602082015260400190565b6040516020818303038152906040529050611c6583828b8581518110611c3e57611c3e614e8c565b60200260200101518a8681518110611c5857611c58614e8c565b6020026020010151613893565b50600101611bc1565b5050505050505050565b611c8061356d565b611c8a6000613912565b565b611c9461356d565b63ffffffff82166000908152606a6020526040902054600160201b90046001600160a01b031615801590611cd3575060208101516001600160a01b0316155b15611d115763ffffffff82166000908152606a6020526040902080546001600160c01b031916815560010180546001600160a01b0319169055611dee565b805163ffffffff1615801590611d33575060208101516001600160a01b031615155b611d895760405162461bcd60e51b815260206004820152602160248201527f4e6574776f726b52656769737472793a20696e76616c696420726567697374726044820152607960f81b6064820152608401610995565b63ffffffff8281166000908152606a6020908152604091829020845181549286015194166001600160c01b031990921691909117600160201b6001600160a01b039485160217815590830151600190910180546001600160a01b031916919092161790555b806000015163ffffffff1681602001516001600160a01b03168363ffffffff167f4db6d44cad7c0eddcb10fcbcb14f9600520da0ea078eedc230cbed5aa0661d208460400151604051611e5091906001600160a01b0391909116815260200190565b60405180910390a45050565b6033546001600160a01b0316331480611e8957506069546001600160a01b031615801590611e8957503330145b611ea55760405162461bcd60e51b815260040161099590614f13565b606b54606c5460405163031f799160e61b81526001600160a01b03918216600482015291169063c7de64409060240161100c565b600080611f188585808060200260200160405190810160405280939291908181526020018383602002808284376000920191909152506124a892505050565b606b54606c54604051637677856760e11b81529395509193506001600160a01b039081169263ecef0ace92611f5792169086908690899060040161514f565b600060405180830381600087803b158015611f7157600080fd5b505af1158015611f85573d6000803e3d6000fd5b505050506000828285604051602001611fa09392919061519d565b60408051601f198184030181528282528051602091820120606c546001600160a01b0316845290830181905263ffffffff87168383015290519092507fc65927f292bd600bd77f04e7e614c2c2997ee8a3123221acf8a033a151cb86179181900360600190a1505050505050565b6033546001600160a01b031633148061203b57506069546001600160a01b03161580159061203b57503330145b6120575760405162461bcd60e51b815260040161099590614f13565b606b54606c546040516334392cbd60e21b81526001600160a01b039182166004820152838216602482015291169063d0e4b2f490604401600060405180830381600087803b1580156120a857600080fd5b505af11580156120bc573d6000803e3d6000fd5b5050505050565b60606065805480602002602001604051908101604052809291908181526020016000905b8282101561215157600084815260209081902060408051608081018252918501546001600160a01b038116835263ffffffff600160a01b8204811684860152600160c01b8204811692840192909252600160e01b90041660608201528252600190920191016120e7565b50505050905090565b612162612c33565b610b1b838383611ed9565b606854600090600160c01b900463ffffffff1615801561219657506069546001600160a01b0316155b905090565b6121a361356d565b838180518251146121c65760405162461bcd60e51b815260040161099590614e47565b6000805b8251811015612202578281815181106121e5576121e5614e8c565b6020026020010151826121f89190614eb8565b91506001016121ca565b508034146122225760405162461bcd60e51b815260040161099590614ecb565b86518651148015612234575086518551145b6122505760405162461bcd60e51b815260040161099590614e47565b63b85a2ce160e01b60005b88518110156117945760008289838151811061227957612279614e8c565b602002602001015189848151811061229357612293614e8c565b60200260200101516040516020016122d3939291906001600160e01b03199390931683526001600160a01b03918216602084015216604082015260600190565b60405160208183030381529060405290506122fb83828c8581518110611c3e57611c3e614e8c565b5060010161225b565b6000805b60655481101561239c576123886065828154811061232857612328614e8c565b60009182526020918290206040805160808101825291909201546001600160a01b038116825263ffffffff600160a01b8204811694830194909452600160c01b8104841692820192909252600160e01b909104909116606082015261333a565b6123929083614eb8565b9150600101612308565b5090565b83838080602002602001604051908101604052809392919081815260200183836020028082843760009201919091525050604080516020808702828101820190935286825290935086925085918291850190849080828437600092019190915250508251845114915061242790505760405162461bcd60e51b815260040161099590614e47565b6000805b82518110156124635782818151811061244657612446614e8c565b6020026020010151826124599190614eb8565b915060010161242b565b508034146124835760405162461bcd60e51b815260040161099590614ecb565b61248b612c33565b6040805163e4a7c60360e01b602082018190529160009101611714565b60608060008060006065805490508651146124d65760405163c53e5b5b60e01b815260040160405180910390fd5b600086516001600160401b038111156124f1576124f16143a7565b60405190808252806020026020018201604052801561253657816020015b604080518082019091526000808252602082015281526020019060019003908161250f5790505b50905060005b875181101561263957600088828151811061255957612559614e8c565b60200260200101519050600061256e82610ce2565b9050816001600160a01b0316856001600160a01b0316106125a55760405163ac6bd23360e01b815260048101849052602401610995565b606081015163ffffffff161561262f576040518060400160405280836001600160a01b031681526020016125d88361333a565b8152508484815181106125ed576125ed614e8c565b602002602001018190525083838151811061260a5761260a614e8c565b602002602001015160200151866126219190614eb8565b955086806001019750508194505b505060010161253c565b50836001600160401b03811115612652576126526143a7565b60405190808252806020026020018201604052801561267b578160200160208202803683370190505b509550836001600160401b03811115612696576126966143a7565b6040519080825280602002602001820160405280156126bf578160200160208202803683370190505b50945060008060005b89518110156127e05760008482815181106126e5576126e5614e8c565b60200260200101516020015111156127d85783818151811061270957612709614e8c565b60200260200101516000015189838151811061272757612727614e8c565b60200260200101906001600160a01b031690816001600160a01b03168152505085620f424085838151811061275e5761275e614e8c565b6020026020010151602001516127749190615222565b61277e919061524f565b88838151811061279057612790614e8c565b602002602001019063ffffffff16908163ffffffff16815250508782815181106127bc576127bc614e8c565b6020026020010151836127cf9190615271565b92506001909101905b6001016126c8565b50620f42408263ffffffff16146128355761280463ffffffff8316620f4240614fa9565b8760008151811061281757612817614e8c565b6020026020010181815161282b9190615271565b63ffffffff169052505b505050505050915091565b6033546001600160a01b031633148061286d57506069546001600160a01b03161580159061286d57503330145b6128895760405162461bcd60e51b815260040161099590614f13565b606b80546001600160a01b0319166001600160a01b03848116918217909255604051634463315560e11b815291831660048301526000916388c662aa90602401602060405180830381865afa1580156128e6573d6000803e3d6000fd5b505050506040513d601f19601f8201168201806040525081019061290a9190615295565b90506001600160a01b0381166129705760405162461bcd60e51b815260206004820152602560248201527f4e6574776f726b52656769737472793a2021657869737473207c7c20696d6d756044820152647461626c6560d81b6064820152608401610995565b606b5460405163708728eb60e11b81526001600160a01b038481166004830152600092169063e10e51d690602401602060405180830381865afa1580156129bb573d6000803e3d6000fd5b505050506040513d601f19601f820116820180604052508101906129df9190615295565b90506001600160a01b0381163014801590612a0357506001600160a01b0382163014155b15612a2157604051633170a38d60e01b815260040160405180910390fd5b606c80546001600160a01b0319166001600160a01b0385811691821790925560408051928716835260208301919091527fc8d09d7710e05a8ef2f307dcf13f859ce7e661b3eee1a04a57c4d481758a6c1d910160405180910390a1306001600160a01b0382160361103a5761103a611e5c565b6033546001600160a01b0316331480612ac157506069546001600160a01b031615801590612ac157503330145b612add5760405162461bcd60e51b815260040161099590614f13565b6112948282613964565b6033546001600160a01b0316331480612b1457506069546001600160a01b031615801590612b1457503330145b612b305760405162461bcd60e51b815260040161099590614f13565b60005b8251811015610b1b57612b78838281518110612b5157612b51614e8c565b6020026020010151838381518110612b6b57612b6b614e8c565b6020026020010151612a94565b600101612b33565b6033546001600160a01b0316331480612bad57506069546001600160a01b031615801590612bad57503330145b612bc95760405162461bcd60e51b815260040161099590614f13565b60005b835181101561103a57612c2b848281518110612bea57612bea614e8c565b6020026020010151848381518110612c0457612c04614e8c565b6020026020010151848481518110612c1e57612c1e614e8c565b6020026020010151610ac7565b600101612bcc565b611c8a613a88565b600080612c4783610ce2565b9050612c528161333a565b9392505050565b612c6161356d565b6001600160a01b038116612cc65760405162461bcd60e51b815260206004820152602660248201527f4f776e61626c653a206e6577206f776e657220697320746865207a65726f206160448201526564647265737360d01b6064820152608401610995565b612ccf81613912565b50565b612cda61356d565b60688054640100000000600160e01b031916600160201b6001600160a01b0386811691820263ffffffff60c01b191692909217600160c01b63ffffffff871690810291909117909355606980546001600160a01b0319169285169283179055604080519182526020820193909352918201527f21ae9d1c05d009b6af15c73821748e22e498496e2b29672090c67ae892322d6f9060600160405180910390a1505050565b6068546060908490849063ffffffff808316600160c01b90920416148015612db357506069546001600160a01b038381169116145b8015612dd95750606854600160201b90046001600160a01b0316336001600160a01b0316145b612e4b5760405162461bcd60e51b815260206004820152603760248201527f4e6574776f726b52656769737472793a202175706461746572446f6d61696e2060448201527f7c7c202175706461746572207c7c2021436f6e6e6578740000000000000000006064820152608401610995565b600084806020019051810190612e6191906152cf565b90506060637c6ce76b60e11b6001600160e01b0319831601612f0f57600080600088806020019051810190612e9691906152ea565b6040516001600160a01b038416602482015263ffffffff8084166044830152821660648201529296509094509250630393189560e11b91506084015b60408051601f198184030181529190526020810180516001600160e01b03166001600160e01b031990931692909217909152935061326892505050565b6337e738f160e01b6001600160e01b0319831601612fa45760008087806020019051810190612f3e9190615346565b6040516001600160a01b038316602482015263ffffffff8216604482015291945092508591506064015b60408051601f198184030181529190526020810180516001600160e01b03166001600160e01b0319909316929092179091529250613268915050565b631b97980360e01b6001600160e01b0319831601612ff257600080600088806020019051810190612fd5919061544d565b9350935093505084838383604051602401612ed29392919061461b565b6330d6cc3f60e01b6001600160e01b031983160161303a576000808780602001905181019061302191906154d9565b9250925050838282604051602401612f68929190614a6b565b631b5839fd60e01b6001600160e01b031983160161308457506040805160048152602481019091526020810180516001600160e01b03166001600160e01b03198416179052613268565b63723ea86f60e01b6001600160e01b03198316016130cc57600080878060200190518101906130b39190615542565b9250925050838282604051602401612f68929190615598565b632fea4ffd60e11b6001600160e01b03198316016130fb57600080878060200190518101906130b39190615542565b6347a5d31f60e01b6001600160e01b0319831601613154576000808780602001905181019061312a91906155c0565b6040516001600160a01b038084166024830152821660448201529194509250859150606401612f68565b6362847abb60e01b6001600160e01b03198316016131d85760008680602001905181019061318291906155ff565b6040516001600160a01b038216602482015290925084915060440160408051601f198184030181529190526020810180516001600160e01b03166001600160e01b03199093169290921790915291506132689050565b631fc7f1d160e21b6001600160e01b031983160161322257506040805160048152602481019091526020810180516001600160e01b03166001600160e01b03198416179052613268565b63c8e4ad1d60e01b6001600160e01b031983160161326857506040805160048152602481019091526020810180516001600160e01b03166001600160e01b031984161790525b600080306001600160a01b031683604051613283919061562b565b6000604051808303816000865af19150503d80600081146132c0576040519150601f19603f3d011682016040523d82523d6000602084013e6132c5565b606091505b5091509150836001600160e01b0319168963ffffffff168e7f1291b044e5e68ff17a19703d0775336ad7ec700ef5679fbd11bd0084af55baf3858e60405161332292919091151582526001600160a01b0316602082015260400190565b60405180910390a49c9b505050505050505050505050565b600061335b613358613353846020015163ffffffff1690565b613c24565b90565b92915050565b61336961356d565b8383808060200260200160405190810160405280939291908181526020018383602002808284376000920191909152505060408051602080870282810182019093528682529093508692508591829185019084908082843760009201919091525050825184511491506133f090505760405162461bcd60e51b815260040161099590614e47565b6000805b825181101561342c5782818151811061340f5761340f614e8c565b6020026020010151826134229190614eb8565b91506001016133f4565b5080341461344c5760405162461bcd60e51b815260040161099590614ecb565b6134b98b8b8080602002602001604051908101604052809392919081815260200183836020028082843760009201919091525050604080516020808f0282810182019093528e82529093508e92508d918291850190849080828437600092019190915250612ae792505050565b60405163cf2933c160e01b906000906134de9083908f908f908f908f90602001615647565b604051602081830303815290604052905061355e82828b8b8080602002602001604051908101604052809392919081815260200183836020028082843760009201919091525050604080516020808f0282810182019093528e82529093508e92508d9182918501908490808284376000920191909152506135c792505050565b50505050505050505050505050565b6033546001600160a01b03163314611c8a5760405162461bcd60e51b815260206004820181905260248201527f4f776e61626c653a2063616c6c6572206973206e6f7420746865206f776e65726044820152606401610995565b60005b82518110156120bc5761360485858584815181106135ea576135ea614e8c565b6020026020010151858581518110611c5857611c58614e8c565b6001016135ca565b6001600160a01b03831661363e57604051633899e57b60e01b81526001600160a01b0384166004820152602401610995565b6001600160a01b0383166000908152606760205260409020541561368057604051636822fa9960e11b81526001600160a01b0384166004820152602401610995565b60648263ffffffff1611156136bf5760405163424f515b60e11b81526001600160a01b038416600482015263ffffffff83166024820152604401610995565b428163ffffffff1611156136fd5760405163faac476360e01b81526001600160a01b038416600482015263ffffffff82166024820152604401610995565b604080516080810182526001600160a01b038086168083526000602080850182815263ffffffff8881168789019081528a821660608901908152606580546001818101835591885299517f8ff97419363ffd7000167f130ef7168fbea05faf9251824ca5043f113cc6a7c7909a0180549551935192518516600160e01b026001600160e01b03938616600160c01b02939093166001600160c01b0394909516600160a01b026001600160c01b03199096169a9099169990991793909317161717909355606680549094019384905581815260679092528382209290925591517f13ca1f9a974ca1b85618843282dc1981c63a62c389aa5cf6e4a31937f8434e739061381d908590879063ffffffff92831681529116602082015260400190565b60405180910390a250505050565b600054610100900460ff166138525760405162461bcd60e51b815260040161099590615689565b61385a613c7a565b6138678686868686613ca9565b6001600160a01b0381166138825761387d611c78565b61388b565b61388b81612c59565b505050505050565b60006138a0838584613d4d565b63ffffffff84166000818152606a6020908152604091829020549151600160201b9092046001600160a01b031682529293506001600160e01b031988169284917f20ffb62aa5e31e4b559317e8af8f877e19a9126fd6ff1fee93bcf06e59d385cc910160405180910390a45050505050565b603380546001600160a01b038381166001600160a01b0319831681179093556040519116919082907f8be0079c531659141344cd1fd0a4f28419497f9722a3daafe3b4186f6b6457e090600090a35050565b6001600160a01b038216600090815260676020526040812054908190036139a95760405163c6040d1d60e01b81526001600160a01b0384166004820152602401610995565b60648263ffffffff1611156139e85760405163424f515b60e11b81526001600160a01b038416600482015263ffffffff83166024820152604401610995565b6001600160a01b038316600090815260676020526040812054606590613a1090600190614fa9565b81548110613a2057613a20614e8c565b60009182526020918290200180546001600160e01b0316600160e01b63ffffffff87169081029190911782556040519081529092506001600160a01b038616917f597a24f4063494925c9b40150fd455db446fcc9046ddb9a1ded3ee8fad6b9884910161381d565b4260005b606554811015613bc857600060658281548110613aab57613aab614e8c565b600091825260208220018054909250600160e01b900463ffffffff1615613b3e578154600090600160a01b900463ffffffff16613af6578254600160c01b900463ffffffff16613b00565b60685463ffffffff165b90506000613b0e82876156d4565b845463ffffffff9182169250606491613b2f91600160e01b90041683615222565b613b39919061524f565b925050505b815481908390601490613b5f908490600160a01b900463ffffffff16615271565b82546101009290920a63ffffffff818102199093169183160217909155835460405191841682526001600160a01b031691507f780f517310a8481b4817e26f9d1a336e49e7522775e8e6b4fb22c73908be6ce69060200160405180910390a25050600101613a8c565b6040805163ffffffff84168152602081018390527f896e364af402e453909cff1f8bb117d283d37a717e7cf4a5c5b88be2197fa09f910160405180910390a1506068805463ffffffff191663ffffffff92909216919091179055565b6000817812725dd1d243aba0e75fe645cc4873f9e65afe688c928e1f21811115613c645760405163edc236ad60e01b815260048101849052602401610995565b612c52613358670de0b6b3a76400008302613eaa565b600054610100900460ff16613ca15760405162461bcd60e51b815260040161099590615689565b611c8a614021565b600054610100900460ff16613cd05760405162461bcd60e51b815260040161099590615689565b6068805463ffffffff909516600160c01b0263ffffffff60c01b196001600160a01b03978816600160201b0216640100000000600160e01b03199096169590951794909417909355606980549285166001600160a01b0319938416179055606b8054918516918316919091179055606c8054929093169116179055565b63ffffffff8084166000908152606a6020526040812054909185911615801590613d9b575063ffffffff81166000908152606a6020526040902054600160201b90046001600160a01b031615155b613df35760405162461bcd60e51b815260206004820152602360248201527f4e6574776f726b52656769737472793a2021737570706f72746564206e6574776044820152626f726b60e81b6064820152608401610995565b60685463ffffffff8087166000908152606a6020526040808220805460019091015491516345560b5d60e11b81526001600160a01b03600160201b96879004811696638aac16ba968b96613e5e96918616959290920483169391921690829081908e906004016156f1565b60206040518083038185885af1158015613e7c573d6000803e3d6000fd5b50505050506040513d601f19601f82011682018060405250810190613ea1919061574c565b95945050505050565b600081600003613ebc57506000919050565b50600181600160801b8110613ed65760409190911b9060801c5b680100000000000000008110613ef15760209190911b9060401c5b600160201b8110613f075760109190911b9060201c5b620100008110613f1c5760089190911b9060101c5b6101008110613f305760049190911b9060081c5b60108110613f435760029190911b9060041c5b60048110613f5357600182901b91505b6001828481613f6457613f64615239565b048301901c91506001828481613f7c57613f7c615239565b048301901c91506001828481613f9457613f94615239565b048301901c91506001828481613fac57613fac615239565b048301901c91506001828481613fc457613fc4615239565b048301901c91506001828481613fdc57613fdc615239565b048301901c91506001828481613ff457613ff4615239565b048301901c9150600082848161400c5761400c615239565b04905080831061401a578092505b5050919050565b600054610100900460ff166140485760405162461bcd60e51b815260040161099590615689565b611c8a33613912565b6001600160a01b0381168114612ccf57600080fd5b63ffffffff81168114612ccf57600080fd5b60008083601f84011261408a57600080fd5b5081356001600160401b038111156140a157600080fd5b6020830191508360208260051b85010111156140bc57600080fd5b9250929050565b600080600080600080608087890312156140dc57600080fd5b86356140e781614051565b955060208701356140f781614066565b945060408701356001600160401b038082111561411357600080fd5b61411f8a838b01614078565b9096509450606089013591508082111561413857600080fd5b5061414589828a01614078565b979a9699509497509295939492505050565b60008060006060848603121561416c57600080fd5b833561417781614051565b9250602084013561418781614066565b9150604084013561419781614066565b809150509250925092565b600080600080604085870312156141b857600080fd5b84356001600160401b03808211156141cf57600080fd5b6141db88838901614078565b909650945060208701359150808211156141f457600080fd5b5061420187828801614078565b95989497509550505050565b60006020828403121561421f57600080fd5b8135612c5281614051565b80516001600160a01b0316825260208082015163ffffffff9081169184019190915260408083015182169084015260609182015116910152565b6080810161335b828461422a565b600080600080600080600060a0888a03121561428d57600080fd5b873561429881614051565b965060208801356142a881614066565b955060408801356142b881614066565b945060608801356001600160401b03808211156142d457600080fd5b6142e08b838c01614078565b909650945060808a01359150808211156142f957600080fd5b506143068a828b01614078565b989b979a50959850939692959293505050565b60008060008060008060006080888a03121561433457600080fd5b87356001600160401b038082111561434b57600080fd5b6143578b838c01614078565b909950975060208a0135915061436c82614066565b9095506040890135908082111561438257600080fd5b61438e8b838c01614078565b909650945060608a01359150808211156142f957600080fd5b634e487b7160e01b600052604160045260246000fd5b604051601f8201601f191681016001600160401b03811182821017156143e5576143e56143a7565b604052919050565b600082601f8301126143fe57600080fd5b81356001600160401b03811115614417576144176143a7565b61442a601f8201601f19166020016143bd565b81815284602083860101111561443f57600080fd5b816020850160208301376000918101602001919091529392505050565b60006020828403121561446e57600080fd5b81356001600160401b0381111561448457600080fd5b614490848285016143ed565b949350505050565b60008060008060008060008060008060a08b8d0312156144b757600080fd5b8a356001600160401b03808211156144ce57600080fd5b6144da8e838f01614078565b909c509a5060208d01359150808211156144f357600080fd5b6144ff8e838f01614078565b909a50985060408d013591508082111561451857600080fd5b6145248e838f01614078565b909850965060608d013591508082111561453d57600080fd5b6145498e838f01614078565b909650945060808d013591508082111561456257600080fd5b5061456f8d828e01614078565b915080935050809150509295989b9194979a5092959850565b60006020828403121561459a57600080fd5b5035919050565b600081518084526020808501945080840160005b838110156145da5781516001600160a01b0316875295820195908201906001016145b5565b509495945050505050565b600081518084526020808501945080840160005b838110156145da57815163ffffffff16875295820195908201906001016145f9565b60608152600061462e60608301866145a1565b828103602084015261464081866145e5565b9050828103604084015261465481856145e5565b9695505050505050565b60006001600160401b03821115614677576146776143a7565b5060051b60200190565b600082601f83011261469257600080fd5b813560206146a76146a28361465e565b6143bd565b82815260059290921b840181019181810190868411156146c657600080fd5b8286015b848110156146ea5780356146dd81614066565b83529183019183016146ca565b509695505050505050565b600082601f83011261470657600080fd5b813560206147166146a28361465e565b82815260059290921b8401810191818101908684111561473557600080fd5b8286015b848110156146ea57803561474c81614051565b8352918301918301614739565b600082601f83011261476a57600080fd5b8135602061477a6146a28361465e565b82815260059290921b8401810191818101908684111561479957600080fd5b8286015b848110156146ea578035835291830191830161479d565b6000806000606084860312156147c957600080fd5b83356001600160401b03808211156147e057600080fd5b6147ec87838801614681565b9450602086013591508082111561480257600080fd5b61480e878388016146f5565b9350604086013591508082111561482457600080fd5b5061483186828701614759565b9150509250925092565b600080828403608081121561484f57600080fd5b833561485a81614066565b92506060601f198201121561486e57600080fd5b50604051606081018181106001600160401b0382111715614891576148916143a7565b60405260208401356148a281614066565b815260408401356148b281614051565b602082015260608401356148c581614051565b6040820152919491935090915050565b6000806000604084860312156148ea57600080fd5b83356001600160401b0381111561490057600080fd5b61490c86828701614078565b909450925050602084013561419781614066565b60006020828403121561493257600080fd5b8135612c5281614066565b6020808252825182820181905260009190848201906040850190845b8181101561497f5761496c83855161422a565b9284019260809290920191600101614959565b50909695505050505050565b600080600080608085870312156149a157600080fd5b84356001600160401b03808211156149b857600080fd5b6149c488838901614681565b955060208701359150808211156149da57600080fd5b6149e6888389016146f5565b945060408701359150808211156149fc57600080fd5b614a08888389016146f5565b93506060870135915080821115614a1e57600080fd5b50614a2b87828801614759565b91505092959194509250565b600060208284031215614a4957600080fd5b81356001600160401b03811115614a5f57600080fd5b614490848285016146f5565b604081526000614a7e60408301856145a1565b8281036020840152613ea181856145e5565b60008060408385031215614aa357600080fd5b8235614aae81614051565b91506020830135614abe81614051565b809150509250929050565b60008060408385031215614adc57600080fd5b8235614ae781614051565b91506020830135614abe81614066565b60008060408385031215614b0a57600080fd5b82356001600160401b0380821115614b2157600080fd5b614b2d868387016146f5565b93506020850135915080821115614b4357600080fd5b50614b5085828601614681565b9150509250929050565b600080600060608486031215614b6f57600080fd5b83356001600160401b0380821115614b8657600080fd5b614b92878388016146f5565b94506020860135915080821115614ba857600080fd5b614bb487838801614681565b93506040860135915080821115614bca57600080fd5b5061483186828701614681565b600080600060608486031215614bec57600080fd5b8335614bf781614051565b92506020840135614c0781614066565b9150604084013561419781614051565b60008060008060008060c08789031215614c3057600080fd5b86359550602087013594506040870135614c4981614051565b93506060870135614c5981614051565b92506080870135614c6981614066565b915060a08701356001600160401b03811115614c8457600080fd5b614c9089828a016143ed565b9150509295509295509295565b60005b83811015614cb8578181015183820152602001614ca0565b50506000910152565b60008151808452614cd9816020860160208601614c9d565b601f01601f19169290920160200192915050565b602081526000612c526020830184614cc1565b600060808284031215614d1257600080fd5b604051608081018181106001600160401b0382111715614d3457614d346143a7565b6040528235614d4281614051565b81526020830135614d5281614066565b60208201526040830135614d6581614066565b60408201526060830135614d7881614066565b60608201529392505050565b6000806000806000806000806080898b031215614da057600080fd5b88356001600160401b0380821115614db757600080fd5b614dc38c838d01614078565b909a50985060208b0135915080821115614ddc57600080fd5b614de88c838d01614078565b909850965060408b0135915080821115614e0157600080fd5b614e0d8c838d01614078565b909650945060608b0135915080821115614e2657600080fd5b50614e338b828c01614078565b999c989b5096995094979396929594505050565b60208082526025908201527f4e6574776f726b52656769737472793a20706172616d732073697a65206d69736040820152640dac2e8c6d60db1b606082015260800190565b634e487b7160e01b600052603260045260246000fd5b634e487b7160e01b600052601160045260246000fd5b8082018082111561335b5761335b614ea2565b60208082526028908201527f4e6574776f726b52656769737472793a206d73672e76616c7565203c2072656c604082015267617965724665657360c01b606082015260800190565b60208082526023908201527f4e6574776f726b52656769737472793a20216f776e6572207c7c2021757064616040820152623a32b960e91b606082015260800190565b63ffffffff60e01b85168152608060208201526000614f7860808301866145a1565b8281036040840152614f8a81866145e5565b90508281036060840152614f9e81856145e5565b979650505050505050565b8181038181111561335b5761335b614ea2565b8183526000602080850194508260005b858110156145da578135614fdf81614051565b6001600160a01b031687529582019590820190600101614fcc565b63ffffffff60e01b8516815260606020820152600061501d606083018587614fbc565b905063ffffffff8316604083015295945050505050565b60008060008060008060c0878903121561504d57600080fd5b865161505881614051565b602088015190965061506981614066565b604088015190955061507a81614051565b606088015190945061508b81614051565b608088015190935061509c81614051565b60a08801519092506150ad81614051565b809150509295509295509295565b8183526000602080850194508260005b858110156145da5781356150de81614066565b63ffffffff16875295820195908201906001016150cb565b63ffffffff60e01b8816815260806020820152600061511960808301888a614fbc565b828103604084015261512c8187896150bb565b905082810360608401526151418185876150bb565b9a9950505050505050505050565b6001600160a01b0385168152608060208201819052600090615173908301866145a1565b828103604084015261518581866145e5565b91505063ffffffff8316606083015295945050505050565b835160009082906020808801845b838110156151d05781516001600160a01b0316855293820193908201906001016151ab565b5050865181880193925060005b818110156151ff57845163ffffffff16845293820193928201926001016151dd565b50505060e09490941b6001600160e01b0319168452505060049091019392505050565b808202811582820484141761335b5761335b614ea2565b634e487b7160e01b600052601260045260246000fd5b60008261526c57634e487b7160e01b600052601260045260246000fd5b500490565b63ffffffff81811683821601908082111561528e5761528e614ea2565b5092915050565b6000602082840312156152a757600080fd5b8151612c5281614051565b80516001600160e01b0319811681146152ca57600080fd5b919050565b6000602082840312156152e157600080fd5b612c52826152b2565b6000806000806080858703121561530057600080fd5b615309856152b2565b9350602085015161531981614051565b604086015190935061532a81614066565b606086015190925061533b81614066565b939692955090935050565b60008060006060848603121561535b57600080fd5b615364846152b2565b9250602084015161537481614051565b604085015190925061419781614066565b600082601f83011261539657600080fd5b815160206153a66146a28361465e565b82815260059290921b840181019181810190868411156153c557600080fd5b8286015b848110156146ea5780516153dc81614051565b83529183019183016153c9565b600082601f8301126153fa57600080fd5b8151602061540a6146a28361465e565b82815260059290921b8401810191818101908684111561542957600080fd5b8286015b848110156146ea57805161544081614066565b835291830191830161542d565b6000806000806080858703121561546357600080fd5b61546c856152b2565b935060208501516001600160401b038082111561548857600080fd5b61549488838901615385565b945060408701519150808211156154aa57600080fd5b6154b6888389016153e9565b935060608701519150808211156154cc57600080fd5b50614a2b878288016153e9565b6000806000606084860312156154ee57600080fd5b6154f7846152b2565b925060208401516001600160401b038082111561551357600080fd5b61551f87838801615385565b9350604086015191508082111561553557600080fd5b50614831868287016153e9565b60008060006060848603121561555757600080fd5b615560846152b2565b925060208401516001600160401b0381111561557b57600080fd5b61558786828701615385565b925050604084015161419781614066565b6040815260006155ab60408301856145a1565b905063ffffffff831660208301529392505050565b6000806000606084860312156155d557600080fd5b6155de846152b2565b925060208401516155ee81614051565b604085015190925061419781614051565b6000806040838503121561561257600080fd5b61561b836152b2565b91506020830151614abe81614051565b6000825161563d818460208701614c9d565b9190910192915050565b63ffffffff60e01b8616815260606020820152600061566a606083018688614fbc565b828103604084015261567d8185876150bb565b98975050505050505050565b6020808252602b908201527f496e697469616c697a61626c653a20636f6e7472616374206973206e6f74206960408201526a6e697469616c697a696e6760a81b606082015260800190565b63ffffffff82811682821603908082111561528e5761528e614ea2565b63ffffffff881681526001600160a01b0387811660208301528681166040830152851660608201526080810184905260a0810183905260e060c0820181905260009061573f90830184614cc1565b9998505050505050505050565b60006020828403121561575e57600080fd5b505191905056fea164736f6c6343000813000a",
  "devdoc": {
    "events": {
      "Initialized(uint8)": {
        "details": "Triggered when the contract has been initialized or reinitialized."
      }
    },
    "kind": "dev",
    "methods": {
      "acceptSplitControl()": {
        "details": "should accept control of the current 0xsplit in the state"
      },
      "batchNewMember(address[],uint32[],uint32[])": {
        "details": "Make sure array parameters are of the same length Activity multiplier could be set within 0-100 (%) range (i.e. 50 -> part-time 100 -> full-time) but it's up to the implementer to establish the multiplier boundaries",
        "params": {
          "_activityMultipliers": "Activity multipliers for each new member",
          "_members": "A list of member addresses to be added to the registry",
          "_startDates": "A list of dates when each member got active"
        }
      },
      "batchUpdateMember(address[],uint32[])": {
        "details": "Make sure members are in the registry Activity multiplier could be set within 0-100 (%) range (i.e. 50 -> part-time 100 -> full-time) but it's up to the implementer to establish the multiplier boundaries",
        "params": {
          "_activityMultipliers": "New activity multipliers for each member",
          "_members": "A list of existing members"
        }
      },
      "owner()": {
        "details": "Returns the address of the current owner."
      },
      "renounceOwnership()": {
        "details": "Leaves the contract without owner. It will not be possible to call `onlyOwner` functions anymore. Can only be called by the current owner. NOTE: Renouncing ownership will leave the contract without an owner, thereby removing any functionality that is only available to the owner."
      },
      "setNewMember(address,uint32,uint32)": {
        "details": "Activity multiplier could be set within 0-100 (%) range (i.e. 50 -> part-time 100 -> full-time) but it's up to the implementer to establish the multiplier boundaries",
        "params": {
          "_activityMultiplier": "The member activity multiplier",
          "_member": "The addres of the new member to be added to the registry",
          "_startDate": "The date member when the member got active"
        }
      },
      "setSplit(address,address)": {
        "details": "Should make sure the 0xSplit contract exists and isn't immutable (no owner) Also make sure controller has been already handed over to the manager or waiting to be accepted. If manager is already a potential controller, call acceptSplitControl()",
        "params": {
          "_split": "The address of the 0xSplit contract",
          "_splitMain": "The address of the 0xSplitMain"
        }
      },
      "transferOwnership(address)": {
        "details": "Transfers ownership of the contract to a new account (`newOwner`). Can only be called by the current owner."
      },
      "updateMember(address,uint32)": {
        "details": "Make sure member is in the registry Activity multiplier could be set within 0-100 (%) range (i.e. 50 -> part-time 100 -> full-time) but it's up to the implementer to establish the multiplier boundaries",
        "params": {
          "_activityMultiplier": "The member new activity multiplier",
          "_member": "The addres of the existing member"
        }
      },
      "updateSecondsActive()": {
        "details": "It should manage a lastActivityUpdate state variable to update activity based on last update epoch however for new members it should update seconds based each member startDate"
      }
    },
    "version": 1
  },
  "userdoc": {
    "errors": {
      "PRBMath_UD60x18_Sqrt_Overflow(uint256)": [
        {
          "notice": "Thrown when calculating the square root overflows UD60x18."
        }
      ]
    },
    "kind": "user",
    "methods": {
      "PERCENTAGE_SCALE()": {
        "notice": "constant to scale uints into percentages (1e6 == 100%)"
      },
      "acceptSplitControl()": {
        "notice": "Accepts control of the current 0xSplit contract"
      },
      "batchNewMember(address[],uint32[],uint32[])": {
        "notice": "Adds a new set of members to the registry"
      },
      "batchUpdateMember(address[],uint32[])": {
        "notice": "Updates the activity multiplier of a set of existing members"
      },
      "setNewMember(address,uint32,uint32)": {
        "notice": "Adds a new member to the registry"
      },
      "setSplit(address,address)": {
        "notice": "Updates the addresses for the 0xSplitMain proxy and 0xSplit contract"
      },
      "updateMember(address,uint32)": {
        "notice": "Updates the activity multiplier of an existing member"
      },
      "updateSecondsActive()": {
        "notice": "Updates seconds active for each member since the last update epoch"
      },
      "xReceive(bytes32,uint256,address,address,uint32,bytes)": {
        "notice": "The receiver function as required by the IXReceiver interface."
      }
    },
    "version": 1
  },
  "storageLayout": {
    "storage": [
      {
        "astId": 829,
        "contract": "contracts/NetworkRegistry.sol:NetworkRegistry",
        "label": "_initialized",
        "offset": 0,
        "slot": "0",
        "type": "t_uint8"
      },
      {
        "astId": 832,
        "contract": "contracts/NetworkRegistry.sol:NetworkRegistry",
        "label": "_initializing",
        "offset": 1,
        "slot": "0",
        "type": "t_bool"
      },
      {
        "astId": 1316,
        "contract": "contracts/NetworkRegistry.sol:NetworkRegistry",
        "label": "__gap",
        "offset": 0,
        "slot": "1",
        "type": "t_array(t_uint256)50_storage"
      },
      {
        "astId": 701,
        "contract": "contracts/NetworkRegistry.sol:NetworkRegistry",
        "label": "_owner",
        "offset": 0,
        "slot": "51",
        "type": "t_address"
      },
      {
        "astId": 821,
        "contract": "contracts/NetworkRegistry.sol:NetworkRegistry",
        "label": "__gap",
        "offset": 0,
        "slot": "52",
        "type": "t_array(t_uint256)49_storage"
      },
      {
        "astId": 11532,
        "contract": "contracts/NetworkRegistry.sol:NetworkRegistry",
        "label": "members",
        "offset": 0,
        "slot": "101",
        "type": "t_array(t_struct(Member)11528_storage)dyn_storage"
      },
      {
        "astId": 11535,
        "contract": "contracts/NetworkRegistry.sol:NetworkRegistry",
        "label": "count",
        "offset": 0,
        "slot": "102",
        "type": "t_uint256"
      },
      {
        "astId": 11539,
        "contract": "contracts/NetworkRegistry.sol:NetworkRegistry",
        "label": "memberIdxs",
        "offset": 0,
        "slot": "103",
        "type": "t_mapping(t_address,t_uint256)"
      },
      {
        "astId": 11541,
        "contract": "contracts/NetworkRegistry.sol:NetworkRegistry",
        "label": "lastActivityUpdate",
        "offset": 0,
        "slot": "104",
        "type": "t_uint32"
      },
      {
        "astId": 8507,
        "contract": "contracts/NetworkRegistry.sol:NetworkRegistry",
        "label": "connext",
        "offset": 4,
        "slot": "104",
        "type": "t_contract(IConnext)285"
      },
      {
        "astId": 8509,
        "contract": "contracts/NetworkRegistry.sol:NetworkRegistry",
        "label": "updaterDomain",
        "offset": 24,
        "slot": "104",
        "type": "t_uint32"
      },
      {
        "astId": 8511,
        "contract": "contracts/NetworkRegistry.sol:NetworkRegistry",
        "label": "updater",
        "offset": 0,
        "slot": "105",
        "type": "t_address"
      },
      {
        "astId": 8516,
        "contract": "contracts/NetworkRegistry.sol:NetworkRegistry",
        "label": "networkRegistry",
        "offset": 0,
        "slot": "106",
        "type": "t_mapping(t_uint32,t_struct(Registry)11026_storage)"
      },
      {
        "astId": 8519,
        "contract": "contracts/NetworkRegistry.sol:NetworkRegistry",
        "label": "splitMain",
        "offset": 0,
        "slot": "107",
        "type": "t_contract(ISplitMain)11437"
      },
      {
        "astId": 8521,
        "contract": "contracts/NetworkRegistry.sol:NetworkRegistry",
        "label": "split",
        "offset": 0,
        "slot": "108",
        "type": "t_address"
      }
    ],
    "types": {
      "t_address": {
        "encoding": "inplace",
        "label": "address",
        "numberOfBytes": "20"
      },
      "t_array(t_struct(Member)11528_storage)dyn_storage": {
        "base": "t_struct(Member)11528_storage",
        "encoding": "dynamic_array",
        "label": "struct MemberRegistry.Member[]",
        "numberOfBytes": "32"
      },
      "t_array(t_uint256)49_storage": {
        "base": "t_uint256",
        "encoding": "inplace",
        "label": "uint256[49]",
        "numberOfBytes": "1568"
      },
      "t_array(t_uint256)50_storage": {
        "base": "t_uint256",
        "encoding": "inplace",
        "label": "uint256[50]",
        "numberOfBytes": "1600"
      },
      "t_bool": {
        "encoding": "inplace",
        "label": "bool",
        "numberOfBytes": "1"
      },
      "t_contract(IConnext)285": {
        "encoding": "inplace",
        "label": "contract IConnext",
        "numberOfBytes": "20"
      },
      "t_contract(ISplitMain)11437": {
        "encoding": "inplace",
        "label": "contract ISplitMain",
        "numberOfBytes": "20"
      },
      "t_mapping(t_address,t_uint256)": {
        "encoding": "mapping",
        "key": "t_address",
        "label": "mapping(address => uint256)",
        "numberOfBytes": "32",
        "value": "t_uint256"
      },
      "t_mapping(t_uint32,t_struct(Registry)11026_storage)": {
        "encoding": "mapping",
        "key": "t_uint32",
        "label": "mapping(uint32 => struct INetworkMemberRegistry.Registry)",
        "numberOfBytes": "32",
        "value": "t_struct(Registry)11026_storage"
      },
      "t_struct(Member)11528_storage": {
        "encoding": "inplace",
        "label": "struct MemberRegistry.Member",
        "members": [
          {
            "astId": 11521,
            "contract": "contracts/NetworkRegistry.sol:NetworkRegistry",
            "label": "account",
            "offset": 0,
            "slot": "0",
            "type": "t_address"
          },
          {
            "astId": 11523,
            "contract": "contracts/NetworkRegistry.sol:NetworkRegistry",
            "label": "secondsActive",
            "offset": 20,
            "slot": "0",
            "type": "t_uint32"
          },
          {
            "astId": 11525,
            "contract": "contracts/NetworkRegistry.sol:NetworkRegistry",
            "label": "startDate",
            "offset": 24,
            "slot": "0",
            "type": "t_uint32"
          },
          {
            "astId": 11527,
            "contract": "contracts/NetworkRegistry.sol:NetworkRegistry",
            "label": "activityMultiplier",
            "offset": 28,
            "slot": "0",
            "type": "t_uint32"
          }
        ],
        "numberOfBytes": "32"
      },
      "t_struct(Registry)11026_storage": {
        "encoding": "inplace",
        "label": "struct INetworkMemberRegistry.Registry",
        "members": [
          {
            "astId": 11021,
            "contract": "contracts/NetworkRegistry.sol:NetworkRegistry",
            "label": "domainId",
            "offset": 0,
            "slot": "0",
            "type": "t_uint32"
          },
          {
            "astId": 11023,
            "contract": "contracts/NetworkRegistry.sol:NetworkRegistry",
            "label": "registryAddress",
            "offset": 4,
            "slot": "0",
            "type": "t_address"
          },
          {
            "astId": 11025,
            "contract": "contracts/NetworkRegistry.sol:NetworkRegistry",
            "label": "delegate",
            "offset": 0,
            "slot": "1",
            "type": "t_address"
          }
        ],
        "numberOfBytes": "64"
      },
      "t_uint256": {
        "encoding": "inplace",
        "label": "uint256",
        "numberOfBytes": "32"
      },
      "t_uint32": {
        "encoding": "inplace",
        "label": "uint32",
        "numberOfBytes": "4"
      },
      "t_uint8": {
        "encoding": "inplace",
        "label": "uint8",
        "numberOfBytes": "1"
      }
    }
  }
}